{
	"contracts/ExercisePractice/MultiSigWallet.sol": {
		"MultiSigWallet": {
			"abi": [
				{
					"inputs": [
						{
							"internalType": "address[]",
							"name": "_owners",
							"type": "address[]"
						},
						{
							"internalType": "uint256",
							"name": "_required",
							"type": "uint256"
						}
					],
					"stateMutability": "nonpayable",
					"type": "constructor"
				},
				{
					"anonymous": false,
					"inputs": [
						{
							"indexed": true,
							"internalType": "address",
							"name": "owner",
							"type": "address"
						},
						{
							"indexed": true,
							"internalType": "uint256",
							"name": "txIndex",
							"type": "uint256"
						}
					],
					"name": "CancelTransaction",
					"type": "event"
				},
				{
					"anonymous": false,
					"inputs": [
						{
							"indexed": true,
							"internalType": "address",
							"name": "owner",
							"type": "address"
						},
						{
							"indexed": true,
							"internalType": "uint256",
							"name": "txIndex",
							"type": "uint256"
						}
					],
					"name": "ConfirmTransaction",
					"type": "event"
				},
				{
					"anonymous": false,
					"inputs": [
						{
							"indexed": true,
							"internalType": "address",
							"name": "sender",
							"type": "address"
						},
						{
							"indexed": false,
							"internalType": "uint256",
							"name": "amount",
							"type": "uint256"
						},
						{
							"indexed": false,
							"internalType": "uint256",
							"name": "balance",
							"type": "uint256"
						}
					],
					"name": "Deposit",
					"type": "event"
				},
				{
					"anonymous": false,
					"inputs": [
						{
							"indexed": true,
							"internalType": "address",
							"name": "owner",
							"type": "address"
						},
						{
							"indexed": true,
							"internalType": "uint256",
							"name": "txIndex",
							"type": "uint256"
						}
					],
					"name": "ExecuteTransaction",
					"type": "event"
				},
				{
					"anonymous": false,
					"inputs": [
						{
							"indexed": false,
							"internalType": "uint256",
							"name": "required",
							"type": "uint256"
						}
					],
					"name": "RequirementChange",
					"type": "event"
				},
				{
					"anonymous": false,
					"inputs": [
						{
							"indexed": true,
							"internalType": "address",
							"name": "owner",
							"type": "address"
						},
						{
							"indexed": true,
							"internalType": "uint256",
							"name": "txIndex",
							"type": "uint256"
						}
					],
					"name": "RevokeConfirmation",
					"type": "event"
				},
				{
					"anonymous": false,
					"inputs": [
						{
							"indexed": true,
							"internalType": "address",
							"name": "owner",
							"type": "address"
						},
						{
							"indexed": true,
							"internalType": "uint256",
							"name": "txIndex",
							"type": "uint256"
						},
						{
							"indexed": true,
							"internalType": "address",
							"name": "to",
							"type": "address"
						},
						{
							"indexed": false,
							"internalType": "uint256",
							"name": "value",
							"type": "uint256"
						},
						{
							"indexed": false,
							"internalType": "bytes",
							"name": "data",
							"type": "bytes"
						}
					],
					"name": "SubmitTransaction",
					"type": "event"
				},
				{
					"inputs": [
						{
							"internalType": "uint256",
							"name": "_txIndex",
							"type": "uint256"
						}
					],
					"name": "cancelTransaction",
					"outputs": [],
					"stateMutability": "nonpayable",
					"type": "function"
				},
				{
					"inputs": [
						{
							"internalType": "uint256",
							"name": "_txIndex",
							"type": "uint256"
						}
					],
					"name": "confirmTransaction",
					"outputs": [],
					"stateMutability": "nonpayable",
					"type": "function"
				},
				{
					"inputs": [
						{
							"internalType": "uint256",
							"name": "",
							"type": "uint256"
						},
						{
							"internalType": "address",
							"name": "",
							"type": "address"
						}
					],
					"name": "confirmations",
					"outputs": [
						{
							"internalType": "bool",
							"name": "",
							"type": "bool"
						}
					],
					"stateMutability": "view",
					"type": "function"
				},
				{
					"inputs": [],
					"name": "deposit",
					"outputs": [],
					"stateMutability": "payable",
					"type": "function"
				},
				{
					"inputs": [
						{
							"internalType": "uint256",
							"name": "_txIndex",
							"type": "uint256"
						}
					],
					"name": "executeTransaction",
					"outputs": [],
					"stateMutability": "nonpayable",
					"type": "function"
				},
				{
					"inputs": [],
					"name": "getOwners",
					"outputs": [
						{
							"internalType": "address[]",
							"name": "",
							"type": "address[]"
						}
					],
					"stateMutability": "view",
					"type": "function"
				},
				{
					"inputs": [],
					"name": "getRequired",
					"outputs": [
						{
							"internalType": "uint256",
							"name": "",
							"type": "uint256"
						}
					],
					"stateMutability": "view",
					"type": "function"
				},
				{
					"inputs": [
						{
							"internalType": "uint256",
							"name": "_txIndex",
							"type": "uint256"
						}
					],
					"name": "getTransaction",
					"outputs": [
						{
							"internalType": "address",
							"name": "to",
							"type": "address"
						},
						{
							"internalType": "uint256",
							"name": "value",
							"type": "uint256"
						},
						{
							"internalType": "bytes",
							"name": "data",
							"type": "bytes"
						},
						{
							"internalType": "bool",
							"name": "executed",
							"type": "bool"
						},
						{
							"internalType": "uint256",
							"name": "confirmationCount",
							"type": "uint256"
						},
						{
							"internalType": "bool",
							"name": "canceled",
							"type": "bool"
						}
					],
					"stateMutability": "view",
					"type": "function"
				},
				{
					"inputs": [],
					"name": "getTransactionCount",
					"outputs": [
						{
							"internalType": "uint256",
							"name": "",
							"type": "uint256"
						}
					],
					"stateMutability": "view",
					"type": "function"
				},
				{
					"inputs": [
						{
							"internalType": "uint256",
							"name": "_txIndex",
							"type": "uint256"
						},
						{
							"internalType": "address",
							"name": "_owner",
							"type": "address"
						}
					],
					"name": "isConfirmed",
					"outputs": [
						{
							"internalType": "bool",
							"name": "",
							"type": "bool"
						}
					],
					"stateMutability": "view",
					"type": "function"
				},
				{
					"inputs": [
						{
							"internalType": "address",
							"name": "",
							"type": "address"
						}
					],
					"name": "isOwner",
					"outputs": [
						{
							"internalType": "bool",
							"name": "",
							"type": "bool"
						}
					],
					"stateMutability": "view",
					"type": "function"
				},
				{
					"inputs": [
						{
							"internalType": "uint256",
							"name": "",
							"type": "uint256"
						}
					],
					"name": "owners",
					"outputs": [
						{
							"internalType": "address",
							"name": "",
							"type": "address"
						}
					],
					"stateMutability": "view",
					"type": "function"
				},
				{
					"inputs": [],
					"name": "required",
					"outputs": [
						{
							"internalType": "uint256",
							"name": "",
							"type": "uint256"
						}
					],
					"stateMutability": "view",
					"type": "function"
				},
				{
					"inputs": [
						{
							"internalType": "uint256",
							"name": "_txIndex",
							"type": "uint256"
						}
					],
					"name": "revokeConfirmation",
					"outputs": [],
					"stateMutability": "nonpayable",
					"type": "function"
				},
				{
					"inputs": [
						{
							"internalType": "address",
							"name": "_to",
							"type": "address"
						},
						{
							"internalType": "uint256",
							"name": "_value",
							"type": "uint256"
						},
						{
							"internalType": "bytes",
							"name": "_data",
							"type": "bytes"
						}
					],
					"name": "submitTransaction",
					"outputs": [
						{
							"internalType": "uint256",
							"name": "txIndex",
							"type": "uint256"
						}
					],
					"stateMutability": "nonpayable",
					"type": "function"
				},
				{
					"inputs": [
						{
							"internalType": "uint256",
							"name": "",
							"type": "uint256"
						}
					],
					"name": "transactions",
					"outputs": [
						{
							"internalType": "address",
							"name": "to",
							"type": "address"
						},
						{
							"internalType": "uint256",
							"name": "value",
							"type": "uint256"
						},
						{
							"internalType": "bytes",
							"name": "data",
							"type": "bytes"
						},
						{
							"internalType": "bool",
							"name": "executed",
							"type": "bool"
						},
						{
							"internalType": "uint256",
							"name": "confirmationCount",
							"type": "uint256"
						},
						{
							"internalType": "bool",
							"name": "canceled",
							"type": "bool"
						}
					],
					"stateMutability": "view",
					"type": "function"
				},
				{
					"stateMutability": "payable",
					"type": "receive"
				}
			],
			"devdoc": {
				"details": "A multi-signature wallet contract that requires multiple confirmations before executing transactions.",
				"kind": "dev",
				"methods": {
					"cancelTransaction(uint256)": {
						"details": "Allows an owner to cancel a transaction before it is executed.",
						"params": {
							"_txIndex": "Transaction index"
						}
					},
					"confirmTransaction(uint256)": {
						"details": "Allows an owner to confirm a transaction.",
						"params": {
							"_txIndex": "Transaction index"
						}
					},
					"constructor": {
						"details": "Initializes the contract with a list of owners and the number of required confirmations.",
						"params": {
							"_owners": "List of initial owners",
							"_required": "Number of required confirmations"
						}
					},
					"executeTransaction(uint256)": {
						"details": "Executes a confirmed transaction.",
						"params": {
							"_txIndex": "Transaction index"
						}
					},
					"getOwners()": {
						"details": "Returns the list of owners.",
						"returns": {
							"_0": "Array of owner addresses"
						}
					},
					"getRequired()": {
						"details": "Returns the number of required confirmations.",
						"returns": {
							"_0": "Number of required confirmations"
						}
					},
					"getTransaction(uint256)": {
						"details": "Returns details of a specific transaction.",
						"params": {
							"_txIndex": "Transaction index"
						},
						"returns": {
							"canceled": "Whether the transaction has been canceled",
							"confirmationCount": "Number of confirmations",
							"data": "Transaction data",
							"executed": "Whether the transaction has been executed",
							"to": "Recipient address",
							"value": "Amount of Ether"
						}
					},
					"getTransactionCount()": {
						"details": "Returns the number of transactions.",
						"returns": {
							"_0": "Number of transactions"
						}
					},
					"isConfirmed(uint256,address)": {
						"details": "Returns whether an owner has confirmed a transaction.",
						"params": {
							"_owner": "Owner address",
							"_txIndex": "Transaction index"
						},
						"returns": {
							"_0": "Confirmation status"
						}
					},
					"revokeConfirmation(uint256)": {
						"details": "Allows an owner to revoke a confirmation for a transaction.",
						"params": {
							"_txIndex": "Transaction index"
						}
					},
					"submitTransaction(address,uint256,bytes)": {
						"details": "Allows an owner to submit a transaction.",
						"params": {
							"_data": "Transaction data",
							"_to": "Recipient address",
							"_value": "Amount of Ether to send"
						},
						"returns": {
							"txIndex": "The index of the submitted transaction"
						}
					}
				},
				"title": "MultiSigWallet",
				"version": 1
			},
			"evm": {
				"assembly": "    /* \"contracts/ExercisePractice/MultiSigWallet.sol\":943:10168  contract MultiSigWallet {... */\n  mstore(0x40, 0x80)\n    /* \"contracts/ExercisePractice/MultiSigWallet.sol\":3896:4524  constructor(address[] memory _owners, uint256 _required) {... */\n  callvalue\n  dup1\n  iszero\n  tag_1\n  jumpi\n  0x00\n  dup1\n  revert\ntag_1:\n  pop\n  mload(0x40)\n  sub(codesize, bytecodeSize)\n  dup1\n  bytecodeSize\n  dup4\n  codecopy\n  dup2\n  dup2\n  add\n  0x40\n  mstore\n  dup2\n  add\n  swap1\n  tag_2\n  swap2\n  swap1\n  tag_3\n  jump\t// in\ntag_2:\n    /* \"contracts/ExercisePractice/MultiSigWallet.sol\":3988:3989  0 */\n  0x00\n    /* \"contracts/ExercisePractice/MultiSigWallet.sol\":3971:3978  _owners */\n  dup3\n    /* \"contracts/ExercisePractice/MultiSigWallet.sol\":3971:3985  _owners.length */\n  mload\n    /* \"contracts/ExercisePractice/MultiSigWallet.sol\":3971:3989  _owners.length > 0 */\n  gt\n    /* \"contracts/ExercisePractice/MultiSigWallet.sol\":3963:4009  require(_owners.length > 0, \"Owners required\") */\n  tag_6\n  jumpi\n  mload(0x40)\n  0x08c379a000000000000000000000000000000000000000000000000000000000\n  dup2\n  mstore\n  0x04\n  add\n  tag_7\n  swap1\n  tag_8\n  jump\t// in\ntag_7:\n  mload(0x40)\n  dup1\n  swap2\n  sub\n  swap1\n  revert\ntag_6:\n    /* \"contracts/ExercisePractice/MultiSigWallet.sol\":4052:4053  0 */\n  0x00\n    /* \"contracts/ExercisePractice/MultiSigWallet.sol\":4040:4049  _required */\n  dup2\n    /* \"contracts/ExercisePractice/MultiSigWallet.sol\":4040:4053  _required > 0 */\n  gt\n    /* \"contracts/ExercisePractice/MultiSigWallet.sol\":4040:4084  _required > 0 && _required <= _owners.length */\n  dup1\n  iszero\n  tag_9\n  jumpi\n  pop\n    /* \"contracts/ExercisePractice/MultiSigWallet.sol\":4070:4077  _owners */\n  dup2\n    /* \"contracts/ExercisePractice/MultiSigWallet.sol\":4070:4084  _owners.length */\n  mload\n    /* \"contracts/ExercisePractice/MultiSigWallet.sol\":4057:4066  _required */\n  dup2\n    /* \"contracts/ExercisePractice/MultiSigWallet.sol\":4057:4084  _required <= _owners.length */\n  gt\n  iszero\n    /* \"contracts/ExercisePractice/MultiSigWallet.sol\":4040:4084  _required > 0 && _required <= _owners.length */\ntag_9:\n    /* \"contracts/ExercisePractice/MultiSigWallet.sol\":4019:4150  require(... */\n  tag_10\n  jumpi\n  mload(0x40)\n  0x08c379a000000000000000000000000000000000000000000000000000000000\n  dup2\n  mstore\n  0x04\n  add\n  tag_11\n  swap1\n  tag_12\n  jump\t// in\ntag_11:\n  mload(0x40)\n  dup1\n  swap2\n  sub\n  swap1\n  revert\ntag_10:\n    /* \"contracts/ExercisePractice/MultiSigWallet.sol\":4166:4175  uint256 i */\n  0x00\n    /* \"contracts/ExercisePractice/MultiSigWallet.sol\":4161:4443  for (uint256 i = 0; i < _owners.length; i++) {... */\ntag_13:\n    /* \"contracts/ExercisePractice/MultiSigWallet.sol\":4185:4192  _owners */\n  dup3\n    /* \"contracts/ExercisePractice/MultiSigWallet.sol\":4185:4199  _owners.length */\n  mload\n    /* \"contracts/ExercisePractice/MultiSigWallet.sol\":4181:4182  i */\n  dup2\n    /* \"contracts/ExercisePractice/MultiSigWallet.sol\":4181:4199  i < _owners.length */\n  lt\n    /* \"contracts/ExercisePractice/MultiSigWallet.sol\":4161:4443  for (uint256 i = 0; i < _owners.length; i++) {... */\n  iszero\n  tag_14\n  jumpi\n    /* \"contracts/ExercisePractice/MultiSigWallet.sol\":4220:4233  address owner */\n  0x00\n    /* \"contracts/ExercisePractice/MultiSigWallet.sol\":4236:4243  _owners */\n  dup4\n    /* \"contracts/ExercisePractice/MultiSigWallet.sol\":4244:4245  i */\n  dup3\n    /* \"contracts/ExercisePractice/MultiSigWallet.sol\":4236:4246  _owners[i] */\n  dup2\n  mload\n  dup2\n  lt\n  tag_16\n  jumpi\n  tag_17\n  tag_18\n  jump\t// in\ntag_17:\ntag_16:\n  0x20\n  mul\n  0x20\n  add\n  add\n  mload\n    /* \"contracts/ExercisePractice/MultiSigWallet.sol\":4220:4246  address owner = _owners[i] */\n  swap1\n  pop\n    /* \"contracts/ExercisePractice/MultiSigWallet.sol\":4286:4287  0 */\n  0x00\n    /* \"contracts/ExercisePractice/MultiSigWallet.sol\":4269:4288  owner != address(0) */\n  0xffffffffffffffffffffffffffffffffffffffff\n  and\n    /* \"contracts/ExercisePractice/MultiSigWallet.sol\":4269:4274  owner */\n  dup2\n    /* \"contracts/ExercisePractice/MultiSigWallet.sol\":4269:4288  owner != address(0) */\n  0xffffffffffffffffffffffffffffffffffffffff\n  and\n  sub\n    /* \"contracts/ExercisePractice/MultiSigWallet.sol\":4261:4306  require(owner != address(0), \"Invalid owner\") */\n  tag_19\n  jumpi\n  mload(0x40)\n  0x08c379a000000000000000000000000000000000000000000000000000000000\n  dup2\n  mstore\n  0x04\n  add\n  tag_20\n  swap1\n  tag_21\n  jump\t// in\ntag_20:\n  mload(0x40)\n  dup1\n  swap2\n  sub\n  swap1\n  revert\ntag_19:\n    /* \"contracts/ExercisePractice/MultiSigWallet.sol\":4329:4336  isOwner */\n  0x01\n    /* \"contracts/ExercisePractice/MultiSigWallet.sol\":4329:4343  isOwner[owner] */\n  0x00\n    /* \"contracts/ExercisePractice/MultiSigWallet.sol\":4337:4342  owner */\n  dup3\n    /* \"contracts/ExercisePractice/MultiSigWallet.sol\":4329:4343  isOwner[owner] */\n  0xffffffffffffffffffffffffffffffffffffffff\n  and\n  0xffffffffffffffffffffffffffffffffffffffff\n  and\n  dup2\n  mstore\n  0x20\n  add\n  swap1\n  dup2\n  mstore\n  0x20\n  add\n  0x00\n  keccak256\n  0x00\n  swap1\n  sload\n  swap1\n  0x0100\n  exp\n  swap1\n  div\n  0xff\n  and\n    /* \"contracts/ExercisePractice/MultiSigWallet.sol\":4328:4343  !isOwner[owner] */\n  iszero\n    /* \"contracts/ExercisePractice/MultiSigWallet.sol\":4320:4364  require(!isOwner[owner], \"Owner not unique\") */\n  tag_22\n  jumpi\n  mload(0x40)\n  0x08c379a000000000000000000000000000000000000000000000000000000000\n  dup2\n  mstore\n  0x04\n  add\n  tag_23\n  swap1\n  tag_24\n  jump\t// in\ntag_23:\n  mload(0x40)\n  dup1\n  swap2\n  sub\n  swap1\n  revert\ntag_22:\n    /* \"contracts/ExercisePractice/MultiSigWallet.sol\":4396:4400  true */\n  0x01\n    /* \"contracts/ExercisePractice/MultiSigWallet.sol\":4379:4386  isOwner */\n  dup1\n    /* \"contracts/ExercisePractice/MultiSigWallet.sol\":4379:4393  isOwner[owner] */\n  0x00\n    /* \"contracts/ExercisePractice/MultiSigWallet.sol\":4387:4392  owner */\n  dup4\n    /* \"contracts/ExercisePractice/MultiSigWallet.sol\":4379:4393  isOwner[owner] */\n  0xffffffffffffffffffffffffffffffffffffffff\n  and\n  0xffffffffffffffffffffffffffffffffffffffff\n  and\n  dup2\n  mstore\n  0x20\n  add\n  swap1\n  dup2\n  mstore\n  0x20\n  add\n  0x00\n  keccak256\n  0x00\n    /* \"contracts/ExercisePractice/MultiSigWallet.sol\":4379:4400  isOwner[owner] = true */\n  0x0100\n  exp\n  dup2\n  sload\n  dup2\n  0xff\n  mul\n  not\n  and\n  swap1\n  dup4\n  iszero\n  iszero\n  mul\n  or\n  swap1\n  sstore\n  pop\n    /* \"contracts/ExercisePractice/MultiSigWallet.sol\":4414:4420  owners */\n  0x00\n    /* \"contracts/ExercisePractice/MultiSigWallet.sol\":4426:4431  owner */\n  dup2\n    /* \"contracts/ExercisePractice/MultiSigWallet.sol\":4414:4432  owners.push(owner) */\n  swap1\n  dup1\n  0x01\n  dup2\n  sload\n  add\n  dup1\n  dup3\n  sstore\n  dup1\n  swap2\n  pop\n  pop\n  0x01\n  swap1\n  sub\n  swap1\n  0x00\n  mstore\n  keccak256(0x00, 0x20)\n  add\n  0x00\n  swap1\n  swap2\n  swap1\n  swap2\n  swap1\n  swap2\n  0x0100\n  exp\n  dup2\n  sload\n  dup2\n  0xffffffffffffffffffffffffffffffffffffffff\n  mul\n  not\n  and\n  swap1\n  dup4\n  0xffffffffffffffffffffffffffffffffffffffff\n  and\n  mul\n  or\n  swap1\n  sstore\n  pop\n    /* \"contracts/ExercisePractice/MultiSigWallet.sol\":4206:4443  {... */\n  pop\n    /* \"contracts/ExercisePractice/MultiSigWallet.sol\":4201:4204  i++ */\n  dup1\n  dup1\n  0x01\n  add\n  swap2\n  pop\n  pop\n    /* \"contracts/ExercisePractice/MultiSigWallet.sol\":4161:4443  for (uint256 i = 0; i < _owners.length; i++) {... */\n  jump(tag_13)\ntag_14:\n  pop\n    /* \"contracts/ExercisePractice/MultiSigWallet.sol\":4464:4473  _required */\n  dup1\n    /* \"contracts/ExercisePractice/MultiSigWallet.sol\":4453:4461  required */\n  0x02\n    /* \"contracts/ExercisePractice/MultiSigWallet.sol\":4453:4473  required = _required */\n  dup2\n  swap1\n  sstore\n  pop\n    /* \"contracts/ExercisePractice/MultiSigWallet.sol\":4489:4517  RequirementChange(_required) */\n  0xa3f1ee9126a074d9326c682f561767f710e927faa811f7a99829d49dc421797a\n    /* \"contracts/ExercisePractice/MultiSigWallet.sol\":4507:4516  _required */\n  dup2\n    /* \"contracts/ExercisePractice/MultiSigWallet.sol\":4489:4517  RequirementChange(_required) */\n  mload(0x40)\n  tag_26\n  swap2\n  swap1\n  tag_27\n  jump\t// in\ntag_26:\n  mload(0x40)\n  dup1\n  swap2\n  sub\n  swap1\n  log1\n    /* \"contracts/ExercisePractice/MultiSigWallet.sol\":3896:4524  constructor(address[] memory _owners, uint256 _required) {... */\n  pop\n  pop\n    /* \"contracts/ExercisePractice/MultiSigWallet.sol\":943:10168  contract MultiSigWallet {... */\n  jump(tag_28)\n    /* \"#utility.yul\":7:82   */\ntag_29:\n    /* \"#utility.yul\":40:46   */\n  0x00\n    /* \"#utility.yul\":73:75   */\n  0x40\n    /* \"#utility.yul\":67:76   */\n  mload\n    /* \"#utility.yul\":57:76   */\n  swap1\n  pop\n    /* \"#utility.yul\":7:82   */\n  swap1\n  jump\t// out\n    /* \"#utility.yul\":88:205   */\ntag_30:\n    /* \"#utility.yul\":197:198   */\n  0x00\n    /* \"#utility.yul\":194:195   */\n  dup1\n    /* \"#utility.yul\":187:199   */\n  revert\n    /* \"#utility.yul\":211:328   */\ntag_31:\n    /* \"#utility.yul\":320:321   */\n  0x00\n    /* \"#utility.yul\":317:318   */\n  dup1\n    /* \"#utility.yul\":310:322   */\n  revert\n    /* \"#utility.yul\":334:451   */\ntag_32:\n    /* \"#utility.yul\":443:444   */\n  0x00\n    /* \"#utility.yul\":440:441   */\n  dup1\n    /* \"#utility.yul\":433:445   */\n  revert\n    /* \"#utility.yul\":457:559   */\ntag_33:\n    /* \"#utility.yul\":498:504   */\n  0x00\n    /* \"#utility.yul\":549:551   */\n  0x1f\n    /* \"#utility.yul\":545:552   */\n  not\n    /* \"#utility.yul\":540:542   */\n  0x1f\n    /* \"#utility.yul\":533:538   */\n  dup4\n    /* \"#utility.yul\":529:543   */\n  add\n    /* \"#utility.yul\":525:553   */\n  and\n    /* \"#utility.yul\":515:553   */\n  swap1\n  pop\n    /* \"#utility.yul\":457:559   */\n  swap2\n  swap1\n  pop\n  jump\t// out\n    /* \"#utility.yul\":565:745   */\ntag_34:\n    /* \"#utility.yul\":613:690   */\n  0x4e487b7100000000000000000000000000000000000000000000000000000000\n    /* \"#utility.yul\":610:611   */\n  0x00\n    /* \"#utility.yul\":603:691   */\n  mstore\n    /* \"#utility.yul\":710:714   */\n  0x41\n    /* \"#utility.yul\":707:708   */\n  0x04\n    /* \"#utility.yul\":700:715   */\n  mstore\n    /* \"#utility.yul\":734:738   */\n  0x24\n    /* \"#utility.yul\":731:732   */\n  0x00\n    /* \"#utility.yul\":724:739   */\n  revert\n    /* \"#utility.yul\":751:1032   */\ntag_35:\n    /* \"#utility.yul\":834:861   */\n  tag_66\n    /* \"#utility.yul\":856:860   */\n  dup3\n    /* \"#utility.yul\":834:861   */\n  tag_33\n  jump\t// in\ntag_66:\n    /* \"#utility.yul\":826:832   */\n  dup2\n    /* \"#utility.yul\":822:862   */\n  add\n    /* \"#utility.yul\":964:970   */\n  dup2\n    /* \"#utility.yul\":952:962   */\n  dup2\n    /* \"#utility.yul\":949:971   */\n  lt\n    /* \"#utility.yul\":928:946   */\n  0xffffffffffffffff\n    /* \"#utility.yul\":916:926   */\n  dup3\n    /* \"#utility.yul\":913:947   */\n  gt\n    /* \"#utility.yul\":910:972   */\n  or\n    /* \"#utility.yul\":907:995   */\n  iszero\n  tag_67\n  jumpi\n    /* \"#utility.yul\":975:993   */\n  tag_68\n  tag_34\n  jump\t// in\ntag_68:\n    /* \"#utility.yul\":907:995   */\ntag_67:\n    /* \"#utility.yul\":1015:1025   */\n  dup1\n    /* \"#utility.yul\":1011:1013   */\n  0x40\n    /* \"#utility.yul\":1004:1026   */\n  mstore\n    /* \"#utility.yul\":794:1032   */\n  pop\n    /* \"#utility.yul\":751:1032   */\n  pop\n  pop\n  jump\t// out\n    /* \"#utility.yul\":1038:1167   */\ntag_36:\n    /* \"#utility.yul\":1072:1078   */\n  0x00\n    /* \"#utility.yul\":1099:1119   */\n  tag_70\n  tag_29\n  jump\t// in\ntag_70:\n    /* \"#utility.yul\":1089:1119   */\n  swap1\n  pop\n    /* \"#utility.yul\":1128:1161   */\n  tag_71\n    /* \"#utility.yul\":1156:1160   */\n  dup3\n    /* \"#utility.yul\":1148:1154   */\n  dup3\n    /* \"#utility.yul\":1128:1161   */\n  tag_35\n  jump\t// in\ntag_71:\n    /* \"#utility.yul\":1038:1167   */\n  swap2\n  swap1\n  pop\n  jump\t// out\n    /* \"#utility.yul\":1173:1484   */\ntag_37:\n    /* \"#utility.yul\":1250:1254   */\n  0x00\n    /* \"#utility.yul\":1340:1358   */\n  0xffffffffffffffff\n    /* \"#utility.yul\":1332:1338   */\n  dup3\n    /* \"#utility.yul\":1329:1359   */\n  gt\n    /* \"#utility.yul\":1326:1382   */\n  iszero\n  tag_73\n  jumpi\n    /* \"#utility.yul\":1362:1380   */\n  tag_74\n  tag_34\n  jump\t// in\ntag_74:\n    /* \"#utility.yul\":1326:1382   */\ntag_73:\n    /* \"#utility.yul\":1412:1416   */\n  0x20\n    /* \"#utility.yul\":1404:1410   */\n  dup3\n    /* \"#utility.yul\":1400:1417   */\n  mul\n    /* \"#utility.yul\":1392:1417   */\n  swap1\n  pop\n    /* \"#utility.yul\":1472:1476   */\n  0x20\n    /* \"#utility.yul\":1466:1470   */\n  dup2\n    /* \"#utility.yul\":1462:1477   */\n  add\n    /* \"#utility.yul\":1454:1477   */\n  swap1\n  pop\n    /* \"#utility.yul\":1173:1484   */\n  swap2\n  swap1\n  pop\n  jump\t// out\n    /* \"#utility.yul\":1490:1607   */\ntag_38:\n    /* \"#utility.yul\":1599:1600   */\n  0x00\n    /* \"#utility.yul\":1596:1597   */\n  dup1\n    /* \"#utility.yul\":1589:1601   */\n  revert\n    /* \"#utility.yul\":1613:1739   */\ntag_39:\n    /* \"#utility.yul\":1650:1657   */\n  0x00\n    /* \"#utility.yul\":1690:1732   */\n  0xffffffffffffffffffffffffffffffffffffffff\n    /* \"#utility.yul\":1683:1688   */\n  dup3\n    /* \"#utility.yul\":1679:1733   */\n  and\n    /* \"#utility.yul\":1668:1733   */\n  swap1\n  pop\n    /* \"#utility.yul\":1613:1739   */\n  swap2\n  swap1\n  pop\n  jump\t// out\n    /* \"#utility.yul\":1745:1841   */\ntag_40:\n    /* \"#utility.yul\":1782:1789   */\n  0x00\n    /* \"#utility.yul\":1811:1835   */\n  tag_78\n    /* \"#utility.yul\":1829:1834   */\n  dup3\n    /* \"#utility.yul\":1811:1835   */\n  tag_39\n  jump\t// in\ntag_78:\n    /* \"#utility.yul\":1800:1835   */\n  swap1\n  pop\n    /* \"#utility.yul\":1745:1841   */\n  swap2\n  swap1\n  pop\n  jump\t// out\n    /* \"#utility.yul\":1847:1969   */\ntag_41:\n    /* \"#utility.yul\":1920:1944   */\n  tag_80\n    /* \"#utility.yul\":1938:1943   */\n  dup2\n    /* \"#utility.yul\":1920:1944   */\n  tag_40\n  jump\t// in\ntag_80:\n    /* \"#utility.yul\":1913:1918   */\n  dup2\n    /* \"#utility.yul\":1910:1945   */\n  eq\n    /* \"#utility.yul\":1900:1963   */\n  tag_81\n  jumpi\n    /* \"#utility.yul\":1959:1960   */\n  0x00\n    /* \"#utility.yul\":1956:1957   */\n  dup1\n    /* \"#utility.yul\":1949:1961   */\n  revert\n    /* \"#utility.yul\":1900:1963   */\ntag_81:\n    /* \"#utility.yul\":1847:1969   */\n  pop\n  jump\t// out\n    /* \"#utility.yul\":1975:2118   */\ntag_42:\n    /* \"#utility.yul\":2032:2037   */\n  0x00\n    /* \"#utility.yul\":2063:2069   */\n  dup2\n    /* \"#utility.yul\":2057:2070   */\n  mload\n    /* \"#utility.yul\":2048:2070   */\n  swap1\n  pop\n    /* \"#utility.yul\":2079:2112   */\n  tag_83\n    /* \"#utility.yul\":2106:2111   */\n  dup2\n    /* \"#utility.yul\":2079:2112   */\n  tag_41\n  jump\t// in\ntag_83:\n    /* \"#utility.yul\":1975:2118   */\n  swap3\n  swap2\n  pop\n  pop\n  jump\t// out\n    /* \"#utility.yul\":2141:2873   */\ntag_43:\n    /* \"#utility.yul\":2248:2253   */\n  0x00\n    /* \"#utility.yul\":2273:2354   */\n  tag_85\n    /* \"#utility.yul\":2289:2353   */\n  tag_86\n    /* \"#utility.yul\":2346:2352   */\n  dup5\n    /* \"#utility.yul\":2289:2353   */\n  tag_37\n  jump\t// in\ntag_86:\n    /* \"#utility.yul\":2273:2354   */\n  tag_36\n  jump\t// in\ntag_85:\n    /* \"#utility.yul\":2264:2354   */\n  swap1\n  pop\n    /* \"#utility.yul\":2374:2379   */\n  dup1\n    /* \"#utility.yul\":2403:2409   */\n  dup4\n    /* \"#utility.yul\":2396:2401   */\n  dup3\n    /* \"#utility.yul\":2389:2410   */\n  mstore\n    /* \"#utility.yul\":2437:2441   */\n  0x20\n    /* \"#utility.yul\":2430:2435   */\n  dup3\n    /* \"#utility.yul\":2426:2442   */\n  add\n    /* \"#utility.yul\":2419:2442   */\n  swap1\n  pop\n    /* \"#utility.yul\":2490:2494   */\n  0x20\n    /* \"#utility.yul\":2482:2488   */\n  dup5\n    /* \"#utility.yul\":2478:2495   */\n  mul\n    /* \"#utility.yul\":2470:2476   */\n  dup4\n    /* \"#utility.yul\":2466:2496   */\n  add\n    /* \"#utility.yul\":2519:2522   */\n  dup6\n    /* \"#utility.yul\":2511:2517   */\n  dup2\n    /* \"#utility.yul\":2508:2523   */\n  gt\n    /* \"#utility.yul\":2505:2627   */\n  iszero\n  tag_87\n  jumpi\n    /* \"#utility.yul\":2538:2617   */\n  tag_88\n  tag_38\n  jump\t// in\ntag_88:\n    /* \"#utility.yul\":2505:2627   */\ntag_87:\n    /* \"#utility.yul\":2653:2659   */\n  dup4\n    /* \"#utility.yul\":2636:2867   */\ntag_89:\n    /* \"#utility.yul\":2670:2676   */\n  dup2\n    /* \"#utility.yul\":2665:2668   */\n  dup2\n    /* \"#utility.yul\":2662:2677   */\n  lt\n    /* \"#utility.yul\":2636:2867   */\n  iszero\n  tag_91\n  jumpi\n    /* \"#utility.yul\":2745:2748   */\n  dup1\n    /* \"#utility.yul\":2774:2822   */\n  tag_92\n    /* \"#utility.yul\":2818:2821   */\n  dup9\n    /* \"#utility.yul\":2806:2816   */\n  dup3\n    /* \"#utility.yul\":2774:2822   */\n  tag_42\n  jump\t// in\ntag_92:\n    /* \"#utility.yul\":2769:2772   */\n  dup5\n    /* \"#utility.yul\":2762:2823   */\n  mstore\n    /* \"#utility.yul\":2852:2856   */\n  0x20\n    /* \"#utility.yul\":2847:2850   */\n  dup5\n    /* \"#utility.yul\":2843:2857   */\n  add\n    /* \"#utility.yul\":2836:2857   */\n  swap4\n  pop\n    /* \"#utility.yul\":2712:2867   */\n  pop\n    /* \"#utility.yul\":2696:2700   */\n  0x20\n    /* \"#utility.yul\":2691:2694   */\n  dup2\n    /* \"#utility.yul\":2687:2701   */\n  add\n    /* \"#utility.yul\":2680:2701   */\n  swap1\n  pop\n    /* \"#utility.yul\":2636:2867   */\n  jump(tag_89)\ntag_91:\n    /* \"#utility.yul\":2640:2661   */\n  pop\n    /* \"#utility.yul\":2254:2873   */\n  pop\n  pop\n    /* \"#utility.yul\":2141:2873   */\n  swap4\n  swap3\n  pop\n  pop\n  pop\n  jump\t// out\n    /* \"#utility.yul\":2896:3281   */\ntag_44:\n    /* \"#utility.yul\":2978:2983   */\n  0x00\n    /* \"#utility.yul\":3027:3030   */\n  dup3\n    /* \"#utility.yul\":3020:3024   */\n  0x1f\n    /* \"#utility.yul\":3012:3018   */\n  dup4\n    /* \"#utility.yul\":3008:3025   */\n  add\n    /* \"#utility.yul\":3004:3031   */\n  slt\n    /* \"#utility.yul\":2994:3116   */\n  tag_94\n  jumpi\n    /* \"#utility.yul\":3035:3114   */\n  tag_95\n  tag_32\n  jump\t// in\ntag_95:\n    /* \"#utility.yul\":2994:3116   */\ntag_94:\n    /* \"#utility.yul\":3145:3151   */\n  dup2\n    /* \"#utility.yul\":3139:3152   */\n  mload\n    /* \"#utility.yul\":3170:3275   */\n  tag_96\n    /* \"#utility.yul\":3271:3274   */\n  dup5\n    /* \"#utility.yul\":3263:3269   */\n  dup3\n    /* \"#utility.yul\":3256:3260   */\n  0x20\n    /* \"#utility.yul\":3248:3254   */\n  dup7\n    /* \"#utility.yul\":3244:3261   */\n  add\n    /* \"#utility.yul\":3170:3275   */\n  tag_43\n  jump\t// in\ntag_96:\n    /* \"#utility.yul\":3161:3275   */\n  swap2\n  pop\n    /* \"#utility.yul\":2984:3281   */\n  pop\n    /* \"#utility.yul\":2896:3281   */\n  swap3\n  swap2\n  pop\n  pop\n  jump\t// out\n    /* \"#utility.yul\":3287:3364   */\ntag_45:\n    /* \"#utility.yul\":3324:3331   */\n  0x00\n    /* \"#utility.yul\":3353:3358   */\n  dup2\n    /* \"#utility.yul\":3342:3358   */\n  swap1\n  pop\n    /* \"#utility.yul\":3287:3364   */\n  swap2\n  swap1\n  pop\n  jump\t// out\n    /* \"#utility.yul\":3370:3492   */\ntag_46:\n    /* \"#utility.yul\":3443:3467   */\n  tag_99\n    /* \"#utility.yul\":3461:3466   */\n  dup2\n    /* \"#utility.yul\":3443:3467   */\n  tag_45\n  jump\t// in\ntag_99:\n    /* \"#utility.yul\":3436:3441   */\n  dup2\n    /* \"#utility.yul\":3433:3468   */\n  eq\n    /* \"#utility.yul\":3423:3486   */\n  tag_100\n  jumpi\n    /* \"#utility.yul\":3482:3483   */\n  0x00\n    /* \"#utility.yul\":3479:3480   */\n  dup1\n    /* \"#utility.yul\":3472:3484   */\n  revert\n    /* \"#utility.yul\":3423:3486   */\ntag_100:\n    /* \"#utility.yul\":3370:3492   */\n  pop\n  jump\t// out\n    /* \"#utility.yul\":3498:3641   */\ntag_47:\n    /* \"#utility.yul\":3555:3560   */\n  0x00\n    /* \"#utility.yul\":3586:3592   */\n  dup2\n    /* \"#utility.yul\":3580:3593   */\n  mload\n    /* \"#utility.yul\":3571:3593   */\n  swap1\n  pop\n    /* \"#utility.yul\":3602:3635   */\n  tag_102\n    /* \"#utility.yul\":3629:3634   */\n  dup2\n    /* \"#utility.yul\":3602:3635   */\n  tag_46\n  jump\t// in\ntag_102:\n    /* \"#utility.yul\":3498:3641   */\n  swap3\n  swap2\n  pop\n  pop\n  jump\t// out\n    /* \"#utility.yul\":3647:4357   */\ntag_3:\n    /* \"#utility.yul\":3751:3757   */\n  0x00\n    /* \"#utility.yul\":3759:3765   */\n  dup1\n    /* \"#utility.yul\":3808:3810   */\n  0x40\n    /* \"#utility.yul\":3796:3805   */\n  dup4\n    /* \"#utility.yul\":3787:3794   */\n  dup6\n    /* \"#utility.yul\":3783:3806   */\n  sub\n    /* \"#utility.yul\":3779:3811   */\n  slt\n    /* \"#utility.yul\":3776:3895   */\n  iszero\n  tag_104\n  jumpi\n    /* \"#utility.yul\":3814:3893   */\n  tag_105\n  tag_30\n  jump\t// in\ntag_105:\n    /* \"#utility.yul\":3776:3895   */\ntag_104:\n    /* \"#utility.yul\":3955:3956   */\n  0x00\n    /* \"#utility.yul\":3944:3953   */\n  dup4\n    /* \"#utility.yul\":3940:3957   */\n  add\n    /* \"#utility.yul\":3934:3958   */\n  mload\n    /* \"#utility.yul\":3985:4003   */\n  0xffffffffffffffff\n    /* \"#utility.yul\":3977:3983   */\n  dup2\n    /* \"#utility.yul\":3974:4004   */\n  gt\n    /* \"#utility.yul\":3971:4088   */\n  iszero\n  tag_106\n  jumpi\n    /* \"#utility.yul\":4007:4086   */\n  tag_107\n  tag_31\n  jump\t// in\ntag_107:\n    /* \"#utility.yul\":3971:4088   */\ntag_106:\n    /* \"#utility.yul\":4112:4201   */\n  tag_108\n    /* \"#utility.yul\":4193:4200   */\n  dup6\n    /* \"#utility.yul\":4184:4190   */\n  dup3\n    /* \"#utility.yul\":4173:4182   */\n  dup7\n    /* \"#utility.yul\":4169:4191   */\n  add\n    /* \"#utility.yul\":4112:4201   */\n  tag_44\n  jump\t// in\ntag_108:\n    /* \"#utility.yul\":4102:4201   */\n  swap3\n  pop\n    /* \"#utility.yul\":3905:4211   */\n  pop\n    /* \"#utility.yul\":4250:4252   */\n  0x20\n    /* \"#utility.yul\":4276:4340   */\n  tag_109\n    /* \"#utility.yul\":4332:4339   */\n  dup6\n    /* \"#utility.yul\":4323:4329   */\n  dup3\n    /* \"#utility.yul\":4312:4321   */\n  dup7\n    /* \"#utility.yul\":4308:4330   */\n  add\n    /* \"#utility.yul\":4276:4340   */\n  tag_47\n  jump\t// in\ntag_109:\n    /* \"#utility.yul\":4266:4340   */\n  swap2\n  pop\n    /* \"#utility.yul\":4221:4350   */\n  pop\n    /* \"#utility.yul\":3647:4357   */\n  swap3\n  pop\n  swap3\n  swap1\n  pop\n  jump\t// out\n    /* \"#utility.yul\":4363:4532   */\ntag_48:\n    /* \"#utility.yul\":4447:4458   */\n  0x00\n    /* \"#utility.yul\":4481:4487   */\n  dup3\n    /* \"#utility.yul\":4476:4479   */\n  dup3\n    /* \"#utility.yul\":4469:4488   */\n  mstore\n    /* \"#utility.yul\":4521:4525   */\n  0x20\n    /* \"#utility.yul\":4516:4519   */\n  dup3\n    /* \"#utility.yul\":4512:4526   */\n  add\n    /* \"#utility.yul\":4497:4526   */\n  swap1\n  pop\n    /* \"#utility.yul\":4363:4532   */\n  swap3\n  swap2\n  pop\n  pop\n  jump\t// out\n    /* \"#utility.yul\":4538:4703   */\ntag_49:\n    /* \"#utility.yul\":4678:4695   */\n  0x4f776e6572732072657175697265640000000000000000000000000000000000\n    /* \"#utility.yul\":4674:4675   */\n  0x00\n    /* \"#utility.yul\":4666:4672   */\n  dup3\n    /* \"#utility.yul\":4662:4676   */\n  add\n    /* \"#utility.yul\":4655:4696   */\n  mstore\n    /* \"#utility.yul\":4538:4703   */\n  pop\n  jump\t// out\n    /* \"#utility.yul\":4709:5075   */\ntag_50:\n    /* \"#utility.yul\":4851:4854   */\n  0x00\n    /* \"#utility.yul\":4872:4939   */\n  tag_113\n    /* \"#utility.yul\":4936:4938   */\n  0x0f\n    /* \"#utility.yul\":4931:4934   */\n  dup4\n    /* \"#utility.yul\":4872:4939   */\n  tag_48\n  jump\t// in\ntag_113:\n    /* \"#utility.yul\":4865:4939   */\n  swap2\n  pop\n    /* \"#utility.yul\":4948:5041   */\n  tag_114\n    /* \"#utility.yul\":5037:5040   */\n  dup3\n    /* \"#utility.yul\":4948:5041   */\n  tag_49\n  jump\t// in\ntag_114:\n    /* \"#utility.yul\":5066:5068   */\n  0x20\n    /* \"#utility.yul\":5061:5064   */\n  dup3\n    /* \"#utility.yul\":5057:5069   */\n  add\n    /* \"#utility.yul\":5050:5069   */\n  swap1\n  pop\n    /* \"#utility.yul\":4709:5075   */\n  swap2\n  swap1\n  pop\n  jump\t// out\n    /* \"#utility.yul\":5081:5500   */\ntag_8:\n    /* \"#utility.yul\":5247:5251   */\n  0x00\n    /* \"#utility.yul\":5285:5287   */\n  0x20\n    /* \"#utility.yul\":5274:5283   */\n  dup3\n    /* \"#utility.yul\":5270:5288   */\n  add\n    /* \"#utility.yul\":5262:5288   */\n  swap1\n  pop\n    /* \"#utility.yul\":5334:5343   */\n  dup2\n    /* \"#utility.yul\":5328:5332   */\n  dup2\n    /* \"#utility.yul\":5324:5344   */\n  sub\n    /* \"#utility.yul\":5320:5321   */\n  0x00\n    /* \"#utility.yul\":5309:5318   */\n  dup4\n    /* \"#utility.yul\":5305:5322   */\n  add\n    /* \"#utility.yul\":5298:5345   */\n  mstore\n    /* \"#utility.yul\":5362:5493   */\n  tag_116\n    /* \"#utility.yul\":5488:5492   */\n  dup2\n    /* \"#utility.yul\":5362:5493   */\n  tag_50\n  jump\t// in\ntag_116:\n    /* \"#utility.yul\":5354:5493   */\n  swap1\n  pop\n    /* \"#utility.yul\":5081:5500   */\n  swap2\n  swap1\n  pop\n  jump\t// out\n    /* \"#utility.yul\":5506:5733   */\ntag_51:\n    /* \"#utility.yul\":5646:5680   */\n  0x496e76616c6964206e756d626572206f6620726571756972656420636f6e6669\n    /* \"#utility.yul\":5642:5643   */\n  0x00\n    /* \"#utility.yul\":5634:5640   */\n  dup3\n    /* \"#utility.yul\":5630:5644   */\n  add\n    /* \"#utility.yul\":5623:5681   */\n  mstore\n    /* \"#utility.yul\":5715:5725   */\n  0x726d6174696f6e73000000000000000000000000000000000000000000000000\n    /* \"#utility.yul\":5710:5712   */\n  0x20\n    /* \"#utility.yul\":5702:5708   */\n  dup3\n    /* \"#utility.yul\":5698:5713   */\n  add\n    /* \"#utility.yul\":5691:5726   */\n  mstore\n    /* \"#utility.yul\":5506:5733   */\n  pop\n  jump\t// out\n    /* \"#utility.yul\":5739:6105   */\ntag_52:\n    /* \"#utility.yul\":5881:5884   */\n  0x00\n    /* \"#utility.yul\":5902:5969   */\n  tag_119\n    /* \"#utility.yul\":5966:5968   */\n  0x28\n    /* \"#utility.yul\":5961:5964   */\n  dup4\n    /* \"#utility.yul\":5902:5969   */\n  tag_48\n  jump\t// in\ntag_119:\n    /* \"#utility.yul\":5895:5969   */\n  swap2\n  pop\n    /* \"#utility.yul\":5978:6071   */\n  tag_120\n    /* \"#utility.yul\":6067:6070   */\n  dup3\n    /* \"#utility.yul\":5978:6071   */\n  tag_51\n  jump\t// in\ntag_120:\n    /* \"#utility.yul\":6096:6098   */\n  0x40\n    /* \"#utility.yul\":6091:6094   */\n  dup3\n    /* \"#utility.yul\":6087:6099   */\n  add\n    /* \"#utility.yul\":6080:6099   */\n  swap1\n  pop\n    /* \"#utility.yul\":5739:6105   */\n  swap2\n  swap1\n  pop\n  jump\t// out\n    /* \"#utility.yul\":6111:6530   */\ntag_12:\n    /* \"#utility.yul\":6277:6281   */\n  0x00\n    /* \"#utility.yul\":6315:6317   */\n  0x20\n    /* \"#utility.yul\":6304:6313   */\n  dup3\n    /* \"#utility.yul\":6300:6318   */\n  add\n    /* \"#utility.yul\":6292:6318   */\n  swap1\n  pop\n    /* \"#utility.yul\":6364:6373   */\n  dup2\n    /* \"#utility.yul\":6358:6362   */\n  dup2\n    /* \"#utility.yul\":6354:6374   */\n  sub\n    /* \"#utility.yul\":6350:6351   */\n  0x00\n    /* \"#utility.yul\":6339:6348   */\n  dup4\n    /* \"#utility.yul\":6335:6352   */\n  add\n    /* \"#utility.yul\":6328:6375   */\n  mstore\n    /* \"#utility.yul\":6392:6523   */\n  tag_122\n    /* \"#utility.yul\":6518:6522   */\n  dup2\n    /* \"#utility.yul\":6392:6523   */\n  tag_52\n  jump\t// in\ntag_122:\n    /* \"#utility.yul\":6384:6523   */\n  swap1\n  pop\n    /* \"#utility.yul\":6111:6530   */\n  swap2\n  swap1\n  pop\n  jump\t// out\n    /* \"#utility.yul\":6536:6716   */\ntag_18:\n    /* \"#utility.yul\":6584:6661   */\n  0x4e487b7100000000000000000000000000000000000000000000000000000000\n    /* \"#utility.yul\":6581:6582   */\n  0x00\n    /* \"#utility.yul\":6574:6662   */\n  mstore\n    /* \"#utility.yul\":6681:6685   */\n  0x32\n    /* \"#utility.yul\":6678:6679   */\n  0x04\n    /* \"#utility.yul\":6671:6686   */\n  mstore\n    /* \"#utility.yul\":6705:6709   */\n  0x24\n    /* \"#utility.yul\":6702:6703   */\n  0x00\n    /* \"#utility.yul\":6695:6710   */\n  revert\n    /* \"#utility.yul\":6722:6885   */\ntag_53:\n    /* \"#utility.yul\":6862:6877   */\n  0x496e76616c6964206f776e657200000000000000000000000000000000000000\n    /* \"#utility.yul\":6858:6859   */\n  0x00\n    /* \"#utility.yul\":6850:6856   */\n  dup3\n    /* \"#utility.yul\":6846:6860   */\n  add\n    /* \"#utility.yul\":6839:6878   */\n  mstore\n    /* \"#utility.yul\":6722:6885   */\n  pop\n  jump\t// out\n    /* \"#utility.yul\":6891:7257   */\ntag_54:\n    /* \"#utility.yul\":7033:7036   */\n  0x00\n    /* \"#utility.yul\":7054:7121   */\n  tag_126\n    /* \"#utility.yul\":7118:7120   */\n  0x0d\n    /* \"#utility.yul\":7113:7116   */\n  dup4\n    /* \"#utility.yul\":7054:7121   */\n  tag_48\n  jump\t// in\ntag_126:\n    /* \"#utility.yul\":7047:7121   */\n  swap2\n  pop\n    /* \"#utility.yul\":7130:7223   */\n  tag_127\n    /* \"#utility.yul\":7219:7222   */\n  dup3\n    /* \"#utility.yul\":7130:7223   */\n  tag_53\n  jump\t// in\ntag_127:\n    /* \"#utility.yul\":7248:7250   */\n  0x20\n    /* \"#utility.yul\":7243:7246   */\n  dup3\n    /* \"#utility.yul\":7239:7251   */\n  add\n    /* \"#utility.yul\":7232:7251   */\n  swap1\n  pop\n    /* \"#utility.yul\":6891:7257   */\n  swap2\n  swap1\n  pop\n  jump\t// out\n    /* \"#utility.yul\":7263:7682   */\ntag_21:\n    /* \"#utility.yul\":7429:7433   */\n  0x00\n    /* \"#utility.yul\":7467:7469   */\n  0x20\n    /* \"#utility.yul\":7456:7465   */\n  dup3\n    /* \"#utility.yul\":7452:7470   */\n  add\n    /* \"#utility.yul\":7444:7470   */\n  swap1\n  pop\n    /* \"#utility.yul\":7516:7525   */\n  dup2\n    /* \"#utility.yul\":7510:7514   */\n  dup2\n    /* \"#utility.yul\":7506:7526   */\n  sub\n    /* \"#utility.yul\":7502:7503   */\n  0x00\n    /* \"#utility.yul\":7491:7500   */\n  dup4\n    /* \"#utility.yul\":7487:7504   */\n  add\n    /* \"#utility.yul\":7480:7527   */\n  mstore\n    /* \"#utility.yul\":7544:7675   */\n  tag_129\n    /* \"#utility.yul\":7670:7674   */\n  dup2\n    /* \"#utility.yul\":7544:7675   */\n  tag_54\n  jump\t// in\ntag_129:\n    /* \"#utility.yul\":7536:7675   */\n  swap1\n  pop\n    /* \"#utility.yul\":7263:7682   */\n  swap2\n  swap1\n  pop\n  jump\t// out\n    /* \"#utility.yul\":7688:7854   */\ntag_55:\n    /* \"#utility.yul\":7828:7846   */\n  0x4f776e6572206e6f7420756e6971756500000000000000000000000000000000\n    /* \"#utility.yul\":7824:7825   */\n  0x00\n    /* \"#utility.yul\":7816:7822   */\n  dup3\n    /* \"#utility.yul\":7812:7826   */\n  add\n    /* \"#utility.yul\":7805:7847   */\n  mstore\n    /* \"#utility.yul\":7688:7854   */\n  pop\n  jump\t// out\n    /* \"#utility.yul\":7860:8226   */\ntag_56:\n    /* \"#utility.yul\":8002:8005   */\n  0x00\n    /* \"#utility.yul\":8023:8090   */\n  tag_132\n    /* \"#utility.yul\":8087:8089   */\n  0x10\n    /* \"#utility.yul\":8082:8085   */\n  dup4\n    /* \"#utility.yul\":8023:8090   */\n  tag_48\n  jump\t// in\ntag_132:\n    /* \"#utility.yul\":8016:8090   */\n  swap2\n  pop\n    /* \"#utility.yul\":8099:8192   */\n  tag_133\n    /* \"#utility.yul\":8188:8191   */\n  dup3\n    /* \"#utility.yul\":8099:8192   */\n  tag_55\n  jump\t// in\ntag_133:\n    /* \"#utility.yul\":8217:8219   */\n  0x20\n    /* \"#utility.yul\":8212:8215   */\n  dup3\n    /* \"#utility.yul\":8208:8220   */\n  add\n    /* \"#utility.yul\":8201:8220   */\n  swap1\n  pop\n    /* \"#utility.yul\":7860:8226   */\n  swap2\n  swap1\n  pop\n  jump\t// out\n    /* \"#utility.yul\":8232:8651   */\ntag_24:\n    /* \"#utility.yul\":8398:8402   */\n  0x00\n    /* \"#utility.yul\":8436:8438   */\n  0x20\n    /* \"#utility.yul\":8425:8434   */\n  dup3\n    /* \"#utility.yul\":8421:8439   */\n  add\n    /* \"#utility.yul\":8413:8439   */\n  swap1\n  pop\n    /* \"#utility.yul\":8485:8494   */\n  dup2\n    /* \"#utility.yul\":8479:8483   */\n  dup2\n    /* \"#utility.yul\":8475:8495   */\n  sub\n    /* \"#utility.yul\":8471:8472   */\n  0x00\n    /* \"#utility.yul\":8460:8469   */\n  dup4\n    /* \"#utility.yul\":8456:8473   */\n  add\n    /* \"#utility.yul\":8449:8496   */\n  mstore\n    /* \"#utility.yul\":8513:8644   */\n  tag_135\n    /* \"#utility.yul\":8639:8643   */\n  dup2\n    /* \"#utility.yul\":8513:8644   */\n  tag_56\n  jump\t// in\ntag_135:\n    /* \"#utility.yul\":8505:8644   */\n  swap1\n  pop\n    /* \"#utility.yul\":8232:8651   */\n  swap2\n  swap1\n  pop\n  jump\t// out\n    /* \"#utility.yul\":8657:8775   */\ntag_57:\n    /* \"#utility.yul\":8744:8768   */\n  tag_137\n    /* \"#utility.yul\":8762:8767   */\n  dup2\n    /* \"#utility.yul\":8744:8768   */\n  tag_45\n  jump\t// in\ntag_137:\n    /* \"#utility.yul\":8739:8742   */\n  dup3\n    /* \"#utility.yul\":8732:8769   */\n  mstore\n    /* \"#utility.yul\":8657:8775   */\n  pop\n  pop\n  jump\t// out\n    /* \"#utility.yul\":8781:9003   */\ntag_27:\n    /* \"#utility.yul\":8874:8878   */\n  0x00\n    /* \"#utility.yul\":8912:8914   */\n  0x20\n    /* \"#utility.yul\":8901:8910   */\n  dup3\n    /* \"#utility.yul\":8897:8915   */\n  add\n    /* \"#utility.yul\":8889:8915   */\n  swap1\n  pop\n    /* \"#utility.yul\":8925:8996   */\n  tag_139\n    /* \"#utility.yul\":8993:8994   */\n  0x00\n    /* \"#utility.yul\":8982:8991   */\n  dup4\n    /* \"#utility.yul\":8978:8995   */\n  add\n    /* \"#utility.yul\":8969:8975   */\n  dup5\n    /* \"#utility.yul\":8925:8996   */\n  tag_57\n  jump\t// in\ntag_139:\n    /* \"#utility.yul\":8781:9003   */\n  swap3\n  swap2\n  pop\n  pop\n  jump\t// out\n    /* \"contracts/ExercisePractice/MultiSigWallet.sol\":943:10168  contract MultiSigWallet {... */\ntag_28:\n  dataSize(sub_0)\n  dup1\n  dataOffset(sub_0)\n  0x00\n  codecopy\n  0x00\n  return\nstop\n\nsub_0: assembly {\n        /* \"contracts/ExercisePractice/MultiSigWallet.sol\":943:10168  contract MultiSigWallet {... */\n      mstore(0x40, 0x80)\n      jumpi(tag_1, lt(calldatasize, 0x04))\n      shr(0xe0, calldataload(0x00))\n      dup1\n      0x80f59a65\n      gt\n      tag_19\n      jumpi\n      dup1\n      0xc6427474\n      gt\n      tag_20\n      jumpi\n      dup1\n      0xc6427474\n      eq\n      tag_15\n      jumpi\n      dup1\n      0xd0e30db0\n      eq\n      tag_16\n      jumpi\n      dup1\n      0xdc8452cd\n      eq\n      tag_17\n      jumpi\n      dup1\n      0xee22610b\n      eq\n      tag_18\n      jumpi\n      jump(tag_2)\n    tag_20:\n      dup1\n      0x80f59a65\n      eq\n      tag_11\n      jumpi\n      dup1\n      0x9ace38c2\n      eq\n      tag_12\n      jumpi\n      dup1\n      0xa0e67e2b\n      eq\n      tag_13\n      jumpi\n      dup1\n      0xc01a8c84\n      eq\n      tag_14\n      jumpi\n      jump(tag_2)\n    tag_19:\n      dup1\n      0x2f54bf6e\n      gt\n      tag_21\n      jumpi\n      dup1\n      0x2f54bf6e\n      eq\n      tag_7\n      jumpi\n      dup1\n      0x3380c0d8\n      eq\n      tag_8\n      jumpi\n      dup1\n      0x33ea3dc8\n      eq\n      tag_9\n      jumpi\n      dup1\n      0x3411c81c\n      eq\n      tag_10\n      jumpi\n      jump(tag_2)\n    tag_21:\n      dup1\n      0x025e7c27\n      eq\n      tag_3\n      jumpi\n      dup1\n      0x1398a5f6\n      eq\n      tag_4\n      jumpi\n      dup1\n      0x20ea8d86\n      eq\n      tag_5\n      jumpi\n      dup1\n      0x2e7700f0\n      eq\n      tag_6\n      jumpi\n      jump(tag_2)\n    tag_1:\n      jumpi(tag_2, calldatasize)\n        /* \"contracts/ExercisePractice/MultiSigWallet.sol\":4872:4882  msg.sender */\n      caller\n        /* \"contracts/ExercisePractice/MultiSigWallet.sol\":4864:4917  Deposit(msg.sender, msg.value, address(this).balance) */\n      0xffffffffffffffffffffffffffffffffffffffff\n      and\n      0x90890809c654f11d6e72a28fa60149770a0d11ec6c92319d6ceb2bb0a4ea1a15\n        /* \"contracts/ExercisePractice/MultiSigWallet.sol\":4884:4893  msg.value */\n      callvalue\n        /* \"contracts/ExercisePractice/MultiSigWallet.sol\":4895:4916  address(this).balance */\n      selfbalance\n        /* \"contracts/ExercisePractice/MultiSigWallet.sol\":4864:4917  Deposit(msg.sender, msg.value, address(this).balance) */\n      mload(0x40)\n      tag_24\n      swap3\n      swap2\n      swap1\n      tag_25\n      jump\t// in\n    tag_24:\n      mload(0x40)\n      dup1\n      swap2\n      sub\n      swap1\n      log2\n        /* \"contracts/ExercisePractice/MultiSigWallet.sol\":943:10168  contract MultiSigWallet {... */\n      stop\n    tag_2:\n      0x00\n      dup1\n      revert\n        /* \"contracts/ExercisePractice/MultiSigWallet.sol\":1052:1075  address[] public owners */\n    tag_3:\n      callvalue\n      dup1\n      iszero\n      tag_26\n      jumpi\n      0x00\n      dup1\n      revert\n    tag_26:\n      pop\n      tag_27\n      0x04\n      dup1\n      calldatasize\n      sub\n      dup2\n      add\n      swap1\n      tag_28\n      swap2\n      swap1\n      tag_29\n      jump\t// in\n    tag_28:\n      tag_30\n      jump\t// in\n    tag_27:\n      mload(0x40)\n      tag_31\n      swap2\n      swap1\n      tag_32\n      jump\t// in\n    tag_31:\n      mload(0x40)\n      dup1\n      swap2\n      sub\n      swap1\n      return\n        /* \"contracts/ExercisePractice/MultiSigWallet.sol\":10081:10166  function getRequired() public view returns (uint256) {... */\n    tag_4:\n      callvalue\n      dup1\n      iszero\n      tag_33\n      jumpi\n      0x00\n      dup1\n      revert\n    tag_33:\n      pop\n      tag_34\n      tag_35\n      jump\t// in\n    tag_34:\n      mload(0x40)\n      tag_36\n      swap2\n      swap1\n      tag_37\n      jump\t// in\n    tag_36:\n      mload(0x40)\n      dup1\n      swap2\n      sub\n      swap1\n      return\n        /* \"contracts/ExercisePractice/MultiSigWallet.sol\":7192:7672  function revokeConfirmation(uint256 _txIndex)... */\n    tag_5:\n      callvalue\n      dup1\n      iszero\n      tag_38\n      jumpi\n      0x00\n      dup1\n      revert\n    tag_38:\n      pop\n      tag_39\n      0x04\n      dup1\n      calldatasize\n      sub\n      dup2\n      add\n      swap1\n      tag_40\n      swap2\n      swap1\n      tag_29\n      jump\t// in\n    tag_40:\n      tag_41\n      jump\t// in\n    tag_39:\n      stop\n        /* \"contracts/ExercisePractice/MultiSigWallet.sol\":8300:8404  function getTransactionCount() public view returns (uint256) {... */\n    tag_6:\n      callvalue\n      dup1\n      iszero\n      tag_42\n      jumpi\n      0x00\n      dup1\n      revert\n    tag_42:\n      pop\n      tag_43\n      tag_44\n      jump\t// in\n    tag_43:\n      mload(0x40)\n      tag_45\n      swap2\n      swap1\n      tag_37\n      jump\t// in\n    tag_45:\n      mload(0x40)\n      dup1\n      swap2\n      sub\n      swap1\n      return\n        /* \"contracts/ExercisePractice/MultiSigWallet.sol\":1132:1171  mapping(address => bool) public isOwner */\n    tag_7:\n      callvalue\n      dup1\n      iszero\n      tag_46\n      jumpi\n      0x00\n      dup1\n      revert\n    tag_46:\n      pop\n      tag_47\n      0x04\n      dup1\n      calldatasize\n      sub\n      dup2\n      add\n      swap1\n      tag_48\n      swap2\n      swap1\n      tag_49\n      jump\t// in\n    tag_48:\n      tag_50\n      jump\t// in\n    tag_47:\n      mload(0x40)\n      tag_51\n      swap2\n      swap1\n      tag_52\n      jump\t// in\n    tag_51:\n      mload(0x40)\n      dup1\n      swap2\n      sub\n      swap1\n      return\n        /* \"contracts/ExercisePractice/MultiSigWallet.sol\":7810:8144  function cancelTransaction(uint256 _txIndex)... */\n    tag_8:\n      callvalue\n      dup1\n      iszero\n      tag_53\n      jumpi\n      0x00\n      dup1\n      revert\n    tag_53:\n      pop\n      tag_54\n      0x04\n      dup1\n      calldatasize\n      sub\n      dup2\n      add\n      swap1\n      tag_55\n      swap2\n      swap1\n      tag_29\n      jump\t// in\n    tag_55:\n      tag_56\n      jump\t// in\n    tag_54:\n      stop\n        /* \"contracts/ExercisePractice/MultiSigWallet.sol\":8821:9397  function getTransaction(uint256 _txIndex)... */\n    tag_9:\n      callvalue\n      dup1\n      iszero\n      tag_57\n      jumpi\n      0x00\n      dup1\n      revert\n    tag_57:\n      pop\n      tag_58\n      0x04\n      dup1\n      calldatasize\n      sub\n      dup2\n      add\n      swap1\n      tag_59\n      swap2\n      swap1\n      tag_29\n      jump\t// in\n    tag_59:\n      tag_60\n      jump\t// in\n    tag_58:\n      mload(0x40)\n      tag_61\n      swap7\n      swap6\n      swap5\n      swap4\n      swap3\n      swap2\n      swap1\n      tag_62\n      jump\t// in\n    tag_61:\n      mload(0x40)\n      dup1\n      swap2\n      sub\n      swap1\n      return\n        /* \"contracts/ExercisePractice/MultiSigWallet.sol\":1624:1689  mapping(uint256 => mapping(address => bool)) public confirmations */\n    tag_10:\n      callvalue\n      dup1\n      iszero\n      tag_63\n      jumpi\n      0x00\n      dup1\n      revert\n    tag_63:\n      pop\n      tag_64\n      0x04\n      dup1\n      calldatasize\n      sub\n      dup2\n      add\n      swap1\n      tag_65\n      swap2\n      swap1\n      tag_66\n      jump\t// in\n    tag_65:\n      tag_67\n      jump\t// in\n    tag_64:\n      mload(0x40)\n      tag_68\n      swap2\n      swap1\n      tag_52\n      jump\t// in\n    tag_68:\n      mload(0x40)\n      dup1\n      swap2\n      sub\n      swap1\n      return\n        /* \"contracts/ExercisePractice/MultiSigWallet.sol\":9596:9761  function isConfirmed(uint256 _txIndex, address _owner)... */\n    tag_11:\n      callvalue\n      dup1\n      iszero\n      tag_69\n      jumpi\n      0x00\n      dup1\n      revert\n    tag_69:\n      pop\n      tag_70\n      0x04\n      dup1\n      calldatasize\n      sub\n      dup2\n      add\n      swap1\n      tag_71\n      swap2\n      swap1\n      tag_66\n      jump\t// in\n    tag_71:\n      tag_72\n      jump\t// in\n    tag_70:\n      mload(0x40)\n      tag_73\n      swap2\n      swap1\n      tag_52\n      jump\t// in\n    tag_73:\n      mload(0x40)\n      dup1\n      swap2\n      sub\n      swap1\n      return\n        /* \"contracts/ExercisePractice/MultiSigWallet.sol\":1498:1531  Transaction[] public transactions */\n    tag_12:\n      callvalue\n      dup1\n      iszero\n      tag_74\n      jumpi\n      0x00\n      dup1\n      revert\n    tag_74:\n      pop\n      tag_75\n      0x04\n      dup1\n      calldatasize\n      sub\n      dup2\n      add\n      swap1\n      tag_76\n      swap2\n      swap1\n      tag_29\n      jump\t// in\n    tag_76:\n      tag_77\n      jump\t// in\n    tag_75:\n      mload(0x40)\n      tag_78\n      swap7\n      swap6\n      swap5\n      swap4\n      swap3\n      swap2\n      swap1\n      tag_62\n      jump\t// in\n    tag_78:\n      mload(0x40)\n      dup1\n      swap2\n      sub\n      swap1\n      return\n        /* \"contracts/ExercisePractice/MultiSigWallet.sol\":9863:9953  function getOwners() public view returns (address[] memory) {... */\n    tag_13:\n      callvalue\n      dup1\n      iszero\n      tag_79\n      jumpi\n      0x00\n      dup1\n      revert\n    tag_79:\n      pop\n      tag_80\n      tag_81\n      jump\t// in\n    tag_80:\n      mload(0x40)\n      tag_82\n      swap2\n      swap1\n      tag_83\n      jump\t// in\n    tag_82:\n      mload(0x40)\n      dup1\n      swap2\n      sub\n      swap1\n      return\n        /* \"contracts/ExercisePractice/MultiSigWallet.sol\":5883:6348  function confirmTransaction(uint256 _txIndex)... */\n    tag_14:\n      callvalue\n      dup1\n      iszero\n      tag_84\n      jumpi\n      0x00\n      dup1\n      revert\n    tag_84:\n      pop\n      tag_85\n      0x04\n      dup1\n      calldatasize\n      sub\n      dup2\n      add\n      swap1\n      tag_86\n      swap2\n      swap1\n      tag_29\n      jump\t// in\n    tag_86:\n      tag_87\n      jump\t// in\n    tag_85:\n      stop\n        /* \"contracts/ExercisePractice/MultiSigWallet.sol\":5229:5766  function submitTransaction(... */\n    tag_15:\n      callvalue\n      dup1\n      iszero\n      tag_88\n      jumpi\n      0x00\n      dup1\n      revert\n    tag_88:\n      pop\n      tag_89\n      0x04\n      dup1\n      calldatasize\n      sub\n      dup2\n      add\n      swap1\n      tag_90\n      swap2\n      swap1\n      tag_91\n      jump\t// in\n    tag_90:\n      tag_92\n      jump\t// in\n    tag_89:\n      mload(0x40)\n      tag_93\n      swap2\n      swap1\n      tag_37\n      jump\t// in\n    tag_93:\n      mload(0x40)\n      dup1\n      swap2\n      sub\n      swap1\n      return\n        /* \"contracts/ExercisePractice/MultiSigWallet.sol\":4576:4752  function deposit() public payable {... */\n    tag_16:\n      tag_94\n      tag_95\n      jump\t// in\n    tag_94:\n      stop\n        /* \"contracts/ExercisePractice/MultiSigWallet.sol\":1218:1241  uint256 public required */\n    tag_17:\n      callvalue\n      dup1\n      iszero\n      tag_96\n      jumpi\n      0x00\n      dup1\n      revert\n    tag_96:\n      pop\n      tag_97\n      tag_98\n      jump\t// in\n    tag_97:\n      mload(0x40)\n      tag_99\n      swap2\n      swap1\n      tag_37\n      jump\t// in\n    tag_99:\n      mload(0x40)\n      dup1\n      swap2\n      sub\n      swap1\n      return\n        /* \"contracts/ExercisePractice/MultiSigWallet.sol\":6457:7057  function executeTransaction(uint256 _txIndex)... */\n    tag_18:\n      callvalue\n      dup1\n      iszero\n      tag_100\n      jumpi\n      0x00\n      dup1\n      revert\n    tag_100:\n      pop\n      tag_101\n      0x04\n      dup1\n      calldatasize\n      sub\n      dup2\n      add\n      swap1\n      tag_102\n      swap2\n      swap1\n      tag_29\n      jump\t// in\n    tag_102:\n      tag_103\n      jump\t// in\n    tag_101:\n      stop\n        /* \"contracts/ExercisePractice/MultiSigWallet.sol\":1052:1075  address[] public owners */\n    tag_30:\n      0x00\n      dup2\n      dup2\n      sload\n      dup2\n      lt\n      tag_104\n      jumpi\n      0x00\n      dup1\n      revert\n    tag_104:\n      swap1\n      0x00\n      mstore\n      keccak256(0x00, 0x20)\n      add\n      0x00\n      swap2\n      pop\n      sload\n      swap1\n      0x0100\n      exp\n      swap1\n      div\n      0xffffffffffffffffffffffffffffffffffffffff\n      and\n      dup2\n      jump\t// out\n        /* \"contracts/ExercisePractice/MultiSigWallet.sol\":10081:10166  function getRequired() public view returns (uint256) {... */\n    tag_35:\n        /* \"contracts/ExercisePractice/MultiSigWallet.sol\":10125:10132  uint256 */\n      0x00\n        /* \"contracts/ExercisePractice/MultiSigWallet.sol\":10151:10159  required */\n      sload(0x02)\n        /* \"contracts/ExercisePractice/MultiSigWallet.sol\":10144:10159  return required */\n      swap1\n      pop\n        /* \"contracts/ExercisePractice/MultiSigWallet.sol\":10081:10166  function getRequired() public view returns (uint256) {... */\n      swap1\n      jump\t// out\n        /* \"contracts/ExercisePractice/MultiSigWallet.sol\":7192:7672  function revokeConfirmation(uint256 _txIndex)... */\n    tag_41:\n        /* \"contracts/ExercisePractice/MultiSigWallet.sol\":2504:2511  isOwner */\n      0x01\n        /* \"contracts/ExercisePractice/MultiSigWallet.sol\":2504:2523  isOwner[msg.sender] */\n      0x00\n        /* \"contracts/ExercisePractice/MultiSigWallet.sol\":2512:2522  msg.sender */\n      caller\n        /* \"contracts/ExercisePractice/MultiSigWallet.sol\":2504:2523  isOwner[msg.sender] */\n      0xffffffffffffffffffffffffffffffffffffffff\n      and\n      0xffffffffffffffffffffffffffffffffffffffff\n      and\n      dup2\n      mstore\n      0x20\n      add\n      swap1\n      dup2\n      mstore\n      0x20\n      add\n      0x00\n      keccak256\n      0x00\n      swap1\n      sload\n      swap1\n      0x0100\n      exp\n      swap1\n      div\n      0xff\n      and\n        /* \"contracts/ExercisePractice/MultiSigWallet.sol\":2496:2540  require(isOwner[msg.sender], \"Not an owner\") */\n      tag_108\n      jumpi\n      mload(0x40)\n      0x08c379a000000000000000000000000000000000000000000000000000000000\n      dup2\n      mstore\n      0x04\n      add\n      tag_109\n      swap1\n      tag_110\n      jump\t// in\n    tag_109:\n      mload(0x40)\n      dup1\n      swap2\n      sub\n      swap1\n      revert\n    tag_108:\n        /* \"contracts/ExercisePractice/MultiSigWallet.sol\":7288:7296  _txIndex */\n      dup1\n        /* \"contracts/ExercisePractice/MultiSigWallet.sol\":2740:2752  transactions */\n      0x03\n        /* \"contracts/ExercisePractice/MultiSigWallet.sol\":2740:2759  transactions.length */\n      dup1\n      sload\n      swap1\n      pop\n        /* \"contracts/ExercisePractice/MultiSigWallet.sol\":2729:2737  _txIndex */\n      dup2\n        /* \"contracts/ExercisePractice/MultiSigWallet.sol\":2729:2759  _txIndex < transactions.length */\n      lt\n        /* \"contracts/ExercisePractice/MultiSigWallet.sol\":2721:2790  require(_txIndex < transactions.length, \"Transaction does not exist\") */\n      tag_112\n      jumpi\n      mload(0x40)\n      0x08c379a000000000000000000000000000000000000000000000000000000000\n      dup2\n      mstore\n      0x04\n      add\n      tag_113\n      swap1\n      tag_114\n      jump\t// in\n    tag_113:\n      mload(0x40)\n      dup1\n      swap2\n      sub\n      swap1\n      revert\n    tag_112:\n        /* \"contracts/ExercisePractice/MultiSigWallet.sol\":7318:7326  _txIndex */\n      dup2\n        /* \"contracts/ExercisePractice/MultiSigWallet.sol\":2994:3006  transactions */\n      0x03\n        /* \"contracts/ExercisePractice/MultiSigWallet.sol\":3007:3015  _txIndex */\n      dup2\n        /* \"contracts/ExercisePractice/MultiSigWallet.sol\":2994:3016  transactions[_txIndex] */\n      dup2\n      sload\n      dup2\n      lt\n      tag_116\n      jumpi\n      tag_117\n      tag_118\n      jump\t// in\n    tag_117:\n    tag_116:\n      swap1\n      0x00\n      mstore\n      keccak256(0x00, 0x20)\n      swap1\n      0x06\n      mul\n      add\n        /* \"contracts/ExercisePractice/MultiSigWallet.sol\":2994:3025  transactions[_txIndex].executed */\n      0x03\n      add\n      0x00\n      swap1\n      sload\n      swap1\n      0x0100\n      exp\n      swap1\n      div\n      0xff\n      and\n        /* \"contracts/ExercisePractice/MultiSigWallet.sol\":2993:3025  !transactions[_txIndex].executed */\n      iszero\n        /* \"contracts/ExercisePractice/MultiSigWallet.sol\":2985:3058  require(!transactions[_txIndex].executed, \"Transaction already executed\") */\n      tag_120\n      jumpi\n      mload(0x40)\n      0x08c379a000000000000000000000000000000000000000000000000000000000\n      dup2\n      mstore\n      0x04\n      add\n      tag_121\n      swap1\n      tag_122\n      jump\t// in\n    tag_121:\n      mload(0x40)\n      dup1\n      swap2\n      sub\n      swap1\n      revert\n    tag_120:\n        /* \"contracts/ExercisePractice/MultiSigWallet.sol\":7348:7356  _txIndex */\n      dup3\n        /* \"contracts/ExercisePractice/MultiSigWallet.sol\":3254:3266  transactions */\n      0x03\n        /* \"contracts/ExercisePractice/MultiSigWallet.sol\":3267:3275  _txIndex */\n      dup2\n        /* \"contracts/ExercisePractice/MultiSigWallet.sol\":3254:3276  transactions[_txIndex] */\n      dup2\n      sload\n      dup2\n      lt\n      tag_124\n      jumpi\n      tag_125\n      tag_118\n      jump\t// in\n    tag_125:\n    tag_124:\n      swap1\n      0x00\n      mstore\n      keccak256(0x00, 0x20)\n      swap1\n      0x06\n      mul\n      add\n        /* \"contracts/ExercisePractice/MultiSigWallet.sol\":3254:3285  transactions[_txIndex].canceled */\n      0x05\n      add\n      0x00\n      swap1\n      sload\n      swap1\n      0x0100\n      exp\n      swap1\n      div\n      0xff\n      and\n        /* \"contracts/ExercisePractice/MultiSigWallet.sol\":3253:3285  !transactions[_txIndex].canceled */\n      iszero\n        /* \"contracts/ExercisePractice/MultiSigWallet.sol\":3245:3319  require(!transactions[_txIndex].canceled, \"Transaction has been canceled\") */\n      tag_127\n      jumpi\n      mload(0x40)\n      0x08c379a000000000000000000000000000000000000000000000000000000000\n      dup2\n      mstore\n      0x04\n      add\n      tag_128\n      swap1\n      tag_129\n      jump\t// in\n    tag_128:\n      mload(0x40)\n      dup1\n      swap2\n      sub\n      swap1\n      revert\n    tag_127:\n        /* \"contracts/ExercisePractice/MultiSigWallet.sol\":7380:7393  confirmations */\n      0x04\n        /* \"contracts/ExercisePractice/MultiSigWallet.sol\":7380:7403  confirmations[_txIndex] */\n      0x00\n        /* \"contracts/ExercisePractice/MultiSigWallet.sol\":7394:7402  _txIndex */\n      dup6\n        /* \"contracts/ExercisePractice/MultiSigWallet.sol\":7380:7403  confirmations[_txIndex] */\n      dup2\n      mstore\n      0x20\n      add\n      swap1\n      dup2\n      mstore\n      0x20\n      add\n      0x00\n      keccak256\n        /* \"contracts/ExercisePractice/MultiSigWallet.sol\":7380:7415  confirmations[_txIndex][msg.sender] */\n      0x00\n        /* \"contracts/ExercisePractice/MultiSigWallet.sol\":7404:7414  msg.sender */\n      caller\n        /* \"contracts/ExercisePractice/MultiSigWallet.sol\":7380:7415  confirmations[_txIndex][msg.sender] */\n      0xffffffffffffffffffffffffffffffffffffffff\n      and\n      0xffffffffffffffffffffffffffffffffffffffff\n      and\n      dup2\n      mstore\n      0x20\n      add\n      swap1\n      dup2\n      mstore\n      0x20\n      add\n      0x00\n      keccak256\n      0x00\n      swap1\n      sload\n      swap1\n      0x0100\n      exp\n      swap1\n      div\n      0xff\n      and\n        /* \"contracts/ExercisePractice/MultiSigWallet.sol\":7372:7445  require(confirmations[_txIndex][msg.sender], \"Transaction not confirmed\") */\n      tag_131\n      jumpi\n      mload(0x40)\n      0x08c379a000000000000000000000000000000000000000000000000000000000\n      dup2\n      mstore\n      0x04\n      add\n      tag_132\n      swap1\n      tag_133\n      jump\t// in\n    tag_132:\n      mload(0x40)\n      dup1\n      swap2\n      sub\n      swap1\n      revert\n    tag_131:\n        /* \"contracts/ExercisePractice/MultiSigWallet.sol\":7456:7487  Transaction storage transaction */\n      0x00\n        /* \"contracts/ExercisePractice/MultiSigWallet.sol\":7490:7502  transactions */\n      0x03\n        /* \"contracts/ExercisePractice/MultiSigWallet.sol\":7503:7511  _txIndex */\n      dup6\n        /* \"contracts/ExercisePractice/MultiSigWallet.sol\":7490:7512  transactions[_txIndex] */\n      dup2\n      sload\n      dup2\n      lt\n      tag_134\n      jumpi\n      tag_135\n      tag_118\n      jump\t// in\n    tag_135:\n    tag_134:\n      swap1\n      0x00\n      mstore\n      keccak256(0x00, 0x20)\n      swap1\n      0x06\n      mul\n      add\n        /* \"contracts/ExercisePractice/MultiSigWallet.sol\":7456:7512  Transaction storage transaction = transactions[_txIndex] */\n      swap1\n      pop\n        /* \"contracts/ExercisePractice/MultiSigWallet.sol\":7560:7565  false */\n      0x00\n        /* \"contracts/ExercisePractice/MultiSigWallet.sol\":7522:7535  confirmations */\n      0x04\n        /* \"contracts/ExercisePractice/MultiSigWallet.sol\":7522:7545  confirmations[_txIndex] */\n      0x00\n        /* \"contracts/ExercisePractice/MultiSigWallet.sol\":7536:7544  _txIndex */\n      dup8\n        /* \"contracts/ExercisePractice/MultiSigWallet.sol\":7522:7545  confirmations[_txIndex] */\n      dup2\n      mstore\n      0x20\n      add\n      swap1\n      dup2\n      mstore\n      0x20\n      add\n      0x00\n      keccak256\n        /* \"contracts/ExercisePractice/MultiSigWallet.sol\":7522:7557  confirmations[_txIndex][msg.sender] */\n      0x00\n        /* \"contracts/ExercisePractice/MultiSigWallet.sol\":7546:7556  msg.sender */\n      caller\n        /* \"contracts/ExercisePractice/MultiSigWallet.sol\":7522:7557  confirmations[_txIndex][msg.sender] */\n      0xffffffffffffffffffffffffffffffffffffffff\n      and\n      0xffffffffffffffffffffffffffffffffffffffff\n      and\n      dup2\n      mstore\n      0x20\n      add\n      swap1\n      dup2\n      mstore\n      0x20\n      add\n      0x00\n      keccak256\n      0x00\n        /* \"contracts/ExercisePractice/MultiSigWallet.sol\":7522:7565  confirmations[_txIndex][msg.sender] = false */\n      0x0100\n      exp\n      dup2\n      sload\n      dup2\n      0xff\n      mul\n      not\n      and\n      swap1\n      dup4\n      iszero\n      iszero\n      mul\n      or\n      swap1\n      sstore\n      pop\n        /* \"contracts/ExercisePractice/MultiSigWallet.sol\":7608:7609  1 */\n      0x01\n        /* \"contracts/ExercisePractice/MultiSigWallet.sol\":7575:7586  transaction */\n      dup2\n        /* \"contracts/ExercisePractice/MultiSigWallet.sol\":7575:7604  transaction.confirmationCount */\n      0x04\n      add\n      0x00\n        /* \"contracts/ExercisePractice/MultiSigWallet.sol\":7575:7609  transaction.confirmationCount -= 1 */\n      dup3\n      dup3\n      sload\n      tag_137\n      swap2\n      swap1\n      tag_138\n      jump\t// in\n    tag_137:\n      swap3\n      pop\n      pop\n      dup2\n      swap1\n      sstore\n      pop\n        /* \"contracts/ExercisePractice/MultiSigWallet.sol\":7656:7664  _txIndex */\n      dup5\n        /* \"contracts/ExercisePractice/MultiSigWallet.sol\":7644:7654  msg.sender */\n      caller\n        /* \"contracts/ExercisePractice/MultiSigWallet.sol\":7625:7665  RevokeConfirmation(msg.sender, _txIndex) */\n      0xffffffffffffffffffffffffffffffffffffffff\n      and\n      0xf0dca620e2e81f7841d07bcc105e1704fb01475b278a9d4c236e1c62945edd55\n      mload(0x40)\n      mload(0x40)\n      dup1\n      swap2\n      sub\n      swap1\n      log3\n        /* \"contracts/ExercisePractice/MultiSigWallet.sol\":7362:7672  {... */\n      pop\n        /* \"contracts/ExercisePractice/MultiSigWallet.sol\":3068:3069  _ */\n      pop\n        /* \"contracts/ExercisePractice/MultiSigWallet.sol\":2800:2801  _ */\n      pop\n        /* \"contracts/ExercisePractice/MultiSigWallet.sol\":2550:2551  _ */\n      pop\n        /* \"contracts/ExercisePractice/MultiSigWallet.sol\":7192:7672  function revokeConfirmation(uint256 _txIndex)... */\n      pop\n      jump\t// out\n        /* \"contracts/ExercisePractice/MultiSigWallet.sol\":8300:8404  function getTransactionCount() public view returns (uint256) {... */\n    tag_44:\n        /* \"contracts/ExercisePractice/MultiSigWallet.sol\":8352:8359  uint256 */\n      0x00\n        /* \"contracts/ExercisePractice/MultiSigWallet.sol\":8378:8390  transactions */\n      0x03\n        /* \"contracts/ExercisePractice/MultiSigWallet.sol\":8378:8397  transactions.length */\n      dup1\n      sload\n      swap1\n      pop\n        /* \"contracts/ExercisePractice/MultiSigWallet.sol\":8371:8397  return transactions.length */\n      swap1\n      pop\n        /* \"contracts/ExercisePractice/MultiSigWallet.sol\":8300:8404  function getTransactionCount() public view returns (uint256) {... */\n      swap1\n      jump\t// out\n        /* \"contracts/ExercisePractice/MultiSigWallet.sol\":1132:1171  mapping(address => bool) public isOwner */\n    tag_50:\n      mstore(0x20, 0x01)\n      dup1\n      0x00\n      mstore\n      keccak256(0x00, 0x40)\n      0x00\n      swap2\n      pop\n      sload\n      swap1\n      0x0100\n      exp\n      swap1\n      div\n      0xff\n      and\n      dup2\n      jump\t// out\n        /* \"contracts/ExercisePractice/MultiSigWallet.sol\":7810:8144  function cancelTransaction(uint256 _txIndex)... */\n    tag_56:\n        /* \"contracts/ExercisePractice/MultiSigWallet.sol\":2504:2511  isOwner */\n      0x01\n        /* \"contracts/ExercisePractice/MultiSigWallet.sol\":2504:2523  isOwner[msg.sender] */\n      0x00\n        /* \"contracts/ExercisePractice/MultiSigWallet.sol\":2512:2522  msg.sender */\n      caller\n        /* \"contracts/ExercisePractice/MultiSigWallet.sol\":2504:2523  isOwner[msg.sender] */\n      0xffffffffffffffffffffffffffffffffffffffff\n      and\n      0xffffffffffffffffffffffffffffffffffffffff\n      and\n      dup2\n      mstore\n      0x20\n      add\n      swap1\n      dup2\n      mstore\n      0x20\n      add\n      0x00\n      keccak256\n      0x00\n      swap1\n      sload\n      swap1\n      0x0100\n      exp\n      swap1\n      div\n      0xff\n      and\n        /* \"contracts/ExercisePractice/MultiSigWallet.sol\":2496:2540  require(isOwner[msg.sender], \"Not an owner\") */\n      tag_141\n      jumpi\n      mload(0x40)\n      0x08c379a000000000000000000000000000000000000000000000000000000000\n      dup2\n      mstore\n      0x04\n      add\n      tag_142\n      swap1\n      tag_110\n      jump\t// in\n    tag_142:\n      mload(0x40)\n      dup1\n      swap2\n      sub\n      swap1\n      revert\n    tag_141:\n        /* \"contracts/ExercisePractice/MultiSigWallet.sol\":7905:7913  _txIndex */\n      dup1\n        /* \"contracts/ExercisePractice/MultiSigWallet.sol\":2740:2752  transactions */\n      0x03\n        /* \"contracts/ExercisePractice/MultiSigWallet.sol\":2740:2759  transactions.length */\n      dup1\n      sload\n      swap1\n      pop\n        /* \"contracts/ExercisePractice/MultiSigWallet.sol\":2729:2737  _txIndex */\n      dup2\n        /* \"contracts/ExercisePractice/MultiSigWallet.sol\":2729:2759  _txIndex < transactions.length */\n      lt\n        /* \"contracts/ExercisePractice/MultiSigWallet.sol\":2721:2790  require(_txIndex < transactions.length, \"Transaction does not exist\") */\n      tag_144\n      jumpi\n      mload(0x40)\n      0x08c379a000000000000000000000000000000000000000000000000000000000\n      dup2\n      mstore\n      0x04\n      add\n      tag_145\n      swap1\n      tag_114\n      jump\t// in\n    tag_145:\n      mload(0x40)\n      dup1\n      swap2\n      sub\n      swap1\n      revert\n    tag_144:\n        /* \"contracts/ExercisePractice/MultiSigWallet.sol\":7935:7943  _txIndex */\n      dup2\n        /* \"contracts/ExercisePractice/MultiSigWallet.sol\":2994:3006  transactions */\n      0x03\n        /* \"contracts/ExercisePractice/MultiSigWallet.sol\":3007:3015  _txIndex */\n      dup2\n        /* \"contracts/ExercisePractice/MultiSigWallet.sol\":2994:3016  transactions[_txIndex] */\n      dup2\n      sload\n      dup2\n      lt\n      tag_147\n      jumpi\n      tag_148\n      tag_118\n      jump\t// in\n    tag_148:\n    tag_147:\n      swap1\n      0x00\n      mstore\n      keccak256(0x00, 0x20)\n      swap1\n      0x06\n      mul\n      add\n        /* \"contracts/ExercisePractice/MultiSigWallet.sol\":2994:3025  transactions[_txIndex].executed */\n      0x03\n      add\n      0x00\n      swap1\n      sload\n      swap1\n      0x0100\n      exp\n      swap1\n      div\n      0xff\n      and\n        /* \"contracts/ExercisePractice/MultiSigWallet.sol\":2993:3025  !transactions[_txIndex].executed */\n      iszero\n        /* \"contracts/ExercisePractice/MultiSigWallet.sol\":2985:3058  require(!transactions[_txIndex].executed, \"Transaction already executed\") */\n      tag_150\n      jumpi\n      mload(0x40)\n      0x08c379a000000000000000000000000000000000000000000000000000000000\n      dup2\n      mstore\n      0x04\n      add\n      tag_151\n      swap1\n      tag_122\n      jump\t// in\n    tag_151:\n      mload(0x40)\n      dup1\n      swap2\n      sub\n      swap1\n      revert\n    tag_150:\n        /* \"contracts/ExercisePractice/MultiSigWallet.sol\":7965:7973  _txIndex */\n      dup3\n        /* \"contracts/ExercisePractice/MultiSigWallet.sol\":3254:3266  transactions */\n      0x03\n        /* \"contracts/ExercisePractice/MultiSigWallet.sol\":3267:3275  _txIndex */\n      dup2\n        /* \"contracts/ExercisePractice/MultiSigWallet.sol\":3254:3276  transactions[_txIndex] */\n      dup2\n      sload\n      dup2\n      lt\n      tag_153\n      jumpi\n      tag_154\n      tag_118\n      jump\t// in\n    tag_154:\n    tag_153:\n      swap1\n      0x00\n      mstore\n      keccak256(0x00, 0x20)\n      swap1\n      0x06\n      mul\n      add\n        /* \"contracts/ExercisePractice/MultiSigWallet.sol\":3254:3285  transactions[_txIndex].canceled */\n      0x05\n      add\n      0x00\n      swap1\n      sload\n      swap1\n      0x0100\n      exp\n      swap1\n      div\n      0xff\n      and\n        /* \"contracts/ExercisePractice/MultiSigWallet.sol\":3253:3285  !transactions[_txIndex].canceled */\n      iszero\n        /* \"contracts/ExercisePractice/MultiSigWallet.sol\":3245:3319  require(!transactions[_txIndex].canceled, \"Transaction has been canceled\") */\n      tag_156\n      jumpi\n      mload(0x40)\n      0x08c379a000000000000000000000000000000000000000000000000000000000\n      dup2\n      mstore\n      0x04\n      add\n      tag_157\n      swap1\n      tag_129\n      jump\t// in\n    tag_157:\n      mload(0x40)\n      dup1\n      swap2\n      sub\n      swap1\n      revert\n    tag_156:\n        /* \"contracts/ExercisePractice/MultiSigWallet.sol\":7989:8020  Transaction storage transaction */\n      0x00\n        /* \"contracts/ExercisePractice/MultiSigWallet.sol\":8023:8035  transactions */\n      0x03\n        /* \"contracts/ExercisePractice/MultiSigWallet.sol\":8036:8044  _txIndex */\n      dup6\n        /* \"contracts/ExercisePractice/MultiSigWallet.sol\":8023:8045  transactions[_txIndex] */\n      dup2\n      sload\n      dup2\n      lt\n      tag_159\n      jumpi\n      tag_160\n      tag_118\n      jump\t// in\n    tag_160:\n    tag_159:\n      swap1\n      0x00\n      mstore\n      keccak256(0x00, 0x20)\n      swap1\n      0x06\n      mul\n      add\n        /* \"contracts/ExercisePractice/MultiSigWallet.sol\":7989:8045  Transaction storage transaction = transactions[_txIndex] */\n      swap1\n      pop\n        /* \"contracts/ExercisePractice/MultiSigWallet.sol\":8078:8082  true */\n      0x01\n        /* \"contracts/ExercisePractice/MultiSigWallet.sol\":8055:8066  transaction */\n      dup2\n        /* \"contracts/ExercisePractice/MultiSigWallet.sol\":8055:8075  transaction.canceled */\n      0x05\n      add\n      0x00\n        /* \"contracts/ExercisePractice/MultiSigWallet.sol\":8055:8082  transaction.canceled = true */\n      0x0100\n      exp\n      dup2\n      sload\n      dup2\n      0xff\n      mul\n      not\n      and\n      swap1\n      dup4\n      iszero\n      iszero\n      mul\n      or\n      swap1\n      sstore\n      pop\n        /* \"contracts/ExercisePractice/MultiSigWallet.sol\":8128:8136  _txIndex */\n      dup5\n        /* \"contracts/ExercisePractice/MultiSigWallet.sol\":8116:8126  msg.sender */\n      caller\n        /* \"contracts/ExercisePractice/MultiSigWallet.sol\":8098:8137  CancelTransaction(msg.sender, _txIndex) */\n      0xffffffffffffffffffffffffffffffffffffffff\n      and\n      0x219656daa31426b2b73bb7e0b6d238fe3bec954b7e3868f5dbb6209f2f9491ad\n      mload(0x40)\n      mload(0x40)\n      dup1\n      swap2\n      sub\n      swap1\n      log3\n        /* \"contracts/ExercisePractice/MultiSigWallet.sol\":7979:8144  {... */\n      pop\n        /* \"contracts/ExercisePractice/MultiSigWallet.sol\":3068:3069  _ */\n      pop\n        /* \"contracts/ExercisePractice/MultiSigWallet.sol\":2800:2801  _ */\n      pop\n        /* \"contracts/ExercisePractice/MultiSigWallet.sol\":2550:2551  _ */\n      pop\n        /* \"contracts/ExercisePractice/MultiSigWallet.sol\":7810:8144  function cancelTransaction(uint256 _txIndex)... */\n      pop\n      jump\t// out\n        /* \"contracts/ExercisePractice/MultiSigWallet.sol\":8821:9397  function getTransaction(uint256 _txIndex)... */\n    tag_60:\n        /* \"contracts/ExercisePractice/MultiSigWallet.sol\":8921:8931  address to */\n      0x00\n        /* \"contracts/ExercisePractice/MultiSigWallet.sol\":8945:8958  uint256 value */\n      dup1\n        /* \"contracts/ExercisePractice/MultiSigWallet.sol\":8972:8989  bytes memory data */\n      0x60\n        /* \"contracts/ExercisePractice/MultiSigWallet.sol\":9003:9016  bool executed */\n      0x00\n        /* \"contracts/ExercisePractice/MultiSigWallet.sol\":9030:9055  uint256 confirmationCount */\n      dup1\n        /* \"contracts/ExercisePractice/MultiSigWallet.sol\":9069:9082  bool canceled */\n      0x00\n        /* \"contracts/ExercisePractice/MultiSigWallet.sol\":9107:9138  Transaction storage transaction */\n      dup1\n        /* \"contracts/ExercisePractice/MultiSigWallet.sol\":9141:9153  transactions */\n      0x03\n        /* \"contracts/ExercisePractice/MultiSigWallet.sol\":9154:9162  _txIndex */\n      dup9\n        /* \"contracts/ExercisePractice/MultiSigWallet.sol\":9141:9163  transactions[_txIndex] */\n      dup2\n      sload\n      dup2\n      lt\n      tag_163\n      jumpi\n      tag_164\n      tag_118\n      jump\t// in\n    tag_164:\n    tag_163:\n      swap1\n      0x00\n      mstore\n      keccak256(0x00, 0x20)\n      swap1\n      0x06\n      mul\n      add\n        /* \"contracts/ExercisePractice/MultiSigWallet.sol\":9107:9163  Transaction storage transaction = transactions[_txIndex] */\n      swap1\n      pop\n        /* \"contracts/ExercisePractice/MultiSigWallet.sol\":9194:9205  transaction */\n      dup1\n        /* \"contracts/ExercisePractice/MultiSigWallet.sol\":9194:9208  transaction.to */\n      0x00\n      add\n      0x00\n      swap1\n      sload\n      swap1\n      0x0100\n      exp\n      swap1\n      div\n      0xffffffffffffffffffffffffffffffffffffffff\n      and\n        /* \"contracts/ExercisePractice/MultiSigWallet.sol\":9222:9233  transaction */\n      dup2\n        /* \"contracts/ExercisePractice/MultiSigWallet.sol\":9222:9239  transaction.value */\n      0x01\n      add\n      sload\n        /* \"contracts/ExercisePractice/MultiSigWallet.sol\":9253:9264  transaction */\n      dup3\n        /* \"contracts/ExercisePractice/MultiSigWallet.sol\":9253:9269  transaction.data */\n      0x02\n      add\n        /* \"contracts/ExercisePractice/MultiSigWallet.sol\":9283:9294  transaction */\n      dup4\n        /* \"contracts/ExercisePractice/MultiSigWallet.sol\":9283:9303  transaction.executed */\n      0x03\n      add\n      0x00\n      swap1\n      sload\n      swap1\n      0x0100\n      exp\n      swap1\n      div\n      0xff\n      and\n        /* \"contracts/ExercisePractice/MultiSigWallet.sol\":9317:9328  transaction */\n      dup5\n        /* \"contracts/ExercisePractice/MultiSigWallet.sol\":9317:9346  transaction.confirmationCount */\n      0x04\n      add\n      sload\n        /* \"contracts/ExercisePractice/MultiSigWallet.sol\":9360:9371  transaction */\n      dup6\n        /* \"contracts/ExercisePractice/MultiSigWallet.sol\":9360:9380  transaction.canceled */\n      0x05\n      add\n      0x00\n      swap1\n      sload\n      swap1\n      0x0100\n      exp\n      swap1\n      div\n      0xff\n      and\n        /* \"contracts/ExercisePractice/MultiSigWallet.sol\":9173:9390  return (... */\n      dup4\n      dup1\n      sload\n      tag_166\n      swap1\n      tag_167\n      jump\t// in\n    tag_166:\n      dup1\n      0x1f\n      add\n      0x20\n      dup1\n      swap2\n      div\n      mul\n      0x20\n      add\n      mload(0x40)\n      swap1\n      dup2\n      add\n      0x40\n      mstore\n      dup1\n      swap3\n      swap2\n      swap1\n      dup2\n      dup2\n      mstore\n      0x20\n      add\n      dup3\n      dup1\n      sload\n      tag_168\n      swap1\n      tag_167\n      jump\t// in\n    tag_168:\n      dup1\n      iszero\n      tag_169\n      jumpi\n      dup1\n      0x1f\n      lt\n      tag_170\n      jumpi\n      0x0100\n      dup1\n      dup4\n      sload\n      div\n      mul\n      dup4\n      mstore\n      swap2\n      0x20\n      add\n      swap2\n      jump(tag_169)\n    tag_170:\n      dup3\n      add\n      swap2\n      swap1\n      0x00\n      mstore\n      keccak256(0x00, 0x20)\n      swap1\n    tag_171:\n      dup2\n      sload\n      dup2\n      mstore\n      swap1\n      0x01\n      add\n      swap1\n      0x20\n      add\n      dup1\n      dup4\n      gt\n      tag_171\n      jumpi\n      dup3\n      swap1\n      sub\n      0x1f\n      and\n      dup3\n      add\n      swap2\n    tag_169:\n      pop\n      pop\n      pop\n      pop\n      pop\n      swap4\n      pop\n      swap7\n      pop\n      swap7\n      pop\n      swap7\n      pop\n      swap7\n      pop\n      swap7\n      pop\n      swap7\n      pop\n      pop\n        /* \"contracts/ExercisePractice/MultiSigWallet.sol\":8821:9397  function getTransaction(uint256 _txIndex)... */\n      swap2\n      swap4\n      swap6\n      pop\n      swap2\n      swap4\n      swap6\n      jump\t// out\n        /* \"contracts/ExercisePractice/MultiSigWallet.sol\":1624:1689  mapping(uint256 => mapping(address => bool)) public confirmations */\n    tag_67:\n      mstore(0x20, 0x04)\n      dup2\n      0x00\n      mstore\n      mstore(0x20, keccak256(0x00, 0x40))\n      dup1\n      0x00\n      mstore\n      keccak256(0x00, 0x40)\n      0x00\n      swap2\n      pop\n      swap2\n      pop\n      swap1\n      sload\n      swap1\n      0x0100\n      exp\n      swap1\n      div\n      0xff\n      and\n      dup2\n      jump\t// out\n        /* \"contracts/ExercisePractice/MultiSigWallet.sol\":9596:9761  function isConfirmed(uint256 _txIndex, address _owner)... */\n    tag_72:\n        /* \"contracts/ExercisePractice/MultiSigWallet.sol\":9696:9700  bool */\n      0x00\n        /* \"contracts/ExercisePractice/MultiSigWallet.sol\":9723:9736  confirmations */\n      0x04\n        /* \"contracts/ExercisePractice/MultiSigWallet.sol\":9723:9746  confirmations[_txIndex] */\n      0x00\n        /* \"contracts/ExercisePractice/MultiSigWallet.sol\":9737:9745  _txIndex */\n      dup5\n        /* \"contracts/ExercisePractice/MultiSigWallet.sol\":9723:9746  confirmations[_txIndex] */\n      dup2\n      mstore\n      0x20\n      add\n      swap1\n      dup2\n      mstore\n      0x20\n      add\n      0x00\n      keccak256\n        /* \"contracts/ExercisePractice/MultiSigWallet.sol\":9723:9754  confirmations[_txIndex][_owner] */\n      0x00\n        /* \"contracts/ExercisePractice/MultiSigWallet.sol\":9747:9753  _owner */\n      dup4\n        /* \"contracts/ExercisePractice/MultiSigWallet.sol\":9723:9754  confirmations[_txIndex][_owner] */\n      0xffffffffffffffffffffffffffffffffffffffff\n      and\n      0xffffffffffffffffffffffffffffffffffffffff\n      and\n      dup2\n      mstore\n      0x20\n      add\n      swap1\n      dup2\n      mstore\n      0x20\n      add\n      0x00\n      keccak256\n      0x00\n      swap1\n      sload\n      swap1\n      0x0100\n      exp\n      swap1\n      div\n      0xff\n      and\n        /* \"contracts/ExercisePractice/MultiSigWallet.sol\":9716:9754  return confirmations[_txIndex][_owner] */\n      swap1\n      pop\n        /* \"contracts/ExercisePractice/MultiSigWallet.sol\":9596:9761  function isConfirmed(uint256 _txIndex, address _owner)... */\n      swap3\n      swap2\n      pop\n      pop\n      jump\t// out\n        /* \"contracts/ExercisePractice/MultiSigWallet.sol\":1498:1531  Transaction[] public transactions */\n    tag_77:\n      0x03\n      dup2\n      dup2\n      sload\n      dup2\n      lt\n      tag_173\n      jumpi\n      0x00\n      dup1\n      revert\n    tag_173:\n      swap1\n      0x00\n      mstore\n      keccak256(0x00, 0x20)\n      swap1\n      0x06\n      mul\n      add\n      0x00\n      swap2\n      pop\n      swap1\n      pop\n      dup1\n      0x00\n      add\n      0x00\n      swap1\n      sload\n      swap1\n      0x0100\n      exp\n      swap1\n      div\n      0xffffffffffffffffffffffffffffffffffffffff\n      and\n      swap1\n      dup1\n      0x01\n      add\n      sload\n      swap1\n      dup1\n      0x02\n      add\n      dup1\n      sload\n      tag_175\n      swap1\n      tag_167\n      jump\t// in\n    tag_175:\n      dup1\n      0x1f\n      add\n      0x20\n      dup1\n      swap2\n      div\n      mul\n      0x20\n      add\n      mload(0x40)\n      swap1\n      dup2\n      add\n      0x40\n      mstore\n      dup1\n      swap3\n      swap2\n      swap1\n      dup2\n      dup2\n      mstore\n      0x20\n      add\n      dup3\n      dup1\n      sload\n      tag_176\n      swap1\n      tag_167\n      jump\t// in\n    tag_176:\n      dup1\n      iszero\n      tag_177\n      jumpi\n      dup1\n      0x1f\n      lt\n      tag_178\n      jumpi\n      0x0100\n      dup1\n      dup4\n      sload\n      div\n      mul\n      dup4\n      mstore\n      swap2\n      0x20\n      add\n      swap2\n      jump(tag_177)\n    tag_178:\n      dup3\n      add\n      swap2\n      swap1\n      0x00\n      mstore\n      keccak256(0x00, 0x20)\n      swap1\n    tag_179:\n      dup2\n      sload\n      dup2\n      mstore\n      swap1\n      0x01\n      add\n      swap1\n      0x20\n      add\n      dup1\n      dup4\n      gt\n      tag_179\n      jumpi\n      dup3\n      swap1\n      sub\n      0x1f\n      and\n      dup3\n      add\n      swap2\n    tag_177:\n      pop\n      pop\n      pop\n      pop\n      pop\n      swap1\n      dup1\n      0x03\n      add\n      0x00\n      swap1\n      sload\n      swap1\n      0x0100\n      exp\n      swap1\n      div\n      0xff\n      and\n      swap1\n      dup1\n      0x04\n      add\n      sload\n      swap1\n      dup1\n      0x05\n      add\n      0x00\n      swap1\n      sload\n      swap1\n      0x0100\n      exp\n      swap1\n      div\n      0xff\n      and\n      swap1\n      pop\n      dup7\n      jump\t// out\n        /* \"contracts/ExercisePractice/MultiSigWallet.sol\":9863:9953  function getOwners() public view returns (address[] memory) {... */\n    tag_81:\n        /* \"contracts/ExercisePractice/MultiSigWallet.sol\":9905:9921  address[] memory */\n      0x60\n        /* \"contracts/ExercisePractice/MultiSigWallet.sol\":9940:9946  owners */\n      0x00\n        /* \"contracts/ExercisePractice/MultiSigWallet.sol\":9933:9946  return owners */\n      dup1\n      sload\n      dup1\n      0x20\n      mul\n      0x20\n      add\n      mload(0x40)\n      swap1\n      dup2\n      add\n      0x40\n      mstore\n      dup1\n      swap3\n      swap2\n      swap1\n      dup2\n      dup2\n      mstore\n      0x20\n      add\n      dup3\n      dup1\n      sload\n      dup1\n      iszero\n      tag_181\n      jumpi\n      0x20\n      mul\n      dup3\n      add\n      swap2\n      swap1\n      0x00\n      mstore\n      keccak256(0x00, 0x20)\n      swap1\n    tag_182:\n      dup2\n      0x00\n      swap1\n      sload\n      swap1\n      0x0100\n      exp\n      swap1\n      div\n      0xffffffffffffffffffffffffffffffffffffffff\n      and\n      0xffffffffffffffffffffffffffffffffffffffff\n      and\n      dup2\n      mstore\n      0x20\n      add\n      swap1\n      0x01\n      add\n      swap1\n      dup1\n      dup4\n      gt\n      tag_182\n      jumpi\n    tag_181:\n      pop\n      pop\n      pop\n      pop\n      pop\n      swap1\n      pop\n        /* \"contracts/ExercisePractice/MultiSigWallet.sol\":9863:9953  function getOwners() public view returns (address[] memory) {... */\n      swap1\n      jump\t// out\n        /* \"contracts/ExercisePractice/MultiSigWallet.sol\":5883:6348  function confirmTransaction(uint256 _txIndex)... */\n    tag_87:\n        /* \"contracts/ExercisePractice/MultiSigWallet.sol\":2504:2511  isOwner */\n      0x01\n        /* \"contracts/ExercisePractice/MultiSigWallet.sol\":2504:2523  isOwner[msg.sender] */\n      0x00\n        /* \"contracts/ExercisePractice/MultiSigWallet.sol\":2512:2522  msg.sender */\n      caller\n        /* \"contracts/ExercisePractice/MultiSigWallet.sol\":2504:2523  isOwner[msg.sender] */\n      0xffffffffffffffffffffffffffffffffffffffff\n      and\n      0xffffffffffffffffffffffffffffffffffffffff\n      and\n      dup2\n      mstore\n      0x20\n      add\n      swap1\n      dup2\n      mstore\n      0x20\n      add\n      0x00\n      keccak256\n      0x00\n      swap1\n      sload\n      swap1\n      0x0100\n      exp\n      swap1\n      div\n      0xff\n      and\n        /* \"contracts/ExercisePractice/MultiSigWallet.sol\":2496:2540  require(isOwner[msg.sender], \"Not an owner\") */\n      tag_184\n      jumpi\n      mload(0x40)\n      0x08c379a000000000000000000000000000000000000000000000000000000000\n      dup2\n      mstore\n      0x04\n      add\n      tag_185\n      swap1\n      tag_110\n      jump\t// in\n    tag_185:\n      mload(0x40)\n      dup1\n      swap2\n      sub\n      swap1\n      revert\n    tag_184:\n        /* \"contracts/ExercisePractice/MultiSigWallet.sol\":5979:5987  _txIndex */\n      dup1\n        /* \"contracts/ExercisePractice/MultiSigWallet.sol\":2740:2752  transactions */\n      0x03\n        /* \"contracts/ExercisePractice/MultiSigWallet.sol\":2740:2759  transactions.length */\n      dup1\n      sload\n      swap1\n      pop\n        /* \"contracts/ExercisePractice/MultiSigWallet.sol\":2729:2737  _txIndex */\n      dup2\n        /* \"contracts/ExercisePractice/MultiSigWallet.sol\":2729:2759  _txIndex < transactions.length */\n      lt\n        /* \"contracts/ExercisePractice/MultiSigWallet.sol\":2721:2790  require(_txIndex < transactions.length, \"Transaction does not exist\") */\n      tag_187\n      jumpi\n      mload(0x40)\n      0x08c379a000000000000000000000000000000000000000000000000000000000\n      dup2\n      mstore\n      0x04\n      add\n      tag_188\n      swap1\n      tag_114\n      jump\t// in\n    tag_188:\n      mload(0x40)\n      dup1\n      swap2\n      sub\n      swap1\n      revert\n    tag_187:\n        /* \"contracts/ExercisePractice/MultiSigWallet.sol\":6009:6017  _txIndex */\n      dup2\n        /* \"contracts/ExercisePractice/MultiSigWallet.sol\":2994:3006  transactions */\n      0x03\n        /* \"contracts/ExercisePractice/MultiSigWallet.sol\":3007:3015  _txIndex */\n      dup2\n        /* \"contracts/ExercisePractice/MultiSigWallet.sol\":2994:3016  transactions[_txIndex] */\n      dup2\n      sload\n      dup2\n      lt\n      tag_190\n      jumpi\n      tag_191\n      tag_118\n      jump\t// in\n    tag_191:\n    tag_190:\n      swap1\n      0x00\n      mstore\n      keccak256(0x00, 0x20)\n      swap1\n      0x06\n      mul\n      add\n        /* \"contracts/ExercisePractice/MultiSigWallet.sol\":2994:3025  transactions[_txIndex].executed */\n      0x03\n      add\n      0x00\n      swap1\n      sload\n      swap1\n      0x0100\n      exp\n      swap1\n      div\n      0xff\n      and\n        /* \"contracts/ExercisePractice/MultiSigWallet.sol\":2993:3025  !transactions[_txIndex].executed */\n      iszero\n        /* \"contracts/ExercisePractice/MultiSigWallet.sol\":2985:3058  require(!transactions[_txIndex].executed, \"Transaction already executed\") */\n      tag_193\n      jumpi\n      mload(0x40)\n      0x08c379a000000000000000000000000000000000000000000000000000000000\n      dup2\n      mstore\n      0x04\n      add\n      tag_194\n      swap1\n      tag_122\n      jump\t// in\n    tag_194:\n      mload(0x40)\n      dup1\n      swap2\n      sub\n      swap1\n      revert\n    tag_193:\n        /* \"contracts/ExercisePractice/MultiSigWallet.sol\":6039:6047  _txIndex */\n      dup3\n        /* \"contracts/ExercisePractice/MultiSigWallet.sol\":3254:3266  transactions */\n      0x03\n        /* \"contracts/ExercisePractice/MultiSigWallet.sol\":3267:3275  _txIndex */\n      dup2\n        /* \"contracts/ExercisePractice/MultiSigWallet.sol\":3254:3276  transactions[_txIndex] */\n      dup2\n      sload\n      dup2\n      lt\n      tag_196\n      jumpi\n      tag_197\n      tag_118\n      jump\t// in\n    tag_197:\n    tag_196:\n      swap1\n      0x00\n      mstore\n      keccak256(0x00, 0x20)\n      swap1\n      0x06\n      mul\n      add\n        /* \"contracts/ExercisePractice/MultiSigWallet.sol\":3254:3285  transactions[_txIndex].canceled */\n      0x05\n      add\n      0x00\n      swap1\n      sload\n      swap1\n      0x0100\n      exp\n      swap1\n      div\n      0xff\n      and\n        /* \"contracts/ExercisePractice/MultiSigWallet.sol\":3253:3285  !transactions[_txIndex].canceled */\n      iszero\n        /* \"contracts/ExercisePractice/MultiSigWallet.sol\":3245:3319  require(!transactions[_txIndex].canceled, \"Transaction has been canceled\") */\n      tag_199\n      jumpi\n      mload(0x40)\n      0x08c379a000000000000000000000000000000000000000000000000000000000\n      dup2\n      mstore\n      0x04\n      add\n      tag_200\n      swap1\n      tag_129\n      jump\t// in\n    tag_200:\n      mload(0x40)\n      dup1\n      swap2\n      sub\n      swap1\n      revert\n    tag_199:\n        /* \"contracts/ExercisePractice/MultiSigWallet.sol\":6070:6078  _txIndex */\n      dup4\n        /* \"contracts/ExercisePractice/MultiSigWallet.sol\":3539:3552  confirmations */\n      0x04\n        /* \"contracts/ExercisePractice/MultiSigWallet.sol\":3539:3562  confirmations[_txIndex] */\n      0x00\n        /* \"contracts/ExercisePractice/MultiSigWallet.sol\":3553:3561  _txIndex */\n      dup3\n        /* \"contracts/ExercisePractice/MultiSigWallet.sol\":3539:3562  confirmations[_txIndex] */\n      dup2\n      mstore\n      0x20\n      add\n      swap1\n      dup2\n      mstore\n      0x20\n      add\n      0x00\n      keccak256\n        /* \"contracts/ExercisePractice/MultiSigWallet.sol\":3539:3574  confirmations[_txIndex][msg.sender] */\n      0x00\n        /* \"contracts/ExercisePractice/MultiSigWallet.sol\":3563:3573  msg.sender */\n      caller\n        /* \"contracts/ExercisePractice/MultiSigWallet.sol\":3539:3574  confirmations[_txIndex][msg.sender] */\n      0xffffffffffffffffffffffffffffffffffffffff\n      and\n      0xffffffffffffffffffffffffffffffffffffffff\n      and\n      dup2\n      mstore\n      0x20\n      add\n      swap1\n      dup2\n      mstore\n      0x20\n      add\n      0x00\n      keccak256\n      0x00\n      swap1\n      sload\n      swap1\n      0x0100\n      exp\n      swap1\n      div\n      0xff\n      and\n        /* \"contracts/ExercisePractice/MultiSigWallet.sol\":3538:3574  !confirmations[_txIndex][msg.sender] */\n      iszero\n        /* \"contracts/ExercisePractice/MultiSigWallet.sol\":3530:3608  require(!confirmations[_txIndex][msg.sender], \"Transaction already confirmed\") */\n      tag_202\n      jumpi\n      mload(0x40)\n      0x08c379a000000000000000000000000000000000000000000000000000000000\n      dup2\n      mstore\n      0x04\n      add\n      tag_203\n      swap1\n      tag_204\n      jump\t// in\n    tag_203:\n      mload(0x40)\n      dup1\n      swap2\n      sub\n      swap1\n      revert\n    tag_202:\n        /* \"contracts/ExercisePractice/MultiSigWallet.sol\":6094:6125  Transaction storage transaction */\n      0x00\n        /* \"contracts/ExercisePractice/MultiSigWallet.sol\":6128:6140  transactions */\n      0x03\n        /* \"contracts/ExercisePractice/MultiSigWallet.sol\":6141:6149  _txIndex */\n      dup7\n        /* \"contracts/ExercisePractice/MultiSigWallet.sol\":6128:6150  transactions[_txIndex] */\n      dup2\n      sload\n      dup2\n      lt\n      tag_206\n      jumpi\n      tag_207\n      tag_118\n      jump\t// in\n    tag_207:\n    tag_206:\n      swap1\n      0x00\n      mstore\n      keccak256(0x00, 0x20)\n      swap1\n      0x06\n      mul\n      add\n        /* \"contracts/ExercisePractice/MultiSigWallet.sol\":6094:6150  Transaction storage transaction = transactions[_txIndex] */\n      swap1\n      pop\n        /* \"contracts/ExercisePractice/MultiSigWallet.sol\":6198:6202  true */\n      0x01\n        /* \"contracts/ExercisePractice/MultiSigWallet.sol\":6160:6173  confirmations */\n      0x04\n        /* \"contracts/ExercisePractice/MultiSigWallet.sol\":6160:6183  confirmations[_txIndex] */\n      0x00\n        /* \"contracts/ExercisePractice/MultiSigWallet.sol\":6174:6182  _txIndex */\n      dup9\n        /* \"contracts/ExercisePractice/MultiSigWallet.sol\":6160:6183  confirmations[_txIndex] */\n      dup2\n      mstore\n      0x20\n      add\n      swap1\n      dup2\n      mstore\n      0x20\n      add\n      0x00\n      keccak256\n        /* \"contracts/ExercisePractice/MultiSigWallet.sol\":6160:6195  confirmations[_txIndex][msg.sender] */\n      0x00\n        /* \"contracts/ExercisePractice/MultiSigWallet.sol\":6184:6194  msg.sender */\n      caller\n        /* \"contracts/ExercisePractice/MultiSigWallet.sol\":6160:6195  confirmations[_txIndex][msg.sender] */\n      0xffffffffffffffffffffffffffffffffffffffff\n      and\n      0xffffffffffffffffffffffffffffffffffffffff\n      and\n      dup2\n      mstore\n      0x20\n      add\n      swap1\n      dup2\n      mstore\n      0x20\n      add\n      0x00\n      keccak256\n      0x00\n        /* \"contracts/ExercisePractice/MultiSigWallet.sol\":6160:6202  confirmations[_txIndex][msg.sender] = true */\n      0x0100\n      exp\n      dup2\n      sload\n      dup2\n      0xff\n      mul\n      not\n      and\n      swap1\n      dup4\n      iszero\n      iszero\n      mul\n      or\n      swap1\n      sstore\n      pop\n        /* \"contracts/ExercisePractice/MultiSigWallet.sol\":6245:6246  1 */\n      0x01\n        /* \"contracts/ExercisePractice/MultiSigWallet.sol\":6212:6223  transaction */\n      dup2\n        /* \"contracts/ExercisePractice/MultiSigWallet.sol\":6212:6241  transaction.confirmationCount */\n      0x04\n      add\n      0x00\n        /* \"contracts/ExercisePractice/MultiSigWallet.sol\":6212:6246  transaction.confirmationCount += 1 */\n      dup3\n      dup3\n      sload\n      tag_209\n      swap2\n      swap1\n      tag_210\n      jump\t// in\n    tag_209:\n      swap3\n      pop\n      pop\n      dup2\n      swap1\n      sstore\n      pop\n        /* \"contracts/ExercisePractice/MultiSigWallet.sol\":6293:6301  _txIndex */\n      dup6\n        /* \"contracts/ExercisePractice/MultiSigWallet.sol\":6281:6291  msg.sender */\n      caller\n        /* \"contracts/ExercisePractice/MultiSigWallet.sol\":6262:6302  ConfirmTransaction(msg.sender, _txIndex) */\n      0xffffffffffffffffffffffffffffffffffffffff\n      and\n      0x5cbe105e36805f7820e291f799d5794ff948af2a5f664e580382defb63390041\n      mload(0x40)\n      mload(0x40)\n      dup1\n      swap2\n      sub\n      swap1\n      log3\n        /* \"contracts/ExercisePractice/MultiSigWallet.sol\":6313:6341  executeTransaction(_txIndex) */\n      tag_211\n        /* \"contracts/ExercisePractice/MultiSigWallet.sol\":6332:6340  _txIndex */\n      dup7\n        /* \"contracts/ExercisePractice/MultiSigWallet.sol\":6313:6331  executeTransaction */\n      tag_103\n        /* \"contracts/ExercisePractice/MultiSigWallet.sol\":6313:6341  executeTransaction(_txIndex) */\n      jump\t// in\n    tag_211:\n        /* \"contracts/ExercisePractice/MultiSigWallet.sol\":6084:6348  {... */\n      pop\n        /* \"contracts/ExercisePractice/MultiSigWallet.sol\":3329:3330  _ */\n      pop\n        /* \"contracts/ExercisePractice/MultiSigWallet.sol\":3068:3069  _ */\n      pop\n        /* \"contracts/ExercisePractice/MultiSigWallet.sol\":2800:2801  _ */\n      pop\n        /* \"contracts/ExercisePractice/MultiSigWallet.sol\":2550:2551  _ */\n      pop\n        /* \"contracts/ExercisePractice/MultiSigWallet.sol\":5883:6348  function confirmTransaction(uint256 _txIndex)... */\n      pop\n      jump\t// out\n        /* \"contracts/ExercisePractice/MultiSigWallet.sol\":5229:5766  function submitTransaction(... */\n    tag_92:\n        /* \"contracts/ExercisePractice/MultiSigWallet.sol\":5361:5376  uint256 txIndex */\n      0x00\n        /* \"contracts/ExercisePractice/MultiSigWallet.sol\":2504:2511  isOwner */\n      0x01\n        /* \"contracts/ExercisePractice/MultiSigWallet.sol\":2504:2523  isOwner[msg.sender] */\n      0x00\n        /* \"contracts/ExercisePractice/MultiSigWallet.sol\":2512:2522  msg.sender */\n      caller\n        /* \"contracts/ExercisePractice/MultiSigWallet.sol\":2504:2523  isOwner[msg.sender] */\n      0xffffffffffffffffffffffffffffffffffffffff\n      and\n      0xffffffffffffffffffffffffffffffffffffffff\n      and\n      dup2\n      mstore\n      0x20\n      add\n      swap1\n      dup2\n      mstore\n      0x20\n      add\n      0x00\n      keccak256\n      0x00\n      swap1\n      sload\n      swap1\n      0x0100\n      exp\n      swap1\n      div\n      0xff\n      and\n        /* \"contracts/ExercisePractice/MultiSigWallet.sol\":2496:2540  require(isOwner[msg.sender], \"Not an owner\") */\n      tag_213\n      jumpi\n      mload(0x40)\n      0x08c379a000000000000000000000000000000000000000000000000000000000\n      dup2\n      mstore\n      0x04\n      add\n      tag_214\n      swap1\n      tag_110\n      jump\t// in\n    tag_214:\n      mload(0x40)\n      dup1\n      swap2\n      sub\n      swap1\n      revert\n    tag_213:\n        /* \"contracts/ExercisePractice/MultiSigWallet.sol\":5398:5410  transactions */\n      0x03\n        /* \"contracts/ExercisePractice/MultiSigWallet.sol\":5398:5417  transactions.length */\n      dup1\n      sload\n      swap1\n      pop\n        /* \"contracts/ExercisePractice/MultiSigWallet.sol\":5388:5417  txIndex = transactions.length */\n      swap1\n      pop\n        /* \"contracts/ExercisePractice/MultiSigWallet.sol\":5428:5440  transactions */\n      0x03\n        /* \"contracts/ExercisePractice/MultiSigWallet.sol\":5459:5675  Transaction({... */\n      mload(0x40)\n      dup1\n      0xc0\n      add\n      0x40\n      mstore\n      dup1\n        /* \"contracts/ExercisePractice/MultiSigWallet.sol\":5493:5496  _to */\n      dup7\n        /* \"contracts/ExercisePractice/MultiSigWallet.sol\":5459:5675  Transaction({... */\n      0xffffffffffffffffffffffffffffffffffffffff\n      and\n      dup2\n      mstore\n      0x20\n      add\n        /* \"contracts/ExercisePractice/MultiSigWallet.sol\":5521:5527  _value */\n      dup6\n        /* \"contracts/ExercisePractice/MultiSigWallet.sol\":5459:5675  Transaction({... */\n      dup2\n      mstore\n      0x20\n      add\n        /* \"contracts/ExercisePractice/MultiSigWallet.sol\":5551:5556  _data */\n      dup5\n        /* \"contracts/ExercisePractice/MultiSigWallet.sol\":5459:5675  Transaction({... */\n      dup2\n      mstore\n      0x20\n      add\n        /* \"contracts/ExercisePractice/MultiSigWallet.sol\":5584:5589  false */\n      0x00\n        /* \"contracts/ExercisePractice/MultiSigWallet.sol\":5459:5675  Transaction({... */\n      iszero\n      iszero\n      dup2\n      mstore\n      0x20\n      add\n        /* \"contracts/ExercisePractice/MultiSigWallet.sol\":5626:5627  0 */\n      0x00\n        /* \"contracts/ExercisePractice/MultiSigWallet.sol\":5459:5675  Transaction({... */\n      dup2\n      mstore\n      0x20\n      add\n        /* \"contracts/ExercisePractice/MultiSigWallet.sol\":5655:5660  false */\n      0x00\n        /* \"contracts/ExercisePractice/MultiSigWallet.sol\":5459:5675  Transaction({... */\n      iszero\n      iszero\n      dup2\n      mstore\n      pop\n        /* \"contracts/ExercisePractice/MultiSigWallet.sol\":5428:5685  transactions.push(... */\n      swap1\n      dup1\n      0x01\n      dup2\n      sload\n      add\n      dup1\n      dup3\n      sstore\n      dup1\n      swap2\n      pop\n      pop\n      0x01\n      swap1\n      sub\n      swap1\n      0x00\n      mstore\n      keccak256(0x00, 0x20)\n      swap1\n      0x06\n      mul\n      add\n      0x00\n      swap1\n      swap2\n      swap1\n      swap2\n      swap1\n      swap2\n      pop\n      0x00\n      dup3\n      add\n      mload\n      dup2\n      0x00\n      add\n      exp(0x0100, 0x00)\n      dup2\n      sload\n      dup2\n      0xffffffffffffffffffffffffffffffffffffffff\n      mul\n      not\n      and\n      swap1\n      dup4\n      0xffffffffffffffffffffffffffffffffffffffff\n      and\n      mul\n      or\n      swap1\n      sstore\n      pop\n      0x20\n      dup3\n      add\n      mload\n      dup2\n      0x01\n      add\n      sstore\n      0x40\n      dup3\n      add\n      mload\n      dup2\n      0x02\n      add\n      swap1\n      dup2\n      tag_217\n      swap2\n      swap1\n      tag_218\n      jump\t// in\n    tag_217:\n      pop\n      0x60\n      dup3\n      add\n      mload\n      dup2\n      0x03\n      add\n      exp(0x0100, 0x00)\n      dup2\n      sload\n      dup2\n      0xff\n      mul\n      not\n      and\n      swap1\n      dup4\n      iszero\n      iszero\n      mul\n      or\n      swap1\n      sstore\n      pop\n      0x80\n      dup3\n      add\n      mload\n      dup2\n      0x04\n      add\n      sstore\n      0xa0\n      dup3\n      add\n      mload\n      dup2\n      0x05\n      add\n      exp(0x0100, 0x00)\n      dup2\n      sload\n      dup2\n      0xff\n      mul\n      not\n      and\n      swap1\n      dup4\n      iszero\n      iszero\n      mul\n      or\n      swap1\n      sstore\n      pop\n      pop\n      pop\n        /* \"contracts/ExercisePractice/MultiSigWallet.sol\":5740:5743  _to */\n      dup4\n        /* \"contracts/ExercisePractice/MultiSigWallet.sol\":5701:5759  SubmitTransaction(msg.sender, txIndex, _to, _value, _data) */\n      0xffffffffffffffffffffffffffffffffffffffff\n      and\n        /* \"contracts/ExercisePractice/MultiSigWallet.sol\":5731:5738  txIndex */\n      dup2\n        /* \"contracts/ExercisePractice/MultiSigWallet.sol\":5719:5729  msg.sender */\n      caller\n        /* \"contracts/ExercisePractice/MultiSigWallet.sol\":5701:5759  SubmitTransaction(msg.sender, txIndex, _to, _value, _data) */\n      0xffffffffffffffffffffffffffffffffffffffff\n      and\n      0xd5a05bf70715ad82a09a756320284a1b54c9ff74cd0f8cce6219e79b563fe59d\n        /* \"contracts/ExercisePractice/MultiSigWallet.sol\":5745:5751  _value */\n      dup7\n        /* \"contracts/ExercisePractice/MultiSigWallet.sol\":5753:5758  _data */\n      dup7\n        /* \"contracts/ExercisePractice/MultiSigWallet.sol\":5701:5759  SubmitTransaction(msg.sender, txIndex, _to, _value, _data) */\n      mload(0x40)\n      tag_219\n      swap3\n      swap2\n      swap1\n      tag_220\n      jump\t// in\n    tag_219:\n      mload(0x40)\n      dup1\n      swap2\n      sub\n      swap1\n      log4\n        /* \"contracts/ExercisePractice/MultiSigWallet.sol\":5229:5766  function submitTransaction(... */\n      swap4\n      swap3\n      pop\n      pop\n      pop\n      jump\t// out\n        /* \"contracts/ExercisePractice/MultiSigWallet.sol\":4576:4752  function deposit() public payable {... */\n    tag_95:\n        /* \"contracts/ExercisePractice/MultiSigWallet.sol\":4640:4641  0 */\n      0x00\n        /* \"contracts/ExercisePractice/MultiSigWallet.sol\":4628:4637  msg.value */\n      callvalue\n        /* \"contracts/ExercisePractice/MultiSigWallet.sol\":4628:4641  msg.value > 0 */\n      gt\n        /* \"contracts/ExercisePractice/MultiSigWallet.sol\":4620:4677  require(msg.value > 0,unicode\"存入金额需要大于0\") */\n      tag_222\n      jumpi\n      mload(0x40)\n      0x08c379a000000000000000000000000000000000000000000000000000000000\n      dup2\n      mstore\n      0x04\n      add\n      tag_223\n      swap1\n      tag_224\n      jump\t// in\n    tag_223:\n      mload(0x40)\n      dup1\n      swap2\n      sub\n      swap1\n      revert\n    tag_222:\n        /* \"contracts/ExercisePractice/MultiSigWallet.sol\":4700:4710  msg.sender */\n      caller\n        /* \"contracts/ExercisePractice/MultiSigWallet.sol\":4692:4745  Deposit(msg.sender, msg.value, address(this).balance) */\n      0xffffffffffffffffffffffffffffffffffffffff\n      and\n      0x90890809c654f11d6e72a28fa60149770a0d11ec6c92319d6ceb2bb0a4ea1a15\n        /* \"contracts/ExercisePractice/MultiSigWallet.sol\":4712:4721  msg.value */\n      callvalue\n        /* \"contracts/ExercisePractice/MultiSigWallet.sol\":4723:4744  address(this).balance */\n      selfbalance\n        /* \"contracts/ExercisePractice/MultiSigWallet.sol\":4692:4745  Deposit(msg.sender, msg.value, address(this).balance) */\n      mload(0x40)\n      tag_225\n      swap3\n      swap2\n      swap1\n      tag_25\n      jump\t// in\n    tag_225:\n      mload(0x40)\n      dup1\n      swap2\n      sub\n      swap1\n      log2\n        /* \"contracts/ExercisePractice/MultiSigWallet.sol\":4576:4752  function deposit() public payable {... */\n      jump\t// out\n        /* \"contracts/ExercisePractice/MultiSigWallet.sol\":1218:1241  uint256 public required */\n    tag_98:\n      sload(0x02)\n      dup2\n      jump\t// out\n        /* \"contracts/ExercisePractice/MultiSigWallet.sol\":6457:7057  function executeTransaction(uint256 _txIndex)... */\n    tag_103:\n        /* \"contracts/ExercisePractice/MultiSigWallet.sol\":2504:2511  isOwner */\n      0x01\n        /* \"contracts/ExercisePractice/MultiSigWallet.sol\":2504:2523  isOwner[msg.sender] */\n      0x00\n        /* \"contracts/ExercisePractice/MultiSigWallet.sol\":2512:2522  msg.sender */\n      caller\n        /* \"contracts/ExercisePractice/MultiSigWallet.sol\":2504:2523  isOwner[msg.sender] */\n      0xffffffffffffffffffffffffffffffffffffffff\n      and\n      0xffffffffffffffffffffffffffffffffffffffff\n      and\n      dup2\n      mstore\n      0x20\n      add\n      swap1\n      dup2\n      mstore\n      0x20\n      add\n      0x00\n      keccak256\n      0x00\n      swap1\n      sload\n      swap1\n      0x0100\n      exp\n      swap1\n      div\n      0xff\n      and\n        /* \"contracts/ExercisePractice/MultiSigWallet.sol\":2496:2540  require(isOwner[msg.sender], \"Not an owner\") */\n      tag_227\n      jumpi\n      mload(0x40)\n      0x08c379a000000000000000000000000000000000000000000000000000000000\n      dup2\n      mstore\n      0x04\n      add\n      tag_228\n      swap1\n      tag_110\n      jump\t// in\n    tag_228:\n      mload(0x40)\n      dup1\n      swap2\n      sub\n      swap1\n      revert\n    tag_227:\n        /* \"contracts/ExercisePractice/MultiSigWallet.sol\":6553:6561  _txIndex */\n      dup1\n        /* \"contracts/ExercisePractice/MultiSigWallet.sol\":2740:2752  transactions */\n      0x03\n        /* \"contracts/ExercisePractice/MultiSigWallet.sol\":2740:2759  transactions.length */\n      dup1\n      sload\n      swap1\n      pop\n        /* \"contracts/ExercisePractice/MultiSigWallet.sol\":2729:2737  _txIndex */\n      dup2\n        /* \"contracts/ExercisePractice/MultiSigWallet.sol\":2729:2759  _txIndex < transactions.length */\n      lt\n        /* \"contracts/ExercisePractice/MultiSigWallet.sol\":2721:2790  require(_txIndex < transactions.length, \"Transaction does not exist\") */\n      tag_230\n      jumpi\n      mload(0x40)\n      0x08c379a000000000000000000000000000000000000000000000000000000000\n      dup2\n      mstore\n      0x04\n      add\n      tag_231\n      swap1\n      tag_114\n      jump\t// in\n    tag_231:\n      mload(0x40)\n      dup1\n      swap2\n      sub\n      swap1\n      revert\n    tag_230:\n        /* \"contracts/ExercisePractice/MultiSigWallet.sol\":6583:6591  _txIndex */\n      dup2\n        /* \"contracts/ExercisePractice/MultiSigWallet.sol\":2994:3006  transactions */\n      0x03\n        /* \"contracts/ExercisePractice/MultiSigWallet.sol\":3007:3015  _txIndex */\n      dup2\n        /* \"contracts/ExercisePractice/MultiSigWallet.sol\":2994:3016  transactions[_txIndex] */\n      dup2\n      sload\n      dup2\n      lt\n      tag_233\n      jumpi\n      tag_234\n      tag_118\n      jump\t// in\n    tag_234:\n    tag_233:\n      swap1\n      0x00\n      mstore\n      keccak256(0x00, 0x20)\n      swap1\n      0x06\n      mul\n      add\n        /* \"contracts/ExercisePractice/MultiSigWallet.sol\":2994:3025  transactions[_txIndex].executed */\n      0x03\n      add\n      0x00\n      swap1\n      sload\n      swap1\n      0x0100\n      exp\n      swap1\n      div\n      0xff\n      and\n        /* \"contracts/ExercisePractice/MultiSigWallet.sol\":2993:3025  !transactions[_txIndex].executed */\n      iszero\n        /* \"contracts/ExercisePractice/MultiSigWallet.sol\":2985:3058  require(!transactions[_txIndex].executed, \"Transaction already executed\") */\n      tag_236\n      jumpi\n      mload(0x40)\n      0x08c379a000000000000000000000000000000000000000000000000000000000\n      dup2\n      mstore\n      0x04\n      add\n      tag_237\n      swap1\n      tag_122\n      jump\t// in\n    tag_237:\n      mload(0x40)\n      dup1\n      swap2\n      sub\n      swap1\n      revert\n    tag_236:\n        /* \"contracts/ExercisePractice/MultiSigWallet.sol\":6613:6621  _txIndex */\n      dup3\n        /* \"contracts/ExercisePractice/MultiSigWallet.sol\":3254:3266  transactions */\n      0x03\n        /* \"contracts/ExercisePractice/MultiSigWallet.sol\":3267:3275  _txIndex */\n      dup2\n        /* \"contracts/ExercisePractice/MultiSigWallet.sol\":3254:3276  transactions[_txIndex] */\n      dup2\n      sload\n      dup2\n      lt\n      tag_239\n      jumpi\n      tag_240\n      tag_118\n      jump\t// in\n    tag_240:\n    tag_239:\n      swap1\n      0x00\n      mstore\n      keccak256(0x00, 0x20)\n      swap1\n      0x06\n      mul\n      add\n        /* \"contracts/ExercisePractice/MultiSigWallet.sol\":3254:3285  transactions[_txIndex].canceled */\n      0x05\n      add\n      0x00\n      swap1\n      sload\n      swap1\n      0x0100\n      exp\n      swap1\n      div\n      0xff\n      and\n        /* \"contracts/ExercisePractice/MultiSigWallet.sol\":3253:3285  !transactions[_txIndex].canceled */\n      iszero\n        /* \"contracts/ExercisePractice/MultiSigWallet.sol\":3245:3319  require(!transactions[_txIndex].canceled, \"Transaction has been canceled\") */\n      tag_242\n      jumpi\n      mload(0x40)\n      0x08c379a000000000000000000000000000000000000000000000000000000000\n      dup2\n      mstore\n      0x04\n      add\n      tag_243\n      swap1\n      tag_129\n      jump\t// in\n    tag_243:\n      mload(0x40)\n      dup1\n      swap2\n      sub\n      swap1\n      revert\n    tag_242:\n        /* \"contracts/ExercisePractice/MultiSigWallet.sol\":6637:6668  Transaction storage transaction */\n      0x00\n        /* \"contracts/ExercisePractice/MultiSigWallet.sol\":6671:6683  transactions */\n      0x03\n        /* \"contracts/ExercisePractice/MultiSigWallet.sol\":6684:6692  _txIndex */\n      dup6\n        /* \"contracts/ExercisePractice/MultiSigWallet.sol\":6671:6693  transactions[_txIndex] */\n      dup2\n      sload\n      dup2\n      lt\n      tag_245\n      jumpi\n      tag_246\n      tag_118\n      jump\t// in\n    tag_246:\n    tag_245:\n      swap1\n      0x00\n      mstore\n      keccak256(0x00, 0x20)\n      swap1\n      0x06\n      mul\n      add\n        /* \"contracts/ExercisePractice/MultiSigWallet.sol\":6637:6693  Transaction storage transaction = transactions[_txIndex] */\n      swap1\n      pop\n        /* \"contracts/ExercisePractice/MultiSigWallet.sol\":6741:6749  required */\n      sload(0x02)\n        /* \"contracts/ExercisePractice/MultiSigWallet.sol\":6708:6719  transaction */\n      dup2\n        /* \"contracts/ExercisePractice/MultiSigWallet.sol\":6708:6737  transaction.confirmationCount */\n      0x04\n      add\n      sload\n        /* \"contracts/ExercisePractice/MultiSigWallet.sol\":6708:6749  transaction.confirmationCount >= required */\n      lt\n        /* \"contracts/ExercisePractice/MultiSigWallet.sol\":6704:7042  if (transaction.confirmationCount >= required) {... */\n      tag_248\n      jumpi\n        /* \"contracts/ExercisePractice/MultiSigWallet.sol\":6788:6792  true */\n      0x01\n        /* \"contracts/ExercisePractice/MultiSigWallet.sol\":6765:6776  transaction */\n      dup2\n        /* \"contracts/ExercisePractice/MultiSigWallet.sol\":6765:6785  transaction.executed */\n      0x03\n      add\n      0x00\n        /* \"contracts/ExercisePractice/MultiSigWallet.sol\":6765:6792  transaction.executed = true */\n      0x0100\n      exp\n      dup2\n      sload\n      dup2\n      0xff\n      mul\n      not\n      and\n      swap1\n      dup4\n      iszero\n      iszero\n      mul\n      or\n      swap1\n      sstore\n      pop\n        /* \"contracts/ExercisePractice/MultiSigWallet.sol\":6808:6820  bool success */\n      0x00\n        /* \"contracts/ExercisePractice/MultiSigWallet.sol\":6826:6837  transaction */\n      dup2\n        /* \"contracts/ExercisePractice/MultiSigWallet.sol\":6826:6840  transaction.to */\n      0x00\n      add\n      0x00\n      swap1\n      sload\n      swap1\n      0x0100\n      exp\n      swap1\n      div\n      0xffffffffffffffffffffffffffffffffffffffff\n      and\n        /* \"contracts/ExercisePractice/MultiSigWallet.sol\":6826:6845  transaction.to.call */\n      0xffffffffffffffffffffffffffffffffffffffff\n      and\n        /* \"contracts/ExercisePractice/MultiSigWallet.sol\":6853:6864  transaction */\n      dup3\n        /* \"contracts/ExercisePractice/MultiSigWallet.sol\":6853:6870  transaction.value */\n      0x01\n      add\n      sload\n        /* \"contracts/ExercisePractice/MultiSigWallet.sol\":6889:6900  transaction */\n      dup4\n        /* \"contracts/ExercisePractice/MultiSigWallet.sol\":6889:6905  transaction.data */\n      0x02\n      add\n        /* \"contracts/ExercisePractice/MultiSigWallet.sol\":6826:6919  transaction.to.call{value: transaction.value}(... */\n      mload(0x40)\n      tag_249\n      swap2\n      swap1\n      tag_250\n      jump\t// in\n    tag_249:\n      0x00\n      mload(0x40)\n      dup1\n      dup4\n      sub\n      dup2\n      dup6\n      dup8\n      gas\n      call\n      swap3\n      pop\n      pop\n      pop\n      returndatasize\n      dup1\n      0x00\n      dup2\n      eq\n      tag_253\n      jumpi\n      mload(0x40)\n      swap2\n      pop\n      and(add(returndatasize, 0x3f), not(0x1f))\n      dup3\n      add\n      0x40\n      mstore\n      returndatasize\n      dup3\n      mstore\n      returndatasize\n      0x00\n      0x20\n      dup5\n      add\n      returndatacopy\n      jump(tag_252)\n    tag_253:\n      0x60\n      swap2\n      pop\n    tag_252:\n      pop\n        /* \"contracts/ExercisePractice/MultiSigWallet.sol\":6807:6919  (bool success, ) = transaction.to.call{value: transaction.value}(... */\n      pop\n      swap1\n      pop\n        /* \"contracts/ExercisePractice/MultiSigWallet.sol\":6941:6948  success */\n      dup1\n        /* \"contracts/ExercisePractice/MultiSigWallet.sol\":6933:6971  require(success, \"Transaction failed\") */\n      tag_254\n      jumpi\n      mload(0x40)\n      0x08c379a000000000000000000000000000000000000000000000000000000000\n      dup2\n      mstore\n      0x04\n      add\n      tag_255\n      swap1\n      tag_256\n      jump\t// in\n    tag_255:\n      mload(0x40)\n      dup1\n      swap2\n      sub\n      swap1\n      revert\n    tag_254:\n        /* \"contracts/ExercisePractice/MultiSigWallet.sol\":7022:7030  _txIndex */\n      dup6\n        /* \"contracts/ExercisePractice/MultiSigWallet.sol\":7010:7020  msg.sender */\n      caller\n        /* \"contracts/ExercisePractice/MultiSigWallet.sol\":6991:7031  ExecuteTransaction(msg.sender, _txIndex) */\n      0xffffffffffffffffffffffffffffffffffffffff\n      and\n      0x5445f318f4f5fcfb66592e68e0cc5822aa15664039bd5f0ffde24c5a8142b1ac\n      mload(0x40)\n      mload(0x40)\n      dup1\n      swap2\n      sub\n      swap1\n      log3\n        /* \"contracts/ExercisePractice/MultiSigWallet.sol\":6751:7042  {... */\n      pop\n        /* \"contracts/ExercisePractice/MultiSigWallet.sol\":6704:7042  if (transaction.confirmationCount >= required) {... */\n    tag_248:\n        /* \"contracts/ExercisePractice/MultiSigWallet.sol\":6627:7057  {... */\n      pop\n        /* \"contracts/ExercisePractice/MultiSigWallet.sol\":3068:3069  _ */\n      pop\n        /* \"contracts/ExercisePractice/MultiSigWallet.sol\":2800:2801  _ */\n      pop\n        /* \"contracts/ExercisePractice/MultiSigWallet.sol\":2550:2551  _ */\n      pop\n        /* \"contracts/ExercisePractice/MultiSigWallet.sol\":6457:7057  function executeTransaction(uint256 _txIndex)... */\n      pop\n      jump\t// out\n        /* \"#utility.yul\":7:84   */\n    tag_257:\n        /* \"#utility.yul\":44:51   */\n      0x00\n        /* \"#utility.yul\":73:78   */\n      dup2\n        /* \"#utility.yul\":62:78   */\n      swap1\n      pop\n        /* \"#utility.yul\":7:84   */\n      swap2\n      swap1\n      pop\n      jump\t// out\n        /* \"#utility.yul\":90:208   */\n    tag_258:\n        /* \"#utility.yul\":177:201   */\n      tag_331\n        /* \"#utility.yul\":195:200   */\n      dup2\n        /* \"#utility.yul\":177:201   */\n      tag_257\n      jump\t// in\n    tag_331:\n        /* \"#utility.yul\":172:175   */\n      dup3\n        /* \"#utility.yul\":165:202   */\n      mstore\n        /* \"#utility.yul\":90:208   */\n      pop\n      pop\n      jump\t// out\n        /* \"#utility.yul\":214:546   */\n    tag_25:\n        /* \"#utility.yul\":335:339   */\n      0x00\n        /* \"#utility.yul\":373:375   */\n      0x40\n        /* \"#utility.yul\":362:371   */\n      dup3\n        /* \"#utility.yul\":358:376   */\n      add\n        /* \"#utility.yul\":350:376   */\n      swap1\n      pop\n        /* \"#utility.yul\":386:457   */\n      tag_333\n        /* \"#utility.yul\":454:455   */\n      0x00\n        /* \"#utility.yul\":443:452   */\n      dup4\n        /* \"#utility.yul\":439:456   */\n      add\n        /* \"#utility.yul\":430:436   */\n      dup6\n        /* \"#utility.yul\":386:457   */\n      tag_258\n      jump\t// in\n    tag_333:\n        /* \"#utility.yul\":467:539   */\n      tag_334\n        /* \"#utility.yul\":535:537   */\n      0x20\n        /* \"#utility.yul\":524:533   */\n      dup4\n        /* \"#utility.yul\":520:538   */\n      add\n        /* \"#utility.yul\":511:517   */\n      dup5\n        /* \"#utility.yul\":467:539   */\n      tag_258\n      jump\t// in\n    tag_334:\n        /* \"#utility.yul\":214:546   */\n      swap4\n      swap3\n      pop\n      pop\n      pop\n      jump\t// out\n        /* \"#utility.yul\":552:627   */\n    tag_259:\n        /* \"#utility.yul\":585:591   */\n      0x00\n        /* \"#utility.yul\":618:620   */\n      0x40\n        /* \"#utility.yul\":612:621   */\n      mload\n        /* \"#utility.yul\":602:621   */\n      swap1\n      pop\n        /* \"#utility.yul\":552:627   */\n      swap1\n      jump\t// out\n        /* \"#utility.yul\":633:750   */\n    tag_260:\n        /* \"#utility.yul\":742:743   */\n      0x00\n        /* \"#utility.yul\":739:740   */\n      dup1\n        /* \"#utility.yul\":732:744   */\n      revert\n        /* \"#utility.yul\":756:873   */\n    tag_261:\n        /* \"#utility.yul\":865:866   */\n      0x00\n        /* \"#utility.yul\":862:863   */\n      dup1\n        /* \"#utility.yul\":855:867   */\n      revert\n        /* \"#utility.yul\":879:1001   */\n    tag_262:\n        /* \"#utility.yul\":952:976   */\n      tag_339\n        /* \"#utility.yul\":970:975   */\n      dup2\n        /* \"#utility.yul\":952:976   */\n      tag_257\n      jump\t// in\n    tag_339:\n        /* \"#utility.yul\":945:950   */\n      dup2\n        /* \"#utility.yul\":942:977   */\n      eq\n        /* \"#utility.yul\":932:995   */\n      tag_340\n      jumpi\n        /* \"#utility.yul\":991:992   */\n      0x00\n        /* \"#utility.yul\":988:989   */\n      dup1\n        /* \"#utility.yul\":981:993   */\n      revert\n        /* \"#utility.yul\":932:995   */\n    tag_340:\n        /* \"#utility.yul\":879:1001   */\n      pop\n      jump\t// out\n        /* \"#utility.yul\":1007:1146   */\n    tag_263:\n        /* \"#utility.yul\":1053:1058   */\n      0x00\n        /* \"#utility.yul\":1091:1097   */\n      dup2\n        /* \"#utility.yul\":1078:1098   */\n      calldataload\n        /* \"#utility.yul\":1069:1098   */\n      swap1\n      pop\n        /* \"#utility.yul\":1107:1140   */\n      tag_342\n        /* \"#utility.yul\":1134:1139   */\n      dup2\n        /* \"#utility.yul\":1107:1140   */\n      tag_262\n      jump\t// in\n    tag_342:\n        /* \"#utility.yul\":1007:1146   */\n      swap3\n      swap2\n      pop\n      pop\n      jump\t// out\n        /* \"#utility.yul\":1152:1481   */\n    tag_29:\n        /* \"#utility.yul\":1211:1217   */\n      0x00\n        /* \"#utility.yul\":1260:1262   */\n      0x20\n        /* \"#utility.yul\":1248:1257   */\n      dup3\n        /* \"#utility.yul\":1239:1246   */\n      dup5\n        /* \"#utility.yul\":1235:1258   */\n      sub\n        /* \"#utility.yul\":1231:1263   */\n      slt\n        /* \"#utility.yul\":1228:1347   */\n      iszero\n      tag_344\n      jumpi\n        /* \"#utility.yul\":1266:1345   */\n      tag_345\n      tag_260\n      jump\t// in\n    tag_345:\n        /* \"#utility.yul\":1228:1347   */\n    tag_344:\n        /* \"#utility.yul\":1386:1387   */\n      0x00\n        /* \"#utility.yul\":1411:1464   */\n      tag_346\n        /* \"#utility.yul\":1456:1463   */\n      dup5\n        /* \"#utility.yul\":1447:1453   */\n      dup3\n        /* \"#utility.yul\":1436:1445   */\n      dup6\n        /* \"#utility.yul\":1432:1454   */\n      add\n        /* \"#utility.yul\":1411:1464   */\n      tag_263\n      jump\t// in\n    tag_346:\n        /* \"#utility.yul\":1401:1464   */\n      swap2\n      pop\n        /* \"#utility.yul\":1357:1474   */\n      pop\n        /* \"#utility.yul\":1152:1481   */\n      swap3\n      swap2\n      pop\n      pop\n      jump\t// out\n        /* \"#utility.yul\":1487:1613   */\n    tag_264:\n        /* \"#utility.yul\":1524:1531   */\n      0x00\n        /* \"#utility.yul\":1564:1606   */\n      0xffffffffffffffffffffffffffffffffffffffff\n        /* \"#utility.yul\":1557:1562   */\n      dup3\n        /* \"#utility.yul\":1553:1607   */\n      and\n        /* \"#utility.yul\":1542:1607   */\n      swap1\n      pop\n        /* \"#utility.yul\":1487:1613   */\n      swap2\n      swap1\n      pop\n      jump\t// out\n        /* \"#utility.yul\":1619:1715   */\n    tag_265:\n        /* \"#utility.yul\":1656:1663   */\n      0x00\n        /* \"#utility.yul\":1685:1709   */\n      tag_349\n        /* \"#utility.yul\":1703:1708   */\n      dup3\n        /* \"#utility.yul\":1685:1709   */\n      tag_264\n      jump\t// in\n    tag_349:\n        /* \"#utility.yul\":1674:1709   */\n      swap1\n      pop\n        /* \"#utility.yul\":1619:1715   */\n      swap2\n      swap1\n      pop\n      jump\t// out\n        /* \"#utility.yul\":1721:1839   */\n    tag_266:\n        /* \"#utility.yul\":1808:1832   */\n      tag_351\n        /* \"#utility.yul\":1826:1831   */\n      dup2\n        /* \"#utility.yul\":1808:1832   */\n      tag_265\n      jump\t// in\n    tag_351:\n        /* \"#utility.yul\":1803:1806   */\n      dup3\n        /* \"#utility.yul\":1796:1833   */\n      mstore\n        /* \"#utility.yul\":1721:1839   */\n      pop\n      pop\n      jump\t// out\n        /* \"#utility.yul\":1845:2067   */\n    tag_32:\n        /* \"#utility.yul\":1938:1942   */\n      0x00\n        /* \"#utility.yul\":1976:1978   */\n      0x20\n        /* \"#utility.yul\":1965:1974   */\n      dup3\n        /* \"#utility.yul\":1961:1979   */\n      add\n        /* \"#utility.yul\":1953:1979   */\n      swap1\n      pop\n        /* \"#utility.yul\":1989:2060   */\n      tag_353\n        /* \"#utility.yul\":2057:2058   */\n      0x00\n        /* \"#utility.yul\":2046:2055   */\n      dup4\n        /* \"#utility.yul\":2042:2059   */\n      add\n        /* \"#utility.yul\":2033:2039   */\n      dup5\n        /* \"#utility.yul\":1989:2060   */\n      tag_266\n      jump\t// in\n    tag_353:\n        /* \"#utility.yul\":1845:2067   */\n      swap3\n      swap2\n      pop\n      pop\n      jump\t// out\n        /* \"#utility.yul\":2073:2295   */\n    tag_37:\n        /* \"#utility.yul\":2166:2170   */\n      0x00\n        /* \"#utility.yul\":2204:2206   */\n      0x20\n        /* \"#utility.yul\":2193:2202   */\n      dup3\n        /* \"#utility.yul\":2189:2207   */\n      add\n        /* \"#utility.yul\":2181:2207   */\n      swap1\n      pop\n        /* \"#utility.yul\":2217:2288   */\n      tag_355\n        /* \"#utility.yul\":2285:2286   */\n      0x00\n        /* \"#utility.yul\":2274:2283   */\n      dup4\n        /* \"#utility.yul\":2270:2287   */\n      add\n        /* \"#utility.yul\":2261:2267   */\n      dup5\n        /* \"#utility.yul\":2217:2288   */\n      tag_258\n      jump\t// in\n    tag_355:\n        /* \"#utility.yul\":2073:2295   */\n      swap3\n      swap2\n      pop\n      pop\n      jump\t// out\n        /* \"#utility.yul\":2301:2423   */\n    tag_267:\n        /* \"#utility.yul\":2374:2398   */\n      tag_357\n        /* \"#utility.yul\":2392:2397   */\n      dup2\n        /* \"#utility.yul\":2374:2398   */\n      tag_265\n      jump\t// in\n    tag_357:\n        /* \"#utility.yul\":2367:2372   */\n      dup2\n        /* \"#utility.yul\":2364:2399   */\n      eq\n        /* \"#utility.yul\":2354:2417   */\n      tag_358\n      jumpi\n        /* \"#utility.yul\":2413:2414   */\n      0x00\n        /* \"#utility.yul\":2410:2411   */\n      dup1\n        /* \"#utility.yul\":2403:2415   */\n      revert\n        /* \"#utility.yul\":2354:2417   */\n    tag_358:\n        /* \"#utility.yul\":2301:2423   */\n      pop\n      jump\t// out\n        /* \"#utility.yul\":2429:2568   */\n    tag_268:\n        /* \"#utility.yul\":2475:2480   */\n      0x00\n        /* \"#utility.yul\":2513:2519   */\n      dup2\n        /* \"#utility.yul\":2500:2520   */\n      calldataload\n        /* \"#utility.yul\":2491:2520   */\n      swap1\n      pop\n        /* \"#utility.yul\":2529:2562   */\n      tag_360\n        /* \"#utility.yul\":2556:2561   */\n      dup2\n        /* \"#utility.yul\":2529:2562   */\n      tag_267\n      jump\t// in\n    tag_360:\n        /* \"#utility.yul\":2429:2568   */\n      swap3\n      swap2\n      pop\n      pop\n      jump\t// out\n        /* \"#utility.yul\":2574:2903   */\n    tag_49:\n        /* \"#utility.yul\":2633:2639   */\n      0x00\n        /* \"#utility.yul\":2682:2684   */\n      0x20\n        /* \"#utility.yul\":2670:2679   */\n      dup3\n        /* \"#utility.yul\":2661:2668   */\n      dup5\n        /* \"#utility.yul\":2657:2680   */\n      sub\n        /* \"#utility.yul\":2653:2685   */\n      slt\n        /* \"#utility.yul\":2650:2769   */\n      iszero\n      tag_362\n      jumpi\n        /* \"#utility.yul\":2688:2767   */\n      tag_363\n      tag_260\n      jump\t// in\n    tag_363:\n        /* \"#utility.yul\":2650:2769   */\n    tag_362:\n        /* \"#utility.yul\":2808:2809   */\n      0x00\n        /* \"#utility.yul\":2833:2886   */\n      tag_364\n        /* \"#utility.yul\":2878:2885   */\n      dup5\n        /* \"#utility.yul\":2869:2875   */\n      dup3\n        /* \"#utility.yul\":2858:2867   */\n      dup6\n        /* \"#utility.yul\":2854:2876   */\n      add\n        /* \"#utility.yul\":2833:2886   */\n      tag_268\n      jump\t// in\n    tag_364:\n        /* \"#utility.yul\":2823:2886   */\n      swap2\n      pop\n        /* \"#utility.yul\":2779:2896   */\n      pop\n        /* \"#utility.yul\":2574:2903   */\n      swap3\n      swap2\n      pop\n      pop\n      jump\t// out\n        /* \"#utility.yul\":2909:2999   */\n    tag_269:\n        /* \"#utility.yul\":2943:2950   */\n      0x00\n        /* \"#utility.yul\":2986:2991   */\n      dup2\n        /* \"#utility.yul\":2979:2992   */\n      iszero\n        /* \"#utility.yul\":2972:2993   */\n      iszero\n        /* \"#utility.yul\":2961:2993   */\n      swap1\n      pop\n        /* \"#utility.yul\":2909:2999   */\n      swap2\n      swap1\n      pop\n      jump\t// out\n        /* \"#utility.yul\":3005:3114   */\n    tag_270:\n        /* \"#utility.yul\":3086:3107   */\n      tag_367\n        /* \"#utility.yul\":3101:3106   */\n      dup2\n        /* \"#utility.yul\":3086:3107   */\n      tag_269\n      jump\t// in\n    tag_367:\n        /* \"#utility.yul\":3081:3084   */\n      dup3\n        /* \"#utility.yul\":3074:3108   */\n      mstore\n        /* \"#utility.yul\":3005:3114   */\n      pop\n      pop\n      jump\t// out\n        /* \"#utility.yul\":3120:3330   */\n    tag_52:\n        /* \"#utility.yul\":3207:3211   */\n      0x00\n        /* \"#utility.yul\":3245:3247   */\n      0x20\n        /* \"#utility.yul\":3234:3243   */\n      dup3\n        /* \"#utility.yul\":3230:3248   */\n      add\n        /* \"#utility.yul\":3222:3248   */\n      swap1\n      pop\n        /* \"#utility.yul\":3258:3323   */\n      tag_369\n        /* \"#utility.yul\":3320:3321   */\n      0x00\n        /* \"#utility.yul\":3309:3318   */\n      dup4\n        /* \"#utility.yul\":3305:3322   */\n      add\n        /* \"#utility.yul\":3296:3302   */\n      dup5\n        /* \"#utility.yul\":3258:3323   */\n      tag_270\n      jump\t// in\n    tag_369:\n        /* \"#utility.yul\":3120:3330   */\n      swap3\n      swap2\n      pop\n      pop\n      jump\t// out\n        /* \"#utility.yul\":3336:3434   */\n    tag_271:\n        /* \"#utility.yul\":3387:3393   */\n      0x00\n        /* \"#utility.yul\":3421:3426   */\n      dup2\n        /* \"#utility.yul\":3415:3427   */\n      mload\n        /* \"#utility.yul\":3405:3427   */\n      swap1\n      pop\n        /* \"#utility.yul\":3336:3434   */\n      swap2\n      swap1\n      pop\n      jump\t// out\n        /* \"#utility.yul\":3440:3608   */\n    tag_272:\n        /* \"#utility.yul\":3523:3534   */\n      0x00\n        /* \"#utility.yul\":3557:3563   */\n      dup3\n        /* \"#utility.yul\":3552:3555   */\n      dup3\n        /* \"#utility.yul\":3545:3564   */\n      mstore\n        /* \"#utility.yul\":3597:3601   */\n      0x20\n        /* \"#utility.yul\":3592:3595   */\n      dup3\n        /* \"#utility.yul\":3588:3602   */\n      add\n        /* \"#utility.yul\":3573:3602   */\n      swap1\n      pop\n        /* \"#utility.yul\":3440:3608   */\n      swap3\n      swap2\n      pop\n      pop\n      jump\t// out\n        /* \"#utility.yul\":3614:3753   */\n    tag_273:\n        /* \"#utility.yul\":3703:3709   */\n      dup3\n        /* \"#utility.yul\":3698:3701   */\n      dup2\n        /* \"#utility.yul\":3693:3696   */\n      dup4\n        /* \"#utility.yul\":3687:3710   */\n      mcopy\n        /* \"#utility.yul\":3744:3745   */\n      0x00\n        /* \"#utility.yul\":3735:3741   */\n      dup4\n        /* \"#utility.yul\":3730:3733   */\n      dup4\n        /* \"#utility.yul\":3726:3742   */\n      add\n        /* \"#utility.yul\":3719:3746   */\n      mstore\n        /* \"#utility.yul\":3614:3753   */\n      pop\n      pop\n      pop\n      jump\t// out\n        /* \"#utility.yul\":3759:3861   */\n    tag_274:\n        /* \"#utility.yul\":3800:3806   */\n      0x00\n        /* \"#utility.yul\":3851:3853   */\n      0x1f\n        /* \"#utility.yul\":3847:3854   */\n      not\n        /* \"#utility.yul\":3842:3844   */\n      0x1f\n        /* \"#utility.yul\":3835:3840   */\n      dup4\n        /* \"#utility.yul\":3831:3845   */\n      add\n        /* \"#utility.yul\":3827:3855   */\n      and\n        /* \"#utility.yul\":3817:3855   */\n      swap1\n      pop\n        /* \"#utility.yul\":3759:3861   */\n      swap2\n      swap1\n      pop\n      jump\t// out\n        /* \"#utility.yul\":3867:4240   */\n    tag_275:\n        /* \"#utility.yul\":3953:3956   */\n      0x00\n        /* \"#utility.yul\":3981:4019   */\n      tag_375\n        /* \"#utility.yul\":4013:4018   */\n      dup3\n        /* \"#utility.yul\":3981:4019   */\n      tag_271\n      jump\t// in\n    tag_375:\n        /* \"#utility.yul\":4035:4105   */\n      tag_376\n        /* \"#utility.yul\":4098:4104   */\n      dup2\n        /* \"#utility.yul\":4093:4096   */\n      dup6\n        /* \"#utility.yul\":4035:4105   */\n      tag_272\n      jump\t// in\n    tag_376:\n        /* \"#utility.yul\":4028:4105   */\n      swap4\n      pop\n        /* \"#utility.yul\":4114:4179   */\n      tag_377\n        /* \"#utility.yul\":4172:4178   */\n      dup2\n        /* \"#utility.yul\":4167:4170   */\n      dup6\n        /* \"#utility.yul\":4160:4164   */\n      0x20\n        /* \"#utility.yul\":4153:4158   */\n      dup7\n        /* \"#utility.yul\":4149:4165   */\n      add\n        /* \"#utility.yul\":4114:4179   */\n      tag_273\n      jump\t// in\n    tag_377:\n        /* \"#utility.yul\":4204:4233   */\n      tag_378\n        /* \"#utility.yul\":4226:4232   */\n      dup2\n        /* \"#utility.yul\":4204:4233   */\n      tag_274\n      jump\t// in\n    tag_378:\n        /* \"#utility.yul\":4199:4202   */\n      dup5\n        /* \"#utility.yul\":4195:4234   */\n      add\n        /* \"#utility.yul\":4188:4234   */\n      swap2\n      pop\n        /* \"#utility.yul\":3957:4240   */\n      pop\n        /* \"#utility.yul\":3867:4240   */\n      swap3\n      swap2\n      pop\n      pop\n      jump\t// out\n        /* \"#utility.yul\":4246:5084   */\n    tag_62:\n        /* \"#utility.yul\":4485:4489   */\n      0x00\n        /* \"#utility.yul\":4523:4526   */\n      0xc0\n        /* \"#utility.yul\":4512:4521   */\n      dup3\n        /* \"#utility.yul\":4508:4527   */\n      add\n        /* \"#utility.yul\":4500:4527   */\n      swap1\n      pop\n        /* \"#utility.yul\":4537:4608   */\n      tag_380\n        /* \"#utility.yul\":4605:4606   */\n      0x00\n        /* \"#utility.yul\":4594:4603   */\n      dup4\n        /* \"#utility.yul\":4590:4607   */\n      add\n        /* \"#utility.yul\":4581:4587   */\n      dup10\n        /* \"#utility.yul\":4537:4608   */\n      tag_266\n      jump\t// in\n    tag_380:\n        /* \"#utility.yul\":4618:4690   */\n      tag_381\n        /* \"#utility.yul\":4686:4688   */\n      0x20\n        /* \"#utility.yul\":4675:4684   */\n      dup4\n        /* \"#utility.yul\":4671:4689   */\n      add\n        /* \"#utility.yul\":4662:4668   */\n      dup9\n        /* \"#utility.yul\":4618:4690   */\n      tag_258\n      jump\t// in\n    tag_381:\n        /* \"#utility.yul\":4737:4746   */\n      dup2\n        /* \"#utility.yul\":4731:4735   */\n      dup2\n        /* \"#utility.yul\":4727:4747   */\n      sub\n        /* \"#utility.yul\":4722:4724   */\n      0x40\n        /* \"#utility.yul\":4711:4720   */\n      dup4\n        /* \"#utility.yul\":4707:4725   */\n      add\n        /* \"#utility.yul\":4700:4748   */\n      mstore\n        /* \"#utility.yul\":4765:4841   */\n      tag_382\n        /* \"#utility.yul\":4836:4840   */\n      dup2\n        /* \"#utility.yul\":4827:4833   */\n      dup8\n        /* \"#utility.yul\":4765:4841   */\n      tag_275\n      jump\t// in\n    tag_382:\n        /* \"#utility.yul\":4757:4841   */\n      swap1\n      pop\n        /* \"#utility.yul\":4851:4917   */\n      tag_383\n        /* \"#utility.yul\":4913:4915   */\n      0x60\n        /* \"#utility.yul\":4902:4911   */\n      dup4\n        /* \"#utility.yul\":4898:4916   */\n      add\n        /* \"#utility.yul\":4889:4895   */\n      dup7\n        /* \"#utility.yul\":4851:4917   */\n      tag_270\n      jump\t// in\n    tag_383:\n        /* \"#utility.yul\":4927:5000   */\n      tag_384\n        /* \"#utility.yul\":4995:4998   */\n      0x80\n        /* \"#utility.yul\":4984:4993   */\n      dup4\n        /* \"#utility.yul\":4980:4999   */\n      add\n        /* \"#utility.yul\":4971:4977   */\n      dup6\n        /* \"#utility.yul\":4927:5000   */\n      tag_258\n      jump\t// in\n    tag_384:\n        /* \"#utility.yul\":5010:5077   */\n      tag_385\n        /* \"#utility.yul\":5072:5075   */\n      0xa0\n        /* \"#utility.yul\":5061:5070   */\n      dup4\n        /* \"#utility.yul\":5057:5076   */\n      add\n        /* \"#utility.yul\":5048:5054   */\n      dup5\n        /* \"#utility.yul\":5010:5077   */\n      tag_270\n      jump\t// in\n    tag_385:\n        /* \"#utility.yul\":4246:5084   */\n      swap8\n      swap7\n      pop\n      pop\n      pop\n      pop\n      pop\n      pop\n      pop\n      jump\t// out\n        /* \"#utility.yul\":5090:5564   */\n    tag_66:\n        /* \"#utility.yul\":5158:5164   */\n      0x00\n        /* \"#utility.yul\":5166:5172   */\n      dup1\n        /* \"#utility.yul\":5215:5217   */\n      0x40\n        /* \"#utility.yul\":5203:5212   */\n      dup4\n        /* \"#utility.yul\":5194:5201   */\n      dup6\n        /* \"#utility.yul\":5190:5213   */\n      sub\n        /* \"#utility.yul\":5186:5218   */\n      slt\n        /* \"#utility.yul\":5183:5302   */\n      iszero\n      tag_387\n      jumpi\n        /* \"#utility.yul\":5221:5300   */\n      tag_388\n      tag_260\n      jump\t// in\n    tag_388:\n        /* \"#utility.yul\":5183:5302   */\n    tag_387:\n        /* \"#utility.yul\":5341:5342   */\n      0x00\n        /* \"#utility.yul\":5366:5419   */\n      tag_389\n        /* \"#utility.yul\":5411:5418   */\n      dup6\n        /* \"#utility.yul\":5402:5408   */\n      dup3\n        /* \"#utility.yul\":5391:5400   */\n      dup7\n        /* \"#utility.yul\":5387:5409   */\n      add\n        /* \"#utility.yul\":5366:5419   */\n      tag_263\n      jump\t// in\n    tag_389:\n        /* \"#utility.yul\":5356:5419   */\n      swap3\n      pop\n        /* \"#utility.yul\":5312:5429   */\n      pop\n        /* \"#utility.yul\":5468:5470   */\n      0x20\n        /* \"#utility.yul\":5494:5547   */\n      tag_390\n        /* \"#utility.yul\":5539:5546   */\n      dup6\n        /* \"#utility.yul\":5530:5536   */\n      dup3\n        /* \"#utility.yul\":5519:5528   */\n      dup7\n        /* \"#utility.yul\":5515:5537   */\n      add\n        /* \"#utility.yul\":5494:5547   */\n      tag_268\n      jump\t// in\n    tag_390:\n        /* \"#utility.yul\":5484:5547   */\n      swap2\n      pop\n        /* \"#utility.yul\":5439:5557   */\n      pop\n        /* \"#utility.yul\":5090:5564   */\n      swap3\n      pop\n      swap3\n      swap1\n      pop\n      jump\t// out\n        /* \"#utility.yul\":5570:5684   */\n    tag_276:\n        /* \"#utility.yul\":5637:5643   */\n      0x00\n        /* \"#utility.yul\":5671:5676   */\n      dup2\n        /* \"#utility.yul\":5665:5677   */\n      mload\n        /* \"#utility.yul\":5655:5677   */\n      swap1\n      pop\n        /* \"#utility.yul\":5570:5684   */\n      swap2\n      swap1\n      pop\n      jump\t// out\n        /* \"#utility.yul\":5690:5874   */\n    tag_277:\n        /* \"#utility.yul\":5789:5800   */\n      0x00\n        /* \"#utility.yul\":5823:5829   */\n      dup3\n        /* \"#utility.yul\":5818:5821   */\n      dup3\n        /* \"#utility.yul\":5811:5830   */\n      mstore\n        /* \"#utility.yul\":5863:5867   */\n      0x20\n        /* \"#utility.yul\":5858:5861   */\n      dup3\n        /* \"#utility.yul\":5854:5868   */\n      add\n        /* \"#utility.yul\":5839:5868   */\n      swap1\n      pop\n        /* \"#utility.yul\":5690:5874   */\n      swap3\n      swap2\n      pop\n      pop\n      jump\t// out\n        /* \"#utility.yul\":5880:6012   */\n    tag_278:\n        /* \"#utility.yul\":5947:5951   */\n      0x00\n        /* \"#utility.yul\":5970:5973   */\n      dup2\n        /* \"#utility.yul\":5962:5973   */\n      swap1\n      pop\n        /* \"#utility.yul\":6000:6004   */\n      0x20\n        /* \"#utility.yul\":5995:5998   */\n      dup3\n        /* \"#utility.yul\":5991:6005   */\n      add\n        /* \"#utility.yul\":5983:6005   */\n      swap1\n      pop\n        /* \"#utility.yul\":5880:6012   */\n      swap2\n      swap1\n      pop\n      jump\t// out\n        /* \"#utility.yul\":6018:6126   */\n    tag_279:\n        /* \"#utility.yul\":6095:6119   */\n      tag_395\n        /* \"#utility.yul\":6113:6118   */\n      dup2\n        /* \"#utility.yul\":6095:6119   */\n      tag_265\n      jump\t// in\n    tag_395:\n        /* \"#utility.yul\":6090:6093   */\n      dup3\n        /* \"#utility.yul\":6083:6120   */\n      mstore\n        /* \"#utility.yul\":6018:6126   */\n      pop\n      pop\n      jump\t// out\n        /* \"#utility.yul\":6132:6311   */\n    tag_280:\n        /* \"#utility.yul\":6201:6211   */\n      0x00\n        /* \"#utility.yul\":6222:6268   */\n      tag_397\n        /* \"#utility.yul\":6264:6267   */\n      dup4\n        /* \"#utility.yul\":6256:6262   */\n      dup4\n        /* \"#utility.yul\":6222:6268   */\n      tag_279\n      jump\t// in\n    tag_397:\n        /* \"#utility.yul\":6300:6304   */\n      0x20\n        /* \"#utility.yul\":6295:6298   */\n      dup4\n        /* \"#utility.yul\":6291:6305   */\n      add\n        /* \"#utility.yul\":6277:6305   */\n      swap1\n      pop\n        /* \"#utility.yul\":6132:6311   */\n      swap3\n      swap2\n      pop\n      pop\n      jump\t// out\n        /* \"#utility.yul\":6317:6430   */\n    tag_281:\n        /* \"#utility.yul\":6387:6391   */\n      0x00\n        /* \"#utility.yul\":6419:6423   */\n      0x20\n        /* \"#utility.yul\":6414:6417   */\n      dup3\n        /* \"#utility.yul\":6410:6424   */\n      add\n        /* \"#utility.yul\":6402:6424   */\n      swap1\n      pop\n        /* \"#utility.yul\":6317:6430   */\n      swap2\n      swap1\n      pop\n      jump\t// out\n        /* \"#utility.yul\":6466:7198   */\n    tag_282:\n        /* \"#utility.yul\":6585:6588   */\n      0x00\n        /* \"#utility.yul\":6614:6668   */\n      tag_400\n        /* \"#utility.yul\":6662:6667   */\n      dup3\n        /* \"#utility.yul\":6614:6668   */\n      tag_276\n      jump\t// in\n    tag_400:\n        /* \"#utility.yul\":6684:6770   */\n      tag_401\n        /* \"#utility.yul\":6763:6769   */\n      dup2\n        /* \"#utility.yul\":6758:6761   */\n      dup6\n        /* \"#utility.yul\":6684:6770   */\n      tag_277\n      jump\t// in\n    tag_401:\n        /* \"#utility.yul\":6677:6770   */\n      swap4\n      pop\n        /* \"#utility.yul\":6794:6850   */\n      tag_402\n        /* \"#utility.yul\":6844:6849   */\n      dup4\n        /* \"#utility.yul\":6794:6850   */\n      tag_278\n      jump\t// in\n    tag_402:\n        /* \"#utility.yul\":6873:6880   */\n      dup1\n        /* \"#utility.yul\":6904:6905   */\n      0x00\n        /* \"#utility.yul\":6889:7173   */\n    tag_403:\n        /* \"#utility.yul\":6914:6920   */\n      dup4\n        /* \"#utility.yul\":6911:6912   */\n      dup2\n        /* \"#utility.yul\":6908:6921   */\n      lt\n        /* \"#utility.yul\":6889:7173   */\n      iszero\n      tag_405\n      jumpi\n        /* \"#utility.yul\":6990:6996   */\n      dup2\n        /* \"#utility.yul\":6984:6997   */\n      mload\n        /* \"#utility.yul\":7017:7080   */\n      tag_406\n        /* \"#utility.yul\":7076:7079   */\n      dup9\n        /* \"#utility.yul\":7061:7074   */\n      dup3\n        /* \"#utility.yul\":7017:7080   */\n      tag_280\n      jump\t// in\n    tag_406:\n        /* \"#utility.yul\":7010:7080   */\n      swap8\n      pop\n        /* \"#utility.yul\":7103:7163   */\n      tag_407\n        /* \"#utility.yul\":7156:7162   */\n      dup4\n        /* \"#utility.yul\":7103:7163   */\n      tag_281\n      jump\t// in\n    tag_407:\n        /* \"#utility.yul\":7093:7163   */\n      swap3\n      pop\n        /* \"#utility.yul\":6949:7173   */\n      pop\n        /* \"#utility.yul\":6936:6937   */\n      0x01\n        /* \"#utility.yul\":6933:6934   */\n      dup2\n        /* \"#utility.yul\":6929:6938   */\n      add\n        /* \"#utility.yul\":6924:6938   */\n      swap1\n      pop\n        /* \"#utility.yul\":6889:7173   */\n      jump(tag_403)\n    tag_405:\n        /* \"#utility.yul\":6893:6907   */\n      pop\n        /* \"#utility.yul\":7189:7192   */\n      dup6\n        /* \"#utility.yul\":7182:7192   */\n      swap4\n      pop\n        /* \"#utility.yul\":6590:7198   */\n      pop\n      pop\n      pop\n        /* \"#utility.yul\":6466:7198   */\n      swap3\n      swap2\n      pop\n      pop\n      jump\t// out\n        /* \"#utility.yul\":7204:7577   */\n    tag_83:\n        /* \"#utility.yul\":7347:7351   */\n      0x00\n        /* \"#utility.yul\":7385:7387   */\n      0x20\n        /* \"#utility.yul\":7374:7383   */\n      dup3\n        /* \"#utility.yul\":7370:7388   */\n      add\n        /* \"#utility.yul\":7362:7388   */\n      swap1\n      pop\n        /* \"#utility.yul\":7434:7443   */\n      dup2\n        /* \"#utility.yul\":7428:7432   */\n      dup2\n        /* \"#utility.yul\":7424:7444   */\n      sub\n        /* \"#utility.yul\":7420:7421   */\n      0x00\n        /* \"#utility.yul\":7409:7418   */\n      dup4\n        /* \"#utility.yul\":7405:7422   */\n      add\n        /* \"#utility.yul\":7398:7445   */\n      mstore\n        /* \"#utility.yul\":7462:7570   */\n      tag_409\n        /* \"#utility.yul\":7565:7569   */\n      dup2\n        /* \"#utility.yul\":7556:7562   */\n      dup5\n        /* \"#utility.yul\":7462:7570   */\n      tag_282\n      jump\t// in\n    tag_409:\n        /* \"#utility.yul\":7454:7570   */\n      swap1\n      pop\n        /* \"#utility.yul\":7204:7577   */\n      swap3\n      swap2\n      pop\n      pop\n      jump\t// out\n        /* \"#utility.yul\":7583:7700   */\n    tag_283:\n        /* \"#utility.yul\":7692:7693   */\n      0x00\n        /* \"#utility.yul\":7689:7690   */\n      dup1\n        /* \"#utility.yul\":7682:7694   */\n      revert\n        /* \"#utility.yul\":7706:7823   */\n    tag_284:\n        /* \"#utility.yul\":7815:7816   */\n      0x00\n        /* \"#utility.yul\":7812:7813   */\n      dup1\n        /* \"#utility.yul\":7805:7817   */\n      revert\n        /* \"#utility.yul\":7829:8009   */\n    tag_285:\n        /* \"#utility.yul\":7877:7954   */\n      0x4e487b7100000000000000000000000000000000000000000000000000000000\n        /* \"#utility.yul\":7874:7875   */\n      0x00\n        /* \"#utility.yul\":7867:7955   */\n      mstore\n        /* \"#utility.yul\":7974:7978   */\n      0x41\n        /* \"#utility.yul\":7971:7972   */\n      0x04\n        /* \"#utility.yul\":7964:7979   */\n      mstore\n        /* \"#utility.yul\":7998:8002   */\n      0x24\n        /* \"#utility.yul\":7995:7996   */\n      0x00\n        /* \"#utility.yul\":7988:8003   */\n      revert\n        /* \"#utility.yul\":8015:8296   */\n    tag_286:\n        /* \"#utility.yul\":8098:8125   */\n      tag_414\n        /* \"#utility.yul\":8120:8124   */\n      dup3\n        /* \"#utility.yul\":8098:8125   */\n      tag_274\n      jump\t// in\n    tag_414:\n        /* \"#utility.yul\":8090:8096   */\n      dup2\n        /* \"#utility.yul\":8086:8126   */\n      add\n        /* \"#utility.yul\":8228:8234   */\n      dup2\n        /* \"#utility.yul\":8216:8226   */\n      dup2\n        /* \"#utility.yul\":8213:8235   */\n      lt\n        /* \"#utility.yul\":8192:8210   */\n      0xffffffffffffffff\n        /* \"#utility.yul\":8180:8190   */\n      dup3\n        /* \"#utility.yul\":8177:8211   */\n      gt\n        /* \"#utility.yul\":8174:8236   */\n      or\n        /* \"#utility.yul\":8171:8259   */\n      iszero\n      tag_415\n      jumpi\n        /* \"#utility.yul\":8239:8257   */\n      tag_416\n      tag_285\n      jump\t// in\n    tag_416:\n        /* \"#utility.yul\":8171:8259   */\n    tag_415:\n        /* \"#utility.yul\":8279:8289   */\n      dup1\n        /* \"#utility.yul\":8275:8277   */\n      0x40\n        /* \"#utility.yul\":8268:8290   */\n      mstore\n        /* \"#utility.yul\":8058:8296   */\n      pop\n        /* \"#utility.yul\":8015:8296   */\n      pop\n      pop\n      jump\t// out\n        /* \"#utility.yul\":8302:8431   */\n    tag_287:\n        /* \"#utility.yul\":8336:8342   */\n      0x00\n        /* \"#utility.yul\":8363:8383   */\n      tag_418\n      tag_259\n      jump\t// in\n    tag_418:\n        /* \"#utility.yul\":8353:8383   */\n      swap1\n      pop\n        /* \"#utility.yul\":8392:8425   */\n      tag_419\n        /* \"#utility.yul\":8420:8424   */\n      dup3\n        /* \"#utility.yul\":8412:8418   */\n      dup3\n        /* \"#utility.yul\":8392:8425   */\n      tag_286\n      jump\t// in\n    tag_419:\n        /* \"#utility.yul\":8302:8431   */\n      swap2\n      swap1\n      pop\n      jump\t// out\n        /* \"#utility.yul\":8437:8744   */\n    tag_288:\n        /* \"#utility.yul\":8498:8502   */\n      0x00\n        /* \"#utility.yul\":8588:8606   */\n      0xffffffffffffffff\n        /* \"#utility.yul\":8580:8586   */\n      dup3\n        /* \"#utility.yul\":8577:8607   */\n      gt\n        /* \"#utility.yul\":8574:8630   */\n      iszero\n      tag_421\n      jumpi\n        /* \"#utility.yul\":8610:8628   */\n      tag_422\n      tag_285\n      jump\t// in\n    tag_422:\n        /* \"#utility.yul\":8574:8630   */\n    tag_421:\n        /* \"#utility.yul\":8648:8677   */\n      tag_423\n        /* \"#utility.yul\":8670:8676   */\n      dup3\n        /* \"#utility.yul\":8648:8677   */\n      tag_274\n      jump\t// in\n    tag_423:\n        /* \"#utility.yul\":8640:8677   */\n      swap1\n      pop\n        /* \"#utility.yul\":8732:8736   */\n      0x20\n        /* \"#utility.yul\":8726:8730   */\n      dup2\n        /* \"#utility.yul\":8722:8737   */\n      add\n        /* \"#utility.yul\":8714:8737   */\n      swap1\n      pop\n        /* \"#utility.yul\":8437:8744   */\n      swap2\n      swap1\n      pop\n      jump\t// out\n        /* \"#utility.yul\":8750:8898   */\n    tag_289:\n        /* \"#utility.yul\":8848:8854   */\n      dup3\n        /* \"#utility.yul\":8843:8846   */\n      dup2\n        /* \"#utility.yul\":8838:8841   */\n      dup4\n        /* \"#utility.yul\":8825:8855   */\n      calldatacopy\n        /* \"#utility.yul\":8889:8890   */\n      0x00\n        /* \"#utility.yul\":8880:8886   */\n      dup4\n        /* \"#utility.yul\":8875:8878   */\n      dup4\n        /* \"#utility.yul\":8871:8887   */\n      add\n        /* \"#utility.yul\":8864:8891   */\n      mstore\n        /* \"#utility.yul\":8750:8898   */\n      pop\n      pop\n      pop\n      jump\t// out\n        /* \"#utility.yul\":8904:9327   */\n    tag_290:\n        /* \"#utility.yul\":8981:8986   */\n      0x00\n        /* \"#utility.yul\":9006:9071   */\n      tag_426\n        /* \"#utility.yul\":9022:9070   */\n      tag_427\n        /* \"#utility.yul\":9063:9069   */\n      dup5\n        /* \"#utility.yul\":9022:9070   */\n      tag_288\n      jump\t// in\n    tag_427:\n        /* \"#utility.yul\":9006:9071   */\n      tag_287\n      jump\t// in\n    tag_426:\n        /* \"#utility.yul\":8997:9071   */\n      swap1\n      pop\n        /* \"#utility.yul\":9094:9100   */\n      dup3\n        /* \"#utility.yul\":9087:9092   */\n      dup2\n        /* \"#utility.yul\":9080:9101   */\n      mstore\n        /* \"#utility.yul\":9132:9136   */\n      0x20\n        /* \"#utility.yul\":9125:9130   */\n      dup2\n        /* \"#utility.yul\":9121:9137   */\n      add\n        /* \"#utility.yul\":9170:9173   */\n      dup5\n        /* \"#utility.yul\":9161:9167   */\n      dup5\n        /* \"#utility.yul\":9156:9159   */\n      dup5\n        /* \"#utility.yul\":9152:9168   */\n      add\n        /* \"#utility.yul\":9149:9174   */\n      gt\n        /* \"#utility.yul\":9146:9258   */\n      iszero\n      tag_428\n      jumpi\n        /* \"#utility.yul\":9177:9256   */\n      tag_429\n      tag_284\n      jump\t// in\n    tag_429:\n        /* \"#utility.yul\":9146:9258   */\n    tag_428:\n        /* \"#utility.yul\":9267:9321   */\n      tag_430\n        /* \"#utility.yul\":9314:9320   */\n      dup5\n        /* \"#utility.yul\":9309:9312   */\n      dup3\n        /* \"#utility.yul\":9304:9307   */\n      dup6\n        /* \"#utility.yul\":9267:9321   */\n      tag_289\n      jump\t// in\n    tag_430:\n        /* \"#utility.yul\":8987:9327   */\n      pop\n        /* \"#utility.yul\":8904:9327   */\n      swap4\n      swap3\n      pop\n      pop\n      pop\n      jump\t// out\n        /* \"#utility.yul\":9346:9684   */\n    tag_291:\n        /* \"#utility.yul\":9401:9406   */\n      0x00\n        /* \"#utility.yul\":9450:9453   */\n      dup3\n        /* \"#utility.yul\":9443:9447   */\n      0x1f\n        /* \"#utility.yul\":9435:9441   */\n      dup4\n        /* \"#utility.yul\":9431:9448   */\n      add\n        /* \"#utility.yul\":9427:9454   */\n      slt\n        /* \"#utility.yul\":9417:9539   */\n      tag_432\n      jumpi\n        /* \"#utility.yul\":9458:9537   */\n      tag_433\n      tag_283\n      jump\t// in\n    tag_433:\n        /* \"#utility.yul\":9417:9539   */\n    tag_432:\n        /* \"#utility.yul\":9575:9581   */\n      dup2\n        /* \"#utility.yul\":9562:9582   */\n      calldataload\n        /* \"#utility.yul\":9600:9678   */\n      tag_434\n        /* \"#utility.yul\":9674:9677   */\n      dup5\n        /* \"#utility.yul\":9666:9672   */\n      dup3\n        /* \"#utility.yul\":9659:9663   */\n      0x20\n        /* \"#utility.yul\":9651:9657   */\n      dup7\n        /* \"#utility.yul\":9647:9664   */\n      add\n        /* \"#utility.yul\":9600:9678   */\n      tag_290\n      jump\t// in\n    tag_434:\n        /* \"#utility.yul\":9591:9678   */\n      swap2\n      pop\n        /* \"#utility.yul\":9407:9684   */\n      pop\n        /* \"#utility.yul\":9346:9684   */\n      swap3\n      swap2\n      pop\n      pop\n      jump\t// out\n        /* \"#utility.yul\":9690:10487   */\n    tag_91:\n        /* \"#utility.yul\":9776:9782   */\n      0x00\n        /* \"#utility.yul\":9784:9790   */\n      dup1\n        /* \"#utility.yul\":9792:9798   */\n      0x00\n        /* \"#utility.yul\":9841:9843   */\n      0x60\n        /* \"#utility.yul\":9829:9838   */\n      dup5\n        /* \"#utility.yul\":9820:9827   */\n      dup7\n        /* \"#utility.yul\":9816:9839   */\n      sub\n        /* \"#utility.yul\":9812:9844   */\n      slt\n        /* \"#utility.yul\":9809:9928   */\n      iszero\n      tag_436\n      jumpi\n        /* \"#utility.yul\":9847:9926   */\n      tag_437\n      tag_260\n      jump\t// in\n    tag_437:\n        /* \"#utility.yul\":9809:9928   */\n    tag_436:\n        /* \"#utility.yul\":9967:9968   */\n      0x00\n        /* \"#utility.yul\":9992:10045   */\n      tag_438\n        /* \"#utility.yul\":10037:10044   */\n      dup7\n        /* \"#utility.yul\":10028:10034   */\n      dup3\n        /* \"#utility.yul\":10017:10026   */\n      dup8\n        /* \"#utility.yul\":10013:10035   */\n      add\n        /* \"#utility.yul\":9992:10045   */\n      tag_268\n      jump\t// in\n    tag_438:\n        /* \"#utility.yul\":9982:10045   */\n      swap4\n      pop\n        /* \"#utility.yul\":9938:10055   */\n      pop\n        /* \"#utility.yul\":10094:10096   */\n      0x20\n        /* \"#utility.yul\":10120:10173   */\n      tag_439\n        /* \"#utility.yul\":10165:10172   */\n      dup7\n        /* \"#utility.yul\":10156:10162   */\n      dup3\n        /* \"#utility.yul\":10145:10154   */\n      dup8\n        /* \"#utility.yul\":10141:10163   */\n      add\n        /* \"#utility.yul\":10120:10173   */\n      tag_263\n      jump\t// in\n    tag_439:\n        /* \"#utility.yul\":10110:10173   */\n      swap3\n      pop\n        /* \"#utility.yul\":10065:10183   */\n      pop\n        /* \"#utility.yul\":10250:10252   */\n      0x40\n        /* \"#utility.yul\":10239:10248   */\n      dup5\n        /* \"#utility.yul\":10235:10253   */\n      add\n        /* \"#utility.yul\":10222:10254   */\n      calldataload\n        /* \"#utility.yul\":10281:10299   */\n      0xffffffffffffffff\n        /* \"#utility.yul\":10273:10279   */\n      dup2\n        /* \"#utility.yul\":10270:10300   */\n      gt\n        /* \"#utility.yul\":10267:10384   */\n      iszero\n      tag_440\n      jumpi\n        /* \"#utility.yul\":10303:10382   */\n      tag_441\n      tag_261\n      jump\t// in\n    tag_441:\n        /* \"#utility.yul\":10267:10384   */\n    tag_440:\n        /* \"#utility.yul\":10408:10470   */\n      tag_442\n        /* \"#utility.yul\":10462:10469   */\n      dup7\n        /* \"#utility.yul\":10453:10459   */\n      dup3\n        /* \"#utility.yul\":10442:10451   */\n      dup8\n        /* \"#utility.yul\":10438:10460   */\n      add\n        /* \"#utility.yul\":10408:10470   */\n      tag_291\n      jump\t// in\n    tag_442:\n        /* \"#utility.yul\":10398:10470   */\n      swap2\n      pop\n        /* \"#utility.yul\":10193:10480   */\n      pop\n        /* \"#utility.yul\":9690:10487   */\n      swap3\n      pop\n      swap3\n      pop\n      swap3\n      jump\t// out\n        /* \"#utility.yul\":10493:10662   */\n    tag_292:\n        /* \"#utility.yul\":10577:10588   */\n      0x00\n        /* \"#utility.yul\":10611:10617   */\n      dup3\n        /* \"#utility.yul\":10606:10609   */\n      dup3\n        /* \"#utility.yul\":10599:10618   */\n      mstore\n        /* \"#utility.yul\":10651:10655   */\n      0x20\n        /* \"#utility.yul\":10646:10649   */\n      dup3\n        /* \"#utility.yul\":10642:10656   */\n      add\n        /* \"#utility.yul\":10627:10656   */\n      swap1\n      pop\n        /* \"#utility.yul\":10493:10662   */\n      swap3\n      swap2\n      pop\n      pop\n      jump\t// out\n        /* \"#utility.yul\":10668:10830   */\n    tag_293:\n        /* \"#utility.yul\":10808:10822   */\n      0x4e6f7420616e206f776e65720000000000000000000000000000000000000000\n        /* \"#utility.yul\":10804:10805   */\n      0x00\n        /* \"#utility.yul\":10796:10802   */\n      dup3\n        /* \"#utility.yul\":10792:10806   */\n      add\n        /* \"#utility.yul\":10785:10823   */\n      mstore\n        /* \"#utility.yul\":10668:10830   */\n      pop\n      jump\t// out\n        /* \"#utility.yul\":10836:11202   */\n    tag_294:\n        /* \"#utility.yul\":10978:10981   */\n      0x00\n        /* \"#utility.yul\":10999:11066   */\n      tag_446\n        /* \"#utility.yul\":11063:11065   */\n      0x0c\n        /* \"#utility.yul\":11058:11061   */\n      dup4\n        /* \"#utility.yul\":10999:11066   */\n      tag_292\n      jump\t// in\n    tag_446:\n        /* \"#utility.yul\":10992:11066   */\n      swap2\n      pop\n        /* \"#utility.yul\":11075:11168   */\n      tag_447\n        /* \"#utility.yul\":11164:11167   */\n      dup3\n        /* \"#utility.yul\":11075:11168   */\n      tag_293\n      jump\t// in\n    tag_447:\n        /* \"#utility.yul\":11193:11195   */\n      0x20\n        /* \"#utility.yul\":11188:11191   */\n      dup3\n        /* \"#utility.yul\":11184:11196   */\n      add\n        /* \"#utility.yul\":11177:11196   */\n      swap1\n      pop\n        /* \"#utility.yul\":10836:11202   */\n      swap2\n      swap1\n      pop\n      jump\t// out\n        /* \"#utility.yul\":11208:11627   */\n    tag_110:\n        /* \"#utility.yul\":11374:11378   */\n      0x00\n        /* \"#utility.yul\":11412:11414   */\n      0x20\n        /* \"#utility.yul\":11401:11410   */\n      dup3\n        /* \"#utility.yul\":11397:11415   */\n      add\n        /* \"#utility.yul\":11389:11415   */\n      swap1\n      pop\n        /* \"#utility.yul\":11461:11470   */\n      dup2\n        /* \"#utility.yul\":11455:11459   */\n      dup2\n        /* \"#utility.yul\":11451:11471   */\n      sub\n        /* \"#utility.yul\":11447:11448   */\n      0x00\n        /* \"#utility.yul\":11436:11445   */\n      dup4\n        /* \"#utility.yul\":11432:11449   */\n      add\n        /* \"#utility.yul\":11425:11472   */\n      mstore\n        /* \"#utility.yul\":11489:11620   */\n      tag_449\n        /* \"#utility.yul\":11615:11619   */\n      dup2\n        /* \"#utility.yul\":11489:11620   */\n      tag_294\n      jump\t// in\n    tag_449:\n        /* \"#utility.yul\":11481:11620   */\n      swap1\n      pop\n        /* \"#utility.yul\":11208:11627   */\n      swap2\n      swap1\n      pop\n      jump\t// out\n        /* \"#utility.yul\":11633:11809   */\n    tag_295:\n        /* \"#utility.yul\":11773:11801   */\n      0x5472616e73616374696f6e20646f6573206e6f74206578697374000000000000\n        /* \"#utility.yul\":11769:11770   */\n      0x00\n        /* \"#utility.yul\":11761:11767   */\n      dup3\n        /* \"#utility.yul\":11757:11771   */\n      add\n        /* \"#utility.yul\":11750:11802   */\n      mstore\n        /* \"#utility.yul\":11633:11809   */\n      pop\n      jump\t// out\n        /* \"#utility.yul\":11815:12181   */\n    tag_296:\n        /* \"#utility.yul\":11957:11960   */\n      0x00\n        /* \"#utility.yul\":11978:12045   */\n      tag_452\n        /* \"#utility.yul\":12042:12044   */\n      0x1a\n        /* \"#utility.yul\":12037:12040   */\n      dup4\n        /* \"#utility.yul\":11978:12045   */\n      tag_292\n      jump\t// in\n    tag_452:\n        /* \"#utility.yul\":11971:12045   */\n      swap2\n      pop\n        /* \"#utility.yul\":12054:12147   */\n      tag_453\n        /* \"#utility.yul\":12143:12146   */\n      dup3\n        /* \"#utility.yul\":12054:12147   */\n      tag_295\n      jump\t// in\n    tag_453:\n        /* \"#utility.yul\":12172:12174   */\n      0x20\n        /* \"#utility.yul\":12167:12170   */\n      dup3\n        /* \"#utility.yul\":12163:12175   */\n      add\n        /* \"#utility.yul\":12156:12175   */\n      swap1\n      pop\n        /* \"#utility.yul\":11815:12181   */\n      swap2\n      swap1\n      pop\n      jump\t// out\n        /* \"#utility.yul\":12187:12606   */\n    tag_114:\n        /* \"#utility.yul\":12353:12357   */\n      0x00\n        /* \"#utility.yul\":12391:12393   */\n      0x20\n        /* \"#utility.yul\":12380:12389   */\n      dup3\n        /* \"#utility.yul\":12376:12394   */\n      add\n        /* \"#utility.yul\":12368:12394   */\n      swap1\n      pop\n        /* \"#utility.yul\":12440:12449   */\n      dup2\n        /* \"#utility.yul\":12434:12438   */\n      dup2\n        /* \"#utility.yul\":12430:12450   */\n      sub\n        /* \"#utility.yul\":12426:12427   */\n      0x00\n        /* \"#utility.yul\":12415:12424   */\n      dup4\n        /* \"#utility.yul\":12411:12428   */\n      add\n        /* \"#utility.yul\":12404:12451   */\n      mstore\n        /* \"#utility.yul\":12468:12599   */\n      tag_455\n        /* \"#utility.yul\":12594:12598   */\n      dup2\n        /* \"#utility.yul\":12468:12599   */\n      tag_296\n      jump\t// in\n    tag_455:\n        /* \"#utility.yul\":12460:12599   */\n      swap1\n      pop\n        /* \"#utility.yul\":12187:12606   */\n      swap2\n      swap1\n      pop\n      jump\t// out\n        /* \"#utility.yul\":12612:12792   */\n    tag_118:\n        /* \"#utility.yul\":12660:12737   */\n      0x4e487b7100000000000000000000000000000000000000000000000000000000\n        /* \"#utility.yul\":12657:12658   */\n      0x00\n        /* \"#utility.yul\":12650:12738   */\n      mstore\n        /* \"#utility.yul\":12757:12761   */\n      0x32\n        /* \"#utility.yul\":12754:12755   */\n      0x04\n        /* \"#utility.yul\":12747:12762   */\n      mstore\n        /* \"#utility.yul\":12781:12785   */\n      0x24\n        /* \"#utility.yul\":12778:12779   */\n      0x00\n        /* \"#utility.yul\":12771:12786   */\n      revert\n        /* \"#utility.yul\":12798:12976   */\n    tag_297:\n        /* \"#utility.yul\":12938:12968   */\n      0x5472616e73616374696f6e20616c726561647920657865637574656400000000\n        /* \"#utility.yul\":12934:12935   */\n      0x00\n        /* \"#utility.yul\":12926:12932   */\n      dup3\n        /* \"#utility.yul\":12922:12936   */\n      add\n        /* \"#utility.yul\":12915:12969   */\n      mstore\n        /* \"#utility.yul\":12798:12976   */\n      pop\n      jump\t// out\n        /* \"#utility.yul\":12982:13348   */\n    tag_298:\n        /* \"#utility.yul\":13124:13127   */\n      0x00\n        /* \"#utility.yul\":13145:13212   */\n      tag_459\n        /* \"#utility.yul\":13209:13211   */\n      0x1c\n        /* \"#utility.yul\":13204:13207   */\n      dup4\n        /* \"#utility.yul\":13145:13212   */\n      tag_292\n      jump\t// in\n    tag_459:\n        /* \"#utility.yul\":13138:13212   */\n      swap2\n      pop\n        /* \"#utility.yul\":13221:13314   */\n      tag_460\n        /* \"#utility.yul\":13310:13313   */\n      dup3\n        /* \"#utility.yul\":13221:13314   */\n      tag_297\n      jump\t// in\n    tag_460:\n        /* \"#utility.yul\":13339:13341   */\n      0x20\n        /* \"#utility.yul\":13334:13337   */\n      dup3\n        /* \"#utility.yul\":13330:13342   */\n      add\n        /* \"#utility.yul\":13323:13342   */\n      swap1\n      pop\n        /* \"#utility.yul\":12982:13348   */\n      swap2\n      swap1\n      pop\n      jump\t// out\n        /* \"#utility.yul\":13354:13773   */\n    tag_122:\n        /* \"#utility.yul\":13520:13524   */\n      0x00\n        /* \"#utility.yul\":13558:13560   */\n      0x20\n        /* \"#utility.yul\":13547:13556   */\n      dup3\n        /* \"#utility.yul\":13543:13561   */\n      add\n        /* \"#utility.yul\":13535:13561   */\n      swap1\n      pop\n        /* \"#utility.yul\":13607:13616   */\n      dup2\n        /* \"#utility.yul\":13601:13605   */\n      dup2\n        /* \"#utility.yul\":13597:13617   */\n      sub\n        /* \"#utility.yul\":13593:13594   */\n      0x00\n        /* \"#utility.yul\":13582:13591   */\n      dup4\n        /* \"#utility.yul\":13578:13595   */\n      add\n        /* \"#utility.yul\":13571:13618   */\n      mstore\n        /* \"#utility.yul\":13635:13766   */\n      tag_462\n        /* \"#utility.yul\":13761:13765   */\n      dup2\n        /* \"#utility.yul\":13635:13766   */\n      tag_298\n      jump\t// in\n    tag_462:\n        /* \"#utility.yul\":13627:13766   */\n      swap1\n      pop\n        /* \"#utility.yul\":13354:13773   */\n      swap2\n      swap1\n      pop\n      jump\t// out\n        /* \"#utility.yul\":13779:13958   */\n    tag_299:\n        /* \"#utility.yul\":13919:13950   */\n      0x5472616e73616374696f6e20686173206265656e2063616e63656c6564000000\n        /* \"#utility.yul\":13915:13916   */\n      0x00\n        /* \"#utility.yul\":13907:13913   */\n      dup3\n        /* \"#utility.yul\":13903:13917   */\n      add\n        /* \"#utility.yul\":13896:13951   */\n      mstore\n        /* \"#utility.yul\":13779:13958   */\n      pop\n      jump\t// out\n        /* \"#utility.yul\":13964:14330   */\n    tag_300:\n        /* \"#utility.yul\":14106:14109   */\n      0x00\n        /* \"#utility.yul\":14127:14194   */\n      tag_465\n        /* \"#utility.yul\":14191:14193   */\n      0x1d\n        /* \"#utility.yul\":14186:14189   */\n      dup4\n        /* \"#utility.yul\":14127:14194   */\n      tag_292\n      jump\t// in\n    tag_465:\n        /* \"#utility.yul\":14120:14194   */\n      swap2\n      pop\n        /* \"#utility.yul\":14203:14296   */\n      tag_466\n        /* \"#utility.yul\":14292:14295   */\n      dup3\n        /* \"#utility.yul\":14203:14296   */\n      tag_299\n      jump\t// in\n    tag_466:\n        /* \"#utility.yul\":14321:14323   */\n      0x20\n        /* \"#utility.yul\":14316:14319   */\n      dup3\n        /* \"#utility.yul\":14312:14324   */\n      add\n        /* \"#utility.yul\":14305:14324   */\n      swap1\n      pop\n        /* \"#utility.yul\":13964:14330   */\n      swap2\n      swap1\n      pop\n      jump\t// out\n        /* \"#utility.yul\":14336:14755   */\n    tag_129:\n        /* \"#utility.yul\":14502:14506   */\n      0x00\n        /* \"#utility.yul\":14540:14542   */\n      0x20\n        /* \"#utility.yul\":14529:14538   */\n      dup3\n        /* \"#utility.yul\":14525:14543   */\n      add\n        /* \"#utility.yul\":14517:14543   */\n      swap1\n      pop\n        /* \"#utility.yul\":14589:14598   */\n      dup2\n        /* \"#utility.yul\":14583:14587   */\n      dup2\n        /* \"#utility.yul\":14579:14599   */\n      sub\n        /* \"#utility.yul\":14575:14576   */\n      0x00\n        /* \"#utility.yul\":14564:14573   */\n      dup4\n        /* \"#utility.yul\":14560:14577   */\n      add\n        /* \"#utility.yul\":14553:14600   */\n      mstore\n        /* \"#utility.yul\":14617:14748   */\n      tag_468\n        /* \"#utility.yul\":14743:14747   */\n      dup2\n        /* \"#utility.yul\":14617:14748   */\n      tag_300\n      jump\t// in\n    tag_468:\n        /* \"#utility.yul\":14609:14748   */\n      swap1\n      pop\n        /* \"#utility.yul\":14336:14755   */\n      swap2\n      swap1\n      pop\n      jump\t// out\n        /* \"#utility.yul\":14761:14936   */\n    tag_301:\n        /* \"#utility.yul\":14901:14928   */\n      0x5472616e73616374696f6e206e6f7420636f6e6669726d656400000000000000\n        /* \"#utility.yul\":14897:14898   */\n      0x00\n        /* \"#utility.yul\":14889:14895   */\n      dup3\n        /* \"#utility.yul\":14885:14899   */\n      add\n        /* \"#utility.yul\":14878:14929   */\n      mstore\n        /* \"#utility.yul\":14761:14936   */\n      pop\n      jump\t// out\n        /* \"#utility.yul\":14942:15308   */\n    tag_302:\n        /* \"#utility.yul\":15084:15087   */\n      0x00\n        /* \"#utility.yul\":15105:15172   */\n      tag_471\n        /* \"#utility.yul\":15169:15171   */\n      0x19\n        /* \"#utility.yul\":15164:15167   */\n      dup4\n        /* \"#utility.yul\":15105:15172   */\n      tag_292\n      jump\t// in\n    tag_471:\n        /* \"#utility.yul\":15098:15172   */\n      swap2\n      pop\n        /* \"#utility.yul\":15181:15274   */\n      tag_472\n        /* \"#utility.yul\":15270:15273   */\n      dup3\n        /* \"#utility.yul\":15181:15274   */\n      tag_301\n      jump\t// in\n    tag_472:\n        /* \"#utility.yul\":15299:15301   */\n      0x20\n        /* \"#utility.yul\":15294:15297   */\n      dup3\n        /* \"#utility.yul\":15290:15302   */\n      add\n        /* \"#utility.yul\":15283:15302   */\n      swap1\n      pop\n        /* \"#utility.yul\":14942:15308   */\n      swap2\n      swap1\n      pop\n      jump\t// out\n        /* \"#utility.yul\":15314:15733   */\n    tag_133:\n        /* \"#utility.yul\":15480:15484   */\n      0x00\n        /* \"#utility.yul\":15518:15520   */\n      0x20\n        /* \"#utility.yul\":15507:15516   */\n      dup3\n        /* \"#utility.yul\":15503:15521   */\n      add\n        /* \"#utility.yul\":15495:15521   */\n      swap1\n      pop\n        /* \"#utility.yul\":15567:15576   */\n      dup2\n        /* \"#utility.yul\":15561:15565   */\n      dup2\n        /* \"#utility.yul\":15557:15577   */\n      sub\n        /* \"#utility.yul\":15553:15554   */\n      0x00\n        /* \"#utility.yul\":15542:15551   */\n      dup4\n        /* \"#utility.yul\":15538:15555   */\n      add\n        /* \"#utility.yul\":15531:15578   */\n      mstore\n        /* \"#utility.yul\":15595:15726   */\n      tag_474\n        /* \"#utility.yul\":15721:15725   */\n      dup2\n        /* \"#utility.yul\":15595:15726   */\n      tag_302\n      jump\t// in\n    tag_474:\n        /* \"#utility.yul\":15587:15726   */\n      swap1\n      pop\n        /* \"#utility.yul\":15314:15733   */\n      swap2\n      swap1\n      pop\n      jump\t// out\n        /* \"#utility.yul\":15739:15919   */\n    tag_303:\n        /* \"#utility.yul\":15787:15864   */\n      0x4e487b7100000000000000000000000000000000000000000000000000000000\n        /* \"#utility.yul\":15784:15785   */\n      0x00\n        /* \"#utility.yul\":15777:15865   */\n      mstore\n        /* \"#utility.yul\":15884:15888   */\n      0x11\n        /* \"#utility.yul\":15881:15882   */\n      0x04\n        /* \"#utility.yul\":15874:15889   */\n      mstore\n        /* \"#utility.yul\":15908:15912   */\n      0x24\n        /* \"#utility.yul\":15905:15906   */\n      0x00\n        /* \"#utility.yul\":15898:15913   */\n      revert\n        /* \"#utility.yul\":15925:16119   */\n    tag_138:\n        /* \"#utility.yul\":15965:15969   */\n      0x00\n        /* \"#utility.yul\":15985:16005   */\n      tag_477\n        /* \"#utility.yul\":16003:16004   */\n      dup3\n        /* \"#utility.yul\":15985:16005   */\n      tag_257\n      jump\t// in\n    tag_477:\n        /* \"#utility.yul\":15980:16005   */\n      swap2\n      pop\n        /* \"#utility.yul\":16019:16039   */\n      tag_478\n        /* \"#utility.yul\":16037:16038   */\n      dup4\n        /* \"#utility.yul\":16019:16039   */\n      tag_257\n      jump\t// in\n    tag_478:\n        /* \"#utility.yul\":16014:16039   */\n      swap3\n      pop\n        /* \"#utility.yul\":16063:16064   */\n      dup3\n        /* \"#utility.yul\":16060:16061   */\n      dup3\n        /* \"#utility.yul\":16056:16065   */\n      sub\n        /* \"#utility.yul\":16048:16065   */\n      swap1\n      pop\n        /* \"#utility.yul\":16087:16088   */\n      dup2\n        /* \"#utility.yul\":16081:16085   */\n      dup2\n        /* \"#utility.yul\":16078:16089   */\n      gt\n        /* \"#utility.yul\":16075:16112   */\n      iszero\n      tag_479\n      jumpi\n        /* \"#utility.yul\":16092:16110   */\n      tag_480\n      tag_303\n      jump\t// in\n    tag_480:\n        /* \"#utility.yul\":16075:16112   */\n    tag_479:\n        /* \"#utility.yul\":15925:16119   */\n      swap3\n      swap2\n      pop\n      pop\n      jump\t// out\n        /* \"#utility.yul\":16125:16305   */\n    tag_304:\n        /* \"#utility.yul\":16173:16250   */\n      0x4e487b7100000000000000000000000000000000000000000000000000000000\n        /* \"#utility.yul\":16170:16171   */\n      0x00\n        /* \"#utility.yul\":16163:16251   */\n      mstore\n        /* \"#utility.yul\":16270:16274   */\n      0x22\n        /* \"#utility.yul\":16267:16268   */\n      0x04\n        /* \"#utility.yul\":16260:16275   */\n      mstore\n        /* \"#utility.yul\":16294:16298   */\n      0x24\n        /* \"#utility.yul\":16291:16292   */\n      0x00\n        /* \"#utility.yul\":16284:16299   */\n      revert\n        /* \"#utility.yul\":16311:16631   */\n    tag_167:\n        /* \"#utility.yul\":16355:16361   */\n      0x00\n        /* \"#utility.yul\":16392:16393   */\n      0x02\n        /* \"#utility.yul\":16386:16390   */\n      dup3\n        /* \"#utility.yul\":16382:16394   */\n      div\n        /* \"#utility.yul\":16372:16394   */\n      swap1\n      pop\n        /* \"#utility.yul\":16439:16440   */\n      0x01\n        /* \"#utility.yul\":16433:16437   */\n      dup3\n        /* \"#utility.yul\":16429:16441   */\n      and\n        /* \"#utility.yul\":16460:16478   */\n      dup1\n        /* \"#utility.yul\":16450:16531   */\n      tag_483\n      jumpi\n        /* \"#utility.yul\":16516:16520   */\n      0x7f\n        /* \"#utility.yul\":16508:16514   */\n      dup3\n        /* \"#utility.yul\":16504:16521   */\n      and\n        /* \"#utility.yul\":16494:16521   */\n      swap2\n      pop\n        /* \"#utility.yul\":16450:16531   */\n    tag_483:\n        /* \"#utility.yul\":16578:16580   */\n      0x20\n        /* \"#utility.yul\":16570:16576   */\n      dup3\n        /* \"#utility.yul\":16567:16581   */\n      lt\n        /* \"#utility.yul\":16547:16565   */\n      dup2\n        /* \"#utility.yul\":16544:16582   */\n      sub\n        /* \"#utility.yul\":16541:16625   */\n      tag_484\n      jumpi\n        /* \"#utility.yul\":16597:16615   */\n      tag_485\n      tag_304\n      jump\t// in\n    tag_485:\n        /* \"#utility.yul\":16541:16625   */\n    tag_484:\n        /* \"#utility.yul\":16362:16631   */\n      pop\n        /* \"#utility.yul\":16311:16631   */\n      swap2\n      swap1\n      pop\n      jump\t// out\n        /* \"#utility.yul\":16637:16816   */\n    tag_305:\n        /* \"#utility.yul\":16777:16808   */\n      0x5472616e73616374696f6e20616c726561647920636f6e6669726d6564000000\n        /* \"#utility.yul\":16773:16774   */\n      0x00\n        /* \"#utility.yul\":16765:16771   */\n      dup3\n        /* \"#utility.yul\":16761:16775   */\n      add\n        /* \"#utility.yul\":16754:16809   */\n      mstore\n        /* \"#utility.yul\":16637:16816   */\n      pop\n      jump\t// out\n        /* \"#utility.yul\":16822:17188   */\n    tag_306:\n        /* \"#utility.yul\":16964:16967   */\n      0x00\n        /* \"#utility.yul\":16985:17052   */\n      tag_488\n        /* \"#utility.yul\":17049:17051   */\n      0x1d\n        /* \"#utility.yul\":17044:17047   */\n      dup4\n        /* \"#utility.yul\":16985:17052   */\n      tag_292\n      jump\t// in\n    tag_488:\n        /* \"#utility.yul\":16978:17052   */\n      swap2\n      pop\n        /* \"#utility.yul\":17061:17154   */\n      tag_489\n        /* \"#utility.yul\":17150:17153   */\n      dup3\n        /* \"#utility.yul\":17061:17154   */\n      tag_305\n      jump\t// in\n    tag_489:\n        /* \"#utility.yul\":17179:17181   */\n      0x20\n        /* \"#utility.yul\":17174:17177   */\n      dup3\n        /* \"#utility.yul\":17170:17182   */\n      add\n        /* \"#utility.yul\":17163:17182   */\n      swap1\n      pop\n        /* \"#utility.yul\":16822:17188   */\n      swap2\n      swap1\n      pop\n      jump\t// out\n        /* \"#utility.yul\":17194:17613   */\n    tag_204:\n        /* \"#utility.yul\":17360:17364   */\n      0x00\n        /* \"#utility.yul\":17398:17400   */\n      0x20\n        /* \"#utility.yul\":17387:17396   */\n      dup3\n        /* \"#utility.yul\":17383:17401   */\n      add\n        /* \"#utility.yul\":17375:17401   */\n      swap1\n      pop\n        /* \"#utility.yul\":17447:17456   */\n      dup2\n        /* \"#utility.yul\":17441:17445   */\n      dup2\n        /* \"#utility.yul\":17437:17457   */\n      sub\n        /* \"#utility.yul\":17433:17434   */\n      0x00\n        /* \"#utility.yul\":17422:17431   */\n      dup4\n        /* \"#utility.yul\":17418:17435   */\n      add\n        /* \"#utility.yul\":17411:17458   */\n      mstore\n        /* \"#utility.yul\":17475:17606   */\n      tag_491\n        /* \"#utility.yul\":17601:17605   */\n      dup2\n        /* \"#utility.yul\":17475:17606   */\n      tag_306\n      jump\t// in\n    tag_491:\n        /* \"#utility.yul\":17467:17606   */\n      swap1\n      pop\n        /* \"#utility.yul\":17194:17613   */\n      swap2\n      swap1\n      pop\n      jump\t// out\n        /* \"#utility.yul\":17619:17810   */\n    tag_210:\n        /* \"#utility.yul\":17659:17662   */\n      0x00\n        /* \"#utility.yul\":17678:17698   */\n      tag_493\n        /* \"#utility.yul\":17696:17697   */\n      dup3\n        /* \"#utility.yul\":17678:17698   */\n      tag_257\n      jump\t// in\n    tag_493:\n        /* \"#utility.yul\":17673:17698   */\n      swap2\n      pop\n        /* \"#utility.yul\":17712:17732   */\n      tag_494\n        /* \"#utility.yul\":17730:17731   */\n      dup4\n        /* \"#utility.yul\":17712:17732   */\n      tag_257\n      jump\t// in\n    tag_494:\n        /* \"#utility.yul\":17707:17732   */\n      swap3\n      pop\n        /* \"#utility.yul\":17755:17756   */\n      dup3\n        /* \"#utility.yul\":17752:17753   */\n      dup3\n        /* \"#utility.yul\":17748:17757   */\n      add\n        /* \"#utility.yul\":17741:17757   */\n      swap1\n      pop\n        /* \"#utility.yul\":17776:17779   */\n      dup1\n        /* \"#utility.yul\":17773:17774   */\n      dup3\n        /* \"#utility.yul\":17770:17780   */\n      gt\n        /* \"#utility.yul\":17767:17803   */\n      iszero\n      tag_495\n      jumpi\n        /* \"#utility.yul\":17783:17801   */\n      tag_496\n      tag_303\n      jump\t// in\n    tag_496:\n        /* \"#utility.yul\":17767:17803   */\n    tag_495:\n        /* \"#utility.yul\":17619:17810   */\n      swap3\n      swap2\n      pop\n      pop\n      jump\t// out\n        /* \"#utility.yul\":17816:17956   */\n    tag_307:\n        /* \"#utility.yul\":17864:17868   */\n      0x00\n        /* \"#utility.yul\":17887:17890   */\n      dup2\n        /* \"#utility.yul\":17879:17890   */\n      swap1\n      pop\n        /* \"#utility.yul\":17910:17913   */\n      dup2\n        /* \"#utility.yul\":17907:17908   */\n      0x00\n        /* \"#utility.yul\":17900:17914   */\n      mstore\n        /* \"#utility.yul\":17944:17948   */\n      0x20\n        /* \"#utility.yul\":17941:17942   */\n      0x00\n        /* \"#utility.yul\":17931:17949   */\n      keccak256\n        /* \"#utility.yul\":17923:17949   */\n      swap1\n      pop\n        /* \"#utility.yul\":17816:17956   */\n      swap2\n      swap1\n      pop\n      jump\t// out\n        /* \"#utility.yul\":17962:18055   */\n    tag_308:\n        /* \"#utility.yul\":17999:18005   */\n      0x00\n        /* \"#utility.yul\":18046:18048   */\n      0x20\n        /* \"#utility.yul\":18041:18043   */\n      0x1f\n        /* \"#utility.yul\":18034:18039   */\n      dup4\n        /* \"#utility.yul\":18030:18044   */\n      add\n        /* \"#utility.yul\":18026:18049   */\n      div\n        /* \"#utility.yul\":18016:18049   */\n      swap1\n      pop\n        /* \"#utility.yul\":17962:18055   */\n      swap2\n      swap1\n      pop\n      jump\t// out\n        /* \"#utility.yul\":18061:18168   */\n    tag_309:\n        /* \"#utility.yul\":18105:18113   */\n      0x00\n        /* \"#utility.yul\":18155:18160   */\n      dup3\n        /* \"#utility.yul\":18149:18153   */\n      dup3\n        /* \"#utility.yul\":18145:18161   */\n      shl\n        /* \"#utility.yul\":18124:18161   */\n      swap1\n      pop\n        /* \"#utility.yul\":18061:18168   */\n      swap3\n      swap2\n      pop\n      pop\n      jump\t// out\n        /* \"#utility.yul\":18174:18567   */\n    tag_310:\n        /* \"#utility.yul\":18243:18249   */\n      0x00\n        /* \"#utility.yul\":18293:18294   */\n      0x08\n        /* \"#utility.yul\":18281:18291   */\n      dup4\n        /* \"#utility.yul\":18277:18295   */\n      mul\n        /* \"#utility.yul\":18316:18413   */\n      tag_501\n        /* \"#utility.yul\":18346:18412   */\n      0xffffffffffffffffffffffffffffffffffffffffffffffffffffffffffffffff\n        /* \"#utility.yul\":18335:18344   */\n      dup3\n        /* \"#utility.yul\":18316:18413   */\n      tag_309\n      jump\t// in\n    tag_501:\n        /* \"#utility.yul\":18434:18473   */\n      tag_502\n        /* \"#utility.yul\":18464:18472   */\n      dup7\n        /* \"#utility.yul\":18453:18462   */\n      dup4\n        /* \"#utility.yul\":18434:18473   */\n      tag_309\n      jump\t// in\n    tag_502:\n        /* \"#utility.yul\":18422:18473   */\n      swap6\n      pop\n        /* \"#utility.yul\":18506:18510   */\n      dup1\n        /* \"#utility.yul\":18502:18511   */\n      not\n        /* \"#utility.yul\":18495:18500   */\n      dup5\n        /* \"#utility.yul\":18491:18512   */\n      and\n        /* \"#utility.yul\":18482:18512   */\n      swap4\n      pop\n        /* \"#utility.yul\":18555:18559   */\n      dup1\n        /* \"#utility.yul\":18545:18553   */\n      dup7\n        /* \"#utility.yul\":18541:18560   */\n      and\n        /* \"#utility.yul\":18534:18539   */\n      dup5\n        /* \"#utility.yul\":18531:18561   */\n      or\n        /* \"#utility.yul\":18521:18561   */\n      swap3\n      pop\n        /* \"#utility.yul\":18250:18567   */\n      pop\n      pop\n        /* \"#utility.yul\":18174:18567   */\n      swap4\n      swap3\n      pop\n      pop\n      pop\n      jump\t// out\n        /* \"#utility.yul\":18573:18633   */\n    tag_311:\n        /* \"#utility.yul\":18601:18604   */\n      0x00\n        /* \"#utility.yul\":18622:18627   */\n      dup2\n        /* \"#utility.yul\":18615:18627   */\n      swap1\n      pop\n        /* \"#utility.yul\":18573:18633   */\n      swap2\n      swap1\n      pop\n      jump\t// out\n        /* \"#utility.yul\":18639:18781   */\n    tag_312:\n        /* \"#utility.yul\":18689:18698   */\n      0x00\n        /* \"#utility.yul\":18722:18775   */\n      tag_505\n        /* \"#utility.yul\":18740:18774   */\n      tag_506\n        /* \"#utility.yul\":18749:18773   */\n      tag_507\n        /* \"#utility.yul\":18767:18772   */\n      dup5\n        /* \"#utility.yul\":18749:18773   */\n      tag_257\n      jump\t// in\n    tag_507:\n        /* \"#utility.yul\":18740:18774   */\n      tag_311\n      jump\t// in\n    tag_506:\n        /* \"#utility.yul\":18722:18775   */\n      tag_257\n      jump\t// in\n    tag_505:\n        /* \"#utility.yul\":18709:18775   */\n      swap1\n      pop\n        /* \"#utility.yul\":18639:18781   */\n      swap2\n      swap1\n      pop\n      jump\t// out\n        /* \"#utility.yul\":18787:18862   */\n    tag_313:\n        /* \"#utility.yul\":18830:18833   */\n      0x00\n        /* \"#utility.yul\":18851:18856   */\n      dup2\n        /* \"#utility.yul\":18844:18856   */\n      swap1\n      pop\n        /* \"#utility.yul\":18787:18862   */\n      swap2\n      swap1\n      pop\n      jump\t// out\n        /* \"#utility.yul\":18868:19137   */\n    tag_314:\n        /* \"#utility.yul\":18978:19017   */\n      tag_510\n        /* \"#utility.yul\":19009:19016   */\n      dup4\n        /* \"#utility.yul\":18978:19017   */\n      tag_312\n      jump\t// in\n    tag_510:\n        /* \"#utility.yul\":19039:19130   */\n      tag_511\n        /* \"#utility.yul\":19088:19129   */\n      tag_512\n        /* \"#utility.yul\":19112:19128   */\n      dup3\n        /* \"#utility.yul\":19088:19129   */\n      tag_313\n      jump\t// in\n    tag_512:\n        /* \"#utility.yul\":19080:19086   */\n      dup5\n        /* \"#utility.yul\":19073:19077   */\n      dup5\n        /* \"#utility.yul\":19067:19078   */\n      sload\n        /* \"#utility.yul\":19039:19130   */\n      tag_310\n      jump\t// in\n    tag_511:\n        /* \"#utility.yul\":19033:19037   */\n      dup3\n        /* \"#utility.yul\":19026:19131   */\n      sstore\n        /* \"#utility.yul\":18944:19137   */\n      pop\n        /* \"#utility.yul\":18868:19137   */\n      pop\n      pop\n      pop\n      jump\t// out\n        /* \"#utility.yul\":19143:19216   */\n    tag_315:\n        /* \"#utility.yul\":19188:19191   */\n      0x00\n        /* \"#utility.yul\":19143:19216   */\n      swap1\n      jump\t// out\n        /* \"#utility.yul\":19222:19411   */\n    tag_316:\n        /* \"#utility.yul\":19299:19331   */\n      tag_515\n      tag_315\n      jump\t// in\n    tag_515:\n        /* \"#utility.yul\":19340:19405   */\n      tag_516\n        /* \"#utility.yul\":19398:19404   */\n      dup2\n        /* \"#utility.yul\":19390:19396   */\n      dup5\n        /* \"#utility.yul\":19384:19388   */\n      dup5\n        /* \"#utility.yul\":19340:19405   */\n      tag_314\n      jump\t// in\n    tag_516:\n        /* \"#utility.yul\":19275:19411   */\n      pop\n        /* \"#utility.yul\":19222:19411   */\n      pop\n      pop\n      jump\t// out\n        /* \"#utility.yul\":19417:19603   */\n    tag_317:\n        /* \"#utility.yul\":19477:19597   */\n    tag_518:\n        /* \"#utility.yul\":19494:19497   */\n      dup2\n        /* \"#utility.yul\":19487:19492   */\n      dup2\n        /* \"#utility.yul\":19484:19498   */\n      lt\n        /* \"#utility.yul\":19477:19597   */\n      iszero\n      tag_520\n      jumpi\n        /* \"#utility.yul\":19548:19587   */\n      tag_521\n        /* \"#utility.yul\":19585:19586   */\n      0x00\n        /* \"#utility.yul\":19578:19583   */\n      dup3\n        /* \"#utility.yul\":19548:19587   */\n      tag_316\n      jump\t// in\n    tag_521:\n        /* \"#utility.yul\":19521:19522   */\n      0x01\n        /* \"#utility.yul\":19514:19519   */\n      dup2\n        /* \"#utility.yul\":19510:19523   */\n      add\n        /* \"#utility.yul\":19501:19523   */\n      swap1\n      pop\n        /* \"#utility.yul\":19477:19597   */\n      jump(tag_518)\n    tag_520:\n        /* \"#utility.yul\":19417:19603   */\n      pop\n      pop\n      jump\t// out\n        /* \"#utility.yul\":19609:20150   */\n    tag_318:\n        /* \"#utility.yul\":19709:19711   */\n      0x1f\n        /* \"#utility.yul\":19704:19707   */\n      dup3\n        /* \"#utility.yul\":19701:19712   */\n      gt\n        /* \"#utility.yul\":19698:20143   */\n      iszero\n      tag_523\n      jumpi\n        /* \"#utility.yul\":19743:19780   */\n      tag_524\n        /* \"#utility.yul\":19774:19779   */\n      dup2\n        /* \"#utility.yul\":19743:19780   */\n      tag_307\n      jump\t// in\n    tag_524:\n        /* \"#utility.yul\":19826:19855   */\n      tag_525\n        /* \"#utility.yul\":19844:19854   */\n      dup5\n        /* \"#utility.yul\":19826:19855   */\n      tag_308\n      jump\t// in\n    tag_525:\n        /* \"#utility.yul\":19816:19824   */\n      dup2\n        /* \"#utility.yul\":19812:19856   */\n      add\n        /* \"#utility.yul\":20009:20011   */\n      0x20\n        /* \"#utility.yul\":19997:20007   */\n      dup6\n        /* \"#utility.yul\":19994:20012   */\n      lt\n        /* \"#utility.yul\":19991:20040   */\n      iszero\n      tag_526\n      jumpi\n        /* \"#utility.yul\":20030:20038   */\n      dup2\n        /* \"#utility.yul\":20015:20038   */\n      swap1\n      pop\n        /* \"#utility.yul\":19991:20040   */\n    tag_526:\n        /* \"#utility.yul\":20053:20133   */\n      tag_527\n        /* \"#utility.yul\":20109:20131   */\n      tag_528\n        /* \"#utility.yul\":20127:20130   */\n      dup6\n        /* \"#utility.yul\":20109:20131   */\n      tag_308\n      jump\t// in\n    tag_528:\n        /* \"#utility.yul\":20099:20107   */\n      dup4\n        /* \"#utility.yul\":20095:20132   */\n      add\n        /* \"#utility.yul\":20082:20093   */\n      dup3\n        /* \"#utility.yul\":20053:20133   */\n      tag_317\n      jump\t// in\n    tag_527:\n        /* \"#utility.yul\":19713:20143   */\n      pop\n      pop\n        /* \"#utility.yul\":19698:20143   */\n    tag_523:\n        /* \"#utility.yul\":19609:20150   */\n      pop\n      pop\n      pop\n      jump\t// out\n        /* \"#utility.yul\":20156:20273   */\n    tag_319:\n        /* \"#utility.yul\":20210:20218   */\n      0x00\n        /* \"#utility.yul\":20260:20265   */\n      dup3\n        /* \"#utility.yul\":20254:20258   */\n      dup3\n        /* \"#utility.yul\":20250:20266   */\n      shr\n        /* \"#utility.yul\":20229:20266   */\n      swap1\n      pop\n        /* \"#utility.yul\":20156:20273   */\n      swap3\n      swap2\n      pop\n      pop\n      jump\t// out\n        /* \"#utility.yul\":20279:20448   */\n    tag_320:\n        /* \"#utility.yul\":20323:20329   */\n      0x00\n        /* \"#utility.yul\":20356:20407   */\n      tag_531\n        /* \"#utility.yul\":20404:20405   */\n      0x00\n        /* \"#utility.yul\":20400:20406   */\n      not\n        /* \"#utility.yul\":20392:20397   */\n      dup5\n        /* \"#utility.yul\":20389:20390   */\n      0x08\n        /* \"#utility.yul\":20385:20398   */\n      mul\n        /* \"#utility.yul\":20356:20407   */\n      tag_319\n      jump\t// in\n    tag_531:\n        /* \"#utility.yul\":20352:20408   */\n      not\n        /* \"#utility.yul\":20437:20441   */\n      dup1\n        /* \"#utility.yul\":20431:20435   */\n      dup4\n        /* \"#utility.yul\":20427:20442   */\n      and\n        /* \"#utility.yul\":20417:20442   */\n      swap2\n      pop\n        /* \"#utility.yul\":20330:20448   */\n      pop\n        /* \"#utility.yul\":20279:20448   */\n      swap3\n      swap2\n      pop\n      pop\n      jump\t// out\n        /* \"#utility.yul\":20453:20748   */\n    tag_321:\n        /* \"#utility.yul\":20529:20533   */\n      0x00\n        /* \"#utility.yul\":20675:20704   */\n      tag_533\n        /* \"#utility.yul\":20700:20703   */\n      dup4\n        /* \"#utility.yul\":20694:20698   */\n      dup4\n        /* \"#utility.yul\":20675:20704   */\n      tag_320\n      jump\t// in\n    tag_533:\n        /* \"#utility.yul\":20667:20704   */\n      swap2\n      pop\n        /* \"#utility.yul\":20737:20740   */\n      dup3\n        /* \"#utility.yul\":20734:20735   */\n      0x02\n        /* \"#utility.yul\":20730:20741   */\n      mul\n        /* \"#utility.yul\":20724:20728   */\n      dup3\n        /* \"#utility.yul\":20721:20742   */\n      or\n        /* \"#utility.yul\":20713:20742   */\n      swap1\n      pop\n        /* \"#utility.yul\":20453:20748   */\n      swap3\n      swap2\n      pop\n      pop\n      jump\t// out\n        /* \"#utility.yul\":20753:22143   */\n    tag_218:\n        /* \"#utility.yul\":20868:20904   */\n      tag_535\n        /* \"#utility.yul\":20900:20903   */\n      dup3\n        /* \"#utility.yul\":20868:20904   */\n      tag_271\n      jump\t// in\n    tag_535:\n        /* \"#utility.yul\":20969:20987   */\n      0xffffffffffffffff\n        /* \"#utility.yul\":20961:20967   */\n      dup2\n        /* \"#utility.yul\":20958:20988   */\n      gt\n        /* \"#utility.yul\":20955:21011   */\n      iszero\n      tag_536\n      jumpi\n        /* \"#utility.yul\":20991:21009   */\n      tag_537\n      tag_285\n      jump\t// in\n    tag_537:\n        /* \"#utility.yul\":20955:21011   */\n    tag_536:\n        /* \"#utility.yul\":21035:21073   */\n      tag_538\n        /* \"#utility.yul\":21067:21071   */\n      dup3\n        /* \"#utility.yul\":21061:21072   */\n      sload\n        /* \"#utility.yul\":21035:21073   */\n      tag_167\n      jump\t// in\n    tag_538:\n        /* \"#utility.yul\":21120:21186   */\n      tag_539\n        /* \"#utility.yul\":21179:21185   */\n      dup3\n        /* \"#utility.yul\":21171:21177   */\n      dup3\n        /* \"#utility.yul\":21165:21169   */\n      dup6\n        /* \"#utility.yul\":21120:21186   */\n      tag_318\n      jump\t// in\n    tag_539:\n        /* \"#utility.yul\":21213:21214   */\n      0x00\n        /* \"#utility.yul\":21237:21241   */\n      0x20\n        /* \"#utility.yul\":21224:21241   */\n      swap1\n      pop\n        /* \"#utility.yul\":21269:21271   */\n      0x1f\n        /* \"#utility.yul\":21261:21267   */\n      dup4\n        /* \"#utility.yul\":21258:21272   */\n      gt\n        /* \"#utility.yul\":21286:21287   */\n      0x01\n        /* \"#utility.yul\":21281:21898   */\n      dup2\n      eq\n      tag_541\n      jumpi\n        /* \"#utility.yul\":21942:21943   */\n      0x00\n        /* \"#utility.yul\":21959:21965   */\n      dup5\n        /* \"#utility.yul\":21956:22033   */\n      iszero\n      tag_542\n      jumpi\n        /* \"#utility.yul\":22008:22017   */\n      dup3\n        /* \"#utility.yul\":22003:22006   */\n      dup8\n        /* \"#utility.yul\":21999:22018   */\n      add\n        /* \"#utility.yul\":21993:22019   */\n      mload\n        /* \"#utility.yul\":21984:22019   */\n      swap1\n      pop\n        /* \"#utility.yul\":21956:22033   */\n    tag_542:\n        /* \"#utility.yul\":22059:22126   */\n      tag_543\n        /* \"#utility.yul\":22119:22125   */\n      dup6\n        /* \"#utility.yul\":22112:22117   */\n      dup3\n        /* \"#utility.yul\":22059:22126   */\n      tag_321\n      jump\t// in\n    tag_543:\n        /* \"#utility.yul\":22053:22057   */\n      dup7\n        /* \"#utility.yul\":22046:22127   */\n      sstore\n        /* \"#utility.yul\":21915:22137   */\n      pop\n        /* \"#utility.yul\":21251:22137   */\n      jump(tag_540)\n        /* \"#utility.yul\":21281:21898   */\n    tag_541:\n        /* \"#utility.yul\":21333:21337   */\n      0x1f\n        /* \"#utility.yul\":21329:21338   */\n      not\n        /* \"#utility.yul\":21321:21327   */\n      dup5\n        /* \"#utility.yul\":21317:21339   */\n      and\n        /* \"#utility.yul\":21367:21403   */\n      tag_544\n        /* \"#utility.yul\":21398:21402   */\n      dup7\n        /* \"#utility.yul\":21367:21403   */\n      tag_307\n      jump\t// in\n    tag_544:\n        /* \"#utility.yul\":21425:21426   */\n      0x00\n        /* \"#utility.yul\":21439:21647   */\n    tag_545:\n        /* \"#utility.yul\":21453:21460   */\n      dup3\n        /* \"#utility.yul\":21450:21451   */\n      dup2\n        /* \"#utility.yul\":21447:21461   */\n      lt\n        /* \"#utility.yul\":21439:21647   */\n      iszero\n      tag_547\n      jumpi\n        /* \"#utility.yul\":21532:21541   */\n      dup5\n        /* \"#utility.yul\":21527:21530   */\n      dup10\n        /* \"#utility.yul\":21523:21542   */\n      add\n        /* \"#utility.yul\":21517:21543   */\n      mload\n        /* \"#utility.yul\":21509:21515   */\n      dup3\n        /* \"#utility.yul\":21502:21544   */\n      sstore\n        /* \"#utility.yul\":21583:21584   */\n      0x01\n        /* \"#utility.yul\":21575:21581   */\n      dup3\n        /* \"#utility.yul\":21571:21585   */\n      add\n        /* \"#utility.yul\":21561:21585   */\n      swap2\n      pop\n        /* \"#utility.yul\":21630:21632   */\n      0x20\n        /* \"#utility.yul\":21619:21628   */\n      dup6\n        /* \"#utility.yul\":21615:21633   */\n      add\n        /* \"#utility.yul\":21602:21633   */\n      swap5\n      pop\n        /* \"#utility.yul\":21476:21480   */\n      0x20\n        /* \"#utility.yul\":21473:21474   */\n      dup2\n        /* \"#utility.yul\":21469:21481   */\n      add\n        /* \"#utility.yul\":21464:21481   */\n      swap1\n      pop\n        /* \"#utility.yul\":21439:21647   */\n      jump(tag_545)\n    tag_547:\n        /* \"#utility.yul\":21675:21681   */\n      dup7\n        /* \"#utility.yul\":21666:21673   */\n      dup4\n        /* \"#utility.yul\":21663:21682   */\n      lt\n        /* \"#utility.yul\":21660:21839   */\n      iszero\n      tag_548\n      jumpi\n        /* \"#utility.yul\":21733:21742   */\n      dup5\n        /* \"#utility.yul\":21728:21731   */\n      dup10\n        /* \"#utility.yul\":21724:21743   */\n      add\n        /* \"#utility.yul\":21718:21744   */\n      mload\n        /* \"#utility.yul\":21776:21824   */\n      tag_549\n        /* \"#utility.yul\":21818:21822   */\n      0x1f\n        /* \"#utility.yul\":21810:21816   */\n      dup10\n        /* \"#utility.yul\":21806:21823   */\n      and\n        /* \"#utility.yul\":21795:21804   */\n      dup3\n        /* \"#utility.yul\":21776:21824   */\n      tag_320\n      jump\t// in\n    tag_549:\n        /* \"#utility.yul\":21768:21774   */\n      dup4\n        /* \"#utility.yul\":21761:21825   */\n      sstore\n        /* \"#utility.yul\":21683:21839   */\n      pop\n        /* \"#utility.yul\":21660:21839   */\n    tag_548:\n        /* \"#utility.yul\":21885:21886   */\n      0x01\n        /* \"#utility.yul\":21881:21882   */\n      0x02\n        /* \"#utility.yul\":21873:21879   */\n      dup9\n        /* \"#utility.yul\":21869:21883   */\n      mul\n        /* \"#utility.yul\":21865:21887   */\n      add\n        /* \"#utility.yul\":21859:21863   */\n      dup9\n        /* \"#utility.yul\":21852:21888   */\n      sstore\n        /* \"#utility.yul\":21288:21898   */\n      pop\n      pop\n      pop\n        /* \"#utility.yul\":21251:22137   */\n    tag_540:\n      pop\n        /* \"#utility.yul\":20843:22143   */\n      pop\n      pop\n      pop\n        /* \"#utility.yul\":20753:22143   */\n      pop\n      pop\n      jump\t// out\n        /* \"#utility.yul\":22149:22568   */\n    tag_220:\n        /* \"#utility.yul\":22288:22292   */\n      0x00\n        /* \"#utility.yul\":22326:22328   */\n      0x40\n        /* \"#utility.yul\":22315:22324   */\n      dup3\n        /* \"#utility.yul\":22311:22329   */\n      add\n        /* \"#utility.yul\":22303:22329   */\n      swap1\n      pop\n        /* \"#utility.yul\":22339:22410   */\n      tag_551\n        /* \"#utility.yul\":22407:22408   */\n      0x00\n        /* \"#utility.yul\":22396:22405   */\n      dup4\n        /* \"#utility.yul\":22392:22409   */\n      add\n        /* \"#utility.yul\":22383:22389   */\n      dup6\n        /* \"#utility.yul\":22339:22410   */\n      tag_258\n      jump\t// in\n    tag_551:\n        /* \"#utility.yul\":22457:22466   */\n      dup2\n        /* \"#utility.yul\":22451:22455   */\n      dup2\n        /* \"#utility.yul\":22447:22467   */\n      sub\n        /* \"#utility.yul\":22442:22444   */\n      0x20\n        /* \"#utility.yul\":22431:22440   */\n      dup4\n        /* \"#utility.yul\":22427:22445   */\n      add\n        /* \"#utility.yul\":22420:22468   */\n      mstore\n        /* \"#utility.yul\":22485:22561   */\n      tag_552\n        /* \"#utility.yul\":22556:22560   */\n      dup2\n        /* \"#utility.yul\":22547:22553   */\n      dup5\n        /* \"#utility.yul\":22485:22561   */\n      tag_275\n      jump\t// in\n    tag_552:\n        /* \"#utility.yul\":22477:22561   */\n      swap1\n      pop\n        /* \"#utility.yul\":22149:22568   */\n      swap4\n      swap3\n      pop\n      pop\n      pop\n      jump\t// out\n        /* \"#utility.yul\":22574:22788   */\n    tag_322:\n        /* \"#utility.yul\":22714:22780   */\n      0xe5ad98e585a5e98791e9a29de99c80e8a681e5a4a7e4ba8e3000000000000000\n        /* \"#utility.yul\":22710:22711   */\n      0x00\n        /* \"#utility.yul\":22702:22708   */\n      dup3\n        /* \"#utility.yul\":22698:22712   */\n      add\n        /* \"#utility.yul\":22691:22781   */\n      mstore\n        /* \"#utility.yul\":22574:22788   */\n      pop\n      jump\t// out\n        /* \"#utility.yul\":22794:23160   */\n    tag_323:\n        /* \"#utility.yul\":22936:22939   */\n      0x00\n        /* \"#utility.yul\":22957:23024   */\n      tag_555\n        /* \"#utility.yul\":23021:23023   */\n      0x19\n        /* \"#utility.yul\":23016:23019   */\n      dup4\n        /* \"#utility.yul\":22957:23024   */\n      tag_292\n      jump\t// in\n    tag_555:\n        /* \"#utility.yul\":22950:23024   */\n      swap2\n      pop\n        /* \"#utility.yul\":23033:23126   */\n      tag_556\n        /* \"#utility.yul\":23122:23125   */\n      dup3\n        /* \"#utility.yul\":23033:23126   */\n      tag_322\n      jump\t// in\n    tag_556:\n        /* \"#utility.yul\":23151:23153   */\n      0x20\n        /* \"#utility.yul\":23146:23149   */\n      dup3\n        /* \"#utility.yul\":23142:23154   */\n      add\n        /* \"#utility.yul\":23135:23154   */\n      swap1\n      pop\n        /* \"#utility.yul\":22794:23160   */\n      swap2\n      swap1\n      pop\n      jump\t// out\n        /* \"#utility.yul\":23166:23585   */\n    tag_224:\n        /* \"#utility.yul\":23332:23336   */\n      0x00\n        /* \"#utility.yul\":23370:23372   */\n      0x20\n        /* \"#utility.yul\":23359:23368   */\n      dup3\n        /* \"#utility.yul\":23355:23373   */\n      add\n        /* \"#utility.yul\":23347:23373   */\n      swap1\n      pop\n        /* \"#utility.yul\":23419:23428   */\n      dup2\n        /* \"#utility.yul\":23413:23417   */\n      dup2\n        /* \"#utility.yul\":23409:23429   */\n      sub\n        /* \"#utility.yul\":23405:23406   */\n      0x00\n        /* \"#utility.yul\":23394:23403   */\n      dup4\n        /* \"#utility.yul\":23390:23407   */\n      add\n        /* \"#utility.yul\":23383:23430   */\n      mstore\n        /* \"#utility.yul\":23447:23578   */\n      tag_558\n        /* \"#utility.yul\":23573:23577   */\n      dup2\n        /* \"#utility.yul\":23447:23578   */\n      tag_323\n      jump\t// in\n    tag_558:\n        /* \"#utility.yul\":23439:23578   */\n      swap1\n      pop\n        /* \"#utility.yul\":23166:23585   */\n      swap2\n      swap1\n      pop\n      jump\t// out\n        /* \"#utility.yul\":23591:23738   */\n    tag_324:\n        /* \"#utility.yul\":23692:23703   */\n      0x00\n        /* \"#utility.yul\":23729:23732   */\n      dup2\n        /* \"#utility.yul\":23714:23732   */\n      swap1\n      pop\n        /* \"#utility.yul\":23591:23738   */\n      swap3\n      swap2\n      pop\n      pop\n      jump\t// out\n        /* \"#utility.yul\":23766:24636   */\n    tag_325:\n        /* \"#utility.yul\":23867:23870   */\n      0x00\n        /* \"#utility.yul\":23904:23909   */\n      dup2\n        /* \"#utility.yul\":23898:23910   */\n      sload\n        /* \"#utility.yul\":23933:23969   */\n      tag_561\n        /* \"#utility.yul\":23959:23968   */\n      dup2\n        /* \"#utility.yul\":23933:23969   */\n      tag_167\n      jump\t// in\n    tag_561:\n        /* \"#utility.yul\":23985:24073   */\n      tag_562\n        /* \"#utility.yul\":24066:24072   */\n      dup2\n        /* \"#utility.yul\":24061:24064   */\n      dup7\n        /* \"#utility.yul\":23985:24073   */\n      tag_324\n      jump\t// in\n    tag_562:\n        /* \"#utility.yul\":23978:24073   */\n      swap5\n      pop\n        /* \"#utility.yul\":24104:24105   */\n      0x01\n        /* \"#utility.yul\":24093:24102   */\n      dup3\n        /* \"#utility.yul\":24089:24106   */\n      and\n        /* \"#utility.yul\":24120:24121   */\n      0x00\n        /* \"#utility.yul\":24115:24281   */\n      dup2\n      eq\n      tag_564\n      jumpi\n        /* \"#utility.yul\":24295:24296   */\n      0x01\n        /* \"#utility.yul\":24290:24630   */\n      dup2\n      eq\n      tag_565\n      jumpi\n        /* \"#utility.yul\":24082:24630   */\n      jump(tag_563)\n        /* \"#utility.yul\":24115:24281   */\n    tag_564:\n        /* \"#utility.yul\":24199:24203   */\n      0xff\n        /* \"#utility.yul\":24195:24204   */\n      not\n        /* \"#utility.yul\":24184:24193   */\n      dup4\n        /* \"#utility.yul\":24180:24205   */\n      and\n        /* \"#utility.yul\":24175:24178   */\n      dup7\n        /* \"#utility.yul\":24168:24206   */\n      mstore\n        /* \"#utility.yul\":24261:24267   */\n      dup2\n        /* \"#utility.yul\":24254:24268   */\n      iszero\n        /* \"#utility.yul\":24247:24269   */\n      iszero\n        /* \"#utility.yul\":24239:24245   */\n      dup3\n        /* \"#utility.yul\":24235:24270   */\n      mul\n        /* \"#utility.yul\":24230:24233   */\n      dup7\n        /* \"#utility.yul\":24226:24271   */\n      add\n        /* \"#utility.yul\":24219:24271   */\n      swap4\n      pop\n        /* \"#utility.yul\":24115:24281   */\n      jump(tag_563)\n        /* \"#utility.yul\":24290:24630   */\n    tag_565:\n        /* \"#utility.yul\":24357:24394   */\n      tag_566\n        /* \"#utility.yul\":24388:24393   */\n      dup6\n        /* \"#utility.yul\":24357:24394   */\n      tag_307\n      jump\t// in\n    tag_566:\n        /* \"#utility.yul\":24416:24417   */\n      0x00\n        /* \"#utility.yul\":24430:24584   */\n    tag_567:\n        /* \"#utility.yul\":24444:24450   */\n      dup4\n        /* \"#utility.yul\":24441:24442   */\n      dup2\n        /* \"#utility.yul\":24438:24451   */\n      lt\n        /* \"#utility.yul\":24430:24584   */\n      iszero\n      tag_569\n      jumpi\n        /* \"#utility.yul\":24518:24525   */\n      dup2\n        /* \"#utility.yul\":24512:24526   */\n      sload\n        /* \"#utility.yul\":24508:24509   */\n      dup2\n        /* \"#utility.yul\":24503:24506   */\n      dup10\n        /* \"#utility.yul\":24499:24510   */\n      add\n        /* \"#utility.yul\":24492:24527   */\n      mstore\n        /* \"#utility.yul\":24568:24569   */\n      0x01\n        /* \"#utility.yul\":24559:24566   */\n      dup3\n        /* \"#utility.yul\":24555:24570   */\n      add\n        /* \"#utility.yul\":24544:24570   */\n      swap2\n      pop\n        /* \"#utility.yul\":24466:24470   */\n      0x20\n        /* \"#utility.yul\":24463:24464   */\n      dup2\n        /* \"#utility.yul\":24459:24471   */\n      add\n        /* \"#utility.yul\":24454:24471   */\n      swap1\n      pop\n        /* \"#utility.yul\":24430:24584   */\n      jump(tag_567)\n    tag_569:\n        /* \"#utility.yul\":24613:24619   */\n      dup4\n        /* \"#utility.yul\":24608:24611   */\n      dup9\n        /* \"#utility.yul\":24604:24620   */\n      add\n        /* \"#utility.yul\":24597:24620   */\n      swap6\n      pop\n        /* \"#utility.yul\":24297:24630   */\n      pop\n      pop\n        /* \"#utility.yul\":24082:24630   */\n    tag_563:\n      pop\n        /* \"#utility.yul\":23871:24636   */\n      pop\n      pop\n        /* \"#utility.yul\":23766:24636   */\n      swap3\n      swap2\n      pop\n      pop\n      jump\t// out\n        /* \"#utility.yul\":24642:24907   */\n    tag_250:\n        /* \"#utility.yul\":24769:24772   */\n      0x00\n        /* \"#utility.yul\":24791:24881   */\n      tag_571\n        /* \"#utility.yul\":24877:24880   */\n      dup3\n        /* \"#utility.yul\":24868:24874   */\n      dup5\n        /* \"#utility.yul\":24791:24881   */\n      tag_325\n      jump\t// in\n    tag_571:\n        /* \"#utility.yul\":24784:24881   */\n      swap2\n      pop\n        /* \"#utility.yul\":24898:24901   */\n      dup2\n        /* \"#utility.yul\":24891:24901   */\n      swap1\n      pop\n        /* \"#utility.yul\":24642:24907   */\n      swap3\n      swap2\n      pop\n      pop\n      jump\t// out\n        /* \"#utility.yul\":24913:25081   */\n    tag_326:\n        /* \"#utility.yul\":25053:25073   */\n      0x5472616e73616374696f6e206661696c65640000000000000000000000000000\n        /* \"#utility.yul\":25049:25050   */\n      0x00\n        /* \"#utility.yul\":25041:25047   */\n      dup3\n        /* \"#utility.yul\":25037:25051   */\n      add\n        /* \"#utility.yul\":25030:25074   */\n      mstore\n        /* \"#utility.yul\":24913:25081   */\n      pop\n      jump\t// out\n        /* \"#utility.yul\":25087:25453   */\n    tag_327:\n        /* \"#utility.yul\":25229:25232   */\n      0x00\n        /* \"#utility.yul\":25250:25317   */\n      tag_574\n        /* \"#utility.yul\":25314:25316   */\n      0x12\n        /* \"#utility.yul\":25309:25312   */\n      dup4\n        /* \"#utility.yul\":25250:25317   */\n      tag_292\n      jump\t// in\n    tag_574:\n        /* \"#utility.yul\":25243:25317   */\n      swap2\n      pop\n        /* \"#utility.yul\":25326:25419   */\n      tag_575\n        /* \"#utility.yul\":25415:25418   */\n      dup3\n        /* \"#utility.yul\":25326:25419   */\n      tag_326\n      jump\t// in\n    tag_575:\n        /* \"#utility.yul\":25444:25446   */\n      0x20\n        /* \"#utility.yul\":25439:25442   */\n      dup3\n        /* \"#utility.yul\":25435:25447   */\n      add\n        /* \"#utility.yul\":25428:25447   */\n      swap1\n      pop\n        /* \"#utility.yul\":25087:25453   */\n      swap2\n      swap1\n      pop\n      jump\t// out\n        /* \"#utility.yul\":25459:25878   */\n    tag_256:\n        /* \"#utility.yul\":25625:25629   */\n      0x00\n        /* \"#utility.yul\":25663:25665   */\n      0x20\n        /* \"#utility.yul\":25652:25661   */\n      dup3\n        /* \"#utility.yul\":25648:25666   */\n      add\n        /* \"#utility.yul\":25640:25666   */\n      swap1\n      pop\n        /* \"#utility.yul\":25712:25721   */\n      dup2\n        /* \"#utility.yul\":25706:25710   */\n      dup2\n        /* \"#utility.yul\":25702:25722   */\n      sub\n        /* \"#utility.yul\":25698:25699   */\n      0x00\n        /* \"#utility.yul\":25687:25696   */\n      dup4\n        /* \"#utility.yul\":25683:25700   */\n      add\n        /* \"#utility.yul\":25676:25723   */\n      mstore\n        /* \"#utility.yul\":25740:25871   */\n      tag_577\n        /* \"#utility.yul\":25866:25870   */\n      dup2\n        /* \"#utility.yul\":25740:25871   */\n      tag_327\n      jump\t// in\n    tag_577:\n        /* \"#utility.yul\":25732:25871   */\n      swap1\n      pop\n        /* \"#utility.yul\":25459:25878   */\n      swap2\n      swap1\n      pop\n      jump\t// out\n\n    auxdata: 0xa26469706673582212200ff5d0aad252e5862f0877c7e910976e9e962a0952527816f364d1df05d0eb4464736f6c634300081a0033\n}\n",
				"bytecode": {
					"linkReferences": {},
					"object": "608060405234801561000f575f80fd5b50604051612aec380380612aec833981810160405281019061003191906104d9565b5f825111610074576040517f08c379a000000000000000000000000000000000000000000000000000000000815260040161006b9061058d565b60405180910390fd5b5f81118015610084575081518111155b6100c3576040517f08c379a00000000000000000000000000000000000000000000000000000000081526004016100ba9061061b565b60405180910390fd5b5f5b82518110156102a5575f8382815181106100e2576100e1610639565b5b602002602001015190505f73ffffffffffffffffffffffffffffffffffffffff168173ffffffffffffffffffffffffffffffffffffffff160361015a576040517f08c379a0000000000000000000000000000000000000000000000000000000008152600401610151906106b0565b60405180910390fd5b60015f8273ffffffffffffffffffffffffffffffffffffffff1673ffffffffffffffffffffffffffffffffffffffff1681526020019081526020015f205f9054906101000a900460ff16156101e4576040517f08c379a00000000000000000000000000000000000000000000000000000000081526004016101db90610718565b60405180910390fd5b6001805f8373ffffffffffffffffffffffffffffffffffffffff1673ffffffffffffffffffffffffffffffffffffffff1681526020019081526020015f205f6101000a81548160ff0219169083151502179055505f81908060018154018082558091505060019003905f5260205f20015f9091909190916101000a81548173ffffffffffffffffffffffffffffffffffffffff021916908373ffffffffffffffffffffffffffffffffffffffff1602179055505080806001019150506100c5565b50806002819055507fa3f1ee9126a074d9326c682f561767f710e927faa811f7a99829d49dc421797a816040516102dc9190610745565b60405180910390a1505061075e565b5f604051905090565b5f80fd5b5f80fd5b5f80fd5b5f601f19601f8301169050919050565b7f4e487b71000000000000000000000000000000000000000000000000000000005f52604160045260245ffd5b61034682610300565b810181811067ffffffffffffffff8211171561036557610364610310565b5b80604052505050565b5f6103776102eb565b9050610383828261033d565b919050565b5f67ffffffffffffffff8211156103a2576103a1610310565b5b602082029050602081019050919050565b5f80fd5b5f73ffffffffffffffffffffffffffffffffffffffff82169050919050565b5f6103e0826103b7565b9050919050565b6103f0816103d6565b81146103fa575f80fd5b50565b5f8151905061040b816103e7565b92915050565b5f61042361041e84610388565b61036e565b90508083825260208201905060208402830185811115610446576104456103b3565b5b835b8181101561046f578061045b88826103fd565b845260208401935050602081019050610448565b5050509392505050565b5f82601f83011261048d5761048c6102fc565b5b815161049d848260208601610411565b91505092915050565b5f819050919050565b6104b8816104a6565b81146104c2575f80fd5b50565b5f815190506104d3816104af565b92915050565b5f80604083850312156104ef576104ee6102f4565b5b5f83015167ffffffffffffffff81111561050c5761050b6102f8565b5b61051885828601610479565b9250506020610529858286016104c5565b9150509250929050565b5f82825260208201905092915050565b7f4f776e65727320726571756972656400000000000000000000000000000000005f82015250565b5f610577600f83610533565b915061058282610543565b602082019050919050565b5f6020820190508181035f8301526105a48161056b565b9050919050565b7f496e76616c6964206e756d626572206f6620726571756972656420636f6e66695f8201527f726d6174696f6e73000000000000000000000000000000000000000000000000602082015250565b5f610605602883610533565b9150610610826105ab565b604082019050919050565b5f6020820190508181035f830152610632816105f9565b9050919050565b7f4e487b71000000000000000000000000000000000000000000000000000000005f52603260045260245ffd5b7f496e76616c6964206f776e6572000000000000000000000000000000000000005f82015250565b5f61069a600d83610533565b91506106a582610666565b602082019050919050565b5f6020820190508181035f8301526106c78161068e565b9050919050565b7f4f776e6572206e6f7420756e69717565000000000000000000000000000000005f82015250565b5f610702601083610533565b915061070d826106ce565b602082019050919050565b5f6020820190508181035f83015261072f816106f6565b9050919050565b61073f816104a6565b82525050565b5f6020820190506107585f830184610736565b92915050565b6123818061076b5f395ff3fe6080604052600436106100f6575f3560e01c806380f59a6511610089578063c642747411610058578063c6427474146103b9578063d0e30db0146103f5578063dc8452cd146103ff578063ee22610b146104295761014d565b806380f59a65146102ea5780639ace38c214610326578063a0e67e2b14610367578063c01a8c84146103915761014d565b80632f54bf6e116100c55780632f54bf6e146102095780633380c0d81461024557806333ea3dc81461026d5780633411c81c146102ae5761014d565b8063025e7c27146101515780631398a5f61461018d57806320ea8d86146101b75780632e7700f0146101df5761014d565b3661014d573373ffffffffffffffffffffffffffffffffffffffff167f90890809c654f11d6e72a28fa60149770a0d11ec6c92319d6ceb2bb0a4ea1a15344760405161014392919061169b565b60405180910390a2005b5f80fd5b34801561015c575f80fd5b50610177600480360381019061017291906116fd565b610451565b6040516101849190611767565b60405180910390f35b348015610198575f80fd5b506101a161048b565b6040516101ae9190611780565b60405180910390f35b3480156101c2575f80fd5b506101dd60048036038101906101d891906116fd565b610494565b005b3480156101ea575f80fd5b506101f36107cb565b6040516102009190611780565b60405180910390f35b348015610214575f80fd5b5061022f600480360381019061022a91906117c3565b6107d7565b60405161023c9190611808565b60405180910390f35b348015610250575f80fd5b5061026b600480360381019061026691906116fd565b6107f4565b005b348015610278575f80fd5b50610293600480360381019061028e91906116fd565b610a31565b6040516102a596959493929190611891565b60405180910390f35b3480156102b9575f80fd5b506102d460048036038101906102cf91906118f7565b610b4e565b6040516102e19190611808565b60405180910390f35b3480156102f5575f80fd5b50610310600480360381019061030b91906118f7565b610b78565b60405161031d9190611808565b60405180910390f35b348015610331575f80fd5b5061034c600480360381019061034791906116fd565b610bda565b60405161035e96959493929190611891565b60405180910390f35b348015610372575f80fd5b5061037b610cde565b60405161038891906119ec565b60405180910390f35b34801561039c575f80fd5b506103b760048036038101906103b291906116fd565b610d68565b005b3480156103c4575f80fd5b506103df60048036038101906103da9190611b38565b6110ac565b6040516103ec9190611780565b60405180910390f35b6103fd6112ca565b005b34801561040a575f80fd5b5061041361135e565b6040516104209190611780565b60405180910390f35b348015610434575f80fd5b5061044f600480360381019061044a91906116fd565b611364565b005b5f818154811061045f575f80fd5b905f5260205f20015f915054906101000a900473ffffffffffffffffffffffffffffffffffffffff1681565b5f600254905090565b60015f3373ffffffffffffffffffffffffffffffffffffffff1673ffffffffffffffffffffffffffffffffffffffff1681526020019081526020015f205f9054906101000a900460ff1661051d576040517f08c379a000000000000000000000000000000000000000000000000000000000815260040161051490611bfe565b60405180910390fd5b806003805490508110610565576040517f08c379a000000000000000000000000000000000000000000000000000000000815260040161055c90611c66565b60405180910390fd5b816003818154811061057a57610579611c84565b5b905f5260205f2090600602016003015f9054906101000a900460ff16156105d6576040517f08c379a00000000000000000000000000000000000000000000000000000000081526004016105cd90611cfb565b60405180910390fd5b82600381815481106105eb576105ea611c84565b5b905f5260205f2090600602016005015f9054906101000a900460ff1615610647576040517f08c379a000000000000000000000000000000000000000000000000000000000815260040161063e90611d63565b60405180910390fd5b60045f8581526020019081526020015f205f3373ffffffffffffffffffffffffffffffffffffffff1673ffffffffffffffffffffffffffffffffffffffff1681526020019081526020015f205f9054906101000a900460ff166106df576040517f08c379a00000000000000000000000000000000000000000000000000000000081526004016106d690611dcb565b60405180910390fd5b5f600385815481106106f4576106f3611c84565b5b905f5260205f20906006020190505f60045f8781526020019081526020015f205f3373ffffffffffffffffffffffffffffffffffffffff1673ffffffffffffffffffffffffffffffffffffffff1681526020019081526020015f205f6101000a81548160ff0219169083151502179055506001816004015f8282546107799190611e16565b92505081905550843373ffffffffffffffffffffffffffffffffffffffff167ff0dca620e2e81f7841d07bcc105e1704fb01475b278a9d4c236e1c62945edd5560405160405180910390a35050505050565b5f600380549050905090565b6001602052805f5260405f205f915054906101000a900460ff1681565b60015f3373ffffffffffffffffffffffffffffffffffffffff1673ffffffffffffffffffffffffffffffffffffffff1681526020019081526020015f205f9054906101000a900460ff1661087d576040517f08c379a000000000000000000000000000000000000000000000000000000000815260040161087490611bfe565b60405180910390fd5b8060038054905081106108c5576040517f08c379a00000000000000000000000000000000000000000000000000000000081526004016108bc90611c66565b60405180910390fd5b81600381815481106108da576108d9611c84565b5b905f5260205f2090600602016003015f9054906101000a900460ff1615610936576040517f08c379a000000000000000000000000000000000000000000000000000000000815260040161092d90611cfb565b60405180910390fd5b826003818154811061094b5761094a611c84565b5b905f5260205f2090600602016005015f9054906101000a900460ff16156109a7576040517f08c379a000000000000000000000000000000000000000000000000000000000815260040161099e90611d63565b60405180910390fd5b5f600385815481106109bc576109bb611c84565b5b905f5260205f20906006020190506001816005015f6101000a81548160ff021916908315150217905550843373ffffffffffffffffffffffffffffffffffffffff167f219656daa31426b2b73bb7e0b6d238fe3bec954b7e3868f5dbb6209f2f9491ad60405160405180910390a35050505050565b5f8060605f805f8060038881548110610a4d57610a4c611c84565b5b905f5260205f2090600602019050805f015f9054906101000a900473ffffffffffffffffffffffffffffffffffffffff16816001015482600201836003015f9054906101000a900460ff168460040154856005015f9054906101000a900460ff16838054610aba90611e76565b80601f0160208091040260200160405190810160405280929190818152602001828054610ae690611e76565b8015610b315780601f10610b0857610100808354040283529160200191610b31565b820191905f5260205f20905b815481529060010190602001808311610b1457829003601f168201915b505050505093509650965096509650965096505091939550919395565b6004602052815f5260405f20602052805f5260405f205f915091509054906101000a900460ff1681565b5f60045f8481526020019081526020015f205f8373ffffffffffffffffffffffffffffffffffffffff1673ffffffffffffffffffffffffffffffffffffffff1681526020019081526020015f205f9054906101000a900460ff16905092915050565b60038181548110610be9575f80fd5b905f5260205f2090600602015f91509050805f015f9054906101000a900473ffffffffffffffffffffffffffffffffffffffff1690806001015490806002018054610c3390611e76565b80601f0160208091040260200160405190810160405280929190818152602001828054610c5f90611e76565b8015610caa5780601f10610c8157610100808354040283529160200191610caa565b820191905f5260205f20905b815481529060010190602001808311610c8d57829003601f168201915b505050505090806003015f9054906101000a900460ff1690806004015490806005015f9054906101000a900460ff16905086565b60605f805480602002602001604051908101604052809291908181526020018280548015610d5e57602002820191905f5260205f20905b815f9054906101000a900473ffffffffffffffffffffffffffffffffffffffff1673ffffffffffffffffffffffffffffffffffffffff1681526020019060010190808311610d15575b5050505050905090565b60015f3373ffffffffffffffffffffffffffffffffffffffff1673ffffffffffffffffffffffffffffffffffffffff1681526020019081526020015f205f9054906101000a900460ff16610df1576040517f08c379a0000000000000000000000000000000000000000000000000000000008152600401610de890611bfe565b60405180910390fd5b806003805490508110610e39576040517f08c379a0000000000000000000000000000000000000000000000000000000008152600401610e3090611c66565b60405180910390fd5b8160038181548110610e4e57610e4d611c84565b5b905f5260205f2090600602016003015f9054906101000a900460ff1615610eaa576040517f08c379a0000000000000000000000000000000000000000000000000000000008152600401610ea190611cfb565b60405180910390fd5b8260038181548110610ebf57610ebe611c84565b5b905f5260205f2090600602016005015f9054906101000a900460ff1615610f1b576040517f08c379a0000000000000000000000000000000000000000000000000000000008152600401610f1290611d63565b60405180910390fd5b8360045f8281526020019081526020015f205f3373ffffffffffffffffffffffffffffffffffffffff1673ffffffffffffffffffffffffffffffffffffffff1681526020019081526020015f205f9054906101000a900460ff1615610fb5576040517f08c379a0000000000000000000000000000000000000000000000000000000008152600401610fac90611ef0565b60405180910390fd5b5f60038681548110610fca57610fc9611c84565b5b905f5260205f2090600602019050600160045f8881526020019081526020015f205f3373ffffffffffffffffffffffffffffffffffffffff1673ffffffffffffffffffffffffffffffffffffffff1681526020019081526020015f205f6101000a81548160ff0219169083151502179055506001816004015f8282546110509190611f0e565b92505081905550853373ffffffffffffffffffffffffffffffffffffffff167f5cbe105e36805f7820e291f799d5794ff948af2a5f664e580382defb6339004160405160405180910390a36110a486611364565b505050505050565b5f60015f3373ffffffffffffffffffffffffffffffffffffffff1673ffffffffffffffffffffffffffffffffffffffff1681526020019081526020015f205f9054906101000a900460ff16611136576040517f08c379a000000000000000000000000000000000000000000000000000000000815260040161112d90611bfe565b60405180910390fd5b600380549050905060036040518060c001604052808673ffffffffffffffffffffffffffffffffffffffff1681526020018581526020018481526020015f151581526020015f81526020015f1515815250908060018154018082558091505060019003905f5260205f2090600602015f909190919091505f820151815f015f6101000a81548173ffffffffffffffffffffffffffffffffffffffff021916908373ffffffffffffffffffffffffffffffffffffffff16021790555060208201518160010155604082015181600201908161121091906120de565b506060820151816003015f6101000a81548160ff0219169083151502179055506080820151816004015560a0820151816005015f6101000a81548160ff02191690831515021790555050508373ffffffffffffffffffffffffffffffffffffffff16813373ffffffffffffffffffffffffffffffffffffffff167fd5a05bf70715ad82a09a756320284a1b54c9ff74cd0f8cce6219e79b563fe59d86866040516112bb9291906121ad565b60405180910390a49392505050565b5f341161130c576040517f08c379a000000000000000000000000000000000000000000000000000000000815260040161130390612225565b60405180910390fd5b3373ffffffffffffffffffffffffffffffffffffffff167f90890809c654f11d6e72a28fa60149770a0d11ec6c92319d6ceb2bb0a4ea1a15344760405161135492919061169b565b60405180910390a2565b60025481565b60015f3373ffffffffffffffffffffffffffffffffffffffff1673ffffffffffffffffffffffffffffffffffffffff1681526020019081526020015f205f9054906101000a900460ff166113ed576040517f08c379a00000000000000000000000000000000000000000000000000000000081526004016113e490611bfe565b60405180910390fd5b806003805490508110611435576040517f08c379a000000000000000000000000000000000000000000000000000000000815260040161142c90611c66565b60405180910390fd5b816003818154811061144a57611449611c84565b5b905f5260205f2090600602016003015f9054906101000a900460ff16156114a6576040517f08c379a000000000000000000000000000000000000000000000000000000000815260040161149d90611cfb565b60405180910390fd5b82600381815481106114bb576114ba611c84565b5b905f5260205f2090600602016005015f9054906101000a900460ff1615611517576040517f08c379a000000000000000000000000000000000000000000000000000000000815260040161150e90611d63565b60405180910390fd5b5f6003858154811061152c5761152b611c84565b5b905f5260205f209060060201905060025481600401541061167c576001816003015f6101000a81548160ff0219169083151502179055505f815f015f9054906101000a900473ffffffffffffffffffffffffffffffffffffffff1673ffffffffffffffffffffffffffffffffffffffff168260010154836002016040516115b391906122cd565b5f6040518083038185875af1925050503d805f81146115ed576040519150601f19603f3d011682016040523d82523d5f602084013e6115f2565b606091505b5050905080611636576040517f08c379a000000000000000000000000000000000000000000000000000000000815260040161162d9061232d565b60405180910390fd5b853373ffffffffffffffffffffffffffffffffffffffff167f5445f318f4f5fcfb66592e68e0cc5822aa15664039bd5f0ffde24c5a8142b1ac60405160405180910390a3505b5050505050565b5f819050919050565b61169581611683565b82525050565b5f6040820190506116ae5f83018561168c565b6116bb602083018461168c565b9392505050565b5f604051905090565b5f80fd5b5f80fd5b6116dc81611683565b81146116e6575f80fd5b50565b5f813590506116f7816116d3565b92915050565b5f60208284031215611712576117116116cb565b5b5f61171f848285016116e9565b91505092915050565b5f73ffffffffffffffffffffffffffffffffffffffff82169050919050565b5f61175182611728565b9050919050565b61176181611747565b82525050565b5f60208201905061177a5f830184611758565b92915050565b5f6020820190506117935f83018461168c565b92915050565b6117a281611747565b81146117ac575f80fd5b50565b5f813590506117bd81611799565b92915050565b5f602082840312156117d8576117d76116cb565b5b5f6117e5848285016117af565b91505092915050565b5f8115159050919050565b611802816117ee565b82525050565b5f60208201905061181b5f8301846117f9565b92915050565b5f81519050919050565b5f82825260208201905092915050565b8281835e5f83830152505050565b5f601f19601f8301169050919050565b5f61186382611821565b61186d818561182b565b935061187d81856020860161183b565b61188681611849565b840191505092915050565b5f60c0820190506118a45f830189611758565b6118b1602083018861168c565b81810360408301526118c38187611859565b90506118d260608301866117f9565b6118df608083018561168c565b6118ec60a08301846117f9565b979650505050505050565b5f806040838503121561190d5761190c6116cb565b5b5f61191a858286016116e9565b925050602061192b858286016117af565b9150509250929050565b5f81519050919050565b5f82825260208201905092915050565b5f819050602082019050919050565b61196781611747565b82525050565b5f611978838361195e565b60208301905092915050565b5f602082019050919050565b5f61199a82611935565b6119a4818561193f565b93506119af8361194f565b805f5b838110156119df5781516119c6888261196d565b97506119d183611984565b9250506001810190506119b2565b5085935050505092915050565b5f6020820190508181035f830152611a048184611990565b905092915050565b5f80fd5b5f80fd5b7f4e487b71000000000000000000000000000000000000000000000000000000005f52604160045260245ffd5b611a4a82611849565b810181811067ffffffffffffffff82111715611a6957611a68611a14565b5b80604052505050565b5f611a7b6116c2565b9050611a878282611a41565b919050565b5f67ffffffffffffffff821115611aa657611aa5611a14565b5b611aaf82611849565b9050602081019050919050565b828183375f83830152505050565b5f611adc611ad784611a8c565b611a72565b905082815260208101848484011115611af857611af7611a10565b5b611b03848285611abc565b509392505050565b5f82601f830112611b1f57611b1e611a0c565b5b8135611b2f848260208601611aca565b91505092915050565b5f805f60608486031215611b4f57611b4e6116cb565b5b5f611b5c868287016117af565b9350506020611b6d868287016116e9565b925050604084013567ffffffffffffffff811115611b8e57611b8d6116cf565b5b611b9a86828701611b0b565b9150509250925092565b5f82825260208201905092915050565b7f4e6f7420616e206f776e657200000000000000000000000000000000000000005f82015250565b5f611be8600c83611ba4565b9150611bf382611bb4565b602082019050919050565b5f6020820190508181035f830152611c1581611bdc565b9050919050565b7f5472616e73616374696f6e20646f6573206e6f742065786973740000000000005f82015250565b5f611c50601a83611ba4565b9150611c5b82611c1c565b602082019050919050565b5f6020820190508181035f830152611c7d81611c44565b9050919050565b7f4e487b71000000000000000000000000000000000000000000000000000000005f52603260045260245ffd5b7f5472616e73616374696f6e20616c7265616479206578656375746564000000005f82015250565b5f611ce5601c83611ba4565b9150611cf082611cb1565b602082019050919050565b5f6020820190508181035f830152611d1281611cd9565b9050919050565b7f5472616e73616374696f6e20686173206265656e2063616e63656c65640000005f82015250565b5f611d4d601d83611ba4565b9150611d5882611d19565b602082019050919050565b5f6020820190508181035f830152611d7a81611d41565b9050919050565b7f5472616e73616374696f6e206e6f7420636f6e6669726d6564000000000000005f82015250565b5f611db5601983611ba4565b9150611dc082611d81565b602082019050919050565b5f6020820190508181035f830152611de281611da9565b9050919050565b7f4e487b71000000000000000000000000000000000000000000000000000000005f52601160045260245ffd5b5f611e2082611683565b9150611e2b83611683565b9250828203905081811115611e4357611e42611de9565b5b92915050565b7f4e487b71000000000000000000000000000000000000000000000000000000005f52602260045260245ffd5b5f6002820490506001821680611e8d57607f821691505b602082108103611ea057611e9f611e49565b5b50919050565b7f5472616e73616374696f6e20616c726561647920636f6e6669726d65640000005f82015250565b5f611eda601d83611ba4565b9150611ee582611ea6565b602082019050919050565b5f6020820190508181035f830152611f0781611ece565b9050919050565b5f611f1882611683565b9150611f2383611683565b9250828201905080821115611f3b57611f3a611de9565b5b92915050565b5f819050815f5260205f209050919050565b5f6020601f8301049050919050565b5f82821b905092915050565b5f60088302611f9d7fffffffffffffffffffffffffffffffffffffffffffffffffffffffffffffffff82611f62565b611fa78683611f62565b95508019841693508086168417925050509392505050565b5f819050919050565b5f611fe2611fdd611fd884611683565b611fbf565b611683565b9050919050565b5f819050919050565b611ffb83611fc8565b61200f61200782611fe9565b848454611f6e565b825550505050565b5f90565b612023612017565b61202e818484611ff2565b505050565b5b81811015612051576120465f8261201b565b600181019050612034565b5050565b601f8211156120965761206781611f41565b61207084611f53565b8101602085101561207f578190505b61209361208b85611f53565b830182612033565b50505b505050565b5f82821c905092915050565b5f6120b65f198460080261209b565b1980831691505092915050565b5f6120ce83836120a7565b9150826002028217905092915050565b6120e782611821565b67ffffffffffffffff811115612100576120ff611a14565b5b61210a8254611e76565b612115828285612055565b5f60209050601f831160018114612146575f8415612134578287015190505b61213e85826120c3565b8655506121a5565b601f19841661215486611f41565b5f5b8281101561217b57848901518255600182019150602085019450602081019050612156565b868310156121985784890151612194601f8916826120a7565b8355505b6001600288020188555050505b505050505050565b5f6040820190506121c05f83018561168c565b81810360208301526121d28184611859565b90509392505050565b7fe5ad98e585a5e98791e9a29de99c80e8a681e5a4a7e4ba8e30000000000000005f82015250565b5f61220f601983611ba4565b915061221a826121db565b602082019050919050565b5f6020820190508181035f83015261223c81612203565b9050919050565b5f81905092915050565b5f815461225981611e76565b6122638186612243565b9450600182165f811461227d5760018114612292576122c4565b60ff19831686528115158202860193506122c4565b61229b85611f41565b5f5b838110156122bc5781548189015260018201915060208101905061229d565b838801955050505b50505092915050565b5f6122d8828461224d565b915081905092915050565b7f5472616e73616374696f6e206661696c656400000000000000000000000000005f82015250565b5f612317601283611ba4565b9150612322826122e3565b602082019050919050565b5f6020820190508181035f8301526123448161230b565b905091905056fea26469706673582212200ff5d0aad252e5862f0877c7e910976e9e962a0952527816f364d1df05d0eb4464736f6c634300081a0033",
					"opcodes": "PUSH1 0x80 PUSH1 0x40 MSTORE CALLVALUE DUP1 ISZERO PUSH2 0xF JUMPI PUSH0 DUP1 REVERT JUMPDEST POP PUSH1 0x40 MLOAD PUSH2 0x2AEC CODESIZE SUB DUP1 PUSH2 0x2AEC DUP4 CODECOPY DUP2 DUP2 ADD PUSH1 0x40 MSTORE DUP2 ADD SWAP1 PUSH2 0x31 SWAP2 SWAP1 PUSH2 0x4D9 JUMP JUMPDEST PUSH0 DUP3 MLOAD GT PUSH2 0x74 JUMPI PUSH1 0x40 MLOAD PUSH32 0x8C379A000000000000000000000000000000000000000000000000000000000 DUP2 MSTORE PUSH1 0x4 ADD PUSH2 0x6B SWAP1 PUSH2 0x58D JUMP JUMPDEST PUSH1 0x40 MLOAD DUP1 SWAP2 SUB SWAP1 REVERT JUMPDEST PUSH0 DUP2 GT DUP1 ISZERO PUSH2 0x84 JUMPI POP DUP2 MLOAD DUP2 GT ISZERO JUMPDEST PUSH2 0xC3 JUMPI PUSH1 0x40 MLOAD PUSH32 0x8C379A000000000000000000000000000000000000000000000000000000000 DUP2 MSTORE PUSH1 0x4 ADD PUSH2 0xBA SWAP1 PUSH2 0x61B JUMP JUMPDEST PUSH1 0x40 MLOAD DUP1 SWAP2 SUB SWAP1 REVERT JUMPDEST PUSH0 JUMPDEST DUP3 MLOAD DUP2 LT ISZERO PUSH2 0x2A5 JUMPI PUSH0 DUP4 DUP3 DUP2 MLOAD DUP2 LT PUSH2 0xE2 JUMPI PUSH2 0xE1 PUSH2 0x639 JUMP JUMPDEST JUMPDEST PUSH1 0x20 MUL PUSH1 0x20 ADD ADD MLOAD SWAP1 POP PUSH0 PUSH20 0xFFFFFFFFFFFFFFFFFFFFFFFFFFFFFFFFFFFFFFFF AND DUP2 PUSH20 0xFFFFFFFFFFFFFFFFFFFFFFFFFFFFFFFFFFFFFFFF AND SUB PUSH2 0x15A JUMPI PUSH1 0x40 MLOAD PUSH32 0x8C379A000000000000000000000000000000000000000000000000000000000 DUP2 MSTORE PUSH1 0x4 ADD PUSH2 0x151 SWAP1 PUSH2 0x6B0 JUMP JUMPDEST PUSH1 0x40 MLOAD DUP1 SWAP2 SUB SWAP1 REVERT JUMPDEST PUSH1 0x1 PUSH0 DUP3 PUSH20 0xFFFFFFFFFFFFFFFFFFFFFFFFFFFFFFFFFFFFFFFF AND PUSH20 0xFFFFFFFFFFFFFFFFFFFFFFFFFFFFFFFFFFFFFFFF AND DUP2 MSTORE PUSH1 0x20 ADD SWAP1 DUP2 MSTORE PUSH1 0x20 ADD PUSH0 KECCAK256 PUSH0 SWAP1 SLOAD SWAP1 PUSH2 0x100 EXP SWAP1 DIV PUSH1 0xFF AND ISZERO PUSH2 0x1E4 JUMPI PUSH1 0x40 MLOAD PUSH32 0x8C379A000000000000000000000000000000000000000000000000000000000 DUP2 MSTORE PUSH1 0x4 ADD PUSH2 0x1DB SWAP1 PUSH2 0x718 JUMP JUMPDEST PUSH1 0x40 MLOAD DUP1 SWAP2 SUB SWAP1 REVERT JUMPDEST PUSH1 0x1 DUP1 PUSH0 DUP4 PUSH20 0xFFFFFFFFFFFFFFFFFFFFFFFFFFFFFFFFFFFFFFFF AND PUSH20 0xFFFFFFFFFFFFFFFFFFFFFFFFFFFFFFFFFFFFFFFF AND DUP2 MSTORE PUSH1 0x20 ADD SWAP1 DUP2 MSTORE PUSH1 0x20 ADD PUSH0 KECCAK256 PUSH0 PUSH2 0x100 EXP DUP2 SLOAD DUP2 PUSH1 0xFF MUL NOT AND SWAP1 DUP4 ISZERO ISZERO MUL OR SWAP1 SSTORE POP PUSH0 DUP2 SWAP1 DUP1 PUSH1 0x1 DUP2 SLOAD ADD DUP1 DUP3 SSTORE DUP1 SWAP2 POP POP PUSH1 0x1 SWAP1 SUB SWAP1 PUSH0 MSTORE PUSH1 0x20 PUSH0 KECCAK256 ADD PUSH0 SWAP1 SWAP2 SWAP1 SWAP2 SWAP1 SWAP2 PUSH2 0x100 EXP DUP2 SLOAD DUP2 PUSH20 0xFFFFFFFFFFFFFFFFFFFFFFFFFFFFFFFFFFFFFFFF MUL NOT AND SWAP1 DUP4 PUSH20 0xFFFFFFFFFFFFFFFFFFFFFFFFFFFFFFFFFFFFFFFF AND MUL OR SWAP1 SSTORE POP POP DUP1 DUP1 PUSH1 0x1 ADD SWAP2 POP POP PUSH2 0xC5 JUMP JUMPDEST POP DUP1 PUSH1 0x2 DUP2 SWAP1 SSTORE POP PUSH32 0xA3F1EE9126A074D9326C682F561767F710E927FAA811F7A99829D49DC421797A DUP2 PUSH1 0x40 MLOAD PUSH2 0x2DC SWAP2 SWAP1 PUSH2 0x745 JUMP JUMPDEST PUSH1 0x40 MLOAD DUP1 SWAP2 SUB SWAP1 LOG1 POP POP PUSH2 0x75E JUMP JUMPDEST PUSH0 PUSH1 0x40 MLOAD SWAP1 POP SWAP1 JUMP JUMPDEST PUSH0 DUP1 REVERT JUMPDEST PUSH0 DUP1 REVERT JUMPDEST PUSH0 DUP1 REVERT JUMPDEST PUSH0 PUSH1 0x1F NOT PUSH1 0x1F DUP4 ADD AND SWAP1 POP SWAP2 SWAP1 POP JUMP JUMPDEST PUSH32 0x4E487B7100000000000000000000000000000000000000000000000000000000 PUSH0 MSTORE PUSH1 0x41 PUSH1 0x4 MSTORE PUSH1 0x24 PUSH0 REVERT JUMPDEST PUSH2 0x346 DUP3 PUSH2 0x300 JUMP JUMPDEST DUP2 ADD DUP2 DUP2 LT PUSH8 0xFFFFFFFFFFFFFFFF DUP3 GT OR ISZERO PUSH2 0x365 JUMPI PUSH2 0x364 PUSH2 0x310 JUMP JUMPDEST JUMPDEST DUP1 PUSH1 0x40 MSTORE POP POP POP JUMP JUMPDEST PUSH0 PUSH2 0x377 PUSH2 0x2EB JUMP JUMPDEST SWAP1 POP PUSH2 0x383 DUP3 DUP3 PUSH2 0x33D JUMP JUMPDEST SWAP2 SWAP1 POP JUMP JUMPDEST PUSH0 PUSH8 0xFFFFFFFFFFFFFFFF DUP3 GT ISZERO PUSH2 0x3A2 JUMPI PUSH2 0x3A1 PUSH2 0x310 JUMP JUMPDEST JUMPDEST PUSH1 0x20 DUP3 MUL SWAP1 POP PUSH1 0x20 DUP2 ADD SWAP1 POP SWAP2 SWAP1 POP JUMP JUMPDEST PUSH0 DUP1 REVERT JUMPDEST PUSH0 PUSH20 0xFFFFFFFFFFFFFFFFFFFFFFFFFFFFFFFFFFFFFFFF DUP3 AND SWAP1 POP SWAP2 SWAP1 POP JUMP JUMPDEST PUSH0 PUSH2 0x3E0 DUP3 PUSH2 0x3B7 JUMP JUMPDEST SWAP1 POP SWAP2 SWAP1 POP JUMP JUMPDEST PUSH2 0x3F0 DUP2 PUSH2 0x3D6 JUMP JUMPDEST DUP2 EQ PUSH2 0x3FA JUMPI PUSH0 DUP1 REVERT JUMPDEST POP JUMP JUMPDEST PUSH0 DUP2 MLOAD SWAP1 POP PUSH2 0x40B DUP2 PUSH2 0x3E7 JUMP JUMPDEST SWAP3 SWAP2 POP POP JUMP JUMPDEST PUSH0 PUSH2 0x423 PUSH2 0x41E DUP5 PUSH2 0x388 JUMP JUMPDEST PUSH2 0x36E JUMP JUMPDEST SWAP1 POP DUP1 DUP4 DUP3 MSTORE PUSH1 0x20 DUP3 ADD SWAP1 POP PUSH1 0x20 DUP5 MUL DUP4 ADD DUP6 DUP2 GT ISZERO PUSH2 0x446 JUMPI PUSH2 0x445 PUSH2 0x3B3 JUMP JUMPDEST JUMPDEST DUP4 JUMPDEST DUP2 DUP2 LT ISZERO PUSH2 0x46F JUMPI DUP1 PUSH2 0x45B DUP9 DUP3 PUSH2 0x3FD JUMP JUMPDEST DUP5 MSTORE PUSH1 0x20 DUP5 ADD SWAP4 POP POP PUSH1 0x20 DUP2 ADD SWAP1 POP PUSH2 0x448 JUMP JUMPDEST POP POP POP SWAP4 SWAP3 POP POP POP JUMP JUMPDEST PUSH0 DUP3 PUSH1 0x1F DUP4 ADD SLT PUSH2 0x48D JUMPI PUSH2 0x48C PUSH2 0x2FC JUMP JUMPDEST JUMPDEST DUP2 MLOAD PUSH2 0x49D DUP5 DUP3 PUSH1 0x20 DUP7 ADD PUSH2 0x411 JUMP JUMPDEST SWAP2 POP POP SWAP3 SWAP2 POP POP JUMP JUMPDEST PUSH0 DUP2 SWAP1 POP SWAP2 SWAP1 POP JUMP JUMPDEST PUSH2 0x4B8 DUP2 PUSH2 0x4A6 JUMP JUMPDEST DUP2 EQ PUSH2 0x4C2 JUMPI PUSH0 DUP1 REVERT JUMPDEST POP JUMP JUMPDEST PUSH0 DUP2 MLOAD SWAP1 POP PUSH2 0x4D3 DUP2 PUSH2 0x4AF JUMP JUMPDEST SWAP3 SWAP2 POP POP JUMP JUMPDEST PUSH0 DUP1 PUSH1 0x40 DUP4 DUP6 SUB SLT ISZERO PUSH2 0x4EF JUMPI PUSH2 0x4EE PUSH2 0x2F4 JUMP JUMPDEST JUMPDEST PUSH0 DUP4 ADD MLOAD PUSH8 0xFFFFFFFFFFFFFFFF DUP2 GT ISZERO PUSH2 0x50C JUMPI PUSH2 0x50B PUSH2 0x2F8 JUMP JUMPDEST JUMPDEST PUSH2 0x518 DUP6 DUP3 DUP7 ADD PUSH2 0x479 JUMP JUMPDEST SWAP3 POP POP PUSH1 0x20 PUSH2 0x529 DUP6 DUP3 DUP7 ADD PUSH2 0x4C5 JUMP JUMPDEST SWAP2 POP POP SWAP3 POP SWAP3 SWAP1 POP JUMP JUMPDEST PUSH0 DUP3 DUP3 MSTORE PUSH1 0x20 DUP3 ADD SWAP1 POP SWAP3 SWAP2 POP POP JUMP JUMPDEST PUSH32 0x4F776E6572732072657175697265640000000000000000000000000000000000 PUSH0 DUP3 ADD MSTORE POP JUMP JUMPDEST PUSH0 PUSH2 0x577 PUSH1 0xF DUP4 PUSH2 0x533 JUMP JUMPDEST SWAP2 POP PUSH2 0x582 DUP3 PUSH2 0x543 JUMP JUMPDEST PUSH1 0x20 DUP3 ADD SWAP1 POP SWAP2 SWAP1 POP JUMP JUMPDEST PUSH0 PUSH1 0x20 DUP3 ADD SWAP1 POP DUP2 DUP2 SUB PUSH0 DUP4 ADD MSTORE PUSH2 0x5A4 DUP2 PUSH2 0x56B JUMP JUMPDEST SWAP1 POP SWAP2 SWAP1 POP JUMP JUMPDEST PUSH32 0x496E76616C6964206E756D626572206F6620726571756972656420636F6E6669 PUSH0 DUP3 ADD MSTORE PUSH32 0x726D6174696F6E73000000000000000000000000000000000000000000000000 PUSH1 0x20 DUP3 ADD MSTORE POP JUMP JUMPDEST PUSH0 PUSH2 0x605 PUSH1 0x28 DUP4 PUSH2 0x533 JUMP JUMPDEST SWAP2 POP PUSH2 0x610 DUP3 PUSH2 0x5AB JUMP JUMPDEST PUSH1 0x40 DUP3 ADD SWAP1 POP SWAP2 SWAP1 POP JUMP JUMPDEST PUSH0 PUSH1 0x20 DUP3 ADD SWAP1 POP DUP2 DUP2 SUB PUSH0 DUP4 ADD MSTORE PUSH2 0x632 DUP2 PUSH2 0x5F9 JUMP JUMPDEST SWAP1 POP SWAP2 SWAP1 POP JUMP JUMPDEST PUSH32 0x4E487B7100000000000000000000000000000000000000000000000000000000 PUSH0 MSTORE PUSH1 0x32 PUSH1 0x4 MSTORE PUSH1 0x24 PUSH0 REVERT JUMPDEST PUSH32 0x496E76616C6964206F776E657200000000000000000000000000000000000000 PUSH0 DUP3 ADD MSTORE POP JUMP JUMPDEST PUSH0 PUSH2 0x69A PUSH1 0xD DUP4 PUSH2 0x533 JUMP JUMPDEST SWAP2 POP PUSH2 0x6A5 DUP3 PUSH2 0x666 JUMP JUMPDEST PUSH1 0x20 DUP3 ADD SWAP1 POP SWAP2 SWAP1 POP JUMP JUMPDEST PUSH0 PUSH1 0x20 DUP3 ADD SWAP1 POP DUP2 DUP2 SUB PUSH0 DUP4 ADD MSTORE PUSH2 0x6C7 DUP2 PUSH2 0x68E JUMP JUMPDEST SWAP1 POP SWAP2 SWAP1 POP JUMP JUMPDEST PUSH32 0x4F776E6572206E6F7420756E6971756500000000000000000000000000000000 PUSH0 DUP3 ADD MSTORE POP JUMP JUMPDEST PUSH0 PUSH2 0x702 PUSH1 0x10 DUP4 PUSH2 0x533 JUMP JUMPDEST SWAP2 POP PUSH2 0x70D DUP3 PUSH2 0x6CE JUMP JUMPDEST PUSH1 0x20 DUP3 ADD SWAP1 POP SWAP2 SWAP1 POP JUMP JUMPDEST PUSH0 PUSH1 0x20 DUP3 ADD SWAP1 POP DUP2 DUP2 SUB PUSH0 DUP4 ADD MSTORE PUSH2 0x72F DUP2 PUSH2 0x6F6 JUMP JUMPDEST SWAP1 POP SWAP2 SWAP1 POP JUMP JUMPDEST PUSH2 0x73F DUP2 PUSH2 0x4A6 JUMP JUMPDEST DUP3 MSTORE POP POP JUMP JUMPDEST PUSH0 PUSH1 0x20 DUP3 ADD SWAP1 POP PUSH2 0x758 PUSH0 DUP4 ADD DUP5 PUSH2 0x736 JUMP JUMPDEST SWAP3 SWAP2 POP POP JUMP JUMPDEST PUSH2 0x2381 DUP1 PUSH2 0x76B PUSH0 CODECOPY PUSH0 RETURN INVALID PUSH1 0x80 PUSH1 0x40 MSTORE PUSH1 0x4 CALLDATASIZE LT PUSH2 0xF6 JUMPI PUSH0 CALLDATALOAD PUSH1 0xE0 SHR DUP1 PUSH4 0x80F59A65 GT PUSH2 0x89 JUMPI DUP1 PUSH4 0xC6427474 GT PUSH2 0x58 JUMPI DUP1 PUSH4 0xC6427474 EQ PUSH2 0x3B9 JUMPI DUP1 PUSH4 0xD0E30DB0 EQ PUSH2 0x3F5 JUMPI DUP1 PUSH4 0xDC8452CD EQ PUSH2 0x3FF JUMPI DUP1 PUSH4 0xEE22610B EQ PUSH2 0x429 JUMPI PUSH2 0x14D JUMP JUMPDEST DUP1 PUSH4 0x80F59A65 EQ PUSH2 0x2EA JUMPI DUP1 PUSH4 0x9ACE38C2 EQ PUSH2 0x326 JUMPI DUP1 PUSH4 0xA0E67E2B EQ PUSH2 0x367 JUMPI DUP1 PUSH4 0xC01A8C84 EQ PUSH2 0x391 JUMPI PUSH2 0x14D JUMP JUMPDEST DUP1 PUSH4 0x2F54BF6E GT PUSH2 0xC5 JUMPI DUP1 PUSH4 0x2F54BF6E EQ PUSH2 0x209 JUMPI DUP1 PUSH4 0x3380C0D8 EQ PUSH2 0x245 JUMPI DUP1 PUSH4 0x33EA3DC8 EQ PUSH2 0x26D JUMPI DUP1 PUSH4 0x3411C81C EQ PUSH2 0x2AE JUMPI PUSH2 0x14D JUMP JUMPDEST DUP1 PUSH4 0x25E7C27 EQ PUSH2 0x151 JUMPI DUP1 PUSH4 0x1398A5F6 EQ PUSH2 0x18D JUMPI DUP1 PUSH4 0x20EA8D86 EQ PUSH2 0x1B7 JUMPI DUP1 PUSH4 0x2E7700F0 EQ PUSH2 0x1DF JUMPI PUSH2 0x14D JUMP JUMPDEST CALLDATASIZE PUSH2 0x14D JUMPI CALLER PUSH20 0xFFFFFFFFFFFFFFFFFFFFFFFFFFFFFFFFFFFFFFFF AND PUSH32 0x90890809C654F11D6E72A28FA60149770A0D11EC6C92319D6CEB2BB0A4EA1A15 CALLVALUE SELFBALANCE PUSH1 0x40 MLOAD PUSH2 0x143 SWAP3 SWAP2 SWAP1 PUSH2 0x169B JUMP JUMPDEST PUSH1 0x40 MLOAD DUP1 SWAP2 SUB SWAP1 LOG2 STOP JUMPDEST PUSH0 DUP1 REVERT JUMPDEST CALLVALUE DUP1 ISZERO PUSH2 0x15C JUMPI PUSH0 DUP1 REVERT JUMPDEST POP PUSH2 0x177 PUSH1 0x4 DUP1 CALLDATASIZE SUB DUP2 ADD SWAP1 PUSH2 0x172 SWAP2 SWAP1 PUSH2 0x16FD JUMP JUMPDEST PUSH2 0x451 JUMP JUMPDEST PUSH1 0x40 MLOAD PUSH2 0x184 SWAP2 SWAP1 PUSH2 0x1767 JUMP JUMPDEST PUSH1 0x40 MLOAD DUP1 SWAP2 SUB SWAP1 RETURN JUMPDEST CALLVALUE DUP1 ISZERO PUSH2 0x198 JUMPI PUSH0 DUP1 REVERT JUMPDEST POP PUSH2 0x1A1 PUSH2 0x48B JUMP JUMPDEST PUSH1 0x40 MLOAD PUSH2 0x1AE SWAP2 SWAP1 PUSH2 0x1780 JUMP JUMPDEST PUSH1 0x40 MLOAD DUP1 SWAP2 SUB SWAP1 RETURN JUMPDEST CALLVALUE DUP1 ISZERO PUSH2 0x1C2 JUMPI PUSH0 DUP1 REVERT JUMPDEST POP PUSH2 0x1DD PUSH1 0x4 DUP1 CALLDATASIZE SUB DUP2 ADD SWAP1 PUSH2 0x1D8 SWAP2 SWAP1 PUSH2 0x16FD JUMP JUMPDEST PUSH2 0x494 JUMP JUMPDEST STOP JUMPDEST CALLVALUE DUP1 ISZERO PUSH2 0x1EA JUMPI PUSH0 DUP1 REVERT JUMPDEST POP PUSH2 0x1F3 PUSH2 0x7CB JUMP JUMPDEST PUSH1 0x40 MLOAD PUSH2 0x200 SWAP2 SWAP1 PUSH2 0x1780 JUMP JUMPDEST PUSH1 0x40 MLOAD DUP1 SWAP2 SUB SWAP1 RETURN JUMPDEST CALLVALUE DUP1 ISZERO PUSH2 0x214 JUMPI PUSH0 DUP1 REVERT JUMPDEST POP PUSH2 0x22F PUSH1 0x4 DUP1 CALLDATASIZE SUB DUP2 ADD SWAP1 PUSH2 0x22A SWAP2 SWAP1 PUSH2 0x17C3 JUMP JUMPDEST PUSH2 0x7D7 JUMP JUMPDEST PUSH1 0x40 MLOAD PUSH2 0x23C SWAP2 SWAP1 PUSH2 0x1808 JUMP JUMPDEST PUSH1 0x40 MLOAD DUP1 SWAP2 SUB SWAP1 RETURN JUMPDEST CALLVALUE DUP1 ISZERO PUSH2 0x250 JUMPI PUSH0 DUP1 REVERT JUMPDEST POP PUSH2 0x26B PUSH1 0x4 DUP1 CALLDATASIZE SUB DUP2 ADD SWAP1 PUSH2 0x266 SWAP2 SWAP1 PUSH2 0x16FD JUMP JUMPDEST PUSH2 0x7F4 JUMP JUMPDEST STOP JUMPDEST CALLVALUE DUP1 ISZERO PUSH2 0x278 JUMPI PUSH0 DUP1 REVERT JUMPDEST POP PUSH2 0x293 PUSH1 0x4 DUP1 CALLDATASIZE SUB DUP2 ADD SWAP1 PUSH2 0x28E SWAP2 SWAP1 PUSH2 0x16FD JUMP JUMPDEST PUSH2 0xA31 JUMP JUMPDEST PUSH1 0x40 MLOAD PUSH2 0x2A5 SWAP7 SWAP6 SWAP5 SWAP4 SWAP3 SWAP2 SWAP1 PUSH2 0x1891 JUMP JUMPDEST PUSH1 0x40 MLOAD DUP1 SWAP2 SUB SWAP1 RETURN JUMPDEST CALLVALUE DUP1 ISZERO PUSH2 0x2B9 JUMPI PUSH0 DUP1 REVERT JUMPDEST POP PUSH2 0x2D4 PUSH1 0x4 DUP1 CALLDATASIZE SUB DUP2 ADD SWAP1 PUSH2 0x2CF SWAP2 SWAP1 PUSH2 0x18F7 JUMP JUMPDEST PUSH2 0xB4E JUMP JUMPDEST PUSH1 0x40 MLOAD PUSH2 0x2E1 SWAP2 SWAP1 PUSH2 0x1808 JUMP JUMPDEST PUSH1 0x40 MLOAD DUP1 SWAP2 SUB SWAP1 RETURN JUMPDEST CALLVALUE DUP1 ISZERO PUSH2 0x2F5 JUMPI PUSH0 DUP1 REVERT JUMPDEST POP PUSH2 0x310 PUSH1 0x4 DUP1 CALLDATASIZE SUB DUP2 ADD SWAP1 PUSH2 0x30B SWAP2 SWAP1 PUSH2 0x18F7 JUMP JUMPDEST PUSH2 0xB78 JUMP JUMPDEST PUSH1 0x40 MLOAD PUSH2 0x31D SWAP2 SWAP1 PUSH2 0x1808 JUMP JUMPDEST PUSH1 0x40 MLOAD DUP1 SWAP2 SUB SWAP1 RETURN JUMPDEST CALLVALUE DUP1 ISZERO PUSH2 0x331 JUMPI PUSH0 DUP1 REVERT JUMPDEST POP PUSH2 0x34C PUSH1 0x4 DUP1 CALLDATASIZE SUB DUP2 ADD SWAP1 PUSH2 0x347 SWAP2 SWAP1 PUSH2 0x16FD JUMP JUMPDEST PUSH2 0xBDA JUMP JUMPDEST PUSH1 0x40 MLOAD PUSH2 0x35E SWAP7 SWAP6 SWAP5 SWAP4 SWAP3 SWAP2 SWAP1 PUSH2 0x1891 JUMP JUMPDEST PUSH1 0x40 MLOAD DUP1 SWAP2 SUB SWAP1 RETURN JUMPDEST CALLVALUE DUP1 ISZERO PUSH2 0x372 JUMPI PUSH0 DUP1 REVERT JUMPDEST POP PUSH2 0x37B PUSH2 0xCDE JUMP JUMPDEST PUSH1 0x40 MLOAD PUSH2 0x388 SWAP2 SWAP1 PUSH2 0x19EC JUMP JUMPDEST PUSH1 0x40 MLOAD DUP1 SWAP2 SUB SWAP1 RETURN JUMPDEST CALLVALUE DUP1 ISZERO PUSH2 0x39C JUMPI PUSH0 DUP1 REVERT JUMPDEST POP PUSH2 0x3B7 PUSH1 0x4 DUP1 CALLDATASIZE SUB DUP2 ADD SWAP1 PUSH2 0x3B2 SWAP2 SWAP1 PUSH2 0x16FD JUMP JUMPDEST PUSH2 0xD68 JUMP JUMPDEST STOP JUMPDEST CALLVALUE DUP1 ISZERO PUSH2 0x3C4 JUMPI PUSH0 DUP1 REVERT JUMPDEST POP PUSH2 0x3DF PUSH1 0x4 DUP1 CALLDATASIZE SUB DUP2 ADD SWAP1 PUSH2 0x3DA SWAP2 SWAP1 PUSH2 0x1B38 JUMP JUMPDEST PUSH2 0x10AC JUMP JUMPDEST PUSH1 0x40 MLOAD PUSH2 0x3EC SWAP2 SWAP1 PUSH2 0x1780 JUMP JUMPDEST PUSH1 0x40 MLOAD DUP1 SWAP2 SUB SWAP1 RETURN JUMPDEST PUSH2 0x3FD PUSH2 0x12CA JUMP JUMPDEST STOP JUMPDEST CALLVALUE DUP1 ISZERO PUSH2 0x40A JUMPI PUSH0 DUP1 REVERT JUMPDEST POP PUSH2 0x413 PUSH2 0x135E JUMP JUMPDEST PUSH1 0x40 MLOAD PUSH2 0x420 SWAP2 SWAP1 PUSH2 0x1780 JUMP JUMPDEST PUSH1 0x40 MLOAD DUP1 SWAP2 SUB SWAP1 RETURN JUMPDEST CALLVALUE DUP1 ISZERO PUSH2 0x434 JUMPI PUSH0 DUP1 REVERT JUMPDEST POP PUSH2 0x44F PUSH1 0x4 DUP1 CALLDATASIZE SUB DUP2 ADD SWAP1 PUSH2 0x44A SWAP2 SWAP1 PUSH2 0x16FD JUMP JUMPDEST PUSH2 0x1364 JUMP JUMPDEST STOP JUMPDEST PUSH0 DUP2 DUP2 SLOAD DUP2 LT PUSH2 0x45F JUMPI PUSH0 DUP1 REVERT JUMPDEST SWAP1 PUSH0 MSTORE PUSH1 0x20 PUSH0 KECCAK256 ADD PUSH0 SWAP2 POP SLOAD SWAP1 PUSH2 0x100 EXP SWAP1 DIV PUSH20 0xFFFFFFFFFFFFFFFFFFFFFFFFFFFFFFFFFFFFFFFF AND DUP2 JUMP JUMPDEST PUSH0 PUSH1 0x2 SLOAD SWAP1 POP SWAP1 JUMP JUMPDEST PUSH1 0x1 PUSH0 CALLER PUSH20 0xFFFFFFFFFFFFFFFFFFFFFFFFFFFFFFFFFFFFFFFF AND PUSH20 0xFFFFFFFFFFFFFFFFFFFFFFFFFFFFFFFFFFFFFFFF AND DUP2 MSTORE PUSH1 0x20 ADD SWAP1 DUP2 MSTORE PUSH1 0x20 ADD PUSH0 KECCAK256 PUSH0 SWAP1 SLOAD SWAP1 PUSH2 0x100 EXP SWAP1 DIV PUSH1 0xFF AND PUSH2 0x51D JUMPI PUSH1 0x40 MLOAD PUSH32 0x8C379A000000000000000000000000000000000000000000000000000000000 DUP2 MSTORE PUSH1 0x4 ADD PUSH2 0x514 SWAP1 PUSH2 0x1BFE JUMP JUMPDEST PUSH1 0x40 MLOAD DUP1 SWAP2 SUB SWAP1 REVERT JUMPDEST DUP1 PUSH1 0x3 DUP1 SLOAD SWAP1 POP DUP2 LT PUSH2 0x565 JUMPI PUSH1 0x40 MLOAD PUSH32 0x8C379A000000000000000000000000000000000000000000000000000000000 DUP2 MSTORE PUSH1 0x4 ADD PUSH2 0x55C SWAP1 PUSH2 0x1C66 JUMP JUMPDEST PUSH1 0x40 MLOAD DUP1 SWAP2 SUB SWAP1 REVERT JUMPDEST DUP2 PUSH1 0x3 DUP2 DUP2 SLOAD DUP2 LT PUSH2 0x57A JUMPI PUSH2 0x579 PUSH2 0x1C84 JUMP JUMPDEST JUMPDEST SWAP1 PUSH0 MSTORE PUSH1 0x20 PUSH0 KECCAK256 SWAP1 PUSH1 0x6 MUL ADD PUSH1 0x3 ADD PUSH0 SWAP1 SLOAD SWAP1 PUSH2 0x100 EXP SWAP1 DIV PUSH1 0xFF AND ISZERO PUSH2 0x5D6 JUMPI PUSH1 0x40 MLOAD PUSH32 0x8C379A000000000000000000000000000000000000000000000000000000000 DUP2 MSTORE PUSH1 0x4 ADD PUSH2 0x5CD SWAP1 PUSH2 0x1CFB JUMP JUMPDEST PUSH1 0x40 MLOAD DUP1 SWAP2 SUB SWAP1 REVERT JUMPDEST DUP3 PUSH1 0x3 DUP2 DUP2 SLOAD DUP2 LT PUSH2 0x5EB JUMPI PUSH2 0x5EA PUSH2 0x1C84 JUMP JUMPDEST JUMPDEST SWAP1 PUSH0 MSTORE PUSH1 0x20 PUSH0 KECCAK256 SWAP1 PUSH1 0x6 MUL ADD PUSH1 0x5 ADD PUSH0 SWAP1 SLOAD SWAP1 PUSH2 0x100 EXP SWAP1 DIV PUSH1 0xFF AND ISZERO PUSH2 0x647 JUMPI PUSH1 0x40 MLOAD PUSH32 0x8C379A000000000000000000000000000000000000000000000000000000000 DUP2 MSTORE PUSH1 0x4 ADD PUSH2 0x63E SWAP1 PUSH2 0x1D63 JUMP JUMPDEST PUSH1 0x40 MLOAD DUP1 SWAP2 SUB SWAP1 REVERT JUMPDEST PUSH1 0x4 PUSH0 DUP6 DUP2 MSTORE PUSH1 0x20 ADD SWAP1 DUP2 MSTORE PUSH1 0x20 ADD PUSH0 KECCAK256 PUSH0 CALLER PUSH20 0xFFFFFFFFFFFFFFFFFFFFFFFFFFFFFFFFFFFFFFFF AND PUSH20 0xFFFFFFFFFFFFFFFFFFFFFFFFFFFFFFFFFFFFFFFF AND DUP2 MSTORE PUSH1 0x20 ADD SWAP1 DUP2 MSTORE PUSH1 0x20 ADD PUSH0 KECCAK256 PUSH0 SWAP1 SLOAD SWAP1 PUSH2 0x100 EXP SWAP1 DIV PUSH1 0xFF AND PUSH2 0x6DF JUMPI PUSH1 0x40 MLOAD PUSH32 0x8C379A000000000000000000000000000000000000000000000000000000000 DUP2 MSTORE PUSH1 0x4 ADD PUSH2 0x6D6 SWAP1 PUSH2 0x1DCB JUMP JUMPDEST PUSH1 0x40 MLOAD DUP1 SWAP2 SUB SWAP1 REVERT JUMPDEST PUSH0 PUSH1 0x3 DUP6 DUP2 SLOAD DUP2 LT PUSH2 0x6F4 JUMPI PUSH2 0x6F3 PUSH2 0x1C84 JUMP JUMPDEST JUMPDEST SWAP1 PUSH0 MSTORE PUSH1 0x20 PUSH0 KECCAK256 SWAP1 PUSH1 0x6 MUL ADD SWAP1 POP PUSH0 PUSH1 0x4 PUSH0 DUP8 DUP2 MSTORE PUSH1 0x20 ADD SWAP1 DUP2 MSTORE PUSH1 0x20 ADD PUSH0 KECCAK256 PUSH0 CALLER PUSH20 0xFFFFFFFFFFFFFFFFFFFFFFFFFFFFFFFFFFFFFFFF AND PUSH20 0xFFFFFFFFFFFFFFFFFFFFFFFFFFFFFFFFFFFFFFFF AND DUP2 MSTORE PUSH1 0x20 ADD SWAP1 DUP2 MSTORE PUSH1 0x20 ADD PUSH0 KECCAK256 PUSH0 PUSH2 0x100 EXP DUP2 SLOAD DUP2 PUSH1 0xFF MUL NOT AND SWAP1 DUP4 ISZERO ISZERO MUL OR SWAP1 SSTORE POP PUSH1 0x1 DUP2 PUSH1 0x4 ADD PUSH0 DUP3 DUP3 SLOAD PUSH2 0x779 SWAP2 SWAP1 PUSH2 0x1E16 JUMP JUMPDEST SWAP3 POP POP DUP2 SWAP1 SSTORE POP DUP5 CALLER PUSH20 0xFFFFFFFFFFFFFFFFFFFFFFFFFFFFFFFFFFFFFFFF AND PUSH32 0xF0DCA620E2E81F7841D07BCC105E1704FB01475B278A9D4C236E1C62945EDD55 PUSH1 0x40 MLOAD PUSH1 0x40 MLOAD DUP1 SWAP2 SUB SWAP1 LOG3 POP POP POP POP POP JUMP JUMPDEST PUSH0 PUSH1 0x3 DUP1 SLOAD SWAP1 POP SWAP1 POP SWAP1 JUMP JUMPDEST PUSH1 0x1 PUSH1 0x20 MSTORE DUP1 PUSH0 MSTORE PUSH1 0x40 PUSH0 KECCAK256 PUSH0 SWAP2 POP SLOAD SWAP1 PUSH2 0x100 EXP SWAP1 DIV PUSH1 0xFF AND DUP2 JUMP JUMPDEST PUSH1 0x1 PUSH0 CALLER PUSH20 0xFFFFFFFFFFFFFFFFFFFFFFFFFFFFFFFFFFFFFFFF AND PUSH20 0xFFFFFFFFFFFFFFFFFFFFFFFFFFFFFFFFFFFFFFFF AND DUP2 MSTORE PUSH1 0x20 ADD SWAP1 DUP2 MSTORE PUSH1 0x20 ADD PUSH0 KECCAK256 PUSH0 SWAP1 SLOAD SWAP1 PUSH2 0x100 EXP SWAP1 DIV PUSH1 0xFF AND PUSH2 0x87D JUMPI PUSH1 0x40 MLOAD PUSH32 0x8C379A000000000000000000000000000000000000000000000000000000000 DUP2 MSTORE PUSH1 0x4 ADD PUSH2 0x874 SWAP1 PUSH2 0x1BFE JUMP JUMPDEST PUSH1 0x40 MLOAD DUP1 SWAP2 SUB SWAP1 REVERT JUMPDEST DUP1 PUSH1 0x3 DUP1 SLOAD SWAP1 POP DUP2 LT PUSH2 0x8C5 JUMPI PUSH1 0x40 MLOAD PUSH32 0x8C379A000000000000000000000000000000000000000000000000000000000 DUP2 MSTORE PUSH1 0x4 ADD PUSH2 0x8BC SWAP1 PUSH2 0x1C66 JUMP JUMPDEST PUSH1 0x40 MLOAD DUP1 SWAP2 SUB SWAP1 REVERT JUMPDEST DUP2 PUSH1 0x3 DUP2 DUP2 SLOAD DUP2 LT PUSH2 0x8DA JUMPI PUSH2 0x8D9 PUSH2 0x1C84 JUMP JUMPDEST JUMPDEST SWAP1 PUSH0 MSTORE PUSH1 0x20 PUSH0 KECCAK256 SWAP1 PUSH1 0x6 MUL ADD PUSH1 0x3 ADD PUSH0 SWAP1 SLOAD SWAP1 PUSH2 0x100 EXP SWAP1 DIV PUSH1 0xFF AND ISZERO PUSH2 0x936 JUMPI PUSH1 0x40 MLOAD PUSH32 0x8C379A000000000000000000000000000000000000000000000000000000000 DUP2 MSTORE PUSH1 0x4 ADD PUSH2 0x92D SWAP1 PUSH2 0x1CFB JUMP JUMPDEST PUSH1 0x40 MLOAD DUP1 SWAP2 SUB SWAP1 REVERT JUMPDEST DUP3 PUSH1 0x3 DUP2 DUP2 SLOAD DUP2 LT PUSH2 0x94B JUMPI PUSH2 0x94A PUSH2 0x1C84 JUMP JUMPDEST JUMPDEST SWAP1 PUSH0 MSTORE PUSH1 0x20 PUSH0 KECCAK256 SWAP1 PUSH1 0x6 MUL ADD PUSH1 0x5 ADD PUSH0 SWAP1 SLOAD SWAP1 PUSH2 0x100 EXP SWAP1 DIV PUSH1 0xFF AND ISZERO PUSH2 0x9A7 JUMPI PUSH1 0x40 MLOAD PUSH32 0x8C379A000000000000000000000000000000000000000000000000000000000 DUP2 MSTORE PUSH1 0x4 ADD PUSH2 0x99E SWAP1 PUSH2 0x1D63 JUMP JUMPDEST PUSH1 0x40 MLOAD DUP1 SWAP2 SUB SWAP1 REVERT JUMPDEST PUSH0 PUSH1 0x3 DUP6 DUP2 SLOAD DUP2 LT PUSH2 0x9BC JUMPI PUSH2 0x9BB PUSH2 0x1C84 JUMP JUMPDEST JUMPDEST SWAP1 PUSH0 MSTORE PUSH1 0x20 PUSH0 KECCAK256 SWAP1 PUSH1 0x6 MUL ADD SWAP1 POP PUSH1 0x1 DUP2 PUSH1 0x5 ADD PUSH0 PUSH2 0x100 EXP DUP2 SLOAD DUP2 PUSH1 0xFF MUL NOT AND SWAP1 DUP4 ISZERO ISZERO MUL OR SWAP1 SSTORE POP DUP5 CALLER PUSH20 0xFFFFFFFFFFFFFFFFFFFFFFFFFFFFFFFFFFFFFFFF AND PUSH32 0x219656DAA31426B2B73BB7E0B6D238FE3BEC954B7E3868F5DBB6209F2F9491AD PUSH1 0x40 MLOAD PUSH1 0x40 MLOAD DUP1 SWAP2 SUB SWAP1 LOG3 POP POP POP POP POP JUMP JUMPDEST PUSH0 DUP1 PUSH1 0x60 PUSH0 DUP1 PUSH0 DUP1 PUSH1 0x3 DUP9 DUP2 SLOAD DUP2 LT PUSH2 0xA4D JUMPI PUSH2 0xA4C PUSH2 0x1C84 JUMP JUMPDEST JUMPDEST SWAP1 PUSH0 MSTORE PUSH1 0x20 PUSH0 KECCAK256 SWAP1 PUSH1 0x6 MUL ADD SWAP1 POP DUP1 PUSH0 ADD PUSH0 SWAP1 SLOAD SWAP1 PUSH2 0x100 EXP SWAP1 DIV PUSH20 0xFFFFFFFFFFFFFFFFFFFFFFFFFFFFFFFFFFFFFFFF AND DUP2 PUSH1 0x1 ADD SLOAD DUP3 PUSH1 0x2 ADD DUP4 PUSH1 0x3 ADD PUSH0 SWAP1 SLOAD SWAP1 PUSH2 0x100 EXP SWAP1 DIV PUSH1 0xFF AND DUP5 PUSH1 0x4 ADD SLOAD DUP6 PUSH1 0x5 ADD PUSH0 SWAP1 SLOAD SWAP1 PUSH2 0x100 EXP SWAP1 DIV PUSH1 0xFF AND DUP4 DUP1 SLOAD PUSH2 0xABA SWAP1 PUSH2 0x1E76 JUMP JUMPDEST DUP1 PUSH1 0x1F ADD PUSH1 0x20 DUP1 SWAP2 DIV MUL PUSH1 0x20 ADD PUSH1 0x40 MLOAD SWAP1 DUP2 ADD PUSH1 0x40 MSTORE DUP1 SWAP3 SWAP2 SWAP1 DUP2 DUP2 MSTORE PUSH1 0x20 ADD DUP3 DUP1 SLOAD PUSH2 0xAE6 SWAP1 PUSH2 0x1E76 JUMP JUMPDEST DUP1 ISZERO PUSH2 0xB31 JUMPI DUP1 PUSH1 0x1F LT PUSH2 0xB08 JUMPI PUSH2 0x100 DUP1 DUP4 SLOAD DIV MUL DUP4 MSTORE SWAP2 PUSH1 0x20 ADD SWAP2 PUSH2 0xB31 JUMP JUMPDEST DUP3 ADD SWAP2 SWAP1 PUSH0 MSTORE PUSH1 0x20 PUSH0 KECCAK256 SWAP1 JUMPDEST DUP2 SLOAD DUP2 MSTORE SWAP1 PUSH1 0x1 ADD SWAP1 PUSH1 0x20 ADD DUP1 DUP4 GT PUSH2 0xB14 JUMPI DUP3 SWAP1 SUB PUSH1 0x1F AND DUP3 ADD SWAP2 JUMPDEST POP POP POP POP POP SWAP4 POP SWAP7 POP SWAP7 POP SWAP7 POP SWAP7 POP SWAP7 POP SWAP7 POP POP SWAP2 SWAP4 SWAP6 POP SWAP2 SWAP4 SWAP6 JUMP JUMPDEST PUSH1 0x4 PUSH1 0x20 MSTORE DUP2 PUSH0 MSTORE PUSH1 0x40 PUSH0 KECCAK256 PUSH1 0x20 MSTORE DUP1 PUSH0 MSTORE PUSH1 0x40 PUSH0 KECCAK256 PUSH0 SWAP2 POP SWAP2 POP SWAP1 SLOAD SWAP1 PUSH2 0x100 EXP SWAP1 DIV PUSH1 0xFF AND DUP2 JUMP JUMPDEST PUSH0 PUSH1 0x4 PUSH0 DUP5 DUP2 MSTORE PUSH1 0x20 ADD SWAP1 DUP2 MSTORE PUSH1 0x20 ADD PUSH0 KECCAK256 PUSH0 DUP4 PUSH20 0xFFFFFFFFFFFFFFFFFFFFFFFFFFFFFFFFFFFFFFFF AND PUSH20 0xFFFFFFFFFFFFFFFFFFFFFFFFFFFFFFFFFFFFFFFF AND DUP2 MSTORE PUSH1 0x20 ADD SWAP1 DUP2 MSTORE PUSH1 0x20 ADD PUSH0 KECCAK256 PUSH0 SWAP1 SLOAD SWAP1 PUSH2 0x100 EXP SWAP1 DIV PUSH1 0xFF AND SWAP1 POP SWAP3 SWAP2 POP POP JUMP JUMPDEST PUSH1 0x3 DUP2 DUP2 SLOAD DUP2 LT PUSH2 0xBE9 JUMPI PUSH0 DUP1 REVERT JUMPDEST SWAP1 PUSH0 MSTORE PUSH1 0x20 PUSH0 KECCAK256 SWAP1 PUSH1 0x6 MUL ADD PUSH0 SWAP2 POP SWAP1 POP DUP1 PUSH0 ADD PUSH0 SWAP1 SLOAD SWAP1 PUSH2 0x100 EXP SWAP1 DIV PUSH20 0xFFFFFFFFFFFFFFFFFFFFFFFFFFFFFFFFFFFFFFFF AND SWAP1 DUP1 PUSH1 0x1 ADD SLOAD SWAP1 DUP1 PUSH1 0x2 ADD DUP1 SLOAD PUSH2 0xC33 SWAP1 PUSH2 0x1E76 JUMP JUMPDEST DUP1 PUSH1 0x1F ADD PUSH1 0x20 DUP1 SWAP2 DIV MUL PUSH1 0x20 ADD PUSH1 0x40 MLOAD SWAP1 DUP2 ADD PUSH1 0x40 MSTORE DUP1 SWAP3 SWAP2 SWAP1 DUP2 DUP2 MSTORE PUSH1 0x20 ADD DUP3 DUP1 SLOAD PUSH2 0xC5F SWAP1 PUSH2 0x1E76 JUMP JUMPDEST DUP1 ISZERO PUSH2 0xCAA JUMPI DUP1 PUSH1 0x1F LT PUSH2 0xC81 JUMPI PUSH2 0x100 DUP1 DUP4 SLOAD DIV MUL DUP4 MSTORE SWAP2 PUSH1 0x20 ADD SWAP2 PUSH2 0xCAA JUMP JUMPDEST DUP3 ADD SWAP2 SWAP1 PUSH0 MSTORE PUSH1 0x20 PUSH0 KECCAK256 SWAP1 JUMPDEST DUP2 SLOAD DUP2 MSTORE SWAP1 PUSH1 0x1 ADD SWAP1 PUSH1 0x20 ADD DUP1 DUP4 GT PUSH2 0xC8D JUMPI DUP3 SWAP1 SUB PUSH1 0x1F AND DUP3 ADD SWAP2 JUMPDEST POP POP POP POP POP SWAP1 DUP1 PUSH1 0x3 ADD PUSH0 SWAP1 SLOAD SWAP1 PUSH2 0x100 EXP SWAP1 DIV PUSH1 0xFF AND SWAP1 DUP1 PUSH1 0x4 ADD SLOAD SWAP1 DUP1 PUSH1 0x5 ADD PUSH0 SWAP1 SLOAD SWAP1 PUSH2 0x100 EXP SWAP1 DIV PUSH1 0xFF AND SWAP1 POP DUP7 JUMP JUMPDEST PUSH1 0x60 PUSH0 DUP1 SLOAD DUP1 PUSH1 0x20 MUL PUSH1 0x20 ADD PUSH1 0x40 MLOAD SWAP1 DUP2 ADD PUSH1 0x40 MSTORE DUP1 SWAP3 SWAP2 SWAP1 DUP2 DUP2 MSTORE PUSH1 0x20 ADD DUP3 DUP1 SLOAD DUP1 ISZERO PUSH2 0xD5E JUMPI PUSH1 0x20 MUL DUP3 ADD SWAP2 SWAP1 PUSH0 MSTORE PUSH1 0x20 PUSH0 KECCAK256 SWAP1 JUMPDEST DUP2 PUSH0 SWAP1 SLOAD SWAP1 PUSH2 0x100 EXP SWAP1 DIV PUSH20 0xFFFFFFFFFFFFFFFFFFFFFFFFFFFFFFFFFFFFFFFF AND PUSH20 0xFFFFFFFFFFFFFFFFFFFFFFFFFFFFFFFFFFFFFFFF AND DUP2 MSTORE PUSH1 0x20 ADD SWAP1 PUSH1 0x1 ADD SWAP1 DUP1 DUP4 GT PUSH2 0xD15 JUMPI JUMPDEST POP POP POP POP POP SWAP1 POP SWAP1 JUMP JUMPDEST PUSH1 0x1 PUSH0 CALLER PUSH20 0xFFFFFFFFFFFFFFFFFFFFFFFFFFFFFFFFFFFFFFFF AND PUSH20 0xFFFFFFFFFFFFFFFFFFFFFFFFFFFFFFFFFFFFFFFF AND DUP2 MSTORE PUSH1 0x20 ADD SWAP1 DUP2 MSTORE PUSH1 0x20 ADD PUSH0 KECCAK256 PUSH0 SWAP1 SLOAD SWAP1 PUSH2 0x100 EXP SWAP1 DIV PUSH1 0xFF AND PUSH2 0xDF1 JUMPI PUSH1 0x40 MLOAD PUSH32 0x8C379A000000000000000000000000000000000000000000000000000000000 DUP2 MSTORE PUSH1 0x4 ADD PUSH2 0xDE8 SWAP1 PUSH2 0x1BFE JUMP JUMPDEST PUSH1 0x40 MLOAD DUP1 SWAP2 SUB SWAP1 REVERT JUMPDEST DUP1 PUSH1 0x3 DUP1 SLOAD SWAP1 POP DUP2 LT PUSH2 0xE39 JUMPI PUSH1 0x40 MLOAD PUSH32 0x8C379A000000000000000000000000000000000000000000000000000000000 DUP2 MSTORE PUSH1 0x4 ADD PUSH2 0xE30 SWAP1 PUSH2 0x1C66 JUMP JUMPDEST PUSH1 0x40 MLOAD DUP1 SWAP2 SUB SWAP1 REVERT JUMPDEST DUP2 PUSH1 0x3 DUP2 DUP2 SLOAD DUP2 LT PUSH2 0xE4E JUMPI PUSH2 0xE4D PUSH2 0x1C84 JUMP JUMPDEST JUMPDEST SWAP1 PUSH0 MSTORE PUSH1 0x20 PUSH0 KECCAK256 SWAP1 PUSH1 0x6 MUL ADD PUSH1 0x3 ADD PUSH0 SWAP1 SLOAD SWAP1 PUSH2 0x100 EXP SWAP1 DIV PUSH1 0xFF AND ISZERO PUSH2 0xEAA JUMPI PUSH1 0x40 MLOAD PUSH32 0x8C379A000000000000000000000000000000000000000000000000000000000 DUP2 MSTORE PUSH1 0x4 ADD PUSH2 0xEA1 SWAP1 PUSH2 0x1CFB JUMP JUMPDEST PUSH1 0x40 MLOAD DUP1 SWAP2 SUB SWAP1 REVERT JUMPDEST DUP3 PUSH1 0x3 DUP2 DUP2 SLOAD DUP2 LT PUSH2 0xEBF JUMPI PUSH2 0xEBE PUSH2 0x1C84 JUMP JUMPDEST JUMPDEST SWAP1 PUSH0 MSTORE PUSH1 0x20 PUSH0 KECCAK256 SWAP1 PUSH1 0x6 MUL ADD PUSH1 0x5 ADD PUSH0 SWAP1 SLOAD SWAP1 PUSH2 0x100 EXP SWAP1 DIV PUSH1 0xFF AND ISZERO PUSH2 0xF1B JUMPI PUSH1 0x40 MLOAD PUSH32 0x8C379A000000000000000000000000000000000000000000000000000000000 DUP2 MSTORE PUSH1 0x4 ADD PUSH2 0xF12 SWAP1 PUSH2 0x1D63 JUMP JUMPDEST PUSH1 0x40 MLOAD DUP1 SWAP2 SUB SWAP1 REVERT JUMPDEST DUP4 PUSH1 0x4 PUSH0 DUP3 DUP2 MSTORE PUSH1 0x20 ADD SWAP1 DUP2 MSTORE PUSH1 0x20 ADD PUSH0 KECCAK256 PUSH0 CALLER PUSH20 0xFFFFFFFFFFFFFFFFFFFFFFFFFFFFFFFFFFFFFFFF AND PUSH20 0xFFFFFFFFFFFFFFFFFFFFFFFFFFFFFFFFFFFFFFFF AND DUP2 MSTORE PUSH1 0x20 ADD SWAP1 DUP2 MSTORE PUSH1 0x20 ADD PUSH0 KECCAK256 PUSH0 SWAP1 SLOAD SWAP1 PUSH2 0x100 EXP SWAP1 DIV PUSH1 0xFF AND ISZERO PUSH2 0xFB5 JUMPI PUSH1 0x40 MLOAD PUSH32 0x8C379A000000000000000000000000000000000000000000000000000000000 DUP2 MSTORE PUSH1 0x4 ADD PUSH2 0xFAC SWAP1 PUSH2 0x1EF0 JUMP JUMPDEST PUSH1 0x40 MLOAD DUP1 SWAP2 SUB SWAP1 REVERT JUMPDEST PUSH0 PUSH1 0x3 DUP7 DUP2 SLOAD DUP2 LT PUSH2 0xFCA JUMPI PUSH2 0xFC9 PUSH2 0x1C84 JUMP JUMPDEST JUMPDEST SWAP1 PUSH0 MSTORE PUSH1 0x20 PUSH0 KECCAK256 SWAP1 PUSH1 0x6 MUL ADD SWAP1 POP PUSH1 0x1 PUSH1 0x4 PUSH0 DUP9 DUP2 MSTORE PUSH1 0x20 ADD SWAP1 DUP2 MSTORE PUSH1 0x20 ADD PUSH0 KECCAK256 PUSH0 CALLER PUSH20 0xFFFFFFFFFFFFFFFFFFFFFFFFFFFFFFFFFFFFFFFF AND PUSH20 0xFFFFFFFFFFFFFFFFFFFFFFFFFFFFFFFFFFFFFFFF AND DUP2 MSTORE PUSH1 0x20 ADD SWAP1 DUP2 MSTORE PUSH1 0x20 ADD PUSH0 KECCAK256 PUSH0 PUSH2 0x100 EXP DUP2 SLOAD DUP2 PUSH1 0xFF MUL NOT AND SWAP1 DUP4 ISZERO ISZERO MUL OR SWAP1 SSTORE POP PUSH1 0x1 DUP2 PUSH1 0x4 ADD PUSH0 DUP3 DUP3 SLOAD PUSH2 0x1050 SWAP2 SWAP1 PUSH2 0x1F0E JUMP JUMPDEST SWAP3 POP POP DUP2 SWAP1 SSTORE POP DUP6 CALLER PUSH20 0xFFFFFFFFFFFFFFFFFFFFFFFFFFFFFFFFFFFFFFFF AND PUSH32 0x5CBE105E36805F7820E291F799D5794FF948AF2A5F664E580382DEFB63390041 PUSH1 0x40 MLOAD PUSH1 0x40 MLOAD DUP1 SWAP2 SUB SWAP1 LOG3 PUSH2 0x10A4 DUP7 PUSH2 0x1364 JUMP JUMPDEST POP POP POP POP POP POP JUMP JUMPDEST PUSH0 PUSH1 0x1 PUSH0 CALLER PUSH20 0xFFFFFFFFFFFFFFFFFFFFFFFFFFFFFFFFFFFFFFFF AND PUSH20 0xFFFFFFFFFFFFFFFFFFFFFFFFFFFFFFFFFFFFFFFF AND DUP2 MSTORE PUSH1 0x20 ADD SWAP1 DUP2 MSTORE PUSH1 0x20 ADD PUSH0 KECCAK256 PUSH0 SWAP1 SLOAD SWAP1 PUSH2 0x100 EXP SWAP1 DIV PUSH1 0xFF AND PUSH2 0x1136 JUMPI PUSH1 0x40 MLOAD PUSH32 0x8C379A000000000000000000000000000000000000000000000000000000000 DUP2 MSTORE PUSH1 0x4 ADD PUSH2 0x112D SWAP1 PUSH2 0x1BFE JUMP JUMPDEST PUSH1 0x40 MLOAD DUP1 SWAP2 SUB SWAP1 REVERT JUMPDEST PUSH1 0x3 DUP1 SLOAD SWAP1 POP SWAP1 POP PUSH1 0x3 PUSH1 0x40 MLOAD DUP1 PUSH1 0xC0 ADD PUSH1 0x40 MSTORE DUP1 DUP7 PUSH20 0xFFFFFFFFFFFFFFFFFFFFFFFFFFFFFFFFFFFFFFFF AND DUP2 MSTORE PUSH1 0x20 ADD DUP6 DUP2 MSTORE PUSH1 0x20 ADD DUP5 DUP2 MSTORE PUSH1 0x20 ADD PUSH0 ISZERO ISZERO DUP2 MSTORE PUSH1 0x20 ADD PUSH0 DUP2 MSTORE PUSH1 0x20 ADD PUSH0 ISZERO ISZERO DUP2 MSTORE POP SWAP1 DUP1 PUSH1 0x1 DUP2 SLOAD ADD DUP1 DUP3 SSTORE DUP1 SWAP2 POP POP PUSH1 0x1 SWAP1 SUB SWAP1 PUSH0 MSTORE PUSH1 0x20 PUSH0 KECCAK256 SWAP1 PUSH1 0x6 MUL ADD PUSH0 SWAP1 SWAP2 SWAP1 SWAP2 SWAP1 SWAP2 POP PUSH0 DUP3 ADD MLOAD DUP2 PUSH0 ADD PUSH0 PUSH2 0x100 EXP DUP2 SLOAD DUP2 PUSH20 0xFFFFFFFFFFFFFFFFFFFFFFFFFFFFFFFFFFFFFFFF MUL NOT AND SWAP1 DUP4 PUSH20 0xFFFFFFFFFFFFFFFFFFFFFFFFFFFFFFFFFFFFFFFF AND MUL OR SWAP1 SSTORE POP PUSH1 0x20 DUP3 ADD MLOAD DUP2 PUSH1 0x1 ADD SSTORE PUSH1 0x40 DUP3 ADD MLOAD DUP2 PUSH1 0x2 ADD SWAP1 DUP2 PUSH2 0x1210 SWAP2 SWAP1 PUSH2 0x20DE JUMP JUMPDEST POP PUSH1 0x60 DUP3 ADD MLOAD DUP2 PUSH1 0x3 ADD PUSH0 PUSH2 0x100 EXP DUP2 SLOAD DUP2 PUSH1 0xFF MUL NOT AND SWAP1 DUP4 ISZERO ISZERO MUL OR SWAP1 SSTORE POP PUSH1 0x80 DUP3 ADD MLOAD DUP2 PUSH1 0x4 ADD SSTORE PUSH1 0xA0 DUP3 ADD MLOAD DUP2 PUSH1 0x5 ADD PUSH0 PUSH2 0x100 EXP DUP2 SLOAD DUP2 PUSH1 0xFF MUL NOT AND SWAP1 DUP4 ISZERO ISZERO MUL OR SWAP1 SSTORE POP POP POP DUP4 PUSH20 0xFFFFFFFFFFFFFFFFFFFFFFFFFFFFFFFFFFFFFFFF AND DUP2 CALLER PUSH20 0xFFFFFFFFFFFFFFFFFFFFFFFFFFFFFFFFFFFFFFFF AND PUSH32 0xD5A05BF70715AD82A09A756320284A1B54C9FF74CD0F8CCE6219E79B563FE59D DUP7 DUP7 PUSH1 0x40 MLOAD PUSH2 0x12BB SWAP3 SWAP2 SWAP1 PUSH2 0x21AD JUMP JUMPDEST PUSH1 0x40 MLOAD DUP1 SWAP2 SUB SWAP1 LOG4 SWAP4 SWAP3 POP POP POP JUMP JUMPDEST PUSH0 CALLVALUE GT PUSH2 0x130C JUMPI PUSH1 0x40 MLOAD PUSH32 0x8C379A000000000000000000000000000000000000000000000000000000000 DUP2 MSTORE PUSH1 0x4 ADD PUSH2 0x1303 SWAP1 PUSH2 0x2225 JUMP JUMPDEST PUSH1 0x40 MLOAD DUP1 SWAP2 SUB SWAP1 REVERT JUMPDEST CALLER PUSH20 0xFFFFFFFFFFFFFFFFFFFFFFFFFFFFFFFFFFFFFFFF AND PUSH32 0x90890809C654F11D6E72A28FA60149770A0D11EC6C92319D6CEB2BB0A4EA1A15 CALLVALUE SELFBALANCE PUSH1 0x40 MLOAD PUSH2 0x1354 SWAP3 SWAP2 SWAP1 PUSH2 0x169B JUMP JUMPDEST PUSH1 0x40 MLOAD DUP1 SWAP2 SUB SWAP1 LOG2 JUMP JUMPDEST PUSH1 0x2 SLOAD DUP2 JUMP JUMPDEST PUSH1 0x1 PUSH0 CALLER PUSH20 0xFFFFFFFFFFFFFFFFFFFFFFFFFFFFFFFFFFFFFFFF AND PUSH20 0xFFFFFFFFFFFFFFFFFFFFFFFFFFFFFFFFFFFFFFFF AND DUP2 MSTORE PUSH1 0x20 ADD SWAP1 DUP2 MSTORE PUSH1 0x20 ADD PUSH0 KECCAK256 PUSH0 SWAP1 SLOAD SWAP1 PUSH2 0x100 EXP SWAP1 DIV PUSH1 0xFF AND PUSH2 0x13ED JUMPI PUSH1 0x40 MLOAD PUSH32 0x8C379A000000000000000000000000000000000000000000000000000000000 DUP2 MSTORE PUSH1 0x4 ADD PUSH2 0x13E4 SWAP1 PUSH2 0x1BFE JUMP JUMPDEST PUSH1 0x40 MLOAD DUP1 SWAP2 SUB SWAP1 REVERT JUMPDEST DUP1 PUSH1 0x3 DUP1 SLOAD SWAP1 POP DUP2 LT PUSH2 0x1435 JUMPI PUSH1 0x40 MLOAD PUSH32 0x8C379A000000000000000000000000000000000000000000000000000000000 DUP2 MSTORE PUSH1 0x4 ADD PUSH2 0x142C SWAP1 PUSH2 0x1C66 JUMP JUMPDEST PUSH1 0x40 MLOAD DUP1 SWAP2 SUB SWAP1 REVERT JUMPDEST DUP2 PUSH1 0x3 DUP2 DUP2 SLOAD DUP2 LT PUSH2 0x144A JUMPI PUSH2 0x1449 PUSH2 0x1C84 JUMP JUMPDEST JUMPDEST SWAP1 PUSH0 MSTORE PUSH1 0x20 PUSH0 KECCAK256 SWAP1 PUSH1 0x6 MUL ADD PUSH1 0x3 ADD PUSH0 SWAP1 SLOAD SWAP1 PUSH2 0x100 EXP SWAP1 DIV PUSH1 0xFF AND ISZERO PUSH2 0x14A6 JUMPI PUSH1 0x40 MLOAD PUSH32 0x8C379A000000000000000000000000000000000000000000000000000000000 DUP2 MSTORE PUSH1 0x4 ADD PUSH2 0x149D SWAP1 PUSH2 0x1CFB JUMP JUMPDEST PUSH1 0x40 MLOAD DUP1 SWAP2 SUB SWAP1 REVERT JUMPDEST DUP3 PUSH1 0x3 DUP2 DUP2 SLOAD DUP2 LT PUSH2 0x14BB JUMPI PUSH2 0x14BA PUSH2 0x1C84 JUMP JUMPDEST JUMPDEST SWAP1 PUSH0 MSTORE PUSH1 0x20 PUSH0 KECCAK256 SWAP1 PUSH1 0x6 MUL ADD PUSH1 0x5 ADD PUSH0 SWAP1 SLOAD SWAP1 PUSH2 0x100 EXP SWAP1 DIV PUSH1 0xFF AND ISZERO PUSH2 0x1517 JUMPI PUSH1 0x40 MLOAD PUSH32 0x8C379A000000000000000000000000000000000000000000000000000000000 DUP2 MSTORE PUSH1 0x4 ADD PUSH2 0x150E SWAP1 PUSH2 0x1D63 JUMP JUMPDEST PUSH1 0x40 MLOAD DUP1 SWAP2 SUB SWAP1 REVERT JUMPDEST PUSH0 PUSH1 0x3 DUP6 DUP2 SLOAD DUP2 LT PUSH2 0x152C JUMPI PUSH2 0x152B PUSH2 0x1C84 JUMP JUMPDEST JUMPDEST SWAP1 PUSH0 MSTORE PUSH1 0x20 PUSH0 KECCAK256 SWAP1 PUSH1 0x6 MUL ADD SWAP1 POP PUSH1 0x2 SLOAD DUP2 PUSH1 0x4 ADD SLOAD LT PUSH2 0x167C JUMPI PUSH1 0x1 DUP2 PUSH1 0x3 ADD PUSH0 PUSH2 0x100 EXP DUP2 SLOAD DUP2 PUSH1 0xFF MUL NOT AND SWAP1 DUP4 ISZERO ISZERO MUL OR SWAP1 SSTORE POP PUSH0 DUP2 PUSH0 ADD PUSH0 SWAP1 SLOAD SWAP1 PUSH2 0x100 EXP SWAP1 DIV PUSH20 0xFFFFFFFFFFFFFFFFFFFFFFFFFFFFFFFFFFFFFFFF AND PUSH20 0xFFFFFFFFFFFFFFFFFFFFFFFFFFFFFFFFFFFFFFFF AND DUP3 PUSH1 0x1 ADD SLOAD DUP4 PUSH1 0x2 ADD PUSH1 0x40 MLOAD PUSH2 0x15B3 SWAP2 SWAP1 PUSH2 0x22CD JUMP JUMPDEST PUSH0 PUSH1 0x40 MLOAD DUP1 DUP4 SUB DUP2 DUP6 DUP8 GAS CALL SWAP3 POP POP POP RETURNDATASIZE DUP1 PUSH0 DUP2 EQ PUSH2 0x15ED JUMPI PUSH1 0x40 MLOAD SWAP2 POP PUSH1 0x1F NOT PUSH1 0x3F RETURNDATASIZE ADD AND DUP3 ADD PUSH1 0x40 MSTORE RETURNDATASIZE DUP3 MSTORE RETURNDATASIZE PUSH0 PUSH1 0x20 DUP5 ADD RETURNDATACOPY PUSH2 0x15F2 JUMP JUMPDEST PUSH1 0x60 SWAP2 POP JUMPDEST POP POP SWAP1 POP DUP1 PUSH2 0x1636 JUMPI PUSH1 0x40 MLOAD PUSH32 0x8C379A000000000000000000000000000000000000000000000000000000000 DUP2 MSTORE PUSH1 0x4 ADD PUSH2 0x162D SWAP1 PUSH2 0x232D JUMP JUMPDEST PUSH1 0x40 MLOAD DUP1 SWAP2 SUB SWAP1 REVERT JUMPDEST DUP6 CALLER PUSH20 0xFFFFFFFFFFFFFFFFFFFFFFFFFFFFFFFFFFFFFFFF AND PUSH32 0x5445F318F4F5FCFB66592E68E0CC5822AA15664039BD5F0FFDE24C5A8142B1AC PUSH1 0x40 MLOAD PUSH1 0x40 MLOAD DUP1 SWAP2 SUB SWAP1 LOG3 POP JUMPDEST POP POP POP POP POP JUMP JUMPDEST PUSH0 DUP2 SWAP1 POP SWAP2 SWAP1 POP JUMP JUMPDEST PUSH2 0x1695 DUP2 PUSH2 0x1683 JUMP JUMPDEST DUP3 MSTORE POP POP JUMP JUMPDEST PUSH0 PUSH1 0x40 DUP3 ADD SWAP1 POP PUSH2 0x16AE PUSH0 DUP4 ADD DUP6 PUSH2 0x168C JUMP JUMPDEST PUSH2 0x16BB PUSH1 0x20 DUP4 ADD DUP5 PUSH2 0x168C JUMP JUMPDEST SWAP4 SWAP3 POP POP POP JUMP JUMPDEST PUSH0 PUSH1 0x40 MLOAD SWAP1 POP SWAP1 JUMP JUMPDEST PUSH0 DUP1 REVERT JUMPDEST PUSH0 DUP1 REVERT JUMPDEST PUSH2 0x16DC DUP2 PUSH2 0x1683 JUMP JUMPDEST DUP2 EQ PUSH2 0x16E6 JUMPI PUSH0 DUP1 REVERT JUMPDEST POP JUMP JUMPDEST PUSH0 DUP2 CALLDATALOAD SWAP1 POP PUSH2 0x16F7 DUP2 PUSH2 0x16D3 JUMP JUMPDEST SWAP3 SWAP2 POP POP JUMP JUMPDEST PUSH0 PUSH1 0x20 DUP3 DUP5 SUB SLT ISZERO PUSH2 0x1712 JUMPI PUSH2 0x1711 PUSH2 0x16CB JUMP JUMPDEST JUMPDEST PUSH0 PUSH2 0x171F DUP5 DUP3 DUP6 ADD PUSH2 0x16E9 JUMP JUMPDEST SWAP2 POP POP SWAP3 SWAP2 POP POP JUMP JUMPDEST PUSH0 PUSH20 0xFFFFFFFFFFFFFFFFFFFFFFFFFFFFFFFFFFFFFFFF DUP3 AND SWAP1 POP SWAP2 SWAP1 POP JUMP JUMPDEST PUSH0 PUSH2 0x1751 DUP3 PUSH2 0x1728 JUMP JUMPDEST SWAP1 POP SWAP2 SWAP1 POP JUMP JUMPDEST PUSH2 0x1761 DUP2 PUSH2 0x1747 JUMP JUMPDEST DUP3 MSTORE POP POP JUMP JUMPDEST PUSH0 PUSH1 0x20 DUP3 ADD SWAP1 POP PUSH2 0x177A PUSH0 DUP4 ADD DUP5 PUSH2 0x1758 JUMP JUMPDEST SWAP3 SWAP2 POP POP JUMP JUMPDEST PUSH0 PUSH1 0x20 DUP3 ADD SWAP1 POP PUSH2 0x1793 PUSH0 DUP4 ADD DUP5 PUSH2 0x168C JUMP JUMPDEST SWAP3 SWAP2 POP POP JUMP JUMPDEST PUSH2 0x17A2 DUP2 PUSH2 0x1747 JUMP JUMPDEST DUP2 EQ PUSH2 0x17AC JUMPI PUSH0 DUP1 REVERT JUMPDEST POP JUMP JUMPDEST PUSH0 DUP2 CALLDATALOAD SWAP1 POP PUSH2 0x17BD DUP2 PUSH2 0x1799 JUMP JUMPDEST SWAP3 SWAP2 POP POP JUMP JUMPDEST PUSH0 PUSH1 0x20 DUP3 DUP5 SUB SLT ISZERO PUSH2 0x17D8 JUMPI PUSH2 0x17D7 PUSH2 0x16CB JUMP JUMPDEST JUMPDEST PUSH0 PUSH2 0x17E5 DUP5 DUP3 DUP6 ADD PUSH2 0x17AF JUMP JUMPDEST SWAP2 POP POP SWAP3 SWAP2 POP POP JUMP JUMPDEST PUSH0 DUP2 ISZERO ISZERO SWAP1 POP SWAP2 SWAP1 POP JUMP JUMPDEST PUSH2 0x1802 DUP2 PUSH2 0x17EE JUMP JUMPDEST DUP3 MSTORE POP POP JUMP JUMPDEST PUSH0 PUSH1 0x20 DUP3 ADD SWAP1 POP PUSH2 0x181B PUSH0 DUP4 ADD DUP5 PUSH2 0x17F9 JUMP JUMPDEST SWAP3 SWAP2 POP POP JUMP JUMPDEST PUSH0 DUP2 MLOAD SWAP1 POP SWAP2 SWAP1 POP JUMP JUMPDEST PUSH0 DUP3 DUP3 MSTORE PUSH1 0x20 DUP3 ADD SWAP1 POP SWAP3 SWAP2 POP POP JUMP JUMPDEST DUP3 DUP2 DUP4 MCOPY PUSH0 DUP4 DUP4 ADD MSTORE POP POP POP JUMP JUMPDEST PUSH0 PUSH1 0x1F NOT PUSH1 0x1F DUP4 ADD AND SWAP1 POP SWAP2 SWAP1 POP JUMP JUMPDEST PUSH0 PUSH2 0x1863 DUP3 PUSH2 0x1821 JUMP JUMPDEST PUSH2 0x186D DUP2 DUP6 PUSH2 0x182B JUMP JUMPDEST SWAP4 POP PUSH2 0x187D DUP2 DUP6 PUSH1 0x20 DUP7 ADD PUSH2 0x183B JUMP JUMPDEST PUSH2 0x1886 DUP2 PUSH2 0x1849 JUMP JUMPDEST DUP5 ADD SWAP2 POP POP SWAP3 SWAP2 POP POP JUMP JUMPDEST PUSH0 PUSH1 0xC0 DUP3 ADD SWAP1 POP PUSH2 0x18A4 PUSH0 DUP4 ADD DUP10 PUSH2 0x1758 JUMP JUMPDEST PUSH2 0x18B1 PUSH1 0x20 DUP4 ADD DUP9 PUSH2 0x168C JUMP JUMPDEST DUP2 DUP2 SUB PUSH1 0x40 DUP4 ADD MSTORE PUSH2 0x18C3 DUP2 DUP8 PUSH2 0x1859 JUMP JUMPDEST SWAP1 POP PUSH2 0x18D2 PUSH1 0x60 DUP4 ADD DUP7 PUSH2 0x17F9 JUMP JUMPDEST PUSH2 0x18DF PUSH1 0x80 DUP4 ADD DUP6 PUSH2 0x168C JUMP JUMPDEST PUSH2 0x18EC PUSH1 0xA0 DUP4 ADD DUP5 PUSH2 0x17F9 JUMP JUMPDEST SWAP8 SWAP7 POP POP POP POP POP POP POP JUMP JUMPDEST PUSH0 DUP1 PUSH1 0x40 DUP4 DUP6 SUB SLT ISZERO PUSH2 0x190D JUMPI PUSH2 0x190C PUSH2 0x16CB JUMP JUMPDEST JUMPDEST PUSH0 PUSH2 0x191A DUP6 DUP3 DUP7 ADD PUSH2 0x16E9 JUMP JUMPDEST SWAP3 POP POP PUSH1 0x20 PUSH2 0x192B DUP6 DUP3 DUP7 ADD PUSH2 0x17AF JUMP JUMPDEST SWAP2 POP POP SWAP3 POP SWAP3 SWAP1 POP JUMP JUMPDEST PUSH0 DUP2 MLOAD SWAP1 POP SWAP2 SWAP1 POP JUMP JUMPDEST PUSH0 DUP3 DUP3 MSTORE PUSH1 0x20 DUP3 ADD SWAP1 POP SWAP3 SWAP2 POP POP JUMP JUMPDEST PUSH0 DUP2 SWAP1 POP PUSH1 0x20 DUP3 ADD SWAP1 POP SWAP2 SWAP1 POP JUMP JUMPDEST PUSH2 0x1967 DUP2 PUSH2 0x1747 JUMP JUMPDEST DUP3 MSTORE POP POP JUMP JUMPDEST PUSH0 PUSH2 0x1978 DUP4 DUP4 PUSH2 0x195E JUMP JUMPDEST PUSH1 0x20 DUP4 ADD SWAP1 POP SWAP3 SWAP2 POP POP JUMP JUMPDEST PUSH0 PUSH1 0x20 DUP3 ADD SWAP1 POP SWAP2 SWAP1 POP JUMP JUMPDEST PUSH0 PUSH2 0x199A DUP3 PUSH2 0x1935 JUMP JUMPDEST PUSH2 0x19A4 DUP2 DUP6 PUSH2 0x193F JUMP JUMPDEST SWAP4 POP PUSH2 0x19AF DUP4 PUSH2 0x194F JUMP JUMPDEST DUP1 PUSH0 JUMPDEST DUP4 DUP2 LT ISZERO PUSH2 0x19DF JUMPI DUP2 MLOAD PUSH2 0x19C6 DUP9 DUP3 PUSH2 0x196D JUMP JUMPDEST SWAP8 POP PUSH2 0x19D1 DUP4 PUSH2 0x1984 JUMP JUMPDEST SWAP3 POP POP PUSH1 0x1 DUP2 ADD SWAP1 POP PUSH2 0x19B2 JUMP JUMPDEST POP DUP6 SWAP4 POP POP POP POP SWAP3 SWAP2 POP POP JUMP JUMPDEST PUSH0 PUSH1 0x20 DUP3 ADD SWAP1 POP DUP2 DUP2 SUB PUSH0 DUP4 ADD MSTORE PUSH2 0x1A04 DUP2 DUP5 PUSH2 0x1990 JUMP JUMPDEST SWAP1 POP SWAP3 SWAP2 POP POP JUMP JUMPDEST PUSH0 DUP1 REVERT JUMPDEST PUSH0 DUP1 REVERT JUMPDEST PUSH32 0x4E487B7100000000000000000000000000000000000000000000000000000000 PUSH0 MSTORE PUSH1 0x41 PUSH1 0x4 MSTORE PUSH1 0x24 PUSH0 REVERT JUMPDEST PUSH2 0x1A4A DUP3 PUSH2 0x1849 JUMP JUMPDEST DUP2 ADD DUP2 DUP2 LT PUSH8 0xFFFFFFFFFFFFFFFF DUP3 GT OR ISZERO PUSH2 0x1A69 JUMPI PUSH2 0x1A68 PUSH2 0x1A14 JUMP JUMPDEST JUMPDEST DUP1 PUSH1 0x40 MSTORE POP POP POP JUMP JUMPDEST PUSH0 PUSH2 0x1A7B PUSH2 0x16C2 JUMP JUMPDEST SWAP1 POP PUSH2 0x1A87 DUP3 DUP3 PUSH2 0x1A41 JUMP JUMPDEST SWAP2 SWAP1 POP JUMP JUMPDEST PUSH0 PUSH8 0xFFFFFFFFFFFFFFFF DUP3 GT ISZERO PUSH2 0x1AA6 JUMPI PUSH2 0x1AA5 PUSH2 0x1A14 JUMP JUMPDEST JUMPDEST PUSH2 0x1AAF DUP3 PUSH2 0x1849 JUMP JUMPDEST SWAP1 POP PUSH1 0x20 DUP2 ADD SWAP1 POP SWAP2 SWAP1 POP JUMP JUMPDEST DUP3 DUP2 DUP4 CALLDATACOPY PUSH0 DUP4 DUP4 ADD MSTORE POP POP POP JUMP JUMPDEST PUSH0 PUSH2 0x1ADC PUSH2 0x1AD7 DUP5 PUSH2 0x1A8C JUMP JUMPDEST PUSH2 0x1A72 JUMP JUMPDEST SWAP1 POP DUP3 DUP2 MSTORE PUSH1 0x20 DUP2 ADD DUP5 DUP5 DUP5 ADD GT ISZERO PUSH2 0x1AF8 JUMPI PUSH2 0x1AF7 PUSH2 0x1A10 JUMP JUMPDEST JUMPDEST PUSH2 0x1B03 DUP5 DUP3 DUP6 PUSH2 0x1ABC JUMP JUMPDEST POP SWAP4 SWAP3 POP POP POP JUMP JUMPDEST PUSH0 DUP3 PUSH1 0x1F DUP4 ADD SLT PUSH2 0x1B1F JUMPI PUSH2 0x1B1E PUSH2 0x1A0C JUMP JUMPDEST JUMPDEST DUP2 CALLDATALOAD PUSH2 0x1B2F DUP5 DUP3 PUSH1 0x20 DUP7 ADD PUSH2 0x1ACA JUMP JUMPDEST SWAP2 POP POP SWAP3 SWAP2 POP POP JUMP JUMPDEST PUSH0 DUP1 PUSH0 PUSH1 0x60 DUP5 DUP7 SUB SLT ISZERO PUSH2 0x1B4F JUMPI PUSH2 0x1B4E PUSH2 0x16CB JUMP JUMPDEST JUMPDEST PUSH0 PUSH2 0x1B5C DUP7 DUP3 DUP8 ADD PUSH2 0x17AF JUMP JUMPDEST SWAP4 POP POP PUSH1 0x20 PUSH2 0x1B6D DUP7 DUP3 DUP8 ADD PUSH2 0x16E9 JUMP JUMPDEST SWAP3 POP POP PUSH1 0x40 DUP5 ADD CALLDATALOAD PUSH8 0xFFFFFFFFFFFFFFFF DUP2 GT ISZERO PUSH2 0x1B8E JUMPI PUSH2 0x1B8D PUSH2 0x16CF JUMP JUMPDEST JUMPDEST PUSH2 0x1B9A DUP7 DUP3 DUP8 ADD PUSH2 0x1B0B JUMP JUMPDEST SWAP2 POP POP SWAP3 POP SWAP3 POP SWAP3 JUMP JUMPDEST PUSH0 DUP3 DUP3 MSTORE PUSH1 0x20 DUP3 ADD SWAP1 POP SWAP3 SWAP2 POP POP JUMP JUMPDEST PUSH32 0x4E6F7420616E206F776E65720000000000000000000000000000000000000000 PUSH0 DUP3 ADD MSTORE POP JUMP JUMPDEST PUSH0 PUSH2 0x1BE8 PUSH1 0xC DUP4 PUSH2 0x1BA4 JUMP JUMPDEST SWAP2 POP PUSH2 0x1BF3 DUP3 PUSH2 0x1BB4 JUMP JUMPDEST PUSH1 0x20 DUP3 ADD SWAP1 POP SWAP2 SWAP1 POP JUMP JUMPDEST PUSH0 PUSH1 0x20 DUP3 ADD SWAP1 POP DUP2 DUP2 SUB PUSH0 DUP4 ADD MSTORE PUSH2 0x1C15 DUP2 PUSH2 0x1BDC JUMP JUMPDEST SWAP1 POP SWAP2 SWAP1 POP JUMP JUMPDEST PUSH32 0x5472616E73616374696F6E20646F6573206E6F74206578697374000000000000 PUSH0 DUP3 ADD MSTORE POP JUMP JUMPDEST PUSH0 PUSH2 0x1C50 PUSH1 0x1A DUP4 PUSH2 0x1BA4 JUMP JUMPDEST SWAP2 POP PUSH2 0x1C5B DUP3 PUSH2 0x1C1C JUMP JUMPDEST PUSH1 0x20 DUP3 ADD SWAP1 POP SWAP2 SWAP1 POP JUMP JUMPDEST PUSH0 PUSH1 0x20 DUP3 ADD SWAP1 POP DUP2 DUP2 SUB PUSH0 DUP4 ADD MSTORE PUSH2 0x1C7D DUP2 PUSH2 0x1C44 JUMP JUMPDEST SWAP1 POP SWAP2 SWAP1 POP JUMP JUMPDEST PUSH32 0x4E487B7100000000000000000000000000000000000000000000000000000000 PUSH0 MSTORE PUSH1 0x32 PUSH1 0x4 MSTORE PUSH1 0x24 PUSH0 REVERT JUMPDEST PUSH32 0x5472616E73616374696F6E20616C726561647920657865637574656400000000 PUSH0 DUP3 ADD MSTORE POP JUMP JUMPDEST PUSH0 PUSH2 0x1CE5 PUSH1 0x1C DUP4 PUSH2 0x1BA4 JUMP JUMPDEST SWAP2 POP PUSH2 0x1CF0 DUP3 PUSH2 0x1CB1 JUMP JUMPDEST PUSH1 0x20 DUP3 ADD SWAP1 POP SWAP2 SWAP1 POP JUMP JUMPDEST PUSH0 PUSH1 0x20 DUP3 ADD SWAP1 POP DUP2 DUP2 SUB PUSH0 DUP4 ADD MSTORE PUSH2 0x1D12 DUP2 PUSH2 0x1CD9 JUMP JUMPDEST SWAP1 POP SWAP2 SWAP1 POP JUMP JUMPDEST PUSH32 0x5472616E73616374696F6E20686173206265656E2063616E63656C6564000000 PUSH0 DUP3 ADD MSTORE POP JUMP JUMPDEST PUSH0 PUSH2 0x1D4D PUSH1 0x1D DUP4 PUSH2 0x1BA4 JUMP JUMPDEST SWAP2 POP PUSH2 0x1D58 DUP3 PUSH2 0x1D19 JUMP JUMPDEST PUSH1 0x20 DUP3 ADD SWAP1 POP SWAP2 SWAP1 POP JUMP JUMPDEST PUSH0 PUSH1 0x20 DUP3 ADD SWAP1 POP DUP2 DUP2 SUB PUSH0 DUP4 ADD MSTORE PUSH2 0x1D7A DUP2 PUSH2 0x1D41 JUMP JUMPDEST SWAP1 POP SWAP2 SWAP1 POP JUMP JUMPDEST PUSH32 0x5472616E73616374696F6E206E6F7420636F6E6669726D656400000000000000 PUSH0 DUP3 ADD MSTORE POP JUMP JUMPDEST PUSH0 PUSH2 0x1DB5 PUSH1 0x19 DUP4 PUSH2 0x1BA4 JUMP JUMPDEST SWAP2 POP PUSH2 0x1DC0 DUP3 PUSH2 0x1D81 JUMP JUMPDEST PUSH1 0x20 DUP3 ADD SWAP1 POP SWAP2 SWAP1 POP JUMP JUMPDEST PUSH0 PUSH1 0x20 DUP3 ADD SWAP1 POP DUP2 DUP2 SUB PUSH0 DUP4 ADD MSTORE PUSH2 0x1DE2 DUP2 PUSH2 0x1DA9 JUMP JUMPDEST SWAP1 POP SWAP2 SWAP1 POP JUMP JUMPDEST PUSH32 0x4E487B7100000000000000000000000000000000000000000000000000000000 PUSH0 MSTORE PUSH1 0x11 PUSH1 0x4 MSTORE PUSH1 0x24 PUSH0 REVERT JUMPDEST PUSH0 PUSH2 0x1E20 DUP3 PUSH2 0x1683 JUMP JUMPDEST SWAP2 POP PUSH2 0x1E2B DUP4 PUSH2 0x1683 JUMP JUMPDEST SWAP3 POP DUP3 DUP3 SUB SWAP1 POP DUP2 DUP2 GT ISZERO PUSH2 0x1E43 JUMPI PUSH2 0x1E42 PUSH2 0x1DE9 JUMP JUMPDEST JUMPDEST SWAP3 SWAP2 POP POP JUMP JUMPDEST PUSH32 0x4E487B7100000000000000000000000000000000000000000000000000000000 PUSH0 MSTORE PUSH1 0x22 PUSH1 0x4 MSTORE PUSH1 0x24 PUSH0 REVERT JUMPDEST PUSH0 PUSH1 0x2 DUP3 DIV SWAP1 POP PUSH1 0x1 DUP3 AND DUP1 PUSH2 0x1E8D JUMPI PUSH1 0x7F DUP3 AND SWAP2 POP JUMPDEST PUSH1 0x20 DUP3 LT DUP2 SUB PUSH2 0x1EA0 JUMPI PUSH2 0x1E9F PUSH2 0x1E49 JUMP JUMPDEST JUMPDEST POP SWAP2 SWAP1 POP JUMP JUMPDEST PUSH32 0x5472616E73616374696F6E20616C726561647920636F6E6669726D6564000000 PUSH0 DUP3 ADD MSTORE POP JUMP JUMPDEST PUSH0 PUSH2 0x1EDA PUSH1 0x1D DUP4 PUSH2 0x1BA4 JUMP JUMPDEST SWAP2 POP PUSH2 0x1EE5 DUP3 PUSH2 0x1EA6 JUMP JUMPDEST PUSH1 0x20 DUP3 ADD SWAP1 POP SWAP2 SWAP1 POP JUMP JUMPDEST PUSH0 PUSH1 0x20 DUP3 ADD SWAP1 POP DUP2 DUP2 SUB PUSH0 DUP4 ADD MSTORE PUSH2 0x1F07 DUP2 PUSH2 0x1ECE JUMP JUMPDEST SWAP1 POP SWAP2 SWAP1 POP JUMP JUMPDEST PUSH0 PUSH2 0x1F18 DUP3 PUSH2 0x1683 JUMP JUMPDEST SWAP2 POP PUSH2 0x1F23 DUP4 PUSH2 0x1683 JUMP JUMPDEST SWAP3 POP DUP3 DUP3 ADD SWAP1 POP DUP1 DUP3 GT ISZERO PUSH2 0x1F3B JUMPI PUSH2 0x1F3A PUSH2 0x1DE9 JUMP JUMPDEST JUMPDEST SWAP3 SWAP2 POP POP JUMP JUMPDEST PUSH0 DUP2 SWAP1 POP DUP2 PUSH0 MSTORE PUSH1 0x20 PUSH0 KECCAK256 SWAP1 POP SWAP2 SWAP1 POP JUMP JUMPDEST PUSH0 PUSH1 0x20 PUSH1 0x1F DUP4 ADD DIV SWAP1 POP SWAP2 SWAP1 POP JUMP JUMPDEST PUSH0 DUP3 DUP3 SHL SWAP1 POP SWAP3 SWAP2 POP POP JUMP JUMPDEST PUSH0 PUSH1 0x8 DUP4 MUL PUSH2 0x1F9D PUSH32 0xFFFFFFFFFFFFFFFFFFFFFFFFFFFFFFFFFFFFFFFFFFFFFFFFFFFFFFFFFFFFFFFF DUP3 PUSH2 0x1F62 JUMP JUMPDEST PUSH2 0x1FA7 DUP7 DUP4 PUSH2 0x1F62 JUMP JUMPDEST SWAP6 POP DUP1 NOT DUP5 AND SWAP4 POP DUP1 DUP7 AND DUP5 OR SWAP3 POP POP POP SWAP4 SWAP3 POP POP POP JUMP JUMPDEST PUSH0 DUP2 SWAP1 POP SWAP2 SWAP1 POP JUMP JUMPDEST PUSH0 PUSH2 0x1FE2 PUSH2 0x1FDD PUSH2 0x1FD8 DUP5 PUSH2 0x1683 JUMP JUMPDEST PUSH2 0x1FBF JUMP JUMPDEST PUSH2 0x1683 JUMP JUMPDEST SWAP1 POP SWAP2 SWAP1 POP JUMP JUMPDEST PUSH0 DUP2 SWAP1 POP SWAP2 SWAP1 POP JUMP JUMPDEST PUSH2 0x1FFB DUP4 PUSH2 0x1FC8 JUMP JUMPDEST PUSH2 0x200F PUSH2 0x2007 DUP3 PUSH2 0x1FE9 JUMP JUMPDEST DUP5 DUP5 SLOAD PUSH2 0x1F6E JUMP JUMPDEST DUP3 SSTORE POP POP POP POP JUMP JUMPDEST PUSH0 SWAP1 JUMP JUMPDEST PUSH2 0x2023 PUSH2 0x2017 JUMP JUMPDEST PUSH2 0x202E DUP2 DUP5 DUP5 PUSH2 0x1FF2 JUMP JUMPDEST POP POP POP JUMP JUMPDEST JUMPDEST DUP2 DUP2 LT ISZERO PUSH2 0x2051 JUMPI PUSH2 0x2046 PUSH0 DUP3 PUSH2 0x201B JUMP JUMPDEST PUSH1 0x1 DUP2 ADD SWAP1 POP PUSH2 0x2034 JUMP JUMPDEST POP POP JUMP JUMPDEST PUSH1 0x1F DUP3 GT ISZERO PUSH2 0x2096 JUMPI PUSH2 0x2067 DUP2 PUSH2 0x1F41 JUMP JUMPDEST PUSH2 0x2070 DUP5 PUSH2 0x1F53 JUMP JUMPDEST DUP2 ADD PUSH1 0x20 DUP6 LT ISZERO PUSH2 0x207F JUMPI DUP2 SWAP1 POP JUMPDEST PUSH2 0x2093 PUSH2 0x208B DUP6 PUSH2 0x1F53 JUMP JUMPDEST DUP4 ADD DUP3 PUSH2 0x2033 JUMP JUMPDEST POP POP JUMPDEST POP POP POP JUMP JUMPDEST PUSH0 DUP3 DUP3 SHR SWAP1 POP SWAP3 SWAP2 POP POP JUMP JUMPDEST PUSH0 PUSH2 0x20B6 PUSH0 NOT DUP5 PUSH1 0x8 MUL PUSH2 0x209B JUMP JUMPDEST NOT DUP1 DUP4 AND SWAP2 POP POP SWAP3 SWAP2 POP POP JUMP JUMPDEST PUSH0 PUSH2 0x20CE DUP4 DUP4 PUSH2 0x20A7 JUMP JUMPDEST SWAP2 POP DUP3 PUSH1 0x2 MUL DUP3 OR SWAP1 POP SWAP3 SWAP2 POP POP JUMP JUMPDEST PUSH2 0x20E7 DUP3 PUSH2 0x1821 JUMP JUMPDEST PUSH8 0xFFFFFFFFFFFFFFFF DUP2 GT ISZERO PUSH2 0x2100 JUMPI PUSH2 0x20FF PUSH2 0x1A14 JUMP JUMPDEST JUMPDEST PUSH2 0x210A DUP3 SLOAD PUSH2 0x1E76 JUMP JUMPDEST PUSH2 0x2115 DUP3 DUP3 DUP6 PUSH2 0x2055 JUMP JUMPDEST PUSH0 PUSH1 0x20 SWAP1 POP PUSH1 0x1F DUP4 GT PUSH1 0x1 DUP2 EQ PUSH2 0x2146 JUMPI PUSH0 DUP5 ISZERO PUSH2 0x2134 JUMPI DUP3 DUP8 ADD MLOAD SWAP1 POP JUMPDEST PUSH2 0x213E DUP6 DUP3 PUSH2 0x20C3 JUMP JUMPDEST DUP7 SSTORE POP PUSH2 0x21A5 JUMP JUMPDEST PUSH1 0x1F NOT DUP5 AND PUSH2 0x2154 DUP7 PUSH2 0x1F41 JUMP JUMPDEST PUSH0 JUMPDEST DUP3 DUP2 LT ISZERO PUSH2 0x217B JUMPI DUP5 DUP10 ADD MLOAD DUP3 SSTORE PUSH1 0x1 DUP3 ADD SWAP2 POP PUSH1 0x20 DUP6 ADD SWAP5 POP PUSH1 0x20 DUP2 ADD SWAP1 POP PUSH2 0x2156 JUMP JUMPDEST DUP7 DUP4 LT ISZERO PUSH2 0x2198 JUMPI DUP5 DUP10 ADD MLOAD PUSH2 0x2194 PUSH1 0x1F DUP10 AND DUP3 PUSH2 0x20A7 JUMP JUMPDEST DUP4 SSTORE POP JUMPDEST PUSH1 0x1 PUSH1 0x2 DUP9 MUL ADD DUP9 SSTORE POP POP POP JUMPDEST POP POP POP POP POP POP JUMP JUMPDEST PUSH0 PUSH1 0x40 DUP3 ADD SWAP1 POP PUSH2 0x21C0 PUSH0 DUP4 ADD DUP6 PUSH2 0x168C JUMP JUMPDEST DUP2 DUP2 SUB PUSH1 0x20 DUP4 ADD MSTORE PUSH2 0x21D2 DUP2 DUP5 PUSH2 0x1859 JUMP JUMPDEST SWAP1 POP SWAP4 SWAP3 POP POP POP JUMP JUMPDEST PUSH32 0xE5AD98E585A5E98791E9A29DE99C80E8A681E5A4A7E4BA8E3000000000000000 PUSH0 DUP3 ADD MSTORE POP JUMP JUMPDEST PUSH0 PUSH2 0x220F PUSH1 0x19 DUP4 PUSH2 0x1BA4 JUMP JUMPDEST SWAP2 POP PUSH2 0x221A DUP3 PUSH2 0x21DB JUMP JUMPDEST PUSH1 0x20 DUP3 ADD SWAP1 POP SWAP2 SWAP1 POP JUMP JUMPDEST PUSH0 PUSH1 0x20 DUP3 ADD SWAP1 POP DUP2 DUP2 SUB PUSH0 DUP4 ADD MSTORE PUSH2 0x223C DUP2 PUSH2 0x2203 JUMP JUMPDEST SWAP1 POP SWAP2 SWAP1 POP JUMP JUMPDEST PUSH0 DUP2 SWAP1 POP SWAP3 SWAP2 POP POP JUMP JUMPDEST PUSH0 DUP2 SLOAD PUSH2 0x2259 DUP2 PUSH2 0x1E76 JUMP JUMPDEST PUSH2 0x2263 DUP2 DUP7 PUSH2 0x2243 JUMP JUMPDEST SWAP5 POP PUSH1 0x1 DUP3 AND PUSH0 DUP2 EQ PUSH2 0x227D JUMPI PUSH1 0x1 DUP2 EQ PUSH2 0x2292 JUMPI PUSH2 0x22C4 JUMP JUMPDEST PUSH1 0xFF NOT DUP4 AND DUP7 MSTORE DUP2 ISZERO ISZERO DUP3 MUL DUP7 ADD SWAP4 POP PUSH2 0x22C4 JUMP JUMPDEST PUSH2 0x229B DUP6 PUSH2 0x1F41 JUMP JUMPDEST PUSH0 JUMPDEST DUP4 DUP2 LT ISZERO PUSH2 0x22BC JUMPI DUP2 SLOAD DUP2 DUP10 ADD MSTORE PUSH1 0x1 DUP3 ADD SWAP2 POP PUSH1 0x20 DUP2 ADD SWAP1 POP PUSH2 0x229D JUMP JUMPDEST DUP4 DUP9 ADD SWAP6 POP POP POP JUMPDEST POP POP POP SWAP3 SWAP2 POP POP JUMP JUMPDEST PUSH0 PUSH2 0x22D8 DUP3 DUP5 PUSH2 0x224D JUMP JUMPDEST SWAP2 POP DUP2 SWAP1 POP SWAP3 SWAP2 POP POP JUMP JUMPDEST PUSH32 0x5472616E73616374696F6E206661696C65640000000000000000000000000000 PUSH0 DUP3 ADD MSTORE POP JUMP JUMPDEST PUSH0 PUSH2 0x2317 PUSH1 0x12 DUP4 PUSH2 0x1BA4 JUMP JUMPDEST SWAP2 POP PUSH2 0x2322 DUP3 PUSH2 0x22E3 JUMP JUMPDEST PUSH1 0x20 DUP3 ADD SWAP1 POP SWAP2 SWAP1 POP JUMP JUMPDEST PUSH0 PUSH1 0x20 DUP3 ADD SWAP1 POP DUP2 DUP2 SUB PUSH0 DUP4 ADD MSTORE PUSH2 0x2344 DUP2 PUSH2 0x230B JUMP JUMPDEST SWAP1 POP SWAP2 SWAP1 POP JUMP INVALID LOG2 PUSH5 0x6970667358 0x22 SLT KECCAK256 0xF CREATE2 0xD0 0xAA 0xD2 MSTORE 0xE5 DUP7 0x2F ADDMOD PUSH24 0xC7E910976E9E962A0952527816F364D1DF05D0EB4464736F PUSH13 0x634300081A0033000000000000 "
				},
				"gasEstimates": {
					"creation": {
						"codeDepositCost": "1817800",
						"executionCost": "infinite",
						"totalCost": "infinite"
					},
					"external": {
						"cancelTransaction(uint256)": "41542",
						"confirmTransaction(uint256)": "infinite",
						"confirmations(uint256,address)": "3160",
						"deposit()": "infinite",
						"executeTransaction(uint256)": "infinite",
						"getOwners()": "infinite",
						"getRequired()": "2478",
						"getTransaction(uint256)": "infinite",
						"getTransactionCount()": "2530",
						"isConfirmed(uint256,address)": "3140",
						"isOwner(address)": "2856",
						"owners(uint256)": "4967",
						"required()": "2491",
						"revokeConfirmation(uint256)": "infinite",
						"submitTransaction(address,uint256,bytes)": "infinite",
						"transactions(uint256)": "infinite"
					}
				},
				"methodIdentifiers": {
					"cancelTransaction(uint256)": "3380c0d8",
					"confirmTransaction(uint256)": "c01a8c84",
					"confirmations(uint256,address)": "3411c81c",
					"deposit()": "d0e30db0",
					"executeTransaction(uint256)": "ee22610b",
					"getOwners()": "a0e67e2b",
					"getRequired()": "1398a5f6",
					"getTransaction(uint256)": "33ea3dc8",
					"getTransactionCount()": "2e7700f0",
					"isConfirmed(uint256,address)": "80f59a65",
					"isOwner(address)": "2f54bf6e",
					"owners(uint256)": "025e7c27",
					"required()": "dc8452cd",
					"revokeConfirmation(uint256)": "20ea8d86",
					"submitTransaction(address,uint256,bytes)": "c6427474",
					"transactions(uint256)": "9ace38c2"
				}
			},
			"storageLayout": {
				"storage": [
					{
						"astId": 5,
						"contract": "contracts/ExercisePractice/MultiSigWallet.sol:MultiSigWallet",
						"label": "owners",
						"offset": 0,
						"slot": "0",
						"type": "t_array(t_address)dyn_storage"
					},
					{
						"astId": 9,
						"contract": "contracts/ExercisePractice/MultiSigWallet.sol:MultiSigWallet",
						"label": "isOwner",
						"offset": 0,
						"slot": "1",
						"type": "t_mapping(t_address,t_bool)"
					},
					{
						"astId": 11,
						"contract": "contracts/ExercisePractice/MultiSigWallet.sol:MultiSigWallet",
						"label": "required",
						"offset": 0,
						"slot": "2",
						"type": "t_uint256"
					},
					{
						"astId": 28,
						"contract": "contracts/ExercisePractice/MultiSigWallet.sol:MultiSigWallet",
						"label": "transactions",
						"offset": 0,
						"slot": "3",
						"type": "t_array(t_struct(Transaction)24_storage)dyn_storage"
					},
					{
						"astId": 34,
						"contract": "contracts/ExercisePractice/MultiSigWallet.sol:MultiSigWallet",
						"label": "confirmations",
						"offset": 0,
						"slot": "4",
						"type": "t_mapping(t_uint256,t_mapping(t_address,t_bool))"
					}
				],
				"types": {
					"t_address": {
						"encoding": "inplace",
						"label": "address",
						"numberOfBytes": "20"
					},
					"t_array(t_address)dyn_storage": {
						"base": "t_address",
						"encoding": "dynamic_array",
						"label": "address[]",
						"numberOfBytes": "32"
					},
					"t_array(t_struct(Transaction)24_storage)dyn_storage": {
						"base": "t_struct(Transaction)24_storage",
						"encoding": "dynamic_array",
						"label": "struct MultiSigWallet.Transaction[]",
						"numberOfBytes": "32"
					},
					"t_bool": {
						"encoding": "inplace",
						"label": "bool",
						"numberOfBytes": "1"
					},
					"t_bytes_storage": {
						"encoding": "bytes",
						"label": "bytes",
						"numberOfBytes": "32"
					},
					"t_mapping(t_address,t_bool)": {
						"encoding": "mapping",
						"key": "t_address",
						"label": "mapping(address => bool)",
						"numberOfBytes": "32",
						"value": "t_bool"
					},
					"t_mapping(t_uint256,t_mapping(t_address,t_bool))": {
						"encoding": "mapping",
						"key": "t_uint256",
						"label": "mapping(uint256 => mapping(address => bool))",
						"numberOfBytes": "32",
						"value": "t_mapping(t_address,t_bool)"
					},
					"t_struct(Transaction)24_storage": {
						"encoding": "inplace",
						"label": "struct MultiSigWallet.Transaction",
						"members": [
							{
								"astId": 13,
								"contract": "contracts/ExercisePractice/MultiSigWallet.sol:MultiSigWallet",
								"label": "to",
								"offset": 0,
								"slot": "0",
								"type": "t_address"
							},
							{
								"astId": 15,
								"contract": "contracts/ExercisePractice/MultiSigWallet.sol:MultiSigWallet",
								"label": "value",
								"offset": 0,
								"slot": "1",
								"type": "t_uint256"
							},
							{
								"astId": 17,
								"contract": "contracts/ExercisePractice/MultiSigWallet.sol:MultiSigWallet",
								"label": "data",
								"offset": 0,
								"slot": "2",
								"type": "t_bytes_storage"
							},
							{
								"astId": 19,
								"contract": "contracts/ExercisePractice/MultiSigWallet.sol:MultiSigWallet",
								"label": "executed",
								"offset": 0,
								"slot": "3",
								"type": "t_bool"
							},
							{
								"astId": 21,
								"contract": "contracts/ExercisePractice/MultiSigWallet.sol:MultiSigWallet",
								"label": "confirmationCount",
								"offset": 0,
								"slot": "4",
								"type": "t_uint256"
							},
							{
								"astId": 23,
								"contract": "contracts/ExercisePractice/MultiSigWallet.sol:MultiSigWallet",
								"label": "canceled",
								"offset": 0,
								"slot": "5",
								"type": "t_bool"
							}
						],
						"numberOfBytes": "192"
					},
					"t_uint256": {
						"encoding": "inplace",
						"label": "uint256",
						"numberOfBytes": "32"
					}
				}
			},
			"userdoc": {
				"kind": "user",
				"methods": {},
				"version": 1
			}
		}
	}
}