{
	"contracts/ExercisePractice/ToDoList.sol": {
		"TodoList": {
			"abi": [
				{
					"anonymous": false,
					"inputs": [
						{
							"indexed": false,
							"internalType": "uint256",
							"name": "taskId",
							"type": "uint256"
						},
						{
							"indexed": false,
							"internalType": "string",
							"name": "name",
							"type": "string"
						}
					],
					"name": "TaskCreated",
					"type": "event"
				},
				{
					"anonymous": false,
					"inputs": [
						{
							"indexed": false,
							"internalType": "uint256",
							"name": "taskId",
							"type": "uint256"
						},
						{
							"indexed": false,
							"internalType": "bool",
							"name": "completed",
							"type": "bool"
						}
					],
					"name": "TaskStatusSet",
					"type": "event"
				},
				{
					"anonymous": false,
					"inputs": [
						{
							"indexed": false,
							"internalType": "uint256",
							"name": "taskId",
							"type": "uint256"
						},
						{
							"indexed": false,
							"internalType": "bool",
							"name": "completed",
							"type": "bool"
						}
					],
					"name": "TaskStatusToggled",
					"type": "event"
				},
				{
					"anonymous": false,
					"inputs": [
						{
							"indexed": false,
							"internalType": "uint256",
							"name": "taskId",
							"type": "uint256"
						},
						{
							"indexed": false,
							"internalType": "string",
							"name": "name",
							"type": "string"
						}
					],
					"name": "TaskUpdated",
					"type": "event"
				},
				{
					"inputs": [
						{
							"internalType": "string",
							"name": "_name",
							"type": "string"
						}
					],
					"name": "createTask",
					"outputs": [],
					"stateMutability": "nonpayable",
					"type": "function"
				},
				{
					"inputs": [
						{
							"internalType": "uint256",
							"name": "_taskId",
							"type": "uint256"
						}
					],
					"name": "getTask",
					"outputs": [
						{
							"internalType": "string",
							"name": "name",
							"type": "string"
						},
						{
							"internalType": "bool",
							"name": "completed",
							"type": "bool"
						}
					],
					"stateMutability": "view",
					"type": "function"
				},
				{
					"inputs": [],
					"name": "getTasksCount",
					"outputs": [
						{
							"internalType": "uint256",
							"name": "",
							"type": "uint256"
						}
					],
					"stateMutability": "view",
					"type": "function"
				},
				{
					"inputs": [
						{
							"internalType": "uint256",
							"name": "_taskId",
							"type": "uint256"
						}
					],
					"name": "setCompleted",
					"outputs": [],
					"stateMutability": "nonpayable",
					"type": "function"
				},
				{
					"inputs": [
						{
							"internalType": "uint256",
							"name": "_taskId",
							"type": "uint256"
						}
					],
					"name": "setNotCompleted",
					"outputs": [],
					"stateMutability": "nonpayable",
					"type": "function"
				},
				{
					"inputs": [
						{
							"internalType": "uint256",
							"name": "",
							"type": "uint256"
						}
					],
					"name": "tasks",
					"outputs": [
						{
							"internalType": "string",
							"name": "name",
							"type": "string"
						},
						{
							"internalType": "bool",
							"name": "completed",
							"type": "bool"
						}
					],
					"stateMutability": "view",
					"type": "function"
				},
				{
					"inputs": [
						{
							"internalType": "uint256",
							"name": "_taskId",
							"type": "uint256"
						}
					],
					"name": "toggleCompletion",
					"outputs": [],
					"stateMutability": "nonpayable",
					"type": "function"
				},
				{
					"inputs": [
						{
							"internalType": "uint256",
							"name": "_taskId",
							"type": "uint256"
						},
						{
							"internalType": "string",
							"name": "_newName",
							"type": "string"
						}
					],
					"name": "updateTaskName",
					"outputs": [],
					"stateMutability": "nonpayable",
					"type": "function"
				}
			],
			"devdoc": {
				"kind": "dev",
				"methods": {},
				"version": 1
			},
			"evm": {
				"assembly": "    /* \"contracts/ExercisePractice/ToDoList.sol\":57:2032  contract TodoList {... */\n  mstore(0x40, 0x80)\n  callvalue\n  dup1\n  iszero\n  tag_1\n  jumpi\n  0x00\n  dup1\n  revert\ntag_1:\n  pop\n  dataSize(sub_0)\n  dup1\n  dataOffset(sub_0)\n  0x00\n  codecopy\n  0x00\n  return\nstop\n\nsub_0: assembly {\n        /* \"contracts/ExercisePractice/ToDoList.sol\":57:2032  contract TodoList {... */\n      mstore(0x40, 0x80)\n      callvalue\n      dup1\n      iszero\n      tag_1\n      jumpi\n      0x00\n      dup1\n      revert\n    tag_1:\n      pop\n      jumpi(tag_2, lt(calldatasize, 0x04))\n      shr(0xe0, calldataload(0x00))\n      dup1\n      0xa9330a15\n      gt\n      tag_11\n      jumpi\n      dup1\n      0xa9330a15\n      eq\n      tag_7\n      jumpi\n      dup1\n      0xbeb01a62\n      eq\n      tag_8\n      jumpi\n      dup1\n      0xebc218a7\n      eq\n      tag_9\n      jumpi\n      dup1\n      0xfdacd576\n      eq\n      tag_10\n      jumpi\n      jump(tag_2)\n    tag_11:\n      dup1\n      0x111002aa\n      eq\n      tag_3\n      jumpi\n      dup1\n      0x1d65e77e\n      eq\n      tag_4\n      jumpi\n      dup1\n      0x8d977672\n      eq\n      tag_5\n      jumpi\n      dup1\n      0x9f899273\n      eq\n      tag_6\n      jumpi\n    tag_2:\n      0x00\n      dup1\n      revert\n        /* \"contracts/ExercisePractice/ToDoList.sol\":429:575  function createTask(string memory _name) public {... */\n    tag_3:\n      tag_12\n      0x04\n      dup1\n      calldatasize\n      sub\n      dup2\n      add\n      swap1\n      tag_13\n      swap2\n      swap1\n      tag_14\n      jump\t// in\n    tag_13:\n      tag_15\n      jump\t// in\n    tag_12:\n      stop\n        /* \"contracts/ExercisePractice/ToDoList.sol\":1657:1904  function getTask(uint _taskId) public view returns (string memory name, bool completed) {... */\n    tag_4:\n      tag_16\n      0x04\n      dup1\n      calldatasize\n      sub\n      dup2\n      add\n      swap1\n      tag_17\n      swap2\n      swap1\n      tag_18\n      jump\t// in\n    tag_17:\n      tag_19\n      jump\t// in\n    tag_16:\n      mload(0x40)\n      tag_20\n      swap3\n      swap2\n      swap1\n      tag_21\n      jump\t// in\n    tag_20:\n      mload(0x40)\n      dup1\n      swap2\n      sub\n      swap1\n      return\n        /* \"contracts/ExercisePractice/ToDoList.sol\":151:170  Task[] public tasks */\n    tag_5:\n      tag_22\n      0x04\n      dup1\n      calldatasize\n      sub\n      dup2\n      add\n      swap1\n      tag_23\n      swap2\n      swap1\n      tag_18\n      jump\t// in\n    tag_23:\n      tag_24\n      jump\t// in\n    tag_22:\n      mload(0x40)\n      tag_25\n      swap3\n      swap2\n      swap1\n      tag_21\n      jump\t// in\n    tag_25:\n      mload(0x40)\n      dup1\n      swap2\n      sub\n      swap1\n      return\n        /* \"contracts/ExercisePractice/ToDoList.sol\":1942:2030  function getTasksCount() public view returns (uint) {... */\n    tag_6:\n      tag_26\n      tag_27\n      jump\t// in\n    tag_26:\n      mload(0x40)\n      tag_28\n      swap2\n      swap1\n      tag_29\n      jump\t// in\n    tag_28:\n      mload(0x40)\n      dup1\n      swap2\n      sub\n      swap1\n      return\n        /* \"contracts/ExercisePractice/ToDoList.sol\":607:833  function updateTaskName(uint _taskId, string memory _newName) public {... */\n    tag_7:\n      tag_30\n      0x04\n      dup1\n      calldatasize\n      sub\n      dup2\n      add\n      swap1\n      tag_31\n      swap2\n      swap1\n      tag_32\n      jump\t// in\n    tag_31:\n      tag_33\n      jump\t// in\n    tag_30:\n      stop\n        /* \"contracts/ExercisePractice/ToDoList.sol\":1135:1339  function setNotCompleted(uint _taskId) public {... */\n    tag_8:\n      tag_34\n      0x04\n      dup1\n      calldatasize\n      sub\n      dup2\n      add\n      swap1\n      tag_35\n      swap2\n      swap1\n      tag_18\n      jump\t// in\n    tag_35:\n      tag_36\n      jump\t// in\n    tag_34:\n      stop\n        /* \"contracts/ExercisePractice/ToDoList.sol\":1377:1625  function toggleCompletion(uint _taskId) public {... */\n    tag_9:\n      tag_37\n      0x04\n      dup1\n      calldatasize\n      sub\n      dup2\n      add\n      swap1\n      tag_38\n      swap2\n      swap1\n      tag_18\n      jump\t// in\n    tag_38:\n      tag_39\n      jump\t// in\n    tag_37:\n      stop\n        /* \"contracts/ExercisePractice/ToDoList.sol\":886:1085  function setCompleted(uint _taskId) public {... */\n    tag_10:\n      tag_40\n      0x04\n      dup1\n      calldatasize\n      sub\n      dup2\n      add\n      swap1\n      tag_41\n      swap2\n      swap1\n      tag_18\n      jump\t// in\n    tag_41:\n      tag_42\n      jump\t// in\n    tag_40:\n      stop\n        /* \"contracts/ExercisePractice/ToDoList.sol\":429:575  function createTask(string memory _name) public {... */\n    tag_15:\n        /* \"contracts/ExercisePractice/ToDoList.sol\":487:492  tasks */\n      0x00\n        /* \"contracts/ExercisePractice/ToDoList.sol\":498:516  Task(_name, false) */\n      mload(0x40)\n      dup1\n      0x40\n      add\n      0x40\n      mstore\n      dup1\n        /* \"contracts/ExercisePractice/ToDoList.sol\":503:508  _name */\n      dup4\n        /* \"contracts/ExercisePractice/ToDoList.sol\":498:516  Task(_name, false) */\n      dup2\n      mstore\n      0x20\n      add\n        /* \"contracts/ExercisePractice/ToDoList.sol\":510:515  false */\n      0x00\n        /* \"contracts/ExercisePractice/ToDoList.sol\":498:516  Task(_name, false) */\n      iszero\n      iszero\n      dup2\n      mstore\n      pop\n        /* \"contracts/ExercisePractice/ToDoList.sol\":487:517  tasks.push(Task(_name, false)) */\n      swap1\n      dup1\n      0x01\n      dup2\n      sload\n      add\n      dup1\n      dup3\n      sstore\n      dup1\n      swap2\n      pop\n      pop\n      0x01\n      swap1\n      sub\n      swap1\n      0x00\n      mstore\n      keccak256(0x00, 0x20)\n      swap1\n      0x02\n      mul\n      add\n      0x00\n      swap1\n      swap2\n      swap1\n      swap2\n      swap1\n      swap2\n      pop\n      0x00\n      dup3\n      add\n      mload\n      dup2\n      0x00\n      add\n      swap1\n      dup2\n      tag_45\n      swap2\n      swap1\n      tag_46\n      jump\t// in\n    tag_45:\n      pop\n      0x20\n      dup3\n      add\n      mload\n      dup2\n      0x01\n      add\n      exp(0x0100, 0x00)\n      dup2\n      sload\n      dup2\n      0xff\n      mul\n      not\n      and\n      swap1\n      dup4\n      iszero\n      iszero\n      mul\n      or\n      swap1\n      sstore\n      pop\n      pop\n      pop\n        /* \"contracts/ExercisePractice/ToDoList.sol\":532:568  TaskCreated(tasks.length - 1, _name) */\n      0xa5ed9e6226c584326505694539c95cb0e3238ae09bcda5a65c00bbfdab1c6662\n        /* \"contracts/ExercisePractice/ToDoList.sol\":559:560  1 */\n      0x01\n        /* \"contracts/ExercisePractice/ToDoList.sol\":544:549  tasks */\n      0x00\n        /* \"contracts/ExercisePractice/ToDoList.sol\":544:556  tasks.length */\n      dup1\n      sload\n      swap1\n      pop\n        /* \"contracts/ExercisePractice/ToDoList.sol\":544:560  tasks.length - 1 */\n      tag_47\n      swap2\n      swap1\n      tag_48\n      jump\t// in\n    tag_47:\n        /* \"contracts/ExercisePractice/ToDoList.sol\":562:567  _name */\n      dup3\n        /* \"contracts/ExercisePractice/ToDoList.sol\":532:568  TaskCreated(tasks.length - 1, _name) */\n      mload(0x40)\n      tag_49\n      swap3\n      swap2\n      swap1\n      tag_50\n      jump\t// in\n    tag_49:\n      mload(0x40)\n      dup1\n      swap2\n      sub\n      swap1\n      log1\n        /* \"contracts/ExercisePractice/ToDoList.sol\":429:575  function createTask(string memory _name) public {... */\n      pop\n      jump\t// out\n        /* \"contracts/ExercisePractice/ToDoList.sol\":1657:1904  function getTask(uint _taskId) public view returns (string memory name, bool completed) {... */\n    tag_19:\n        /* \"contracts/ExercisePractice/ToDoList.sol\":1709:1727  string memory name */\n      0x60\n        /* \"contracts/ExercisePractice/ToDoList.sol\":1729:1743  bool completed */\n      0x00\n        /* \"contracts/ExercisePractice/ToDoList.sol\":1773:1778  tasks */\n      dup1\n        /* \"contracts/ExercisePractice/ToDoList.sol\":1773:1785  tasks.length */\n      dup1\n      sload\n      swap1\n      pop\n        /* \"contracts/ExercisePractice/ToDoList.sol\":1763:1770  _taskId */\n      dup4\n        /* \"contracts/ExercisePractice/ToDoList.sol\":1763:1785  _taskId < tasks.length */\n      lt\n        /* \"contracts/ExercisePractice/ToDoList.sol\":1755:1810  require(_taskId < tasks.length, \"Task does not exist.\") */\n      tag_52\n      jumpi\n      mload(0x40)\n      0x08c379a000000000000000000000000000000000000000000000000000000000\n      dup2\n      mstore\n      0x04\n      add\n      tag_53\n      swap1\n      tag_54\n      jump\t// in\n    tag_53:\n      mload(0x40)\n      dup1\n      swap2\n      sub\n      swap1\n      revert\n    tag_52:\n        /* \"contracts/ExercisePractice/ToDoList.sol\":1820:1836  Task memory task */\n      0x00\n        /* \"contracts/ExercisePractice/ToDoList.sol\":1839:1844  tasks */\n      dup1\n        /* \"contracts/ExercisePractice/ToDoList.sol\":1845:1852  _taskId */\n      dup5\n        /* \"contracts/ExercisePractice/ToDoList.sol\":1839:1853  tasks[_taskId] */\n      dup2\n      sload\n      dup2\n      lt\n      tag_55\n      jumpi\n      tag_56\n      tag_57\n      jump\t// in\n    tag_56:\n    tag_55:\n      swap1\n      0x00\n      mstore\n      keccak256(0x00, 0x20)\n      swap1\n      0x02\n      mul\n      add\n        /* \"contracts/ExercisePractice/ToDoList.sol\":1820:1853  Task memory task = tasks[_taskId] */\n      mload(0x40)\n      dup1\n      0x40\n      add\n      0x40\n      mstore\n      swap1\n      dup2\n      0x00\n      dup3\n      add\n      dup1\n      sload\n      tag_59\n      swap1\n      tag_60\n      jump\t// in\n    tag_59:\n      dup1\n      0x1f\n      add\n      0x20\n      dup1\n      swap2\n      div\n      mul\n      0x20\n      add\n      mload(0x40)\n      swap1\n      dup2\n      add\n      0x40\n      mstore\n      dup1\n      swap3\n      swap2\n      swap1\n      dup2\n      dup2\n      mstore\n      0x20\n      add\n      dup3\n      dup1\n      sload\n      tag_61\n      swap1\n      tag_60\n      jump\t// in\n    tag_61:\n      dup1\n      iszero\n      tag_62\n      jumpi\n      dup1\n      0x1f\n      lt\n      tag_63\n      jumpi\n      0x0100\n      dup1\n      dup4\n      sload\n      div\n      mul\n      dup4\n      mstore\n      swap2\n      0x20\n      add\n      swap2\n      jump(tag_62)\n    tag_63:\n      dup3\n      add\n      swap2\n      swap1\n      0x00\n      mstore\n      keccak256(0x00, 0x20)\n      swap1\n    tag_64:\n      dup2\n      sload\n      dup2\n      mstore\n      swap1\n      0x01\n      add\n      swap1\n      0x20\n      add\n      dup1\n      dup4\n      gt\n      tag_64\n      jumpi\n      dup3\n      swap1\n      sub\n      0x1f\n      and\n      dup3\n      add\n      swap2\n    tag_62:\n      pop\n      pop\n      pop\n      pop\n      pop\n      dup2\n      mstore\n      0x20\n      add\n      0x01\n      dup3\n      add\n      0x00\n      swap1\n      sload\n      swap1\n      0x0100\n      exp\n      swap1\n      div\n      0xff\n      and\n      iszero\n      iszero\n      iszero\n      iszero\n      dup2\n      mstore\n      pop\n      pop\n      swap1\n      pop\n        /* \"contracts/ExercisePractice/ToDoList.sol\":1871:1875  task */\n      dup1\n        /* \"contracts/ExercisePractice/ToDoList.sol\":1871:1880  task.name */\n      0x00\n      add\n      mload\n        /* \"contracts/ExercisePractice/ToDoList.sol\":1882:1886  task */\n      dup2\n        /* \"contracts/ExercisePractice/ToDoList.sol\":1882:1896  task.completed */\n      0x20\n      add\n      mload\n        /* \"contracts/ExercisePractice/ToDoList.sol\":1863:1897  return (task.name, task.completed) */\n      swap3\n      pop\n      swap3\n      pop\n      pop\n        /* \"contracts/ExercisePractice/ToDoList.sol\":1657:1904  function getTask(uint _taskId) public view returns (string memory name, bool completed) {... */\n      swap2\n      pop\n      swap2\n      jump\t// out\n        /* \"contracts/ExercisePractice/ToDoList.sol\":151:170  Task[] public tasks */\n    tag_24:\n      0x00\n      dup2\n      dup2\n      sload\n      dup2\n      lt\n      tag_65\n      jumpi\n      0x00\n      dup1\n      revert\n    tag_65:\n      swap1\n      0x00\n      mstore\n      keccak256(0x00, 0x20)\n      swap1\n      0x02\n      mul\n      add\n      0x00\n      swap2\n      pop\n      swap1\n      pop\n      dup1\n      0x00\n      add\n      dup1\n      sload\n      tag_67\n      swap1\n      tag_60\n      jump\t// in\n    tag_67:\n      dup1\n      0x1f\n      add\n      0x20\n      dup1\n      swap2\n      div\n      mul\n      0x20\n      add\n      mload(0x40)\n      swap1\n      dup2\n      add\n      0x40\n      mstore\n      dup1\n      swap3\n      swap2\n      swap1\n      dup2\n      dup2\n      mstore\n      0x20\n      add\n      dup3\n      dup1\n      sload\n      tag_68\n      swap1\n      tag_60\n      jump\t// in\n    tag_68:\n      dup1\n      iszero\n      tag_69\n      jumpi\n      dup1\n      0x1f\n      lt\n      tag_70\n      jumpi\n      0x0100\n      dup1\n      dup4\n      sload\n      div\n      mul\n      dup4\n      mstore\n      swap2\n      0x20\n      add\n      swap2\n      jump(tag_69)\n    tag_70:\n      dup3\n      add\n      swap2\n      swap1\n      0x00\n      mstore\n      keccak256(0x00, 0x20)\n      swap1\n    tag_71:\n      dup2\n      sload\n      dup2\n      mstore\n      swap1\n      0x01\n      add\n      swap1\n      0x20\n      add\n      dup1\n      dup4\n      gt\n      tag_71\n      jumpi\n      dup3\n      swap1\n      sub\n      0x1f\n      and\n      dup3\n      add\n      swap2\n    tag_69:\n      pop\n      pop\n      pop\n      pop\n      pop\n      swap1\n      dup1\n      0x01\n      add\n      0x00\n      swap1\n      sload\n      swap1\n      0x0100\n      exp\n      swap1\n      div\n      0xff\n      and\n      swap1\n      pop\n      dup3\n      jump\t// out\n        /* \"contracts/ExercisePractice/ToDoList.sol\":1942:2030  function getTasksCount() public view returns (uint) {... */\n    tag_27:\n        /* \"contracts/ExercisePractice/ToDoList.sol\":1988:1992  uint */\n      0x00\n        /* \"contracts/ExercisePractice/ToDoList.sol\":2011:2016  tasks */\n      dup1\n        /* \"contracts/ExercisePractice/ToDoList.sol\":2011:2023  tasks.length */\n      dup1\n      sload\n      swap1\n      pop\n        /* \"contracts/ExercisePractice/ToDoList.sol\":2004:2023  return tasks.length */\n      swap1\n      pop\n        /* \"contracts/ExercisePractice/ToDoList.sol\":1942:2030  function getTasksCount() public view returns (uint) {... */\n      swap1\n      jump\t// out\n        /* \"contracts/ExercisePractice/ToDoList.sol\":607:833  function updateTaskName(uint _taskId, string memory _newName) public {... */\n    tag_33:\n        /* \"contracts/ExercisePractice/ToDoList.sol\":704:709  tasks */\n      0x00\n        /* \"contracts/ExercisePractice/ToDoList.sol\":704:716  tasks.length */\n      dup1\n      sload\n      swap1\n      pop\n        /* \"contracts/ExercisePractice/ToDoList.sol\":694:701  _taskId */\n      dup3\n        /* \"contracts/ExercisePractice/ToDoList.sol\":694:716  _taskId < tasks.length */\n      lt\n        /* \"contracts/ExercisePractice/ToDoList.sol\":686:741  require(_taskId < tasks.length, \"Task does not exist.\") */\n      tag_74\n      jumpi\n      mload(0x40)\n      0x08c379a000000000000000000000000000000000000000000000000000000000\n      dup2\n      mstore\n      0x04\n      add\n      tag_75\n      swap1\n      tag_54\n      jump\t// in\n    tag_75:\n      mload(0x40)\n      dup1\n      swap2\n      sub\n      swap1\n      revert\n    tag_74:\n        /* \"contracts/ExercisePractice/ToDoList.sol\":773:781  _newName */\n      dup1\n        /* \"contracts/ExercisePractice/ToDoList.sol\":751:756  tasks */\n      0x00\n        /* \"contracts/ExercisePractice/ToDoList.sol\":757:764  _taskId */\n      dup4\n        /* \"contracts/ExercisePractice/ToDoList.sol\":751:765  tasks[_taskId] */\n      dup2\n      sload\n      dup2\n      lt\n      tag_76\n      jumpi\n      tag_77\n      tag_57\n      jump\t// in\n    tag_77:\n    tag_76:\n      swap1\n      0x00\n      mstore\n      keccak256(0x00, 0x20)\n      swap1\n      0x02\n      mul\n      add\n        /* \"contracts/ExercisePractice/ToDoList.sol\":751:770  tasks[_taskId].name */\n      0x00\n      add\n        /* \"contracts/ExercisePractice/ToDoList.sol\":751:781  tasks[_taskId].name = _newName */\n      swap1\n      dup2\n      tag_79\n      swap2\n      swap1\n      tag_46\n      jump\t// in\n    tag_79:\n      pop\n        /* \"contracts/ExercisePractice/ToDoList.sol\":796:826  TaskUpdated(_taskId, _newName) */\n      0xde038a66d64727fc277f5f5f3d50b98d205e4ae705bfb8ac824cea4877b9be49\n        /* \"contracts/ExercisePractice/ToDoList.sol\":808:815  _taskId */\n      dup3\n        /* \"contracts/ExercisePractice/ToDoList.sol\":817:825  _newName */\n      dup3\n        /* \"contracts/ExercisePractice/ToDoList.sol\":796:826  TaskUpdated(_taskId, _newName) */\n      mload(0x40)\n      tag_80\n      swap3\n      swap2\n      swap1\n      tag_50\n      jump\t// in\n    tag_80:\n      mload(0x40)\n      dup1\n      swap2\n      sub\n      swap1\n      log1\n        /* \"contracts/ExercisePractice/ToDoList.sol\":607:833  function updateTaskName(uint _taskId, string memory _newName) public {... */\n      pop\n      pop\n      jump\t// out\n        /* \"contracts/ExercisePractice/ToDoList.sol\":1135:1339  function setNotCompleted(uint _taskId) public {... */\n    tag_36:\n        /* \"contracts/ExercisePractice/ToDoList.sol\":1209:1214  tasks */\n      0x00\n        /* \"contracts/ExercisePractice/ToDoList.sol\":1209:1221  tasks.length */\n      dup1\n      sload\n      swap1\n      pop\n        /* \"contracts/ExercisePractice/ToDoList.sol\":1199:1206  _taskId */\n      dup2\n        /* \"contracts/ExercisePractice/ToDoList.sol\":1199:1221  _taskId < tasks.length */\n      lt\n        /* \"contracts/ExercisePractice/ToDoList.sol\":1191:1246  require(_taskId < tasks.length, \"Task does not exist.\") */\n      tag_82\n      jumpi\n      mload(0x40)\n      0x08c379a000000000000000000000000000000000000000000000000000000000\n      dup2\n      mstore\n      0x04\n      add\n      tag_83\n      swap1\n      tag_54\n      jump\t// in\n    tag_83:\n      mload(0x40)\n      dup1\n      swap2\n      sub\n      swap1\n      revert\n    tag_82:\n        /* \"contracts/ExercisePractice/ToDoList.sol\":1283:1288  false */\n      0x00\n        /* \"contracts/ExercisePractice/ToDoList.sol\":1256:1261  tasks */\n      dup1\n        /* \"contracts/ExercisePractice/ToDoList.sol\":1262:1269  _taskId */\n      dup3\n        /* \"contracts/ExercisePractice/ToDoList.sol\":1256:1270  tasks[_taskId] */\n      dup2\n      sload\n      dup2\n      lt\n      tag_84\n      jumpi\n      tag_85\n      tag_57\n      jump\t// in\n    tag_85:\n    tag_84:\n      swap1\n      0x00\n      mstore\n      keccak256(0x00, 0x20)\n      swap1\n      0x02\n      mul\n      add\n        /* \"contracts/ExercisePractice/ToDoList.sol\":1256:1280  tasks[_taskId].completed */\n      0x01\n      add\n      0x00\n        /* \"contracts/ExercisePractice/ToDoList.sol\":1256:1288  tasks[_taskId].completed = false */\n      0x0100\n      exp\n      dup2\n      sload\n      dup2\n      0xff\n      mul\n      not\n      and\n      swap1\n      dup4\n      iszero\n      iszero\n      mul\n      or\n      swap1\n      sstore\n      pop\n        /* \"contracts/ExercisePractice/ToDoList.sol\":1303:1332  TaskStatusSet(_taskId, false) */\n      0xb80817386a0cbabf4b8f2b07d7b676e03490710694548be776bbbb9b50c9ab49\n        /* \"contracts/ExercisePractice/ToDoList.sol\":1317:1324  _taskId */\n      dup2\n        /* \"contracts/ExercisePractice/ToDoList.sol\":1326:1331  false */\n      0x00\n        /* \"contracts/ExercisePractice/ToDoList.sol\":1303:1332  TaskStatusSet(_taskId, false) */\n      mload(0x40)\n      tag_87\n      swap3\n      swap2\n      swap1\n      tag_88\n      jump\t// in\n    tag_87:\n      mload(0x40)\n      dup1\n      swap2\n      sub\n      swap1\n      log1\n        /* \"contracts/ExercisePractice/ToDoList.sol\":1135:1339  function setNotCompleted(uint _taskId) public {... */\n      pop\n      jump\t// out\n        /* \"contracts/ExercisePractice/ToDoList.sol\":1377:1625  function toggleCompletion(uint _taskId) public {... */\n    tag_39:\n        /* \"contracts/ExercisePractice/ToDoList.sol\":1452:1457  tasks */\n      0x00\n        /* \"contracts/ExercisePractice/ToDoList.sol\":1452:1464  tasks.length */\n      dup1\n      sload\n      swap1\n      pop\n        /* \"contracts/ExercisePractice/ToDoList.sol\":1442:1449  _taskId */\n      dup2\n        /* \"contracts/ExercisePractice/ToDoList.sol\":1442:1464  _taskId < tasks.length */\n      lt\n        /* \"contracts/ExercisePractice/ToDoList.sol\":1434:1489  require(_taskId < tasks.length, \"Task does not exist.\") */\n      tag_90\n      jumpi\n      mload(0x40)\n      0x08c379a000000000000000000000000000000000000000000000000000000000\n      dup2\n      mstore\n      0x04\n      add\n      tag_91\n      swap1\n      tag_54\n      jump\t// in\n    tag_91:\n      mload(0x40)\n      dup1\n      swap2\n      sub\n      swap1\n      revert\n    tag_90:\n        /* \"contracts/ExercisePractice/ToDoList.sol\":1527:1532  tasks */\n      0x00\n        /* \"contracts/ExercisePractice/ToDoList.sol\":1533:1540  _taskId */\n      dup2\n        /* \"contracts/ExercisePractice/ToDoList.sol\":1527:1541  tasks[_taskId] */\n      dup2\n      sload\n      dup2\n      lt\n      tag_92\n      jumpi\n      tag_93\n      tag_57\n      jump\t// in\n    tag_93:\n    tag_92:\n      swap1\n      0x00\n      mstore\n      keccak256(0x00, 0x20)\n      swap1\n      0x02\n      mul\n      add\n        /* \"contracts/ExercisePractice/ToDoList.sol\":1527:1551  tasks[_taskId].completed */\n      0x01\n      add\n      0x00\n      swap1\n      sload\n      swap1\n      0x0100\n      exp\n      swap1\n      div\n      0xff\n      and\n        /* \"contracts/ExercisePractice/ToDoList.sol\":1526:1551  !tasks[_taskId].completed */\n      iszero\n        /* \"contracts/ExercisePractice/ToDoList.sol\":1499:1504  tasks */\n      0x00\n        /* \"contracts/ExercisePractice/ToDoList.sol\":1505:1512  _taskId */\n      dup3\n        /* \"contracts/ExercisePractice/ToDoList.sol\":1499:1513  tasks[_taskId] */\n      dup2\n      sload\n      dup2\n      lt\n      tag_95\n      jumpi\n      tag_96\n      tag_57\n      jump\t// in\n    tag_96:\n    tag_95:\n      swap1\n      0x00\n      mstore\n      keccak256(0x00, 0x20)\n      swap1\n      0x02\n      mul\n      add\n        /* \"contracts/ExercisePractice/ToDoList.sol\":1499:1523  tasks[_taskId].completed */\n      0x01\n      add\n      0x00\n        /* \"contracts/ExercisePractice/ToDoList.sol\":1499:1551  tasks[_taskId].completed = !tasks[_taskId].completed */\n      0x0100\n      exp\n      dup2\n      sload\n      dup2\n      0xff\n      mul\n      not\n      and\n      swap1\n      dup4\n      iszero\n      iszero\n      mul\n      or\n      swap1\n      sstore\n      pop\n        /* \"contracts/ExercisePractice/ToDoList.sol\":1566:1618  TaskStatusToggled(_taskId, tasks[_taskId].completed) */\n      0xc63c34089ec3ca7025b2576e9e17e226d1e6c33f64661975d35df1cea0c0a60d\n        /* \"contracts/ExercisePractice/ToDoList.sol\":1584:1591  _taskId */\n      dup2\n        /* \"contracts/ExercisePractice/ToDoList.sol\":1593:1598  tasks */\n      0x00\n        /* \"contracts/ExercisePractice/ToDoList.sol\":1599:1606  _taskId */\n      dup4\n        /* \"contracts/ExercisePractice/ToDoList.sol\":1593:1607  tasks[_taskId] */\n      dup2\n      sload\n      dup2\n      lt\n      tag_98\n      jumpi\n      tag_99\n      tag_57\n      jump\t// in\n    tag_99:\n    tag_98:\n      swap1\n      0x00\n      mstore\n      keccak256(0x00, 0x20)\n      swap1\n      0x02\n      mul\n      add\n        /* \"contracts/ExercisePractice/ToDoList.sol\":1593:1617  tasks[_taskId].completed */\n      0x01\n      add\n      0x00\n      swap1\n      sload\n      swap1\n      0x0100\n      exp\n      swap1\n      div\n      0xff\n      and\n        /* \"contracts/ExercisePractice/ToDoList.sol\":1566:1618  TaskStatusToggled(_taskId, tasks[_taskId].completed) */\n      mload(0x40)\n      tag_101\n      swap3\n      swap2\n      swap1\n      tag_88\n      jump\t// in\n    tag_101:\n      mload(0x40)\n      dup1\n      swap2\n      sub\n      swap1\n      log1\n        /* \"contracts/ExercisePractice/ToDoList.sol\":1377:1625  function toggleCompletion(uint _taskId) public {... */\n      pop\n      jump\t// out\n        /* \"contracts/ExercisePractice/ToDoList.sol\":886:1085  function setCompleted(uint _taskId) public {... */\n    tag_42:\n        /* \"contracts/ExercisePractice/ToDoList.sol\":957:962  tasks */\n      0x00\n        /* \"contracts/ExercisePractice/ToDoList.sol\":957:969  tasks.length */\n      dup1\n      sload\n      swap1\n      pop\n        /* \"contracts/ExercisePractice/ToDoList.sol\":947:954  _taskId */\n      dup2\n        /* \"contracts/ExercisePractice/ToDoList.sol\":947:969  _taskId < tasks.length */\n      lt\n        /* \"contracts/ExercisePractice/ToDoList.sol\":939:994  require(_taskId < tasks.length, \"Task does not exist.\") */\n      tag_103\n      jumpi\n      mload(0x40)\n      0x08c379a000000000000000000000000000000000000000000000000000000000\n      dup2\n      mstore\n      0x04\n      add\n      tag_104\n      swap1\n      tag_54\n      jump\t// in\n    tag_104:\n      mload(0x40)\n      dup1\n      swap2\n      sub\n      swap1\n      revert\n    tag_103:\n        /* \"contracts/ExercisePractice/ToDoList.sol\":1031:1035  true */\n      0x01\n        /* \"contracts/ExercisePractice/ToDoList.sol\":1004:1009  tasks */\n      0x00\n        /* \"contracts/ExercisePractice/ToDoList.sol\":1010:1017  _taskId */\n      dup3\n        /* \"contracts/ExercisePractice/ToDoList.sol\":1004:1018  tasks[_taskId] */\n      dup2\n      sload\n      dup2\n      lt\n      tag_105\n      jumpi\n      tag_106\n      tag_57\n      jump\t// in\n    tag_106:\n    tag_105:\n      swap1\n      0x00\n      mstore\n      keccak256(0x00, 0x20)\n      swap1\n      0x02\n      mul\n      add\n        /* \"contracts/ExercisePractice/ToDoList.sol\":1004:1028  tasks[_taskId].completed */\n      0x01\n      add\n      0x00\n        /* \"contracts/ExercisePractice/ToDoList.sol\":1004:1035  tasks[_taskId].completed = true */\n      0x0100\n      exp\n      dup2\n      sload\n      dup2\n      0xff\n      mul\n      not\n      and\n      swap1\n      dup4\n      iszero\n      iszero\n      mul\n      or\n      swap1\n      sstore\n      pop\n        /* \"contracts/ExercisePractice/ToDoList.sol\":1050:1078  TaskStatusSet(_taskId, true) */\n      0xb80817386a0cbabf4b8f2b07d7b676e03490710694548be776bbbb9b50c9ab49\n        /* \"contracts/ExercisePractice/ToDoList.sol\":1064:1071  _taskId */\n      dup2\n        /* \"contracts/ExercisePractice/ToDoList.sol\":1073:1077  true */\n      0x01\n        /* \"contracts/ExercisePractice/ToDoList.sol\":1050:1078  TaskStatusSet(_taskId, true) */\n      mload(0x40)\n      tag_108\n      swap3\n      swap2\n      swap1\n      tag_88\n      jump\t// in\n    tag_108:\n      mload(0x40)\n      dup1\n      swap2\n      sub\n      swap1\n      log1\n        /* \"contracts/ExercisePractice/ToDoList.sol\":886:1085  function setCompleted(uint _taskId) public {... */\n      pop\n      jump\t// out\n        /* \"#utility.yul\":7:82   */\n    tag_109:\n        /* \"#utility.yul\":40:46   */\n      0x00\n        /* \"#utility.yul\":73:75   */\n      0x40\n        /* \"#utility.yul\":67:76   */\n      mload\n        /* \"#utility.yul\":57:76   */\n      swap1\n      pop\n        /* \"#utility.yul\":7:82   */\n      swap1\n      jump\t// out\n        /* \"#utility.yul\":88:205   */\n    tag_110:\n        /* \"#utility.yul\":197:198   */\n      0x00\n        /* \"#utility.yul\":194:195   */\n      dup1\n        /* \"#utility.yul\":187:199   */\n      revert\n        /* \"#utility.yul\":211:328   */\n    tag_111:\n        /* \"#utility.yul\":320:321   */\n      0x00\n        /* \"#utility.yul\":317:318   */\n      dup1\n        /* \"#utility.yul\":310:322   */\n      revert\n        /* \"#utility.yul\":334:451   */\n    tag_112:\n        /* \"#utility.yul\":443:444   */\n      0x00\n        /* \"#utility.yul\":440:441   */\n      dup1\n        /* \"#utility.yul\":433:445   */\n      revert\n        /* \"#utility.yul\":457:574   */\n    tag_113:\n        /* \"#utility.yul\":566:567   */\n      0x00\n        /* \"#utility.yul\":563:564   */\n      dup1\n        /* \"#utility.yul\":556:568   */\n      revert\n        /* \"#utility.yul\":580:682   */\n    tag_114:\n        /* \"#utility.yul\":621:627   */\n      0x00\n        /* \"#utility.yul\":672:674   */\n      0x1f\n        /* \"#utility.yul\":668:675   */\n      not\n        /* \"#utility.yul\":663:665   */\n      0x1f\n        /* \"#utility.yul\":656:661   */\n      dup4\n        /* \"#utility.yul\":652:666   */\n      add\n        /* \"#utility.yul\":648:676   */\n      and\n        /* \"#utility.yul\":638:676   */\n      swap1\n      pop\n        /* \"#utility.yul\":580:682   */\n      swap2\n      swap1\n      pop\n      jump\t// out\n        /* \"#utility.yul\":688:868   */\n    tag_115:\n        /* \"#utility.yul\":736:813   */\n      0x4e487b7100000000000000000000000000000000000000000000000000000000\n        /* \"#utility.yul\":733:734   */\n      0x00\n        /* \"#utility.yul\":726:814   */\n      mstore\n        /* \"#utility.yul\":833:837   */\n      0x41\n        /* \"#utility.yul\":830:831   */\n      0x04\n        /* \"#utility.yul\":823:838   */\n      mstore\n        /* \"#utility.yul\":857:861   */\n      0x24\n        /* \"#utility.yul\":854:855   */\n      0x00\n        /* \"#utility.yul\":847:862   */\n      revert\n        /* \"#utility.yul\":874:1155   */\n    tag_116:\n        /* \"#utility.yul\":957:984   */\n      tag_160\n        /* \"#utility.yul\":979:983   */\n      dup3\n        /* \"#utility.yul\":957:984   */\n      tag_114\n      jump\t// in\n    tag_160:\n        /* \"#utility.yul\":949:955   */\n      dup2\n        /* \"#utility.yul\":945:985   */\n      add\n        /* \"#utility.yul\":1087:1093   */\n      dup2\n        /* \"#utility.yul\":1075:1085   */\n      dup2\n        /* \"#utility.yul\":1072:1094   */\n      lt\n        /* \"#utility.yul\":1051:1069   */\n      0xffffffffffffffff\n        /* \"#utility.yul\":1039:1049   */\n      dup3\n        /* \"#utility.yul\":1036:1070   */\n      gt\n        /* \"#utility.yul\":1033:1095   */\n      or\n        /* \"#utility.yul\":1030:1118   */\n      iszero\n      tag_161\n      jumpi\n        /* \"#utility.yul\":1098:1116   */\n      tag_162\n      tag_115\n      jump\t// in\n    tag_162:\n        /* \"#utility.yul\":1030:1118   */\n    tag_161:\n        /* \"#utility.yul\":1138:1148   */\n      dup1\n        /* \"#utility.yul\":1134:1136   */\n      0x40\n        /* \"#utility.yul\":1127:1149   */\n      mstore\n        /* \"#utility.yul\":917:1155   */\n      pop\n        /* \"#utility.yul\":874:1155   */\n      pop\n      pop\n      jump\t// out\n        /* \"#utility.yul\":1161:1290   */\n    tag_117:\n        /* \"#utility.yul\":1195:1201   */\n      0x00\n        /* \"#utility.yul\":1222:1242   */\n      tag_164\n      tag_109\n      jump\t// in\n    tag_164:\n        /* \"#utility.yul\":1212:1242   */\n      swap1\n      pop\n        /* \"#utility.yul\":1251:1284   */\n      tag_165\n        /* \"#utility.yul\":1279:1283   */\n      dup3\n        /* \"#utility.yul\":1271:1277   */\n      dup3\n        /* \"#utility.yul\":1251:1284   */\n      tag_116\n      jump\t// in\n    tag_165:\n        /* \"#utility.yul\":1161:1290   */\n      swap2\n      swap1\n      pop\n      jump\t// out\n        /* \"#utility.yul\":1296:1604   */\n    tag_118:\n        /* \"#utility.yul\":1358:1362   */\n      0x00\n        /* \"#utility.yul\":1448:1466   */\n      0xffffffffffffffff\n        /* \"#utility.yul\":1440:1446   */\n      dup3\n        /* \"#utility.yul\":1437:1467   */\n      gt\n        /* \"#utility.yul\":1434:1490   */\n      iszero\n      tag_167\n      jumpi\n        /* \"#utility.yul\":1470:1488   */\n      tag_168\n      tag_115\n      jump\t// in\n    tag_168:\n        /* \"#utility.yul\":1434:1490   */\n    tag_167:\n        /* \"#utility.yul\":1508:1537   */\n      tag_169\n        /* \"#utility.yul\":1530:1536   */\n      dup3\n        /* \"#utility.yul\":1508:1537   */\n      tag_114\n      jump\t// in\n    tag_169:\n        /* \"#utility.yul\":1500:1537   */\n      swap1\n      pop\n        /* \"#utility.yul\":1592:1596   */\n      0x20\n        /* \"#utility.yul\":1586:1590   */\n      dup2\n        /* \"#utility.yul\":1582:1597   */\n      add\n        /* \"#utility.yul\":1574:1597   */\n      swap1\n      pop\n        /* \"#utility.yul\":1296:1604   */\n      swap2\n      swap1\n      pop\n      jump\t// out\n        /* \"#utility.yul\":1610:1756   */\n    tag_119:\n        /* \"#utility.yul\":1707:1713   */\n      dup3\n        /* \"#utility.yul\":1702:1705   */\n      dup2\n        /* \"#utility.yul\":1697:1700   */\n      dup4\n        /* \"#utility.yul\":1684:1714   */\n      calldatacopy\n        /* \"#utility.yul\":1748:1749   */\n      0x00\n        /* \"#utility.yul\":1739:1745   */\n      dup4\n        /* \"#utility.yul\":1734:1737   */\n      dup4\n        /* \"#utility.yul\":1730:1746   */\n      add\n        /* \"#utility.yul\":1723:1750   */\n      mstore\n        /* \"#utility.yul\":1610:1756   */\n      pop\n      pop\n      pop\n      jump\t// out\n        /* \"#utility.yul\":1762:2187   */\n    tag_120:\n        /* \"#utility.yul\":1840:1845   */\n      0x00\n        /* \"#utility.yul\":1865:1931   */\n      tag_172\n        /* \"#utility.yul\":1881:1930   */\n      tag_173\n        /* \"#utility.yul\":1923:1929   */\n      dup5\n        /* \"#utility.yul\":1881:1930   */\n      tag_118\n      jump\t// in\n    tag_173:\n        /* \"#utility.yul\":1865:1931   */\n      tag_117\n      jump\t// in\n    tag_172:\n        /* \"#utility.yul\":1856:1931   */\n      swap1\n      pop\n        /* \"#utility.yul\":1954:1960   */\n      dup3\n        /* \"#utility.yul\":1947:1952   */\n      dup2\n        /* \"#utility.yul\":1940:1961   */\n      mstore\n        /* \"#utility.yul\":1992:1996   */\n      0x20\n        /* \"#utility.yul\":1985:1990   */\n      dup2\n        /* \"#utility.yul\":1981:1997   */\n      add\n        /* \"#utility.yul\":2030:2033   */\n      dup5\n        /* \"#utility.yul\":2021:2027   */\n      dup5\n        /* \"#utility.yul\":2016:2019   */\n      dup5\n        /* \"#utility.yul\":2012:2028   */\n      add\n        /* \"#utility.yul\":2009:2034   */\n      gt\n        /* \"#utility.yul\":2006:2118   */\n      iszero\n      tag_174\n      jumpi\n        /* \"#utility.yul\":2037:2116   */\n      tag_175\n      tag_113\n      jump\t// in\n    tag_175:\n        /* \"#utility.yul\":2006:2118   */\n    tag_174:\n        /* \"#utility.yul\":2127:2181   */\n      tag_176\n        /* \"#utility.yul\":2174:2180   */\n      dup5\n        /* \"#utility.yul\":2169:2172   */\n      dup3\n        /* \"#utility.yul\":2164:2167   */\n      dup6\n        /* \"#utility.yul\":2127:2181   */\n      tag_119\n      jump\t// in\n    tag_176:\n        /* \"#utility.yul\":1846:2187   */\n      pop\n        /* \"#utility.yul\":1762:2187   */\n      swap4\n      swap3\n      pop\n      pop\n      pop\n      jump\t// out\n        /* \"#utility.yul\":2207:2547   */\n    tag_121:\n        /* \"#utility.yul\":2263:2268   */\n      0x00\n        /* \"#utility.yul\":2312:2315   */\n      dup3\n        /* \"#utility.yul\":2305:2309   */\n      0x1f\n        /* \"#utility.yul\":2297:2303   */\n      dup4\n        /* \"#utility.yul\":2293:2310   */\n      add\n        /* \"#utility.yul\":2289:2316   */\n      slt\n        /* \"#utility.yul\":2279:2401   */\n      tag_178\n      jumpi\n        /* \"#utility.yul\":2320:2399   */\n      tag_179\n      tag_112\n      jump\t// in\n    tag_179:\n        /* \"#utility.yul\":2279:2401   */\n    tag_178:\n        /* \"#utility.yul\":2437:2443   */\n      dup2\n        /* \"#utility.yul\":2424:2444   */\n      calldataload\n        /* \"#utility.yul\":2462:2541   */\n      tag_180\n        /* \"#utility.yul\":2537:2540   */\n      dup5\n        /* \"#utility.yul\":2529:2535   */\n      dup3\n        /* \"#utility.yul\":2522:2526   */\n      0x20\n        /* \"#utility.yul\":2514:2520   */\n      dup7\n        /* \"#utility.yul\":2510:2527   */\n      add\n        /* \"#utility.yul\":2462:2541   */\n      tag_120\n      jump\t// in\n    tag_180:\n        /* \"#utility.yul\":2453:2541   */\n      swap2\n      pop\n        /* \"#utility.yul\":2269:2547   */\n      pop\n        /* \"#utility.yul\":2207:2547   */\n      swap3\n      swap2\n      pop\n      pop\n      jump\t// out\n        /* \"#utility.yul\":2553:3062   */\n    tag_14:\n        /* \"#utility.yul\":2622:2628   */\n      0x00\n        /* \"#utility.yul\":2671:2673   */\n      0x20\n        /* \"#utility.yul\":2659:2668   */\n      dup3\n        /* \"#utility.yul\":2650:2657   */\n      dup5\n        /* \"#utility.yul\":2646:2669   */\n      sub\n        /* \"#utility.yul\":2642:2674   */\n      slt\n        /* \"#utility.yul\":2639:2758   */\n      iszero\n      tag_182\n      jumpi\n        /* \"#utility.yul\":2677:2756   */\n      tag_183\n      tag_110\n      jump\t// in\n    tag_183:\n        /* \"#utility.yul\":2639:2758   */\n    tag_182:\n        /* \"#utility.yul\":2825:2826   */\n      0x00\n        /* \"#utility.yul\":2814:2823   */\n      dup3\n        /* \"#utility.yul\":2810:2827   */\n      add\n        /* \"#utility.yul\":2797:2828   */\n      calldataload\n        /* \"#utility.yul\":2855:2873   */\n      0xffffffffffffffff\n        /* \"#utility.yul\":2847:2853   */\n      dup2\n        /* \"#utility.yul\":2844:2874   */\n      gt\n        /* \"#utility.yul\":2841:2958   */\n      iszero\n      tag_184\n      jumpi\n        /* \"#utility.yul\":2877:2956   */\n      tag_185\n      tag_111\n      jump\t// in\n    tag_185:\n        /* \"#utility.yul\":2841:2958   */\n    tag_184:\n        /* \"#utility.yul\":2982:3045   */\n      tag_186\n        /* \"#utility.yul\":3037:3044   */\n      dup5\n        /* \"#utility.yul\":3028:3034   */\n      dup3\n        /* \"#utility.yul\":3017:3026   */\n      dup6\n        /* \"#utility.yul\":3013:3035   */\n      add\n        /* \"#utility.yul\":2982:3045   */\n      tag_121\n      jump\t// in\n    tag_186:\n        /* \"#utility.yul\":2972:3045   */\n      swap2\n      pop\n        /* \"#utility.yul\":2768:3055   */\n      pop\n        /* \"#utility.yul\":2553:3062   */\n      swap3\n      swap2\n      pop\n      pop\n      jump\t// out\n        /* \"#utility.yul\":3068:3145   */\n    tag_122:\n        /* \"#utility.yul\":3105:3112   */\n      0x00\n        /* \"#utility.yul\":3134:3139   */\n      dup2\n        /* \"#utility.yul\":3123:3139   */\n      swap1\n      pop\n        /* \"#utility.yul\":3068:3145   */\n      swap2\n      swap1\n      pop\n      jump\t// out\n        /* \"#utility.yul\":3151:3273   */\n    tag_123:\n        /* \"#utility.yul\":3224:3248   */\n      tag_189\n        /* \"#utility.yul\":3242:3247   */\n      dup2\n        /* \"#utility.yul\":3224:3248   */\n      tag_122\n      jump\t// in\n    tag_189:\n        /* \"#utility.yul\":3217:3222   */\n      dup2\n        /* \"#utility.yul\":3214:3249   */\n      eq\n        /* \"#utility.yul\":3204:3267   */\n      tag_190\n      jumpi\n        /* \"#utility.yul\":3263:3264   */\n      0x00\n        /* \"#utility.yul\":3260:3261   */\n      dup1\n        /* \"#utility.yul\":3253:3265   */\n      revert\n        /* \"#utility.yul\":3204:3267   */\n    tag_190:\n        /* \"#utility.yul\":3151:3273   */\n      pop\n      jump\t// out\n        /* \"#utility.yul\":3279:3418   */\n    tag_124:\n        /* \"#utility.yul\":3325:3330   */\n      0x00\n        /* \"#utility.yul\":3363:3369   */\n      dup2\n        /* \"#utility.yul\":3350:3370   */\n      calldataload\n        /* \"#utility.yul\":3341:3370   */\n      swap1\n      pop\n        /* \"#utility.yul\":3379:3412   */\n      tag_192\n        /* \"#utility.yul\":3406:3411   */\n      dup2\n        /* \"#utility.yul\":3379:3412   */\n      tag_123\n      jump\t// in\n    tag_192:\n        /* \"#utility.yul\":3279:3418   */\n      swap3\n      swap2\n      pop\n      pop\n      jump\t// out\n        /* \"#utility.yul\":3424:3753   */\n    tag_18:\n        /* \"#utility.yul\":3483:3489   */\n      0x00\n        /* \"#utility.yul\":3532:3534   */\n      0x20\n        /* \"#utility.yul\":3520:3529   */\n      dup3\n        /* \"#utility.yul\":3511:3518   */\n      dup5\n        /* \"#utility.yul\":3507:3530   */\n      sub\n        /* \"#utility.yul\":3503:3535   */\n      slt\n        /* \"#utility.yul\":3500:3619   */\n      iszero\n      tag_194\n      jumpi\n        /* \"#utility.yul\":3538:3617   */\n      tag_195\n      tag_110\n      jump\t// in\n    tag_195:\n        /* \"#utility.yul\":3500:3619   */\n    tag_194:\n        /* \"#utility.yul\":3658:3659   */\n      0x00\n        /* \"#utility.yul\":3683:3736   */\n      tag_196\n        /* \"#utility.yul\":3728:3735   */\n      dup5\n        /* \"#utility.yul\":3719:3725   */\n      dup3\n        /* \"#utility.yul\":3708:3717   */\n      dup6\n        /* \"#utility.yul\":3704:3726   */\n      add\n        /* \"#utility.yul\":3683:3736   */\n      tag_124\n      jump\t// in\n    tag_196:\n        /* \"#utility.yul\":3673:3736   */\n      swap2\n      pop\n        /* \"#utility.yul\":3629:3746   */\n      pop\n        /* \"#utility.yul\":3424:3753   */\n      swap3\n      swap2\n      pop\n      pop\n      jump\t// out\n        /* \"#utility.yul\":3759:3858   */\n    tag_125:\n        /* \"#utility.yul\":3811:3817   */\n      0x00\n        /* \"#utility.yul\":3845:3850   */\n      dup2\n        /* \"#utility.yul\":3839:3851   */\n      mload\n        /* \"#utility.yul\":3829:3851   */\n      swap1\n      pop\n        /* \"#utility.yul\":3759:3858   */\n      swap2\n      swap1\n      pop\n      jump\t// out\n        /* \"#utility.yul\":3864:4033   */\n    tag_126:\n        /* \"#utility.yul\":3948:3959   */\n      0x00\n        /* \"#utility.yul\":3982:3988   */\n      dup3\n        /* \"#utility.yul\":3977:3980   */\n      dup3\n        /* \"#utility.yul\":3970:3989   */\n      mstore\n        /* \"#utility.yul\":4022:4026   */\n      0x20\n        /* \"#utility.yul\":4017:4020   */\n      dup3\n        /* \"#utility.yul\":4013:4027   */\n      add\n        /* \"#utility.yul\":3998:4027   */\n      swap1\n      pop\n        /* \"#utility.yul\":3864:4033   */\n      swap3\n      swap2\n      pop\n      pop\n      jump\t// out\n        /* \"#utility.yul\":4039:4285   */\n    tag_127:\n        /* \"#utility.yul\":4120:4121   */\n      0x00\n        /* \"#utility.yul\":4130:4243   */\n    tag_200:\n        /* \"#utility.yul\":4144:4150   */\n      dup4\n        /* \"#utility.yul\":4141:4142   */\n      dup2\n        /* \"#utility.yul\":4138:4151   */\n      lt\n        /* \"#utility.yul\":4130:4243   */\n      iszero\n      tag_202\n      jumpi\n        /* \"#utility.yul\":4229:4230   */\n      dup1\n        /* \"#utility.yul\":4224:4227   */\n      dup3\n        /* \"#utility.yul\":4220:4231   */\n      add\n        /* \"#utility.yul\":4214:4232   */\n      mload\n        /* \"#utility.yul\":4210:4211   */\n      dup2\n        /* \"#utility.yul\":4205:4208   */\n      dup5\n        /* \"#utility.yul\":4201:4212   */\n      add\n        /* \"#utility.yul\":4194:4233   */\n      mstore\n        /* \"#utility.yul\":4166:4168   */\n      0x20\n        /* \"#utility.yul\":4163:4164   */\n      dup2\n        /* \"#utility.yul\":4159:4169   */\n      add\n        /* \"#utility.yul\":4154:4169   */\n      swap1\n      pop\n        /* \"#utility.yul\":4130:4243   */\n      jump(tag_200)\n    tag_202:\n        /* \"#utility.yul\":4277:4278   */\n      0x00\n        /* \"#utility.yul\":4268:4274   */\n      dup5\n        /* \"#utility.yul\":4263:4266   */\n      dup5\n        /* \"#utility.yul\":4259:4275   */\n      add\n        /* \"#utility.yul\":4252:4279   */\n      mstore\n        /* \"#utility.yul\":4101:4285   */\n      pop\n        /* \"#utility.yul\":4039:4285   */\n      pop\n      pop\n      pop\n      jump\t// out\n        /* \"#utility.yul\":4291:4668   */\n    tag_128:\n        /* \"#utility.yul\":4379:4382   */\n      0x00\n        /* \"#utility.yul\":4407:4446   */\n      tag_204\n        /* \"#utility.yul\":4440:4445   */\n      dup3\n        /* \"#utility.yul\":4407:4446   */\n      tag_125\n      jump\t// in\n    tag_204:\n        /* \"#utility.yul\":4462:4533   */\n      tag_205\n        /* \"#utility.yul\":4526:4532   */\n      dup2\n        /* \"#utility.yul\":4521:4524   */\n      dup6\n        /* \"#utility.yul\":4462:4533   */\n      tag_126\n      jump\t// in\n    tag_205:\n        /* \"#utility.yul\":4455:4533   */\n      swap4\n      pop\n        /* \"#utility.yul\":4542:4607   */\n      tag_206\n        /* \"#utility.yul\":4600:4606   */\n      dup2\n        /* \"#utility.yul\":4595:4598   */\n      dup6\n        /* \"#utility.yul\":4588:4592   */\n      0x20\n        /* \"#utility.yul\":4581:4586   */\n      dup7\n        /* \"#utility.yul\":4577:4593   */\n      add\n        /* \"#utility.yul\":4542:4607   */\n      tag_127\n      jump\t// in\n    tag_206:\n        /* \"#utility.yul\":4632:4661   */\n      tag_207\n        /* \"#utility.yul\":4654:4660   */\n      dup2\n        /* \"#utility.yul\":4632:4661   */\n      tag_114\n      jump\t// in\n    tag_207:\n        /* \"#utility.yul\":4627:4630   */\n      dup5\n        /* \"#utility.yul\":4623:4662   */\n      add\n        /* \"#utility.yul\":4616:4662   */\n      swap2\n      pop\n        /* \"#utility.yul\":4383:4668   */\n      pop\n        /* \"#utility.yul\":4291:4668   */\n      swap3\n      swap2\n      pop\n      pop\n      jump\t// out\n        /* \"#utility.yul\":4674:4764   */\n    tag_129:\n        /* \"#utility.yul\":4708:4715   */\n      0x00\n        /* \"#utility.yul\":4751:4756   */\n      dup2\n        /* \"#utility.yul\":4744:4757   */\n      iszero\n        /* \"#utility.yul\":4737:4758   */\n      iszero\n        /* \"#utility.yul\":4726:4758   */\n      swap1\n      pop\n        /* \"#utility.yul\":4674:4764   */\n      swap2\n      swap1\n      pop\n      jump\t// out\n        /* \"#utility.yul\":4770:4879   */\n    tag_130:\n        /* \"#utility.yul\":4851:4872   */\n      tag_210\n        /* \"#utility.yul\":4866:4871   */\n      dup2\n        /* \"#utility.yul\":4851:4872   */\n      tag_129\n      jump\t// in\n    tag_210:\n        /* \"#utility.yul\":4846:4849   */\n      dup3\n        /* \"#utility.yul\":4839:4873   */\n      mstore\n        /* \"#utility.yul\":4770:4879   */\n      pop\n      pop\n      jump\t// out\n        /* \"#utility.yul\":4885:5296   */\n    tag_21:\n        /* \"#utility.yul\":5020:5024   */\n      0x00\n        /* \"#utility.yul\":5058:5060   */\n      0x40\n        /* \"#utility.yul\":5047:5056   */\n      dup3\n        /* \"#utility.yul\":5043:5061   */\n      add\n        /* \"#utility.yul\":5035:5061   */\n      swap1\n      pop\n        /* \"#utility.yul\":5107:5116   */\n      dup2\n        /* \"#utility.yul\":5101:5105   */\n      dup2\n        /* \"#utility.yul\":5097:5117   */\n      sub\n        /* \"#utility.yul\":5093:5094   */\n      0x00\n        /* \"#utility.yul\":5082:5091   */\n      dup4\n        /* \"#utility.yul\":5078:5095   */\n      add\n        /* \"#utility.yul\":5071:5118   */\n      mstore\n        /* \"#utility.yul\":5135:5213   */\n      tag_212\n        /* \"#utility.yul\":5208:5212   */\n      dup2\n        /* \"#utility.yul\":5199:5205   */\n      dup6\n        /* \"#utility.yul\":5135:5213   */\n      tag_128\n      jump\t// in\n    tag_212:\n        /* \"#utility.yul\":5127:5213   */\n      swap1\n      pop\n        /* \"#utility.yul\":5223:5289   */\n      tag_213\n        /* \"#utility.yul\":5285:5287   */\n      0x20\n        /* \"#utility.yul\":5274:5283   */\n      dup4\n        /* \"#utility.yul\":5270:5288   */\n      add\n        /* \"#utility.yul\":5261:5267   */\n      dup5\n        /* \"#utility.yul\":5223:5289   */\n      tag_130\n      jump\t// in\n    tag_213:\n        /* \"#utility.yul\":4885:5296   */\n      swap4\n      swap3\n      pop\n      pop\n      pop\n      jump\t// out\n        /* \"#utility.yul\":5302:5420   */\n    tag_131:\n        /* \"#utility.yul\":5389:5413   */\n      tag_215\n        /* \"#utility.yul\":5407:5412   */\n      dup2\n        /* \"#utility.yul\":5389:5413   */\n      tag_122\n      jump\t// in\n    tag_215:\n        /* \"#utility.yul\":5384:5387   */\n      dup3\n        /* \"#utility.yul\":5377:5414   */\n      mstore\n        /* \"#utility.yul\":5302:5420   */\n      pop\n      pop\n      jump\t// out\n        /* \"#utility.yul\":5426:5648   */\n    tag_29:\n        /* \"#utility.yul\":5519:5523   */\n      0x00\n        /* \"#utility.yul\":5557:5559   */\n      0x20\n        /* \"#utility.yul\":5546:5555   */\n      dup3\n        /* \"#utility.yul\":5542:5560   */\n      add\n        /* \"#utility.yul\":5534:5560   */\n      swap1\n      pop\n        /* \"#utility.yul\":5570:5641   */\n      tag_217\n        /* \"#utility.yul\":5638:5639   */\n      0x00\n        /* \"#utility.yul\":5627:5636   */\n      dup4\n        /* \"#utility.yul\":5623:5640   */\n      add\n        /* \"#utility.yul\":5614:5620   */\n      dup5\n        /* \"#utility.yul\":5570:5641   */\n      tag_131\n      jump\t// in\n    tag_217:\n        /* \"#utility.yul\":5426:5648   */\n      swap3\n      swap2\n      pop\n      pop\n      jump\t// out\n        /* \"#utility.yul\":5654:6308   */\n    tag_32:\n        /* \"#utility.yul\":5732:5738   */\n      0x00\n        /* \"#utility.yul\":5740:5746   */\n      dup1\n        /* \"#utility.yul\":5789:5791   */\n      0x40\n        /* \"#utility.yul\":5777:5786   */\n      dup4\n        /* \"#utility.yul\":5768:5775   */\n      dup6\n        /* \"#utility.yul\":5764:5787   */\n      sub\n        /* \"#utility.yul\":5760:5792   */\n      slt\n        /* \"#utility.yul\":5757:5876   */\n      iszero\n      tag_219\n      jumpi\n        /* \"#utility.yul\":5795:5874   */\n      tag_220\n      tag_110\n      jump\t// in\n    tag_220:\n        /* \"#utility.yul\":5757:5876   */\n    tag_219:\n        /* \"#utility.yul\":5915:5916   */\n      0x00\n        /* \"#utility.yul\":5940:5993   */\n      tag_221\n        /* \"#utility.yul\":5985:5992   */\n      dup6\n        /* \"#utility.yul\":5976:5982   */\n      dup3\n        /* \"#utility.yul\":5965:5974   */\n      dup7\n        /* \"#utility.yul\":5961:5983   */\n      add\n        /* \"#utility.yul\":5940:5993   */\n      tag_124\n      jump\t// in\n    tag_221:\n        /* \"#utility.yul\":5930:5993   */\n      swap3\n      pop\n        /* \"#utility.yul\":5886:6003   */\n      pop\n        /* \"#utility.yul\":6070:6072   */\n      0x20\n        /* \"#utility.yul\":6059:6068   */\n      dup4\n        /* \"#utility.yul\":6055:6073   */\n      add\n        /* \"#utility.yul\":6042:6074   */\n      calldataload\n        /* \"#utility.yul\":6101:6119   */\n      0xffffffffffffffff\n        /* \"#utility.yul\":6093:6099   */\n      dup2\n        /* \"#utility.yul\":6090:6120   */\n      gt\n        /* \"#utility.yul\":6087:6204   */\n      iszero\n      tag_222\n      jumpi\n        /* \"#utility.yul\":6123:6202   */\n      tag_223\n      tag_111\n      jump\t// in\n    tag_223:\n        /* \"#utility.yul\":6087:6204   */\n    tag_222:\n        /* \"#utility.yul\":6228:6291   */\n      tag_224\n        /* \"#utility.yul\":6283:6290   */\n      dup6\n        /* \"#utility.yul\":6274:6280   */\n      dup3\n        /* \"#utility.yul\":6263:6272   */\n      dup7\n        /* \"#utility.yul\":6259:6281   */\n      add\n        /* \"#utility.yul\":6228:6291   */\n      tag_121\n      jump\t// in\n    tag_224:\n        /* \"#utility.yul\":6218:6291   */\n      swap2\n      pop\n        /* \"#utility.yul\":6013:6301   */\n      pop\n        /* \"#utility.yul\":5654:6308   */\n      swap3\n      pop\n      swap3\n      swap1\n      pop\n      jump\t// out\n        /* \"#utility.yul\":6314:6494   */\n    tag_132:\n        /* \"#utility.yul\":6362:6439   */\n      0x4e487b7100000000000000000000000000000000000000000000000000000000\n        /* \"#utility.yul\":6359:6360   */\n      0x00\n        /* \"#utility.yul\":6352:6440   */\n      mstore\n        /* \"#utility.yul\":6459:6463   */\n      0x22\n        /* \"#utility.yul\":6456:6457   */\n      0x04\n        /* \"#utility.yul\":6449:6464   */\n      mstore\n        /* \"#utility.yul\":6483:6487   */\n      0x24\n        /* \"#utility.yul\":6480:6481   */\n      0x00\n        /* \"#utility.yul\":6473:6488   */\n      revert\n        /* \"#utility.yul\":6500:6820   */\n    tag_60:\n        /* \"#utility.yul\":6544:6550   */\n      0x00\n        /* \"#utility.yul\":6581:6582   */\n      0x02\n        /* \"#utility.yul\":6575:6579   */\n      dup3\n        /* \"#utility.yul\":6571:6583   */\n      div\n        /* \"#utility.yul\":6561:6583   */\n      swap1\n      pop\n        /* \"#utility.yul\":6628:6629   */\n      0x01\n        /* \"#utility.yul\":6622:6626   */\n      dup3\n        /* \"#utility.yul\":6618:6630   */\n      and\n        /* \"#utility.yul\":6649:6667   */\n      dup1\n        /* \"#utility.yul\":6639:6720   */\n      tag_227\n      jumpi\n        /* \"#utility.yul\":6705:6709   */\n      0x7f\n        /* \"#utility.yul\":6697:6703   */\n      dup3\n        /* \"#utility.yul\":6693:6710   */\n      and\n        /* \"#utility.yul\":6683:6710   */\n      swap2\n      pop\n        /* \"#utility.yul\":6639:6720   */\n    tag_227:\n        /* \"#utility.yul\":6767:6769   */\n      0x20\n        /* \"#utility.yul\":6759:6765   */\n      dup3\n        /* \"#utility.yul\":6756:6770   */\n      lt\n        /* \"#utility.yul\":6736:6754   */\n      dup2\n        /* \"#utility.yul\":6733:6771   */\n      sub\n        /* \"#utility.yul\":6730:6814   */\n      tag_228\n      jumpi\n        /* \"#utility.yul\":6786:6804   */\n      tag_229\n      tag_132\n      jump\t// in\n    tag_229:\n        /* \"#utility.yul\":6730:6814   */\n    tag_228:\n        /* \"#utility.yul\":6551:6820   */\n      pop\n        /* \"#utility.yul\":6500:6820   */\n      swap2\n      swap1\n      pop\n      jump\t// out\n        /* \"#utility.yul\":6826:6967   */\n    tag_133:\n        /* \"#utility.yul\":6875:6879   */\n      0x00\n        /* \"#utility.yul\":6898:6901   */\n      dup2\n        /* \"#utility.yul\":6890:6901   */\n      swap1\n      pop\n        /* \"#utility.yul\":6921:6924   */\n      dup2\n        /* \"#utility.yul\":6918:6919   */\n      0x00\n        /* \"#utility.yul\":6911:6925   */\n      mstore\n        /* \"#utility.yul\":6955:6959   */\n      0x20\n        /* \"#utility.yul\":6952:6953   */\n      0x00\n        /* \"#utility.yul\":6942:6960   */\n      keccak256\n        /* \"#utility.yul\":6934:6960   */\n      swap1\n      pop\n        /* \"#utility.yul\":6826:6967   */\n      swap2\n      swap1\n      pop\n      jump\t// out\n        /* \"#utility.yul\":6973:7066   */\n    tag_134:\n        /* \"#utility.yul\":7010:7016   */\n      0x00\n        /* \"#utility.yul\":7057:7059   */\n      0x20\n        /* \"#utility.yul\":7052:7054   */\n      0x1f\n        /* \"#utility.yul\":7045:7050   */\n      dup4\n        /* \"#utility.yul\":7041:7055   */\n      add\n        /* \"#utility.yul\":7037:7060   */\n      div\n        /* \"#utility.yul\":7027:7060   */\n      swap1\n      pop\n        /* \"#utility.yul\":6973:7066   */\n      swap2\n      swap1\n      pop\n      jump\t// out\n        /* \"#utility.yul\":7072:7179   */\n    tag_135:\n        /* \"#utility.yul\":7116:7124   */\n      0x00\n        /* \"#utility.yul\":7166:7171   */\n      dup3\n        /* \"#utility.yul\":7160:7164   */\n      dup3\n        /* \"#utility.yul\":7156:7172   */\n      shl\n        /* \"#utility.yul\":7135:7172   */\n      swap1\n      pop\n        /* \"#utility.yul\":7072:7179   */\n      swap3\n      swap2\n      pop\n      pop\n      jump\t// out\n        /* \"#utility.yul\":7185:7578   */\n    tag_136:\n        /* \"#utility.yul\":7254:7260   */\n      0x00\n        /* \"#utility.yul\":7304:7305   */\n      0x08\n        /* \"#utility.yul\":7292:7302   */\n      dup4\n        /* \"#utility.yul\":7288:7306   */\n      mul\n        /* \"#utility.yul\":7327:7424   */\n      tag_234\n        /* \"#utility.yul\":7357:7423   */\n      0xffffffffffffffffffffffffffffffffffffffffffffffffffffffffffffffff\n        /* \"#utility.yul\":7346:7355   */\n      dup3\n        /* \"#utility.yul\":7327:7424   */\n      tag_135\n      jump\t// in\n    tag_234:\n        /* \"#utility.yul\":7445:7484   */\n      tag_235\n        /* \"#utility.yul\":7475:7483   */\n      dup7\n        /* \"#utility.yul\":7464:7473   */\n      dup4\n        /* \"#utility.yul\":7445:7484   */\n      tag_135\n      jump\t// in\n    tag_235:\n        /* \"#utility.yul\":7433:7484   */\n      swap6\n      pop\n        /* \"#utility.yul\":7517:7521   */\n      dup1\n        /* \"#utility.yul\":7513:7522   */\n      not\n        /* \"#utility.yul\":7506:7511   */\n      dup5\n        /* \"#utility.yul\":7502:7523   */\n      and\n        /* \"#utility.yul\":7493:7523   */\n      swap4\n      pop\n        /* \"#utility.yul\":7566:7570   */\n      dup1\n        /* \"#utility.yul\":7556:7564   */\n      dup7\n        /* \"#utility.yul\":7552:7571   */\n      and\n        /* \"#utility.yul\":7545:7550   */\n      dup5\n        /* \"#utility.yul\":7542:7572   */\n      or\n        /* \"#utility.yul\":7532:7572   */\n      swap3\n      pop\n        /* \"#utility.yul\":7261:7578   */\n      pop\n      pop\n        /* \"#utility.yul\":7185:7578   */\n      swap4\n      swap3\n      pop\n      pop\n      pop\n      jump\t// out\n        /* \"#utility.yul\":7584:7644   */\n    tag_137:\n        /* \"#utility.yul\":7612:7615   */\n      0x00\n        /* \"#utility.yul\":7633:7638   */\n      dup2\n        /* \"#utility.yul\":7626:7638   */\n      swap1\n      pop\n        /* \"#utility.yul\":7584:7644   */\n      swap2\n      swap1\n      pop\n      jump\t// out\n        /* \"#utility.yul\":7650:7792   */\n    tag_138:\n        /* \"#utility.yul\":7700:7709   */\n      0x00\n        /* \"#utility.yul\":7733:7786   */\n      tag_238\n        /* \"#utility.yul\":7751:7785   */\n      tag_239\n        /* \"#utility.yul\":7760:7784   */\n      tag_240\n        /* \"#utility.yul\":7778:7783   */\n      dup5\n        /* \"#utility.yul\":7760:7784   */\n      tag_122\n      jump\t// in\n    tag_240:\n        /* \"#utility.yul\":7751:7785   */\n      tag_137\n      jump\t// in\n    tag_239:\n        /* \"#utility.yul\":7733:7786   */\n      tag_122\n      jump\t// in\n    tag_238:\n        /* \"#utility.yul\":7720:7786   */\n      swap1\n      pop\n        /* \"#utility.yul\":7650:7792   */\n      swap2\n      swap1\n      pop\n      jump\t// out\n        /* \"#utility.yul\":7798:7873   */\n    tag_139:\n        /* \"#utility.yul\":7841:7844   */\n      0x00\n        /* \"#utility.yul\":7862:7867   */\n      dup2\n        /* \"#utility.yul\":7855:7867   */\n      swap1\n      pop\n        /* \"#utility.yul\":7798:7873   */\n      swap2\n      swap1\n      pop\n      jump\t// out\n        /* \"#utility.yul\":7879:8148   */\n    tag_140:\n        /* \"#utility.yul\":7989:8028   */\n      tag_243\n        /* \"#utility.yul\":8020:8027   */\n      dup4\n        /* \"#utility.yul\":7989:8028   */\n      tag_138\n      jump\t// in\n    tag_243:\n        /* \"#utility.yul\":8050:8141   */\n      tag_244\n        /* \"#utility.yul\":8099:8140   */\n      tag_245\n        /* \"#utility.yul\":8123:8139   */\n      dup3\n        /* \"#utility.yul\":8099:8140   */\n      tag_139\n      jump\t// in\n    tag_245:\n        /* \"#utility.yul\":8091:8097   */\n      dup5\n        /* \"#utility.yul\":8084:8088   */\n      dup5\n        /* \"#utility.yul\":8078:8089   */\n      sload\n        /* \"#utility.yul\":8050:8141   */\n      tag_136\n      jump\t// in\n    tag_244:\n        /* \"#utility.yul\":8044:8048   */\n      dup3\n        /* \"#utility.yul\":8037:8142   */\n      sstore\n        /* \"#utility.yul\":7955:8148   */\n      pop\n        /* \"#utility.yul\":7879:8148   */\n      pop\n      pop\n      pop\n      jump\t// out\n        /* \"#utility.yul\":8154:8227   */\n    tag_141:\n        /* \"#utility.yul\":8199:8202   */\n      0x00\n        /* \"#utility.yul\":8154:8227   */\n      swap1\n      jump\t// out\n        /* \"#utility.yul\":8233:8422   */\n    tag_142:\n        /* \"#utility.yul\":8310:8342   */\n      tag_248\n      tag_141\n      jump\t// in\n    tag_248:\n        /* \"#utility.yul\":8351:8416   */\n      tag_249\n        /* \"#utility.yul\":8409:8415   */\n      dup2\n        /* \"#utility.yul\":8401:8407   */\n      dup5\n        /* \"#utility.yul\":8395:8399   */\n      dup5\n        /* \"#utility.yul\":8351:8416   */\n      tag_140\n      jump\t// in\n    tag_249:\n        /* \"#utility.yul\":8286:8422   */\n      pop\n        /* \"#utility.yul\":8233:8422   */\n      pop\n      pop\n      jump\t// out\n        /* \"#utility.yul\":8428:8614   */\n    tag_143:\n        /* \"#utility.yul\":8488:8608   */\n    tag_251:\n        /* \"#utility.yul\":8505:8508   */\n      dup2\n        /* \"#utility.yul\":8498:8503   */\n      dup2\n        /* \"#utility.yul\":8495:8509   */\n      lt\n        /* \"#utility.yul\":8488:8608   */\n      iszero\n      tag_253\n      jumpi\n        /* \"#utility.yul\":8559:8598   */\n      tag_254\n        /* \"#utility.yul\":8596:8597   */\n      0x00\n        /* \"#utility.yul\":8589:8594   */\n      dup3\n        /* \"#utility.yul\":8559:8598   */\n      tag_142\n      jump\t// in\n    tag_254:\n        /* \"#utility.yul\":8532:8533   */\n      0x01\n        /* \"#utility.yul\":8525:8530   */\n      dup2\n        /* \"#utility.yul\":8521:8534   */\n      add\n        /* \"#utility.yul\":8512:8534   */\n      swap1\n      pop\n        /* \"#utility.yul\":8488:8608   */\n      jump(tag_251)\n    tag_253:\n        /* \"#utility.yul\":8428:8614   */\n      pop\n      pop\n      jump\t// out\n        /* \"#utility.yul\":8620:9163   */\n    tag_144:\n        /* \"#utility.yul\":8721:8723   */\n      0x1f\n        /* \"#utility.yul\":8716:8719   */\n      dup3\n        /* \"#utility.yul\":8713:8724   */\n      gt\n        /* \"#utility.yul\":8710:9156   */\n      iszero\n      tag_256\n      jumpi\n        /* \"#utility.yul\":8755:8793   */\n      tag_257\n        /* \"#utility.yul\":8787:8792   */\n      dup2\n        /* \"#utility.yul\":8755:8793   */\n      tag_133\n      jump\t// in\n    tag_257:\n        /* \"#utility.yul\":8839:8868   */\n      tag_258\n        /* \"#utility.yul\":8857:8867   */\n      dup5\n        /* \"#utility.yul\":8839:8868   */\n      tag_134\n      jump\t// in\n    tag_258:\n        /* \"#utility.yul\":8829:8837   */\n      dup2\n        /* \"#utility.yul\":8825:8869   */\n      add\n        /* \"#utility.yul\":9022:9024   */\n      0x20\n        /* \"#utility.yul\":9010:9020   */\n      dup6\n        /* \"#utility.yul\":9007:9025   */\n      lt\n        /* \"#utility.yul\":9004:9053   */\n      iszero\n      tag_259\n      jumpi\n        /* \"#utility.yul\":9043:9051   */\n      dup2\n        /* \"#utility.yul\":9028:9051   */\n      swap1\n      pop\n        /* \"#utility.yul\":9004:9053   */\n    tag_259:\n        /* \"#utility.yul\":9066:9146   */\n      tag_260\n        /* \"#utility.yul\":9122:9144   */\n      tag_261\n        /* \"#utility.yul\":9140:9143   */\n      dup6\n        /* \"#utility.yul\":9122:9144   */\n      tag_134\n      jump\t// in\n    tag_261:\n        /* \"#utility.yul\":9112:9120   */\n      dup4\n        /* \"#utility.yul\":9108:9145   */\n      add\n        /* \"#utility.yul\":9095:9106   */\n      dup3\n        /* \"#utility.yul\":9066:9146   */\n      tag_143\n      jump\t// in\n    tag_260:\n        /* \"#utility.yul\":8725:9156   */\n      pop\n      pop\n        /* \"#utility.yul\":8710:9156   */\n    tag_256:\n        /* \"#utility.yul\":8620:9163   */\n      pop\n      pop\n      pop\n      jump\t// out\n        /* \"#utility.yul\":9169:9286   */\n    tag_145:\n        /* \"#utility.yul\":9223:9231   */\n      0x00\n        /* \"#utility.yul\":9273:9278   */\n      dup3\n        /* \"#utility.yul\":9267:9271   */\n      dup3\n        /* \"#utility.yul\":9263:9279   */\n      shr\n        /* \"#utility.yul\":9242:9279   */\n      swap1\n      pop\n        /* \"#utility.yul\":9169:9286   */\n      swap3\n      swap2\n      pop\n      pop\n      jump\t// out\n        /* \"#utility.yul\":9292:9461   */\n    tag_146:\n        /* \"#utility.yul\":9336:9342   */\n      0x00\n        /* \"#utility.yul\":9369:9420   */\n      tag_264\n        /* \"#utility.yul\":9417:9418   */\n      0x00\n        /* \"#utility.yul\":9413:9419   */\n      not\n        /* \"#utility.yul\":9405:9410   */\n      dup5\n        /* \"#utility.yul\":9402:9403   */\n      0x08\n        /* \"#utility.yul\":9398:9411   */\n      mul\n        /* \"#utility.yul\":9369:9420   */\n      tag_145\n      jump\t// in\n    tag_264:\n        /* \"#utility.yul\":9365:9421   */\n      not\n        /* \"#utility.yul\":9450:9454   */\n      dup1\n        /* \"#utility.yul\":9444:9448   */\n      dup4\n        /* \"#utility.yul\":9440:9455   */\n      and\n        /* \"#utility.yul\":9430:9455   */\n      swap2\n      pop\n        /* \"#utility.yul\":9343:9461   */\n      pop\n        /* \"#utility.yul\":9292:9461   */\n      swap3\n      swap2\n      pop\n      pop\n      jump\t// out\n        /* \"#utility.yul\":9466:9761   */\n    tag_147:\n        /* \"#utility.yul\":9542:9546   */\n      0x00\n        /* \"#utility.yul\":9688:9717   */\n      tag_266\n        /* \"#utility.yul\":9713:9716   */\n      dup4\n        /* \"#utility.yul\":9707:9711   */\n      dup4\n        /* \"#utility.yul\":9688:9717   */\n      tag_146\n      jump\t// in\n    tag_266:\n        /* \"#utility.yul\":9680:9717   */\n      swap2\n      pop\n        /* \"#utility.yul\":9750:9753   */\n      dup3\n        /* \"#utility.yul\":9747:9748   */\n      0x02\n        /* \"#utility.yul\":9743:9754   */\n      mul\n        /* \"#utility.yul\":9737:9741   */\n      dup3\n        /* \"#utility.yul\":9734:9755   */\n      or\n        /* \"#utility.yul\":9726:9755   */\n      swap1\n      pop\n        /* \"#utility.yul\":9466:9761   */\n      swap3\n      swap2\n      pop\n      pop\n      jump\t// out\n        /* \"#utility.yul\":9766:11161   */\n    tag_46:\n        /* \"#utility.yul\":9883:9920   */\n      tag_268\n        /* \"#utility.yul\":9916:9919   */\n      dup3\n        /* \"#utility.yul\":9883:9920   */\n      tag_125\n      jump\t// in\n    tag_268:\n        /* \"#utility.yul\":9985:10003   */\n      0xffffffffffffffff\n        /* \"#utility.yul\":9977:9983   */\n      dup2\n        /* \"#utility.yul\":9974:10004   */\n      gt\n        /* \"#utility.yul\":9971:10027   */\n      iszero\n      tag_269\n      jumpi\n        /* \"#utility.yul\":10007:10025   */\n      tag_270\n      tag_115\n      jump\t// in\n    tag_270:\n        /* \"#utility.yul\":9971:10027   */\n    tag_269:\n        /* \"#utility.yul\":10051:10089   */\n      tag_271\n        /* \"#utility.yul\":10083:10087   */\n      dup3\n        /* \"#utility.yul\":10077:10088   */\n      sload\n        /* \"#utility.yul\":10051:10089   */\n      tag_60\n      jump\t// in\n    tag_271:\n        /* \"#utility.yul\":10136:10203   */\n      tag_272\n        /* \"#utility.yul\":10196:10202   */\n      dup3\n        /* \"#utility.yul\":10188:10194   */\n      dup3\n        /* \"#utility.yul\":10182:10186   */\n      dup6\n        /* \"#utility.yul\":10136:10203   */\n      tag_144\n      jump\t// in\n    tag_272:\n        /* \"#utility.yul\":10230:10231   */\n      0x00\n        /* \"#utility.yul\":10254:10258   */\n      0x20\n        /* \"#utility.yul\":10241:10258   */\n      swap1\n      pop\n        /* \"#utility.yul\":10286:10288   */\n      0x1f\n        /* \"#utility.yul\":10278:10284   */\n      dup4\n        /* \"#utility.yul\":10275:10289   */\n      gt\n        /* \"#utility.yul\":10303:10304   */\n      0x01\n        /* \"#utility.yul\":10298:10916   */\n      dup2\n      eq\n      tag_274\n      jumpi\n        /* \"#utility.yul\":10960:10961   */\n      0x00\n        /* \"#utility.yul\":10977:10983   */\n      dup5\n        /* \"#utility.yul\":10974:11051   */\n      iszero\n      tag_275\n      jumpi\n        /* \"#utility.yul\":11026:11035   */\n      dup3\n        /* \"#utility.yul\":11021:11024   */\n      dup8\n        /* \"#utility.yul\":11017:11036   */\n      add\n        /* \"#utility.yul\":11011:11037   */\n      mload\n        /* \"#utility.yul\":11002:11037   */\n      swap1\n      pop\n        /* \"#utility.yul\":10974:11051   */\n    tag_275:\n        /* \"#utility.yul\":11077:11144   */\n      tag_276\n        /* \"#utility.yul\":11137:11143   */\n      dup6\n        /* \"#utility.yul\":11130:11135   */\n      dup3\n        /* \"#utility.yul\":11077:11144   */\n      tag_147\n      jump\t// in\n    tag_276:\n        /* \"#utility.yul\":11071:11075   */\n      dup7\n        /* \"#utility.yul\":11064:11145   */\n      sstore\n        /* \"#utility.yul\":10933:11155   */\n      pop\n        /* \"#utility.yul\":10268:11155   */\n      jump(tag_273)\n        /* \"#utility.yul\":10298:10916   */\n    tag_274:\n        /* \"#utility.yul\":10350:10354   */\n      0x1f\n        /* \"#utility.yul\":10346:10355   */\n      not\n        /* \"#utility.yul\":10338:10344   */\n      dup5\n        /* \"#utility.yul\":10334:10356   */\n      and\n        /* \"#utility.yul\":10384:10421   */\n      tag_277\n        /* \"#utility.yul\":10416:10420   */\n      dup7\n        /* \"#utility.yul\":10384:10421   */\n      tag_133\n      jump\t// in\n    tag_277:\n        /* \"#utility.yul\":10443:10444   */\n      0x00\n        /* \"#utility.yul\":10457:10665   */\n    tag_278:\n        /* \"#utility.yul\":10471:10478   */\n      dup3\n        /* \"#utility.yul\":10468:10469   */\n      dup2\n        /* \"#utility.yul\":10465:10479   */\n      lt\n        /* \"#utility.yul\":10457:10665   */\n      iszero\n      tag_280\n      jumpi\n        /* \"#utility.yul\":10550:10559   */\n      dup5\n        /* \"#utility.yul\":10545:10548   */\n      dup10\n        /* \"#utility.yul\":10541:10560   */\n      add\n        /* \"#utility.yul\":10535:10561   */\n      mload\n        /* \"#utility.yul\":10527:10533   */\n      dup3\n        /* \"#utility.yul\":10520:10562   */\n      sstore\n        /* \"#utility.yul\":10601:10602   */\n      0x01\n        /* \"#utility.yul\":10593:10599   */\n      dup3\n        /* \"#utility.yul\":10589:10603   */\n      add\n        /* \"#utility.yul\":10579:10603   */\n      swap2\n      pop\n        /* \"#utility.yul\":10648:10650   */\n      0x20\n        /* \"#utility.yul\":10637:10646   */\n      dup6\n        /* \"#utility.yul\":10633:10651   */\n      add\n        /* \"#utility.yul\":10620:10651   */\n      swap5\n      pop\n        /* \"#utility.yul\":10494:10498   */\n      0x20\n        /* \"#utility.yul\":10491:10492   */\n      dup2\n        /* \"#utility.yul\":10487:10499   */\n      add\n        /* \"#utility.yul\":10482:10499   */\n      swap1\n      pop\n        /* \"#utility.yul\":10457:10665   */\n      jump(tag_278)\n    tag_280:\n        /* \"#utility.yul\":10693:10699   */\n      dup7\n        /* \"#utility.yul\":10684:10691   */\n      dup4\n        /* \"#utility.yul\":10681:10700   */\n      lt\n        /* \"#utility.yul\":10678:10857   */\n      iszero\n      tag_281\n      jumpi\n        /* \"#utility.yul\":10751:10760   */\n      dup5\n        /* \"#utility.yul\":10746:10749   */\n      dup10\n        /* \"#utility.yul\":10742:10761   */\n      add\n        /* \"#utility.yul\":10736:10762   */\n      mload\n        /* \"#utility.yul\":10794:10842   */\n      tag_282\n        /* \"#utility.yul\":10836:10840   */\n      0x1f\n        /* \"#utility.yul\":10828:10834   */\n      dup10\n        /* \"#utility.yul\":10824:10841   */\n      and\n        /* \"#utility.yul\":10813:10822   */\n      dup3\n        /* \"#utility.yul\":10794:10842   */\n      tag_146\n      jump\t// in\n    tag_282:\n        /* \"#utility.yul\":10786:10792   */\n      dup4\n        /* \"#utility.yul\":10779:10843   */\n      sstore\n        /* \"#utility.yul\":10701:10857   */\n      pop\n        /* \"#utility.yul\":10678:10857   */\n    tag_281:\n        /* \"#utility.yul\":10903:10904   */\n      0x01\n        /* \"#utility.yul\":10899:10900   */\n      0x02\n        /* \"#utility.yul\":10891:10897   */\n      dup9\n        /* \"#utility.yul\":10887:10901   */\n      mul\n        /* \"#utility.yul\":10883:10905   */\n      add\n        /* \"#utility.yul\":10877:10881   */\n      dup9\n        /* \"#utility.yul\":10870:10906   */\n      sstore\n        /* \"#utility.yul\":10305:10916   */\n      pop\n      pop\n      pop\n        /* \"#utility.yul\":10268:11155   */\n    tag_273:\n      pop\n        /* \"#utility.yul\":9858:11161   */\n      pop\n      pop\n      pop\n        /* \"#utility.yul\":9766:11161   */\n      pop\n      pop\n      jump\t// out\n        /* \"#utility.yul\":11167:11347   */\n    tag_148:\n        /* \"#utility.yul\":11215:11292   */\n      0x4e487b7100000000000000000000000000000000000000000000000000000000\n        /* \"#utility.yul\":11212:11213   */\n      0x00\n        /* \"#utility.yul\":11205:11293   */\n      mstore\n        /* \"#utility.yul\":11312:11316   */\n      0x11\n        /* \"#utility.yul\":11309:11310   */\n      0x04\n        /* \"#utility.yul\":11302:11317   */\n      mstore\n        /* \"#utility.yul\":11336:11340   */\n      0x24\n        /* \"#utility.yul\":11333:11334   */\n      0x00\n        /* \"#utility.yul\":11326:11341   */\n      revert\n        /* \"#utility.yul\":11353:11547   */\n    tag_48:\n        /* \"#utility.yul\":11393:11397   */\n      0x00\n        /* \"#utility.yul\":11413:11433   */\n      tag_285\n        /* \"#utility.yul\":11431:11432   */\n      dup3\n        /* \"#utility.yul\":11413:11433   */\n      tag_122\n      jump\t// in\n    tag_285:\n        /* \"#utility.yul\":11408:11433   */\n      swap2\n      pop\n        /* \"#utility.yul\":11447:11467   */\n      tag_286\n        /* \"#utility.yul\":11465:11466   */\n      dup4\n        /* \"#utility.yul\":11447:11467   */\n      tag_122\n      jump\t// in\n    tag_286:\n        /* \"#utility.yul\":11442:11467   */\n      swap3\n      pop\n        /* \"#utility.yul\":11491:11492   */\n      dup3\n        /* \"#utility.yul\":11488:11489   */\n      dup3\n        /* \"#utility.yul\":11484:11493   */\n      sub\n        /* \"#utility.yul\":11476:11493   */\n      swap1\n      pop\n        /* \"#utility.yul\":11515:11516   */\n      dup2\n        /* \"#utility.yul\":11509:11513   */\n      dup2\n        /* \"#utility.yul\":11506:11517   */\n      gt\n        /* \"#utility.yul\":11503:11540   */\n      iszero\n      tag_287\n      jumpi\n        /* \"#utility.yul\":11520:11538   */\n      tag_288\n      tag_148\n      jump\t// in\n    tag_288:\n        /* \"#utility.yul\":11503:11540   */\n    tag_287:\n        /* \"#utility.yul\":11353:11547   */\n      swap3\n      swap2\n      pop\n      pop\n      jump\t// out\n        /* \"#utility.yul\":11553:11976   */\n    tag_50:\n        /* \"#utility.yul\":11694:11698   */\n      0x00\n        /* \"#utility.yul\":11732:11734   */\n      0x40\n        /* \"#utility.yul\":11721:11730   */\n      dup3\n        /* \"#utility.yul\":11717:11735   */\n      add\n        /* \"#utility.yul\":11709:11735   */\n      swap1\n      pop\n        /* \"#utility.yul\":11745:11816   */\n      tag_290\n        /* \"#utility.yul\":11813:11814   */\n      0x00\n        /* \"#utility.yul\":11802:11811   */\n      dup4\n        /* \"#utility.yul\":11798:11815   */\n      add\n        /* \"#utility.yul\":11789:11795   */\n      dup6\n        /* \"#utility.yul\":11745:11816   */\n      tag_131\n      jump\t// in\n    tag_290:\n        /* \"#utility.yul\":11863:11872   */\n      dup2\n        /* \"#utility.yul\":11857:11861   */\n      dup2\n        /* \"#utility.yul\":11853:11873   */\n      sub\n        /* \"#utility.yul\":11848:11850   */\n      0x20\n        /* \"#utility.yul\":11837:11846   */\n      dup4\n        /* \"#utility.yul\":11833:11851   */\n      add\n        /* \"#utility.yul\":11826:11874   */\n      mstore\n        /* \"#utility.yul\":11891:11969   */\n      tag_291\n        /* \"#utility.yul\":11964:11968   */\n      dup2\n        /* \"#utility.yul\":11955:11961   */\n      dup5\n        /* \"#utility.yul\":11891:11969   */\n      tag_128\n      jump\t// in\n    tag_291:\n        /* \"#utility.yul\":11883:11969   */\n      swap1\n      pop\n        /* \"#utility.yul\":11553:11976   */\n      swap4\n      swap3\n      pop\n      pop\n      pop\n      jump\t// out\n        /* \"#utility.yul\":11982:12152   */\n    tag_149:\n        /* \"#utility.yul\":12122:12144   */\n      0x5461736b20646f6573206e6f742065786973742e000000000000000000000000\n        /* \"#utility.yul\":12118:12119   */\n      0x00\n        /* \"#utility.yul\":12110:12116   */\n      dup3\n        /* \"#utility.yul\":12106:12120   */\n      add\n        /* \"#utility.yul\":12099:12145   */\n      mstore\n        /* \"#utility.yul\":11982:12152   */\n      pop\n      jump\t// out\n        /* \"#utility.yul\":12158:12524   */\n    tag_150:\n        /* \"#utility.yul\":12300:12303   */\n      0x00\n        /* \"#utility.yul\":12321:12388   */\n      tag_294\n        /* \"#utility.yul\":12385:12387   */\n      0x14\n        /* \"#utility.yul\":12380:12383   */\n      dup4\n        /* \"#utility.yul\":12321:12388   */\n      tag_126\n      jump\t// in\n    tag_294:\n        /* \"#utility.yul\":12314:12388   */\n      swap2\n      pop\n        /* \"#utility.yul\":12397:12490   */\n      tag_295\n        /* \"#utility.yul\":12486:12489   */\n      dup3\n        /* \"#utility.yul\":12397:12490   */\n      tag_149\n      jump\t// in\n    tag_295:\n        /* \"#utility.yul\":12515:12517   */\n      0x20\n        /* \"#utility.yul\":12510:12513   */\n      dup3\n        /* \"#utility.yul\":12506:12518   */\n      add\n        /* \"#utility.yul\":12499:12518   */\n      swap1\n      pop\n        /* \"#utility.yul\":12158:12524   */\n      swap2\n      swap1\n      pop\n      jump\t// out\n        /* \"#utility.yul\":12530:12949   */\n    tag_54:\n        /* \"#utility.yul\":12696:12700   */\n      0x00\n        /* \"#utility.yul\":12734:12736   */\n      0x20\n        /* \"#utility.yul\":12723:12732   */\n      dup3\n        /* \"#utility.yul\":12719:12737   */\n      add\n        /* \"#utility.yul\":12711:12737   */\n      swap1\n      pop\n        /* \"#utility.yul\":12783:12792   */\n      dup2\n        /* \"#utility.yul\":12777:12781   */\n      dup2\n        /* \"#utility.yul\":12773:12793   */\n      sub\n        /* \"#utility.yul\":12769:12770   */\n      0x00\n        /* \"#utility.yul\":12758:12767   */\n      dup4\n        /* \"#utility.yul\":12754:12771   */\n      add\n        /* \"#utility.yul\":12747:12794   */\n      mstore\n        /* \"#utility.yul\":12811:12942   */\n      tag_297\n        /* \"#utility.yul\":12937:12941   */\n      dup2\n        /* \"#utility.yul\":12811:12942   */\n      tag_150\n      jump\t// in\n    tag_297:\n        /* \"#utility.yul\":12803:12942   */\n      swap1\n      pop\n        /* \"#utility.yul\":12530:12949   */\n      swap2\n      swap1\n      pop\n      jump\t// out\n        /* \"#utility.yul\":12955:13135   */\n    tag_57:\n        /* \"#utility.yul\":13003:13080   */\n      0x4e487b7100000000000000000000000000000000000000000000000000000000\n        /* \"#utility.yul\":13000:13001   */\n      0x00\n        /* \"#utility.yul\":12993:13081   */\n      mstore\n        /* \"#utility.yul\":13100:13104   */\n      0x32\n        /* \"#utility.yul\":13097:13098   */\n      0x04\n        /* \"#utility.yul\":13090:13105   */\n      mstore\n        /* \"#utility.yul\":13124:13128   */\n      0x24\n        /* \"#utility.yul\":13121:13122   */\n      0x00\n        /* \"#utility.yul\":13114:13129   */\n      revert\n        /* \"#utility.yul\":13141:13461   */\n    tag_88:\n        /* \"#utility.yul\":13256:13260   */\n      0x00\n        /* \"#utility.yul\":13294:13296   */\n      0x40\n        /* \"#utility.yul\":13283:13292   */\n      dup3\n        /* \"#utility.yul\":13279:13297   */\n      add\n        /* \"#utility.yul\":13271:13297   */\n      swap1\n      pop\n        /* \"#utility.yul\":13307:13378   */\n      tag_300\n        /* \"#utility.yul\":13375:13376   */\n      0x00\n        /* \"#utility.yul\":13364:13373   */\n      dup4\n        /* \"#utility.yul\":13360:13377   */\n      add\n        /* \"#utility.yul\":13351:13357   */\n      dup6\n        /* \"#utility.yul\":13307:13378   */\n      tag_131\n      jump\t// in\n    tag_300:\n        /* \"#utility.yul\":13388:13454   */\n      tag_301\n        /* \"#utility.yul\":13450:13452   */\n      0x20\n        /* \"#utility.yul\":13439:13448   */\n      dup4\n        /* \"#utility.yul\":13435:13453   */\n      add\n        /* \"#utility.yul\":13426:13432   */\n      dup5\n        /* \"#utility.yul\":13388:13454   */\n      tag_130\n      jump\t// in\n    tag_301:\n        /* \"#utility.yul\":13141:13461   */\n      swap4\n      swap3\n      pop\n      pop\n      pop\n      jump\t// out\n\n    auxdata: 0xa2646970667358221220c5113519ddcd7edd34caa950ab0ef0c92a679202dc6aab15cbc9c65df305684064736f6c63430008180033\n}\n",
				"bytecode": {
					"linkReferences": {},
					"object": "608060405234801561000f575f80fd5b50610f138061001d5f395ff3fe608060405234801561000f575f80fd5b5060043610610086575f3560e01c8063a9330a1511610059578063a9330a1514610126578063beb01a6214610142578063ebc218a71461015e578063fdacd5761461017a57610086565b8063111002aa1461008a5780631d65e77e146100a65780638d977672146100d75780639f89927314610108575b5f80fd5b6100a4600480360381019061009f91906108e1565b610196565b005b6100c060048036038101906100bb919061095b565b610255565b6040516100ce929190610a1a565b60405180910390f35b6100f160048036038101906100ec919061095b565b610387565b6040516100ff929190610a1a565b60405180910390f35b610110610447565b60405161011d9190610a57565b60405180910390f35b610140600480360381019061013b9190610a70565b610452565b005b61015c6004803603810190610157919061095b565b610504565b005b6101786004803603810190610173919061095b565b6105bf565b005b610194600480360381019061018f919061095b565b6106d7565b005b5f60405180604001604052808381526020015f1515815250908060018154018082558091505060019003905f5260205f2090600202015f909190919091505f820151815f0190816101e79190610cc4565b506020820151816001015f6101000a81548160ff02191690831515021790555050507fa5ed9e6226c584326505694539c95cb0e3238ae09bcda5a65c00bbfdab1c666260015f8054905061023b9190610dc0565b8260405161024a929190610df3565b60405180910390a150565b60605f8080549050831061029e576040517f08c379a000000000000000000000000000000000000000000000000000000000815260040161029590610e6b565b60405180910390fd5b5f8084815481106102b2576102b1610e89565b5b905f5260205f2090600202016040518060400160405290815f820180546102d890610af7565b80601f016020809104026020016040519081016040528092919081815260200182805461030490610af7565b801561034f5780601f106103265761010080835404028352916020019161034f565b820191905f5260205f20905b81548152906001019060200180831161033257829003601f168201915b50505050508152602001600182015f9054906101000a900460ff1615151515815250509050805f015181602001519250925050915091565b5f8181548110610395575f80fd5b905f5260205f2090600202015f91509050805f0180546103b490610af7565b80601f01602080910402602001604051908101604052809291908181526020018280546103e090610af7565b801561042b5780601f106104025761010080835404028352916020019161042b565b820191905f5260205f20905b81548152906001019060200180831161040e57829003601f168201915b505050505090806001015f9054906101000a900460ff16905082565b5f8080549050905090565b5f805490508210610498576040517f08c379a000000000000000000000000000000000000000000000000000000000815260040161048f90610e6b565b60405180910390fd5b805f83815481106104ac576104ab610e89565b5b905f5260205f2090600202015f0190816104c69190610cc4565b507fde038a66d64727fc277f5f5f3d50b98d205e4ae705bfb8ac824cea4877b9be4982826040516104f8929190610df3565b60405180910390a15050565b5f80549050811061054a576040517f08c379a000000000000000000000000000000000000000000000000000000000815260040161054190610e6b565b60405180910390fd5b5f80828154811061055e5761055d610e89565b5b905f5260205f2090600202016001015f6101000a81548160ff0219169083151502179055507fb80817386a0cbabf4b8f2b07d7b676e03490710694548be776bbbb9b50c9ab49815f6040516105b4929190610eb6565b60405180910390a150565b5f805490508110610605576040517f08c379a00000000000000000000000000000000000000000000000000000000081526004016105fc90610e6b565b60405180910390fd5b5f818154811061061857610617610e89565b5b905f5260205f2090600202016001015f9054906101000a900460ff16155f828154811061064857610647610e89565b5b905f5260205f2090600202016001015f6101000a81548160ff0219169083151502179055507fc63c34089ec3ca7025b2576e9e17e226d1e6c33f64661975d35df1cea0c0a60d815f83815481106106a2576106a1610e89565b5b905f5260205f2090600202016001015f9054906101000a900460ff166040516106cc929190610eb6565b60405180910390a150565b5f80549050811061071d576040517f08c379a000000000000000000000000000000000000000000000000000000000815260040161071490610e6b565b60405180910390fd5b60015f828154811061073257610731610e89565b5b905f5260205f2090600202016001015f6101000a81548160ff0219169083151502179055507fb80817386a0cbabf4b8f2b07d7b676e03490710694548be776bbbb9b50c9ab49816001604051610789929190610eb6565b60405180910390a150565b5f604051905090565b5f80fd5b5f80fd5b5f80fd5b5f80fd5b5f601f19601f8301169050919050565b7f4e487b71000000000000000000000000000000000000000000000000000000005f52604160045260245ffd5b6107f3826107ad565b810181811067ffffffffffffffff82111715610812576108116107bd565b5b80604052505050565b5f610824610794565b905061083082826107ea565b919050565b5f67ffffffffffffffff82111561084f5761084e6107bd565b5b610858826107ad565b9050602081019050919050565b828183375f83830152505050565b5f61088561088084610835565b61081b565b9050828152602081018484840111156108a1576108a06107a9565b5b6108ac848285610865565b509392505050565b5f82601f8301126108c8576108c76107a5565b5b81356108d8848260208601610873565b91505092915050565b5f602082840312156108f6576108f561079d565b5b5f82013567ffffffffffffffff811115610913576109126107a1565b5b61091f848285016108b4565b91505092915050565b5f819050919050565b61093a81610928565b8114610944575f80fd5b50565b5f8135905061095581610931565b92915050565b5f602082840312156109705761096f61079d565b5b5f61097d84828501610947565b91505092915050565b5f81519050919050565b5f82825260208201905092915050565b5f5b838110156109bd5780820151818401526020810190506109a2565b5f8484015250505050565b5f6109d282610986565b6109dc8185610990565b93506109ec8185602086016109a0565b6109f5816107ad565b840191505092915050565b5f8115159050919050565b610a1481610a00565b82525050565b5f6040820190508181035f830152610a3281856109c8565b9050610a416020830184610a0b565b9392505050565b610a5181610928565b82525050565b5f602082019050610a6a5f830184610a48565b92915050565b5f8060408385031215610a8657610a8561079d565b5b5f610a9385828601610947565b925050602083013567ffffffffffffffff811115610ab457610ab36107a1565b5b610ac0858286016108b4565b9150509250929050565b7f4e487b71000000000000000000000000000000000000000000000000000000005f52602260045260245ffd5b5f6002820490506001821680610b0e57607f821691505b602082108103610b2157610b20610aca565b5b50919050565b5f819050815f5260205f209050919050565b5f6020601f8301049050919050565b5f82821b905092915050565b5f60088302610b837fffffffffffffffffffffffffffffffffffffffffffffffffffffffffffffffff82610b48565b610b8d8683610b48565b95508019841693508086168417925050509392505050565b5f819050919050565b5f610bc8610bc3610bbe84610928565b610ba5565b610928565b9050919050565b5f819050919050565b610be183610bae565b610bf5610bed82610bcf565b848454610b54565b825550505050565b5f90565b610c09610bfd565b610c14818484610bd8565b505050565b5b81811015610c3757610c2c5f82610c01565b600181019050610c1a565b5050565b601f821115610c7c57610c4d81610b27565b610c5684610b39565b81016020851015610c65578190505b610c79610c7185610b39565b830182610c19565b50505b505050565b5f82821c905092915050565b5f610c9c5f1984600802610c81565b1980831691505092915050565b5f610cb48383610c8d565b9150826002028217905092915050565b610ccd82610986565b67ffffffffffffffff811115610ce657610ce56107bd565b5b610cf08254610af7565b610cfb828285610c3b565b5f60209050601f831160018114610d2c575f8415610d1a578287015190505b610d248582610ca9565b865550610d8b565b601f198416610d3a86610b27565b5f5b82811015610d6157848901518255600182019150602085019450602081019050610d3c565b86831015610d7e5784890151610d7a601f891682610c8d565b8355505b6001600288020188555050505b505050505050565b7f4e487b71000000000000000000000000000000000000000000000000000000005f52601160045260245ffd5b5f610dca82610928565b9150610dd583610928565b9250828203905081811115610ded57610dec610d93565b5b92915050565b5f604082019050610e065f830185610a48565b8181036020830152610e1881846109c8565b90509392505050565b7f5461736b20646f6573206e6f742065786973742e0000000000000000000000005f82015250565b5f610e55601483610990565b9150610e6082610e21565b602082019050919050565b5f6020820190508181035f830152610e8281610e49565b9050919050565b7f4e487b71000000000000000000000000000000000000000000000000000000005f52603260045260245ffd5b5f604082019050610ec95f830185610a48565b610ed66020830184610a0b565b939250505056fea2646970667358221220c5113519ddcd7edd34caa950ab0ef0c92a679202dc6aab15cbc9c65df305684064736f6c63430008180033",
					"opcodes": "PUSH1 0x80 PUSH1 0x40 MSTORE CALLVALUE DUP1 ISZERO PUSH2 0xF JUMPI PUSH0 DUP1 REVERT JUMPDEST POP PUSH2 0xF13 DUP1 PUSH2 0x1D PUSH0 CODECOPY PUSH0 RETURN INVALID PUSH1 0x80 PUSH1 0x40 MSTORE CALLVALUE DUP1 ISZERO PUSH2 0xF JUMPI PUSH0 DUP1 REVERT JUMPDEST POP PUSH1 0x4 CALLDATASIZE LT PUSH2 0x86 JUMPI PUSH0 CALLDATALOAD PUSH1 0xE0 SHR DUP1 PUSH4 0xA9330A15 GT PUSH2 0x59 JUMPI DUP1 PUSH4 0xA9330A15 EQ PUSH2 0x126 JUMPI DUP1 PUSH4 0xBEB01A62 EQ PUSH2 0x142 JUMPI DUP1 PUSH4 0xEBC218A7 EQ PUSH2 0x15E JUMPI DUP1 PUSH4 0xFDACD576 EQ PUSH2 0x17A JUMPI PUSH2 0x86 JUMP JUMPDEST DUP1 PUSH4 0x111002AA EQ PUSH2 0x8A JUMPI DUP1 PUSH4 0x1D65E77E EQ PUSH2 0xA6 JUMPI DUP1 PUSH4 0x8D977672 EQ PUSH2 0xD7 JUMPI DUP1 PUSH4 0x9F899273 EQ PUSH2 0x108 JUMPI JUMPDEST PUSH0 DUP1 REVERT JUMPDEST PUSH2 0xA4 PUSH1 0x4 DUP1 CALLDATASIZE SUB DUP2 ADD SWAP1 PUSH2 0x9F SWAP2 SWAP1 PUSH2 0x8E1 JUMP JUMPDEST PUSH2 0x196 JUMP JUMPDEST STOP JUMPDEST PUSH2 0xC0 PUSH1 0x4 DUP1 CALLDATASIZE SUB DUP2 ADD SWAP1 PUSH2 0xBB SWAP2 SWAP1 PUSH2 0x95B JUMP JUMPDEST PUSH2 0x255 JUMP JUMPDEST PUSH1 0x40 MLOAD PUSH2 0xCE SWAP3 SWAP2 SWAP1 PUSH2 0xA1A JUMP JUMPDEST PUSH1 0x40 MLOAD DUP1 SWAP2 SUB SWAP1 RETURN JUMPDEST PUSH2 0xF1 PUSH1 0x4 DUP1 CALLDATASIZE SUB DUP2 ADD SWAP1 PUSH2 0xEC SWAP2 SWAP1 PUSH2 0x95B JUMP JUMPDEST PUSH2 0x387 JUMP JUMPDEST PUSH1 0x40 MLOAD PUSH2 0xFF SWAP3 SWAP2 SWAP1 PUSH2 0xA1A JUMP JUMPDEST PUSH1 0x40 MLOAD DUP1 SWAP2 SUB SWAP1 RETURN JUMPDEST PUSH2 0x110 PUSH2 0x447 JUMP JUMPDEST PUSH1 0x40 MLOAD PUSH2 0x11D SWAP2 SWAP1 PUSH2 0xA57 JUMP JUMPDEST PUSH1 0x40 MLOAD DUP1 SWAP2 SUB SWAP1 RETURN JUMPDEST PUSH2 0x140 PUSH1 0x4 DUP1 CALLDATASIZE SUB DUP2 ADD SWAP1 PUSH2 0x13B SWAP2 SWAP1 PUSH2 0xA70 JUMP JUMPDEST PUSH2 0x452 JUMP JUMPDEST STOP JUMPDEST PUSH2 0x15C PUSH1 0x4 DUP1 CALLDATASIZE SUB DUP2 ADD SWAP1 PUSH2 0x157 SWAP2 SWAP1 PUSH2 0x95B JUMP JUMPDEST PUSH2 0x504 JUMP JUMPDEST STOP JUMPDEST PUSH2 0x178 PUSH1 0x4 DUP1 CALLDATASIZE SUB DUP2 ADD SWAP1 PUSH2 0x173 SWAP2 SWAP1 PUSH2 0x95B JUMP JUMPDEST PUSH2 0x5BF JUMP JUMPDEST STOP JUMPDEST PUSH2 0x194 PUSH1 0x4 DUP1 CALLDATASIZE SUB DUP2 ADD SWAP1 PUSH2 0x18F SWAP2 SWAP1 PUSH2 0x95B JUMP JUMPDEST PUSH2 0x6D7 JUMP JUMPDEST STOP JUMPDEST PUSH0 PUSH1 0x40 MLOAD DUP1 PUSH1 0x40 ADD PUSH1 0x40 MSTORE DUP1 DUP4 DUP2 MSTORE PUSH1 0x20 ADD PUSH0 ISZERO ISZERO DUP2 MSTORE POP SWAP1 DUP1 PUSH1 0x1 DUP2 SLOAD ADD DUP1 DUP3 SSTORE DUP1 SWAP2 POP POP PUSH1 0x1 SWAP1 SUB SWAP1 PUSH0 MSTORE PUSH1 0x20 PUSH0 KECCAK256 SWAP1 PUSH1 0x2 MUL ADD PUSH0 SWAP1 SWAP2 SWAP1 SWAP2 SWAP1 SWAP2 POP PUSH0 DUP3 ADD MLOAD DUP2 PUSH0 ADD SWAP1 DUP2 PUSH2 0x1E7 SWAP2 SWAP1 PUSH2 0xCC4 JUMP JUMPDEST POP PUSH1 0x20 DUP3 ADD MLOAD DUP2 PUSH1 0x1 ADD PUSH0 PUSH2 0x100 EXP DUP2 SLOAD DUP2 PUSH1 0xFF MUL NOT AND SWAP1 DUP4 ISZERO ISZERO MUL OR SWAP1 SSTORE POP POP POP PUSH32 0xA5ED9E6226C584326505694539C95CB0E3238AE09BCDA5A65C00BBFDAB1C6662 PUSH1 0x1 PUSH0 DUP1 SLOAD SWAP1 POP PUSH2 0x23B SWAP2 SWAP1 PUSH2 0xDC0 JUMP JUMPDEST DUP3 PUSH1 0x40 MLOAD PUSH2 0x24A SWAP3 SWAP2 SWAP1 PUSH2 0xDF3 JUMP JUMPDEST PUSH1 0x40 MLOAD DUP1 SWAP2 SUB SWAP1 LOG1 POP JUMP JUMPDEST PUSH1 0x60 PUSH0 DUP1 DUP1 SLOAD SWAP1 POP DUP4 LT PUSH2 0x29E JUMPI PUSH1 0x40 MLOAD PUSH32 0x8C379A000000000000000000000000000000000000000000000000000000000 DUP2 MSTORE PUSH1 0x4 ADD PUSH2 0x295 SWAP1 PUSH2 0xE6B JUMP JUMPDEST PUSH1 0x40 MLOAD DUP1 SWAP2 SUB SWAP1 REVERT JUMPDEST PUSH0 DUP1 DUP5 DUP2 SLOAD DUP2 LT PUSH2 0x2B2 JUMPI PUSH2 0x2B1 PUSH2 0xE89 JUMP JUMPDEST JUMPDEST SWAP1 PUSH0 MSTORE PUSH1 0x20 PUSH0 KECCAK256 SWAP1 PUSH1 0x2 MUL ADD PUSH1 0x40 MLOAD DUP1 PUSH1 0x40 ADD PUSH1 0x40 MSTORE SWAP1 DUP2 PUSH0 DUP3 ADD DUP1 SLOAD PUSH2 0x2D8 SWAP1 PUSH2 0xAF7 JUMP JUMPDEST DUP1 PUSH1 0x1F ADD PUSH1 0x20 DUP1 SWAP2 DIV MUL PUSH1 0x20 ADD PUSH1 0x40 MLOAD SWAP1 DUP2 ADD PUSH1 0x40 MSTORE DUP1 SWAP3 SWAP2 SWAP1 DUP2 DUP2 MSTORE PUSH1 0x20 ADD DUP3 DUP1 SLOAD PUSH2 0x304 SWAP1 PUSH2 0xAF7 JUMP JUMPDEST DUP1 ISZERO PUSH2 0x34F JUMPI DUP1 PUSH1 0x1F LT PUSH2 0x326 JUMPI PUSH2 0x100 DUP1 DUP4 SLOAD DIV MUL DUP4 MSTORE SWAP2 PUSH1 0x20 ADD SWAP2 PUSH2 0x34F JUMP JUMPDEST DUP3 ADD SWAP2 SWAP1 PUSH0 MSTORE PUSH1 0x20 PUSH0 KECCAK256 SWAP1 JUMPDEST DUP2 SLOAD DUP2 MSTORE SWAP1 PUSH1 0x1 ADD SWAP1 PUSH1 0x20 ADD DUP1 DUP4 GT PUSH2 0x332 JUMPI DUP3 SWAP1 SUB PUSH1 0x1F AND DUP3 ADD SWAP2 JUMPDEST POP POP POP POP POP DUP2 MSTORE PUSH1 0x20 ADD PUSH1 0x1 DUP3 ADD PUSH0 SWAP1 SLOAD SWAP1 PUSH2 0x100 EXP SWAP1 DIV PUSH1 0xFF AND ISZERO ISZERO ISZERO ISZERO DUP2 MSTORE POP POP SWAP1 POP DUP1 PUSH0 ADD MLOAD DUP2 PUSH1 0x20 ADD MLOAD SWAP3 POP SWAP3 POP POP SWAP2 POP SWAP2 JUMP JUMPDEST PUSH0 DUP2 DUP2 SLOAD DUP2 LT PUSH2 0x395 JUMPI PUSH0 DUP1 REVERT JUMPDEST SWAP1 PUSH0 MSTORE PUSH1 0x20 PUSH0 KECCAK256 SWAP1 PUSH1 0x2 MUL ADD PUSH0 SWAP2 POP SWAP1 POP DUP1 PUSH0 ADD DUP1 SLOAD PUSH2 0x3B4 SWAP1 PUSH2 0xAF7 JUMP JUMPDEST DUP1 PUSH1 0x1F ADD PUSH1 0x20 DUP1 SWAP2 DIV MUL PUSH1 0x20 ADD PUSH1 0x40 MLOAD SWAP1 DUP2 ADD PUSH1 0x40 MSTORE DUP1 SWAP3 SWAP2 SWAP1 DUP2 DUP2 MSTORE PUSH1 0x20 ADD DUP3 DUP1 SLOAD PUSH2 0x3E0 SWAP1 PUSH2 0xAF7 JUMP JUMPDEST DUP1 ISZERO PUSH2 0x42B JUMPI DUP1 PUSH1 0x1F LT PUSH2 0x402 JUMPI PUSH2 0x100 DUP1 DUP4 SLOAD DIV MUL DUP4 MSTORE SWAP2 PUSH1 0x20 ADD SWAP2 PUSH2 0x42B JUMP JUMPDEST DUP3 ADD SWAP2 SWAP1 PUSH0 MSTORE PUSH1 0x20 PUSH0 KECCAK256 SWAP1 JUMPDEST DUP2 SLOAD DUP2 MSTORE SWAP1 PUSH1 0x1 ADD SWAP1 PUSH1 0x20 ADD DUP1 DUP4 GT PUSH2 0x40E JUMPI DUP3 SWAP1 SUB PUSH1 0x1F AND DUP3 ADD SWAP2 JUMPDEST POP POP POP POP POP SWAP1 DUP1 PUSH1 0x1 ADD PUSH0 SWAP1 SLOAD SWAP1 PUSH2 0x100 EXP SWAP1 DIV PUSH1 0xFF AND SWAP1 POP DUP3 JUMP JUMPDEST PUSH0 DUP1 DUP1 SLOAD SWAP1 POP SWAP1 POP SWAP1 JUMP JUMPDEST PUSH0 DUP1 SLOAD SWAP1 POP DUP3 LT PUSH2 0x498 JUMPI PUSH1 0x40 MLOAD PUSH32 0x8C379A000000000000000000000000000000000000000000000000000000000 DUP2 MSTORE PUSH1 0x4 ADD PUSH2 0x48F SWAP1 PUSH2 0xE6B JUMP JUMPDEST PUSH1 0x40 MLOAD DUP1 SWAP2 SUB SWAP1 REVERT JUMPDEST DUP1 PUSH0 DUP4 DUP2 SLOAD DUP2 LT PUSH2 0x4AC JUMPI PUSH2 0x4AB PUSH2 0xE89 JUMP JUMPDEST JUMPDEST SWAP1 PUSH0 MSTORE PUSH1 0x20 PUSH0 KECCAK256 SWAP1 PUSH1 0x2 MUL ADD PUSH0 ADD SWAP1 DUP2 PUSH2 0x4C6 SWAP2 SWAP1 PUSH2 0xCC4 JUMP JUMPDEST POP PUSH32 0xDE038A66D64727FC277F5F5F3D50B98D205E4AE705BFB8AC824CEA4877B9BE49 DUP3 DUP3 PUSH1 0x40 MLOAD PUSH2 0x4F8 SWAP3 SWAP2 SWAP1 PUSH2 0xDF3 JUMP JUMPDEST PUSH1 0x40 MLOAD DUP1 SWAP2 SUB SWAP1 LOG1 POP POP JUMP JUMPDEST PUSH0 DUP1 SLOAD SWAP1 POP DUP2 LT PUSH2 0x54A JUMPI PUSH1 0x40 MLOAD PUSH32 0x8C379A000000000000000000000000000000000000000000000000000000000 DUP2 MSTORE PUSH1 0x4 ADD PUSH2 0x541 SWAP1 PUSH2 0xE6B JUMP JUMPDEST PUSH1 0x40 MLOAD DUP1 SWAP2 SUB SWAP1 REVERT JUMPDEST PUSH0 DUP1 DUP3 DUP2 SLOAD DUP2 LT PUSH2 0x55E JUMPI PUSH2 0x55D PUSH2 0xE89 JUMP JUMPDEST JUMPDEST SWAP1 PUSH0 MSTORE PUSH1 0x20 PUSH0 KECCAK256 SWAP1 PUSH1 0x2 MUL ADD PUSH1 0x1 ADD PUSH0 PUSH2 0x100 EXP DUP2 SLOAD DUP2 PUSH1 0xFF MUL NOT AND SWAP1 DUP4 ISZERO ISZERO MUL OR SWAP1 SSTORE POP PUSH32 0xB80817386A0CBABF4B8F2B07D7B676E03490710694548BE776BBBB9B50C9AB49 DUP2 PUSH0 PUSH1 0x40 MLOAD PUSH2 0x5B4 SWAP3 SWAP2 SWAP1 PUSH2 0xEB6 JUMP JUMPDEST PUSH1 0x40 MLOAD DUP1 SWAP2 SUB SWAP1 LOG1 POP JUMP JUMPDEST PUSH0 DUP1 SLOAD SWAP1 POP DUP2 LT PUSH2 0x605 JUMPI PUSH1 0x40 MLOAD PUSH32 0x8C379A000000000000000000000000000000000000000000000000000000000 DUP2 MSTORE PUSH1 0x4 ADD PUSH2 0x5FC SWAP1 PUSH2 0xE6B JUMP JUMPDEST PUSH1 0x40 MLOAD DUP1 SWAP2 SUB SWAP1 REVERT JUMPDEST PUSH0 DUP2 DUP2 SLOAD DUP2 LT PUSH2 0x618 JUMPI PUSH2 0x617 PUSH2 0xE89 JUMP JUMPDEST JUMPDEST SWAP1 PUSH0 MSTORE PUSH1 0x20 PUSH0 KECCAK256 SWAP1 PUSH1 0x2 MUL ADD PUSH1 0x1 ADD PUSH0 SWAP1 SLOAD SWAP1 PUSH2 0x100 EXP SWAP1 DIV PUSH1 0xFF AND ISZERO PUSH0 DUP3 DUP2 SLOAD DUP2 LT PUSH2 0x648 JUMPI PUSH2 0x647 PUSH2 0xE89 JUMP JUMPDEST JUMPDEST SWAP1 PUSH0 MSTORE PUSH1 0x20 PUSH0 KECCAK256 SWAP1 PUSH1 0x2 MUL ADD PUSH1 0x1 ADD PUSH0 PUSH2 0x100 EXP DUP2 SLOAD DUP2 PUSH1 0xFF MUL NOT AND SWAP1 DUP4 ISZERO ISZERO MUL OR SWAP1 SSTORE POP PUSH32 0xC63C34089EC3CA7025B2576E9E17E226D1E6C33F64661975D35DF1CEA0C0A60D DUP2 PUSH0 DUP4 DUP2 SLOAD DUP2 LT PUSH2 0x6A2 JUMPI PUSH2 0x6A1 PUSH2 0xE89 JUMP JUMPDEST JUMPDEST SWAP1 PUSH0 MSTORE PUSH1 0x20 PUSH0 KECCAK256 SWAP1 PUSH1 0x2 MUL ADD PUSH1 0x1 ADD PUSH0 SWAP1 SLOAD SWAP1 PUSH2 0x100 EXP SWAP1 DIV PUSH1 0xFF AND PUSH1 0x40 MLOAD PUSH2 0x6CC SWAP3 SWAP2 SWAP1 PUSH2 0xEB6 JUMP JUMPDEST PUSH1 0x40 MLOAD DUP1 SWAP2 SUB SWAP1 LOG1 POP JUMP JUMPDEST PUSH0 DUP1 SLOAD SWAP1 POP DUP2 LT PUSH2 0x71D JUMPI PUSH1 0x40 MLOAD PUSH32 0x8C379A000000000000000000000000000000000000000000000000000000000 DUP2 MSTORE PUSH1 0x4 ADD PUSH2 0x714 SWAP1 PUSH2 0xE6B JUMP JUMPDEST PUSH1 0x40 MLOAD DUP1 SWAP2 SUB SWAP1 REVERT JUMPDEST PUSH1 0x1 PUSH0 DUP3 DUP2 SLOAD DUP2 LT PUSH2 0x732 JUMPI PUSH2 0x731 PUSH2 0xE89 JUMP JUMPDEST JUMPDEST SWAP1 PUSH0 MSTORE PUSH1 0x20 PUSH0 KECCAK256 SWAP1 PUSH1 0x2 MUL ADD PUSH1 0x1 ADD PUSH0 PUSH2 0x100 EXP DUP2 SLOAD DUP2 PUSH1 0xFF MUL NOT AND SWAP1 DUP4 ISZERO ISZERO MUL OR SWAP1 SSTORE POP PUSH32 0xB80817386A0CBABF4B8F2B07D7B676E03490710694548BE776BBBB9B50C9AB49 DUP2 PUSH1 0x1 PUSH1 0x40 MLOAD PUSH2 0x789 SWAP3 SWAP2 SWAP1 PUSH2 0xEB6 JUMP JUMPDEST PUSH1 0x40 MLOAD DUP1 SWAP2 SUB SWAP1 LOG1 POP JUMP JUMPDEST PUSH0 PUSH1 0x40 MLOAD SWAP1 POP SWAP1 JUMP JUMPDEST PUSH0 DUP1 REVERT JUMPDEST PUSH0 DUP1 REVERT JUMPDEST PUSH0 DUP1 REVERT JUMPDEST PUSH0 DUP1 REVERT JUMPDEST PUSH0 PUSH1 0x1F NOT PUSH1 0x1F DUP4 ADD AND SWAP1 POP SWAP2 SWAP1 POP JUMP JUMPDEST PUSH32 0x4E487B7100000000000000000000000000000000000000000000000000000000 PUSH0 MSTORE PUSH1 0x41 PUSH1 0x4 MSTORE PUSH1 0x24 PUSH0 REVERT JUMPDEST PUSH2 0x7F3 DUP3 PUSH2 0x7AD JUMP JUMPDEST DUP2 ADD DUP2 DUP2 LT PUSH8 0xFFFFFFFFFFFFFFFF DUP3 GT OR ISZERO PUSH2 0x812 JUMPI PUSH2 0x811 PUSH2 0x7BD JUMP JUMPDEST JUMPDEST DUP1 PUSH1 0x40 MSTORE POP POP POP JUMP JUMPDEST PUSH0 PUSH2 0x824 PUSH2 0x794 JUMP JUMPDEST SWAP1 POP PUSH2 0x830 DUP3 DUP3 PUSH2 0x7EA JUMP JUMPDEST SWAP2 SWAP1 POP JUMP JUMPDEST PUSH0 PUSH8 0xFFFFFFFFFFFFFFFF DUP3 GT ISZERO PUSH2 0x84F JUMPI PUSH2 0x84E PUSH2 0x7BD JUMP JUMPDEST JUMPDEST PUSH2 0x858 DUP3 PUSH2 0x7AD JUMP JUMPDEST SWAP1 POP PUSH1 0x20 DUP2 ADD SWAP1 POP SWAP2 SWAP1 POP JUMP JUMPDEST DUP3 DUP2 DUP4 CALLDATACOPY PUSH0 DUP4 DUP4 ADD MSTORE POP POP POP JUMP JUMPDEST PUSH0 PUSH2 0x885 PUSH2 0x880 DUP5 PUSH2 0x835 JUMP JUMPDEST PUSH2 0x81B JUMP JUMPDEST SWAP1 POP DUP3 DUP2 MSTORE PUSH1 0x20 DUP2 ADD DUP5 DUP5 DUP5 ADD GT ISZERO PUSH2 0x8A1 JUMPI PUSH2 0x8A0 PUSH2 0x7A9 JUMP JUMPDEST JUMPDEST PUSH2 0x8AC DUP5 DUP3 DUP6 PUSH2 0x865 JUMP JUMPDEST POP SWAP4 SWAP3 POP POP POP JUMP JUMPDEST PUSH0 DUP3 PUSH1 0x1F DUP4 ADD SLT PUSH2 0x8C8 JUMPI PUSH2 0x8C7 PUSH2 0x7A5 JUMP JUMPDEST JUMPDEST DUP2 CALLDATALOAD PUSH2 0x8D8 DUP5 DUP3 PUSH1 0x20 DUP7 ADD PUSH2 0x873 JUMP JUMPDEST SWAP2 POP POP SWAP3 SWAP2 POP POP JUMP JUMPDEST PUSH0 PUSH1 0x20 DUP3 DUP5 SUB SLT ISZERO PUSH2 0x8F6 JUMPI PUSH2 0x8F5 PUSH2 0x79D JUMP JUMPDEST JUMPDEST PUSH0 DUP3 ADD CALLDATALOAD PUSH8 0xFFFFFFFFFFFFFFFF DUP2 GT ISZERO PUSH2 0x913 JUMPI PUSH2 0x912 PUSH2 0x7A1 JUMP JUMPDEST JUMPDEST PUSH2 0x91F DUP5 DUP3 DUP6 ADD PUSH2 0x8B4 JUMP JUMPDEST SWAP2 POP POP SWAP3 SWAP2 POP POP JUMP JUMPDEST PUSH0 DUP2 SWAP1 POP SWAP2 SWAP1 POP JUMP JUMPDEST PUSH2 0x93A DUP2 PUSH2 0x928 JUMP JUMPDEST DUP2 EQ PUSH2 0x944 JUMPI PUSH0 DUP1 REVERT JUMPDEST POP JUMP JUMPDEST PUSH0 DUP2 CALLDATALOAD SWAP1 POP PUSH2 0x955 DUP2 PUSH2 0x931 JUMP JUMPDEST SWAP3 SWAP2 POP POP JUMP JUMPDEST PUSH0 PUSH1 0x20 DUP3 DUP5 SUB SLT ISZERO PUSH2 0x970 JUMPI PUSH2 0x96F PUSH2 0x79D JUMP JUMPDEST JUMPDEST PUSH0 PUSH2 0x97D DUP5 DUP3 DUP6 ADD PUSH2 0x947 JUMP JUMPDEST SWAP2 POP POP SWAP3 SWAP2 POP POP JUMP JUMPDEST PUSH0 DUP2 MLOAD SWAP1 POP SWAP2 SWAP1 POP JUMP JUMPDEST PUSH0 DUP3 DUP3 MSTORE PUSH1 0x20 DUP3 ADD SWAP1 POP SWAP3 SWAP2 POP POP JUMP JUMPDEST PUSH0 JUMPDEST DUP4 DUP2 LT ISZERO PUSH2 0x9BD JUMPI DUP1 DUP3 ADD MLOAD DUP2 DUP5 ADD MSTORE PUSH1 0x20 DUP2 ADD SWAP1 POP PUSH2 0x9A2 JUMP JUMPDEST PUSH0 DUP5 DUP5 ADD MSTORE POP POP POP POP JUMP JUMPDEST PUSH0 PUSH2 0x9D2 DUP3 PUSH2 0x986 JUMP JUMPDEST PUSH2 0x9DC DUP2 DUP6 PUSH2 0x990 JUMP JUMPDEST SWAP4 POP PUSH2 0x9EC DUP2 DUP6 PUSH1 0x20 DUP7 ADD PUSH2 0x9A0 JUMP JUMPDEST PUSH2 0x9F5 DUP2 PUSH2 0x7AD JUMP JUMPDEST DUP5 ADD SWAP2 POP POP SWAP3 SWAP2 POP POP JUMP JUMPDEST PUSH0 DUP2 ISZERO ISZERO SWAP1 POP SWAP2 SWAP1 POP JUMP JUMPDEST PUSH2 0xA14 DUP2 PUSH2 0xA00 JUMP JUMPDEST DUP3 MSTORE POP POP JUMP JUMPDEST PUSH0 PUSH1 0x40 DUP3 ADD SWAP1 POP DUP2 DUP2 SUB PUSH0 DUP4 ADD MSTORE PUSH2 0xA32 DUP2 DUP6 PUSH2 0x9C8 JUMP JUMPDEST SWAP1 POP PUSH2 0xA41 PUSH1 0x20 DUP4 ADD DUP5 PUSH2 0xA0B JUMP JUMPDEST SWAP4 SWAP3 POP POP POP JUMP JUMPDEST PUSH2 0xA51 DUP2 PUSH2 0x928 JUMP JUMPDEST DUP3 MSTORE POP POP JUMP JUMPDEST PUSH0 PUSH1 0x20 DUP3 ADD SWAP1 POP PUSH2 0xA6A PUSH0 DUP4 ADD DUP5 PUSH2 0xA48 JUMP JUMPDEST SWAP3 SWAP2 POP POP JUMP JUMPDEST PUSH0 DUP1 PUSH1 0x40 DUP4 DUP6 SUB SLT ISZERO PUSH2 0xA86 JUMPI PUSH2 0xA85 PUSH2 0x79D JUMP JUMPDEST JUMPDEST PUSH0 PUSH2 0xA93 DUP6 DUP3 DUP7 ADD PUSH2 0x947 JUMP JUMPDEST SWAP3 POP POP PUSH1 0x20 DUP4 ADD CALLDATALOAD PUSH8 0xFFFFFFFFFFFFFFFF DUP2 GT ISZERO PUSH2 0xAB4 JUMPI PUSH2 0xAB3 PUSH2 0x7A1 JUMP JUMPDEST JUMPDEST PUSH2 0xAC0 DUP6 DUP3 DUP7 ADD PUSH2 0x8B4 JUMP JUMPDEST SWAP2 POP POP SWAP3 POP SWAP3 SWAP1 POP JUMP JUMPDEST PUSH32 0x4E487B7100000000000000000000000000000000000000000000000000000000 PUSH0 MSTORE PUSH1 0x22 PUSH1 0x4 MSTORE PUSH1 0x24 PUSH0 REVERT JUMPDEST PUSH0 PUSH1 0x2 DUP3 DIV SWAP1 POP PUSH1 0x1 DUP3 AND DUP1 PUSH2 0xB0E JUMPI PUSH1 0x7F DUP3 AND SWAP2 POP JUMPDEST PUSH1 0x20 DUP3 LT DUP2 SUB PUSH2 0xB21 JUMPI PUSH2 0xB20 PUSH2 0xACA JUMP JUMPDEST JUMPDEST POP SWAP2 SWAP1 POP JUMP JUMPDEST PUSH0 DUP2 SWAP1 POP DUP2 PUSH0 MSTORE PUSH1 0x20 PUSH0 KECCAK256 SWAP1 POP SWAP2 SWAP1 POP JUMP JUMPDEST PUSH0 PUSH1 0x20 PUSH1 0x1F DUP4 ADD DIV SWAP1 POP SWAP2 SWAP1 POP JUMP JUMPDEST PUSH0 DUP3 DUP3 SHL SWAP1 POP SWAP3 SWAP2 POP POP JUMP JUMPDEST PUSH0 PUSH1 0x8 DUP4 MUL PUSH2 0xB83 PUSH32 0xFFFFFFFFFFFFFFFFFFFFFFFFFFFFFFFFFFFFFFFFFFFFFFFFFFFFFFFFFFFFFFFF DUP3 PUSH2 0xB48 JUMP JUMPDEST PUSH2 0xB8D DUP7 DUP4 PUSH2 0xB48 JUMP JUMPDEST SWAP6 POP DUP1 NOT DUP5 AND SWAP4 POP DUP1 DUP7 AND DUP5 OR SWAP3 POP POP POP SWAP4 SWAP3 POP POP POP JUMP JUMPDEST PUSH0 DUP2 SWAP1 POP SWAP2 SWAP1 POP JUMP JUMPDEST PUSH0 PUSH2 0xBC8 PUSH2 0xBC3 PUSH2 0xBBE DUP5 PUSH2 0x928 JUMP JUMPDEST PUSH2 0xBA5 JUMP JUMPDEST PUSH2 0x928 JUMP JUMPDEST SWAP1 POP SWAP2 SWAP1 POP JUMP JUMPDEST PUSH0 DUP2 SWAP1 POP SWAP2 SWAP1 POP JUMP JUMPDEST PUSH2 0xBE1 DUP4 PUSH2 0xBAE JUMP JUMPDEST PUSH2 0xBF5 PUSH2 0xBED DUP3 PUSH2 0xBCF JUMP JUMPDEST DUP5 DUP5 SLOAD PUSH2 0xB54 JUMP JUMPDEST DUP3 SSTORE POP POP POP POP JUMP JUMPDEST PUSH0 SWAP1 JUMP JUMPDEST PUSH2 0xC09 PUSH2 0xBFD JUMP JUMPDEST PUSH2 0xC14 DUP2 DUP5 DUP5 PUSH2 0xBD8 JUMP JUMPDEST POP POP POP JUMP JUMPDEST JUMPDEST DUP2 DUP2 LT ISZERO PUSH2 0xC37 JUMPI PUSH2 0xC2C PUSH0 DUP3 PUSH2 0xC01 JUMP JUMPDEST PUSH1 0x1 DUP2 ADD SWAP1 POP PUSH2 0xC1A JUMP JUMPDEST POP POP JUMP JUMPDEST PUSH1 0x1F DUP3 GT ISZERO PUSH2 0xC7C JUMPI PUSH2 0xC4D DUP2 PUSH2 0xB27 JUMP JUMPDEST PUSH2 0xC56 DUP5 PUSH2 0xB39 JUMP JUMPDEST DUP2 ADD PUSH1 0x20 DUP6 LT ISZERO PUSH2 0xC65 JUMPI DUP2 SWAP1 POP JUMPDEST PUSH2 0xC79 PUSH2 0xC71 DUP6 PUSH2 0xB39 JUMP JUMPDEST DUP4 ADD DUP3 PUSH2 0xC19 JUMP JUMPDEST POP POP JUMPDEST POP POP POP JUMP JUMPDEST PUSH0 DUP3 DUP3 SHR SWAP1 POP SWAP3 SWAP2 POP POP JUMP JUMPDEST PUSH0 PUSH2 0xC9C PUSH0 NOT DUP5 PUSH1 0x8 MUL PUSH2 0xC81 JUMP JUMPDEST NOT DUP1 DUP4 AND SWAP2 POP POP SWAP3 SWAP2 POP POP JUMP JUMPDEST PUSH0 PUSH2 0xCB4 DUP4 DUP4 PUSH2 0xC8D JUMP JUMPDEST SWAP2 POP DUP3 PUSH1 0x2 MUL DUP3 OR SWAP1 POP SWAP3 SWAP2 POP POP JUMP JUMPDEST PUSH2 0xCCD DUP3 PUSH2 0x986 JUMP JUMPDEST PUSH8 0xFFFFFFFFFFFFFFFF DUP2 GT ISZERO PUSH2 0xCE6 JUMPI PUSH2 0xCE5 PUSH2 0x7BD JUMP JUMPDEST JUMPDEST PUSH2 0xCF0 DUP3 SLOAD PUSH2 0xAF7 JUMP JUMPDEST PUSH2 0xCFB DUP3 DUP3 DUP6 PUSH2 0xC3B JUMP JUMPDEST PUSH0 PUSH1 0x20 SWAP1 POP PUSH1 0x1F DUP4 GT PUSH1 0x1 DUP2 EQ PUSH2 0xD2C JUMPI PUSH0 DUP5 ISZERO PUSH2 0xD1A JUMPI DUP3 DUP8 ADD MLOAD SWAP1 POP JUMPDEST PUSH2 0xD24 DUP6 DUP3 PUSH2 0xCA9 JUMP JUMPDEST DUP7 SSTORE POP PUSH2 0xD8B JUMP JUMPDEST PUSH1 0x1F NOT DUP5 AND PUSH2 0xD3A DUP7 PUSH2 0xB27 JUMP JUMPDEST PUSH0 JUMPDEST DUP3 DUP2 LT ISZERO PUSH2 0xD61 JUMPI DUP5 DUP10 ADD MLOAD DUP3 SSTORE PUSH1 0x1 DUP3 ADD SWAP2 POP PUSH1 0x20 DUP6 ADD SWAP5 POP PUSH1 0x20 DUP2 ADD SWAP1 POP PUSH2 0xD3C JUMP JUMPDEST DUP7 DUP4 LT ISZERO PUSH2 0xD7E JUMPI DUP5 DUP10 ADD MLOAD PUSH2 0xD7A PUSH1 0x1F DUP10 AND DUP3 PUSH2 0xC8D JUMP JUMPDEST DUP4 SSTORE POP JUMPDEST PUSH1 0x1 PUSH1 0x2 DUP9 MUL ADD DUP9 SSTORE POP POP POP JUMPDEST POP POP POP POP POP POP JUMP JUMPDEST PUSH32 0x4E487B7100000000000000000000000000000000000000000000000000000000 PUSH0 MSTORE PUSH1 0x11 PUSH1 0x4 MSTORE PUSH1 0x24 PUSH0 REVERT JUMPDEST PUSH0 PUSH2 0xDCA DUP3 PUSH2 0x928 JUMP JUMPDEST SWAP2 POP PUSH2 0xDD5 DUP4 PUSH2 0x928 JUMP JUMPDEST SWAP3 POP DUP3 DUP3 SUB SWAP1 POP DUP2 DUP2 GT ISZERO PUSH2 0xDED JUMPI PUSH2 0xDEC PUSH2 0xD93 JUMP JUMPDEST JUMPDEST SWAP3 SWAP2 POP POP JUMP JUMPDEST PUSH0 PUSH1 0x40 DUP3 ADD SWAP1 POP PUSH2 0xE06 PUSH0 DUP4 ADD DUP6 PUSH2 0xA48 JUMP JUMPDEST DUP2 DUP2 SUB PUSH1 0x20 DUP4 ADD MSTORE PUSH2 0xE18 DUP2 DUP5 PUSH2 0x9C8 JUMP JUMPDEST SWAP1 POP SWAP4 SWAP3 POP POP POP JUMP JUMPDEST PUSH32 0x5461736B20646F6573206E6F742065786973742E000000000000000000000000 PUSH0 DUP3 ADD MSTORE POP JUMP JUMPDEST PUSH0 PUSH2 0xE55 PUSH1 0x14 DUP4 PUSH2 0x990 JUMP JUMPDEST SWAP2 POP PUSH2 0xE60 DUP3 PUSH2 0xE21 JUMP JUMPDEST PUSH1 0x20 DUP3 ADD SWAP1 POP SWAP2 SWAP1 POP JUMP JUMPDEST PUSH0 PUSH1 0x20 DUP3 ADD SWAP1 POP DUP2 DUP2 SUB PUSH0 DUP4 ADD MSTORE PUSH2 0xE82 DUP2 PUSH2 0xE49 JUMP JUMPDEST SWAP1 POP SWAP2 SWAP1 POP JUMP JUMPDEST PUSH32 0x4E487B7100000000000000000000000000000000000000000000000000000000 PUSH0 MSTORE PUSH1 0x32 PUSH1 0x4 MSTORE PUSH1 0x24 PUSH0 REVERT JUMPDEST PUSH0 PUSH1 0x40 DUP3 ADD SWAP1 POP PUSH2 0xEC9 PUSH0 DUP4 ADD DUP6 PUSH2 0xA48 JUMP JUMPDEST PUSH2 0xED6 PUSH1 0x20 DUP4 ADD DUP5 PUSH2 0xA0B JUMP JUMPDEST SWAP4 SWAP3 POP POP POP JUMP INVALID LOG2 PUSH5 0x6970667358 0x22 SLT KECCAK256 0xC5 GT CALLDATALOAD NOT 0xDD 0xCD PUSH31 0xDD34CAA950AB0EF0C92A679202DC6AAB15CBC9C65DF305684064736F6C6343 STOP ADDMOD XOR STOP CALLER "
				},
				"gasEstimates": {
					"creation": {
						"codeDepositCost": "771800",
						"executionCost": "803",
						"totalCost": "772603"
					},
					"external": {
						"createTask(string)": "infinite",
						"getTask(uint256)": "infinite",
						"getTasksCount()": "2507",
						"setCompleted(uint256)": "infinite",
						"setNotCompleted(uint256)": "infinite",
						"tasks(uint256)": "infinite",
						"toggleCompletion(uint256)": "infinite",
						"updateTaskName(uint256,string)": "infinite"
					}
				},
				"methodIdentifiers": {
					"createTask(string)": "111002aa",
					"getTask(uint256)": "1d65e77e",
					"getTasksCount()": "9f899273",
					"setCompleted(uint256)": "fdacd576",
					"setNotCompleted(uint256)": "beb01a62",
					"tasks(uint256)": "8d977672",
					"toggleCompletion(uint256)": "ebc218a7",
					"updateTaskName(uint256,string)": "a9330a15"
				}
			},
			"storageLayout": {
				"storage": [
					{
						"astId": 10,
						"contract": "contracts/ExercisePractice/ToDoList.sol:TodoList",
						"label": "tasks",
						"offset": 0,
						"slot": "0",
						"type": "t_array(t_struct(Task)6_storage)dyn_storage"
					}
				],
				"types": {
					"t_array(t_struct(Task)6_storage)dyn_storage": {
						"base": "t_struct(Task)6_storage",
						"encoding": "dynamic_array",
						"label": "struct TodoList.Task[]",
						"numberOfBytes": "32"
					},
					"t_bool": {
						"encoding": "inplace",
						"label": "bool",
						"numberOfBytes": "1"
					},
					"t_string_storage": {
						"encoding": "bytes",
						"label": "string",
						"numberOfBytes": "32"
					},
					"t_struct(Task)6_storage": {
						"encoding": "inplace",
						"label": "struct TodoList.Task",
						"members": [
							{
								"astId": 3,
								"contract": "contracts/ExercisePractice/ToDoList.sol:TodoList",
								"label": "name",
								"offset": 0,
								"slot": "0",
								"type": "t_string_storage"
							},
							{
								"astId": 5,
								"contract": "contracts/ExercisePractice/ToDoList.sol:TodoList",
								"label": "completed",
								"offset": 0,
								"slot": "1",
								"type": "t_bool"
							}
						],
						"numberOfBytes": "64"
					}
				}
			},
			"userdoc": {
				"kind": "user",
				"methods": {},
				"version": 1
			}
		}
	}
}