{
	"contracts/Primitives.sol": {
		"Primitives": {
			"abi": [
				{
					"inputs": [],
					"name": "a",
					"outputs": [
						{
							"internalType": "bytes1",
							"name": "",
							"type": "bytes1"
						}
					],
					"stateMutability": "view",
					"type": "function"
				},
				{
					"inputs": [],
					"name": "addr",
					"outputs": [
						{
							"internalType": "address",
							"name": "",
							"type": "address"
						}
					],
					"stateMutability": "view",
					"type": "function"
				},
				{
					"inputs": [],
					"name": "b",
					"outputs": [
						{
							"internalType": "bytes1",
							"name": "",
							"type": "bytes1"
						}
					],
					"stateMutability": "view",
					"type": "function"
				},
				{
					"inputs": [],
					"name": "boo",
					"outputs": [
						{
							"internalType": "bool",
							"name": "",
							"type": "bool"
						}
					],
					"stateMutability": "view",
					"type": "function"
				},
				{
					"inputs": [],
					"name": "bytes2v",
					"outputs": [
						{
							"internalType": "bytes2",
							"name": "",
							"type": "bytes2"
						}
					],
					"stateMutability": "view",
					"type": "function"
				},
				{
					"inputs": [],
					"name": "compareBytesN",
					"outputs": [
						{
							"internalType": "bool",
							"name": "",
							"type": "bool"
						}
					],
					"stateMutability": "view",
					"type": "function"
				},
				{
					"inputs": [],
					"name": "defaultAddr",
					"outputs": [
						{
							"internalType": "address",
							"name": "",
							"type": "address"
						}
					],
					"stateMutability": "view",
					"type": "function"
				},
				{
					"inputs": [],
					"name": "defaultBoo",
					"outputs": [
						{
							"internalType": "bool",
							"name": "",
							"type": "bool"
						}
					],
					"stateMutability": "view",
					"type": "function"
				},
				{
					"inputs": [],
					"name": "defaultInt",
					"outputs": [
						{
							"internalType": "int256",
							"name": "",
							"type": "int256"
						}
					],
					"stateMutability": "view",
					"type": "function"
				},
				{
					"inputs": [],
					"name": "defaultUint",
					"outputs": [
						{
							"internalType": "uint256",
							"name": "",
							"type": "uint256"
						}
					],
					"stateMutability": "view",
					"type": "function"
				},
				{
					"inputs": [],
					"name": "i",
					"outputs": [
						{
							"internalType": "int256",
							"name": "",
							"type": "int256"
						}
					],
					"stateMutability": "view",
					"type": "function"
				},
				{
					"inputs": [],
					"name": "i256",
					"outputs": [
						{
							"internalType": "int256",
							"name": "",
							"type": "int256"
						}
					],
					"stateMutability": "view",
					"type": "function"
				},
				{
					"inputs": [],
					"name": "i8",
					"outputs": [
						{
							"internalType": "int8",
							"name": "",
							"type": "int8"
						}
					],
					"stateMutability": "view",
					"type": "function"
				},
				{
					"inputs": [],
					"name": "maxInt",
					"outputs": [
						{
							"internalType": "int256",
							"name": "",
							"type": "int256"
						}
					],
					"stateMutability": "view",
					"type": "function"
				},
				{
					"inputs": [],
					"name": "minInt",
					"outputs": [
						{
							"internalType": "int256",
							"name": "",
							"type": "int256"
						}
					],
					"stateMutability": "view",
					"type": "function"
				},
				{
					"inputs": [],
					"name": "u",
					"outputs": [
						{
							"internalType": "uint256",
							"name": "",
							"type": "uint256"
						}
					],
					"stateMutability": "view",
					"type": "function"
				},
				{
					"inputs": [],
					"name": "u256",
					"outputs": [
						{
							"internalType": "uint256",
							"name": "",
							"type": "uint256"
						}
					],
					"stateMutability": "view",
					"type": "function"
				},
				{
					"inputs": [],
					"name": "u8",
					"outputs": [
						{
							"internalType": "uint8",
							"name": "",
							"type": "uint8"
						}
					],
					"stateMutability": "view",
					"type": "function"
				}
			],
			"devdoc": {
				"kind": "dev",
				"methods": {},
				"version": 1
			},
			"evm": {
				"assembly": "    /* \"contracts/Primitives.sol\":62:1826  contract Primitives {... */\n  mstore(0x40, 0x80)\n    /* \"contracts/Primitives.sol\":106:110  true */\n  0x01\n    /* \"contracts/Primitives.sol\":88:110  bool public boo = true */\n  0x00\n  dup1\n  0x0100\n  exp\n  dup2\n  sload\n  dup2\n  0xff\n  mul\n  not\n  and\n  swap1\n  dup4\n  iszero\n  iszero\n  mul\n  or\n  swap1\n  sstore\n  pop\n    /* \"contracts/Primitives.sol\":398:399  1 */\n  0x01\n    /* \"contracts/Primitives.sol\":380:399  uint8 public u8 = 1 */\n  0x00\n  exp(0x0100, 0x01)\n  dup2\n  sload\n  dup2\n  0xff\n  mul\n  not\n  and\n  swap1\n  dup4\n  0xff\n  and\n  mul\n  or\n  swap1\n  sstore\n  pop\n    /* \"contracts/Primitives.sol\":427:430  456 */\n  0x01c8\n    /* \"contracts/Primitives.sol\":405:430  uint256 public u256 = 456 */\n  0x01\n  sstore\n    /* \"contracts/Primitives.sol\":455:458  123 */\n  0x7b\n    /* \"contracts/Primitives.sol\":436:458  uint256 public u = 123 */\n  0x02\n  sstore\n    /* \"contracts/Primitives.sol\":745:747  -1 */\n  0xffffffffffffffffffffffffffffffffffffffffffffffffffffffffffffffff\n    /* \"contracts/Primitives.sol\":728:747  int8 public i8 = -1 */\n  0x03\n  exp(0x0100, 0x00)\n  dup2\n  sload\n  dup2\n  0xff\n  mul\n  not\n  and\n  swap1\n  dup4\n  0x00\n  signextend\n  0xff\n  and\n  mul\n  or\n  swap1\n  sstore\n  pop\n    /* \"contracts/Primitives.sol\":774:777  456 */\n  0x01c8\n    /* \"contracts/Primitives.sol\":753:777  int256 public i256 = 456 */\n  0x04\n  sstore\n    /* \"contracts/Primitives.sol\":801:805  -123 */\n  0xffffffffffffffffffffffffffffffffffffffffffffffffffffffffffffff85\n    /* \"contracts/Primitives.sol\":783:805  int256 public i = -123 */\n  0x05\n  sstore\n    /* \"contracts/Primitives.sol\":894:910  type(int256).min */\n  0x8000000000000000000000000000000000000000000000000000000000000000\n    /* \"contracts/Primitives.sol\":871:910  int256 public minInt = type(int256).min */\n  0x06\n  sstore\n    /* \"contracts/Primitives.sol\":939:955  type(int256).max */\n  0x7fffffffffffffffffffffffffffffffffffffffffffffffffffffffffffffff\n    /* \"contracts/Primitives.sol\":916:955  int256 public maxInt = type(int256).max */\n  0x07\n  sstore\n    /* \"contracts/Primitives.sol\":984:1026  0xCA35b7d915458EF540aDe6068dFe2F44E8fa733c */\n  0xca35b7d915458ef540ade6068dfe2f44e8fa733c\n    /* \"contracts/Primitives.sol\":962:1026  address public addr = 0xCA35b7d915458EF540aDe6068dFe2F44E8fa733c */\n  0x08\n  exp(0x0100, 0x00)\n  dup2\n  sload\n  dup2\n  0xffffffffffffffffffffffffffffffffffffffff\n  mul\n  not\n  and\n  swap1\n  dup4\n  0xffffffffffffffffffffffffffffffffffffffff\n  and\n  mul\n  or\n  swap1\n  sstore\n  pop\n    /* \"contracts/Primitives.sol\":1364:1368  0xb5 */\n  0xb5\n    /* \"contracts/Primitives.sol\":1346:1368  bytes1 public a = 0xb5 */\n  0xf8\n  shl\n  0x08\n  exp(0x0100, 0x14)\n  dup2\n  sload\n  dup2\n  0xff\n  mul\n  not\n  and\n  swap1\n  dup4\n  0xf8\n  shr\n  mul\n  or\n  swap1\n  sstore\n  pop\n    /* \"contracts/Primitives.sol\":1407:1411  0x56 */\n  0x56\n    /* \"contracts/Primitives.sol\":1389:1411  bytes1 public b = 0x56 */\n  0xf8\n  shl\n  0x08\n  exp(0x0100, 0x15)\n  dup2\n  sload\n  dup2\n  0xff\n  mul\n  not\n  and\n  swap1\n  dup4\n  0xf8\n  shr\n  mul\n  or\n  swap1\n  sstore\n  pop\n    /* \"contracts/Primitives.sol\":1715:1721  0x0102 */\n  0x0102\n    /* \"contracts/Primitives.sol\":1691:1721  bytes2 public   bytes2v=0x0102 */\n  0xf0\n  shl\n  0x0b\n  exp(0x0100, 0x14)\n  dup2\n  sload\n  dup2\n  0xffff\n  mul\n  not\n  and\n  swap1\n  dup4\n  0xf0\n  shr\n  mul\n  or\n  swap1\n  sstore\n  pop\n    /* \"contracts/Primitives.sol\":62:1826  contract Primitives {... */\n  callvalue\n  dup1\n  iszero\n  tag_1\n  jumpi\n  0x00\n  dup1\n  revert\ntag_1:\n  pop\n  dataSize(sub_0)\n  dup1\n  dataOffset(sub_0)\n  0x00\n  codecopy\n  0x00\n  return\nstop\n\nsub_0: assembly {\n        /* \"contracts/Primitives.sol\":62:1826  contract Primitives {... */\n      mstore(0x40, 0x80)\n      callvalue\n      dup1\n      iszero\n      tag_1\n      jumpi\n      0x00\n      dup1\n      revert\n    tag_1:\n      pop\n      jumpi(tag_2, lt(calldatasize, 0x04))\n      shr(0xe0, calldataload(0x00))\n      dup1\n      0x5abe622b\n      gt\n      tag_21\n      jumpi\n      dup1\n      0x921cda74\n      gt\n      tag_22\n      jumpi\n      dup1\n      0x921cda74\n      eq\n      tag_16\n      jumpi\n      dup1\n      0xab3a58a3\n      eq\n      tag_17\n      jumpi\n      dup1\n      0xc6a898c5\n      eq\n      tag_18\n      jumpi\n      dup1\n      0xe5aa3d58\n      eq\n      tag_19\n      jumpi\n      dup1\n      0xf2427d37\n      eq\n      tag_20\n      jumpi\n      jump(tag_2)\n    tag_22:\n      dup1\n      0x5abe622b\n      eq\n      tag_12\n      jumpi\n      dup1\n      0x767800de\n      eq\n      tag_13\n      jumpi\n      dup1\n      0x7a4c2571\n      eq\n      tag_14\n      jumpi\n      dup1\n      0x7e4e14cc\n      eq\n      tag_15\n      jumpi\n      jump(tag_2)\n    tag_21:\n      dup1\n      0x459b1acf\n      gt\n      tag_23\n      jumpi\n      dup1\n      0x459b1acf\n      eq\n      tag_7\n      jumpi\n      dup1\n      0x47b0469b\n      eq\n      tag_8\n      jumpi\n      dup1\n      0x4b3df200\n      eq\n      tag_9\n      jumpi\n      dup1\n      0x4c27fd62\n      eq\n      tag_10\n      jumpi\n      dup1\n      0x4df7e3d0\n      eq\n      tag_11\n      jumpi\n      jump(tag_2)\n    tag_23:\n      dup1\n      0x074eef3f\n      eq\n      tag_3\n      jumpi\n      dup1\n      0x0dbe671f\n      eq\n      tag_4\n      jumpi\n      dup1\n      0x1570c2cb\n      eq\n      tag_5\n      jumpi\n      dup1\n      0x33ad3bd6\n      eq\n      tag_6\n      jumpi\n    tag_2:\n      0x00\n      dup1\n      revert\n        /* \"contracts/Primitives.sol\":1504:1526  bool public defaultBoo */\n    tag_3:\n      tag_24\n      tag_25\n      jump\t// in\n    tag_24:\n      mload(0x40)\n      tag_26\n      swap2\n      swap1\n      tag_27\n      jump\t// in\n    tag_26:\n      mload(0x40)\n      dup1\n      swap2\n      sub\n      swap1\n      return\n        /* \"contracts/Primitives.sol\":1346:1368  bytes1 public a = 0xb5 */\n    tag_4:\n      tag_28\n      tag_29\n      jump\t// in\n    tag_28:\n      mload(0x40)\n      tag_30\n      swap2\n      swap1\n      tag_31\n      jump\t// in\n    tag_30:\n      mload(0x40)\n      dup1\n      swap2\n      sub\n      swap1\n      return\n        /* \"contracts/Primitives.sol\":1541:1567  uint256 public defaultUint */\n    tag_5:\n      tag_32\n      tag_33\n      jump\t// in\n    tag_32:\n      mload(0x40)\n      tag_34\n      swap2\n      swap1\n      tag_35\n      jump\t// in\n    tag_34:\n      mload(0x40)\n      dup1\n      swap2\n      sub\n      swap1\n      return\n        /* \"contracts/Primitives.sol\":1731:1824  function compareBytesN() public view  returns (bool) {... */\n    tag_6:\n      tag_36\n      tag_37\n      jump\t// in\n    tag_36:\n      mload(0x40)\n      tag_38\n      swap2\n      swap1\n      tag_27\n      jump\t// in\n    tag_38:\n      mload(0x40)\n      dup1\n      swap2\n      sub\n      swap1\n      return\n        /* \"contracts/Primitives.sol\":405:430  uint256 public u256 = 456 */\n    tag_7:\n      tag_39\n      tag_40\n      jump\t// in\n    tag_39:\n      mload(0x40)\n      tag_41\n      swap2\n      swap1\n      tag_35\n      jump\t// in\n    tag_41:\n      mload(0x40)\n      dup1\n      swap2\n      sub\n      swap1\n      return\n        /* \"contracts/Primitives.sol\":1691:1721  bytes2 public   bytes2v=0x0102 */\n    tag_8:\n      tag_42\n      tag_43\n      jump\t// in\n    tag_42:\n      mload(0x40)\n      tag_44\n      swap2\n      swap1\n      tag_45\n      jump\t// in\n    tag_44:\n      mload(0x40)\n      dup1\n      swap2\n      sub\n      swap1\n      return\n        /* \"contracts/Primitives.sol\":88:110  bool public boo = true */\n    tag_9:\n      tag_46\n      tag_47\n      jump\t// in\n    tag_46:\n      mload(0x40)\n      tag_48\n      swap2\n      swap1\n      tag_27\n      jump\t// in\n    tag_48:\n      mload(0x40)\n      dup1\n      swap2\n      sub\n      swap1\n      return\n        /* \"contracts/Primitives.sol\":753:777  int256 public i256 = 456 */\n    tag_10:\n      tag_49\n      tag_50\n      jump\t// in\n    tag_49:\n      mload(0x40)\n      tag_51\n      swap2\n      swap1\n      tag_52\n      jump\t// in\n    tag_51:\n      mload(0x40)\n      dup1\n      swap2\n      sub\n      swap1\n      return\n        /* \"contracts/Primitives.sol\":1389:1411  bytes1 public b = 0x56 */\n    tag_11:\n      tag_53\n      tag_54\n      jump\t// in\n    tag_53:\n      mload(0x40)\n      tag_55\n      swap2\n      swap1\n      tag_31\n      jump\t// in\n    tag_55:\n      mload(0x40)\n      dup1\n      swap2\n      sub\n      swap1\n      return\n        /* \"contracts/Primitives.sol\":1578:1602  int256 public defaultInt */\n    tag_12:\n      tag_56\n      tag_57\n      jump\t// in\n    tag_56:\n      mload(0x40)\n      tag_58\n      swap2\n      swap1\n      tag_52\n      jump\t// in\n    tag_58:\n      mload(0x40)\n      dup1\n      swap2\n      sub\n      swap1\n      return\n        /* \"contracts/Primitives.sol\":962:1026  address public addr = 0xCA35b7d915458EF540aDe6068dFe2F44E8fa733c */\n    tag_13:\n      tag_59\n      tag_60\n      jump\t// in\n    tag_59:\n      mload(0x40)\n      tag_61\n      swap2\n      swap1\n      tag_62\n      jump\t// in\n    tag_61:\n      mload(0x40)\n      dup1\n      swap2\n      sub\n      swap1\n      return\n        /* \"contracts/Primitives.sol\":916:955  int256 public maxInt = type(int256).max */\n    tag_14:\n      tag_63\n      tag_64\n      jump\t// in\n    tag_63:\n      mload(0x40)\n      tag_65\n      swap2\n      swap1\n      tag_52\n      jump\t// in\n    tag_65:\n      mload(0x40)\n      dup1\n      swap2\n      sub\n      swap1\n      return\n        /* \"contracts/Primitives.sol\":871:910  int256 public minInt = type(int256).min */\n    tag_15:\n      tag_66\n      tag_67\n      jump\t// in\n    tag_66:\n      mload(0x40)\n      tag_68\n      swap2\n      swap1\n      tag_52\n      jump\t// in\n    tag_68:\n      mload(0x40)\n      dup1\n      swap2\n      sub\n      swap1\n      return\n        /* \"contracts/Primitives.sol\":728:747  int8 public i8 = -1 */\n    tag_16:\n      tag_69\n      tag_70\n      jump\t// in\n    tag_69:\n      mload(0x40)\n      tag_71\n      swap2\n      swap1\n      tag_72\n      jump\t// in\n    tag_71:\n      mload(0x40)\n      dup1\n      swap2\n      sub\n      swap1\n      return\n        /* \"contracts/Primitives.sol\":380:399  uint8 public u8 = 1 */\n    tag_17:\n      tag_73\n      tag_74\n      jump\t// in\n    tag_73:\n      mload(0x40)\n      tag_75\n      swap2\n      swap1\n      tag_76\n      jump\t// in\n    tag_75:\n      mload(0x40)\n      dup1\n      swap2\n      sub\n      swap1\n      return\n        /* \"contracts/Primitives.sol\":436:458  uint256 public u = 123 */\n    tag_18:\n      tag_77\n      tag_78\n      jump\t// in\n    tag_77:\n      mload(0x40)\n      tag_79\n      swap2\n      swap1\n      tag_35\n      jump\t// in\n    tag_79:\n      mload(0x40)\n      dup1\n      swap2\n      sub\n      swap1\n      return\n        /* \"contracts/Primitives.sol\":783:805  int256 public i = -123 */\n    tag_19:\n      tag_80\n      tag_81\n      jump\t// in\n    tag_80:\n      mload(0x40)\n      tag_82\n      swap2\n      swap1\n      tag_52\n      jump\t// in\n    tag_82:\n      mload(0x40)\n      dup1\n      swap2\n      sub\n      swap1\n      return\n        /* \"contracts/Primitives.sol\":1613:1639  address public defaultAddr */\n    tag_20:\n      tag_83\n      tag_84\n      jump\t// in\n    tag_83:\n      mload(0x40)\n      tag_85\n      swap2\n      swap1\n      tag_62\n      jump\t// in\n    tag_85:\n      mload(0x40)\n      dup1\n      swap2\n      sub\n      swap1\n      return\n        /* \"contracts/Primitives.sol\":1504:1526  bool public defaultBoo */\n    tag_25:\n      0x08\n      0x16\n      swap1\n      sload\n      swap1\n      0x0100\n      exp\n      swap1\n      div\n      0xff\n      and\n      dup2\n      jump\t// out\n        /* \"contracts/Primitives.sol\":1346:1368  bytes1 public a = 0xb5 */\n    tag_29:\n      0x08\n      0x14\n      swap1\n      sload\n      swap1\n      0x0100\n      exp\n      swap1\n      div\n      0xf8\n      shl\n      dup2\n      jump\t// out\n        /* \"contracts/Primitives.sol\":1541:1567  uint256 public defaultUint */\n    tag_33:\n      sload(0x09)\n      dup2\n      jump\t// out\n        /* \"contracts/Primitives.sol\":1731:1824  function compareBytesN() public view  returns (bool) {... */\n    tag_37:\n        /* \"contracts/Primitives.sol\":1778:1782  bool */\n      0x00\n        /* \"contracts/Primitives.sol\":1811:1815  this */\n      address\n        /* \"contracts/Primitives.sol\":1811:1817  this.a */\n      0xffffffffffffffffffffffffffffffffffffffff\n      and\n      0x0dbe671f\n        /* \"contracts/Primitives.sol\":1801:1817  this.b == this.a */\n      0xffffffffffffffffffffffffffffffffffffffffffffffff\n      and\n        /* \"contracts/Primitives.sol\":1801:1805  this */\n      address\n        /* \"contracts/Primitives.sol\":1801:1807  this.b */\n      0xffffffffffffffffffffffffffffffffffffffff\n      and\n      0x4df7e3d0\n        /* \"contracts/Primitives.sol\":1801:1817  this.b == this.a */\n      0xffffffffffffffffffffffffffffffffffffffffffffffff\n      and\n      swap3\n      0xffffffffffffffffffffffffffffffffffffffff\n      and\n      swap1\n      0xffffffffffffffffffffffffffffffffffffffff\n      and\n      eq\n      swap2\n      0xffffffff\n      and\n      swap1\n      0xffffffff\n      and\n      eq\n      and\n        /* \"contracts/Primitives.sol\":1794:1817  return this.b == this.a */\n      swap1\n      pop\n        /* \"contracts/Primitives.sol\":1731:1824  function compareBytesN() public view  returns (bool) {... */\n      swap1\n      jump\t// out\n        /* \"contracts/Primitives.sol\":405:430  uint256 public u256 = 456 */\n    tag_40:\n      sload(0x01)\n      dup2\n      jump\t// out\n        /* \"contracts/Primitives.sol\":1691:1721  bytes2 public   bytes2v=0x0102 */\n    tag_43:\n      0x0b\n      0x14\n      swap1\n      sload\n      swap1\n      0x0100\n      exp\n      swap1\n      div\n      0xf0\n      shl\n      dup2\n      jump\t// out\n        /* \"contracts/Primitives.sol\":88:110  bool public boo = true */\n    tag_47:\n      0x00\n      dup1\n      sload\n      swap1\n      0x0100\n      exp\n      swap1\n      div\n      0xff\n      and\n      dup2\n      jump\t// out\n        /* \"contracts/Primitives.sol\":753:777  int256 public i256 = 456 */\n    tag_50:\n      sload(0x04)\n      dup2\n      jump\t// out\n        /* \"contracts/Primitives.sol\":1389:1411  bytes1 public b = 0x56 */\n    tag_54:\n      0x08\n      0x15\n      swap1\n      sload\n      swap1\n      0x0100\n      exp\n      swap1\n      div\n      0xf8\n      shl\n      dup2\n      jump\t// out\n        /* \"contracts/Primitives.sol\":1578:1602  int256 public defaultInt */\n    tag_57:\n      sload(0x0a)\n      dup2\n      jump\t// out\n        /* \"contracts/Primitives.sol\":962:1026  address public addr = 0xCA35b7d915458EF540aDe6068dFe2F44E8fa733c */\n    tag_60:\n      0x08\n      0x00\n      swap1\n      sload\n      swap1\n      0x0100\n      exp\n      swap1\n      div\n      0xffffffffffffffffffffffffffffffffffffffff\n      and\n      dup2\n      jump\t// out\n        /* \"contracts/Primitives.sol\":916:955  int256 public maxInt = type(int256).max */\n    tag_64:\n      sload(0x07)\n      dup2\n      jump\t// out\n        /* \"contracts/Primitives.sol\":871:910  int256 public minInt = type(int256).min */\n    tag_67:\n      sload(0x06)\n      dup2\n      jump\t// out\n        /* \"contracts/Primitives.sol\":728:747  int8 public i8 = -1 */\n    tag_70:\n      0x03\n      0x00\n      swap1\n      sload\n      swap1\n      0x0100\n      exp\n      swap1\n      div\n      0x00\n      signextend\n      dup2\n      jump\t// out\n        /* \"contracts/Primitives.sol\":380:399  uint8 public u8 = 1 */\n    tag_74:\n      0x00\n      0x01\n      swap1\n      sload\n      swap1\n      0x0100\n      exp\n      swap1\n      div\n      0xff\n      and\n      dup2\n      jump\t// out\n        /* \"contracts/Primitives.sol\":436:458  uint256 public u = 123 */\n    tag_78:\n      sload(0x02)\n      dup2\n      jump\t// out\n        /* \"contracts/Primitives.sol\":783:805  int256 public i = -123 */\n    tag_81:\n      sload(0x05)\n      dup2\n      jump\t// out\n        /* \"contracts/Primitives.sol\":1613:1639  address public defaultAddr */\n    tag_84:\n      0x0b\n      0x00\n      swap1\n      sload\n      swap1\n      0x0100\n      exp\n      swap1\n      div\n      0xffffffffffffffffffffffffffffffffffffffff\n      and\n      dup2\n      jump\t// out\n        /* \"#utility.yul\":7:97   */\n    tag_87:\n        /* \"#utility.yul\":41:48   */\n      0x00\n        /* \"#utility.yul\":84:89   */\n      dup2\n        /* \"#utility.yul\":77:90   */\n      iszero\n        /* \"#utility.yul\":70:91   */\n      iszero\n        /* \"#utility.yul\":59:91   */\n      swap1\n      pop\n        /* \"#utility.yul\":7:97   */\n      swap2\n      swap1\n      pop\n      jump\t// out\n        /* \"#utility.yul\":103:212   */\n    tag_88:\n        /* \"#utility.yul\":184:205   */\n      tag_107\n        /* \"#utility.yul\":199:204   */\n      dup2\n        /* \"#utility.yul\":184:205   */\n      tag_87\n      jump\t// in\n    tag_107:\n        /* \"#utility.yul\":179:182   */\n      dup3\n        /* \"#utility.yul\":172:206   */\n      mstore\n        /* \"#utility.yul\":103:212   */\n      pop\n      pop\n      jump\t// out\n        /* \"#utility.yul\":218:428   */\n    tag_27:\n        /* \"#utility.yul\":305:309   */\n      0x00\n        /* \"#utility.yul\":343:345   */\n      0x20\n        /* \"#utility.yul\":332:341   */\n      dup3\n        /* \"#utility.yul\":328:346   */\n      add\n        /* \"#utility.yul\":320:346   */\n      swap1\n      pop\n        /* \"#utility.yul\":356:421   */\n      tag_109\n        /* \"#utility.yul\":418:419   */\n      0x00\n        /* \"#utility.yul\":407:416   */\n      dup4\n        /* \"#utility.yul\":403:420   */\n      add\n        /* \"#utility.yul\":394:400   */\n      dup5\n        /* \"#utility.yul\":356:421   */\n      tag_88\n      jump\t// in\n    tag_109:\n        /* \"#utility.yul\":218:428   */\n      swap3\n      swap2\n      pop\n      pop\n      jump\t// out\n        /* \"#utility.yul\":434:583   */\n    tag_89:\n        /* \"#utility.yul\":470:477   */\n      0x00\n        /* \"#utility.yul\":510:576   */\n      0xff00000000000000000000000000000000000000000000000000000000000000\n        /* \"#utility.yul\":503:508   */\n      dup3\n        /* \"#utility.yul\":499:577   */\n      and\n        /* \"#utility.yul\":488:577   */\n      swap1\n      pop\n        /* \"#utility.yul\":434:583   */\n      swap2\n      swap1\n      pop\n      jump\t// out\n        /* \"#utility.yul\":589:704   */\n    tag_90:\n        /* \"#utility.yul\":674:697   */\n      tag_112\n        /* \"#utility.yul\":691:696   */\n      dup2\n        /* \"#utility.yul\":674:697   */\n      tag_89\n      jump\t// in\n    tag_112:\n        /* \"#utility.yul\":669:672   */\n      dup3\n        /* \"#utility.yul\":662:698   */\n      mstore\n        /* \"#utility.yul\":589:704   */\n      pop\n      pop\n      jump\t// out\n        /* \"#utility.yul\":710:928   */\n    tag_31:\n        /* \"#utility.yul\":801:805   */\n      0x00\n        /* \"#utility.yul\":839:841   */\n      0x20\n        /* \"#utility.yul\":828:837   */\n      dup3\n        /* \"#utility.yul\":824:842   */\n      add\n        /* \"#utility.yul\":816:842   */\n      swap1\n      pop\n        /* \"#utility.yul\":852:921   */\n      tag_114\n        /* \"#utility.yul\":918:919   */\n      0x00\n        /* \"#utility.yul\":907:916   */\n      dup4\n        /* \"#utility.yul\":903:920   */\n      add\n        /* \"#utility.yul\":894:900   */\n      dup5\n        /* \"#utility.yul\":852:921   */\n      tag_90\n      jump\t// in\n    tag_114:\n        /* \"#utility.yul\":710:928   */\n      swap3\n      swap2\n      pop\n      pop\n      jump\t// out\n        /* \"#utility.yul\":934:1011   */\n    tag_91:\n        /* \"#utility.yul\":971:978   */\n      0x00\n        /* \"#utility.yul\":1000:1005   */\n      dup2\n        /* \"#utility.yul\":989:1005   */\n      swap1\n      pop\n        /* \"#utility.yul\":934:1011   */\n      swap2\n      swap1\n      pop\n      jump\t// out\n        /* \"#utility.yul\":1017:1135   */\n    tag_92:\n        /* \"#utility.yul\":1104:1128   */\n      tag_117\n        /* \"#utility.yul\":1122:1127   */\n      dup2\n        /* \"#utility.yul\":1104:1128   */\n      tag_91\n      jump\t// in\n    tag_117:\n        /* \"#utility.yul\":1099:1102   */\n      dup3\n        /* \"#utility.yul\":1092:1129   */\n      mstore\n        /* \"#utility.yul\":1017:1135   */\n      pop\n      pop\n      jump\t// out\n        /* \"#utility.yul\":1141:1363   */\n    tag_35:\n        /* \"#utility.yul\":1234:1238   */\n      0x00\n        /* \"#utility.yul\":1272:1274   */\n      0x20\n        /* \"#utility.yul\":1261:1270   */\n      dup3\n        /* \"#utility.yul\":1257:1275   */\n      add\n        /* \"#utility.yul\":1249:1275   */\n      swap1\n      pop\n        /* \"#utility.yul\":1285:1356   */\n      tag_119\n        /* \"#utility.yul\":1353:1354   */\n      0x00\n        /* \"#utility.yul\":1342:1351   */\n      dup4\n        /* \"#utility.yul\":1338:1355   */\n      add\n        /* \"#utility.yul\":1329:1335   */\n      dup5\n        /* \"#utility.yul\":1285:1356   */\n      tag_92\n      jump\t// in\n    tag_119:\n        /* \"#utility.yul\":1141:1363   */\n      swap3\n      swap2\n      pop\n      pop\n      jump\t// out\n        /* \"#utility.yul\":1369:1518   */\n    tag_93:\n        /* \"#utility.yul\":1405:1412   */\n      0x00\n        /* \"#utility.yul\":1445:1511   */\n      0xffff000000000000000000000000000000000000000000000000000000000000\n        /* \"#utility.yul\":1438:1443   */\n      dup3\n        /* \"#utility.yul\":1434:1512   */\n      and\n        /* \"#utility.yul\":1423:1512   */\n      swap1\n      pop\n        /* \"#utility.yul\":1369:1518   */\n      swap2\n      swap1\n      pop\n      jump\t// out\n        /* \"#utility.yul\":1524:1639   */\n    tag_94:\n        /* \"#utility.yul\":1609:1632   */\n      tag_122\n        /* \"#utility.yul\":1626:1631   */\n      dup2\n        /* \"#utility.yul\":1609:1632   */\n      tag_93\n      jump\t// in\n    tag_122:\n        /* \"#utility.yul\":1604:1607   */\n      dup3\n        /* \"#utility.yul\":1597:1633   */\n      mstore\n        /* \"#utility.yul\":1524:1639   */\n      pop\n      pop\n      jump\t// out\n        /* \"#utility.yul\":1645:1863   */\n    tag_45:\n        /* \"#utility.yul\":1736:1740   */\n      0x00\n        /* \"#utility.yul\":1774:1776   */\n      0x20\n        /* \"#utility.yul\":1763:1772   */\n      dup3\n        /* \"#utility.yul\":1759:1777   */\n      add\n        /* \"#utility.yul\":1751:1777   */\n      swap1\n      pop\n        /* \"#utility.yul\":1787:1856   */\n      tag_124\n        /* \"#utility.yul\":1853:1854   */\n      0x00\n        /* \"#utility.yul\":1842:1851   */\n      dup4\n        /* \"#utility.yul\":1838:1855   */\n      add\n        /* \"#utility.yul\":1829:1835   */\n      dup5\n        /* \"#utility.yul\":1787:1856   */\n      tag_94\n      jump\t// in\n    tag_124:\n        /* \"#utility.yul\":1645:1863   */\n      swap3\n      swap2\n      pop\n      pop\n      jump\t// out\n        /* \"#utility.yul\":1869:1945   */\n    tag_95:\n        /* \"#utility.yul\":1905:1912   */\n      0x00\n        /* \"#utility.yul\":1934:1939   */\n      dup2\n        /* \"#utility.yul\":1923:1939   */\n      swap1\n      pop\n        /* \"#utility.yul\":1869:1945   */\n      swap2\n      swap1\n      pop\n      jump\t// out\n        /* \"#utility.yul\":1951:2066   */\n    tag_96:\n        /* \"#utility.yul\":2036:2059   */\n      tag_127\n        /* \"#utility.yul\":2053:2058   */\n      dup2\n        /* \"#utility.yul\":2036:2059   */\n      tag_95\n      jump\t// in\n    tag_127:\n        /* \"#utility.yul\":2031:2034   */\n      dup3\n        /* \"#utility.yul\":2024:2060   */\n      mstore\n        /* \"#utility.yul\":1951:2066   */\n      pop\n      pop\n      jump\t// out\n        /* \"#utility.yul\":2072:2290   */\n    tag_52:\n        /* \"#utility.yul\":2163:2167   */\n      0x00\n        /* \"#utility.yul\":2201:2203   */\n      0x20\n        /* \"#utility.yul\":2190:2199   */\n      dup3\n        /* \"#utility.yul\":2186:2204   */\n      add\n        /* \"#utility.yul\":2178:2204   */\n      swap1\n      pop\n        /* \"#utility.yul\":2214:2283   */\n      tag_129\n        /* \"#utility.yul\":2280:2281   */\n      0x00\n        /* \"#utility.yul\":2269:2278   */\n      dup4\n        /* \"#utility.yul\":2265:2282   */\n      add\n        /* \"#utility.yul\":2256:2262   */\n      dup5\n        /* \"#utility.yul\":2214:2283   */\n      tag_96\n      jump\t// in\n    tag_129:\n        /* \"#utility.yul\":2072:2290   */\n      swap3\n      swap2\n      pop\n      pop\n      jump\t// out\n        /* \"#utility.yul\":2296:2422   */\n    tag_97:\n        /* \"#utility.yul\":2333:2340   */\n      0x00\n        /* \"#utility.yul\":2373:2415   */\n      0xffffffffffffffffffffffffffffffffffffffff\n        /* \"#utility.yul\":2366:2371   */\n      dup3\n        /* \"#utility.yul\":2362:2416   */\n      and\n        /* \"#utility.yul\":2351:2416   */\n      swap1\n      pop\n        /* \"#utility.yul\":2296:2422   */\n      swap2\n      swap1\n      pop\n      jump\t// out\n        /* \"#utility.yul\":2428:2524   */\n    tag_98:\n        /* \"#utility.yul\":2465:2472   */\n      0x00\n        /* \"#utility.yul\":2494:2518   */\n      tag_132\n        /* \"#utility.yul\":2512:2517   */\n      dup3\n        /* \"#utility.yul\":2494:2518   */\n      tag_97\n      jump\t// in\n    tag_132:\n        /* \"#utility.yul\":2483:2518   */\n      swap1\n      pop\n        /* \"#utility.yul\":2428:2524   */\n      swap2\n      swap1\n      pop\n      jump\t// out\n        /* \"#utility.yul\":2530:2648   */\n    tag_99:\n        /* \"#utility.yul\":2617:2641   */\n      tag_134\n        /* \"#utility.yul\":2635:2640   */\n      dup2\n        /* \"#utility.yul\":2617:2641   */\n      tag_98\n      jump\t// in\n    tag_134:\n        /* \"#utility.yul\":2612:2615   */\n      dup3\n        /* \"#utility.yul\":2605:2642   */\n      mstore\n        /* \"#utility.yul\":2530:2648   */\n      pop\n      pop\n      jump\t// out\n        /* \"#utility.yul\":2654:2876   */\n    tag_62:\n        /* \"#utility.yul\":2747:2751   */\n      0x00\n        /* \"#utility.yul\":2785:2787   */\n      0x20\n        /* \"#utility.yul\":2774:2783   */\n      dup3\n        /* \"#utility.yul\":2770:2788   */\n      add\n        /* \"#utility.yul\":2762:2788   */\n      swap1\n      pop\n        /* \"#utility.yul\":2798:2869   */\n      tag_136\n        /* \"#utility.yul\":2866:2867   */\n      0x00\n        /* \"#utility.yul\":2855:2864   */\n      dup4\n        /* \"#utility.yul\":2851:2868   */\n      add\n        /* \"#utility.yul\":2842:2848   */\n      dup5\n        /* \"#utility.yul\":2798:2869   */\n      tag_99\n      jump\t// in\n    tag_136:\n        /* \"#utility.yul\":2654:2876   */\n      swap3\n      swap2\n      pop\n      pop\n      jump\t// out\n        /* \"#utility.yul\":2882:2971   */\n    tag_100:\n        /* \"#utility.yul\":2916:2923   */\n      0x00\n        /* \"#utility.yul\":2959:2964   */\n      dup2\n        /* \"#utility.yul\":2956:2957   */\n      0x00\n        /* \"#utility.yul\":2945:2965   */\n      signextend\n        /* \"#utility.yul\":2934:2965   */\n      swap1\n      pop\n        /* \"#utility.yul\":2882:2971   */\n      swap2\n      swap1\n      pop\n      jump\t// out\n        /* \"#utility.yul\":2977:3086   */\n    tag_101:\n        /* \"#utility.yul\":3058:3079   */\n      tag_139\n        /* \"#utility.yul\":3073:3078   */\n      dup2\n        /* \"#utility.yul\":3058:3079   */\n      tag_100\n      jump\t// in\n    tag_139:\n        /* \"#utility.yul\":3053:3056   */\n      dup3\n        /* \"#utility.yul\":3046:3080   */\n      mstore\n        /* \"#utility.yul\":2977:3086   */\n      pop\n      pop\n      jump\t// out\n        /* \"#utility.yul\":3092:3302   */\n    tag_72:\n        /* \"#utility.yul\":3179:3183   */\n      0x00\n        /* \"#utility.yul\":3217:3219   */\n      0x20\n        /* \"#utility.yul\":3206:3215   */\n      dup3\n        /* \"#utility.yul\":3202:3220   */\n      add\n        /* \"#utility.yul\":3194:3220   */\n      swap1\n      pop\n        /* \"#utility.yul\":3230:3295   */\n      tag_141\n        /* \"#utility.yul\":3292:3293   */\n      0x00\n        /* \"#utility.yul\":3281:3290   */\n      dup4\n        /* \"#utility.yul\":3277:3294   */\n      add\n        /* \"#utility.yul\":3268:3274   */\n      dup5\n        /* \"#utility.yul\":3230:3295   */\n      tag_101\n      jump\t// in\n    tag_141:\n        /* \"#utility.yul\":3092:3302   */\n      swap3\n      swap2\n      pop\n      pop\n      jump\t// out\n        /* \"#utility.yul\":3308:3394   */\n    tag_102:\n        /* \"#utility.yul\":3343:3350   */\n      0x00\n        /* \"#utility.yul\":3383:3387   */\n      0xff\n        /* \"#utility.yul\":3376:3381   */\n      dup3\n        /* \"#utility.yul\":3372:3388   */\n      and\n        /* \"#utility.yul\":3361:3388   */\n      swap1\n      pop\n        /* \"#utility.yul\":3308:3394   */\n      swap2\n      swap1\n      pop\n      jump\t// out\n        /* \"#utility.yul\":3400:3512   */\n    tag_103:\n        /* \"#utility.yul\":3483:3505   */\n      tag_144\n        /* \"#utility.yul\":3499:3504   */\n      dup2\n        /* \"#utility.yul\":3483:3505   */\n      tag_102\n      jump\t// in\n    tag_144:\n        /* \"#utility.yul\":3478:3481   */\n      dup3\n        /* \"#utility.yul\":3471:3506   */\n      mstore\n        /* \"#utility.yul\":3400:3512   */\n      pop\n      pop\n      jump\t// out\n        /* \"#utility.yul\":3518:3732   */\n    tag_76:\n        /* \"#utility.yul\":3607:3611   */\n      0x00\n        /* \"#utility.yul\":3645:3647   */\n      0x20\n        /* \"#utility.yul\":3634:3643   */\n      dup3\n        /* \"#utility.yul\":3630:3648   */\n      add\n        /* \"#utility.yul\":3622:3648   */\n      swap1\n      pop\n        /* \"#utility.yul\":3658:3725   */\n      tag_146\n        /* \"#utility.yul\":3722:3723   */\n      0x00\n        /* \"#utility.yul\":3711:3720   */\n      dup4\n        /* \"#utility.yul\":3707:3724   */\n      add\n        /* \"#utility.yul\":3698:3704   */\n      dup5\n        /* \"#utility.yul\":3658:3725   */\n      tag_103\n      jump\t// in\n    tag_146:\n        /* \"#utility.yul\":3518:3732   */\n      swap3\n      swap2\n      pop\n      pop\n      jump\t// out\n\n    auxdata: 0xa26469706673582212204450ce142224623ca5da3022205a4dcb00503192f99163b785f99e93fb363b7164736f6c63430008110033\n}\n",
				"bytecode": {
					"linkReferences": {},
					"object": "608060405260016000806101000a81548160ff0219169083151502179055506001600060016101000a81548160ff021916908360ff1602179055506101c8600155607b6002557fffffffffffffffffffffffffffffffffffffffffffffffffffffffffffffffff600360006101000a81548160ff021916908360000b60ff1602179055506101c86004557fffffffffffffffffffffffffffffffffffffffffffffffffffffffffffffff856005557f80000000000000000000000000000000000000000000000000000000000000006006557f7fffffffffffffffffffffffffffffffffffffffffffffffffffffffffffffff60075573ca35b7d915458ef540ade6068dfe2f44e8fa733c600860006101000a81548173ffffffffffffffffffffffffffffffffffffffff021916908373ffffffffffffffffffffffffffffffffffffffff16021790555060b560f81b600860146101000a81548160ff021916908360f81c0217905550605660f81b600860156101000a81548160ff021916908360f81c021790555061010260f01b600b60146101000a81548161ffff021916908360f01c02179055503480156101b557600080fd5b50610732806101c56000396000f3fe608060405234801561001057600080fd5b50600436106101165760003560e01c80635abe622b116100a2578063921cda7411610071578063921cda74146102a1578063ab3a58a3146102bf578063c6a898c5146102dd578063e5aa3d58146102fb578063f2427d371461031957610116565b80635abe622b14610229578063767800de146102475780637a4c2571146102655780637e4e14cc1461028357610116565b8063459b1acf116100e9578063459b1acf1461019357806347b0469b146101b15780634b3df200146101cf5780634c27fd62146101ed5780634df7e3d01461020b57610116565b8063074eef3f1461011b5780630dbe671f146101395780631570c2cb1461015757806333ad3bd614610175575b600080fd5b610123610337565b6040516101309190610503565b60405180910390f35b61014161034a565b60405161014e9190610559565b60405180910390f35b61015f61035d565b60405161016c919061058d565b60405180910390f35b61017d610363565b60405161018a9190610503565b60405180910390f35b61019b610415565b6040516101a8919061058d565b60405180910390f35b6101b961041b565b6040516101c691906105e3565b60405180910390f35b6101d761042e565b6040516101e49190610503565b60405180910390f35b6101f561043f565b6040516102029190610617565b60405180910390f35b610213610445565b6040516102209190610559565b60405180910390f35b610231610458565b60405161023e9190610617565b60405180910390f35b61024f61045e565b60405161025c9190610673565b60405180910390f35b61026d610484565b60405161027a9190610617565b60405180910390f35b61028b61048a565b6040516102989190610617565b60405180910390f35b6102a9610490565b6040516102b691906106aa565b60405180910390f35b6102c76104a3565b6040516102d491906106e1565b60405180910390f35b6102e56104b6565b6040516102f2919061058d565b60405180910390f35b6103036104bc565b6040516103109190610617565b60405180910390f35b6103216104c2565b60405161032e9190610673565b60405180910390f35b600860169054906101000a900460ff1681565b600860149054906101000a900460f81b81565b60095481565b60003073ffffffffffffffffffffffffffffffffffffffff16630dbe671f77ffffffffffffffffffffffffffffffffffffffffffffffff163073ffffffffffffffffffffffffffffffffffffffff16634df7e3d077ffffffffffffffffffffffffffffffffffffffffffffffff169273ffffffffffffffffffffffffffffffffffffffff169073ffffffffffffffffffffffffffffffffffffffff16149163ffffffff169063ffffffff161416905090565b60015481565b600b60149054906101000a900460f01b81565b60008054906101000a900460ff1681565b60045481565b600860159054906101000a900460f81b81565b600a5481565b600860009054906101000a900473ffffffffffffffffffffffffffffffffffffffff1681565b60075481565b60065481565b600360009054906101000a900460000b81565b600060019054906101000a900460ff1681565b60025481565b60055481565b600b60009054906101000a900473ffffffffffffffffffffffffffffffffffffffff1681565b60008115159050919050565b6104fd816104e8565b82525050565b600060208201905061051860008301846104f4565b92915050565b60007fff0000000000000000000000000000000000000000000000000000000000000082169050919050565b6105538161051e565b82525050565b600060208201905061056e600083018461054a565b92915050565b6000819050919050565b61058781610574565b82525050565b60006020820190506105a2600083018461057e565b92915050565b60007fffff00000000000000000000000000000000000000000000000000000000000082169050919050565b6105dd816105a8565b82525050565b60006020820190506105f860008301846105d4565b92915050565b6000819050919050565b610611816105fe565b82525050565b600060208201905061062c6000830184610608565b92915050565b600073ffffffffffffffffffffffffffffffffffffffff82169050919050565b600061065d82610632565b9050919050565b61066d81610652565b82525050565b60006020820190506106886000830184610664565b92915050565b60008160000b9050919050565b6106a48161068e565b82525050565b60006020820190506106bf600083018461069b565b92915050565b600060ff82169050919050565b6106db816106c5565b82525050565b60006020820190506106f660008301846106d2565b9291505056fea26469706673582212204450ce142224623ca5da3022205a4dcb00503192f99163b785f99e93fb363b7164736f6c63430008110033",
					"opcodes": "PUSH1 0x80 PUSH1 0x40 MSTORE PUSH1 0x1 PUSH1 0x0 DUP1 PUSH2 0x100 EXP DUP2 SLOAD DUP2 PUSH1 0xFF MUL NOT AND SWAP1 DUP4 ISZERO ISZERO MUL OR SWAP1 SSTORE POP PUSH1 0x1 PUSH1 0x0 PUSH1 0x1 PUSH2 0x100 EXP DUP2 SLOAD DUP2 PUSH1 0xFF MUL NOT AND SWAP1 DUP4 PUSH1 0xFF AND MUL OR SWAP1 SSTORE POP PUSH2 0x1C8 PUSH1 0x1 SSTORE PUSH1 0x7B PUSH1 0x2 SSTORE PUSH32 0xFFFFFFFFFFFFFFFFFFFFFFFFFFFFFFFFFFFFFFFFFFFFFFFFFFFFFFFFFFFFFFFF PUSH1 0x3 PUSH1 0x0 PUSH2 0x100 EXP DUP2 SLOAD DUP2 PUSH1 0xFF MUL NOT AND SWAP1 DUP4 PUSH1 0x0 SIGNEXTEND PUSH1 0xFF AND MUL OR SWAP1 SSTORE POP PUSH2 0x1C8 PUSH1 0x4 SSTORE PUSH32 0xFFFFFFFFFFFFFFFFFFFFFFFFFFFFFFFFFFFFFFFFFFFFFFFFFFFFFFFFFFFFFF85 PUSH1 0x5 SSTORE PUSH32 0x8000000000000000000000000000000000000000000000000000000000000000 PUSH1 0x6 SSTORE PUSH32 0x7FFFFFFFFFFFFFFFFFFFFFFFFFFFFFFFFFFFFFFFFFFFFFFFFFFFFFFFFFFFFFFF PUSH1 0x7 SSTORE PUSH20 0xCA35B7D915458EF540ADE6068DFE2F44E8FA733C PUSH1 0x8 PUSH1 0x0 PUSH2 0x100 EXP DUP2 SLOAD DUP2 PUSH20 0xFFFFFFFFFFFFFFFFFFFFFFFFFFFFFFFFFFFFFFFF MUL NOT AND SWAP1 DUP4 PUSH20 0xFFFFFFFFFFFFFFFFFFFFFFFFFFFFFFFFFFFFFFFF AND MUL OR SWAP1 SSTORE POP PUSH1 0xB5 PUSH1 0xF8 SHL PUSH1 0x8 PUSH1 0x14 PUSH2 0x100 EXP DUP2 SLOAD DUP2 PUSH1 0xFF MUL NOT AND SWAP1 DUP4 PUSH1 0xF8 SHR MUL OR SWAP1 SSTORE POP PUSH1 0x56 PUSH1 0xF8 SHL PUSH1 0x8 PUSH1 0x15 PUSH2 0x100 EXP DUP2 SLOAD DUP2 PUSH1 0xFF MUL NOT AND SWAP1 DUP4 PUSH1 0xF8 SHR MUL OR SWAP1 SSTORE POP PUSH2 0x102 PUSH1 0xF0 SHL PUSH1 0xB PUSH1 0x14 PUSH2 0x100 EXP DUP2 SLOAD DUP2 PUSH2 0xFFFF MUL NOT AND SWAP1 DUP4 PUSH1 0xF0 SHR MUL OR SWAP1 SSTORE POP CALLVALUE DUP1 ISZERO PUSH2 0x1B5 JUMPI PUSH1 0x0 DUP1 REVERT JUMPDEST POP PUSH2 0x732 DUP1 PUSH2 0x1C5 PUSH1 0x0 CODECOPY PUSH1 0x0 RETURN INVALID PUSH1 0x80 PUSH1 0x40 MSTORE CALLVALUE DUP1 ISZERO PUSH2 0x10 JUMPI PUSH1 0x0 DUP1 REVERT JUMPDEST POP PUSH1 0x4 CALLDATASIZE LT PUSH2 0x116 JUMPI PUSH1 0x0 CALLDATALOAD PUSH1 0xE0 SHR DUP1 PUSH4 0x5ABE622B GT PUSH2 0xA2 JUMPI DUP1 PUSH4 0x921CDA74 GT PUSH2 0x71 JUMPI DUP1 PUSH4 0x921CDA74 EQ PUSH2 0x2A1 JUMPI DUP1 PUSH4 0xAB3A58A3 EQ PUSH2 0x2BF JUMPI DUP1 PUSH4 0xC6A898C5 EQ PUSH2 0x2DD JUMPI DUP1 PUSH4 0xE5AA3D58 EQ PUSH2 0x2FB JUMPI DUP1 PUSH4 0xF2427D37 EQ PUSH2 0x319 JUMPI PUSH2 0x116 JUMP JUMPDEST DUP1 PUSH4 0x5ABE622B EQ PUSH2 0x229 JUMPI DUP1 PUSH4 0x767800DE EQ PUSH2 0x247 JUMPI DUP1 PUSH4 0x7A4C2571 EQ PUSH2 0x265 JUMPI DUP1 PUSH4 0x7E4E14CC EQ PUSH2 0x283 JUMPI PUSH2 0x116 JUMP JUMPDEST DUP1 PUSH4 0x459B1ACF GT PUSH2 0xE9 JUMPI DUP1 PUSH4 0x459B1ACF EQ PUSH2 0x193 JUMPI DUP1 PUSH4 0x47B0469B EQ PUSH2 0x1B1 JUMPI DUP1 PUSH4 0x4B3DF200 EQ PUSH2 0x1CF JUMPI DUP1 PUSH4 0x4C27FD62 EQ PUSH2 0x1ED JUMPI DUP1 PUSH4 0x4DF7E3D0 EQ PUSH2 0x20B JUMPI PUSH2 0x116 JUMP JUMPDEST DUP1 PUSH4 0x74EEF3F EQ PUSH2 0x11B JUMPI DUP1 PUSH4 0xDBE671F EQ PUSH2 0x139 JUMPI DUP1 PUSH4 0x1570C2CB EQ PUSH2 0x157 JUMPI DUP1 PUSH4 0x33AD3BD6 EQ PUSH2 0x175 JUMPI JUMPDEST PUSH1 0x0 DUP1 REVERT JUMPDEST PUSH2 0x123 PUSH2 0x337 JUMP JUMPDEST PUSH1 0x40 MLOAD PUSH2 0x130 SWAP2 SWAP1 PUSH2 0x503 JUMP JUMPDEST PUSH1 0x40 MLOAD DUP1 SWAP2 SUB SWAP1 RETURN JUMPDEST PUSH2 0x141 PUSH2 0x34A JUMP JUMPDEST PUSH1 0x40 MLOAD PUSH2 0x14E SWAP2 SWAP1 PUSH2 0x559 JUMP JUMPDEST PUSH1 0x40 MLOAD DUP1 SWAP2 SUB SWAP1 RETURN JUMPDEST PUSH2 0x15F PUSH2 0x35D JUMP JUMPDEST PUSH1 0x40 MLOAD PUSH2 0x16C SWAP2 SWAP1 PUSH2 0x58D JUMP JUMPDEST PUSH1 0x40 MLOAD DUP1 SWAP2 SUB SWAP1 RETURN JUMPDEST PUSH2 0x17D PUSH2 0x363 JUMP JUMPDEST PUSH1 0x40 MLOAD PUSH2 0x18A SWAP2 SWAP1 PUSH2 0x503 JUMP JUMPDEST PUSH1 0x40 MLOAD DUP1 SWAP2 SUB SWAP1 RETURN JUMPDEST PUSH2 0x19B PUSH2 0x415 JUMP JUMPDEST PUSH1 0x40 MLOAD PUSH2 0x1A8 SWAP2 SWAP1 PUSH2 0x58D JUMP JUMPDEST PUSH1 0x40 MLOAD DUP1 SWAP2 SUB SWAP1 RETURN JUMPDEST PUSH2 0x1B9 PUSH2 0x41B JUMP JUMPDEST PUSH1 0x40 MLOAD PUSH2 0x1C6 SWAP2 SWAP1 PUSH2 0x5E3 JUMP JUMPDEST PUSH1 0x40 MLOAD DUP1 SWAP2 SUB SWAP1 RETURN JUMPDEST PUSH2 0x1D7 PUSH2 0x42E JUMP JUMPDEST PUSH1 0x40 MLOAD PUSH2 0x1E4 SWAP2 SWAP1 PUSH2 0x503 JUMP JUMPDEST PUSH1 0x40 MLOAD DUP1 SWAP2 SUB SWAP1 RETURN JUMPDEST PUSH2 0x1F5 PUSH2 0x43F JUMP JUMPDEST PUSH1 0x40 MLOAD PUSH2 0x202 SWAP2 SWAP1 PUSH2 0x617 JUMP JUMPDEST PUSH1 0x40 MLOAD DUP1 SWAP2 SUB SWAP1 RETURN JUMPDEST PUSH2 0x213 PUSH2 0x445 JUMP JUMPDEST PUSH1 0x40 MLOAD PUSH2 0x220 SWAP2 SWAP1 PUSH2 0x559 JUMP JUMPDEST PUSH1 0x40 MLOAD DUP1 SWAP2 SUB SWAP1 RETURN JUMPDEST PUSH2 0x231 PUSH2 0x458 JUMP JUMPDEST PUSH1 0x40 MLOAD PUSH2 0x23E SWAP2 SWAP1 PUSH2 0x617 JUMP JUMPDEST PUSH1 0x40 MLOAD DUP1 SWAP2 SUB SWAP1 RETURN JUMPDEST PUSH2 0x24F PUSH2 0x45E JUMP JUMPDEST PUSH1 0x40 MLOAD PUSH2 0x25C SWAP2 SWAP1 PUSH2 0x673 JUMP JUMPDEST PUSH1 0x40 MLOAD DUP1 SWAP2 SUB SWAP1 RETURN JUMPDEST PUSH2 0x26D PUSH2 0x484 JUMP JUMPDEST PUSH1 0x40 MLOAD PUSH2 0x27A SWAP2 SWAP1 PUSH2 0x617 JUMP JUMPDEST PUSH1 0x40 MLOAD DUP1 SWAP2 SUB SWAP1 RETURN JUMPDEST PUSH2 0x28B PUSH2 0x48A JUMP JUMPDEST PUSH1 0x40 MLOAD PUSH2 0x298 SWAP2 SWAP1 PUSH2 0x617 JUMP JUMPDEST PUSH1 0x40 MLOAD DUP1 SWAP2 SUB SWAP1 RETURN JUMPDEST PUSH2 0x2A9 PUSH2 0x490 JUMP JUMPDEST PUSH1 0x40 MLOAD PUSH2 0x2B6 SWAP2 SWAP1 PUSH2 0x6AA JUMP JUMPDEST PUSH1 0x40 MLOAD DUP1 SWAP2 SUB SWAP1 RETURN JUMPDEST PUSH2 0x2C7 PUSH2 0x4A3 JUMP JUMPDEST PUSH1 0x40 MLOAD PUSH2 0x2D4 SWAP2 SWAP1 PUSH2 0x6E1 JUMP JUMPDEST PUSH1 0x40 MLOAD DUP1 SWAP2 SUB SWAP1 RETURN JUMPDEST PUSH2 0x2E5 PUSH2 0x4B6 JUMP JUMPDEST PUSH1 0x40 MLOAD PUSH2 0x2F2 SWAP2 SWAP1 PUSH2 0x58D JUMP JUMPDEST PUSH1 0x40 MLOAD DUP1 SWAP2 SUB SWAP1 RETURN JUMPDEST PUSH2 0x303 PUSH2 0x4BC JUMP JUMPDEST PUSH1 0x40 MLOAD PUSH2 0x310 SWAP2 SWAP1 PUSH2 0x617 JUMP JUMPDEST PUSH1 0x40 MLOAD DUP1 SWAP2 SUB SWAP1 RETURN JUMPDEST PUSH2 0x321 PUSH2 0x4C2 JUMP JUMPDEST PUSH1 0x40 MLOAD PUSH2 0x32E SWAP2 SWAP1 PUSH2 0x673 JUMP JUMPDEST PUSH1 0x40 MLOAD DUP1 SWAP2 SUB SWAP1 RETURN JUMPDEST PUSH1 0x8 PUSH1 0x16 SWAP1 SLOAD SWAP1 PUSH2 0x100 EXP SWAP1 DIV PUSH1 0xFF AND DUP2 JUMP JUMPDEST PUSH1 0x8 PUSH1 0x14 SWAP1 SLOAD SWAP1 PUSH2 0x100 EXP SWAP1 DIV PUSH1 0xF8 SHL DUP2 JUMP JUMPDEST PUSH1 0x9 SLOAD DUP2 JUMP JUMPDEST PUSH1 0x0 ADDRESS PUSH20 0xFFFFFFFFFFFFFFFFFFFFFFFFFFFFFFFFFFFFFFFF AND PUSH4 0xDBE671F PUSH24 0xFFFFFFFFFFFFFFFFFFFFFFFFFFFFFFFFFFFFFFFFFFFFFFFF AND ADDRESS PUSH20 0xFFFFFFFFFFFFFFFFFFFFFFFFFFFFFFFFFFFFFFFF AND PUSH4 0x4DF7E3D0 PUSH24 0xFFFFFFFFFFFFFFFFFFFFFFFFFFFFFFFFFFFFFFFFFFFFFFFF AND SWAP3 PUSH20 0xFFFFFFFFFFFFFFFFFFFFFFFFFFFFFFFFFFFFFFFF AND SWAP1 PUSH20 0xFFFFFFFFFFFFFFFFFFFFFFFFFFFFFFFFFFFFFFFF AND EQ SWAP2 PUSH4 0xFFFFFFFF AND SWAP1 PUSH4 0xFFFFFFFF AND EQ AND SWAP1 POP SWAP1 JUMP JUMPDEST PUSH1 0x1 SLOAD DUP2 JUMP JUMPDEST PUSH1 0xB PUSH1 0x14 SWAP1 SLOAD SWAP1 PUSH2 0x100 EXP SWAP1 DIV PUSH1 0xF0 SHL DUP2 JUMP JUMPDEST PUSH1 0x0 DUP1 SLOAD SWAP1 PUSH2 0x100 EXP SWAP1 DIV PUSH1 0xFF AND DUP2 JUMP JUMPDEST PUSH1 0x4 SLOAD DUP2 JUMP JUMPDEST PUSH1 0x8 PUSH1 0x15 SWAP1 SLOAD SWAP1 PUSH2 0x100 EXP SWAP1 DIV PUSH1 0xF8 SHL DUP2 JUMP JUMPDEST PUSH1 0xA SLOAD DUP2 JUMP JUMPDEST PUSH1 0x8 PUSH1 0x0 SWAP1 SLOAD SWAP1 PUSH2 0x100 EXP SWAP1 DIV PUSH20 0xFFFFFFFFFFFFFFFFFFFFFFFFFFFFFFFFFFFFFFFF AND DUP2 JUMP JUMPDEST PUSH1 0x7 SLOAD DUP2 JUMP JUMPDEST PUSH1 0x6 SLOAD DUP2 JUMP JUMPDEST PUSH1 0x3 PUSH1 0x0 SWAP1 SLOAD SWAP1 PUSH2 0x100 EXP SWAP1 DIV PUSH1 0x0 SIGNEXTEND DUP2 JUMP JUMPDEST PUSH1 0x0 PUSH1 0x1 SWAP1 SLOAD SWAP1 PUSH2 0x100 EXP SWAP1 DIV PUSH1 0xFF AND DUP2 JUMP JUMPDEST PUSH1 0x2 SLOAD DUP2 JUMP JUMPDEST PUSH1 0x5 SLOAD DUP2 JUMP JUMPDEST PUSH1 0xB PUSH1 0x0 SWAP1 SLOAD SWAP1 PUSH2 0x100 EXP SWAP1 DIV PUSH20 0xFFFFFFFFFFFFFFFFFFFFFFFFFFFFFFFFFFFFFFFF AND DUP2 JUMP JUMPDEST PUSH1 0x0 DUP2 ISZERO ISZERO SWAP1 POP SWAP2 SWAP1 POP JUMP JUMPDEST PUSH2 0x4FD DUP2 PUSH2 0x4E8 JUMP JUMPDEST DUP3 MSTORE POP POP JUMP JUMPDEST PUSH1 0x0 PUSH1 0x20 DUP3 ADD SWAP1 POP PUSH2 0x518 PUSH1 0x0 DUP4 ADD DUP5 PUSH2 0x4F4 JUMP JUMPDEST SWAP3 SWAP2 POP POP JUMP JUMPDEST PUSH1 0x0 PUSH32 0xFF00000000000000000000000000000000000000000000000000000000000000 DUP3 AND SWAP1 POP SWAP2 SWAP1 POP JUMP JUMPDEST PUSH2 0x553 DUP2 PUSH2 0x51E JUMP JUMPDEST DUP3 MSTORE POP POP JUMP JUMPDEST PUSH1 0x0 PUSH1 0x20 DUP3 ADD SWAP1 POP PUSH2 0x56E PUSH1 0x0 DUP4 ADD DUP5 PUSH2 0x54A JUMP JUMPDEST SWAP3 SWAP2 POP POP JUMP JUMPDEST PUSH1 0x0 DUP2 SWAP1 POP SWAP2 SWAP1 POP JUMP JUMPDEST PUSH2 0x587 DUP2 PUSH2 0x574 JUMP JUMPDEST DUP3 MSTORE POP POP JUMP JUMPDEST PUSH1 0x0 PUSH1 0x20 DUP3 ADD SWAP1 POP PUSH2 0x5A2 PUSH1 0x0 DUP4 ADD DUP5 PUSH2 0x57E JUMP JUMPDEST SWAP3 SWAP2 POP POP JUMP JUMPDEST PUSH1 0x0 PUSH32 0xFFFF000000000000000000000000000000000000000000000000000000000000 DUP3 AND SWAP1 POP SWAP2 SWAP1 POP JUMP JUMPDEST PUSH2 0x5DD DUP2 PUSH2 0x5A8 JUMP JUMPDEST DUP3 MSTORE POP POP JUMP JUMPDEST PUSH1 0x0 PUSH1 0x20 DUP3 ADD SWAP1 POP PUSH2 0x5F8 PUSH1 0x0 DUP4 ADD DUP5 PUSH2 0x5D4 JUMP JUMPDEST SWAP3 SWAP2 POP POP JUMP JUMPDEST PUSH1 0x0 DUP2 SWAP1 POP SWAP2 SWAP1 POP JUMP JUMPDEST PUSH2 0x611 DUP2 PUSH2 0x5FE JUMP JUMPDEST DUP3 MSTORE POP POP JUMP JUMPDEST PUSH1 0x0 PUSH1 0x20 DUP3 ADD SWAP1 POP PUSH2 0x62C PUSH1 0x0 DUP4 ADD DUP5 PUSH2 0x608 JUMP JUMPDEST SWAP3 SWAP2 POP POP JUMP JUMPDEST PUSH1 0x0 PUSH20 0xFFFFFFFFFFFFFFFFFFFFFFFFFFFFFFFFFFFFFFFF DUP3 AND SWAP1 POP SWAP2 SWAP1 POP JUMP JUMPDEST PUSH1 0x0 PUSH2 0x65D DUP3 PUSH2 0x632 JUMP JUMPDEST SWAP1 POP SWAP2 SWAP1 POP JUMP JUMPDEST PUSH2 0x66D DUP2 PUSH2 0x652 JUMP JUMPDEST DUP3 MSTORE POP POP JUMP JUMPDEST PUSH1 0x0 PUSH1 0x20 DUP3 ADD SWAP1 POP PUSH2 0x688 PUSH1 0x0 DUP4 ADD DUP5 PUSH2 0x664 JUMP JUMPDEST SWAP3 SWAP2 POP POP JUMP JUMPDEST PUSH1 0x0 DUP2 PUSH1 0x0 SIGNEXTEND SWAP1 POP SWAP2 SWAP1 POP JUMP JUMPDEST PUSH2 0x6A4 DUP2 PUSH2 0x68E JUMP JUMPDEST DUP3 MSTORE POP POP JUMP JUMPDEST PUSH1 0x0 PUSH1 0x20 DUP3 ADD SWAP1 POP PUSH2 0x6BF PUSH1 0x0 DUP4 ADD DUP5 PUSH2 0x69B JUMP JUMPDEST SWAP3 SWAP2 POP POP JUMP JUMPDEST PUSH1 0x0 PUSH1 0xFF DUP3 AND SWAP1 POP SWAP2 SWAP1 POP JUMP JUMPDEST PUSH2 0x6DB DUP2 PUSH2 0x6C5 JUMP JUMPDEST DUP3 MSTORE POP POP JUMP JUMPDEST PUSH1 0x0 PUSH1 0x20 DUP3 ADD SWAP1 POP PUSH2 0x6F6 PUSH1 0x0 DUP4 ADD DUP5 PUSH2 0x6D2 JUMP JUMPDEST SWAP3 SWAP2 POP POP JUMP INVALID LOG2 PUSH5 0x6970667358 0x22 SLT KECCAK256 DIFFICULTY POP 0xCE EQ 0x22 0x24 PUSH3 0x3CA5DA ADDRESS 0x22 KECCAK256 GAS 0x4D 0xCB STOP POP BALANCE SWAP3 0xF9 SWAP2 PUSH4 0xB785F99E SWAP4 0xFB CALLDATASIZE EXTCODESIZE PUSH18 0x64736F6C6343000811003300000000000000 "
				},
				"gasEstimates": {
					"creation": {
						"codeDepositCost": "368400",
						"executionCost": "303136",
						"totalCost": "671536"
					},
					"external": {
						"a()": "2567",
						"addr()": "2559",
						"b()": "2632",
						"boo()": "2535",
						"bytes2v()": "2566",
						"compareBytesN()": "509",
						"defaultAddr()": "2624",
						"defaultBoo()": "2545",
						"defaultInt()": "2452",
						"defaultUint()": "2497",
						"i()": "2517",
						"i256()": "2518",
						"i8()": "2497",
						"maxInt()": "2496",
						"minInt()": "2518",
						"u()": "2495",
						"u256()": "2452",
						"u8()": "2565"
					}
				},
				"methodIdentifiers": {
					"a()": "0dbe671f",
					"addr()": "767800de",
					"b()": "4df7e3d0",
					"boo()": "4b3df200",
					"bytes2v()": "47b0469b",
					"compareBytesN()": "33ad3bd6",
					"defaultAddr()": "f2427d37",
					"defaultBoo()": "074eef3f",
					"defaultInt()": "5abe622b",
					"defaultUint()": "1570c2cb",
					"i()": "e5aa3d58",
					"i256()": "4c27fd62",
					"i8()": "921cda74",
					"maxInt()": "7a4c2571",
					"minInt()": "7e4e14cc",
					"u()": "c6a898c5",
					"u256()": "459b1acf",
					"u8()": "ab3a58a3"
				}
			},
			"storageLayout": {
				"storage": [
					{
						"astId": 4,
						"contract": "contracts/Primitives.sol:Primitives",
						"label": "boo",
						"offset": 0,
						"slot": "0",
						"type": "t_bool"
					},
					{
						"astId": 7,
						"contract": "contracts/Primitives.sol:Primitives",
						"label": "u8",
						"offset": 1,
						"slot": "0",
						"type": "t_uint8"
					},
					{
						"astId": 10,
						"contract": "contracts/Primitives.sol:Primitives",
						"label": "u256",
						"offset": 0,
						"slot": "1",
						"type": "t_uint256"
					},
					{
						"astId": 13,
						"contract": "contracts/Primitives.sol:Primitives",
						"label": "u",
						"offset": 0,
						"slot": "2",
						"type": "t_uint256"
					},
					{
						"astId": 17,
						"contract": "contracts/Primitives.sol:Primitives",
						"label": "i8",
						"offset": 0,
						"slot": "3",
						"type": "t_int8"
					},
					{
						"astId": 20,
						"contract": "contracts/Primitives.sol:Primitives",
						"label": "i256",
						"offset": 0,
						"slot": "4",
						"type": "t_int256"
					},
					{
						"astId": 24,
						"contract": "contracts/Primitives.sol:Primitives",
						"label": "i",
						"offset": 0,
						"slot": "5",
						"type": "t_int256"
					},
					{
						"astId": 31,
						"contract": "contracts/Primitives.sol:Primitives",
						"label": "minInt",
						"offset": 0,
						"slot": "6",
						"type": "t_int256"
					},
					{
						"astId": 38,
						"contract": "contracts/Primitives.sol:Primitives",
						"label": "maxInt",
						"offset": 0,
						"slot": "7",
						"type": "t_int256"
					},
					{
						"astId": 41,
						"contract": "contracts/Primitives.sol:Primitives",
						"label": "addr",
						"offset": 0,
						"slot": "8",
						"type": "t_address"
					},
					{
						"astId": 44,
						"contract": "contracts/Primitives.sol:Primitives",
						"label": "a",
						"offset": 20,
						"slot": "8",
						"type": "t_bytes1"
					},
					{
						"astId": 47,
						"contract": "contracts/Primitives.sol:Primitives",
						"label": "b",
						"offset": 21,
						"slot": "8",
						"type": "t_bytes1"
					},
					{
						"astId": 49,
						"contract": "contracts/Primitives.sol:Primitives",
						"label": "defaultBoo",
						"offset": 22,
						"slot": "8",
						"type": "t_bool"
					},
					{
						"astId": 51,
						"contract": "contracts/Primitives.sol:Primitives",
						"label": "defaultUint",
						"offset": 0,
						"slot": "9",
						"type": "t_uint256"
					},
					{
						"astId": 53,
						"contract": "contracts/Primitives.sol:Primitives",
						"label": "defaultInt",
						"offset": 0,
						"slot": "10",
						"type": "t_int256"
					},
					{
						"astId": 55,
						"contract": "contracts/Primitives.sol:Primitives",
						"label": "defaultAddr",
						"offset": 0,
						"slot": "11",
						"type": "t_address"
					},
					{
						"astId": 58,
						"contract": "contracts/Primitives.sol:Primitives",
						"label": "bytes2v",
						"offset": 20,
						"slot": "11",
						"type": "t_bytes2"
					}
				],
				"types": {
					"t_address": {
						"encoding": "inplace",
						"label": "address",
						"numberOfBytes": "20"
					},
					"t_bool": {
						"encoding": "inplace",
						"label": "bool",
						"numberOfBytes": "1"
					},
					"t_bytes1": {
						"encoding": "inplace",
						"label": "bytes1",
						"numberOfBytes": "1"
					},
					"t_bytes2": {
						"encoding": "inplace",
						"label": "bytes2",
						"numberOfBytes": "2"
					},
					"t_int256": {
						"encoding": "inplace",
						"label": "int256",
						"numberOfBytes": "32"
					},
					"t_int8": {
						"encoding": "inplace",
						"label": "int8",
						"numberOfBytes": "1"
					},
					"t_uint256": {
						"encoding": "inplace",
						"label": "uint256",
						"numberOfBytes": "32"
					},
					"t_uint8": {
						"encoding": "inplace",
						"label": "uint8",
						"numberOfBytes": "1"
					}
				}
			},
			"userdoc": {
				"kind": "user",
				"methods": {},
				"version": 1
			}
		}
	}
}