{
	"contracts/Vault.sol": {
		"Vault": {
			"abi": [
				{
					"inputs": [],
					"stateMutability": "nonpayable",
					"type": "constructor"
				},
				{
					"inputs": [
						{
							"internalType": "address",
							"name": "owner",
							"type": "address"
						}
					],
					"name": "OwnableInvalidOwner",
					"type": "error"
				},
				{
					"inputs": [
						{
							"internalType": "address",
							"name": "account",
							"type": "address"
						}
					],
					"name": "OwnableUnauthorizedAccount",
					"type": "error"
				},
				{
					"anonymous": false,
					"inputs": [
						{
							"indexed": true,
							"internalType": "address",
							"name": "sender",
							"type": "address"
						},
						{
							"indexed": false,
							"internalType": "uint256",
							"name": "amount",
							"type": "uint256"
						}
					],
					"name": "Deposited",
					"type": "event"
				},
				{
					"anonymous": false,
					"inputs": [
						{
							"indexed": true,
							"internalType": "address",
							"name": "sender",
							"type": "address"
						},
						{
							"indexed": true,
							"internalType": "address",
							"name": "token",
							"type": "address"
						},
						{
							"indexed": false,
							"internalType": "uint256",
							"name": "amount",
							"type": "uint256"
						}
					],
					"name": "ERC20Deposited",
					"type": "event"
				},
				{
					"anonymous": false,
					"inputs": [
						{
							"indexed": true,
							"internalType": "address",
							"name": "sender",
							"type": "address"
						},
						{
							"indexed": true,
							"internalType": "address",
							"name": "token",
							"type": "address"
						},
						{
							"indexed": false,
							"internalType": "uint256",
							"name": "tokenId",
							"type": "uint256"
						}
					],
					"name": "ERC721Deposited",
					"type": "event"
				},
				{
					"anonymous": false,
					"inputs": [
						{
							"indexed": true,
							"internalType": "address",
							"name": "previousOwner",
							"type": "address"
						},
						{
							"indexed": true,
							"internalType": "address",
							"name": "newOwner",
							"type": "address"
						}
					],
					"name": "OwnershipTransferred",
					"type": "event"
				},
				{
					"anonymous": false,
					"inputs": [
						{
							"indexed": false,
							"internalType": "uint256",
							"name": "ethAmount",
							"type": "uint256"
						},
						{
							"indexed": false,
							"internalType": "address[]",
							"name": "erc20Tokens",
							"type": "address[]"
						},
						{
							"indexed": false,
							"internalType": "uint256[]",
							"name": "erc20Amounts",
							"type": "uint256[]"
						},
						{
							"indexed": false,
							"internalType": "address[]",
							"name": "erc721Tokens",
							"type": "address[]"
						},
						{
							"indexed": false,
							"internalType": "uint256[]",
							"name": "erc721TokenIds",
							"type": "uint256[]"
						},
						{
							"indexed": false,
							"internalType": "address",
							"name": "owner",
							"type": "address"
						}
					],
					"name": "Withdrawn",
					"type": "event"
				},
				{
					"inputs": [
						{
							"internalType": "address",
							"name": "token",
							"type": "address"
						},
						{
							"internalType": "uint256",
							"name": "amount",
							"type": "uint256"
						}
					],
					"name": "depositERC20",
					"outputs": [],
					"stateMutability": "nonpayable",
					"type": "function"
				},
				{
					"inputs": [
						{
							"internalType": "address",
							"name": "token",
							"type": "address"
						},
						{
							"internalType": "uint256",
							"name": "tokenId",
							"type": "uint256"
						}
					],
					"name": "depositERC721",
					"outputs": [],
					"stateMutability": "nonpayable",
					"type": "function"
				},
				{
					"inputs": [],
					"name": "depositETH",
					"outputs": [],
					"stateMutability": "payable",
					"type": "function"
				},
				{
					"inputs": [
						{
							"internalType": "address",
							"name": "operator",
							"type": "address"
						},
						{
							"internalType": "address",
							"name": "from",
							"type": "address"
						},
						{
							"internalType": "uint256",
							"name": "tokenId",
							"type": "uint256"
						},
						{
							"internalType": "bytes",
							"name": "data",
							"type": "bytes"
						}
					],
					"name": "onERC721Received",
					"outputs": [
						{
							"internalType": "bytes4",
							"name": "",
							"type": "bytes4"
						}
					],
					"stateMutability": "pure",
					"type": "function"
				},
				{
					"inputs": [],
					"name": "owner",
					"outputs": [
						{
							"internalType": "address",
							"name": "",
							"type": "address"
						}
					],
					"stateMutability": "view",
					"type": "function"
				},
				{
					"inputs": [],
					"name": "renounceOwnership",
					"outputs": [],
					"stateMutability": "nonpayable",
					"type": "function"
				},
				{
					"inputs": [
						{
							"internalType": "address",
							"name": "newOwner",
							"type": "address"
						}
					],
					"name": "transferOwnership",
					"outputs": [],
					"stateMutability": "nonpayable",
					"type": "function"
				},
				{
					"inputs": [
						{
							"internalType": "address[]",
							"name": "erc20Tokens",
							"type": "address[]"
						},
						{
							"internalType": "uint256[]",
							"name": "erc20Amounts",
							"type": "uint256[]"
						},
						{
							"internalType": "address[]",
							"name": "erc721Tokens",
							"type": "address[]"
						},
						{
							"internalType": "uint256[]",
							"name": "erc721TokenIds",
							"type": "uint256[]"
						}
					],
					"name": "withdraw",
					"outputs": [],
					"stateMutability": "nonpayable",
					"type": "function"
				},
				{
					"stateMutability": "payable",
					"type": "receive"
				}
			],
			"devdoc": {
				"details": "一个简单的存储合约，允许任何人存入 ETH、ERC20 和 ERC721 代币，仅合约所有者可取出并销毁合约",
				"errors": {
					"OwnableInvalidOwner(address)": [
						{
							"details": "The owner is not a valid owner account. (eg. `address(0)`)"
						}
					],
					"OwnableUnauthorizedAccount(address)": [
						{
							"details": "The caller account is not authorized to perform an operation."
						}
					]
				},
				"kind": "dev",
				"methods": {
					"constructor": {
						"details": "Vault 合约的构造函数，传递 msg.sender 给 Ownable 构造函数作为初始所有者"
					},
					"depositERC20(address,uint256)": {
						"details": "存入 ERC20 代币的函数",
						"params": {
							"amount": "转账的代币数量",
							"token": "ERC20 代币的合约地址"
						}
					},
					"depositERC721(address,uint256)": {
						"details": "存入 ERC721 代币的函数",
						"params": {
							"token": "ERC721 代币的合约地址",
							"tokenId": "转账的代币 ID"
						}
					},
					"depositETH()": {
						"details": "存入 ETH 的函数"
					},
					"onERC721Received(address,address,uint256,bytes)": {
						"details": "实现 IERC721Receiver 接口，以便合约能够接收 ERC721 代币"
					},
					"owner()": {
						"details": "Returns the address of the current owner."
					},
					"renounceOwnership()": {
						"details": "Leaves the contract without owner. It will not be possible to call `onlyOwner` functions. Can only be called by the current owner. NOTE: Renouncing ownership will leave the contract without an owner, thereby disabling any functionality that is only available to the owner."
					},
					"transferOwnership(address)": {
						"details": "Transfers ownership of the contract to a new account (`newOwner`). Can only be called by the current owner."
					},
					"withdraw(address[],uint256[],address[],uint256[])": {
						"details": "取出所有存入的资产并销毁合约",
						"params": {
							"erc20Amounts": "对应 ERC20 代币的取出数量数组",
							"erc20Tokens": "ERC20 代币的合约地址数组",
							"erc721TokenIds": "对应 ERC721 代币的 ID 数组",
							"erc721Tokens": "ERC721 代币的合约地址数组"
						}
					}
				},
				"title": "Vault",
				"version": 1
			},
			"evm": {
				"assembly": "    /* \"contracts/Vault.sol\":978:5180  contract Vault is Ownable, IERC721Receiver {... */\n  mstore(0x40, 0x80)\n    /* \"contracts/Vault.sol\":1670:1783  constructor() Ownable(msg.sender) {... */\n  callvalue\n  dup1\n  iszero\n  tag_1\n  jumpi\n  0x00\n  dup1\n  revert\ntag_1:\n  pop\n    /* \"contracts/Vault.sol\":1692:1702  msg.sender */\n  caller\n    /* \"https://github.com/OpenZeppelin/openzeppelin-contracts/blob/master/contracts/access/Ownable.sol\":1297:1298  0 */\n  0x00\n    /* \"https://github.com/OpenZeppelin/openzeppelin-contracts/blob/master/contracts/access/Ownable.sol\":1273:1299  initialOwner == address(0) */\n  0xffffffffffffffffffffffffffffffffffffffff\n  and\n    /* \"https://github.com/OpenZeppelin/openzeppelin-contracts/blob/master/contracts/access/Ownable.sol\":1273:1285  initialOwner */\n  dup2\n    /* \"https://github.com/OpenZeppelin/openzeppelin-contracts/blob/master/contracts/access/Ownable.sol\":1273:1299  initialOwner == address(0) */\n  0xffffffffffffffffffffffffffffffffffffffff\n  and\n  sub\n    /* \"https://github.com/OpenZeppelin/openzeppelin-contracts/blob/master/contracts/access/Ownable.sol\":1269:1364  if (initialOwner == address(0)) {... */\n  tag_5\n  jumpi\n    /* \"https://github.com/OpenZeppelin/openzeppelin-contracts/blob/master/contracts/access/Ownable.sol\":1350:1351  0 */\n  0x00\n    /* \"https://github.com/OpenZeppelin/openzeppelin-contracts/blob/master/contracts/access/Ownable.sol\":1322:1353  OwnableInvalidOwner(address(0)) */\n  mload(0x40)\n  0x1e4fbdf700000000000000000000000000000000000000000000000000000000\n  dup2\n  mstore\n  0x04\n  add\n  tag_6\n  swap2\n  swap1\n  tag_7\n  jump\t// in\ntag_6:\n  mload(0x40)\n  dup1\n  swap2\n  sub\n  swap1\n  revert\n    /* \"https://github.com/OpenZeppelin/openzeppelin-contracts/blob/master/contracts/access/Ownable.sol\":1269:1364  if (initialOwner == address(0)) {... */\ntag_5:\n    /* \"https://github.com/OpenZeppelin/openzeppelin-contracts/blob/master/contracts/access/Ownable.sol\":1373:1405  _transferOwnership(initialOwner) */\n  tag_8\n    /* \"https://github.com/OpenZeppelin/openzeppelin-contracts/blob/master/contracts/access/Ownable.sol\":1392:1404  initialOwner */\n  dup2\n    /* \"https://github.com/OpenZeppelin/openzeppelin-contracts/blob/master/contracts/access/Ownable.sol\":1373:1391  _transferOwnership */\n  shl(0x20, tag_9)\n    /* \"https://github.com/OpenZeppelin/openzeppelin-contracts/blob/master/contracts/access/Ownable.sol\":1373:1405  _transferOwnership(initialOwner) */\n  0x20\n  shr\n  jump\t// in\ntag_8:\n    /* \"https://github.com/OpenZeppelin/openzeppelin-contracts/blob/master/contracts/access/Ownable.sol\":1225:1412  constructor(address initialOwner) {... */\n  pop\n    /* \"contracts/Vault.sol\":978:5180  contract Vault is Ownable, IERC721Receiver {... */\n  jump(tag_11)\n    /* \"https://github.com/OpenZeppelin/openzeppelin-contracts/blob/master/contracts/access/Ownable.sol\":2912:3099  function _transferOwnership(address newOwner) internal virtual {... */\ntag_9:\n    /* \"https://github.com/OpenZeppelin/openzeppelin-contracts/blob/master/contracts/access/Ownable.sol\":2985:3001  address oldOwner */\n  0x00\n    /* \"https://github.com/OpenZeppelin/openzeppelin-contracts/blob/master/contracts/access/Ownable.sol\":3004:3010  _owner */\n  dup1\n  0x00\n  swap1\n  sload\n  swap1\n  0x0100\n  exp\n  swap1\n  div\n  0xffffffffffffffffffffffffffffffffffffffff\n  and\n    /* \"https://github.com/OpenZeppelin/openzeppelin-contracts/blob/master/contracts/access/Ownable.sol\":2985:3010  address oldOwner = _owner */\n  swap1\n  pop\n    /* \"https://github.com/OpenZeppelin/openzeppelin-contracts/blob/master/contracts/access/Ownable.sol\":3029:3037  newOwner */\n  dup2\n    /* \"https://github.com/OpenZeppelin/openzeppelin-contracts/blob/master/contracts/access/Ownable.sol\":3020:3026  _owner */\n  0x00\n  dup1\n    /* \"https://github.com/OpenZeppelin/openzeppelin-contracts/blob/master/contracts/access/Ownable.sol\":3020:3037  _owner = newOwner */\n  0x0100\n  exp\n  dup2\n  sload\n  dup2\n  0xffffffffffffffffffffffffffffffffffffffff\n  mul\n  not\n  and\n  swap1\n  dup4\n  0xffffffffffffffffffffffffffffffffffffffff\n  and\n  mul\n  or\n  swap1\n  sstore\n  pop\n    /* \"https://github.com/OpenZeppelin/openzeppelin-contracts/blob/master/contracts/access/Ownable.sol\":3083:3091  newOwner */\n  dup2\n    /* \"https://github.com/OpenZeppelin/openzeppelin-contracts/blob/master/contracts/access/Ownable.sol\":3052:3092  OwnershipTransferred(oldOwner, newOwner) */\n  0xffffffffffffffffffffffffffffffffffffffff\n  and\n    /* \"https://github.com/OpenZeppelin/openzeppelin-contracts/blob/master/contracts/access/Ownable.sol\":3073:3081  oldOwner */\n  dup2\n    /* \"https://github.com/OpenZeppelin/openzeppelin-contracts/blob/master/contracts/access/Ownable.sol\":3052:3092  OwnershipTransferred(oldOwner, newOwner) */\n  0xffffffffffffffffffffffffffffffffffffffff\n  and\n  0x8be0079c531659141344cd1fd0a4f28419497f9722a3daafe3b4186f6b6457e0\n  mload(0x40)\n  mload(0x40)\n  dup1\n  swap2\n  sub\n  swap1\n  log3\n    /* \"https://github.com/OpenZeppelin/openzeppelin-contracts/blob/master/contracts/access/Ownable.sol\":2975:3099  {... */\n  pop\n    /* \"https://github.com/OpenZeppelin/openzeppelin-contracts/blob/master/contracts/access/Ownable.sol\":2912:3099  function _transferOwnership(address newOwner) internal virtual {... */\n  pop\n  jump\t// out\n    /* \"#utility.yul\":7:133   */\ntag_13:\n    /* \"#utility.yul\":44:51   */\n  0x00\n    /* \"#utility.yul\":84:126   */\n  0xffffffffffffffffffffffffffffffffffffffff\n    /* \"#utility.yul\":77:82   */\n  dup3\n    /* \"#utility.yul\":73:127   */\n  and\n    /* \"#utility.yul\":62:127   */\n  swap1\n  pop\n    /* \"#utility.yul\":7:133   */\n  swap2\n  swap1\n  pop\n  jump\t// out\n    /* \"#utility.yul\":139:235   */\ntag_14:\n    /* \"#utility.yul\":176:183   */\n  0x00\n    /* \"#utility.yul\":205:229   */\n  tag_19\n    /* \"#utility.yul\":223:228   */\n  dup3\n    /* \"#utility.yul\":205:229   */\n  tag_13\n  jump\t// in\ntag_19:\n    /* \"#utility.yul\":194:229   */\n  swap1\n  pop\n    /* \"#utility.yul\":139:235   */\n  swap2\n  swap1\n  pop\n  jump\t// out\n    /* \"#utility.yul\":241:359   */\ntag_15:\n    /* \"#utility.yul\":328:352   */\n  tag_21\n    /* \"#utility.yul\":346:351   */\n  dup2\n    /* \"#utility.yul\":328:352   */\n  tag_14\n  jump\t// in\ntag_21:\n    /* \"#utility.yul\":323:326   */\n  dup3\n    /* \"#utility.yul\":316:353   */\n  mstore\n    /* \"#utility.yul\":241:359   */\n  pop\n  pop\n  jump\t// out\n    /* \"#utility.yul\":365:587   */\ntag_7:\n    /* \"#utility.yul\":458:462   */\n  0x00\n    /* \"#utility.yul\":496:498   */\n  0x20\n    /* \"#utility.yul\":485:494   */\n  dup3\n    /* \"#utility.yul\":481:499   */\n  add\n    /* \"#utility.yul\":473:499   */\n  swap1\n  pop\n    /* \"#utility.yul\":509:580   */\n  tag_23\n    /* \"#utility.yul\":577:578   */\n  0x00\n    /* \"#utility.yul\":566:575   */\n  dup4\n    /* \"#utility.yul\":562:579   */\n  add\n    /* \"#utility.yul\":553:559   */\n  dup5\n    /* \"#utility.yul\":509:580   */\n  tag_15\n  jump\t// in\ntag_23:\n    /* \"#utility.yul\":365:587   */\n  swap3\n  swap2\n  pop\n  pop\n  jump\t// out\n    /* \"contracts/Vault.sol\":978:5180  contract Vault is Ownable, IERC721Receiver {... */\ntag_11:\n  dataSize(sub_0)\n  dup1\n  dataOffset(sub_0)\n  0x00\n  codecopy\n  0x00\n  return\nstop\n\nsub_0: assembly {\n        /* \"contracts/Vault.sol\":978:5180  contract Vault is Ownable, IERC721Receiver {... */\n      mstore(0x40, 0x80)\n      jumpi(tag_1, lt(calldatasize, 0x04))\n      shr(0xe0, calldataload(0x00))\n      dup1\n      0x97feb926\n      gt\n      tag_11\n      jumpi\n      dup1\n      0x97feb926\n      eq\n      tag_7\n      jumpi\n      dup1\n      0xd29a4bf6\n      eq\n      tag_8\n      jumpi\n      dup1\n      0xf2fde38b\n      eq\n      tag_9\n      jumpi\n      dup1\n      0xf6326fb3\n      eq\n      tag_10\n      jumpi\n      jump(tag_2)\n    tag_11:\n      dup1\n      0x150b7a02\n      eq\n      tag_3\n      jumpi\n      dup1\n      0x2dae8580\n      eq\n      tag_4\n      jumpi\n      dup1\n      0x715018a6\n      eq\n      tag_5\n      jumpi\n      dup1\n      0x8da5cb5b\n      eq\n      tag_6\n      jumpi\n      jump(tag_2)\n    tag_1:\n      jumpi(tag_2, calldatasize)\n        /* \"contracts/Vault.sol\":1898:1908  msg.sender */\n      caller\n        /* \"contracts/Vault.sol\":1888:1920  Deposited(msg.sender, msg.value) */\n      0xffffffffffffffffffffffffffffffffffffffff\n      and\n      0x2da466a7b24304f47e87fa2e1e5a81b9831ce54fec19055ce277ca2f39ba42c4\n        /* \"contracts/Vault.sol\":1910:1919  msg.value */\n      callvalue\n        /* \"contracts/Vault.sol\":1888:1920  Deposited(msg.sender, msg.value) */\n      mload(0x40)\n      tag_14\n      swap2\n      swap1\n      tag_15\n      jump\t// in\n    tag_14:\n      mload(0x40)\n      dup1\n      swap2\n      sub\n      swap1\n      log2\n        /* \"contracts/Vault.sol\":978:5180  contract Vault is Ownable, IERC721Receiver {... */\n      stop\n    tag_2:\n      0x00\n      dup1\n      revert\n        /* \"contracts/Vault.sol\":4861:5178  function onERC721Received(... */\n    tag_3:\n      callvalue\n      dup1\n      iszero\n      tag_16\n      jumpi\n      0x00\n      dup1\n      revert\n    tag_16:\n      pop\n      tag_17\n      0x04\n      dup1\n      calldatasize\n      sub\n      dup2\n      add\n      swap1\n      tag_18\n      swap2\n      swap1\n      tag_19\n      jump\t// in\n    tag_18:\n      tag_20\n      jump\t// in\n    tag_17:\n      mload(0x40)\n      tag_21\n      swap2\n      swap1\n      tag_22\n      jump\t// in\n    tag_21:\n      mload(0x40)\n      dup1\n      swap2\n      sub\n      swap1\n      return\n        /* \"contracts/Vault.sol\":3234:4756  function withdraw(... */\n    tag_4:\n      callvalue\n      dup1\n      iszero\n      tag_23\n      jumpi\n      0x00\n      dup1\n      revert\n    tag_23:\n      pop\n      tag_24\n      0x04\n      dup1\n      calldatasize\n      sub\n      dup2\n      add\n      swap1\n      tag_25\n      swap2\n      swap1\n      tag_26\n      jump\t// in\n    tag_25:\n      tag_27\n      jump\t// in\n    tag_24:\n      stop\n        /* \"https://github.com/OpenZeppelin/openzeppelin-contracts/blob/master/contracts/access/Ownable.sol\":2293:2394  function renounceOwnership() public virtual onlyOwner {... */\n    tag_5:\n      callvalue\n      dup1\n      iszero\n      tag_28\n      jumpi\n      0x00\n      dup1\n      revert\n    tag_28:\n      pop\n      tag_29\n      tag_30\n      jump\t// in\n    tag_29:\n      stop\n        /* \"https://github.com/OpenZeppelin/openzeppelin-contracts/blob/master/contracts/access/Ownable.sol\":1638:1723  function owner() public view virtual returns (address) {... */\n    tag_6:\n      callvalue\n      dup1\n      iszero\n      tag_31\n      jumpi\n      0x00\n      dup1\n      revert\n    tag_31:\n      pop\n      tag_32\n      tag_33\n      jump\t// in\n    tag_32:\n      mload(0x40)\n      tag_34\n      swap2\n      swap1\n      tag_35\n      jump\t// in\n    tag_34:\n      mload(0x40)\n      dup1\n      swap2\n      sub\n      swap1\n      return\n        /* \"contracts/Vault.sol\":2288:2547  function depositERC20(address token, uint amount) external {... */\n    tag_7:\n      callvalue\n      dup1\n      iszero\n      tag_36\n      jumpi\n      0x00\n      dup1\n      revert\n    tag_36:\n      pop\n      tag_37\n      0x04\n      dup1\n      calldatasize\n      sub\n      dup2\n      add\n      swap1\n      tag_38\n      swap2\n      swap1\n      tag_39\n      jump\t// in\n    tag_38:\n      tag_40\n      jump\t// in\n    tag_37:\n      stop\n        /* \"contracts/Vault.sol\":2701:2904  function depositERC721(address token, uint tokenId) external {... */\n    tag_8:\n      callvalue\n      dup1\n      iszero\n      tag_41\n      jumpi\n      0x00\n      dup1\n      revert\n    tag_41:\n      pop\n      tag_42\n      0x04\n      dup1\n      calldatasize\n      sub\n      dup2\n      add\n      swap1\n      tag_43\n      swap2\n      swap1\n      tag_39\n      jump\t// in\n    tag_43:\n      tag_44\n      jump\t// in\n    tag_42:\n      stop\n        /* \"https://github.com/OpenZeppelin/openzeppelin-contracts/blob/master/contracts/access/Ownable.sol\":2543:2758  function transferOwnership(address newOwner) public virtual onlyOwner {... */\n    tag_9:\n      callvalue\n      dup1\n      iszero\n      tag_45\n      jumpi\n      0x00\n      dup1\n      revert\n    tag_45:\n      pop\n      tag_46\n      0x04\n      dup1\n      calldatasize\n      sub\n      dup2\n      add\n      swap1\n      tag_47\n      swap2\n      swap1\n      tag_48\n      jump\t// in\n    tag_47:\n      tag_49\n      jump\t// in\n    tag_46:\n      stop\n        /* \"contracts/Vault.sol\":1982:2134  function depositETH() external payable {... */\n    tag_10:\n      tag_50\n      tag_51\n      jump\t// in\n    tag_50:\n      stop\n        /* \"contracts/Vault.sol\":4861:5178  function onERC721Received(... */\n    tag_20:\n        /* \"contracts/Vault.sol\":5024:5030  bytes4 */\n      0x00\n        /* \"contracts/Vault.sol\":5130:5171  IERC721Receiver.onERC721Received.selector */\n      shl(0xe0, 0x150b7a02)\n        /* \"contracts/Vault.sol\":5123:5171  return IERC721Receiver.onERC721Received.selector */\n      swap1\n      pop\n        /* \"contracts/Vault.sol\":4861:5178  function onERC721Received(... */\n      swap6\n      swap5\n      pop\n      pop\n      pop\n      pop\n      pop\n      jump\t// out\n        /* \"contracts/Vault.sol\":3234:4756  function withdraw(... */\n    tag_27:\n        /* \"https://github.com/OpenZeppelin/openzeppelin-contracts/blob/master/contracts/access/Ownable.sol\":1531:1544  _checkOwner() */\n      tag_54\n        /* \"https://github.com/OpenZeppelin/openzeppelin-contracts/blob/master/contracts/access/Ownable.sol\":1531:1542  _checkOwner */\n      tag_55\n        /* \"https://github.com/OpenZeppelin/openzeppelin-contracts/blob/master/contracts/access/Ownable.sol\":1531:1544  _checkOwner() */\n      jump\t// in\n    tag_54:\n        /* \"contracts/Vault.sol\":3446:3461  uint ethBalance */\n      0x00\n        /* \"contracts/Vault.sol\":3464:3485  address(this).balance */\n      selfbalance\n        /* \"contracts/Vault.sol\":3446:3485  uint ethBalance = address(this).balance */\n      swap1\n      pop\n        /* \"contracts/Vault.sol\":3535:3536  0 */\n      0x00\n        /* \"contracts/Vault.sol\":3522:3532  ethBalance */\n      dup2\n        /* \"contracts/Vault.sol\":3522:3536  ethBalance > 0 */\n      gt\n        /* \"contracts/Vault.sol\":3518:3600  if (ethBalance > 0) {... */\n      iszero\n      tag_57\n      jumpi\n        /* \"contracts/Vault.sol\":3560:3567  owner() */\n      tag_58\n        /* \"contracts/Vault.sol\":3560:3565  owner */\n      tag_33\n        /* \"contracts/Vault.sol\":3560:3567  owner() */\n      jump\t// in\n    tag_58:\n        /* \"contracts/Vault.sol\":3552:3577  payable(owner()).transfer */\n      0xffffffffffffffffffffffffffffffffffffffff\n      and\n        /* \"contracts/Vault.sol\":3552:3589  payable(owner()).transfer(ethBalance) */\n      0x08fc\n        /* \"contracts/Vault.sol\":3578:3588  ethBalance */\n      dup3\n        /* \"contracts/Vault.sol\":3552:3589  payable(owner()).transfer(ethBalance) */\n      swap1\n      dup2\n      iszero\n      mul\n      swap1\n      mload(0x40)\n      0x00\n      mload(0x40)\n      dup1\n      dup4\n      sub\n      dup2\n      dup6\n      dup9\n      dup9\n      call\n      swap4\n      pop\n      pop\n      pop\n      pop\n      iszero\n      dup1\n      iszero\n      tag_60\n      jumpi\n      returndatasize\n      0x00\n      dup1\n      returndatacopy\n      revert(0x00, returndatasize)\n    tag_60:\n      pop\n        /* \"contracts/Vault.sol\":3518:3600  if (ethBalance > 0) {... */\n    tag_57:\n        /* \"contracts/Vault.sol\":3677:3689  erc20Amounts */\n      dup7\n      dup7\n        /* \"contracts/Vault.sol\":3677:3696  erc20Amounts.length */\n      swap1\n      pop\n        /* \"contracts/Vault.sol\":3655:3666  erc20Tokens */\n      dup10\n      dup10\n        /* \"contracts/Vault.sol\":3655:3673  erc20Tokens.length */\n      swap1\n      pop\n        /* \"contracts/Vault.sol\":3655:3696  erc20Tokens.length == erc20Amounts.length */\n      eq\n        /* \"contracts/Vault.sol\":3647:3735  require(erc20Tokens.length == erc20Amounts.length, unicode\"ERC20 数组长度不匹配\") */\n      tag_61\n      jumpi\n      mload(0x40)\n      0x08c379a000000000000000000000000000000000000000000000000000000000\n      dup2\n      mstore\n      0x04\n      add\n      tag_62\n      swap1\n      tag_63\n      jump\t// in\n    tag_62:\n      mload(0x40)\n      dup1\n      swap2\n      sub\n      swap1\n      revert\n    tag_61:\n        /* \"contracts/Vault.sol\":3782:3788  uint i */\n      0x00\n        /* \"contracts/Vault.sol\":3777:4059  for (uint i = 0; i < erc20Tokens.length; i++) {... */\n    tag_64:\n        /* \"contracts/Vault.sol\":3798:3809  erc20Tokens */\n      dup10\n      dup10\n        /* \"contracts/Vault.sol\":3798:3816  erc20Tokens.length */\n      swap1\n      pop\n        /* \"contracts/Vault.sol\":3794:3795  i */\n      dup2\n        /* \"contracts/Vault.sol\":3794:3816  i < erc20Tokens.length */\n      lt\n        /* \"contracts/Vault.sol\":3777:4059  for (uint i = 0; i < erc20Tokens.length; i++) {... */\n      iszero\n      tag_65\n      jumpi\n        /* \"contracts/Vault.sol\":3837:3849  IERC20 token */\n      0x00\n        /* \"contracts/Vault.sol\":3859:3870  erc20Tokens */\n      dup11\n      dup11\n        /* \"contracts/Vault.sol\":3871:3872  i */\n      dup4\n        /* \"contracts/Vault.sol\":3859:3873  erc20Tokens[i] */\n      dup2\n      dup2\n      lt\n      tag_67\n      jumpi\n      tag_68\n      tag_69\n      jump\t// in\n    tag_68:\n    tag_67:\n      swap1\n      pop\n      0x20\n      mul\n      add\n      0x20\n      dup2\n      add\n      swap1\n      tag_70\n      swap2\n      swap1\n      tag_48\n      jump\t// in\n    tag_70:\n        /* \"contracts/Vault.sol\":3837:3874  IERC20 token = IERC20(erc20Tokens[i]) */\n      swap1\n      pop\n        /* \"contracts/Vault.sol\":3888:3899  uint amount */\n      0x00\n        /* \"contracts/Vault.sol\":3902:3914  erc20Amounts */\n      dup10\n      dup10\n        /* \"contracts/Vault.sol\":3915:3916  i */\n      dup5\n        /* \"contracts/Vault.sol\":3902:3917  erc20Amounts[i] */\n      dup2\n      dup2\n      lt\n      tag_71\n      jumpi\n      tag_72\n      tag_69\n      jump\t// in\n    tag_72:\n    tag_71:\n      swap1\n      pop\n      0x20\n      mul\n      add\n      calldataload\n        /* \"contracts/Vault.sol\":3888:3917  uint amount = erc20Amounts[i] */\n      swap1\n      pop\n        /* \"contracts/Vault.sol\":3944:3945  0 */\n      0x00\n        /* \"contracts/Vault.sol\":3935:3941  amount */\n      dup2\n        /* \"contracts/Vault.sol\":3935:3945  amount > 0 */\n      gt\n        /* \"contracts/Vault.sol\":3931:4049  if (amount > 0) {... */\n      iszero\n      tag_73\n      jumpi\n        /* \"contracts/Vault.sol\":3973:3978  token */\n      dup2\n        /* \"contracts/Vault.sol\":3973:3987  token.transfer */\n      0xffffffffffffffffffffffffffffffffffffffff\n      and\n      0xa9059cbb\n        /* \"contracts/Vault.sol\":3988:3995  owner() */\n      tag_74\n        /* \"contracts/Vault.sol\":3988:3993  owner */\n      tag_33\n        /* \"contracts/Vault.sol\":3988:3995  owner() */\n      jump\t// in\n    tag_74:\n        /* \"contracts/Vault.sol\":3997:4003  amount */\n      dup4\n        /* \"contracts/Vault.sol\":3973:4004  token.transfer(owner(), amount) */\n      mload(0x40)\n      dup4\n      0xffffffff\n      and\n      0xe0\n      shl\n      dup2\n      mstore\n      0x04\n      add\n      tag_75\n      swap3\n      swap2\n      swap1\n      tag_76\n      jump\t// in\n    tag_75:\n      0x20\n      mload(0x40)\n      dup1\n      dup4\n      sub\n      dup2\n      0x00\n      dup8\n      gas\n      call\n      iszero\n      dup1\n      iszero\n      tag_78\n      jumpi\n      returndatasize\n      0x00\n      dup1\n      returndatacopy\n      revert(0x00, returndatasize)\n    tag_78:\n      pop\n      pop\n      pop\n      pop\n      mload(0x40)\n      returndatasize\n      not(0x1f)\n      0x1f\n      dup3\n      add\n      and\n      dup3\n      add\n      dup1\n      0x40\n      mstore\n      pop\n      dup2\n      add\n      swap1\n      tag_79\n      swap2\n      swap1\n      tag_80\n      jump\t// in\n    tag_79:\n        /* \"contracts/Vault.sol\":3965:4034  require(token.transfer(owner(), amount), unicode\"ERC20 转账失败\") */\n      tag_81\n      jumpi\n      mload(0x40)\n      0x08c379a000000000000000000000000000000000000000000000000000000000\n      dup2\n      mstore\n      0x04\n      add\n      tag_82\n      swap1\n      tag_83\n      jump\t// in\n    tag_82:\n      mload(0x40)\n      dup1\n      swap2\n      sub\n      swap1\n      revert\n    tag_81:\n        /* \"contracts/Vault.sol\":3931:4049  if (amount > 0) {... */\n    tag_73:\n        /* \"contracts/Vault.sol\":3823:4059  {... */\n      pop\n      pop\n        /* \"contracts/Vault.sol\":3818:3821  i++ */\n      dup1\n      dup1\n      0x01\n      add\n      swap2\n      pop\n      pop\n        /* \"contracts/Vault.sol\":3777:4059  for (uint i = 0; i < erc20Tokens.length; i++) {... */\n      jump(tag_64)\n    tag_65:\n      pop\n        /* \"contracts/Vault.sol\":4138:4152  erc721TokenIds */\n      dup3\n      dup3\n        /* \"contracts/Vault.sol\":4138:4159  erc721TokenIds.length */\n      swap1\n      pop\n        /* \"contracts/Vault.sol\":4115:4127  erc721Tokens */\n      dup6\n      dup6\n        /* \"contracts/Vault.sol\":4115:4134  erc721Tokens.length */\n      swap1\n      pop\n        /* \"contracts/Vault.sol\":4115:4159  erc721Tokens.length == erc721TokenIds.length */\n      eq\n        /* \"contracts/Vault.sol\":4107:4198  require(erc721Tokens.length == erc721TokenIds.length,unicode\"ERC721 数组长度不匹配\") */\n      tag_84\n      jumpi\n      mload(0x40)\n      0x08c379a000000000000000000000000000000000000000000000000000000000\n      dup2\n      mstore\n      0x04\n      add\n      tag_85\n      swap1\n      tag_86\n      jump\t// in\n    tag_85:\n      mload(0x40)\n      dup1\n      swap2\n      sub\n      swap1\n      revert\n    tag_84:\n        /* \"contracts/Vault.sol\":4246:4252  uint i */\n      0x00\n        /* \"contracts/Vault.sol\":4241:4468  for (uint i = 0; i < erc721Tokens.length; i++) {... */\n    tag_87:\n        /* \"contracts/Vault.sol\":4262:4274  erc721Tokens */\n      dup6\n      dup6\n        /* \"contracts/Vault.sol\":4262:4281  erc721Tokens.length */\n      swap1\n      pop\n        /* \"contracts/Vault.sol\":4258:4259  i */\n      dup2\n        /* \"contracts/Vault.sol\":4258:4281  i < erc721Tokens.length */\n      lt\n        /* \"contracts/Vault.sol\":4241:4468  for (uint i = 0; i < erc721Tokens.length; i++) {... */\n      iszero\n      tag_88\n      jumpi\n        /* \"contracts/Vault.sol\":4302:4315  IERC721 token */\n      0x00\n        /* \"contracts/Vault.sol\":4326:4338  erc721Tokens */\n      dup7\n      dup7\n        /* \"contracts/Vault.sol\":4339:4340  i */\n      dup4\n        /* \"contracts/Vault.sol\":4326:4341  erc721Tokens[i] */\n      dup2\n      dup2\n      lt\n      tag_90\n      jumpi\n      tag_91\n      tag_69\n      jump\t// in\n    tag_91:\n    tag_90:\n      swap1\n      pop\n      0x20\n      mul\n      add\n      0x20\n      dup2\n      add\n      swap1\n      tag_92\n      swap2\n      swap1\n      tag_48\n      jump\t// in\n    tag_92:\n        /* \"contracts/Vault.sol\":4302:4342  IERC721 token = IERC721(erc721Tokens[i]) */\n      swap1\n      pop\n        /* \"contracts/Vault.sol\":4356:4368  uint tokenId */\n      0x00\n        /* \"contracts/Vault.sol\":4371:4385  erc721TokenIds */\n      dup6\n      dup6\n        /* \"contracts/Vault.sol\":4386:4387  i */\n      dup5\n        /* \"contracts/Vault.sol\":4371:4388  erc721TokenIds[i] */\n      dup2\n      dup2\n      lt\n      tag_93\n      jumpi\n      tag_94\n      tag_69\n      jump\t// in\n    tag_94:\n    tag_93:\n      swap1\n      pop\n      0x20\n      mul\n      add\n      calldataload\n        /* \"contracts/Vault.sol\":4356:4388  uint tokenId = erc721TokenIds[i] */\n      swap1\n      pop\n        /* \"contracts/Vault.sol\":4402:4407  token */\n      dup2\n        /* \"contracts/Vault.sol\":4402:4424  token.safeTransferFrom */\n      0xffffffffffffffffffffffffffffffffffffffff\n      and\n      0x42842e0e\n        /* \"contracts/Vault.sol\":4433:4437  this */\n      address\n        /* \"contracts/Vault.sol\":4440:4447  owner() */\n      tag_95\n        /* \"contracts/Vault.sol\":4440:4445  owner */\n      tag_33\n        /* \"contracts/Vault.sol\":4440:4447  owner() */\n      jump\t// in\n    tag_95:\n        /* \"contracts/Vault.sol\":4449:4456  tokenId */\n      dup5\n        /* \"contracts/Vault.sol\":4402:4457  token.safeTransferFrom(address(this), owner(), tokenId) */\n      mload(0x40)\n      dup5\n      0xffffffff\n      and\n      0xe0\n      shl\n      dup2\n      mstore\n      0x04\n      add\n      tag_96\n      swap4\n      swap3\n      swap2\n      swap1\n      tag_97\n      jump\t// in\n    tag_96:\n      0x00\n      mload(0x40)\n      dup1\n      dup4\n      sub\n      dup2\n      0x00\n      dup8\n      dup1\n      extcodesize\n      iszero\n      dup1\n      iszero\n      tag_98\n      jumpi\n      0x00\n      dup1\n      revert\n    tag_98:\n      pop\n      gas\n      call\n      iszero\n      dup1\n      iszero\n      tag_100\n      jumpi\n      returndatasize\n      0x00\n      dup1\n      returndatacopy\n      revert(0x00, returndatasize)\n    tag_100:\n      pop\n      pop\n      pop\n      pop\n        /* \"contracts/Vault.sol\":4288:4468  {... */\n      pop\n      pop\n        /* \"contracts/Vault.sol\":4283:4286  i++ */\n      dup1\n      dup1\n      0x01\n      add\n      swap2\n      pop\n      pop\n        /* \"contracts/Vault.sol\":4241:4468  for (uint i = 0; i < erc721Tokens.length; i++) {... */\n      jump(tag_87)\n    tag_88:\n      pop\n        /* \"contracts/Vault.sol\":4483:4652  Withdrawn(... */\n      0x0fa2464656246d4bb66b0fd065940bebf2d54af12b3d465e5da042f97cf6091b\n        /* \"contracts/Vault.sol\":4506:4516  ethBalance */\n      dup2\n        /* \"contracts/Vault.sol\":4530:4541  erc20Tokens */\n      dup11\n      dup11\n        /* \"contracts/Vault.sol\":4555:4567  erc20Amounts */\n      dup11\n      dup11\n        /* \"contracts/Vault.sol\":4581:4593  erc721Tokens */\n      dup11\n      dup11\n        /* \"contracts/Vault.sol\":4607:4621  erc721TokenIds */\n      dup11\n      dup11\n        /* \"contracts/Vault.sol\":4635:4642  owner() */\n      tag_101\n        /* \"contracts/Vault.sol\":4635:4640  owner */\n      tag_33\n        /* \"contracts/Vault.sol\":4635:4642  owner() */\n      jump\t// in\n    tag_101:\n        /* \"contracts/Vault.sol\":4483:4652  Withdrawn(... */\n      mload(0x40)\n      tag_102\n      swap11\n      swap10\n      swap9\n      swap8\n      swap7\n      swap6\n      swap5\n      swap4\n      swap3\n      swap2\n      swap1\n      tag_103\n      jump\t// in\n    tag_102:\n      mload(0x40)\n      dup1\n      swap2\n      sub\n      swap1\n      log1\n        /* \"contracts/Vault.sol\":4740:4747  owner() */\n      tag_104\n        /* \"contracts/Vault.sol\":4740:4745  owner */\n      tag_33\n        /* \"contracts/Vault.sol\":4740:4747  owner() */\n      jump\t// in\n    tag_104:\n        /* \"contracts/Vault.sol\":4719:4749  selfdestruct(payable(owner())) */\n      0xffffffffffffffffffffffffffffffffffffffff\n      and\n      selfdestruct\n        /* \"https://github.com/OpenZeppelin/openzeppelin-contracts/blob/master/contracts/access/Ownable.sol\":2293:2394  function renounceOwnership() public virtual onlyOwner {... */\n    tag_30:\n        /* \"https://github.com/OpenZeppelin/openzeppelin-contracts/blob/master/contracts/access/Ownable.sol\":1531:1544  _checkOwner() */\n      tag_106\n        /* \"https://github.com/OpenZeppelin/openzeppelin-contracts/blob/master/contracts/access/Ownable.sol\":1531:1542  _checkOwner */\n      tag_55\n        /* \"https://github.com/OpenZeppelin/openzeppelin-contracts/blob/master/contracts/access/Ownable.sol\":1531:1544  _checkOwner() */\n      jump\t// in\n    tag_106:\n        /* \"https://github.com/OpenZeppelin/openzeppelin-contracts/blob/master/contracts/access/Ownable.sol\":2357:2387  _transferOwnership(address(0)) */\n      tag_108\n        /* \"https://github.com/OpenZeppelin/openzeppelin-contracts/blob/master/contracts/access/Ownable.sol\":2384:2385  0 */\n      0x00\n        /* \"https://github.com/OpenZeppelin/openzeppelin-contracts/blob/master/contracts/access/Ownable.sol\":2357:2375  _transferOwnership */\n      tag_109\n        /* \"https://github.com/OpenZeppelin/openzeppelin-contracts/blob/master/contracts/access/Ownable.sol\":2357:2387  _transferOwnership(address(0)) */\n      jump\t// in\n    tag_108:\n        /* \"https://github.com/OpenZeppelin/openzeppelin-contracts/blob/master/contracts/access/Ownable.sol\":2293:2394  function renounceOwnership() public virtual onlyOwner {... */\n      jump\t// out\n        /* \"https://github.com/OpenZeppelin/openzeppelin-contracts/blob/master/contracts/access/Ownable.sol\":1638:1723  function owner() public view virtual returns (address) {... */\n    tag_33:\n        /* \"https://github.com/OpenZeppelin/openzeppelin-contracts/blob/master/contracts/access/Ownable.sol\":1684:1691  address */\n      0x00\n        /* \"https://github.com/OpenZeppelin/openzeppelin-contracts/blob/master/contracts/access/Ownable.sol\":1710:1716  _owner */\n      dup1\n      0x00\n      swap1\n      sload\n      swap1\n      0x0100\n      exp\n      swap1\n      div\n      0xffffffffffffffffffffffffffffffffffffffff\n      and\n        /* \"https://github.com/OpenZeppelin/openzeppelin-contracts/blob/master/contracts/access/Ownable.sol\":1703:1716  return _owner */\n      swap1\n      pop\n        /* \"https://github.com/OpenZeppelin/openzeppelin-contracts/blob/master/contracts/access/Ownable.sol\":1638:1723  function owner() public view virtual returns (address) {... */\n      swap1\n      jump\t// out\n        /* \"contracts/Vault.sol\":2288:2547  function depositERC20(address token, uint amount) external {... */\n    tag_40:\n        /* \"contracts/Vault.sol\":2374:2375  0 */\n      0x00\n        /* \"contracts/Vault.sol\":2365:2371  amount */\n      dup2\n        /* \"contracts/Vault.sol\":2365:2375  amount > 0 */\n      gt\n        /* \"contracts/Vault.sol\":2357:2413  require(amount > 0, unicode\"转账数量必须大于 0\") */\n      tag_112\n      jumpi\n      mload(0x40)\n      0x08c379a000000000000000000000000000000000000000000000000000000000\n      dup2\n      mstore\n      0x04\n      add\n      tag_113\n      swap1\n      tag_114\n      jump\t// in\n    tag_113:\n      mload(0x40)\n      dup1\n      swap2\n      sub\n      swap1\n      revert\n    tag_112:\n        /* \"contracts/Vault.sol\":2430:2435  token */\n      dup2\n        /* \"contracts/Vault.sol\":2423:2449  IERC20(token).transferFrom */\n      0xffffffffffffffffffffffffffffffffffffffff\n      and\n      0x23b872dd\n        /* \"contracts/Vault.sol\":2450:2460  msg.sender */\n      caller\n        /* \"contracts/Vault.sol\":2470:2474  this */\n      address\n        /* \"contracts/Vault.sol\":2477:2483  amount */\n      dup5\n        /* \"contracts/Vault.sol\":2423:2484  IERC20(token).transferFrom(msg.sender, address(this), amount) */\n      mload(0x40)\n      dup5\n      0xffffffff\n      and\n      0xe0\n      shl\n      dup2\n      mstore\n      0x04\n      add\n      tag_115\n      swap4\n      swap3\n      swap2\n      swap1\n      tag_97\n      jump\t// in\n    tag_115:\n      0x20\n      mload(0x40)\n      dup1\n      dup4\n      sub\n      dup2\n      0x00\n      dup8\n      gas\n      call\n      iszero\n      dup1\n      iszero\n      tag_117\n      jumpi\n      returndatasize\n      0x00\n      dup1\n      returndatacopy\n      revert(0x00, returndatasize)\n    tag_117:\n      pop\n      pop\n      pop\n      pop\n      mload(0x40)\n      returndatasize\n      not(0x1f)\n      0x1f\n      dup3\n      add\n      and\n      dup3\n      add\n      dup1\n      0x40\n      mstore\n      pop\n      dup2\n      add\n      swap1\n      tag_118\n      swap2\n      swap1\n      tag_80\n      jump\t// in\n    tag_118:\n      pop\n        /* \"contracts/Vault.sol\":2526:2531  token */\n      dup2\n        /* \"contracts/Vault.sol\":2499:2540  ERC20Deposited(msg.sender, token, amount) */\n      0xffffffffffffffffffffffffffffffffffffffff\n      and\n        /* \"contracts/Vault.sol\":2514:2524  msg.sender */\n      caller\n        /* \"contracts/Vault.sol\":2499:2540  ERC20Deposited(msg.sender, token, amount) */\n      0xffffffffffffffffffffffffffffffffffffffff\n      and\n      0xe33e9822e3317b004d587136bab2627ea1ecfbba4eb79abddd0a56cfdd09c0e1\n        /* \"contracts/Vault.sol\":2533:2539  amount */\n      dup4\n        /* \"contracts/Vault.sol\":2499:2540  ERC20Deposited(msg.sender, token, amount) */\n      mload(0x40)\n      tag_119\n      swap2\n      swap1\n      tag_15\n      jump\t// in\n    tag_119:\n      mload(0x40)\n      dup1\n      swap2\n      sub\n      swap1\n      log3\n        /* \"contracts/Vault.sol\":2288:2547  function depositERC20(address token, uint amount) external {... */\n      pop\n      pop\n      jump\t// out\n        /* \"contracts/Vault.sol\":2701:2904  function depositERC721(address token, uint tokenId) external {... */\n    tag_44:\n        /* \"contracts/Vault.sol\":2780:2785  token */\n      dup2\n        /* \"contracts/Vault.sol\":2772:2803  IERC721(token).safeTransferFrom */\n      0xffffffffffffffffffffffffffffffffffffffff\n      and\n      0x42842e0e\n        /* \"contracts/Vault.sol\":2804:2814  msg.sender */\n      caller\n        /* \"contracts/Vault.sol\":2824:2828  this */\n      address\n        /* \"contracts/Vault.sol\":2831:2838  tokenId */\n      dup5\n        /* \"contracts/Vault.sol\":2772:2839  IERC721(token).safeTransferFrom(msg.sender, address(this), tokenId) */\n      mload(0x40)\n      dup5\n      0xffffffff\n      and\n      0xe0\n      shl\n      dup2\n      mstore\n      0x04\n      add\n      tag_121\n      swap4\n      swap3\n      swap2\n      swap1\n      tag_97\n      jump\t// in\n    tag_121:\n      0x00\n      mload(0x40)\n      dup1\n      dup4\n      sub\n      dup2\n      0x00\n      dup8\n      dup1\n      extcodesize\n      iszero\n      dup1\n      iszero\n      tag_122\n      jumpi\n      0x00\n      dup1\n      revert\n    tag_122:\n      pop\n      gas\n      call\n      iszero\n      dup1\n      iszero\n      tag_124\n      jumpi\n      returndatasize\n      0x00\n      dup1\n      returndatacopy\n      revert(0x00, returndatasize)\n    tag_124:\n      pop\n      pop\n      pop\n      pop\n        /* \"contracts/Vault.sol\":2882:2887  token */\n      dup2\n        /* \"contracts/Vault.sol\":2854:2897  ERC721Deposited(msg.sender, token, tokenId) */\n      0xffffffffffffffffffffffffffffffffffffffff\n      and\n        /* \"contracts/Vault.sol\":2870:2880  msg.sender */\n      caller\n        /* \"contracts/Vault.sol\":2854:2897  ERC721Deposited(msg.sender, token, tokenId) */\n      0xffffffffffffffffffffffffffffffffffffffff\n      and\n      0x20d9d42fbcdd65fce5c3986b701b04ffb8e09852d04a93422dd4be124ae10a8e\n        /* \"contracts/Vault.sol\":2889:2896  tokenId */\n      dup4\n        /* \"contracts/Vault.sol\":2854:2897  ERC721Deposited(msg.sender, token, tokenId) */\n      mload(0x40)\n      tag_125\n      swap2\n      swap1\n      tag_15\n      jump\t// in\n    tag_125:\n      mload(0x40)\n      dup1\n      swap2\n      sub\n      swap1\n      log3\n        /* \"contracts/Vault.sol\":2701:2904  function depositERC721(address token, uint tokenId) external {... */\n      pop\n      pop\n      jump\t// out\n        /* \"https://github.com/OpenZeppelin/openzeppelin-contracts/blob/master/contracts/access/Ownable.sol\":2543:2758  function transferOwnership(address newOwner) public virtual onlyOwner {... */\n    tag_49:\n        /* \"https://github.com/OpenZeppelin/openzeppelin-contracts/blob/master/contracts/access/Ownable.sol\":1531:1544  _checkOwner() */\n      tag_127\n        /* \"https://github.com/OpenZeppelin/openzeppelin-contracts/blob/master/contracts/access/Ownable.sol\":1531:1542  _checkOwner */\n      tag_55\n        /* \"https://github.com/OpenZeppelin/openzeppelin-contracts/blob/master/contracts/access/Ownable.sol\":1531:1544  _checkOwner() */\n      jump\t// in\n    tag_127:\n        /* \"https://github.com/OpenZeppelin/openzeppelin-contracts/blob/master/contracts/access/Ownable.sol\":2647:2648  0 */\n      0x00\n        /* \"https://github.com/OpenZeppelin/openzeppelin-contracts/blob/master/contracts/access/Ownable.sol\":2627:2649  newOwner == address(0) */\n      0xffffffffffffffffffffffffffffffffffffffff\n      and\n        /* \"https://github.com/OpenZeppelin/openzeppelin-contracts/blob/master/contracts/access/Ownable.sol\":2627:2635  newOwner */\n      dup2\n        /* \"https://github.com/OpenZeppelin/openzeppelin-contracts/blob/master/contracts/access/Ownable.sol\":2627:2649  newOwner == address(0) */\n      0xffffffffffffffffffffffffffffffffffffffff\n      and\n      sub\n        /* \"https://github.com/OpenZeppelin/openzeppelin-contracts/blob/master/contracts/access/Ownable.sol\":2623:2714  if (newOwner == address(0)) {... */\n      tag_129\n      jumpi\n        /* \"https://github.com/OpenZeppelin/openzeppelin-contracts/blob/master/contracts/access/Ownable.sol\":2700:2701  0 */\n      0x00\n        /* \"https://github.com/OpenZeppelin/openzeppelin-contracts/blob/master/contracts/access/Ownable.sol\":2672:2703  OwnableInvalidOwner(address(0)) */\n      mload(0x40)\n      0x1e4fbdf700000000000000000000000000000000000000000000000000000000\n      dup2\n      mstore\n      0x04\n      add\n      tag_130\n      swap2\n      swap1\n      tag_35\n      jump\t// in\n    tag_130:\n      mload(0x40)\n      dup1\n      swap2\n      sub\n      swap1\n      revert\n        /* \"https://github.com/OpenZeppelin/openzeppelin-contracts/blob/master/contracts/access/Ownable.sol\":2623:2714  if (newOwner == address(0)) {... */\n    tag_129:\n        /* \"https://github.com/OpenZeppelin/openzeppelin-contracts/blob/master/contracts/access/Ownable.sol\":2723:2751  _transferOwnership(newOwner) */\n      tag_131\n        /* \"https://github.com/OpenZeppelin/openzeppelin-contracts/blob/master/contracts/access/Ownable.sol\":2742:2750  newOwner */\n      dup2\n        /* \"https://github.com/OpenZeppelin/openzeppelin-contracts/blob/master/contracts/access/Ownable.sol\":2723:2741  _transferOwnership */\n      tag_109\n        /* \"https://github.com/OpenZeppelin/openzeppelin-contracts/blob/master/contracts/access/Ownable.sol\":2723:2751  _transferOwnership(newOwner) */\n      jump\t// in\n    tag_131:\n        /* \"https://github.com/OpenZeppelin/openzeppelin-contracts/blob/master/contracts/access/Ownable.sol\":2543:2758  function transferOwnership(address newOwner) public virtual onlyOwner {... */\n      pop\n      jump\t// out\n        /* \"contracts/Vault.sol\":1982:2134  function depositETH() external payable {... */\n    tag_51:\n        /* \"contracts/Vault.sol\":2051:2052  0 */\n      0x00\n        /* \"contracts/Vault.sol\":2039:2048  msg.value */\n      callvalue\n        /* \"contracts/Vault.sol\":2039:2052  msg.value > 0 */\n      gt\n        /* \"contracts/Vault.sol\":2031:2080  require(msg.value > 0, unicode\"必须发送 ETH\") */\n      tag_133\n      jumpi\n      mload(0x40)\n      0x08c379a000000000000000000000000000000000000000000000000000000000\n      dup2\n      mstore\n      0x04\n      add\n      tag_134\n      swap1\n      tag_135\n      jump\t// in\n    tag_134:\n      mload(0x40)\n      dup1\n      swap2\n      sub\n      swap1\n      revert\n    tag_133:\n        /* \"contracts/Vault.sol\":2105:2115  msg.sender */\n      caller\n        /* \"contracts/Vault.sol\":2095:2127  Deposited(msg.sender, msg.value) */\n      0xffffffffffffffffffffffffffffffffffffffff\n      and\n      0x2da466a7b24304f47e87fa2e1e5a81b9831ce54fec19055ce277ca2f39ba42c4\n        /* \"contracts/Vault.sol\":2117:2126  msg.value */\n      callvalue\n        /* \"contracts/Vault.sol\":2095:2127  Deposited(msg.sender, msg.value) */\n      mload(0x40)\n      tag_136\n      swap2\n      swap1\n      tag_15\n      jump\t// in\n    tag_136:\n      mload(0x40)\n      dup1\n      swap2\n      sub\n      swap1\n      log2\n        /* \"contracts/Vault.sol\":1982:2134  function depositETH() external payable {... */\n      jump\t// out\n        /* \"https://github.com/OpenZeppelin/openzeppelin-contracts/blob/master/contracts/access/Ownable.sol\":1796:1958  function _checkOwner() internal view virtual {... */\n    tag_55:\n        /* \"https://github.com/OpenZeppelin/openzeppelin-contracts/blob/master/contracts/access/Ownable.sol\":1866:1878  _msgSender() */\n      tag_138\n        /* \"https://github.com/OpenZeppelin/openzeppelin-contracts/blob/master/contracts/access/Ownable.sol\":1866:1876  _msgSender */\n      tag_139\n        /* \"https://github.com/OpenZeppelin/openzeppelin-contracts/blob/master/contracts/access/Ownable.sol\":1866:1878  _msgSender() */\n      jump\t// in\n    tag_138:\n        /* \"https://github.com/OpenZeppelin/openzeppelin-contracts/blob/master/contracts/access/Ownable.sol\":1855:1878  owner() != _msgSender() */\n      0xffffffffffffffffffffffffffffffffffffffff\n      and\n        /* \"https://github.com/OpenZeppelin/openzeppelin-contracts/blob/master/contracts/access/Ownable.sol\":1855:1862  owner() */\n      tag_140\n        /* \"https://github.com/OpenZeppelin/openzeppelin-contracts/blob/master/contracts/access/Ownable.sol\":1855:1860  owner */\n      tag_33\n        /* \"https://github.com/OpenZeppelin/openzeppelin-contracts/blob/master/contracts/access/Ownable.sol\":1855:1862  owner() */\n      jump\t// in\n    tag_140:\n        /* \"https://github.com/OpenZeppelin/openzeppelin-contracts/blob/master/contracts/access/Ownable.sol\":1855:1878  owner() != _msgSender() */\n      0xffffffffffffffffffffffffffffffffffffffff\n      and\n      eq\n        /* \"https://github.com/OpenZeppelin/openzeppelin-contracts/blob/master/contracts/access/Ownable.sol\":1851:1952  if (owner() != _msgSender()) {... */\n      tag_141\n      jumpi\n        /* \"https://github.com/OpenZeppelin/openzeppelin-contracts/blob/master/contracts/access/Ownable.sol\":1928:1940  _msgSender() */\n      tag_142\n        /* \"https://github.com/OpenZeppelin/openzeppelin-contracts/blob/master/contracts/access/Ownable.sol\":1928:1938  _msgSender */\n      tag_139\n        /* \"https://github.com/OpenZeppelin/openzeppelin-contracts/blob/master/contracts/access/Ownable.sol\":1928:1940  _msgSender() */\n      jump\t// in\n    tag_142:\n        /* \"https://github.com/OpenZeppelin/openzeppelin-contracts/blob/master/contracts/access/Ownable.sol\":1901:1941  OwnableUnauthorizedAccount(_msgSender()) */\n      mload(0x40)\n      0x118cdaa700000000000000000000000000000000000000000000000000000000\n      dup2\n      mstore\n      0x04\n      add\n      tag_143\n      swap2\n      swap1\n      tag_35\n      jump\t// in\n    tag_143:\n      mload(0x40)\n      dup1\n      swap2\n      sub\n      swap1\n      revert\n        /* \"https://github.com/OpenZeppelin/openzeppelin-contracts/blob/master/contracts/access/Ownable.sol\":1851:1952  if (owner() != _msgSender()) {... */\n    tag_141:\n        /* \"https://github.com/OpenZeppelin/openzeppelin-contracts/blob/master/contracts/access/Ownable.sol\":1796:1958  function _checkOwner() internal view virtual {... */\n      jump\t// out\n        /* \"https://github.com/OpenZeppelin/openzeppelin-contracts/blob/master/contracts/access/Ownable.sol\":2912:3099  function _transferOwnership(address newOwner) internal virtual {... */\n    tag_109:\n        /* \"https://github.com/OpenZeppelin/openzeppelin-contracts/blob/master/contracts/access/Ownable.sol\":2985:3001  address oldOwner */\n      0x00\n        /* \"https://github.com/OpenZeppelin/openzeppelin-contracts/blob/master/contracts/access/Ownable.sol\":3004:3010  _owner */\n      dup1\n      0x00\n      swap1\n      sload\n      swap1\n      0x0100\n      exp\n      swap1\n      div\n      0xffffffffffffffffffffffffffffffffffffffff\n      and\n        /* \"https://github.com/OpenZeppelin/openzeppelin-contracts/blob/master/contracts/access/Ownable.sol\":2985:3010  address oldOwner = _owner */\n      swap1\n      pop\n        /* \"https://github.com/OpenZeppelin/openzeppelin-contracts/blob/master/contracts/access/Ownable.sol\":3029:3037  newOwner */\n      dup2\n        /* \"https://github.com/OpenZeppelin/openzeppelin-contracts/blob/master/contracts/access/Ownable.sol\":3020:3026  _owner */\n      0x00\n      dup1\n        /* \"https://github.com/OpenZeppelin/openzeppelin-contracts/blob/master/contracts/access/Ownable.sol\":3020:3037  _owner = newOwner */\n      0x0100\n      exp\n      dup2\n      sload\n      dup2\n      0xffffffffffffffffffffffffffffffffffffffff\n      mul\n      not\n      and\n      swap1\n      dup4\n      0xffffffffffffffffffffffffffffffffffffffff\n      and\n      mul\n      or\n      swap1\n      sstore\n      pop\n        /* \"https://github.com/OpenZeppelin/openzeppelin-contracts/blob/master/contracts/access/Ownable.sol\":3083:3091  newOwner */\n      dup2\n        /* \"https://github.com/OpenZeppelin/openzeppelin-contracts/blob/master/contracts/access/Ownable.sol\":3052:3092  OwnershipTransferred(oldOwner, newOwner) */\n      0xffffffffffffffffffffffffffffffffffffffff\n      and\n        /* \"https://github.com/OpenZeppelin/openzeppelin-contracts/blob/master/contracts/access/Ownable.sol\":3073:3081  oldOwner */\n      dup2\n        /* \"https://github.com/OpenZeppelin/openzeppelin-contracts/blob/master/contracts/access/Ownable.sol\":3052:3092  OwnershipTransferred(oldOwner, newOwner) */\n      0xffffffffffffffffffffffffffffffffffffffff\n      and\n      0x8be0079c531659141344cd1fd0a4f28419497f9722a3daafe3b4186f6b6457e0\n      mload(0x40)\n      mload(0x40)\n      dup1\n      swap2\n      sub\n      swap1\n      log3\n        /* \"https://github.com/OpenZeppelin/openzeppelin-contracts/blob/master/contracts/access/Ownable.sol\":2975:3099  {... */\n      pop\n        /* \"https://github.com/OpenZeppelin/openzeppelin-contracts/blob/master/contracts/access/Ownable.sol\":2912:3099  function _transferOwnership(address newOwner) internal virtual {... */\n      pop\n      jump\t// out\n        /* \"https://github.com/OpenZeppelin/openzeppelin-contracts/blob/master/contracts/utils/Context.sol\":656:752  function _msgSender() internal view virtual returns (address) {... */\n    tag_139:\n        /* \"https://github.com/OpenZeppelin/openzeppelin-contracts/blob/master/contracts/utils/Context.sol\":709:716  address */\n      0x00\n        /* \"https://github.com/OpenZeppelin/openzeppelin-contracts/blob/master/contracts/utils/Context.sol\":735:745  msg.sender */\n      caller\n        /* \"https://github.com/OpenZeppelin/openzeppelin-contracts/blob/master/contracts/utils/Context.sol\":728:745  return msg.sender */\n      swap1\n      pop\n        /* \"https://github.com/OpenZeppelin/openzeppelin-contracts/blob/master/contracts/utils/Context.sol\":656:752  function _msgSender() internal view virtual returns (address) {... */\n      swap1\n      jump\t// out\n        /* \"#utility.yul\":7:84   */\n    tag_146:\n        /* \"#utility.yul\":44:51   */\n      0x00\n        /* \"#utility.yul\":73:78   */\n      dup2\n        /* \"#utility.yul\":62:78   */\n      swap1\n      pop\n        /* \"#utility.yul\":7:84   */\n      swap2\n      swap1\n      pop\n      jump\t// out\n        /* \"#utility.yul\":90:208   */\n    tag_147:\n        /* \"#utility.yul\":177:201   */\n      tag_194\n        /* \"#utility.yul\":195:200   */\n      dup2\n        /* \"#utility.yul\":177:201   */\n      tag_146\n      jump\t// in\n    tag_194:\n        /* \"#utility.yul\":172:175   */\n      dup3\n        /* \"#utility.yul\":165:202   */\n      mstore\n        /* \"#utility.yul\":90:208   */\n      pop\n      pop\n      jump\t// out\n        /* \"#utility.yul\":214:436   */\n    tag_15:\n        /* \"#utility.yul\":307:311   */\n      0x00\n        /* \"#utility.yul\":345:347   */\n      0x20\n        /* \"#utility.yul\":334:343   */\n      dup3\n        /* \"#utility.yul\":330:348   */\n      add\n        /* \"#utility.yul\":322:348   */\n      swap1\n      pop\n        /* \"#utility.yul\":358:429   */\n      tag_196\n        /* \"#utility.yul\":426:427   */\n      0x00\n        /* \"#utility.yul\":415:424   */\n      dup4\n        /* \"#utility.yul\":411:428   */\n      add\n        /* \"#utility.yul\":402:408   */\n      dup5\n        /* \"#utility.yul\":358:429   */\n      tag_147\n      jump\t// in\n    tag_196:\n        /* \"#utility.yul\":214:436   */\n      swap3\n      swap2\n      pop\n      pop\n      jump\t// out\n        /* \"#utility.yul\":523:640   */\n    tag_149:\n        /* \"#utility.yul\":632:633   */\n      0x00\n        /* \"#utility.yul\":629:630   */\n      dup1\n        /* \"#utility.yul\":622:634   */\n      revert\n        /* \"#utility.yul\":646:763   */\n    tag_150:\n        /* \"#utility.yul\":755:756   */\n      0x00\n        /* \"#utility.yul\":752:753   */\n      dup1\n        /* \"#utility.yul\":745:757   */\n      revert\n        /* \"#utility.yul\":769:895   */\n    tag_151:\n        /* \"#utility.yul\":806:813   */\n      0x00\n        /* \"#utility.yul\":846:888   */\n      0xffffffffffffffffffffffffffffffffffffffff\n        /* \"#utility.yul\":839:844   */\n      dup3\n        /* \"#utility.yul\":835:889   */\n      and\n        /* \"#utility.yul\":824:889   */\n      swap1\n      pop\n        /* \"#utility.yul\":769:895   */\n      swap2\n      swap1\n      pop\n      jump\t// out\n        /* \"#utility.yul\":901:997   */\n    tag_152:\n        /* \"#utility.yul\":938:945   */\n      0x00\n        /* \"#utility.yul\":967:991   */\n      tag_202\n        /* \"#utility.yul\":985:990   */\n      dup3\n        /* \"#utility.yul\":967:991   */\n      tag_151\n      jump\t// in\n    tag_202:\n        /* \"#utility.yul\":956:991   */\n      swap1\n      pop\n        /* \"#utility.yul\":901:997   */\n      swap2\n      swap1\n      pop\n      jump\t// out\n        /* \"#utility.yul\":1003:1125   */\n    tag_153:\n        /* \"#utility.yul\":1076:1100   */\n      tag_204\n        /* \"#utility.yul\":1094:1099   */\n      dup2\n        /* \"#utility.yul\":1076:1100   */\n      tag_152\n      jump\t// in\n    tag_204:\n        /* \"#utility.yul\":1069:1074   */\n      dup2\n        /* \"#utility.yul\":1066:1101   */\n      eq\n        /* \"#utility.yul\":1056:1119   */\n      tag_205\n      jumpi\n        /* \"#utility.yul\":1115:1116   */\n      0x00\n        /* \"#utility.yul\":1112:1113   */\n      dup1\n        /* \"#utility.yul\":1105:1117   */\n      revert\n        /* \"#utility.yul\":1056:1119   */\n    tag_205:\n        /* \"#utility.yul\":1003:1125   */\n      pop\n      jump\t// out\n        /* \"#utility.yul\":1131:1270   */\n    tag_154:\n        /* \"#utility.yul\":1177:1182   */\n      0x00\n        /* \"#utility.yul\":1215:1221   */\n      dup2\n        /* \"#utility.yul\":1202:1222   */\n      calldataload\n        /* \"#utility.yul\":1193:1222   */\n      swap1\n      pop\n        /* \"#utility.yul\":1231:1264   */\n      tag_207\n        /* \"#utility.yul\":1258:1263   */\n      dup2\n        /* \"#utility.yul\":1231:1264   */\n      tag_153\n      jump\t// in\n    tag_207:\n        /* \"#utility.yul\":1131:1270   */\n      swap3\n      swap2\n      pop\n      pop\n      jump\t// out\n        /* \"#utility.yul\":1276:1398   */\n    tag_155:\n        /* \"#utility.yul\":1349:1373   */\n      tag_209\n        /* \"#utility.yul\":1367:1372   */\n      dup2\n        /* \"#utility.yul\":1349:1373   */\n      tag_146\n      jump\t// in\n    tag_209:\n        /* \"#utility.yul\":1342:1347   */\n      dup2\n        /* \"#utility.yul\":1339:1374   */\n      eq\n        /* \"#utility.yul\":1329:1392   */\n      tag_210\n      jumpi\n        /* \"#utility.yul\":1388:1389   */\n      0x00\n        /* \"#utility.yul\":1385:1386   */\n      dup1\n        /* \"#utility.yul\":1378:1390   */\n      revert\n        /* \"#utility.yul\":1329:1392   */\n    tag_210:\n        /* \"#utility.yul\":1276:1398   */\n      pop\n      jump\t// out\n        /* \"#utility.yul\":1404:1543   */\n    tag_156:\n        /* \"#utility.yul\":1450:1455   */\n      0x00\n        /* \"#utility.yul\":1488:1494   */\n      dup2\n        /* \"#utility.yul\":1475:1495   */\n      calldataload\n        /* \"#utility.yul\":1466:1495   */\n      swap1\n      pop\n        /* \"#utility.yul\":1504:1537   */\n      tag_212\n        /* \"#utility.yul\":1531:1536   */\n      dup2\n        /* \"#utility.yul\":1504:1537   */\n      tag_155\n      jump\t// in\n    tag_212:\n        /* \"#utility.yul\":1404:1543   */\n      swap3\n      swap2\n      pop\n      pop\n      jump\t// out\n        /* \"#utility.yul\":1549:1666   */\n    tag_157:\n        /* \"#utility.yul\":1658:1659   */\n      0x00\n        /* \"#utility.yul\":1655:1656   */\n      dup1\n        /* \"#utility.yul\":1648:1660   */\n      revert\n        /* \"#utility.yul\":1672:1789   */\n    tag_158:\n        /* \"#utility.yul\":1781:1782   */\n      0x00\n        /* \"#utility.yul\":1778:1779   */\n      dup1\n        /* \"#utility.yul\":1771:1783   */\n      revert\n        /* \"#utility.yul\":1795:1912   */\n    tag_159:\n        /* \"#utility.yul\":1904:1905   */\n      0x00\n        /* \"#utility.yul\":1901:1902   */\n      dup1\n        /* \"#utility.yul\":1894:1906   */\n      revert\n        /* \"#utility.yul\":1931:2483   */\n    tag_160:\n        /* \"#utility.yul\":1988:1996   */\n      0x00\n        /* \"#utility.yul\":1998:2004   */\n      dup1\n        /* \"#utility.yul\":2048:2051   */\n      dup4\n        /* \"#utility.yul\":2041:2045   */\n      0x1f\n        /* \"#utility.yul\":2033:2039   */\n      dup5\n        /* \"#utility.yul\":2029:2046   */\n      add\n        /* \"#utility.yul\":2025:2052   */\n      slt\n        /* \"#utility.yul\":2015:2137   */\n      tag_217\n      jumpi\n        /* \"#utility.yul\":2056:2135   */\n      tag_218\n      tag_157\n      jump\t// in\n    tag_218:\n        /* \"#utility.yul\":2015:2137   */\n    tag_217:\n        /* \"#utility.yul\":2169:2175   */\n      dup3\n        /* \"#utility.yul\":2156:2176   */\n      calldataload\n        /* \"#utility.yul\":2146:2176   */\n      swap1\n      pop\n        /* \"#utility.yul\":2199:2217   */\n      0xffffffffffffffff\n        /* \"#utility.yul\":2191:2197   */\n      dup2\n        /* \"#utility.yul\":2188:2218   */\n      gt\n        /* \"#utility.yul\":2185:2302   */\n      iszero\n      tag_219\n      jumpi\n        /* \"#utility.yul\":2221:2300   */\n      tag_220\n      tag_158\n      jump\t// in\n    tag_220:\n        /* \"#utility.yul\":2185:2302   */\n    tag_219:\n        /* \"#utility.yul\":2335:2339   */\n      0x20\n        /* \"#utility.yul\":2327:2333   */\n      dup4\n        /* \"#utility.yul\":2323:2340   */\n      add\n        /* \"#utility.yul\":2311:2340   */\n      swap2\n      pop\n        /* \"#utility.yul\":2389:2392   */\n      dup4\n        /* \"#utility.yul\":2381:2385   */\n      0x01\n        /* \"#utility.yul\":2373:2379   */\n      dup3\n        /* \"#utility.yul\":2369:2386   */\n      mul\n        /* \"#utility.yul\":2359:2367   */\n      dup4\n        /* \"#utility.yul\":2355:2387   */\n      add\n        /* \"#utility.yul\":2352:2393   */\n      gt\n        /* \"#utility.yul\":2349:2477   */\n      iszero\n      tag_221\n      jumpi\n        /* \"#utility.yul\":2396:2475   */\n      tag_222\n      tag_159\n      jump\t// in\n    tag_222:\n        /* \"#utility.yul\":2349:2477   */\n    tag_221:\n        /* \"#utility.yul\":1931:2483   */\n      swap3\n      pop\n      swap3\n      swap1\n      pop\n      jump\t// out\n        /* \"#utility.yul\":2489:3452   */\n    tag_19:\n        /* \"#utility.yul\":2586:2592   */\n      0x00\n        /* \"#utility.yul\":2594:2600   */\n      dup1\n        /* \"#utility.yul\":2602:2608   */\n      0x00\n        /* \"#utility.yul\":2610:2616   */\n      dup1\n        /* \"#utility.yul\":2618:2624   */\n      0x00\n        /* \"#utility.yul\":2667:2670   */\n      0x80\n        /* \"#utility.yul\":2655:2664   */\n      dup7\n        /* \"#utility.yul\":2646:2653   */\n      dup9\n        /* \"#utility.yul\":2642:2665   */\n      sub\n        /* \"#utility.yul\":2638:2671   */\n      slt\n        /* \"#utility.yul\":2635:2755   */\n      iszero\n      tag_224\n      jumpi\n        /* \"#utility.yul\":2674:2753   */\n      tag_225\n      tag_149\n      jump\t// in\n    tag_225:\n        /* \"#utility.yul\":2635:2755   */\n    tag_224:\n        /* \"#utility.yul\":2794:2795   */\n      0x00\n        /* \"#utility.yul\":2819:2872   */\n      tag_226\n        /* \"#utility.yul\":2864:2871   */\n      dup9\n        /* \"#utility.yul\":2855:2861   */\n      dup3\n        /* \"#utility.yul\":2844:2853   */\n      dup10\n        /* \"#utility.yul\":2840:2862   */\n      add\n        /* \"#utility.yul\":2819:2872   */\n      tag_154\n      jump\t// in\n    tag_226:\n        /* \"#utility.yul\":2809:2872   */\n      swap6\n      pop\n        /* \"#utility.yul\":2765:2882   */\n      pop\n        /* \"#utility.yul\":2921:2923   */\n      0x20\n        /* \"#utility.yul\":2947:3000   */\n      tag_227\n        /* \"#utility.yul\":2992:2999   */\n      dup9\n        /* \"#utility.yul\":2983:2989   */\n      dup3\n        /* \"#utility.yul\":2972:2981   */\n      dup10\n        /* \"#utility.yul\":2968:2990   */\n      add\n        /* \"#utility.yul\":2947:3000   */\n      tag_154\n      jump\t// in\n    tag_227:\n        /* \"#utility.yul\":2937:3000   */\n      swap5\n      pop\n        /* \"#utility.yul\":2892:3010   */\n      pop\n        /* \"#utility.yul\":3049:3051   */\n      0x40\n        /* \"#utility.yul\":3075:3128   */\n      tag_228\n        /* \"#utility.yul\":3120:3127   */\n      dup9\n        /* \"#utility.yul\":3111:3117   */\n      dup3\n        /* \"#utility.yul\":3100:3109   */\n      dup10\n        /* \"#utility.yul\":3096:3118   */\n      add\n        /* \"#utility.yul\":3075:3128   */\n      tag_156\n      jump\t// in\n    tag_228:\n        /* \"#utility.yul\":3065:3128   */\n      swap4\n      pop\n        /* \"#utility.yul\":3020:3138   */\n      pop\n        /* \"#utility.yul\":3205:3207   */\n      0x60\n        /* \"#utility.yul\":3194:3203   */\n      dup7\n        /* \"#utility.yul\":3190:3208   */\n      add\n        /* \"#utility.yul\":3177:3209   */\n      calldataload\n        /* \"#utility.yul\":3236:3254   */\n      0xffffffffffffffff\n        /* \"#utility.yul\":3228:3234   */\n      dup2\n        /* \"#utility.yul\":3225:3255   */\n      gt\n        /* \"#utility.yul\":3222:3339   */\n      iszero\n      tag_229\n      jumpi\n        /* \"#utility.yul\":3258:3337   */\n      tag_230\n      tag_150\n      jump\t// in\n    tag_230:\n        /* \"#utility.yul\":3222:3339   */\n    tag_229:\n        /* \"#utility.yul\":3371:3435   */\n      tag_231\n        /* \"#utility.yul\":3427:3434   */\n      dup9\n        /* \"#utility.yul\":3418:3424   */\n      dup3\n        /* \"#utility.yul\":3407:3416   */\n      dup10\n        /* \"#utility.yul\":3403:3425   */\n      add\n        /* \"#utility.yul\":3371:3435   */\n      tag_160\n      jump\t// in\n    tag_231:\n        /* \"#utility.yul\":3353:3435   */\n      swap3\n      pop\n      swap3\n      pop\n        /* \"#utility.yul\":3148:3445   */\n      pop\n        /* \"#utility.yul\":2489:3452   */\n      swap3\n      swap6\n      pop\n      swap3\n      swap6\n      swap1\n      swap4\n      pop\n      jump\t// out\n        /* \"#utility.yul\":3458:3607   */\n    tag_161:\n        /* \"#utility.yul\":3494:3501   */\n      0x00\n        /* \"#utility.yul\":3534:3600   */\n      0xffffffff00000000000000000000000000000000000000000000000000000000\n        /* \"#utility.yul\":3527:3532   */\n      dup3\n        /* \"#utility.yul\":3523:3601   */\n      and\n        /* \"#utility.yul\":3512:3601   */\n      swap1\n      pop\n        /* \"#utility.yul\":3458:3607   */\n      swap2\n      swap1\n      pop\n      jump\t// out\n        /* \"#utility.yul\":3613:3728   */\n    tag_162:\n        /* \"#utility.yul\":3698:3721   */\n      tag_234\n        /* \"#utility.yul\":3715:3720   */\n      dup2\n        /* \"#utility.yul\":3698:3721   */\n      tag_161\n      jump\t// in\n    tag_234:\n        /* \"#utility.yul\":3693:3696   */\n      dup3\n        /* \"#utility.yul\":3686:3722   */\n      mstore\n        /* \"#utility.yul\":3613:3728   */\n      pop\n      pop\n      jump\t// out\n        /* \"#utility.yul\":3734:3952   */\n    tag_22:\n        /* \"#utility.yul\":3825:3829   */\n      0x00\n        /* \"#utility.yul\":3863:3865   */\n      0x20\n        /* \"#utility.yul\":3852:3861   */\n      dup3\n        /* \"#utility.yul\":3848:3866   */\n      add\n        /* \"#utility.yul\":3840:3866   */\n      swap1\n      pop\n        /* \"#utility.yul\":3876:3945   */\n      tag_236\n        /* \"#utility.yul\":3942:3943   */\n      0x00\n        /* \"#utility.yul\":3931:3940   */\n      dup4\n        /* \"#utility.yul\":3927:3944   */\n      add\n        /* \"#utility.yul\":3918:3924   */\n      dup5\n        /* \"#utility.yul\":3876:3945   */\n      tag_162\n      jump\t// in\n    tag_236:\n        /* \"#utility.yul\":3734:3952   */\n      swap3\n      swap2\n      pop\n      pop\n      jump\t// out\n        /* \"#utility.yul\":3975:4543   */\n    tag_163:\n        /* \"#utility.yul\":4048:4056   */\n      0x00\n        /* \"#utility.yul\":4058:4064   */\n      dup1\n        /* \"#utility.yul\":4108:4111   */\n      dup4\n        /* \"#utility.yul\":4101:4105   */\n      0x1f\n        /* \"#utility.yul\":4093:4099   */\n      dup5\n        /* \"#utility.yul\":4089:4106   */\n      add\n        /* \"#utility.yul\":4085:4112   */\n      slt\n        /* \"#utility.yul\":4075:4197   */\n      tag_238\n      jumpi\n        /* \"#utility.yul\":4116:4195   */\n      tag_239\n      tag_157\n      jump\t// in\n    tag_239:\n        /* \"#utility.yul\":4075:4197   */\n    tag_238:\n        /* \"#utility.yul\":4229:4235   */\n      dup3\n        /* \"#utility.yul\":4216:4236   */\n      calldataload\n        /* \"#utility.yul\":4206:4236   */\n      swap1\n      pop\n        /* \"#utility.yul\":4259:4277   */\n      0xffffffffffffffff\n        /* \"#utility.yul\":4251:4257   */\n      dup2\n        /* \"#utility.yul\":4248:4278   */\n      gt\n        /* \"#utility.yul\":4245:4362   */\n      iszero\n      tag_240\n      jumpi\n        /* \"#utility.yul\":4281:4360   */\n      tag_241\n      tag_158\n      jump\t// in\n    tag_241:\n        /* \"#utility.yul\":4245:4362   */\n    tag_240:\n        /* \"#utility.yul\":4395:4399   */\n      0x20\n        /* \"#utility.yul\":4387:4393   */\n      dup4\n        /* \"#utility.yul\":4383:4400   */\n      add\n        /* \"#utility.yul\":4371:4400   */\n      swap2\n      pop\n        /* \"#utility.yul\":4449:4452   */\n      dup4\n        /* \"#utility.yul\":4441:4445   */\n      0x20\n        /* \"#utility.yul\":4433:4439   */\n      dup3\n        /* \"#utility.yul\":4429:4446   */\n      mul\n        /* \"#utility.yul\":4419:4427   */\n      dup4\n        /* \"#utility.yul\":4415:4447   */\n      add\n        /* \"#utility.yul\":4412:4453   */\n      gt\n        /* \"#utility.yul\":4409:4537   */\n      iszero\n      tag_242\n      jumpi\n        /* \"#utility.yul\":4456:4535   */\n      tag_243\n      tag_159\n      jump\t// in\n    tag_243:\n        /* \"#utility.yul\":4409:4537   */\n    tag_242:\n        /* \"#utility.yul\":3975:4543   */\n      swap3\n      pop\n      swap3\n      swap1\n      pop\n      jump\t// out\n        /* \"#utility.yul\":4566:5134   */\n    tag_164:\n        /* \"#utility.yul\":4639:4647   */\n      0x00\n        /* \"#utility.yul\":4649:4655   */\n      dup1\n        /* \"#utility.yul\":4699:4702   */\n      dup4\n        /* \"#utility.yul\":4692:4696   */\n      0x1f\n        /* \"#utility.yul\":4684:4690   */\n      dup5\n        /* \"#utility.yul\":4680:4697   */\n      add\n        /* \"#utility.yul\":4676:4703   */\n      slt\n        /* \"#utility.yul\":4666:4788   */\n      tag_245\n      jumpi\n        /* \"#utility.yul\":4707:4786   */\n      tag_246\n      tag_157\n      jump\t// in\n    tag_246:\n        /* \"#utility.yul\":4666:4788   */\n    tag_245:\n        /* \"#utility.yul\":4820:4826   */\n      dup3\n        /* \"#utility.yul\":4807:4827   */\n      calldataload\n        /* \"#utility.yul\":4797:4827   */\n      swap1\n      pop\n        /* \"#utility.yul\":4850:4868   */\n      0xffffffffffffffff\n        /* \"#utility.yul\":4842:4848   */\n      dup2\n        /* \"#utility.yul\":4839:4869   */\n      gt\n        /* \"#utility.yul\":4836:4953   */\n      iszero\n      tag_247\n      jumpi\n        /* \"#utility.yul\":4872:4951   */\n      tag_248\n      tag_158\n      jump\t// in\n    tag_248:\n        /* \"#utility.yul\":4836:4953   */\n    tag_247:\n        /* \"#utility.yul\":4986:4990   */\n      0x20\n        /* \"#utility.yul\":4978:4984   */\n      dup4\n        /* \"#utility.yul\":4974:4991   */\n      add\n        /* \"#utility.yul\":4962:4991   */\n      swap2\n      pop\n        /* \"#utility.yul\":5040:5043   */\n      dup4\n        /* \"#utility.yul\":5032:5036   */\n      0x20\n        /* \"#utility.yul\":5024:5030   */\n      dup3\n        /* \"#utility.yul\":5020:5037   */\n      mul\n        /* \"#utility.yul\":5010:5018   */\n      dup4\n        /* \"#utility.yul\":5006:5038   */\n      add\n        /* \"#utility.yul\":5003:5044   */\n      gt\n        /* \"#utility.yul\":5000:5128   */\n      iszero\n      tag_249\n      jumpi\n        /* \"#utility.yul\":5047:5126   */\n      tag_250\n      tag_159\n      jump\t// in\n    tag_250:\n        /* \"#utility.yul\":5000:5128   */\n    tag_249:\n        /* \"#utility.yul\":4566:5134   */\n      swap3\n      pop\n      swap3\n      swap1\n      pop\n      jump\t// out\n        /* \"#utility.yul\":5140:6825   */\n    tag_26:\n        /* \"#utility.yul\":5334:5340   */\n      0x00\n        /* \"#utility.yul\":5342:5348   */\n      dup1\n        /* \"#utility.yul\":5350:5356   */\n      0x00\n        /* \"#utility.yul\":5358:5364   */\n      dup1\n        /* \"#utility.yul\":5366:5372   */\n      0x00\n        /* \"#utility.yul\":5374:5380   */\n      dup1\n        /* \"#utility.yul\":5382:5388   */\n      0x00\n        /* \"#utility.yul\":5390:5396   */\n      dup1\n        /* \"#utility.yul\":5439:5442   */\n      0x80\n        /* \"#utility.yul\":5427:5436   */\n      dup10\n        /* \"#utility.yul\":5418:5425   */\n      dup12\n        /* \"#utility.yul\":5414:5437   */\n      sub\n        /* \"#utility.yul\":5410:5443   */\n      slt\n        /* \"#utility.yul\":5407:5527   */\n      iszero\n      tag_252\n      jumpi\n        /* \"#utility.yul\":5446:5525   */\n      tag_253\n      tag_149\n      jump\t// in\n    tag_253:\n        /* \"#utility.yul\":5407:5527   */\n    tag_252:\n        /* \"#utility.yul\":5594:5595   */\n      0x00\n        /* \"#utility.yul\":5583:5592   */\n      dup10\n        /* \"#utility.yul\":5579:5596   */\n      add\n        /* \"#utility.yul\":5566:5597   */\n      calldataload\n        /* \"#utility.yul\":5624:5642   */\n      0xffffffffffffffff\n        /* \"#utility.yul\":5616:5622   */\n      dup2\n        /* \"#utility.yul\":5613:5643   */\n      gt\n        /* \"#utility.yul\":5610:5727   */\n      iszero\n      tag_254\n      jumpi\n        /* \"#utility.yul\":5646:5725   */\n      tag_255\n      tag_150\n      jump\t// in\n    tag_255:\n        /* \"#utility.yul\":5610:5727   */\n    tag_254:\n        /* \"#utility.yul\":5759:5839   */\n      tag_256\n        /* \"#utility.yul\":5831:5838   */\n      dup12\n        /* \"#utility.yul\":5822:5828   */\n      dup3\n        /* \"#utility.yul\":5811:5820   */\n      dup13\n        /* \"#utility.yul\":5807:5829   */\n      add\n        /* \"#utility.yul\":5759:5839   */\n      tag_163\n      jump\t// in\n    tag_256:\n        /* \"#utility.yul\":5741:5839   */\n      swap9\n      pop\n      swap9\n      pop\n        /* \"#utility.yul\":5537:5849   */\n      pop\n        /* \"#utility.yul\":5916:5918   */\n      0x20\n        /* \"#utility.yul\":5905:5914   */\n      dup10\n        /* \"#utility.yul\":5901:5919   */\n      add\n        /* \"#utility.yul\":5888:5920   */\n      calldataload\n        /* \"#utility.yul\":5947:5965   */\n      0xffffffffffffffff\n        /* \"#utility.yul\":5939:5945   */\n      dup2\n        /* \"#utility.yul\":5936:5966   */\n      gt\n        /* \"#utility.yul\":5933:6050   */\n      iszero\n      tag_257\n      jumpi\n        /* \"#utility.yul\":5969:6048   */\n      tag_258\n      tag_150\n      jump\t// in\n    tag_258:\n        /* \"#utility.yul\":5933:6050   */\n    tag_257:\n        /* \"#utility.yul\":6082:6162   */\n      tag_259\n        /* \"#utility.yul\":6154:6161   */\n      dup12\n        /* \"#utility.yul\":6145:6151   */\n      dup3\n        /* \"#utility.yul\":6134:6143   */\n      dup13\n        /* \"#utility.yul\":6130:6152   */\n      add\n        /* \"#utility.yul\":6082:6162   */\n      tag_164\n      jump\t// in\n    tag_259:\n        /* \"#utility.yul\":6064:6162   */\n      swap7\n      pop\n      swap7\n      pop\n        /* \"#utility.yul\":5859:6172   */\n      pop\n        /* \"#utility.yul\":6239:6241   */\n      0x40\n        /* \"#utility.yul\":6228:6237   */\n      dup10\n        /* \"#utility.yul\":6224:6242   */\n      add\n        /* \"#utility.yul\":6211:6243   */\n      calldataload\n        /* \"#utility.yul\":6270:6288   */\n      0xffffffffffffffff\n        /* \"#utility.yul\":6262:6268   */\n      dup2\n        /* \"#utility.yul\":6259:6289   */\n      gt\n        /* \"#utility.yul\":6256:6373   */\n      iszero\n      tag_260\n      jumpi\n        /* \"#utility.yul\":6292:6371   */\n      tag_261\n      tag_150\n      jump\t// in\n    tag_261:\n        /* \"#utility.yul\":6256:6373   */\n    tag_260:\n        /* \"#utility.yul\":6405:6485   */\n      tag_262\n        /* \"#utility.yul\":6477:6484   */\n      dup12\n        /* \"#utility.yul\":6468:6474   */\n      dup3\n        /* \"#utility.yul\":6457:6466   */\n      dup13\n        /* \"#utility.yul\":6453:6475   */\n      add\n        /* \"#utility.yul\":6405:6485   */\n      tag_163\n      jump\t// in\n    tag_262:\n        /* \"#utility.yul\":6387:6485   */\n      swap5\n      pop\n      swap5\n      pop\n        /* \"#utility.yul\":6182:6495   */\n      pop\n        /* \"#utility.yul\":6562:6564   */\n      0x60\n        /* \"#utility.yul\":6551:6560   */\n      dup10\n        /* \"#utility.yul\":6547:6565   */\n      add\n        /* \"#utility.yul\":6534:6566   */\n      calldataload\n        /* \"#utility.yul\":6593:6611   */\n      0xffffffffffffffff\n        /* \"#utility.yul\":6585:6591   */\n      dup2\n        /* \"#utility.yul\":6582:6612   */\n      gt\n        /* \"#utility.yul\":6579:6696   */\n      iszero\n      tag_263\n      jumpi\n        /* \"#utility.yul\":6615:6694   */\n      tag_264\n      tag_150\n      jump\t// in\n    tag_264:\n        /* \"#utility.yul\":6579:6696   */\n    tag_263:\n        /* \"#utility.yul\":6728:6808   */\n      tag_265\n        /* \"#utility.yul\":6800:6807   */\n      dup12\n        /* \"#utility.yul\":6791:6797   */\n      dup3\n        /* \"#utility.yul\":6780:6789   */\n      dup13\n        /* \"#utility.yul\":6776:6798   */\n      add\n        /* \"#utility.yul\":6728:6808   */\n      tag_164\n      jump\t// in\n    tag_265:\n        /* \"#utility.yul\":6710:6808   */\n      swap3\n      pop\n      swap3\n      pop\n        /* \"#utility.yul\":6505:6818   */\n      pop\n        /* \"#utility.yul\":5140:6825   */\n      swap3\n      swap6\n      swap9\n      pop\n      swap3\n      swap6\n      swap9\n      swap1\n      swap4\n      swap7\n      pop\n      jump\t// out\n        /* \"#utility.yul\":6831:6949   */\n    tag_165:\n        /* \"#utility.yul\":6918:6942   */\n      tag_267\n        /* \"#utility.yul\":6936:6941   */\n      dup2\n        /* \"#utility.yul\":6918:6942   */\n      tag_152\n      jump\t// in\n    tag_267:\n        /* \"#utility.yul\":6913:6916   */\n      dup3\n        /* \"#utility.yul\":6906:6943   */\n      mstore\n        /* \"#utility.yul\":6831:6949   */\n      pop\n      pop\n      jump\t// out\n        /* \"#utility.yul\":6955:7177   */\n    tag_35:\n        /* \"#utility.yul\":7048:7052   */\n      0x00\n        /* \"#utility.yul\":7086:7088   */\n      0x20\n        /* \"#utility.yul\":7075:7084   */\n      dup3\n        /* \"#utility.yul\":7071:7089   */\n      add\n        /* \"#utility.yul\":7063:7089   */\n      swap1\n      pop\n        /* \"#utility.yul\":7099:7170   */\n      tag_269\n        /* \"#utility.yul\":7167:7168   */\n      0x00\n        /* \"#utility.yul\":7156:7165   */\n      dup4\n        /* \"#utility.yul\":7152:7169   */\n      add\n        /* \"#utility.yul\":7143:7149   */\n      dup5\n        /* \"#utility.yul\":7099:7170   */\n      tag_165\n      jump\t// in\n    tag_269:\n        /* \"#utility.yul\":6955:7177   */\n      swap3\n      swap2\n      pop\n      pop\n      jump\t// out\n        /* \"#utility.yul\":7183:7657   */\n    tag_39:\n        /* \"#utility.yul\":7251:7257   */\n      0x00\n        /* \"#utility.yul\":7259:7265   */\n      dup1\n        /* \"#utility.yul\":7308:7310   */\n      0x40\n        /* \"#utility.yul\":7296:7305   */\n      dup4\n        /* \"#utility.yul\":7287:7294   */\n      dup6\n        /* \"#utility.yul\":7283:7306   */\n      sub\n        /* \"#utility.yul\":7279:7311   */\n      slt\n        /* \"#utility.yul\":7276:7395   */\n      iszero\n      tag_271\n      jumpi\n        /* \"#utility.yul\":7314:7393   */\n      tag_272\n      tag_149\n      jump\t// in\n    tag_272:\n        /* \"#utility.yul\":7276:7395   */\n    tag_271:\n        /* \"#utility.yul\":7434:7435   */\n      0x00\n        /* \"#utility.yul\":7459:7512   */\n      tag_273\n        /* \"#utility.yul\":7504:7511   */\n      dup6\n        /* \"#utility.yul\":7495:7501   */\n      dup3\n        /* \"#utility.yul\":7484:7493   */\n      dup7\n        /* \"#utility.yul\":7480:7502   */\n      add\n        /* \"#utility.yul\":7459:7512   */\n      tag_154\n      jump\t// in\n    tag_273:\n        /* \"#utility.yul\":7449:7512   */\n      swap3\n      pop\n        /* \"#utility.yul\":7405:7522   */\n      pop\n        /* \"#utility.yul\":7561:7563   */\n      0x20\n        /* \"#utility.yul\":7587:7640   */\n      tag_274\n        /* \"#utility.yul\":7632:7639   */\n      dup6\n        /* \"#utility.yul\":7623:7629   */\n      dup3\n        /* \"#utility.yul\":7612:7621   */\n      dup7\n        /* \"#utility.yul\":7608:7630   */\n      add\n        /* \"#utility.yul\":7587:7640   */\n      tag_156\n      jump\t// in\n    tag_274:\n        /* \"#utility.yul\":7577:7640   */\n      swap2\n      pop\n        /* \"#utility.yul\":7532:7650   */\n      pop\n        /* \"#utility.yul\":7183:7657   */\n      swap3\n      pop\n      swap3\n      swap1\n      pop\n      jump\t// out\n        /* \"#utility.yul\":7663:7992   */\n    tag_48:\n        /* \"#utility.yul\":7722:7728   */\n      0x00\n        /* \"#utility.yul\":7771:7773   */\n      0x20\n        /* \"#utility.yul\":7759:7768   */\n      dup3\n        /* \"#utility.yul\":7750:7757   */\n      dup5\n        /* \"#utility.yul\":7746:7769   */\n      sub\n        /* \"#utility.yul\":7742:7774   */\n      slt\n        /* \"#utility.yul\":7739:7858   */\n      iszero\n      tag_276\n      jumpi\n        /* \"#utility.yul\":7777:7856   */\n      tag_277\n      tag_149\n      jump\t// in\n    tag_277:\n        /* \"#utility.yul\":7739:7858   */\n    tag_276:\n        /* \"#utility.yul\":7897:7898   */\n      0x00\n        /* \"#utility.yul\":7922:7975   */\n      tag_278\n        /* \"#utility.yul\":7967:7974   */\n      dup5\n        /* \"#utility.yul\":7958:7964   */\n      dup3\n        /* \"#utility.yul\":7947:7956   */\n      dup6\n        /* \"#utility.yul\":7943:7965   */\n      add\n        /* \"#utility.yul\":7922:7975   */\n      tag_154\n      jump\t// in\n    tag_278:\n        /* \"#utility.yul\":7912:7975   */\n      swap2\n      pop\n        /* \"#utility.yul\":7868:7985   */\n      pop\n        /* \"#utility.yul\":7663:7992   */\n      swap3\n      swap2\n      pop\n      pop\n      jump\t// out\n        /* \"#utility.yul\":7998:8167   */\n    tag_166:\n        /* \"#utility.yul\":8082:8093   */\n      0x00\n        /* \"#utility.yul\":8116:8122   */\n      dup3\n        /* \"#utility.yul\":8111:8114   */\n      dup3\n        /* \"#utility.yul\":8104:8123   */\n      mstore\n        /* \"#utility.yul\":8156:8160   */\n      0x20\n        /* \"#utility.yul\":8151:8154   */\n      dup3\n        /* \"#utility.yul\":8147:8161   */\n      add\n        /* \"#utility.yul\":8132:8161   */\n      swap1\n      pop\n        /* \"#utility.yul\":7998:8167   */\n      swap3\n      swap2\n      pop\n      pop\n      jump\t// out\n        /* \"#utility.yul\":8173:8387   */\n    tag_167:\n        /* \"#utility.yul\":8313:8379   */\n      0x455243323020e695b0e7bb84e995bfe5baa6e4b88de58cb9e9858d0000000000\n        /* \"#utility.yul\":8309:8310   */\n      0x00\n        /* \"#utility.yul\":8301:8307   */\n      dup3\n        /* \"#utility.yul\":8297:8311   */\n      add\n        /* \"#utility.yul\":8290:8380   */\n      mstore\n        /* \"#utility.yul\":8173:8387   */\n      pop\n      jump\t// out\n        /* \"#utility.yul\":8393:8759   */\n    tag_168:\n        /* \"#utility.yul\":8535:8538   */\n      0x00\n        /* \"#utility.yul\":8556:8623   */\n      tag_282\n        /* \"#utility.yul\":8620:8622   */\n      0x1b\n        /* \"#utility.yul\":8615:8618   */\n      dup4\n        /* \"#utility.yul\":8556:8623   */\n      tag_166\n      jump\t// in\n    tag_282:\n        /* \"#utility.yul\":8549:8623   */\n      swap2\n      pop\n        /* \"#utility.yul\":8632:8725   */\n      tag_283\n        /* \"#utility.yul\":8721:8724   */\n      dup3\n        /* \"#utility.yul\":8632:8725   */\n      tag_167\n      jump\t// in\n    tag_283:\n        /* \"#utility.yul\":8750:8752   */\n      0x20\n        /* \"#utility.yul\":8745:8748   */\n      dup3\n        /* \"#utility.yul\":8741:8753   */\n      add\n        /* \"#utility.yul\":8734:8753   */\n      swap1\n      pop\n        /* \"#utility.yul\":8393:8759   */\n      swap2\n      swap1\n      pop\n      jump\t// out\n        /* \"#utility.yul\":8765:9184   */\n    tag_63:\n        /* \"#utility.yul\":8931:8935   */\n      0x00\n        /* \"#utility.yul\":8969:8971   */\n      0x20\n        /* \"#utility.yul\":8958:8967   */\n      dup3\n        /* \"#utility.yul\":8954:8972   */\n      add\n        /* \"#utility.yul\":8946:8972   */\n      swap1\n      pop\n        /* \"#utility.yul\":9018:9027   */\n      dup2\n        /* \"#utility.yul\":9012:9016   */\n      dup2\n        /* \"#utility.yul\":9008:9028   */\n      sub\n        /* \"#utility.yul\":9004:9005   */\n      0x00\n        /* \"#utility.yul\":8993:9002   */\n      dup4\n        /* \"#utility.yul\":8989:9006   */\n      add\n        /* \"#utility.yul\":8982:9029   */\n      mstore\n        /* \"#utility.yul\":9046:9177   */\n      tag_285\n        /* \"#utility.yul\":9172:9176   */\n      dup2\n        /* \"#utility.yul\":9046:9177   */\n      tag_168\n      jump\t// in\n    tag_285:\n        /* \"#utility.yul\":9038:9177   */\n      swap1\n      pop\n        /* \"#utility.yul\":8765:9184   */\n      swap2\n      swap1\n      pop\n      jump\t// out\n        /* \"#utility.yul\":9190:9370   */\n    tag_69:\n        /* \"#utility.yul\":9238:9315   */\n      0x4e487b7100000000000000000000000000000000000000000000000000000000\n        /* \"#utility.yul\":9235:9236   */\n      0x00\n        /* \"#utility.yul\":9228:9316   */\n      mstore\n        /* \"#utility.yul\":9335:9339   */\n      0x32\n        /* \"#utility.yul\":9332:9333   */\n      0x04\n        /* \"#utility.yul\":9325:9340   */\n      mstore\n        /* \"#utility.yul\":9359:9363   */\n      0x24\n        /* \"#utility.yul\":9356:9357   */\n      0x00\n        /* \"#utility.yul\":9349:9364   */\n      revert\n        /* \"#utility.yul\":9376:9708   */\n    tag_76:\n        /* \"#utility.yul\":9497:9501   */\n      0x00\n        /* \"#utility.yul\":9535:9537   */\n      0x40\n        /* \"#utility.yul\":9524:9533   */\n      dup3\n        /* \"#utility.yul\":9520:9538   */\n      add\n        /* \"#utility.yul\":9512:9538   */\n      swap1\n      pop\n        /* \"#utility.yul\":9548:9619   */\n      tag_288\n        /* \"#utility.yul\":9616:9617   */\n      0x00\n        /* \"#utility.yul\":9605:9614   */\n      dup4\n        /* \"#utility.yul\":9601:9618   */\n      add\n        /* \"#utility.yul\":9592:9598   */\n      dup6\n        /* \"#utility.yul\":9548:9619   */\n      tag_165\n      jump\t// in\n    tag_288:\n        /* \"#utility.yul\":9629:9701   */\n      tag_289\n        /* \"#utility.yul\":9697:9699   */\n      0x20\n        /* \"#utility.yul\":9686:9695   */\n      dup4\n        /* \"#utility.yul\":9682:9700   */\n      add\n        /* \"#utility.yul\":9673:9679   */\n      dup5\n        /* \"#utility.yul\":9629:9701   */\n      tag_147\n      jump\t// in\n    tag_289:\n        /* \"#utility.yul\":9376:9708   */\n      swap4\n      swap3\n      pop\n      pop\n      pop\n      jump\t// out\n        /* \"#utility.yul\":9714:9804   */\n    tag_169:\n        /* \"#utility.yul\":9748:9755   */\n      0x00\n        /* \"#utility.yul\":9791:9796   */\n      dup2\n        /* \"#utility.yul\":9784:9797   */\n      iszero\n        /* \"#utility.yul\":9777:9798   */\n      iszero\n        /* \"#utility.yul\":9766:9798   */\n      swap1\n      pop\n        /* \"#utility.yul\":9714:9804   */\n      swap2\n      swap1\n      pop\n      jump\t// out\n        /* \"#utility.yul\":9810:9926   */\n    tag_170:\n        /* \"#utility.yul\":9880:9901   */\n      tag_292\n        /* \"#utility.yul\":9895:9900   */\n      dup2\n        /* \"#utility.yul\":9880:9901   */\n      tag_169\n      jump\t// in\n    tag_292:\n        /* \"#utility.yul\":9873:9878   */\n      dup2\n        /* \"#utility.yul\":9870:9902   */\n      eq\n        /* \"#utility.yul\":9860:9920   */\n      tag_293\n      jumpi\n        /* \"#utility.yul\":9916:9917   */\n      0x00\n        /* \"#utility.yul\":9913:9914   */\n      dup1\n        /* \"#utility.yul\":9906:9918   */\n      revert\n        /* \"#utility.yul\":9860:9920   */\n    tag_293:\n        /* \"#utility.yul\":9810:9926   */\n      pop\n      jump\t// out\n        /* \"#utility.yul\":9932:10069   */\n    tag_171:\n        /* \"#utility.yul\":9986:9991   */\n      0x00\n        /* \"#utility.yul\":10017:10023   */\n      dup2\n        /* \"#utility.yul\":10011:10024   */\n      mload\n        /* \"#utility.yul\":10002:10024   */\n      swap1\n      pop\n        /* \"#utility.yul\":10033:10063   */\n      tag_295\n        /* \"#utility.yul\":10057:10062   */\n      dup2\n        /* \"#utility.yul\":10033:10063   */\n      tag_170\n      jump\t// in\n    tag_295:\n        /* \"#utility.yul\":9932:10069   */\n      swap3\n      swap2\n      pop\n      pop\n      jump\t// out\n        /* \"#utility.yul\":10075:10420   */\n    tag_80:\n        /* \"#utility.yul\":10142:10148   */\n      0x00\n        /* \"#utility.yul\":10191:10193   */\n      0x20\n        /* \"#utility.yul\":10179:10188   */\n      dup3\n        /* \"#utility.yul\":10170:10177   */\n      dup5\n        /* \"#utility.yul\":10166:10189   */\n      sub\n        /* \"#utility.yul\":10162:10194   */\n      slt\n        /* \"#utility.yul\":10159:10278   */\n      iszero\n      tag_297\n      jumpi\n        /* \"#utility.yul\":10197:10276   */\n      tag_298\n      tag_149\n      jump\t// in\n    tag_298:\n        /* \"#utility.yul\":10159:10278   */\n    tag_297:\n        /* \"#utility.yul\":10317:10318   */\n      0x00\n        /* \"#utility.yul\":10342:10403   */\n      tag_299\n        /* \"#utility.yul\":10395:10402   */\n      dup5\n        /* \"#utility.yul\":10386:10392   */\n      dup3\n        /* \"#utility.yul\":10375:10384   */\n      dup6\n        /* \"#utility.yul\":10371:10393   */\n      add\n        /* \"#utility.yul\":10342:10403   */\n      tag_171\n      jump\t// in\n    tag_299:\n        /* \"#utility.yul\":10332:10403   */\n      swap2\n      pop\n        /* \"#utility.yul\":10288:10413   */\n      pop\n        /* \"#utility.yul\":10075:10420   */\n      swap3\n      swap2\n      pop\n      pop\n      jump\t// out\n        /* \"#utility.yul\":10426:10640   */\n    tag_172:\n        /* \"#utility.yul\":10566:10632   */\n      0x455243323020e8bdace8b4a6e5a4b1e8b4a50000000000000000000000000000\n        /* \"#utility.yul\":10562:10563   */\n      0x00\n        /* \"#utility.yul\":10554:10560   */\n      dup3\n        /* \"#utility.yul\":10550:10564   */\n      add\n        /* \"#utility.yul\":10543:10633   */\n      mstore\n        /* \"#utility.yul\":10426:10640   */\n      pop\n      jump\t// out\n        /* \"#utility.yul\":10646:11012   */\n    tag_173:\n        /* \"#utility.yul\":10788:10791   */\n      0x00\n        /* \"#utility.yul\":10809:10876   */\n      tag_302\n        /* \"#utility.yul\":10873:10875   */\n      0x12\n        /* \"#utility.yul\":10868:10871   */\n      dup4\n        /* \"#utility.yul\":10809:10876   */\n      tag_166\n      jump\t// in\n    tag_302:\n        /* \"#utility.yul\":10802:10876   */\n      swap2\n      pop\n        /* \"#utility.yul\":10885:10978   */\n      tag_303\n        /* \"#utility.yul\":10974:10977   */\n      dup3\n        /* \"#utility.yul\":10885:10978   */\n      tag_172\n      jump\t// in\n    tag_303:\n        /* \"#utility.yul\":11003:11005   */\n      0x20\n        /* \"#utility.yul\":10998:11001   */\n      dup3\n        /* \"#utility.yul\":10994:11006   */\n      add\n        /* \"#utility.yul\":10987:11006   */\n      swap1\n      pop\n        /* \"#utility.yul\":10646:11012   */\n      swap2\n      swap1\n      pop\n      jump\t// out\n        /* \"#utility.yul\":11018:11437   */\n    tag_83:\n        /* \"#utility.yul\":11184:11188   */\n      0x00\n        /* \"#utility.yul\":11222:11224   */\n      0x20\n        /* \"#utility.yul\":11211:11220   */\n      dup3\n        /* \"#utility.yul\":11207:11225   */\n      add\n        /* \"#utility.yul\":11199:11225   */\n      swap1\n      pop\n        /* \"#utility.yul\":11271:11280   */\n      dup2\n        /* \"#utility.yul\":11265:11269   */\n      dup2\n        /* \"#utility.yul\":11261:11281   */\n      sub\n        /* \"#utility.yul\":11257:11258   */\n      0x00\n        /* \"#utility.yul\":11246:11255   */\n      dup4\n        /* \"#utility.yul\":11242:11259   */\n      add\n        /* \"#utility.yul\":11235:11282   */\n      mstore\n        /* \"#utility.yul\":11299:11430   */\n      tag_305\n        /* \"#utility.yul\":11425:11429   */\n      dup2\n        /* \"#utility.yul\":11299:11430   */\n      tag_173\n      jump\t// in\n    tag_305:\n        /* \"#utility.yul\":11291:11430   */\n      swap1\n      pop\n        /* \"#utility.yul\":11018:11437   */\n      swap2\n      swap1\n      pop\n      jump\t// out\n        /* \"#utility.yul\":11443:11657   */\n    tag_174:\n        /* \"#utility.yul\":11583:11649   */\n      0x45524337323120e695b0e7bb84e995bfe5baa6e4b88de58cb9e9858d00000000\n        /* \"#utility.yul\":11579:11580   */\n      0x00\n        /* \"#utility.yul\":11571:11577   */\n      dup3\n        /* \"#utility.yul\":11567:11581   */\n      add\n        /* \"#utility.yul\":11560:11650   */\n      mstore\n        /* \"#utility.yul\":11443:11657   */\n      pop\n      jump\t// out\n        /* \"#utility.yul\":11663:12029   */\n    tag_175:\n        /* \"#utility.yul\":11805:11808   */\n      0x00\n        /* \"#utility.yul\":11826:11893   */\n      tag_308\n        /* \"#utility.yul\":11890:11892   */\n      0x1c\n        /* \"#utility.yul\":11885:11888   */\n      dup4\n        /* \"#utility.yul\":11826:11893   */\n      tag_166\n      jump\t// in\n    tag_308:\n        /* \"#utility.yul\":11819:11893   */\n      swap2\n      pop\n        /* \"#utility.yul\":11902:11995   */\n      tag_309\n        /* \"#utility.yul\":11991:11994   */\n      dup3\n        /* \"#utility.yul\":11902:11995   */\n      tag_174\n      jump\t// in\n    tag_309:\n        /* \"#utility.yul\":12020:12022   */\n      0x20\n        /* \"#utility.yul\":12015:12018   */\n      dup3\n        /* \"#utility.yul\":12011:12023   */\n      add\n        /* \"#utility.yul\":12004:12023   */\n      swap1\n      pop\n        /* \"#utility.yul\":11663:12029   */\n      swap2\n      swap1\n      pop\n      jump\t// out\n        /* \"#utility.yul\":12035:12454   */\n    tag_86:\n        /* \"#utility.yul\":12201:12205   */\n      0x00\n        /* \"#utility.yul\":12239:12241   */\n      0x20\n        /* \"#utility.yul\":12228:12237   */\n      dup3\n        /* \"#utility.yul\":12224:12242   */\n      add\n        /* \"#utility.yul\":12216:12242   */\n      swap1\n      pop\n        /* \"#utility.yul\":12288:12297   */\n      dup2\n        /* \"#utility.yul\":12282:12286   */\n      dup2\n        /* \"#utility.yul\":12278:12298   */\n      sub\n        /* \"#utility.yul\":12274:12275   */\n      0x00\n        /* \"#utility.yul\":12263:12272   */\n      dup4\n        /* \"#utility.yul\":12259:12276   */\n      add\n        /* \"#utility.yul\":12252:12299   */\n      mstore\n        /* \"#utility.yul\":12316:12447   */\n      tag_311\n        /* \"#utility.yul\":12442:12446   */\n      dup2\n        /* \"#utility.yul\":12316:12447   */\n      tag_175\n      jump\t// in\n    tag_311:\n        /* \"#utility.yul\":12308:12447   */\n      swap1\n      pop\n        /* \"#utility.yul\":12035:12454   */\n      swap2\n      swap1\n      pop\n      jump\t// out\n        /* \"#utility.yul\":12460:12902   */\n    tag_97:\n        /* \"#utility.yul\":12609:12613   */\n      0x00\n        /* \"#utility.yul\":12647:12649   */\n      0x60\n        /* \"#utility.yul\":12636:12645   */\n      dup3\n        /* \"#utility.yul\":12632:12650   */\n      add\n        /* \"#utility.yul\":12624:12650   */\n      swap1\n      pop\n        /* \"#utility.yul\":12660:12731   */\n      tag_313\n        /* \"#utility.yul\":12728:12729   */\n      0x00\n        /* \"#utility.yul\":12717:12726   */\n      dup4\n        /* \"#utility.yul\":12713:12730   */\n      add\n        /* \"#utility.yul\":12704:12710   */\n      dup7\n        /* \"#utility.yul\":12660:12731   */\n      tag_165\n      jump\t// in\n    tag_313:\n        /* \"#utility.yul\":12741:12813   */\n      tag_314\n        /* \"#utility.yul\":12809:12811   */\n      0x20\n        /* \"#utility.yul\":12798:12807   */\n      dup4\n        /* \"#utility.yul\":12794:12812   */\n      add\n        /* \"#utility.yul\":12785:12791   */\n      dup6\n        /* \"#utility.yul\":12741:12813   */\n      tag_165\n      jump\t// in\n    tag_314:\n        /* \"#utility.yul\":12823:12895   */\n      tag_315\n        /* \"#utility.yul\":12891:12893   */\n      0x40\n        /* \"#utility.yul\":12880:12889   */\n      dup4\n        /* \"#utility.yul\":12876:12894   */\n      add\n        /* \"#utility.yul\":12867:12873   */\n      dup5\n        /* \"#utility.yul\":12823:12895   */\n      tag_147\n      jump\t// in\n    tag_315:\n        /* \"#utility.yul\":12460:12902   */\n      swap5\n      swap4\n      pop\n      pop\n      pop\n      pop\n      jump\t// out\n        /* \"#utility.yul\":12908:13092   */\n    tag_176:\n        /* \"#utility.yul\":13007:13018   */\n      0x00\n        /* \"#utility.yul\":13041:13047   */\n      dup3\n        /* \"#utility.yul\":13036:13039   */\n      dup3\n        /* \"#utility.yul\":13029:13048   */\n      mstore\n        /* \"#utility.yul\":13081:13085   */\n      0x20\n        /* \"#utility.yul\":13076:13079   */\n      dup3\n        /* \"#utility.yul\":13072:13086   */\n      add\n        /* \"#utility.yul\":13057:13086   */\n      swap1\n      pop\n        /* \"#utility.yul\":12908:13092   */\n      swap3\n      swap2\n      pop\n      pop\n      jump\t// out\n        /* \"#utility.yul\":13098:13200   */\n    tag_177:\n        /* \"#utility.yul\":13167:13171   */\n      0x00\n        /* \"#utility.yul\":13190:13193   */\n      dup2\n        /* \"#utility.yul\":13182:13193   */\n      swap1\n      pop\n        /* \"#utility.yul\":13098:13200   */\n      swap2\n      swap1\n      pop\n      jump\t// out\n        /* \"#utility.yul\":13206:13314   */\n    tag_178:\n        /* \"#utility.yul\":13283:13307   */\n      tag_319\n        /* \"#utility.yul\":13301:13306   */\n      dup2\n        /* \"#utility.yul\":13283:13307   */\n      tag_152\n      jump\t// in\n    tag_319:\n        /* \"#utility.yul\":13278:13281   */\n      dup3\n        /* \"#utility.yul\":13271:13308   */\n      mstore\n        /* \"#utility.yul\":13206:13314   */\n      pop\n      pop\n      jump\t// out\n        /* \"#utility.yul\":13320:13499   */\n    tag_179:\n        /* \"#utility.yul\":13389:13399   */\n      0x00\n        /* \"#utility.yul\":13410:13456   */\n      tag_321\n        /* \"#utility.yul\":13452:13455   */\n      dup4\n        /* \"#utility.yul\":13444:13450   */\n      dup4\n        /* \"#utility.yul\":13410:13456   */\n      tag_178\n      jump\t// in\n    tag_321:\n        /* \"#utility.yul\":13488:13492   */\n      0x20\n        /* \"#utility.yul\":13483:13486   */\n      dup4\n        /* \"#utility.yul\":13479:13493   */\n      add\n        /* \"#utility.yul\":13465:13493   */\n      swap1\n      pop\n        /* \"#utility.yul\":13320:13499   */\n      swap3\n      swap2\n      pop\n      pop\n      jump\t// out\n        /* \"#utility.yul\":13505:13627   */\n    tag_180:\n        /* \"#utility.yul\":13557:13562   */\n      0x00\n        /* \"#utility.yul\":13582:13621   */\n      tag_323\n        /* \"#utility.yul\":13617:13619   */\n      0x20\n        /* \"#utility.yul\":13612:13615   */\n      dup5\n        /* \"#utility.yul\":13608:13620   */\n      add\n        /* \"#utility.yul\":13603:13606   */\n      dup5\n        /* \"#utility.yul\":13582:13621   */\n      tag_154\n      jump\t// in\n    tag_323:\n        /* \"#utility.yul\":13573:13621   */\n      swap1\n      pop\n        /* \"#utility.yul\":13505:13627   */\n      swap3\n      swap2\n      pop\n      pop\n      jump\t// out\n        /* \"#utility.yul\":13633:13748   */\n    tag_181:\n        /* \"#utility.yul\":13705:13709   */\n      0x00\n        /* \"#utility.yul\":13737:13741   */\n      0x20\n        /* \"#utility.yul\":13732:13735   */\n      dup3\n        /* \"#utility.yul\":13728:13742   */\n      add\n        /* \"#utility.yul\":13720:13742   */\n      swap1\n      pop\n        /* \"#utility.yul\":13633:13748   */\n      swap2\n      swap1\n      pop\n      jump\t// out\n        /* \"#utility.yul\":13784:14483   */\n    tag_182:\n        /* \"#utility.yul\":13913:13916   */\n      0x00\n        /* \"#utility.yul\":13936:14022   */\n      tag_326\n        /* \"#utility.yul\":14015:14021   */\n      dup4\n        /* \"#utility.yul\":14010:14013   */\n      dup6\n        /* \"#utility.yul\":13936:14022   */\n      tag_176\n      jump\t// in\n    tag_326:\n        /* \"#utility.yul\":13929:14022   */\n      swap4\n      pop\n        /* \"#utility.yul\":14046:14104   */\n      tag_327\n        /* \"#utility.yul\":14098:14103   */\n      dup3\n        /* \"#utility.yul\":14046:14104   */\n      tag_177\n      jump\t// in\n    tag_327:\n        /* \"#utility.yul\":14127:14134   */\n      dup1\n        /* \"#utility.yul\":14158:14159   */\n      0x00\n        /* \"#utility.yul\":14143:14458   */\n    tag_328:\n        /* \"#utility.yul\":14168:14174   */\n      dup6\n        /* \"#utility.yul\":14165:14166   */\n      dup2\n        /* \"#utility.yul\":14162:14175   */\n      lt\n        /* \"#utility.yul\":14143:14458   */\n      iszero\n      tag_330\n      jumpi\n        /* \"#utility.yul\":14238:14280   */\n      tag_331\n        /* \"#utility.yul\":14273:14279   */\n      dup3\n        /* \"#utility.yul\":14264:14271   */\n      dup5\n        /* \"#utility.yul\":14238:14280   */\n      tag_180\n      jump\t// in\n    tag_331:\n        /* \"#utility.yul\":14300:14363   */\n      tag_332\n        /* \"#utility.yul\":14359:14362   */\n      dup9\n        /* \"#utility.yul\":14344:14357   */\n      dup3\n        /* \"#utility.yul\":14300:14363   */\n      tag_179\n      jump\t// in\n    tag_332:\n        /* \"#utility.yul\":14293:14363   */\n      swap8\n      pop\n        /* \"#utility.yul\":14386:14448   */\n      tag_333\n        /* \"#utility.yul\":14441:14447   */\n      dup4\n        /* \"#utility.yul\":14386:14448   */\n      tag_181\n      jump\t// in\n    tag_333:\n        /* \"#utility.yul\":14376:14448   */\n      swap3\n      pop\n        /* \"#utility.yul\":14203:14458   */\n      pop\n        /* \"#utility.yul\":14190:14191   */\n      0x01\n        /* \"#utility.yul\":14187:14188   */\n      dup2\n        /* \"#utility.yul\":14183:14192   */\n      add\n        /* \"#utility.yul\":14178:14192   */\n      swap1\n      pop\n        /* \"#utility.yul\":14143:14458   */\n      jump(tag_328)\n    tag_330:\n        /* \"#utility.yul\":14147:14161   */\n      pop\n        /* \"#utility.yul\":14474:14477   */\n      dup6\n        /* \"#utility.yul\":14467:14477   */\n      swap3\n      pop\n        /* \"#utility.yul\":13918:14483   */\n      pop\n      pop\n        /* \"#utility.yul\":13784:14483   */\n      swap4\n      swap3\n      pop\n      pop\n      pop\n      jump\t// out\n        /* \"#utility.yul\":14489:14673   */\n    tag_183:\n        /* \"#utility.yul\":14588:14599   */\n      0x00\n        /* \"#utility.yul\":14622:14628   */\n      dup3\n        /* \"#utility.yul\":14617:14620   */\n      dup3\n        /* \"#utility.yul\":14610:14629   */\n      mstore\n        /* \"#utility.yul\":14662:14666   */\n      0x20\n        /* \"#utility.yul\":14657:14660   */\n      dup3\n        /* \"#utility.yul\":14653:14667   */\n      add\n        /* \"#utility.yul\":14638:14667   */\n      swap1\n      pop\n        /* \"#utility.yul\":14489:14673   */\n      swap3\n      swap2\n      pop\n      pop\n      jump\t// out\n        /* \"#utility.yul\":14679:14796   */\n    tag_184:\n        /* \"#utility.yul\":14788:14789   */\n      0x00\n        /* \"#utility.yul\":14785:14786   */\n      dup1\n        /* \"#utility.yul\":14778:14790   */\n      revert\n        /* \"#utility.yul\":14802:14900   */\n    tag_185:\n        /* \"#utility.yul\":14886:14892   */\n      dup3\n        /* \"#utility.yul\":14881:14884   */\n      dup2\n        /* \"#utility.yul\":14876:14879   */\n      dup4\n        /* \"#utility.yul\":14863:14893   */\n      calldatacopy\n        /* \"#utility.yul\":14802:14900   */\n      pop\n      pop\n      pop\n      jump\t// out\n        /* \"#utility.yul\":14936:15473   */\n    tag_186:\n        /* \"#utility.yul\":15064:15067   */\n      0x00\n        /* \"#utility.yul\":15085:15171   */\n      tag_338\n        /* \"#utility.yul\":15164:15170   */\n      dup4\n        /* \"#utility.yul\":15159:15162   */\n      dup6\n        /* \"#utility.yul\":15085:15171   */\n      tag_183\n      jump\t// in\n    tag_338:\n        /* \"#utility.yul\":15078:15171   */\n      swap4\n      pop\n        /* \"#utility.yul\":15195:15261   */\n      0x07ffffffffffffffffffffffffffffffffffffffffffffffffffffffffffffff\n        /* \"#utility.yul\":15187:15193   */\n      dup4\n        /* \"#utility.yul\":15184:15262   */\n      gt\n        /* \"#utility.yul\":15181:15346   */\n      iszero\n      tag_339\n      jumpi\n        /* \"#utility.yul\":15265:15344   */\n      tag_340\n      tag_184\n      jump\t// in\n    tag_340:\n        /* \"#utility.yul\":15181:15346   */\n    tag_339:\n        /* \"#utility.yul\":15377:15381   */\n      0x20\n        /* \"#utility.yul\":15369:15375   */\n      dup4\n        /* \"#utility.yul\":15365:15382   */\n      mul\n        /* \"#utility.yul\":15355:15382   */\n      swap3\n      pop\n        /* \"#utility.yul\":15392:15435   */\n      tag_341\n        /* \"#utility.yul\":15428:15434   */\n      dup4\n        /* \"#utility.yul\":15423:15426   */\n      dup6\n        /* \"#utility.yul\":15416:15421   */\n      dup5\n        /* \"#utility.yul\":15392:15435   */\n      tag_185\n      jump\t// in\n    tag_341:\n        /* \"#utility.yul\":15460:15466   */\n      dup3\n        /* \"#utility.yul\":15455:15458   */\n      dup5\n        /* \"#utility.yul\":15451:15467   */\n      add\n        /* \"#utility.yul\":15444:15467   */\n      swap1\n      pop\n        /* \"#utility.yul\":14936:15473   */\n      swap4\n      swap3\n      pop\n      pop\n      pop\n      jump\t// out\n        /* \"#utility.yul\":15479:16938   */\n    tag_103:\n        /* \"#utility.yul\":15952:15956   */\n      0x00\n        /* \"#utility.yul\":15990:15993   */\n      0xc0\n        /* \"#utility.yul\":15979:15988   */\n      dup3\n        /* \"#utility.yul\":15975:15994   */\n      add\n        /* \"#utility.yul\":15967:15994   */\n      swap1\n      pop\n        /* \"#utility.yul\":16004:16075   */\n      tag_343\n        /* \"#utility.yul\":16072:16073   */\n      0x00\n        /* \"#utility.yul\":16061:16070   */\n      dup4\n        /* \"#utility.yul\":16057:16074   */\n      add\n        /* \"#utility.yul\":16048:16054   */\n      dup14\n        /* \"#utility.yul\":16004:16075   */\n      tag_147\n      jump\t// in\n    tag_343:\n        /* \"#utility.yul\":16122:16131   */\n      dup2\n        /* \"#utility.yul\":16116:16120   */\n      dup2\n        /* \"#utility.yul\":16112:16132   */\n      sub\n        /* \"#utility.yul\":16107:16109   */\n      0x20\n        /* \"#utility.yul\":16096:16105   */\n      dup4\n        /* \"#utility.yul\":16092:16110   */\n      add\n        /* \"#utility.yul\":16085:16133   */\n      mstore\n        /* \"#utility.yul\":16150:16268   */\n      tag_344\n        /* \"#utility.yul\":16263:16267   */\n      dup2\n        /* \"#utility.yul\":16254:16260   */\n      dup12\n        /* \"#utility.yul\":16246:16252   */\n      dup14\n        /* \"#utility.yul\":16150:16268   */\n      tag_182\n      jump\t// in\n    tag_344:\n        /* \"#utility.yul\":16142:16268   */\n      swap1\n      pop\n        /* \"#utility.yul\":16315:16324   */\n      dup2\n        /* \"#utility.yul\":16309:16313   */\n      dup2\n        /* \"#utility.yul\":16305:16325   */\n      sub\n        /* \"#utility.yul\":16300:16302   */\n      0x40\n        /* \"#utility.yul\":16289:16298   */\n      dup4\n        /* \"#utility.yul\":16285:16303   */\n      add\n        /* \"#utility.yul\":16278:16326   */\n      mstore\n        /* \"#utility.yul\":16343:16461   */\n      tag_345\n        /* \"#utility.yul\":16456:16460   */\n      dup2\n        /* \"#utility.yul\":16447:16453   */\n      dup10\n        /* \"#utility.yul\":16439:16445   */\n      dup12\n        /* \"#utility.yul\":16343:16461   */\n      tag_186\n      jump\t// in\n    tag_345:\n        /* \"#utility.yul\":16335:16461   */\n      swap1\n      pop\n        /* \"#utility.yul\":16508:16517   */\n      dup2\n        /* \"#utility.yul\":16502:16506   */\n      dup2\n        /* \"#utility.yul\":16498:16518   */\n      sub\n        /* \"#utility.yul\":16493:16495   */\n      0x60\n        /* \"#utility.yul\":16482:16491   */\n      dup4\n        /* \"#utility.yul\":16478:16496   */\n      add\n        /* \"#utility.yul\":16471:16519   */\n      mstore\n        /* \"#utility.yul\":16536:16654   */\n      tag_346\n        /* \"#utility.yul\":16649:16653   */\n      dup2\n        /* \"#utility.yul\":16640:16646   */\n      dup8\n        /* \"#utility.yul\":16632:16638   */\n      dup10\n        /* \"#utility.yul\":16536:16654   */\n      tag_182\n      jump\t// in\n    tag_346:\n        /* \"#utility.yul\":16528:16654   */\n      swap1\n      pop\n        /* \"#utility.yul\":16702:16711   */\n      dup2\n        /* \"#utility.yul\":16696:16700   */\n      dup2\n        /* \"#utility.yul\":16692:16712   */\n      sub\n        /* \"#utility.yul\":16686:16689   */\n      0x80\n        /* \"#utility.yul\":16675:16684   */\n      dup4\n        /* \"#utility.yul\":16671:16690   */\n      add\n        /* \"#utility.yul\":16664:16713   */\n      mstore\n        /* \"#utility.yul\":16730:16848   */\n      tag_347\n        /* \"#utility.yul\":16843:16847   */\n      dup2\n        /* \"#utility.yul\":16834:16840   */\n      dup6\n        /* \"#utility.yul\":16826:16832   */\n      dup8\n        /* \"#utility.yul\":16730:16848   */\n      tag_186\n      jump\t// in\n    tag_347:\n        /* \"#utility.yul\":16722:16848   */\n      swap1\n      pop\n        /* \"#utility.yul\":16858:16931   */\n      tag_348\n        /* \"#utility.yul\":16926:16929   */\n      0xa0\n        /* \"#utility.yul\":16915:16924   */\n      dup4\n        /* \"#utility.yul\":16911:16930   */\n      add\n        /* \"#utility.yul\":16902:16908   */\n      dup5\n        /* \"#utility.yul\":16858:16931   */\n      tag_165\n      jump\t// in\n    tag_348:\n        /* \"#utility.yul\":15479:16938   */\n      swap12\n      swap11\n      pop\n      pop\n      pop\n      pop\n      pop\n      pop\n      pop\n      pop\n      pop\n      pop\n      pop\n      jump\t// out\n        /* \"#utility.yul\":16944:17158   */\n    tag_187:\n        /* \"#utility.yul\":17084:17150   */\n      0xe8bdace8b4a6e695b0e9878fe5bf85e9a1bbe5a4a7e4ba8e2030000000000000\n        /* \"#utility.yul\":17080:17081   */\n      0x00\n        /* \"#utility.yul\":17072:17078   */\n      dup3\n        /* \"#utility.yul\":17068:17082   */\n      add\n        /* \"#utility.yul\":17061:17151   */\n      mstore\n        /* \"#utility.yul\":16944:17158   */\n      pop\n      jump\t// out\n        /* \"#utility.yul\":17164:17530   */\n    tag_188:\n        /* \"#utility.yul\":17306:17309   */\n      0x00\n        /* \"#utility.yul\":17327:17394   */\n      tag_351\n        /* \"#utility.yul\":17391:17393   */\n      0x1a\n        /* \"#utility.yul\":17386:17389   */\n      dup4\n        /* \"#utility.yul\":17327:17394   */\n      tag_166\n      jump\t// in\n    tag_351:\n        /* \"#utility.yul\":17320:17394   */\n      swap2\n      pop\n        /* \"#utility.yul\":17403:17496   */\n      tag_352\n        /* \"#utility.yul\":17492:17495   */\n      dup3\n        /* \"#utility.yul\":17403:17496   */\n      tag_187\n      jump\t// in\n    tag_352:\n        /* \"#utility.yul\":17521:17523   */\n      0x20\n        /* \"#utility.yul\":17516:17519   */\n      dup3\n        /* \"#utility.yul\":17512:17524   */\n      add\n        /* \"#utility.yul\":17505:17524   */\n      swap1\n      pop\n        /* \"#utility.yul\":17164:17530   */\n      swap2\n      swap1\n      pop\n      jump\t// out\n        /* \"#utility.yul\":17536:17955   */\n    tag_114:\n        /* \"#utility.yul\":17702:17706   */\n      0x00\n        /* \"#utility.yul\":17740:17742   */\n      0x20\n        /* \"#utility.yul\":17729:17738   */\n      dup3\n        /* \"#utility.yul\":17725:17743   */\n      add\n        /* \"#utility.yul\":17717:17743   */\n      swap1\n      pop\n        /* \"#utility.yul\":17789:17798   */\n      dup2\n        /* \"#utility.yul\":17783:17787   */\n      dup2\n        /* \"#utility.yul\":17779:17799   */\n      sub\n        /* \"#utility.yul\":17775:17776   */\n      0x00\n        /* \"#utility.yul\":17764:17773   */\n      dup4\n        /* \"#utility.yul\":17760:17777   */\n      add\n        /* \"#utility.yul\":17753:17800   */\n      mstore\n        /* \"#utility.yul\":17817:17948   */\n      tag_354\n        /* \"#utility.yul\":17943:17947   */\n      dup2\n        /* \"#utility.yul\":17817:17948   */\n      tag_188\n      jump\t// in\n    tag_354:\n        /* \"#utility.yul\":17809:17948   */\n      swap1\n      pop\n        /* \"#utility.yul\":17536:17955   */\n      swap2\n      swap1\n      pop\n      jump\t// out\n        /* \"#utility.yul\":17961:18175   */\n    tag_189:\n        /* \"#utility.yul\":18101:18167   */\n      0xe5bf85e9a1bbe58f91e980812045544800000000000000000000000000000000\n        /* \"#utility.yul\":18097:18098   */\n      0x00\n        /* \"#utility.yul\":18089:18095   */\n      dup3\n        /* \"#utility.yul\":18085:18099   */\n      add\n        /* \"#utility.yul\":18078:18168   */\n      mstore\n        /* \"#utility.yul\":17961:18175   */\n      pop\n      jump\t// out\n        /* \"#utility.yul\":18181:18547   */\n    tag_190:\n        /* \"#utility.yul\":18323:18326   */\n      0x00\n        /* \"#utility.yul\":18344:18411   */\n      tag_357\n        /* \"#utility.yul\":18408:18410   */\n      0x10\n        /* \"#utility.yul\":18403:18406   */\n      dup4\n        /* \"#utility.yul\":18344:18411   */\n      tag_166\n      jump\t// in\n    tag_357:\n        /* \"#utility.yul\":18337:18411   */\n      swap2\n      pop\n        /* \"#utility.yul\":18420:18513   */\n      tag_358\n        /* \"#utility.yul\":18509:18512   */\n      dup3\n        /* \"#utility.yul\":18420:18513   */\n      tag_189\n      jump\t// in\n    tag_358:\n        /* \"#utility.yul\":18538:18540   */\n      0x20\n        /* \"#utility.yul\":18533:18536   */\n      dup3\n        /* \"#utility.yul\":18529:18541   */\n      add\n        /* \"#utility.yul\":18522:18541   */\n      swap1\n      pop\n        /* \"#utility.yul\":18181:18547   */\n      swap2\n      swap1\n      pop\n      jump\t// out\n        /* \"#utility.yul\":18553:18972   */\n    tag_135:\n        /* \"#utility.yul\":18719:18723   */\n      0x00\n        /* \"#utility.yul\":18757:18759   */\n      0x20\n        /* \"#utility.yul\":18746:18755   */\n      dup3\n        /* \"#utility.yul\":18742:18760   */\n      add\n        /* \"#utility.yul\":18734:18760   */\n      swap1\n      pop\n        /* \"#utility.yul\":18806:18815   */\n      dup2\n        /* \"#utility.yul\":18800:18804   */\n      dup2\n        /* \"#utility.yul\":18796:18816   */\n      sub\n        /* \"#utility.yul\":18792:18793   */\n      0x00\n        /* \"#utility.yul\":18781:18790   */\n      dup4\n        /* \"#utility.yul\":18777:18794   */\n      add\n        /* \"#utility.yul\":18770:18817   */\n      mstore\n        /* \"#utility.yul\":18834:18965   */\n      tag_360\n        /* \"#utility.yul\":18960:18964   */\n      dup2\n        /* \"#utility.yul\":18834:18965   */\n      tag_190\n      jump\t// in\n    tag_360:\n        /* \"#utility.yul\":18826:18965   */\n      swap1\n      pop\n        /* \"#utility.yul\":18553:18972   */\n      swap2\n      swap1\n      pop\n      jump\t// out\n\n    auxdata: 0xa2646970667358221220d8ab76c7ebc8e7442a9437f0205211cb9538cadf318efe26ab429f511c28cff964736f6c63430008180033\n}\n",
				"bytecode": {
					"linkReferences": {},
					"object": "608060405234801562000010575f80fd5b50335f73ffffffffffffffffffffffffffffffffffffffff168173ffffffffffffffffffffffffffffffffffffffff160362000085575f6040517f1e4fbdf70000000000000000000000000000000000000000000000000000000081526004016200007c9190620001a1565b60405180910390fd5b62000096816200009d60201b60201c565b50620001bc565b5f805f9054906101000a900473ffffffffffffffffffffffffffffffffffffffff169050815f806101000a81548173ffffffffffffffffffffffffffffffffffffffff021916908373ffffffffffffffffffffffffffffffffffffffff1602179055508173ffffffffffffffffffffffffffffffffffffffff168173ffffffffffffffffffffffffffffffffffffffff167f8be0079c531659141344cd1fd0a4f28419497f9722a3daafe3b4186f6b6457e060405160405180910390a35050565b5f73ffffffffffffffffffffffffffffffffffffffff82169050919050565b5f62000189826200015e565b9050919050565b6200019b816200017d565b82525050565b5f602082019050620001b65f83018462000190565b92915050565b61131380620001ca5f395ff3fe60806040526004361061007e575f3560e01c806397feb9261161004d57806397feb9261461017b578063d29a4bf6146101a3578063f2fde38b146101cb578063f6326fb3146101f3576100d3565b8063150b7a02146100d75780632dae858014610113578063715018a61461013b5780638da5cb5b14610151576100d3565b366100d3573373ffffffffffffffffffffffffffffffffffffffff167f2da466a7b24304f47e87fa2e1e5a81b9831ce54fec19055ce277ca2f39ba42c4346040516100c99190610a29565b60405180910390a2005b5f80fd5b3480156100e2575f80fd5b506100fd60048036038101906100f89190610b2f565b6101fd565b60405161010a9190610bed565b60405180910390f35b34801561011e575f80fd5b5061013960048036038101906101349190610cb0565b610211565b005b348015610146575f80fd5b5061014f610576565b005b34801561015c575f80fd5b50610165610589565b6040516101729190610da3565b60405180910390f35b348015610186575f80fd5b506101a1600480360381019061019c9190610dbc565b6105b0565b005b3480156101ae575f80fd5b506101c960048036038101906101c49190610dbc565b6106d9565b005b3480156101d6575f80fd5b506101f160048036038101906101ec9190610dfa565b6107ac565b005b6101fb610830565b005b5f63150b7a0260e01b905095945050505050565b6102196108c2565b5f4790505f8111156102715761022d610589565b73ffffffffffffffffffffffffffffffffffffffff166108fc8290811502906040515f60405180830381858888f1935050505015801561026f573d5f803e3d5ffd5b505b8686905089899050146102b9576040517f08c379a00000000000000000000000000000000000000000000000000000000081526004016102b090610e7f565b60405180910390fd5b5f5b898990508110156103e7575f8a8a838181106102da576102d9610e9d565b5b90506020020160208101906102ef9190610dfa565b90505f89898481811061030557610304610e9d565b5b9050602002013590505f8111156103d8578173ffffffffffffffffffffffffffffffffffffffff1663a9059cbb61033a610589565b836040518363ffffffff1660e01b8152600401610358929190610eca565b6020604051808303815f875af1158015610374573d5f803e3d5ffd5b505050506040513d601f19601f820116820180604052508101906103989190610f26565b6103d7576040517f08c379a00000000000000000000000000000000000000000000000000000000081526004016103ce90610f9b565b60405180910390fd5b5b505080806001019150506102bb565b50828290508585905014610430576040517f08c379a000000000000000000000000000000000000000000000000000000000815260040161042790611003565b60405180910390fd5b5f5b85859050811015610505575f86868381811061045157610450610e9d565b5b90506020020160208101906104669190610dfa565b90505f85858481811061047c5761047b610e9d565b5b9050602002013590508173ffffffffffffffffffffffffffffffffffffffff166342842e0e306104aa610589565b846040518463ffffffff1660e01b81526004016104c993929190611021565b5f604051808303815f87803b1580156104e0575f80fd5b505af11580156104f2573d5f803e3d5ffd5b5050505050508080600101915050610432565b507f0fa2464656246d4bb66b0fd065940bebf2d54af12b3d465e5da042f97cf6091b818a8a8a8a8a8a8a8a610538610589565b60405161054e9a9998979695949392919061118a565b60405180910390a161055e610589565b73ffffffffffffffffffffffffffffffffffffffff16ff5b61057e6108c2565b6105875f610949565b565b5f805f9054906101000a900473ffffffffffffffffffffffffffffffffffffffff16905090565b5f81116105f2576040517f08c379a00000000000000000000000000000000000000000000000000000000081526004016105e990611257565b60405180910390fd5b8173ffffffffffffffffffffffffffffffffffffffff166323b872dd3330846040518463ffffffff1660e01b815260040161062f93929190611021565b6020604051808303815f875af115801561064b573d5f803e3d5ffd5b505050506040513d601f19601f8201168201806040525081019061066f9190610f26565b508173ffffffffffffffffffffffffffffffffffffffff163373ffffffffffffffffffffffffffffffffffffffff167fe33e9822e3317b004d587136bab2627ea1ecfbba4eb79abddd0a56cfdd09c0e1836040516106cd9190610a29565b60405180910390a35050565b8173ffffffffffffffffffffffffffffffffffffffff166342842e0e3330846040518463ffffffff1660e01b815260040161071693929190611021565b5f604051808303815f87803b15801561072d575f80fd5b505af115801561073f573d5f803e3d5ffd5b505050508173ffffffffffffffffffffffffffffffffffffffff163373ffffffffffffffffffffffffffffffffffffffff167f20d9d42fbcdd65fce5c3986b701b04ffb8e09852d04a93422dd4be124ae10a8e836040516107a09190610a29565b60405180910390a35050565b6107b46108c2565b5f73ffffffffffffffffffffffffffffffffffffffff168173ffffffffffffffffffffffffffffffffffffffff1603610824575f6040517f1e4fbdf700000000000000000000000000000000000000000000000000000000815260040161081b9190610da3565b60405180910390fd5b61082d81610949565b50565b5f3411610872576040517f08c379a0000000000000000000000000000000000000000000000000000000008152600401610869906112bf565b60405180910390fd5b3373ffffffffffffffffffffffffffffffffffffffff167f2da466a7b24304f47e87fa2e1e5a81b9831ce54fec19055ce277ca2f39ba42c4346040516108b89190610a29565b60405180910390a2565b6108ca610a0a565b73ffffffffffffffffffffffffffffffffffffffff166108e8610589565b73ffffffffffffffffffffffffffffffffffffffff16146109475761090b610a0a565b6040517f118cdaa700000000000000000000000000000000000000000000000000000000815260040161093e9190610da3565b60405180910390fd5b565b5f805f9054906101000a900473ffffffffffffffffffffffffffffffffffffffff169050815f806101000a81548173ffffffffffffffffffffffffffffffffffffffff021916908373ffffffffffffffffffffffffffffffffffffffff1602179055508173ffffffffffffffffffffffffffffffffffffffff168173ffffffffffffffffffffffffffffffffffffffff167f8be0079c531659141344cd1fd0a4f28419497f9722a3daafe3b4186f6b6457e060405160405180910390a35050565b5f33905090565b5f819050919050565b610a2381610a11565b82525050565b5f602082019050610a3c5f830184610a1a565b92915050565b5f80fd5b5f80fd5b5f73ffffffffffffffffffffffffffffffffffffffff82169050919050565b5f610a7382610a4a565b9050919050565b610a8381610a69565b8114610a8d575f80fd5b50565b5f81359050610a9e81610a7a565b92915050565b610aad81610a11565b8114610ab7575f80fd5b50565b5f81359050610ac881610aa4565b92915050565b5f80fd5b5f80fd5b5f80fd5b5f8083601f840112610aef57610aee610ace565b5b8235905067ffffffffffffffff811115610b0c57610b0b610ad2565b5b602083019150836001820283011115610b2857610b27610ad6565b5b9250929050565b5f805f805f60808688031215610b4857610b47610a42565b5b5f610b5588828901610a90565b9550506020610b6688828901610a90565b9450506040610b7788828901610aba565b935050606086013567ffffffffffffffff811115610b9857610b97610a46565b5b610ba488828901610ada565b92509250509295509295909350565b5f7fffffffff0000000000000000000000000000000000000000000000000000000082169050919050565b610be781610bb3565b82525050565b5f602082019050610c005f830184610bde565b92915050565b5f8083601f840112610c1b57610c1a610ace565b5b8235905067ffffffffffffffff811115610c3857610c37610ad2565b5b602083019150836020820283011115610c5457610c53610ad6565b5b9250929050565b5f8083601f840112610c7057610c6f610ace565b5b8235905067ffffffffffffffff811115610c8d57610c8c610ad2565b5b602083019150836020820283011115610ca957610ca8610ad6565b5b9250929050565b5f805f805f805f806080898b031215610ccc57610ccb610a42565b5b5f89013567ffffffffffffffff811115610ce957610ce8610a46565b5b610cf58b828c01610c06565b9850985050602089013567ffffffffffffffff811115610d1857610d17610a46565b5b610d248b828c01610c5b565b9650965050604089013567ffffffffffffffff811115610d4757610d46610a46565b5b610d538b828c01610c06565b9450945050606089013567ffffffffffffffff811115610d7657610d75610a46565b5b610d828b828c01610c5b565b92509250509295985092959890939650565b610d9d81610a69565b82525050565b5f602082019050610db65f830184610d94565b92915050565b5f8060408385031215610dd257610dd1610a42565b5b5f610ddf85828601610a90565b9250506020610df085828601610aba565b9150509250929050565b5f60208284031215610e0f57610e0e610a42565b5b5f610e1c84828501610a90565b91505092915050565b5f82825260208201905092915050565b7f455243323020e695b0e7bb84e995bfe5baa6e4b88de58cb9e9858d00000000005f82015250565b5f610e69601b83610e25565b9150610e7482610e35565b602082019050919050565b5f6020820190508181035f830152610e9681610e5d565b9050919050565b7f4e487b71000000000000000000000000000000000000000000000000000000005f52603260045260245ffd5b5f604082019050610edd5f830185610d94565b610eea6020830184610a1a565b9392505050565b5f8115159050919050565b610f0581610ef1565b8114610f0f575f80fd5b50565b5f81519050610f2081610efc565b92915050565b5f60208284031215610f3b57610f3a610a42565b5b5f610f4884828501610f12565b91505092915050565b7f455243323020e8bdace8b4a6e5a4b1e8b4a500000000000000000000000000005f82015250565b5f610f85601283610e25565b9150610f9082610f51565b602082019050919050565b5f6020820190508181035f830152610fb281610f79565b9050919050565b7f45524337323120e695b0e7bb84e995bfe5baa6e4b88de58cb9e9858d000000005f82015250565b5f610fed601c83610e25565b9150610ff882610fb9565b602082019050919050565b5f6020820190508181035f83015261101a81610fe1565b9050919050565b5f6060820190506110345f830186610d94565b6110416020830185610d94565b61104e6040830184610a1a565b949350505050565b5f82825260208201905092915050565b5f819050919050565b61107881610a69565b82525050565b5f611089838361106f565b60208301905092915050565b5f6110a36020840184610a90565b905092915050565b5f602082019050919050565b5f6110c28385611056565b93506110cd82611066565b805f5b85811015611105576110e28284611095565b6110ec888261107e565b97506110f7836110ab565b9250506001810190506110d0565b5085925050509392505050565b5f82825260208201905092915050565b5f80fd5b82818337505050565b5f61113a8385611112565b93507f07ffffffffffffffffffffffffffffffffffffffffffffffffffffffffffffff83111561116d5761116c611122565b5b60208302925061117e838584611126565b82840190509392505050565b5f60c08201905061119d5f83018d610a1a565b81810360208301526111b0818b8d6110b7565b905081810360408301526111c581898b61112f565b905081810360608301526111da8187896110b7565b905081810360808301526111ef81858761112f565b90506111fe60a0830184610d94565b9b9a5050505050505050505050565b7fe8bdace8b4a6e695b0e9878fe5bf85e9a1bbe5a4a7e4ba8e20300000000000005f82015250565b5f611241601a83610e25565b915061124c8261120d565b602082019050919050565b5f6020820190508181035f83015261126e81611235565b9050919050565b7fe5bf85e9a1bbe58f91e9808120455448000000000000000000000000000000005f82015250565b5f6112a9601083610e25565b91506112b482611275565b602082019050919050565b5f6020820190508181035f8301526112d68161129d565b905091905056fea2646970667358221220d8ab76c7ebc8e7442a9437f0205211cb9538cadf318efe26ab429f511c28cff964736f6c63430008180033",
					"opcodes": "PUSH1 0x80 PUSH1 0x40 MSTORE CALLVALUE DUP1 ISZERO PUSH3 0x10 JUMPI PUSH0 DUP1 REVERT JUMPDEST POP CALLER PUSH0 PUSH20 0xFFFFFFFFFFFFFFFFFFFFFFFFFFFFFFFFFFFFFFFF AND DUP2 PUSH20 0xFFFFFFFFFFFFFFFFFFFFFFFFFFFFFFFFFFFFFFFF AND SUB PUSH3 0x85 JUMPI PUSH0 PUSH1 0x40 MLOAD PUSH32 0x1E4FBDF700000000000000000000000000000000000000000000000000000000 DUP2 MSTORE PUSH1 0x4 ADD PUSH3 0x7C SWAP2 SWAP1 PUSH3 0x1A1 JUMP JUMPDEST PUSH1 0x40 MLOAD DUP1 SWAP2 SUB SWAP1 REVERT JUMPDEST PUSH3 0x96 DUP2 PUSH3 0x9D PUSH1 0x20 SHL PUSH1 0x20 SHR JUMP JUMPDEST POP PUSH3 0x1BC JUMP JUMPDEST PUSH0 DUP1 PUSH0 SWAP1 SLOAD SWAP1 PUSH2 0x100 EXP SWAP1 DIV PUSH20 0xFFFFFFFFFFFFFFFFFFFFFFFFFFFFFFFFFFFFFFFF AND SWAP1 POP DUP2 PUSH0 DUP1 PUSH2 0x100 EXP DUP2 SLOAD DUP2 PUSH20 0xFFFFFFFFFFFFFFFFFFFFFFFFFFFFFFFFFFFFFFFF MUL NOT AND SWAP1 DUP4 PUSH20 0xFFFFFFFFFFFFFFFFFFFFFFFFFFFFFFFFFFFFFFFF AND MUL OR SWAP1 SSTORE POP DUP2 PUSH20 0xFFFFFFFFFFFFFFFFFFFFFFFFFFFFFFFFFFFFFFFF AND DUP2 PUSH20 0xFFFFFFFFFFFFFFFFFFFFFFFFFFFFFFFFFFFFFFFF AND PUSH32 0x8BE0079C531659141344CD1FD0A4F28419497F9722A3DAAFE3B4186F6B6457E0 PUSH1 0x40 MLOAD PUSH1 0x40 MLOAD DUP1 SWAP2 SUB SWAP1 LOG3 POP POP JUMP JUMPDEST PUSH0 PUSH20 0xFFFFFFFFFFFFFFFFFFFFFFFFFFFFFFFFFFFFFFFF DUP3 AND SWAP1 POP SWAP2 SWAP1 POP JUMP JUMPDEST PUSH0 PUSH3 0x189 DUP3 PUSH3 0x15E JUMP JUMPDEST SWAP1 POP SWAP2 SWAP1 POP JUMP JUMPDEST PUSH3 0x19B DUP2 PUSH3 0x17D JUMP JUMPDEST DUP3 MSTORE POP POP JUMP JUMPDEST PUSH0 PUSH1 0x20 DUP3 ADD SWAP1 POP PUSH3 0x1B6 PUSH0 DUP4 ADD DUP5 PUSH3 0x190 JUMP JUMPDEST SWAP3 SWAP2 POP POP JUMP JUMPDEST PUSH2 0x1313 DUP1 PUSH3 0x1CA PUSH0 CODECOPY PUSH0 RETURN INVALID PUSH1 0x80 PUSH1 0x40 MSTORE PUSH1 0x4 CALLDATASIZE LT PUSH2 0x7E JUMPI PUSH0 CALLDATALOAD PUSH1 0xE0 SHR DUP1 PUSH4 0x97FEB926 GT PUSH2 0x4D JUMPI DUP1 PUSH4 0x97FEB926 EQ PUSH2 0x17B JUMPI DUP1 PUSH4 0xD29A4BF6 EQ PUSH2 0x1A3 JUMPI DUP1 PUSH4 0xF2FDE38B EQ PUSH2 0x1CB JUMPI DUP1 PUSH4 0xF6326FB3 EQ PUSH2 0x1F3 JUMPI PUSH2 0xD3 JUMP JUMPDEST DUP1 PUSH4 0x150B7A02 EQ PUSH2 0xD7 JUMPI DUP1 PUSH4 0x2DAE8580 EQ PUSH2 0x113 JUMPI DUP1 PUSH4 0x715018A6 EQ PUSH2 0x13B JUMPI DUP1 PUSH4 0x8DA5CB5B EQ PUSH2 0x151 JUMPI PUSH2 0xD3 JUMP JUMPDEST CALLDATASIZE PUSH2 0xD3 JUMPI CALLER PUSH20 0xFFFFFFFFFFFFFFFFFFFFFFFFFFFFFFFFFFFFFFFF AND PUSH32 0x2DA466A7B24304F47E87FA2E1E5A81B9831CE54FEC19055CE277CA2F39BA42C4 CALLVALUE PUSH1 0x40 MLOAD PUSH2 0xC9 SWAP2 SWAP1 PUSH2 0xA29 JUMP JUMPDEST PUSH1 0x40 MLOAD DUP1 SWAP2 SUB SWAP1 LOG2 STOP JUMPDEST PUSH0 DUP1 REVERT JUMPDEST CALLVALUE DUP1 ISZERO PUSH2 0xE2 JUMPI PUSH0 DUP1 REVERT JUMPDEST POP PUSH2 0xFD PUSH1 0x4 DUP1 CALLDATASIZE SUB DUP2 ADD SWAP1 PUSH2 0xF8 SWAP2 SWAP1 PUSH2 0xB2F JUMP JUMPDEST PUSH2 0x1FD JUMP JUMPDEST PUSH1 0x40 MLOAD PUSH2 0x10A SWAP2 SWAP1 PUSH2 0xBED JUMP JUMPDEST PUSH1 0x40 MLOAD DUP1 SWAP2 SUB SWAP1 RETURN JUMPDEST CALLVALUE DUP1 ISZERO PUSH2 0x11E JUMPI PUSH0 DUP1 REVERT JUMPDEST POP PUSH2 0x139 PUSH1 0x4 DUP1 CALLDATASIZE SUB DUP2 ADD SWAP1 PUSH2 0x134 SWAP2 SWAP1 PUSH2 0xCB0 JUMP JUMPDEST PUSH2 0x211 JUMP JUMPDEST STOP JUMPDEST CALLVALUE DUP1 ISZERO PUSH2 0x146 JUMPI PUSH0 DUP1 REVERT JUMPDEST POP PUSH2 0x14F PUSH2 0x576 JUMP JUMPDEST STOP JUMPDEST CALLVALUE DUP1 ISZERO PUSH2 0x15C JUMPI PUSH0 DUP1 REVERT JUMPDEST POP PUSH2 0x165 PUSH2 0x589 JUMP JUMPDEST PUSH1 0x40 MLOAD PUSH2 0x172 SWAP2 SWAP1 PUSH2 0xDA3 JUMP JUMPDEST PUSH1 0x40 MLOAD DUP1 SWAP2 SUB SWAP1 RETURN JUMPDEST CALLVALUE DUP1 ISZERO PUSH2 0x186 JUMPI PUSH0 DUP1 REVERT JUMPDEST POP PUSH2 0x1A1 PUSH1 0x4 DUP1 CALLDATASIZE SUB DUP2 ADD SWAP1 PUSH2 0x19C SWAP2 SWAP1 PUSH2 0xDBC JUMP JUMPDEST PUSH2 0x5B0 JUMP JUMPDEST STOP JUMPDEST CALLVALUE DUP1 ISZERO PUSH2 0x1AE JUMPI PUSH0 DUP1 REVERT JUMPDEST POP PUSH2 0x1C9 PUSH1 0x4 DUP1 CALLDATASIZE SUB DUP2 ADD SWAP1 PUSH2 0x1C4 SWAP2 SWAP1 PUSH2 0xDBC JUMP JUMPDEST PUSH2 0x6D9 JUMP JUMPDEST STOP JUMPDEST CALLVALUE DUP1 ISZERO PUSH2 0x1D6 JUMPI PUSH0 DUP1 REVERT JUMPDEST POP PUSH2 0x1F1 PUSH1 0x4 DUP1 CALLDATASIZE SUB DUP2 ADD SWAP1 PUSH2 0x1EC SWAP2 SWAP1 PUSH2 0xDFA JUMP JUMPDEST PUSH2 0x7AC JUMP JUMPDEST STOP JUMPDEST PUSH2 0x1FB PUSH2 0x830 JUMP JUMPDEST STOP JUMPDEST PUSH0 PUSH4 0x150B7A02 PUSH1 0xE0 SHL SWAP1 POP SWAP6 SWAP5 POP POP POP POP POP JUMP JUMPDEST PUSH2 0x219 PUSH2 0x8C2 JUMP JUMPDEST PUSH0 SELFBALANCE SWAP1 POP PUSH0 DUP2 GT ISZERO PUSH2 0x271 JUMPI PUSH2 0x22D PUSH2 0x589 JUMP JUMPDEST PUSH20 0xFFFFFFFFFFFFFFFFFFFFFFFFFFFFFFFFFFFFFFFF AND PUSH2 0x8FC DUP3 SWAP1 DUP2 ISZERO MUL SWAP1 PUSH1 0x40 MLOAD PUSH0 PUSH1 0x40 MLOAD DUP1 DUP4 SUB DUP2 DUP6 DUP9 DUP9 CALL SWAP4 POP POP POP POP ISZERO DUP1 ISZERO PUSH2 0x26F JUMPI RETURNDATASIZE PUSH0 DUP1 RETURNDATACOPY RETURNDATASIZE PUSH0 REVERT JUMPDEST POP JUMPDEST DUP7 DUP7 SWAP1 POP DUP10 DUP10 SWAP1 POP EQ PUSH2 0x2B9 JUMPI PUSH1 0x40 MLOAD PUSH32 0x8C379A000000000000000000000000000000000000000000000000000000000 DUP2 MSTORE PUSH1 0x4 ADD PUSH2 0x2B0 SWAP1 PUSH2 0xE7F JUMP JUMPDEST PUSH1 0x40 MLOAD DUP1 SWAP2 SUB SWAP1 REVERT JUMPDEST PUSH0 JUMPDEST DUP10 DUP10 SWAP1 POP DUP2 LT ISZERO PUSH2 0x3E7 JUMPI PUSH0 DUP11 DUP11 DUP4 DUP2 DUP2 LT PUSH2 0x2DA JUMPI PUSH2 0x2D9 PUSH2 0xE9D JUMP JUMPDEST JUMPDEST SWAP1 POP PUSH1 0x20 MUL ADD PUSH1 0x20 DUP2 ADD SWAP1 PUSH2 0x2EF SWAP2 SWAP1 PUSH2 0xDFA JUMP JUMPDEST SWAP1 POP PUSH0 DUP10 DUP10 DUP5 DUP2 DUP2 LT PUSH2 0x305 JUMPI PUSH2 0x304 PUSH2 0xE9D JUMP JUMPDEST JUMPDEST SWAP1 POP PUSH1 0x20 MUL ADD CALLDATALOAD SWAP1 POP PUSH0 DUP2 GT ISZERO PUSH2 0x3D8 JUMPI DUP2 PUSH20 0xFFFFFFFFFFFFFFFFFFFFFFFFFFFFFFFFFFFFFFFF AND PUSH4 0xA9059CBB PUSH2 0x33A PUSH2 0x589 JUMP JUMPDEST DUP4 PUSH1 0x40 MLOAD DUP4 PUSH4 0xFFFFFFFF AND PUSH1 0xE0 SHL DUP2 MSTORE PUSH1 0x4 ADD PUSH2 0x358 SWAP3 SWAP2 SWAP1 PUSH2 0xECA JUMP JUMPDEST PUSH1 0x20 PUSH1 0x40 MLOAD DUP1 DUP4 SUB DUP2 PUSH0 DUP8 GAS CALL ISZERO DUP1 ISZERO PUSH2 0x374 JUMPI RETURNDATASIZE PUSH0 DUP1 RETURNDATACOPY RETURNDATASIZE PUSH0 REVERT JUMPDEST POP POP POP POP PUSH1 0x40 MLOAD RETURNDATASIZE PUSH1 0x1F NOT PUSH1 0x1F DUP3 ADD AND DUP3 ADD DUP1 PUSH1 0x40 MSTORE POP DUP2 ADD SWAP1 PUSH2 0x398 SWAP2 SWAP1 PUSH2 0xF26 JUMP JUMPDEST PUSH2 0x3D7 JUMPI PUSH1 0x40 MLOAD PUSH32 0x8C379A000000000000000000000000000000000000000000000000000000000 DUP2 MSTORE PUSH1 0x4 ADD PUSH2 0x3CE SWAP1 PUSH2 0xF9B JUMP JUMPDEST PUSH1 0x40 MLOAD DUP1 SWAP2 SUB SWAP1 REVERT JUMPDEST JUMPDEST POP POP DUP1 DUP1 PUSH1 0x1 ADD SWAP2 POP POP PUSH2 0x2BB JUMP JUMPDEST POP DUP3 DUP3 SWAP1 POP DUP6 DUP6 SWAP1 POP EQ PUSH2 0x430 JUMPI PUSH1 0x40 MLOAD PUSH32 0x8C379A000000000000000000000000000000000000000000000000000000000 DUP2 MSTORE PUSH1 0x4 ADD PUSH2 0x427 SWAP1 PUSH2 0x1003 JUMP JUMPDEST PUSH1 0x40 MLOAD DUP1 SWAP2 SUB SWAP1 REVERT JUMPDEST PUSH0 JUMPDEST DUP6 DUP6 SWAP1 POP DUP2 LT ISZERO PUSH2 0x505 JUMPI PUSH0 DUP7 DUP7 DUP4 DUP2 DUP2 LT PUSH2 0x451 JUMPI PUSH2 0x450 PUSH2 0xE9D JUMP JUMPDEST JUMPDEST SWAP1 POP PUSH1 0x20 MUL ADD PUSH1 0x20 DUP2 ADD SWAP1 PUSH2 0x466 SWAP2 SWAP1 PUSH2 0xDFA JUMP JUMPDEST SWAP1 POP PUSH0 DUP6 DUP6 DUP5 DUP2 DUP2 LT PUSH2 0x47C JUMPI PUSH2 0x47B PUSH2 0xE9D JUMP JUMPDEST JUMPDEST SWAP1 POP PUSH1 0x20 MUL ADD CALLDATALOAD SWAP1 POP DUP2 PUSH20 0xFFFFFFFFFFFFFFFFFFFFFFFFFFFFFFFFFFFFFFFF AND PUSH4 0x42842E0E ADDRESS PUSH2 0x4AA PUSH2 0x589 JUMP JUMPDEST DUP5 PUSH1 0x40 MLOAD DUP5 PUSH4 0xFFFFFFFF AND PUSH1 0xE0 SHL DUP2 MSTORE PUSH1 0x4 ADD PUSH2 0x4C9 SWAP4 SWAP3 SWAP2 SWAP1 PUSH2 0x1021 JUMP JUMPDEST PUSH0 PUSH1 0x40 MLOAD DUP1 DUP4 SUB DUP2 PUSH0 DUP8 DUP1 EXTCODESIZE ISZERO DUP1 ISZERO PUSH2 0x4E0 JUMPI PUSH0 DUP1 REVERT JUMPDEST POP GAS CALL ISZERO DUP1 ISZERO PUSH2 0x4F2 JUMPI RETURNDATASIZE PUSH0 DUP1 RETURNDATACOPY RETURNDATASIZE PUSH0 REVERT JUMPDEST POP POP POP POP POP POP DUP1 DUP1 PUSH1 0x1 ADD SWAP2 POP POP PUSH2 0x432 JUMP JUMPDEST POP PUSH32 0xFA2464656246D4BB66B0FD065940BEBF2D54AF12B3D465E5DA042F97CF6091B DUP2 DUP11 DUP11 DUP11 DUP11 DUP11 DUP11 DUP11 DUP11 PUSH2 0x538 PUSH2 0x589 JUMP JUMPDEST PUSH1 0x40 MLOAD PUSH2 0x54E SWAP11 SWAP10 SWAP9 SWAP8 SWAP7 SWAP6 SWAP5 SWAP4 SWAP3 SWAP2 SWAP1 PUSH2 0x118A JUMP JUMPDEST PUSH1 0x40 MLOAD DUP1 SWAP2 SUB SWAP1 LOG1 PUSH2 0x55E PUSH2 0x589 JUMP JUMPDEST PUSH20 0xFFFFFFFFFFFFFFFFFFFFFFFFFFFFFFFFFFFFFFFF AND SELFDESTRUCT JUMPDEST PUSH2 0x57E PUSH2 0x8C2 JUMP JUMPDEST PUSH2 0x587 PUSH0 PUSH2 0x949 JUMP JUMPDEST JUMP JUMPDEST PUSH0 DUP1 PUSH0 SWAP1 SLOAD SWAP1 PUSH2 0x100 EXP SWAP1 DIV PUSH20 0xFFFFFFFFFFFFFFFFFFFFFFFFFFFFFFFFFFFFFFFF AND SWAP1 POP SWAP1 JUMP JUMPDEST PUSH0 DUP2 GT PUSH2 0x5F2 JUMPI PUSH1 0x40 MLOAD PUSH32 0x8C379A000000000000000000000000000000000000000000000000000000000 DUP2 MSTORE PUSH1 0x4 ADD PUSH2 0x5E9 SWAP1 PUSH2 0x1257 JUMP JUMPDEST PUSH1 0x40 MLOAD DUP1 SWAP2 SUB SWAP1 REVERT JUMPDEST DUP2 PUSH20 0xFFFFFFFFFFFFFFFFFFFFFFFFFFFFFFFFFFFFFFFF AND PUSH4 0x23B872DD CALLER ADDRESS DUP5 PUSH1 0x40 MLOAD DUP5 PUSH4 0xFFFFFFFF AND PUSH1 0xE0 SHL DUP2 MSTORE PUSH1 0x4 ADD PUSH2 0x62F SWAP4 SWAP3 SWAP2 SWAP1 PUSH2 0x1021 JUMP JUMPDEST PUSH1 0x20 PUSH1 0x40 MLOAD DUP1 DUP4 SUB DUP2 PUSH0 DUP8 GAS CALL ISZERO DUP1 ISZERO PUSH2 0x64B JUMPI RETURNDATASIZE PUSH0 DUP1 RETURNDATACOPY RETURNDATASIZE PUSH0 REVERT JUMPDEST POP POP POP POP PUSH1 0x40 MLOAD RETURNDATASIZE PUSH1 0x1F NOT PUSH1 0x1F DUP3 ADD AND DUP3 ADD DUP1 PUSH1 0x40 MSTORE POP DUP2 ADD SWAP1 PUSH2 0x66F SWAP2 SWAP1 PUSH2 0xF26 JUMP JUMPDEST POP DUP2 PUSH20 0xFFFFFFFFFFFFFFFFFFFFFFFFFFFFFFFFFFFFFFFF AND CALLER PUSH20 0xFFFFFFFFFFFFFFFFFFFFFFFFFFFFFFFFFFFFFFFF AND PUSH32 0xE33E9822E3317B004D587136BAB2627EA1ECFBBA4EB79ABDDD0A56CFDD09C0E1 DUP4 PUSH1 0x40 MLOAD PUSH2 0x6CD SWAP2 SWAP1 PUSH2 0xA29 JUMP JUMPDEST PUSH1 0x40 MLOAD DUP1 SWAP2 SUB SWAP1 LOG3 POP POP JUMP JUMPDEST DUP2 PUSH20 0xFFFFFFFFFFFFFFFFFFFFFFFFFFFFFFFFFFFFFFFF AND PUSH4 0x42842E0E CALLER ADDRESS DUP5 PUSH1 0x40 MLOAD DUP5 PUSH4 0xFFFFFFFF AND PUSH1 0xE0 SHL DUP2 MSTORE PUSH1 0x4 ADD PUSH2 0x716 SWAP4 SWAP3 SWAP2 SWAP1 PUSH2 0x1021 JUMP JUMPDEST PUSH0 PUSH1 0x40 MLOAD DUP1 DUP4 SUB DUP2 PUSH0 DUP8 DUP1 EXTCODESIZE ISZERO DUP1 ISZERO PUSH2 0x72D JUMPI PUSH0 DUP1 REVERT JUMPDEST POP GAS CALL ISZERO DUP1 ISZERO PUSH2 0x73F JUMPI RETURNDATASIZE PUSH0 DUP1 RETURNDATACOPY RETURNDATASIZE PUSH0 REVERT JUMPDEST POP POP POP POP DUP2 PUSH20 0xFFFFFFFFFFFFFFFFFFFFFFFFFFFFFFFFFFFFFFFF AND CALLER PUSH20 0xFFFFFFFFFFFFFFFFFFFFFFFFFFFFFFFFFFFFFFFF AND PUSH32 0x20D9D42FBCDD65FCE5C3986B701B04FFB8E09852D04A93422DD4BE124AE10A8E DUP4 PUSH1 0x40 MLOAD PUSH2 0x7A0 SWAP2 SWAP1 PUSH2 0xA29 JUMP JUMPDEST PUSH1 0x40 MLOAD DUP1 SWAP2 SUB SWAP1 LOG3 POP POP JUMP JUMPDEST PUSH2 0x7B4 PUSH2 0x8C2 JUMP JUMPDEST PUSH0 PUSH20 0xFFFFFFFFFFFFFFFFFFFFFFFFFFFFFFFFFFFFFFFF AND DUP2 PUSH20 0xFFFFFFFFFFFFFFFFFFFFFFFFFFFFFFFFFFFFFFFF AND SUB PUSH2 0x824 JUMPI PUSH0 PUSH1 0x40 MLOAD PUSH32 0x1E4FBDF700000000000000000000000000000000000000000000000000000000 DUP2 MSTORE PUSH1 0x4 ADD PUSH2 0x81B SWAP2 SWAP1 PUSH2 0xDA3 JUMP JUMPDEST PUSH1 0x40 MLOAD DUP1 SWAP2 SUB SWAP1 REVERT JUMPDEST PUSH2 0x82D DUP2 PUSH2 0x949 JUMP JUMPDEST POP JUMP JUMPDEST PUSH0 CALLVALUE GT PUSH2 0x872 JUMPI PUSH1 0x40 MLOAD PUSH32 0x8C379A000000000000000000000000000000000000000000000000000000000 DUP2 MSTORE PUSH1 0x4 ADD PUSH2 0x869 SWAP1 PUSH2 0x12BF JUMP JUMPDEST PUSH1 0x40 MLOAD DUP1 SWAP2 SUB SWAP1 REVERT JUMPDEST CALLER PUSH20 0xFFFFFFFFFFFFFFFFFFFFFFFFFFFFFFFFFFFFFFFF AND PUSH32 0x2DA466A7B24304F47E87FA2E1E5A81B9831CE54FEC19055CE277CA2F39BA42C4 CALLVALUE PUSH1 0x40 MLOAD PUSH2 0x8B8 SWAP2 SWAP1 PUSH2 0xA29 JUMP JUMPDEST PUSH1 0x40 MLOAD DUP1 SWAP2 SUB SWAP1 LOG2 JUMP JUMPDEST PUSH2 0x8CA PUSH2 0xA0A JUMP JUMPDEST PUSH20 0xFFFFFFFFFFFFFFFFFFFFFFFFFFFFFFFFFFFFFFFF AND PUSH2 0x8E8 PUSH2 0x589 JUMP JUMPDEST PUSH20 0xFFFFFFFFFFFFFFFFFFFFFFFFFFFFFFFFFFFFFFFF AND EQ PUSH2 0x947 JUMPI PUSH2 0x90B PUSH2 0xA0A JUMP JUMPDEST PUSH1 0x40 MLOAD PUSH32 0x118CDAA700000000000000000000000000000000000000000000000000000000 DUP2 MSTORE PUSH1 0x4 ADD PUSH2 0x93E SWAP2 SWAP1 PUSH2 0xDA3 JUMP JUMPDEST PUSH1 0x40 MLOAD DUP1 SWAP2 SUB SWAP1 REVERT JUMPDEST JUMP JUMPDEST PUSH0 DUP1 PUSH0 SWAP1 SLOAD SWAP1 PUSH2 0x100 EXP SWAP1 DIV PUSH20 0xFFFFFFFFFFFFFFFFFFFFFFFFFFFFFFFFFFFFFFFF AND SWAP1 POP DUP2 PUSH0 DUP1 PUSH2 0x100 EXP DUP2 SLOAD DUP2 PUSH20 0xFFFFFFFFFFFFFFFFFFFFFFFFFFFFFFFFFFFFFFFF MUL NOT AND SWAP1 DUP4 PUSH20 0xFFFFFFFFFFFFFFFFFFFFFFFFFFFFFFFFFFFFFFFF AND MUL OR SWAP1 SSTORE POP DUP2 PUSH20 0xFFFFFFFFFFFFFFFFFFFFFFFFFFFFFFFFFFFFFFFF AND DUP2 PUSH20 0xFFFFFFFFFFFFFFFFFFFFFFFFFFFFFFFFFFFFFFFF AND PUSH32 0x8BE0079C531659141344CD1FD0A4F28419497F9722A3DAAFE3B4186F6B6457E0 PUSH1 0x40 MLOAD PUSH1 0x40 MLOAD DUP1 SWAP2 SUB SWAP1 LOG3 POP POP JUMP JUMPDEST PUSH0 CALLER SWAP1 POP SWAP1 JUMP JUMPDEST PUSH0 DUP2 SWAP1 POP SWAP2 SWAP1 POP JUMP JUMPDEST PUSH2 0xA23 DUP2 PUSH2 0xA11 JUMP JUMPDEST DUP3 MSTORE POP POP JUMP JUMPDEST PUSH0 PUSH1 0x20 DUP3 ADD SWAP1 POP PUSH2 0xA3C PUSH0 DUP4 ADD DUP5 PUSH2 0xA1A JUMP JUMPDEST SWAP3 SWAP2 POP POP JUMP JUMPDEST PUSH0 DUP1 REVERT JUMPDEST PUSH0 DUP1 REVERT JUMPDEST PUSH0 PUSH20 0xFFFFFFFFFFFFFFFFFFFFFFFFFFFFFFFFFFFFFFFF DUP3 AND SWAP1 POP SWAP2 SWAP1 POP JUMP JUMPDEST PUSH0 PUSH2 0xA73 DUP3 PUSH2 0xA4A JUMP JUMPDEST SWAP1 POP SWAP2 SWAP1 POP JUMP JUMPDEST PUSH2 0xA83 DUP2 PUSH2 0xA69 JUMP JUMPDEST DUP2 EQ PUSH2 0xA8D JUMPI PUSH0 DUP1 REVERT JUMPDEST POP JUMP JUMPDEST PUSH0 DUP2 CALLDATALOAD SWAP1 POP PUSH2 0xA9E DUP2 PUSH2 0xA7A JUMP JUMPDEST SWAP3 SWAP2 POP POP JUMP JUMPDEST PUSH2 0xAAD DUP2 PUSH2 0xA11 JUMP JUMPDEST DUP2 EQ PUSH2 0xAB7 JUMPI PUSH0 DUP1 REVERT JUMPDEST POP JUMP JUMPDEST PUSH0 DUP2 CALLDATALOAD SWAP1 POP PUSH2 0xAC8 DUP2 PUSH2 0xAA4 JUMP JUMPDEST SWAP3 SWAP2 POP POP JUMP JUMPDEST PUSH0 DUP1 REVERT JUMPDEST PUSH0 DUP1 REVERT JUMPDEST PUSH0 DUP1 REVERT JUMPDEST PUSH0 DUP1 DUP4 PUSH1 0x1F DUP5 ADD SLT PUSH2 0xAEF JUMPI PUSH2 0xAEE PUSH2 0xACE JUMP JUMPDEST JUMPDEST DUP3 CALLDATALOAD SWAP1 POP PUSH8 0xFFFFFFFFFFFFFFFF DUP2 GT ISZERO PUSH2 0xB0C JUMPI PUSH2 0xB0B PUSH2 0xAD2 JUMP JUMPDEST JUMPDEST PUSH1 0x20 DUP4 ADD SWAP2 POP DUP4 PUSH1 0x1 DUP3 MUL DUP4 ADD GT ISZERO PUSH2 0xB28 JUMPI PUSH2 0xB27 PUSH2 0xAD6 JUMP JUMPDEST JUMPDEST SWAP3 POP SWAP3 SWAP1 POP JUMP JUMPDEST PUSH0 DUP1 PUSH0 DUP1 PUSH0 PUSH1 0x80 DUP7 DUP9 SUB SLT ISZERO PUSH2 0xB48 JUMPI PUSH2 0xB47 PUSH2 0xA42 JUMP JUMPDEST JUMPDEST PUSH0 PUSH2 0xB55 DUP9 DUP3 DUP10 ADD PUSH2 0xA90 JUMP JUMPDEST SWAP6 POP POP PUSH1 0x20 PUSH2 0xB66 DUP9 DUP3 DUP10 ADD PUSH2 0xA90 JUMP JUMPDEST SWAP5 POP POP PUSH1 0x40 PUSH2 0xB77 DUP9 DUP3 DUP10 ADD PUSH2 0xABA JUMP JUMPDEST SWAP4 POP POP PUSH1 0x60 DUP7 ADD CALLDATALOAD PUSH8 0xFFFFFFFFFFFFFFFF DUP2 GT ISZERO PUSH2 0xB98 JUMPI PUSH2 0xB97 PUSH2 0xA46 JUMP JUMPDEST JUMPDEST PUSH2 0xBA4 DUP9 DUP3 DUP10 ADD PUSH2 0xADA JUMP JUMPDEST SWAP3 POP SWAP3 POP POP SWAP3 SWAP6 POP SWAP3 SWAP6 SWAP1 SWAP4 POP JUMP JUMPDEST PUSH0 PUSH32 0xFFFFFFFF00000000000000000000000000000000000000000000000000000000 DUP3 AND SWAP1 POP SWAP2 SWAP1 POP JUMP JUMPDEST PUSH2 0xBE7 DUP2 PUSH2 0xBB3 JUMP JUMPDEST DUP3 MSTORE POP POP JUMP JUMPDEST PUSH0 PUSH1 0x20 DUP3 ADD SWAP1 POP PUSH2 0xC00 PUSH0 DUP4 ADD DUP5 PUSH2 0xBDE JUMP JUMPDEST SWAP3 SWAP2 POP POP JUMP JUMPDEST PUSH0 DUP1 DUP4 PUSH1 0x1F DUP5 ADD SLT PUSH2 0xC1B JUMPI PUSH2 0xC1A PUSH2 0xACE JUMP JUMPDEST JUMPDEST DUP3 CALLDATALOAD SWAP1 POP PUSH8 0xFFFFFFFFFFFFFFFF DUP2 GT ISZERO PUSH2 0xC38 JUMPI PUSH2 0xC37 PUSH2 0xAD2 JUMP JUMPDEST JUMPDEST PUSH1 0x20 DUP4 ADD SWAP2 POP DUP4 PUSH1 0x20 DUP3 MUL DUP4 ADD GT ISZERO PUSH2 0xC54 JUMPI PUSH2 0xC53 PUSH2 0xAD6 JUMP JUMPDEST JUMPDEST SWAP3 POP SWAP3 SWAP1 POP JUMP JUMPDEST PUSH0 DUP1 DUP4 PUSH1 0x1F DUP5 ADD SLT PUSH2 0xC70 JUMPI PUSH2 0xC6F PUSH2 0xACE JUMP JUMPDEST JUMPDEST DUP3 CALLDATALOAD SWAP1 POP PUSH8 0xFFFFFFFFFFFFFFFF DUP2 GT ISZERO PUSH2 0xC8D JUMPI PUSH2 0xC8C PUSH2 0xAD2 JUMP JUMPDEST JUMPDEST PUSH1 0x20 DUP4 ADD SWAP2 POP DUP4 PUSH1 0x20 DUP3 MUL DUP4 ADD GT ISZERO PUSH2 0xCA9 JUMPI PUSH2 0xCA8 PUSH2 0xAD6 JUMP JUMPDEST JUMPDEST SWAP3 POP SWAP3 SWAP1 POP JUMP JUMPDEST PUSH0 DUP1 PUSH0 DUP1 PUSH0 DUP1 PUSH0 DUP1 PUSH1 0x80 DUP10 DUP12 SUB SLT ISZERO PUSH2 0xCCC JUMPI PUSH2 0xCCB PUSH2 0xA42 JUMP JUMPDEST JUMPDEST PUSH0 DUP10 ADD CALLDATALOAD PUSH8 0xFFFFFFFFFFFFFFFF DUP2 GT ISZERO PUSH2 0xCE9 JUMPI PUSH2 0xCE8 PUSH2 0xA46 JUMP JUMPDEST JUMPDEST PUSH2 0xCF5 DUP12 DUP3 DUP13 ADD PUSH2 0xC06 JUMP JUMPDEST SWAP9 POP SWAP9 POP POP PUSH1 0x20 DUP10 ADD CALLDATALOAD PUSH8 0xFFFFFFFFFFFFFFFF DUP2 GT ISZERO PUSH2 0xD18 JUMPI PUSH2 0xD17 PUSH2 0xA46 JUMP JUMPDEST JUMPDEST PUSH2 0xD24 DUP12 DUP3 DUP13 ADD PUSH2 0xC5B JUMP JUMPDEST SWAP7 POP SWAP7 POP POP PUSH1 0x40 DUP10 ADD CALLDATALOAD PUSH8 0xFFFFFFFFFFFFFFFF DUP2 GT ISZERO PUSH2 0xD47 JUMPI PUSH2 0xD46 PUSH2 0xA46 JUMP JUMPDEST JUMPDEST PUSH2 0xD53 DUP12 DUP3 DUP13 ADD PUSH2 0xC06 JUMP JUMPDEST SWAP5 POP SWAP5 POP POP PUSH1 0x60 DUP10 ADD CALLDATALOAD PUSH8 0xFFFFFFFFFFFFFFFF DUP2 GT ISZERO PUSH2 0xD76 JUMPI PUSH2 0xD75 PUSH2 0xA46 JUMP JUMPDEST JUMPDEST PUSH2 0xD82 DUP12 DUP3 DUP13 ADD PUSH2 0xC5B JUMP JUMPDEST SWAP3 POP SWAP3 POP POP SWAP3 SWAP6 SWAP9 POP SWAP3 SWAP6 SWAP9 SWAP1 SWAP4 SWAP7 POP JUMP JUMPDEST PUSH2 0xD9D DUP2 PUSH2 0xA69 JUMP JUMPDEST DUP3 MSTORE POP POP JUMP JUMPDEST PUSH0 PUSH1 0x20 DUP3 ADD SWAP1 POP PUSH2 0xDB6 PUSH0 DUP4 ADD DUP5 PUSH2 0xD94 JUMP JUMPDEST SWAP3 SWAP2 POP POP JUMP JUMPDEST PUSH0 DUP1 PUSH1 0x40 DUP4 DUP6 SUB SLT ISZERO PUSH2 0xDD2 JUMPI PUSH2 0xDD1 PUSH2 0xA42 JUMP JUMPDEST JUMPDEST PUSH0 PUSH2 0xDDF DUP6 DUP3 DUP7 ADD PUSH2 0xA90 JUMP JUMPDEST SWAP3 POP POP PUSH1 0x20 PUSH2 0xDF0 DUP6 DUP3 DUP7 ADD PUSH2 0xABA JUMP JUMPDEST SWAP2 POP POP SWAP3 POP SWAP3 SWAP1 POP JUMP JUMPDEST PUSH0 PUSH1 0x20 DUP3 DUP5 SUB SLT ISZERO PUSH2 0xE0F JUMPI PUSH2 0xE0E PUSH2 0xA42 JUMP JUMPDEST JUMPDEST PUSH0 PUSH2 0xE1C DUP5 DUP3 DUP6 ADD PUSH2 0xA90 JUMP JUMPDEST SWAP2 POP POP SWAP3 SWAP2 POP POP JUMP JUMPDEST PUSH0 DUP3 DUP3 MSTORE PUSH1 0x20 DUP3 ADD SWAP1 POP SWAP3 SWAP2 POP POP JUMP JUMPDEST PUSH32 0x455243323020E695B0E7BB84E995BFE5BAA6E4B88DE58CB9E9858D0000000000 PUSH0 DUP3 ADD MSTORE POP JUMP JUMPDEST PUSH0 PUSH2 0xE69 PUSH1 0x1B DUP4 PUSH2 0xE25 JUMP JUMPDEST SWAP2 POP PUSH2 0xE74 DUP3 PUSH2 0xE35 JUMP JUMPDEST PUSH1 0x20 DUP3 ADD SWAP1 POP SWAP2 SWAP1 POP JUMP JUMPDEST PUSH0 PUSH1 0x20 DUP3 ADD SWAP1 POP DUP2 DUP2 SUB PUSH0 DUP4 ADD MSTORE PUSH2 0xE96 DUP2 PUSH2 0xE5D JUMP JUMPDEST SWAP1 POP SWAP2 SWAP1 POP JUMP JUMPDEST PUSH32 0x4E487B7100000000000000000000000000000000000000000000000000000000 PUSH0 MSTORE PUSH1 0x32 PUSH1 0x4 MSTORE PUSH1 0x24 PUSH0 REVERT JUMPDEST PUSH0 PUSH1 0x40 DUP3 ADD SWAP1 POP PUSH2 0xEDD PUSH0 DUP4 ADD DUP6 PUSH2 0xD94 JUMP JUMPDEST PUSH2 0xEEA PUSH1 0x20 DUP4 ADD DUP5 PUSH2 0xA1A JUMP JUMPDEST SWAP4 SWAP3 POP POP POP JUMP JUMPDEST PUSH0 DUP2 ISZERO ISZERO SWAP1 POP SWAP2 SWAP1 POP JUMP JUMPDEST PUSH2 0xF05 DUP2 PUSH2 0xEF1 JUMP JUMPDEST DUP2 EQ PUSH2 0xF0F JUMPI PUSH0 DUP1 REVERT JUMPDEST POP JUMP JUMPDEST PUSH0 DUP2 MLOAD SWAP1 POP PUSH2 0xF20 DUP2 PUSH2 0xEFC JUMP JUMPDEST SWAP3 SWAP2 POP POP JUMP JUMPDEST PUSH0 PUSH1 0x20 DUP3 DUP5 SUB SLT ISZERO PUSH2 0xF3B JUMPI PUSH2 0xF3A PUSH2 0xA42 JUMP JUMPDEST JUMPDEST PUSH0 PUSH2 0xF48 DUP5 DUP3 DUP6 ADD PUSH2 0xF12 JUMP JUMPDEST SWAP2 POP POP SWAP3 SWAP2 POP POP JUMP JUMPDEST PUSH32 0x455243323020E8BDACE8B4A6E5A4B1E8B4A50000000000000000000000000000 PUSH0 DUP3 ADD MSTORE POP JUMP JUMPDEST PUSH0 PUSH2 0xF85 PUSH1 0x12 DUP4 PUSH2 0xE25 JUMP JUMPDEST SWAP2 POP PUSH2 0xF90 DUP3 PUSH2 0xF51 JUMP JUMPDEST PUSH1 0x20 DUP3 ADD SWAP1 POP SWAP2 SWAP1 POP JUMP JUMPDEST PUSH0 PUSH1 0x20 DUP3 ADD SWAP1 POP DUP2 DUP2 SUB PUSH0 DUP4 ADD MSTORE PUSH2 0xFB2 DUP2 PUSH2 0xF79 JUMP JUMPDEST SWAP1 POP SWAP2 SWAP1 POP JUMP JUMPDEST PUSH32 0x45524337323120E695B0E7BB84E995BFE5BAA6E4B88DE58CB9E9858D00000000 PUSH0 DUP3 ADD MSTORE POP JUMP JUMPDEST PUSH0 PUSH2 0xFED PUSH1 0x1C DUP4 PUSH2 0xE25 JUMP JUMPDEST SWAP2 POP PUSH2 0xFF8 DUP3 PUSH2 0xFB9 JUMP JUMPDEST PUSH1 0x20 DUP3 ADD SWAP1 POP SWAP2 SWAP1 POP JUMP JUMPDEST PUSH0 PUSH1 0x20 DUP3 ADD SWAP1 POP DUP2 DUP2 SUB PUSH0 DUP4 ADD MSTORE PUSH2 0x101A DUP2 PUSH2 0xFE1 JUMP JUMPDEST SWAP1 POP SWAP2 SWAP1 POP JUMP JUMPDEST PUSH0 PUSH1 0x60 DUP3 ADD SWAP1 POP PUSH2 0x1034 PUSH0 DUP4 ADD DUP7 PUSH2 0xD94 JUMP JUMPDEST PUSH2 0x1041 PUSH1 0x20 DUP4 ADD DUP6 PUSH2 0xD94 JUMP JUMPDEST PUSH2 0x104E PUSH1 0x40 DUP4 ADD DUP5 PUSH2 0xA1A JUMP JUMPDEST SWAP5 SWAP4 POP POP POP POP JUMP JUMPDEST PUSH0 DUP3 DUP3 MSTORE PUSH1 0x20 DUP3 ADD SWAP1 POP SWAP3 SWAP2 POP POP JUMP JUMPDEST PUSH0 DUP2 SWAP1 POP SWAP2 SWAP1 POP JUMP JUMPDEST PUSH2 0x1078 DUP2 PUSH2 0xA69 JUMP JUMPDEST DUP3 MSTORE POP POP JUMP JUMPDEST PUSH0 PUSH2 0x1089 DUP4 DUP4 PUSH2 0x106F JUMP JUMPDEST PUSH1 0x20 DUP4 ADD SWAP1 POP SWAP3 SWAP2 POP POP JUMP JUMPDEST PUSH0 PUSH2 0x10A3 PUSH1 0x20 DUP5 ADD DUP5 PUSH2 0xA90 JUMP JUMPDEST SWAP1 POP SWAP3 SWAP2 POP POP JUMP JUMPDEST PUSH0 PUSH1 0x20 DUP3 ADD SWAP1 POP SWAP2 SWAP1 POP JUMP JUMPDEST PUSH0 PUSH2 0x10C2 DUP4 DUP6 PUSH2 0x1056 JUMP JUMPDEST SWAP4 POP PUSH2 0x10CD DUP3 PUSH2 0x1066 JUMP JUMPDEST DUP1 PUSH0 JUMPDEST DUP6 DUP2 LT ISZERO PUSH2 0x1105 JUMPI PUSH2 0x10E2 DUP3 DUP5 PUSH2 0x1095 JUMP JUMPDEST PUSH2 0x10EC DUP9 DUP3 PUSH2 0x107E JUMP JUMPDEST SWAP8 POP PUSH2 0x10F7 DUP4 PUSH2 0x10AB JUMP JUMPDEST SWAP3 POP POP PUSH1 0x1 DUP2 ADD SWAP1 POP PUSH2 0x10D0 JUMP JUMPDEST POP DUP6 SWAP3 POP POP POP SWAP4 SWAP3 POP POP POP JUMP JUMPDEST PUSH0 DUP3 DUP3 MSTORE PUSH1 0x20 DUP3 ADD SWAP1 POP SWAP3 SWAP2 POP POP JUMP JUMPDEST PUSH0 DUP1 REVERT JUMPDEST DUP3 DUP2 DUP4 CALLDATACOPY POP POP POP JUMP JUMPDEST PUSH0 PUSH2 0x113A DUP4 DUP6 PUSH2 0x1112 JUMP JUMPDEST SWAP4 POP PUSH32 0x7FFFFFFFFFFFFFFFFFFFFFFFFFFFFFFFFFFFFFFFFFFFFFFFFFFFFFFFFFFFFFF DUP4 GT ISZERO PUSH2 0x116D JUMPI PUSH2 0x116C PUSH2 0x1122 JUMP JUMPDEST JUMPDEST PUSH1 0x20 DUP4 MUL SWAP3 POP PUSH2 0x117E DUP4 DUP6 DUP5 PUSH2 0x1126 JUMP JUMPDEST DUP3 DUP5 ADD SWAP1 POP SWAP4 SWAP3 POP POP POP JUMP JUMPDEST PUSH0 PUSH1 0xC0 DUP3 ADD SWAP1 POP PUSH2 0x119D PUSH0 DUP4 ADD DUP14 PUSH2 0xA1A JUMP JUMPDEST DUP2 DUP2 SUB PUSH1 0x20 DUP4 ADD MSTORE PUSH2 0x11B0 DUP2 DUP12 DUP14 PUSH2 0x10B7 JUMP JUMPDEST SWAP1 POP DUP2 DUP2 SUB PUSH1 0x40 DUP4 ADD MSTORE PUSH2 0x11C5 DUP2 DUP10 DUP12 PUSH2 0x112F JUMP JUMPDEST SWAP1 POP DUP2 DUP2 SUB PUSH1 0x60 DUP4 ADD MSTORE PUSH2 0x11DA DUP2 DUP8 DUP10 PUSH2 0x10B7 JUMP JUMPDEST SWAP1 POP DUP2 DUP2 SUB PUSH1 0x80 DUP4 ADD MSTORE PUSH2 0x11EF DUP2 DUP6 DUP8 PUSH2 0x112F JUMP JUMPDEST SWAP1 POP PUSH2 0x11FE PUSH1 0xA0 DUP4 ADD DUP5 PUSH2 0xD94 JUMP JUMPDEST SWAP12 SWAP11 POP POP POP POP POP POP POP POP POP POP POP JUMP JUMPDEST PUSH32 0xE8BDACE8B4A6E695B0E9878FE5BF85E9A1BBE5A4A7E4BA8E2030000000000000 PUSH0 DUP3 ADD MSTORE POP JUMP JUMPDEST PUSH0 PUSH2 0x1241 PUSH1 0x1A DUP4 PUSH2 0xE25 JUMP JUMPDEST SWAP2 POP PUSH2 0x124C DUP3 PUSH2 0x120D JUMP JUMPDEST PUSH1 0x20 DUP3 ADD SWAP1 POP SWAP2 SWAP1 POP JUMP JUMPDEST PUSH0 PUSH1 0x20 DUP3 ADD SWAP1 POP DUP2 DUP2 SUB PUSH0 DUP4 ADD MSTORE PUSH2 0x126E DUP2 PUSH2 0x1235 JUMP JUMPDEST SWAP1 POP SWAP2 SWAP1 POP JUMP JUMPDEST PUSH32 0xE5BF85E9A1BBE58F91E980812045544800000000000000000000000000000000 PUSH0 DUP3 ADD MSTORE POP JUMP JUMPDEST PUSH0 PUSH2 0x12A9 PUSH1 0x10 DUP4 PUSH2 0xE25 JUMP JUMPDEST SWAP2 POP PUSH2 0x12B4 DUP3 PUSH2 0x1275 JUMP JUMPDEST PUSH1 0x20 DUP3 ADD SWAP1 POP SWAP2 SWAP1 POP JUMP JUMPDEST PUSH0 PUSH1 0x20 DUP3 ADD SWAP1 POP DUP2 DUP2 SUB PUSH0 DUP4 ADD MSTORE PUSH2 0x12D6 DUP2 PUSH2 0x129D JUMP JUMPDEST SWAP1 POP SWAP2 SWAP1 POP JUMP INVALID LOG2 PUSH5 0x6970667358 0x22 SLT KECCAK256 0xD8 0xAB PUSH23 0xC7EBC8E7442A9437F0205211CB9538CADF318EFE26AB42 SWAP16 MLOAD SHR 0x28 0xCF 0xF9 PUSH5 0x736F6C6343 STOP ADDMOD XOR STOP CALLER "
				},
				"gasEstimates": {
					"creation": {
						"codeDepositCost": "976600",
						"executionCost": "infinite",
						"totalCost": "infinite"
					},
					"external": {
						"depositERC20(address,uint256)": "infinite",
						"depositERC721(address,uint256)": "infinite",
						"depositETH()": "1776",
						"onERC721Received(address,address,uint256,bytes)": "infinite",
						"owner()": "2582",
						"renounceOwnership()": "infinite",
						"transferOwnership(address)": "infinite",
						"withdraw(address[],uint256[],address[],uint256[])": "infinite"
					}
				},
				"methodIdentifiers": {
					"depositERC20(address,uint256)": "97feb926",
					"depositERC721(address,uint256)": "d29a4bf6",
					"depositETH()": "f6326fb3",
					"onERC721Received(address,address,uint256,bytes)": "150b7a02",
					"owner()": "8da5cb5b",
					"renounceOwnership()": "715018a6",
					"transferOwnership(address)": "f2fde38b",
					"withdraw(address[],uint256[],address[],uint256[])": "2dae8580"
				}
			},
			"storageLayout": {
				"storage": [
					{
						"astId": 346,
						"contract": "contracts/Vault.sol:Vault",
						"label": "_owner",
						"offset": 0,
						"slot": "0",
						"type": "t_address"
					}
				],
				"types": {
					"t_address": {
						"encoding": "inplace",
						"label": "address",
						"numberOfBytes": "20"
					}
				}
			},
			"userdoc": {
				"kind": "user",
				"methods": {},
				"version": 1
			}
		}
	}
}