{
	"contracts/Counter.sol": {
		"Counter": {
			"abi": [
				{
					"inputs": [],
					"name": "cnt",
					"outputs": [
						{
							"internalType": "int256",
							"name": "",
							"type": "int256"
						}
					],
					"stateMutability": "view",
					"type": "function"
				},
				{
					"inputs": [],
					"name": "deccnt",
					"outputs": [
						{
							"internalType": "int256",
							"name": "",
							"type": "int256"
						}
					],
					"stateMutability": "nonpayable",
					"type": "function"
				},
				{
					"inputs": [],
					"name": "getcnt",
					"outputs": [
						{
							"internalType": "int256",
							"name": "",
							"type": "int256"
						}
					],
					"stateMutability": "view",
					"type": "function"
				},
				{
					"inputs": [],
					"name": "inccnt",
					"outputs": [
						{
							"internalType": "int256",
							"name": "",
							"type": "int256"
						}
					],
					"stateMutability": "nonpayable",
					"type": "function"
				}
			],
			"devdoc": {
				"kind": "dev",
				"methods": {},
				"version": 1
			},
			"evm": {
				"assembly": "    /* \"contracts/Counter.sol\":167:448  contract Counter {... */\n  mstore(0x40, 0x80)\n    /* \"contracts/Counter.sol\":210:211  0 */\n  0x00\n    /* \"contracts/Counter.sol\":190:211  int256 public cnt = 0 */\n  dup1\n  sstore\n    /* \"contracts/Counter.sol\":167:448  contract Counter {... */\n  callvalue\n  dup1\n  iszero\n  tag_1\n  jumpi\n  0x00\n  dup1\n  revert\ntag_1:\n  pop\n  dataSize(sub_0)\n  dup1\n  dataOffset(sub_0)\n  0x00\n  codecopy\n  0x00\n  return\nstop\n\nsub_0: assembly {\n        /* \"contracts/Counter.sol\":167:448  contract Counter {... */\n      mstore(0x40, 0x80)\n      callvalue\n      dup1\n      iszero\n      tag_1\n      jumpi\n      0x00\n      dup1\n      revert\n    tag_1:\n      pop\n      jumpi(tag_2, lt(calldatasize, 0x04))\n      shr(0xe0, calldataload(0x00))\n      dup1\n      0x479a5ee7\n      eq\n      tag_3\n      jumpi\n      dup1\n      0xd6d838ad\n      eq\n      tag_4\n      jumpi\n      dup1\n      0xdb9ab400\n      eq\n      tag_5\n      jumpi\n      dup1\n      0xf751fb1e\n      eq\n      tag_6\n      jumpi\n    tag_2:\n      0x00\n      dup1\n      revert\n        /* \"contracts/Counter.sol\":217:292  function getcnt() public view  returns (int256){... */\n    tag_3:\n      tag_7\n      tag_8\n      jump\t// in\n    tag_7:\n      mload(0x40)\n      tag_9\n      swap2\n      swap1\n      tag_10\n      jump\t// in\n    tag_9:\n      mload(0x40)\n      dup1\n      swap2\n      sub\n      swap1\n      return\n        /* \"contracts/Counter.sol\":190:211  int256 public cnt = 0 */\n    tag_4:\n      tag_11\n      tag_12\n      jump\t// in\n    tag_11:\n      mload(0x40)\n      tag_13\n      swap2\n      swap1\n      tag_10\n      jump\t// in\n    tag_13:\n      mload(0x40)\n      dup1\n      swap2\n      sub\n      swap1\n      return\n        /* \"contracts/Counter.sol\":297:368  function inccnt() public returns (int256){... */\n    tag_5:\n      tag_14\n      tag_15\n      jump\t// in\n    tag_14:\n      mload(0x40)\n      tag_16\n      swap2\n      swap1\n      tag_10\n      jump\t// in\n    tag_16:\n      mload(0x40)\n      dup1\n      swap2\n      sub\n      swap1\n      return\n        /* \"contracts/Counter.sol\":373:445  function deccnt() public  returns (int256){... */\n    tag_6:\n      tag_17\n      tag_18\n      jump\t// in\n    tag_17:\n      mload(0x40)\n      tag_19\n      swap2\n      swap1\n      tag_10\n      jump\t// in\n    tag_19:\n      mload(0x40)\n      dup1\n      swap2\n      sub\n      swap1\n      return\n        /* \"contracts/Counter.sol\":217:292  function getcnt() public view  returns (int256){... */\n    tag_8:\n        /* \"contracts/Counter.sol\":257:263  int256 */\n      0x00\n        /* \"contracts/Counter.sol\":281:284  cnt */\n      dup1\n      sload\n        /* \"contracts/Counter.sol\":274:284  return cnt */\n      swap1\n      pop\n        /* \"contracts/Counter.sol\":217:292  function getcnt() public view  returns (int256){... */\n      swap1\n      jump\t// out\n        /* \"contracts/Counter.sol\":190:211  int256 public cnt = 0 */\n    tag_12:\n      sload(0x00)\n      dup2\n      jump\t// out\n        /* \"contracts/Counter.sol\":297:368  function inccnt() public returns (int256){... */\n    tag_15:\n        /* \"contracts/Counter.sol\":331:337  int256 */\n      0x00\n        /* \"contracts/Counter.sol\":360:361  1 */\n      0x01\n        /* \"contracts/Counter.sol\":355:358  cnt */\n      0x00\n      dup1\n        /* \"contracts/Counter.sol\":355:361  cnt+=1 */\n      dup3\n      dup3\n      sload\n      tag_22\n      swap2\n      swap1\n      tag_23\n      jump\t// in\n    tag_22:\n      swap3\n      pop\n      pop\n      dup2\n      swap1\n      sstore\n        /* \"contracts/Counter.sol\":347:361  return  cnt+=1 */\n      swap1\n      pop\n        /* \"contracts/Counter.sol\":297:368  function inccnt() public returns (int256){... */\n      swap1\n      jump\t// out\n        /* \"contracts/Counter.sol\":373:445  function deccnt() public  returns (int256){... */\n    tag_18:\n        /* \"contracts/Counter.sol\":408:414  int256 */\n      0x00\n        /* \"contracts/Counter.sol\":437:438  1 */\n      0x01\n        /* \"contracts/Counter.sol\":432:435  cnt */\n      0x00\n      dup1\n        /* \"contracts/Counter.sol\":432:438  cnt-=1 */\n      dup3\n      dup3\n      sload\n      tag_25\n      swap2\n      swap1\n      tag_26\n      jump\t// in\n    tag_25:\n      swap3\n      pop\n      pop\n      dup2\n      swap1\n      sstore\n        /* \"contracts/Counter.sol\":425:438  return cnt-=1 */\n      swap1\n      pop\n        /* \"contracts/Counter.sol\":373:445  function deccnt() public  returns (int256){... */\n      swap1\n      jump\t// out\n        /* \"#utility.yul\":7:83   */\n    tag_27:\n        /* \"#utility.yul\":43:50   */\n      0x00\n        /* \"#utility.yul\":72:77   */\n      dup2\n        /* \"#utility.yul\":61:77   */\n      swap1\n      pop\n        /* \"#utility.yul\":7:83   */\n      swap2\n      swap1\n      pop\n      jump\t// out\n        /* \"#utility.yul\":89:204   */\n    tag_28:\n        /* \"#utility.yul\":174:197   */\n      tag_33\n        /* \"#utility.yul\":191:196   */\n      dup2\n        /* \"#utility.yul\":174:197   */\n      tag_27\n      jump\t// in\n    tag_33:\n        /* \"#utility.yul\":169:172   */\n      dup3\n        /* \"#utility.yul\":162:198   */\n      mstore\n        /* \"#utility.yul\":89:204   */\n      pop\n      pop\n      jump\t// out\n        /* \"#utility.yul\":210:428   */\n    tag_10:\n        /* \"#utility.yul\":301:305   */\n      0x00\n        /* \"#utility.yul\":339:341   */\n      0x20\n        /* \"#utility.yul\":328:337   */\n      dup3\n        /* \"#utility.yul\":324:342   */\n      add\n        /* \"#utility.yul\":316:342   */\n      swap1\n      pop\n        /* \"#utility.yul\":352:421   */\n      tag_35\n        /* \"#utility.yul\":418:419   */\n      0x00\n        /* \"#utility.yul\":407:416   */\n      dup4\n        /* \"#utility.yul\":403:420   */\n      add\n        /* \"#utility.yul\":394:400   */\n      dup5\n        /* \"#utility.yul\":352:421   */\n      tag_28\n      jump\t// in\n    tag_35:\n        /* \"#utility.yul\":210:428   */\n      swap3\n      swap2\n      pop\n      pop\n      jump\t// out\n        /* \"#utility.yul\":434:614   */\n    tag_29:\n        /* \"#utility.yul\":482:559   */\n      0x4e487b7100000000000000000000000000000000000000000000000000000000\n        /* \"#utility.yul\":479:480   */\n      0x00\n        /* \"#utility.yul\":472:560   */\n      mstore\n        /* \"#utility.yul\":579:583   */\n      0x11\n        /* \"#utility.yul\":576:577   */\n      0x04\n        /* \"#utility.yul\":569:584   */\n      mstore\n        /* \"#utility.yul\":603:607   */\n      0x24\n        /* \"#utility.yul\":600:601   */\n      0x00\n        /* \"#utility.yul\":593:608   */\n      revert\n        /* \"#utility.yul\":620:995   */\n    tag_23:\n        /* \"#utility.yul\":659:662   */\n      0x00\n        /* \"#utility.yul\":678:697   */\n      tag_38\n        /* \"#utility.yul\":695:696   */\n      dup3\n        /* \"#utility.yul\":678:697   */\n      tag_27\n      jump\t// in\n    tag_38:\n        /* \"#utility.yul\":673:697   */\n      swap2\n      pop\n        /* \"#utility.yul\":711:730   */\n      tag_39\n        /* \"#utility.yul\":728:729   */\n      dup4\n        /* \"#utility.yul\":711:730   */\n      tag_27\n      jump\t// in\n    tag_39:\n        /* \"#utility.yul\":706:730   */\n      swap3\n      pop\n        /* \"#utility.yul\":753:754   */\n      dup3\n        /* \"#utility.yul\":750:751   */\n      dup3\n        /* \"#utility.yul\":746:755   */\n      add\n        /* \"#utility.yul\":739:755   */\n      swap1\n      pop\n        /* \"#utility.yul\":951:952   */\n      dup3\n        /* \"#utility.yul\":946:949   */\n      dup2\n        /* \"#utility.yul\":942:953   */\n      slt\n        /* \"#utility.yul\":935:954   */\n      iszero\n        /* \"#utility.yul\":931:932   */\n      0x00\n        /* \"#utility.yul\":928:929   */\n      dup4\n        /* \"#utility.yul\":924:933   */\n      slt\n        /* \"#utility.yul\":920:955   */\n      and\n        /* \"#utility.yul\":903:904   */\n      dup4\n        /* \"#utility.yul\":898:901   */\n      dup3\n        /* \"#utility.yul\":894:905   */\n      slt\n        /* \"#utility.yul\":889:890   */\n      0x00\n        /* \"#utility.yul\":886:887   */\n      dup5\n        /* \"#utility.yul\":882:891   */\n      slt\n        /* \"#utility.yul\":875:892   */\n      iszero\n        /* \"#utility.yul\":871:906   */\n      and\n        /* \"#utility.yul\":855:965   */\n      or\n        /* \"#utility.yul\":852:988   */\n      iszero\n      tag_40\n      jumpi\n        /* \"#utility.yul\":968:986   */\n      tag_41\n      tag_29\n      jump\t// in\n    tag_41:\n        /* \"#utility.yul\":852:988   */\n    tag_40:\n        /* \"#utility.yul\":620:995   */\n      swap3\n      swap2\n      pop\n      pop\n      jump\t// out\n        /* \"#utility.yul\":1001:1373   */\n    tag_26:\n        /* \"#utility.yul\":1040:1044   */\n      0x00\n        /* \"#utility.yul\":1060:1079   */\n      tag_43\n        /* \"#utility.yul\":1077:1078   */\n      dup3\n        /* \"#utility.yul\":1060:1079   */\n      tag_27\n      jump\t// in\n    tag_43:\n        /* \"#utility.yul\":1055:1079   */\n      swap2\n      pop\n        /* \"#utility.yul\":1093:1112   */\n      tag_44\n        /* \"#utility.yul\":1110:1111   */\n      dup4\n        /* \"#utility.yul\":1093:1112   */\n      tag_27\n      jump\t// in\n    tag_44:\n        /* \"#utility.yul\":1088:1112   */\n      swap3\n      pop\n        /* \"#utility.yul\":1136:1137   */\n      dup3\n        /* \"#utility.yul\":1133:1134   */\n      dup3\n        /* \"#utility.yul\":1129:1138   */\n      sub\n        /* \"#utility.yul\":1121:1138   */\n      swap1\n      pop\n        /* \"#utility.yul\":1330:1331   */\n      dup2\n        /* \"#utility.yul\":1324:1328   */\n      dup2\n        /* \"#utility.yul\":1320:1332   */\n      slt\n        /* \"#utility.yul\":1316:1317   */\n      0x00\n        /* \"#utility.yul\":1313:1314   */\n      dup5\n        /* \"#utility.yul\":1309:1318   */\n      slt\n        /* \"#utility.yul\":1305:1333   */\n      and\n        /* \"#utility.yul\":1288:1289   */\n      dup3\n        /* \"#utility.yul\":1282:1286   */\n      dup3\n        /* \"#utility.yul\":1278:1290   */\n      sgt\n        /* \"#utility.yul\":1273:1274   */\n      0x00\n        /* \"#utility.yul\":1270:1271   */\n      dup6\n        /* \"#utility.yul\":1266:1275   */\n      slt\n        /* \"#utility.yul\":1259:1276   */\n      iszero\n        /* \"#utility.yul\":1255:1291   */\n      and\n        /* \"#utility.yul\":1239:1343   */\n      or\n        /* \"#utility.yul\":1236:1366   */\n      iszero\n      tag_45\n      jumpi\n        /* \"#utility.yul\":1346:1364   */\n      tag_46\n      tag_29\n      jump\t// in\n    tag_46:\n        /* \"#utility.yul\":1236:1366   */\n    tag_45:\n        /* \"#utility.yul\":1001:1373   */\n      swap3\n      swap2\n      pop\n      pop\n      jump\t// out\n\n    auxdata: 0xa2646970667358221220492396e590b482b7385bd86fed267f504d9784429cf2fcb33c81ccb9f14fbc1464736f6c63430008110033\n}\n",
				"bytecode": {
					"linkReferences": {},
					"object": "60806040526000805534801561001457600080fd5b50610236806100246000396000f3fe608060405234801561001057600080fd5b506004361061004c5760003560e01c8063479a5ee714610051578063d6d838ad1461006f578063db9ab4001461008d578063f751fb1e146100ab575b600080fd5b6100596100c9565b604051610066919061012f565b60405180910390f35b6100776100d2565b604051610084919061012f565b60405180910390f35b6100956100d8565b6040516100a2919061012f565b60405180910390f35b6100b36100f7565b6040516100c0919061012f565b60405180910390f35b60008054905090565b60005481565b600060016000808282546100ec9190610179565b925050819055905090565b6000600160008082825461010b91906101bd565b925050819055905090565b6000819050919050565b61012981610116565b82525050565b60006020820190506101446000830184610120565b92915050565b7f4e487b7100000000000000000000000000000000000000000000000000000000600052601160045260246000fd5b600061018482610116565b915061018f83610116565b9250828201905082811215600083121683821260008412151617156101b7576101b661014a565b5b92915050565b60006101c882610116565b91506101d383610116565b92508282039050818112600084121682821360008512151617156101fa576101f961014a565b5b9291505056fea2646970667358221220492396e590b482b7385bd86fed267f504d9784429cf2fcb33c81ccb9f14fbc1464736f6c63430008110033",
					"opcodes": "PUSH1 0x80 PUSH1 0x40 MSTORE PUSH1 0x0 DUP1 SSTORE CALLVALUE DUP1 ISZERO PUSH2 0x14 JUMPI PUSH1 0x0 DUP1 REVERT JUMPDEST POP PUSH2 0x236 DUP1 PUSH2 0x24 PUSH1 0x0 CODECOPY PUSH1 0x0 RETURN INVALID PUSH1 0x80 PUSH1 0x40 MSTORE CALLVALUE DUP1 ISZERO PUSH2 0x10 JUMPI PUSH1 0x0 DUP1 REVERT JUMPDEST POP PUSH1 0x4 CALLDATASIZE LT PUSH2 0x4C JUMPI PUSH1 0x0 CALLDATALOAD PUSH1 0xE0 SHR DUP1 PUSH4 0x479A5EE7 EQ PUSH2 0x51 JUMPI DUP1 PUSH4 0xD6D838AD EQ PUSH2 0x6F JUMPI DUP1 PUSH4 0xDB9AB400 EQ PUSH2 0x8D JUMPI DUP1 PUSH4 0xF751FB1E EQ PUSH2 0xAB JUMPI JUMPDEST PUSH1 0x0 DUP1 REVERT JUMPDEST PUSH2 0x59 PUSH2 0xC9 JUMP JUMPDEST PUSH1 0x40 MLOAD PUSH2 0x66 SWAP2 SWAP1 PUSH2 0x12F JUMP JUMPDEST PUSH1 0x40 MLOAD DUP1 SWAP2 SUB SWAP1 RETURN JUMPDEST PUSH2 0x77 PUSH2 0xD2 JUMP JUMPDEST PUSH1 0x40 MLOAD PUSH2 0x84 SWAP2 SWAP1 PUSH2 0x12F JUMP JUMPDEST PUSH1 0x40 MLOAD DUP1 SWAP2 SUB SWAP1 RETURN JUMPDEST PUSH2 0x95 PUSH2 0xD8 JUMP JUMPDEST PUSH1 0x40 MLOAD PUSH2 0xA2 SWAP2 SWAP1 PUSH2 0x12F JUMP JUMPDEST PUSH1 0x40 MLOAD DUP1 SWAP2 SUB SWAP1 RETURN JUMPDEST PUSH2 0xB3 PUSH2 0xF7 JUMP JUMPDEST PUSH1 0x40 MLOAD PUSH2 0xC0 SWAP2 SWAP1 PUSH2 0x12F JUMP JUMPDEST PUSH1 0x40 MLOAD DUP1 SWAP2 SUB SWAP1 RETURN JUMPDEST PUSH1 0x0 DUP1 SLOAD SWAP1 POP SWAP1 JUMP JUMPDEST PUSH1 0x0 SLOAD DUP2 JUMP JUMPDEST PUSH1 0x0 PUSH1 0x1 PUSH1 0x0 DUP1 DUP3 DUP3 SLOAD PUSH2 0xEC SWAP2 SWAP1 PUSH2 0x179 JUMP JUMPDEST SWAP3 POP POP DUP2 SWAP1 SSTORE SWAP1 POP SWAP1 JUMP JUMPDEST PUSH1 0x0 PUSH1 0x1 PUSH1 0x0 DUP1 DUP3 DUP3 SLOAD PUSH2 0x10B SWAP2 SWAP1 PUSH2 0x1BD JUMP JUMPDEST SWAP3 POP POP DUP2 SWAP1 SSTORE SWAP1 POP SWAP1 JUMP JUMPDEST PUSH1 0x0 DUP2 SWAP1 POP SWAP2 SWAP1 POP JUMP JUMPDEST PUSH2 0x129 DUP2 PUSH2 0x116 JUMP JUMPDEST DUP3 MSTORE POP POP JUMP JUMPDEST PUSH1 0x0 PUSH1 0x20 DUP3 ADD SWAP1 POP PUSH2 0x144 PUSH1 0x0 DUP4 ADD DUP5 PUSH2 0x120 JUMP JUMPDEST SWAP3 SWAP2 POP POP JUMP JUMPDEST PUSH32 0x4E487B7100000000000000000000000000000000000000000000000000000000 PUSH1 0x0 MSTORE PUSH1 0x11 PUSH1 0x4 MSTORE PUSH1 0x24 PUSH1 0x0 REVERT JUMPDEST PUSH1 0x0 PUSH2 0x184 DUP3 PUSH2 0x116 JUMP JUMPDEST SWAP2 POP PUSH2 0x18F DUP4 PUSH2 0x116 JUMP JUMPDEST SWAP3 POP DUP3 DUP3 ADD SWAP1 POP DUP3 DUP2 SLT ISZERO PUSH1 0x0 DUP4 SLT AND DUP4 DUP3 SLT PUSH1 0x0 DUP5 SLT ISZERO AND OR ISZERO PUSH2 0x1B7 JUMPI PUSH2 0x1B6 PUSH2 0x14A JUMP JUMPDEST JUMPDEST SWAP3 SWAP2 POP POP JUMP JUMPDEST PUSH1 0x0 PUSH2 0x1C8 DUP3 PUSH2 0x116 JUMP JUMPDEST SWAP2 POP PUSH2 0x1D3 DUP4 PUSH2 0x116 JUMP JUMPDEST SWAP3 POP DUP3 DUP3 SUB SWAP1 POP DUP2 DUP2 SLT PUSH1 0x0 DUP5 SLT AND DUP3 DUP3 SGT PUSH1 0x0 DUP6 SLT ISZERO AND OR ISZERO PUSH2 0x1FA JUMPI PUSH2 0x1F9 PUSH2 0x14A JUMP JUMPDEST JUMPDEST SWAP3 SWAP2 POP POP JUMP INVALID LOG2 PUSH5 0x6970667358 0x22 SLT KECCAK256 0x49 0x23 SWAP7 0xE5 SWAP1 0xB4 DUP3 0xB7 CODESIZE JUMPDEST 0xD8 PUSH16 0xED267F504D9784429CF2FCB33C81CCB9 CALL 0x4F 0xBC EQ PUSH5 0x736F6C6343 STOP ADDMOD GT STOP CALLER "
				},
				"gasEstimates": {
					"creation": {
						"codeDepositCost": "113200",
						"executionCost": "5165",
						"totalCost": "118365"
					},
					"external": {
						"cnt()": "2429",
						"deccnt()": "infinite",
						"getcnt()": "2415",
						"inccnt()": "infinite"
					}
				},
				"methodIdentifiers": {
					"cnt()": "d6d838ad",
					"deccnt()": "f751fb1e",
					"getcnt()": "479a5ee7",
					"inccnt()": "db9ab400"
				}
			},
			"storageLayout": {
				"storage": [
					{
						"astId": 4,
						"contract": "contracts/Counter.sol:Counter",
						"label": "cnt",
						"offset": 0,
						"slot": "0",
						"type": "t_int256"
					}
				],
				"types": {
					"t_int256": {
						"encoding": "inplace",
						"label": "int256",
						"numberOfBytes": "32"
					}
				}
			},
			"userdoc": {
				"kind": "user",
				"methods": {},
				"version": 1
			}
		}
	}
}