{
	"contracts/DataLocations.sol": {
		"DataLocations": {
			"abi": [
				{
					"anonymous": false,
					"inputs": [
						{
							"indexed": false,
							"internalType": "uint256",
							"name": "index",
							"type": "uint256"
						},
						{
							"indexed": false,
							"internalType": "uint256",
							"name": "value",
							"type": "uint256"
						}
					],
					"name": "ElementAdded",
					"type": "event"
				},
				{
					"anonymous": false,
					"inputs": [
						{
							"indexed": false,
							"internalType": "uint256",
							"name": "index",
							"type": "uint256"
						},
						{
							"indexed": false,
							"internalType": "uint256",
							"name": "value",
							"type": "uint256"
						}
					],
					"name": "ElementRemoved",
					"type": "event"
				},
				{
					"anonymous": false,
					"inputs": [
						{
							"indexed": false,
							"internalType": "uint256",
							"name": "key",
							"type": "uint256"
						},
						{
							"indexed": false,
							"internalType": "address",
							"name": "newValue",
							"type": "address"
						}
					],
					"name": "MappingUpdated",
					"type": "event"
				},
				{
					"anonymous": false,
					"inputs": [
						{
							"indexed": false,
							"internalType": "uint256",
							"name": "id",
							"type": "uint256"
						},
						{
							"indexed": false,
							"internalType": "uint256",
							"name": "newFoo",
							"type": "uint256"
						},
						{
							"indexed": false,
							"internalType": "string",
							"name": "newBar",
							"type": "string"
						}
					],
					"name": "StructUpdated",
					"type": "event"
				},
				{
					"inputs": [
						{
							"internalType": "uint256",
							"name": "value",
							"type": "uint256"
						}
					],
					"name": "addToArray",
					"outputs": [],
					"stateMutability": "nonpayable",
					"type": "function"
				},
				{
					"inputs": [
						{
							"internalType": "uint256",
							"name": "",
							"type": "uint256"
						}
					],
					"name": "arr",
					"outputs": [
						{
							"internalType": "uint256",
							"name": "",
							"type": "uint256"
						}
					],
					"stateMutability": "view",
					"type": "function"
				},
				{
					"inputs": [],
					"name": "f",
					"outputs": [],
					"stateMutability": "nonpayable",
					"type": "function"
				},
				{
					"inputs": [
						{
							"internalType": "uint256[]",
							"name": "_arr",
							"type": "uint256[]"
						}
					],
					"name": "g",
					"outputs": [
						{
							"internalType": "uint256[]",
							"name": "",
							"type": "uint256[]"
						}
					],
					"stateMutability": "pure",
					"type": "function"
				},
				{
					"inputs": [
						{
							"internalType": "uint256",
							"name": "id",
							"type": "uint256"
						}
					],
					"name": "getStruct",
					"outputs": [
						{
							"internalType": "uint256",
							"name": "",
							"type": "uint256"
						},
						{
							"internalType": "string",
							"name": "",
							"type": "string"
						}
					],
					"stateMutability": "view",
					"type": "function"
				},
				{
					"inputs": [
						{
							"internalType": "uint256[]",
							"name": "_arr",
							"type": "uint256[]"
						}
					],
					"name": "h",
					"outputs": [
						{
							"internalType": "uint256",
							"name": "",
							"type": "uint256"
						}
					],
					"stateMutability": "pure",
					"type": "function"
				},
				{
					"inputs": [
						{
							"internalType": "uint256[]",
							"name": "_arr",
							"type": "uint256[]"
						}
					],
					"name": "processCalldataArray",
					"outputs": [
						{
							"internalType": "uint256",
							"name": "sum",
							"type": "uint256"
						}
					],
					"stateMutability": "pure",
					"type": "function"
				},
				{
					"inputs": [
						{
							"internalType": "uint256[]",
							"name": "_arr",
							"type": "uint256[]"
						}
					],
					"name": "processMemoryArray",
					"outputs": [
						{
							"internalType": "uint256",
							"name": "sum",
							"type": "uint256"
						}
					],
					"stateMutability": "pure",
					"type": "function"
				},
				{
					"inputs": [
						{
							"internalType": "uint256",
							"name": "index",
							"type": "uint256"
						}
					],
					"name": "removeFromArray",
					"outputs": [],
					"stateMutability": "nonpayable",
					"type": "function"
				},
				{
					"inputs": [
						{
							"internalType": "uint256",
							"name": "key",
							"type": "uint256"
						},
						{
							"internalType": "address",
							"name": "newValue",
							"type": "address"
						}
					],
					"name": "updateMapping",
					"outputs": [],
					"stateMutability": "nonpayable",
					"type": "function"
				},
				{
					"inputs": [
						{
							"internalType": "uint256",
							"name": "id",
							"type": "uint256"
						},
						{
							"internalType": "uint256",
							"name": "newFoo",
							"type": "uint256"
						},
						{
							"internalType": "string",
							"name": "newBar",
							"type": "string"
						}
					],
					"name": "updateStruct",
					"outputs": [],
					"stateMutability": "nonpayable",
					"type": "function"
				}
			],
			"devdoc": {
				"kind": "dev",
				"methods": {},
				"version": 1
			},
			"evm": {
				"assembly": "    /* \"contracts/DataLocations.sol\":58:3258  contract DataLocations {... */\n  mstore(0x40, 0x80)\n  callvalue\n  dup1\n  iszero\n  tag_1\n  jumpi\n  0x00\n  dup1\n  revert\ntag_1:\n  pop\n  dataSize(sub_0)\n  dup1\n  dataOffset(sub_0)\n  0x00\n  codecopy\n  0x00\n  return\nstop\n\nsub_0: assembly {\n        /* \"contracts/DataLocations.sol\":58:3258  contract DataLocations {... */\n      mstore(0x40, 0x80)\n      callvalue\n      dup1\n      iszero\n      tag_1\n      jumpi\n      0x00\n      dup1\n      revert\n    tag_1:\n      pop\n      jumpi(tag_2, lt(calldatasize, 0x04))\n      shr(0xe0, calldataload(0x00))\n      dup1\n      0x9e6aa348\n      gt\n      tag_14\n      jumpi\n      dup1\n      0x9e6aa348\n      eq\n      tag_8\n      jumpi\n      dup1\n      0xb920dbae\n      eq\n      tag_9\n      jumpi\n      dup1\n      0xbaf71609\n      eq\n      tag_10\n      jumpi\n      dup1\n      0xcdfa8495\n      eq\n      tag_11\n      jumpi\n      dup1\n      0xd15ec851\n      eq\n      tag_12\n      jumpi\n      dup1\n      0xeb56ea90\n      eq\n      tag_13\n      jumpi\n      jump(tag_2)\n    tag_14:\n      dup1\n      0x26121ff0\n      eq\n      tag_3\n      jumpi\n      dup1\n      0x40dcbb08\n      eq\n      tag_4\n      jumpi\n      dup1\n      0x416e366d\n      eq\n      tag_5\n      jumpi\n      dup1\n      0x71e5ee5f\n      eq\n      tag_6\n      jumpi\n      dup1\n      0x8d63be9a\n      eq\n      tag_7\n      jumpi\n    tag_2:\n      0x00\n      dup1\n      revert\n        /* \"contracts/DataLocations.sol\":2101:2490  function f() public {... */\n    tag_3:\n      tag_15\n      tag_16\n      jump\t// in\n    tag_15:\n      stop\n        /* \"contracts/DataLocations.sol\":3094:3256  function h(uint256[] calldata _arr) external pure returns (uint256){... */\n    tag_4:\n      tag_17\n      0x04\n      dup1\n      calldatasize\n      sub\n      dup2\n      add\n      swap1\n      tag_18\n      swap2\n      swap1\n      tag_19\n      jump\t// in\n    tag_18:\n      tag_20\n      jump\t// in\n    tag_17:\n      mload(0x40)\n      tag_21\n      swap2\n      swap1\n      tag_22\n      jump\t// in\n    tag_21:\n      mload(0x40)\n      dup1\n      swap2\n      sub\n      swap1\n      return\n        /* \"contracts/DataLocations.sol\":1886:2093  function processCalldataArray(uint256[] calldata _arr) public  pure returns (uint256 sum) {... */\n    tag_5:\n      tag_23\n      0x04\n      dup1\n      calldatasize\n      sub\n      dup2\n      add\n      swap1\n      tag_24\n      swap2\n      swap1\n      tag_19\n      jump\t// in\n    tag_24:\n      tag_25\n      jump\t// in\n    tag_23:\n      mload(0x40)\n      tag_26\n      swap2\n      swap1\n      tag_22\n      jump\t// in\n    tag_26:\n      mload(0x40)\n      dup1\n      swap2\n      sub\n      swap1\n      return\n        /* \"contracts/DataLocations.sol\":87:107  uint256[] public arr */\n    tag_6:\n      tag_27\n      0x04\n      dup1\n      calldatasize\n      sub\n      dup2\n      add\n      swap1\n      tag_28\n      swap2\n      swap1\n      tag_29\n      jump\t// in\n    tag_28:\n      tag_30\n      jump\t// in\n    tag_27:\n      mload(0x40)\n      tag_31\n      swap2\n      swap1\n      tag_22\n      jump\t// in\n    tag_31:\n      mload(0x40)\n      dup1\n      swap2\n      sub\n      swap1\n      return\n        /* \"contracts/DataLocations.sol\":559:806  function updateStruct(uint256 id, uint256 newFoo, string memory newBar) public {... */\n    tag_7:\n      tag_32\n      0x04\n      dup1\n      calldatasize\n      sub\n      dup2\n      add\n      swap1\n      tag_33\n      swap2\n      swap1\n      tag_34\n      jump\t// in\n    tag_33:\n      tag_35\n      jump\t// in\n    tag_32:\n      stop\n        /* \"contracts/DataLocations.sol\":1621:1832  function processMemoryArray(uint256[] memory _arr) public pure returns (uint256 sum) {... */\n    tag_8:\n      tag_36\n      0x04\n      dup1\n      calldatasize\n      sub\n      dup2\n      add\n      swap1\n      tag_37\n      swap2\n      swap1\n      tag_38\n      jump\t// in\n    tag_37:\n      tag_39\n      jump\t// in\n    tag_36:\n      mload(0x40)\n      tag_40\n      swap2\n      swap1\n      tag_22\n      jump\t// in\n    tag_40:\n      mload(0x40)\n      dup1\n      swap2\n      sub\n      swap1\n      return\n        /* \"contracts/DataLocations.sol\":1220:1361  function updateMapping(uint256 key, address newValue) public {... */\n    tag_9:\n      tag_41\n      0x04\n      dup1\n      calldatasize\n      sub\n      dup2\n      add\n      swap1\n      tag_42\n      swap2\n      swap1\n      tag_43\n      jump\t// in\n    tag_42:\n      tag_44\n      jump\t// in\n    tag_41:\n      stop\n        /* \"contracts/DataLocations.sol\":2861:3088  function g(uint256[] memory _arr) public pure returns (uint256[] memory) {... */\n    tag_10:\n      tag_45\n      0x04\n      dup1\n      calldatasize\n      sub\n      dup2\n      add\n      swap1\n      tag_46\n      swap2\n      swap1\n      tag_38\n      jump\t// in\n    tag_46:\n      tag_47\n      jump\t// in\n    tag_45:\n      mload(0x40)\n      tag_48\n      swap2\n      swap1\n      tag_49\n      jump\t// in\n    tag_48:\n      mload(0x40)\n      dup1\n      swap2\n      sub\n      swap1\n      return\n        /* \"contracts/DataLocations.sol\":1396:1575  function getStruct(uint256 id) public view returns (uint256, string memory) {... */\n    tag_11:\n      tag_50\n      0x04\n      dup1\n      calldatasize\n      sub\n      dup2\n      add\n      swap1\n      tag_51\n      swap2\n      swap1\n      tag_29\n      jump\t// in\n    tag_51:\n      tag_52\n      jump\t// in\n    tag_50:\n      mload(0x40)\n      tag_53\n      swap3\n      swap2\n      swap1\n      tag_54\n      jump\t// in\n    tag_53:\n      mload(0x40)\n      dup1\n      swap2\n      sub\n      swap1\n      return\n        /* \"contracts/DataLocations.sol\":811:935  function addToArray(uint256 value) public {... */\n    tag_12:\n      tag_55\n      0x04\n      dup1\n      calldatasize\n      sub\n      dup2\n      add\n      swap1\n      tag_56\n      swap2\n      swap1\n      tag_29\n      jump\t// in\n    tag_56:\n      tag_57\n      jump\t// in\n    tag_55:\n      stop\n        /* \"contracts/DataLocations.sol\":940:1194  function removeFromArray(uint256 index) public {... */\n    tag_13:\n      tag_58\n      0x04\n      dup1\n      calldatasize\n      sub\n      dup2\n      add\n      swap1\n      tag_59\n      swap2\n      swap1\n      tag_29\n      jump\t// in\n    tag_59:\n      tag_60\n      jump\t// in\n    tag_58:\n      stop\n        /* \"contracts/DataLocations.sol\":2101:2490  function f() public {... */\n    tag_16:\n        /* \"contracts/DataLocations.sol\":2171:2197  _f(arr, map, myStructs[1]) */\n      tag_62\n        /* \"contracts/DataLocations.sol\":2174:2177  arr */\n      0x00\n        /* \"contracts/DataLocations.sol\":2179:2182  map */\n      0x01\n        /* \"contracts/DataLocations.sol\":2184:2193  myStructs */\n      0x02\n        /* \"contracts/DataLocations.sol\":2184:2196  myStructs[1] */\n      0x00\n        /* \"contracts/DataLocations.sol\":2194:2195  1 */\n      0x01\n        /* \"contracts/DataLocations.sol\":2184:2196  myStructs[1] */\n      dup2\n      mstore\n      0x20\n      add\n      swap1\n      dup2\n      mstore\n      0x20\n      add\n      0x00\n      keccak256\n        /* \"contracts/DataLocations.sol\":2171:2173  _f */\n      tag_63\n        /* \"contracts/DataLocations.sol\":2171:2197  _f(arr, map, myStructs[1]) */\n      jump\t// in\n    tag_62:\n        /* \"contracts/DataLocations.sol\":2243:2268  MyStruct storage myStruct */\n      0x00\n        /* \"contracts/DataLocations.sol\":2271:2280  myStructs */\n      0x02\n        /* \"contracts/DataLocations.sol\":2271:2283  myStructs[1] */\n      0x00\n        /* \"contracts/DataLocations.sol\":2281:2282  1 */\n      0x01\n        /* \"contracts/DataLocations.sol\":2271:2283  myStructs[1] */\n      dup2\n      mstore\n      0x20\n      add\n      swap1\n      dup2\n      mstore\n      0x20\n      add\n      0x00\n      keccak256\n        /* \"contracts/DataLocations.sol\":2243:2283  MyStruct storage myStruct = myStructs[1] */\n      swap1\n      pop\n        /* \"contracts/DataLocations.sol\":2308:2310  10 */\n      0x0a\n        /* \"contracts/DataLocations.sol\":2293:2301  myStruct */\n      dup2\n        /* \"contracts/DataLocations.sol\":2293:2305  myStruct.foo */\n      0x00\n      add\n        /* \"contracts/DataLocations.sol\":2293:2310  myStruct.foo = 10 */\n      dup2\n      swap1\n      sstore\n      pop\n        /* \"contracts/DataLocations.sol\":2320:2342  myStruct.bar = \"Hello\" */\n      mload(0x40)\n      dup1\n      0x40\n      add\n      0x40\n      mstore\n      dup1\n      0x05\n      dup2\n      mstore\n      0x20\n      add\n      0x48656c6c6f000000000000000000000000000000000000000000000000000000\n      dup2\n      mstore\n      pop\n        /* \"contracts/DataLocations.sol\":2320:2328  myStruct */\n      dup2\n        /* \"contracts/DataLocations.sol\":2320:2332  myStruct.bar */\n      0x01\n      add\n        /* \"contracts/DataLocations.sol\":2320:2342  myStruct.bar = \"Hello\" */\n      swap1\n      dup2\n      tag_64\n      swap2\n      swap1\n      tag_65\n      jump\t// in\n    tag_64:\n      pop\n        /* \"contracts/DataLocations.sol\":2424:2451  MyStruct memory myMemStruct */\n      0x00\n        /* \"contracts/DataLocations.sol\":2454:2483  MyStruct(20, \"Memory Struct\") */\n      mload(0x40)\n      dup1\n      0x40\n      add\n      0x40\n      mstore\n      dup1\n        /* \"contracts/DataLocations.sol\":2463:2465  20 */\n      0x14\n        /* \"contracts/DataLocations.sol\":2454:2483  MyStruct(20, \"Memory Struct\") */\n      dup2\n      mstore\n      0x20\n      add\n      mload(0x40)\n      dup1\n      0x40\n      add\n      0x40\n      mstore\n      dup1\n      0x0d\n      dup2\n      mstore\n      0x20\n      add\n      0x4d656d6f72792053747275637400000000000000000000000000000000000000\n      dup2\n      mstore\n      pop\n      dup2\n      mstore\n      pop\n        /* \"contracts/DataLocations.sol\":2424:2483  MyStruct memory myMemStruct = MyStruct(20, \"Memory Struct\") */\n      swap1\n      pop\n        /* \"contracts/DataLocations.sol\":2121:2490  {... */\n      pop\n      pop\n        /* \"contracts/DataLocations.sol\":2101:2490  function f() public {... */\n      jump\t// out\n        /* \"contracts/DataLocations.sol\":3094:3256  function h(uint256[] calldata _arr) external pure returns (uint256){... */\n    tag_20:\n        /* \"contracts/DataLocations.sol\":3153:3160  uint256 */\n      0x00\n        /* \"contracts/DataLocations.sol\":3222:3248  processCalldataArray(_arr) */\n      tag_67\n        /* \"contracts/DataLocations.sol\":3243:3247  _arr */\n      dup4\n      dup4\n        /* \"contracts/DataLocations.sol\":3222:3242  processCalldataArray */\n      tag_25\n        /* \"contracts/DataLocations.sol\":3222:3248  processCalldataArray(_arr) */\n      jump\t// in\n    tag_67:\n        /* \"contracts/DataLocations.sol\":3215:3248  return processCalldataArray(_arr) */\n      swap1\n      pop\n        /* \"contracts/DataLocations.sol\":3094:3256  function h(uint256[] calldata _arr) external pure returns (uint256){... */\n      swap3\n      swap2\n      pop\n      pop\n      jump\t// out\n        /* \"contracts/DataLocations.sol\":1886:2093  function processCalldataArray(uint256[] calldata _arr) public  pure returns (uint256 sum) {... */\n    tag_25:\n        /* \"contracts/DataLocations.sol\":1963:1974  uint256 sum */\n      0x00\n        /* \"contracts/DataLocations.sol\":1991:2000  uint256 i */\n      dup1\n        /* \"contracts/DataLocations.sol\":2003:2004  0 */\n      0x00\n        /* \"contracts/DataLocations.sol\":1991:2004  uint256 i = 0 */\n      swap1\n      pop\n        /* \"contracts/DataLocations.sol\":1986:2067  for (uint256 i = 0; i < _arr.length; i++) {... */\n    tag_69:\n        /* \"contracts/DataLocations.sol\":2010:2014  _arr */\n      dup4\n      dup4\n        /* \"contracts/DataLocations.sol\":2010:2021  _arr.length */\n      swap1\n      pop\n        /* \"contracts/DataLocations.sol\":2006:2007  i */\n      dup2\n        /* \"contracts/DataLocations.sol\":2006:2021  i < _arr.length */\n      lt\n        /* \"contracts/DataLocations.sol\":1986:2067  for (uint256 i = 0; i < _arr.length; i++) {... */\n      iszero\n      tag_70\n      jumpi\n        /* \"contracts/DataLocations.sol\":2049:2053  _arr */\n      dup4\n      dup4\n        /* \"contracts/DataLocations.sol\":2054:2055  i */\n      dup3\n        /* \"contracts/DataLocations.sol\":2049:2056  _arr[i] */\n      dup2\n      dup2\n      lt\n      tag_72\n      jumpi\n      tag_73\n      tag_74\n      jump\t// in\n    tag_73:\n    tag_72:\n      swap1\n      pop\n      0x20\n      mul\n      add\n      calldataload\n        /* \"contracts/DataLocations.sol\":2042:2056  sum += _arr[i] */\n      dup3\n      tag_75\n      swap2\n      swap1\n      tag_76\n      jump\t// in\n    tag_75:\n      swap2\n      pop\n        /* \"contracts/DataLocations.sol\":2023:2026  i++ */\n      dup1\n      dup1\n      tag_77\n      swap1\n      tag_78\n      jump\t// in\n    tag_77:\n      swap2\n      pop\n      pop\n        /* \"contracts/DataLocations.sol\":1986:2067  for (uint256 i = 0; i < _arr.length; i++) {... */\n      jump(tag_69)\n    tag_70:\n      pop\n        /* \"contracts/DataLocations.sol\":1886:2093  function processCalldataArray(uint256[] calldata _arr) public  pure returns (uint256 sum) {... */\n      swap3\n      swap2\n      pop\n      pop\n      jump\t// out\n        /* \"contracts/DataLocations.sol\":87:107  uint256[] public arr */\n    tag_30:\n      0x00\n      dup2\n      dup2\n      sload\n      dup2\n      lt\n      tag_79\n      jumpi\n      0x00\n      dup1\n      revert\n    tag_79:\n      swap1\n      0x00\n      mstore\n      keccak256(0x00, 0x20)\n      add\n      0x00\n      swap2\n      pop\n      swap1\n      pop\n      sload\n      dup2\n      jump\t// out\n        /* \"contracts/DataLocations.sol\":559:806  function updateStruct(uint256 id, uint256 newFoo, string memory newBar) public {... */\n    tag_35:\n        /* \"contracts/DataLocations.sol\":648:673  MyStruct storage myStruct */\n      0x00\n        /* \"contracts/DataLocations.sol\":676:685  myStructs */\n      0x02\n        /* \"contracts/DataLocations.sol\":676:689  myStructs[id] */\n      0x00\n        /* \"contracts/DataLocations.sol\":686:688  id */\n      dup6\n        /* \"contracts/DataLocations.sol\":676:689  myStructs[id] */\n      dup2\n      mstore\n      0x20\n      add\n      swap1\n      dup2\n      mstore\n      0x20\n      add\n      0x00\n      keccak256\n        /* \"contracts/DataLocations.sol\":648:689  MyStruct storage myStruct = myStructs[id] */\n      swap1\n      pop\n        /* \"contracts/DataLocations.sol\":714:720  newFoo */\n      dup3\n        /* \"contracts/DataLocations.sol\":699:707  myStruct */\n      dup2\n        /* \"contracts/DataLocations.sol\":699:711  myStruct.foo */\n      0x00\n      add\n        /* \"contracts/DataLocations.sol\":699:720  myStruct.foo = newFoo */\n      dup2\n      swap1\n      sstore\n      pop\n        /* \"contracts/DataLocations.sol\":745:751  newBar */\n      dup2\n        /* \"contracts/DataLocations.sol\":730:738  myStruct */\n      dup2\n        /* \"contracts/DataLocations.sol\":730:742  myStruct.bar */\n      0x01\n      add\n        /* \"contracts/DataLocations.sol\":730:751  myStruct.bar = newBar */\n      swap1\n      dup2\n      tag_82\n      swap2\n      swap1\n      tag_65\n      jump\t// in\n    tag_82:\n      pop\n        /* \"contracts/DataLocations.sol\":766:799  StructUpdated(id, newFoo, newBar) */\n      0x97e73dc1ac7936a83fa0e613d9c465a8453fbfd9edda2923c3da8d67bfc56117\n        /* \"contracts/DataLocations.sol\":780:782  id */\n      dup5\n        /* \"contracts/DataLocations.sol\":784:790  newFoo */\n      dup5\n        /* \"contracts/DataLocations.sol\":792:798  newBar */\n      dup5\n        /* \"contracts/DataLocations.sol\":766:799  StructUpdated(id, newFoo, newBar) */\n      mload(0x40)\n      tag_83\n      swap4\n      swap3\n      swap2\n      swap1\n      tag_84\n      jump\t// in\n    tag_83:\n      mload(0x40)\n      dup1\n      swap2\n      sub\n      swap1\n      log1\n        /* \"contracts/DataLocations.sol\":638:806  {... */\n      pop\n        /* \"contracts/DataLocations.sol\":559:806  function updateStruct(uint256 id, uint256 newFoo, string memory newBar) public {... */\n      pop\n      pop\n      pop\n      jump\t// out\n        /* \"contracts/DataLocations.sol\":1621:1832  function processMemoryArray(uint256[] memory _arr) public pure returns (uint256 sum) {... */\n    tag_39:\n        /* \"contracts/DataLocations.sol\":1693:1704  uint256 sum */\n      0x00\n        /* \"contracts/DataLocations.sol\":1721:1730  uint256 i */\n      dup1\n        /* \"contracts/DataLocations.sol\":1733:1734  0 */\n      0x00\n        /* \"contracts/DataLocations.sol\":1721:1734  uint256 i = 0 */\n      swap1\n      pop\n        /* \"contracts/DataLocations.sol\":1716:1797  for (uint256 i = 0; i < _arr.length; i++) {... */\n    tag_86:\n        /* \"contracts/DataLocations.sol\":1740:1744  _arr */\n      dup3\n        /* \"contracts/DataLocations.sol\":1740:1751  _arr.length */\n      mload\n        /* \"contracts/DataLocations.sol\":1736:1737  i */\n      dup2\n        /* \"contracts/DataLocations.sol\":1736:1751  i < _arr.length */\n      lt\n        /* \"contracts/DataLocations.sol\":1716:1797  for (uint256 i = 0; i < _arr.length; i++) {... */\n      iszero\n      tag_87\n      jumpi\n        /* \"contracts/DataLocations.sol\":1779:1783  _arr */\n      dup3\n        /* \"contracts/DataLocations.sol\":1784:1785  i */\n      dup2\n        /* \"contracts/DataLocations.sol\":1779:1786  _arr[i] */\n      dup2\n      mload\n      dup2\n      lt\n      tag_89\n      jumpi\n      tag_90\n      tag_74\n      jump\t// in\n    tag_90:\n    tag_89:\n      0x20\n      mul\n      0x20\n      add\n      add\n      mload\n        /* \"contracts/DataLocations.sol\":1772:1786  sum += _arr[i] */\n      dup3\n      tag_91\n      swap2\n      swap1\n      tag_76\n      jump\t// in\n    tag_91:\n      swap2\n      pop\n        /* \"contracts/DataLocations.sol\":1753:1756  i++ */\n      dup1\n      dup1\n      tag_92\n      swap1\n      tag_78\n      jump\t// in\n    tag_92:\n      swap2\n      pop\n      pop\n        /* \"contracts/DataLocations.sol\":1716:1797  for (uint256 i = 0; i < _arr.length; i++) {... */\n      jump(tag_86)\n    tag_87:\n      pop\n        /* \"contracts/DataLocations.sol\":1621:1832  function processMemoryArray(uint256[] memory _arr) public pure returns (uint256 sum) {... */\n      swap2\n      swap1\n      pop\n      jump\t// out\n        /* \"contracts/DataLocations.sol\":1220:1361  function updateMapping(uint256 key, address newValue) public {... */\n    tag_44:\n        /* \"contracts/DataLocations.sol\":1302:1310  newValue */\n      dup1\n        /* \"contracts/DataLocations.sol\":1291:1294  map */\n      0x01\n        /* \"contracts/DataLocations.sol\":1291:1299  map[key] */\n      0x00\n        /* \"contracts/DataLocations.sol\":1295:1298  key */\n      dup5\n        /* \"contracts/DataLocations.sol\":1291:1299  map[key] */\n      dup2\n      mstore\n      0x20\n      add\n      swap1\n      dup2\n      mstore\n      0x20\n      add\n      0x00\n      keccak256\n      0x00\n        /* \"contracts/DataLocations.sol\":1291:1310  map[key] = newValue */\n      0x0100\n      exp\n      dup2\n      sload\n      dup2\n      0xffffffffffffffffffffffffffffffffffffffff\n      mul\n      not\n      and\n      swap1\n      dup4\n      0xffffffffffffffffffffffffffffffffffffffff\n      and\n      mul\n      or\n      swap1\n      sstore\n      pop\n        /* \"contracts/DataLocations.sol\":1325:1354  MappingUpdated(key, newValue) */\n      0x9014d6238b51acb86512959051d69890b953f645bafadc3a8ac122f1a66a0079\n        /* \"contracts/DataLocations.sol\":1340:1343  key */\n      dup3\n        /* \"contracts/DataLocations.sol\":1345:1353  newValue */\n      dup3\n        /* \"contracts/DataLocations.sol\":1325:1354  MappingUpdated(key, newValue) */\n      mload(0x40)\n      tag_94\n      swap3\n      swap2\n      swap1\n      tag_95\n      jump\t// in\n    tag_94:\n      mload(0x40)\n      dup1\n      swap2\n      sub\n      swap1\n      log1\n        /* \"contracts/DataLocations.sol\":1220:1361  function updateMapping(uint256 key, address newValue) public {... */\n      pop\n      pop\n      jump\t// out\n        /* \"contracts/DataLocations.sol\":2861:3088  function g(uint256[] memory _arr) public pure returns (uint256[] memory) {... */\n    tag_47:\n        /* \"contracts/DataLocations.sol\":2916:2932  uint256[] memory */\n      0x60\n        /* \"contracts/DataLocations.sol\":2987:2996  uint256 i */\n      0x00\n        /* \"contracts/DataLocations.sol\":2982:3061  for (uint256 i = 0; i < _arr.length; i++) {... */\n    tag_97:\n        /* \"contracts/DataLocations.sol\":3006:3010  _arr */\n      dup3\n        /* \"contracts/DataLocations.sol\":3006:3017  _arr.length */\n      mload\n        /* \"contracts/DataLocations.sol\":3002:3003  i */\n      dup2\n        /* \"contracts/DataLocations.sol\":3002:3017  i < _arr.length */\n      lt\n        /* \"contracts/DataLocations.sol\":2982:3061  for (uint256 i = 0; i < _arr.length; i++) {... */\n      iszero\n      tag_98\n      jumpi\n        /* \"contracts/DataLocations.sol\":3049:3050  2 */\n      0x02\n        /* \"contracts/DataLocations.sol\":3038:3042  _arr */\n      dup4\n        /* \"contracts/DataLocations.sol\":3043:3044  i */\n      dup3\n        /* \"contracts/DataLocations.sol\":3038:3045  _arr[i] */\n      dup2\n      mload\n      dup2\n      lt\n      tag_100\n      jumpi\n      tag_101\n      tag_74\n      jump\t// in\n    tag_101:\n    tag_100:\n      0x20\n      mul\n      0x20\n      add\n      add\n        /* \"contracts/DataLocations.sol\":3038:3050  _arr[i] *= 2 */\n      dup2\n      dup2\n      mload\n      tag_102\n      swap2\n      swap1\n      tag_103\n      jump\t// in\n    tag_102:\n      swap2\n      pop\n      dup2\n      dup2\n      mstore\n      pop\n      pop\n        /* \"contracts/DataLocations.sol\":3019:3022  i++ */\n      dup1\n      dup1\n      tag_104\n      swap1\n      tag_78\n      jump\t// in\n    tag_104:\n      swap2\n      pop\n      pop\n        /* \"contracts/DataLocations.sol\":2982:3061  for (uint256 i = 0; i < _arr.length; i++) {... */\n      jump(tag_97)\n    tag_98:\n      pop\n        /* \"contracts/DataLocations.sol\":3077:3081  _arr */\n      dup2\n        /* \"contracts/DataLocations.sol\":3070:3081  return _arr */\n      swap1\n      pop\n        /* \"contracts/DataLocations.sol\":2861:3088  function g(uint256[] memory _arr) public pure returns (uint256[] memory) {... */\n      swap2\n      swap1\n      pop\n      jump\t// out\n        /* \"contracts/DataLocations.sol\":1396:1575  function getStruct(uint256 id) public view returns (uint256, string memory) {... */\n    tag_52:\n        /* \"contracts/DataLocations.sol\":1448:1455  uint256 */\n      0x00\n        /* \"contracts/DataLocations.sol\":1457:1470  string memory */\n      0x60\n        /* \"contracts/DataLocations.sol\":1482:1507  MyStruct storage myStruct */\n      0x00\n        /* \"contracts/DataLocations.sol\":1510:1519  myStructs */\n      0x02\n        /* \"contracts/DataLocations.sol\":1510:1523  myStructs[id] */\n      0x00\n        /* \"contracts/DataLocations.sol\":1520:1522  id */\n      dup6\n        /* \"contracts/DataLocations.sol\":1510:1523  myStructs[id] */\n      dup2\n      mstore\n      0x20\n      add\n      swap1\n      dup2\n      mstore\n      0x20\n      add\n      0x00\n      keccak256\n        /* \"contracts/DataLocations.sol\":1482:1523  MyStruct storage myStruct = myStructs[id] */\n      swap1\n      pop\n        /* \"contracts/DataLocations.sol\":1541:1549  myStruct */\n      dup1\n        /* \"contracts/DataLocations.sol\":1541:1553  myStruct.foo */\n      0x00\n      add\n      sload\n        /* \"contracts/DataLocations.sol\":1555:1563  myStruct */\n      dup2\n        /* \"contracts/DataLocations.sol\":1555:1567  myStruct.bar */\n      0x01\n      add\n        /* \"contracts/DataLocations.sol\":1533:1568  return (myStruct.foo, myStruct.bar) */\n      dup1\n      dup1\n      sload\n      tag_106\n      swap1\n      tag_107\n      jump\t// in\n    tag_106:\n      dup1\n      0x1f\n      add\n      0x20\n      dup1\n      swap2\n      div\n      mul\n      0x20\n      add\n      mload(0x40)\n      swap1\n      dup2\n      add\n      0x40\n      mstore\n      dup1\n      swap3\n      swap2\n      swap1\n      dup2\n      dup2\n      mstore\n      0x20\n      add\n      dup3\n      dup1\n      sload\n      tag_108\n      swap1\n      tag_107\n      jump\t// in\n    tag_108:\n      dup1\n      iszero\n      tag_109\n      jumpi\n      dup1\n      0x1f\n      lt\n      tag_110\n      jumpi\n      0x0100\n      dup1\n      dup4\n      sload\n      div\n      mul\n      dup4\n      mstore\n      swap2\n      0x20\n      add\n      swap2\n      jump(tag_109)\n    tag_110:\n      dup3\n      add\n      swap2\n      swap1\n      0x00\n      mstore\n      keccak256(0x00, 0x20)\n      swap1\n    tag_111:\n      dup2\n      sload\n      dup2\n      mstore\n      swap1\n      0x01\n      add\n      swap1\n      0x20\n      add\n      dup1\n      dup4\n      gt\n      tag_111\n      jumpi\n      dup3\n      swap1\n      sub\n      0x1f\n      and\n      dup3\n      add\n      swap2\n    tag_109:\n      pop\n      pop\n      pop\n      pop\n      pop\n      swap1\n      pop\n      swap3\n      pop\n      swap3\n      pop\n      pop\n        /* \"contracts/DataLocations.sol\":1396:1575  function getStruct(uint256 id) public view returns (uint256, string memory) {... */\n      swap2\n      pop\n      swap2\n      jump\t// out\n        /* \"contracts/DataLocations.sol\":811:935  function addToArray(uint256 value) public {... */\n    tag_57:\n        /* \"contracts/DataLocations.sol\":863:866  arr */\n      0x00\n        /* \"contracts/DataLocations.sol\":872:877  value */\n      dup2\n        /* \"contracts/DataLocations.sol\":863:878  arr.push(value) */\n      swap1\n      dup1\n      0x01\n      dup2\n      sload\n      add\n      dup1\n      dup3\n      sstore\n      dup1\n      swap2\n      pop\n      pop\n      0x01\n      swap1\n      sub\n      swap1\n      0x00\n      mstore\n      keccak256(0x00, 0x20)\n      add\n      0x00\n      swap1\n      swap2\n      swap1\n      swap2\n      swap1\n      swap2\n      pop\n      sstore\n        /* \"contracts/DataLocations.sol\":893:928  ElementAdded(arr.length - 1, value) */\n      0xbd35ac9d9fbb5226d89e93adfa98f5001ea8e74d5a8506d7c034b868d08ace58\n        /* \"contracts/DataLocations.sol\":919:920  1 */\n      0x01\n        /* \"contracts/DataLocations.sol\":906:909  arr */\n      0x00\n        /* \"contracts/DataLocations.sol\":906:916  arr.length */\n      dup1\n      sload\n      swap1\n      pop\n        /* \"contracts/DataLocations.sol\":906:920  arr.length - 1 */\n      tag_114\n      swap2\n      swap1\n      tag_115\n      jump\t// in\n    tag_114:\n        /* \"contracts/DataLocations.sol\":922:927  value */\n      dup3\n        /* \"contracts/DataLocations.sol\":893:928  ElementAdded(arr.length - 1, value) */\n      mload(0x40)\n      tag_116\n      swap3\n      swap2\n      swap1\n      tag_117\n      jump\t// in\n    tag_116:\n      mload(0x40)\n      dup1\n      swap2\n      sub\n      swap1\n      log1\n        /* \"contracts/DataLocations.sol\":811:935  function addToArray(uint256 value) public {... */\n      pop\n      jump\t// out\n        /* \"contracts/DataLocations.sol\":940:1194  function removeFromArray(uint256 index) public {... */\n    tag_60:\n        /* \"contracts/DataLocations.sol\":1013:1016  arr */\n      0x00\n        /* \"contracts/DataLocations.sol\":1013:1023  arr.length */\n      dup1\n      sload\n      swap1\n      pop\n        /* \"contracts/DataLocations.sol\":1005:1010  index */\n      dup2\n        /* \"contracts/DataLocations.sol\":1005:1023  index < arr.length */\n      lt\n        /* \"contracts/DataLocations.sol\":997:1047  require(index < arr.length, \"Index out of bounds\") */\n      tag_119\n      jumpi\n      mload(0x40)\n      0x08c379a000000000000000000000000000000000000000000000000000000000\n      dup2\n      mstore\n      0x04\n      add\n      tag_120\n      swap1\n      tag_121\n      jump\t// in\n    tag_120:\n      mload(0x40)\n      dup1\n      swap2\n      sub\n      swap1\n      revert\n    tag_119:\n        /* \"contracts/DataLocations.sol\":1057:1070  uint256 value */\n      0x00\n        /* \"contracts/DataLocations.sol\":1073:1076  arr */\n      dup1\n        /* \"contracts/DataLocations.sol\":1077:1082  index */\n      dup3\n        /* \"contracts/DataLocations.sol\":1073:1083  arr[index] */\n      dup2\n      sload\n      dup2\n      lt\n      tag_122\n      jumpi\n      tag_123\n      tag_74\n      jump\t// in\n    tag_123:\n    tag_122:\n      swap1\n      0x00\n      mstore\n      keccak256(0x00, 0x20)\n      add\n      sload\n        /* \"contracts/DataLocations.sol\":1057:1083  uint256 value = arr[index] */\n      swap1\n      pop\n        /* \"contracts/DataLocations.sol\":1106:1109  arr */\n      0x00\n        /* \"contracts/DataLocations.sol\":1123:1124  1 */\n      0x01\n        /* \"contracts/DataLocations.sol\":1110:1113  arr */\n      0x00\n        /* \"contracts/DataLocations.sol\":1110:1120  arr.length */\n      dup1\n      sload\n      swap1\n      pop\n        /* \"contracts/DataLocations.sol\":1110:1124  arr.length - 1 */\n      tag_125\n      swap2\n      swap1\n      tag_115\n      jump\t// in\n    tag_125:\n        /* \"contracts/DataLocations.sol\":1106:1125  arr[arr.length - 1] */\n      dup2\n      sload\n      dup2\n      lt\n      tag_126\n      jumpi\n      tag_127\n      tag_74\n      jump\t// in\n    tag_127:\n    tag_126:\n      swap1\n      0x00\n      mstore\n      keccak256(0x00, 0x20)\n      add\n      sload\n        /* \"contracts/DataLocations.sol\":1093:1096  arr */\n      0x00\n        /* \"contracts/DataLocations.sol\":1097:1102  index */\n      dup4\n        /* \"contracts/DataLocations.sol\":1093:1103  arr[index] */\n      dup2\n      sload\n      dup2\n      lt\n      tag_129\n      jumpi\n      tag_130\n      tag_74\n      jump\t// in\n    tag_130:\n    tag_129:\n      swap1\n      0x00\n      mstore\n      keccak256(0x00, 0x20)\n      add\n        /* \"contracts/DataLocations.sol\":1093:1125  arr[index] = arr[arr.length - 1] */\n      dup2\n      swap1\n      sstore\n      pop\n        /* \"contracts/DataLocations.sol\":1135:1138  arr */\n      0x00\n        /* \"contracts/DataLocations.sol\":1135:1144  arr.pop() */\n      dup1\n      sload\n      dup1\n      tag_132\n      jumpi\n      tag_133\n      tag_134\n      jump\t// in\n    tag_133:\n    tag_132:\n      0x01\n      swap1\n      sub\n      dup2\n      dup2\n      swap1\n      0x00\n      mstore\n      keccak256(0x00, 0x20)\n      add\n      0x00\n      swap1\n      sstore\n      swap1\n      sstore\n        /* \"contracts/DataLocations.sol\":1159:1187  ElementRemoved(index, value) */\n      0xba10c01016e1ba3d916c047d943e6b907f35c5ac8d52f6d21605c3f15747863d\n        /* \"contracts/DataLocations.sol\":1174:1179  index */\n      dup3\n        /* \"contracts/DataLocations.sol\":1181:1186  value */\n      dup3\n        /* \"contracts/DataLocations.sol\":1159:1187  ElementRemoved(index, value) */\n      mload(0x40)\n      tag_136\n      swap3\n      swap2\n      swap1\n      tag_117\n      jump\t// in\n    tag_136:\n      mload(0x40)\n      dup1\n      swap2\n      sub\n      swap1\n      log1\n        /* \"contracts/DataLocations.sol\":987:1194  {... */\n      pop\n        /* \"contracts/DataLocations.sol\":940:1194  function removeFromArray(uint256 index) public {... */\n      pop\n      jump\t// out\n        /* \"contracts/DataLocations.sol\":2496:2816  function _f (... */\n    tag_63:\n        /* \"contracts/DataLocations.sol\":2699:2703  _arr */\n      dup3\n        /* \"contracts/DataLocations.sol\":2709:2712  100 */\n      0x64\n        /* \"contracts/DataLocations.sol\":2699:2713  _arr.push(100) */\n      swap1\n      dup1\n      0x01\n      dup2\n      sload\n      add\n      dup1\n      dup3\n      sstore\n      dup1\n      swap2\n      pop\n      pop\n      0x01\n      swap1\n      sub\n      swap1\n      0x00\n      mstore\n      keccak256(0x00, 0x20)\n      add\n      0x00\n      swap1\n      swap2\n      swap1\n      swap2\n      swap1\n      swap2\n      pop\n      sstore\n        /* \"contracts/DataLocations.sol\":2735:2745  msg.sender */\n      caller\n        /* \"contracts/DataLocations.sol\":2723:2727  _map */\n      dup3\n        /* \"contracts/DataLocations.sol\":2723:2732  _map[100] */\n      0x00\n        /* \"contracts/DataLocations.sol\":2728:2731  100 */\n      0x64\n        /* \"contracts/DataLocations.sol\":2723:2732  _map[100] */\n      dup2\n      mstore\n      0x20\n      add\n      swap1\n      dup2\n      mstore\n      0x20\n      add\n      0x00\n      keccak256\n      0x00\n        /* \"contracts/DataLocations.sol\":2723:2745  _map[100] = msg.sender */\n      0x0100\n      exp\n      dup2\n      sload\n      dup2\n      0xffffffffffffffffffffffffffffffffffffffff\n      mul\n      not\n      and\n      swap1\n      dup4\n      0xffffffffffffffffffffffffffffffffffffffff\n      and\n      mul\n      or\n      swap1\n      sstore\n      pop\n        /* \"contracts/DataLocations.sol\":2771:2774  100 */\n      0x64\n        /* \"contracts/DataLocations.sol\":2755:2764  _myStruct */\n      dup2\n        /* \"contracts/DataLocations.sol\":2755:2768  _myStruct.foo */\n      0x00\n      add\n        /* \"contracts/DataLocations.sol\":2755:2774  _myStruct.foo = 100 */\n      dup2\n      swap1\n      sstore\n      pop\n        /* \"contracts/DataLocations.sol\":2784:2809  _myStruct.bar = \"Updated\" */\n      mload(0x40)\n      dup1\n      0x40\n      add\n      0x40\n      mstore\n      dup1\n      0x07\n      dup2\n      mstore\n      0x20\n      add\n      0x5570646174656400000000000000000000000000000000000000000000000000\n      dup2\n      mstore\n      pop\n        /* \"contracts/DataLocations.sol\":2784:2793  _myStruct */\n      dup2\n        /* \"contracts/DataLocations.sol\":2784:2797  _myStruct.bar */\n      0x01\n      add\n        /* \"contracts/DataLocations.sol\":2784:2809  _myStruct.bar = \"Updated\" */\n      swap1\n      dup2\n      tag_139\n      swap2\n      swap1\n      tag_65\n      jump\t// in\n    tag_139:\n      pop\n        /* \"contracts/DataLocations.sol\":2496:2816  function _f (... */\n      pop\n      pop\n      pop\n      jump\t// out\n        /* \"#utility.yul\":7:82   */\n    tag_140:\n        /* \"#utility.yul\":40:46   */\n      0x00\n        /* \"#utility.yul\":73:75   */\n      0x40\n        /* \"#utility.yul\":67:76   */\n      mload\n        /* \"#utility.yul\":57:76   */\n      swap1\n      pop\n        /* \"#utility.yul\":7:82   */\n      swap1\n      jump\t// out\n        /* \"#utility.yul\":88:205   */\n    tag_141:\n        /* \"#utility.yul\":197:198   */\n      0x00\n        /* \"#utility.yul\":194:195   */\n      dup1\n        /* \"#utility.yul\":187:199   */\n      revert\n        /* \"#utility.yul\":211:328   */\n    tag_142:\n        /* \"#utility.yul\":320:321   */\n      0x00\n        /* \"#utility.yul\":317:318   */\n      dup1\n        /* \"#utility.yul\":310:322   */\n      revert\n        /* \"#utility.yul\":334:451   */\n    tag_143:\n        /* \"#utility.yul\":443:444   */\n      0x00\n        /* \"#utility.yul\":440:441   */\n      dup1\n        /* \"#utility.yul\":433:445   */\n      revert\n        /* \"#utility.yul\":457:574   */\n    tag_144:\n        /* \"#utility.yul\":566:567   */\n      0x00\n        /* \"#utility.yul\":563:564   */\n      dup1\n        /* \"#utility.yul\":556:568   */\n      revert\n        /* \"#utility.yul\":580:697   */\n    tag_145:\n        /* \"#utility.yul\":689:690   */\n      0x00\n        /* \"#utility.yul\":686:687   */\n      dup1\n        /* \"#utility.yul\":679:691   */\n      revert\n        /* \"#utility.yul\":720:1288   */\n    tag_146:\n        /* \"#utility.yul\":793:801   */\n      0x00\n        /* \"#utility.yul\":803:809   */\n      dup1\n        /* \"#utility.yul\":853:856   */\n      dup4\n        /* \"#utility.yul\":846:850   */\n      0x1f\n        /* \"#utility.yul\":838:844   */\n      dup5\n        /* \"#utility.yul\":834:851   */\n      add\n        /* \"#utility.yul\":830:857   */\n      slt\n        /* \"#utility.yul\":820:942   */\n      tag_206\n      jumpi\n        /* \"#utility.yul\":861:940   */\n      tag_207\n      tag_143\n      jump\t// in\n    tag_207:\n        /* \"#utility.yul\":820:942   */\n    tag_206:\n        /* \"#utility.yul\":974:980   */\n      dup3\n        /* \"#utility.yul\":961:981   */\n      calldataload\n        /* \"#utility.yul\":951:981   */\n      swap1\n      pop\n        /* \"#utility.yul\":1004:1022   */\n      0xffffffffffffffff\n        /* \"#utility.yul\":996:1002   */\n      dup2\n        /* \"#utility.yul\":993:1023   */\n      gt\n        /* \"#utility.yul\":990:1107   */\n      iszero\n      tag_208\n      jumpi\n        /* \"#utility.yul\":1026:1105   */\n      tag_209\n      tag_144\n      jump\t// in\n    tag_209:\n        /* \"#utility.yul\":990:1107   */\n    tag_208:\n        /* \"#utility.yul\":1140:1144   */\n      0x20\n        /* \"#utility.yul\":1132:1138   */\n      dup4\n        /* \"#utility.yul\":1128:1145   */\n      add\n        /* \"#utility.yul\":1116:1145   */\n      swap2\n      pop\n        /* \"#utility.yul\":1194:1197   */\n      dup4\n        /* \"#utility.yul\":1186:1190   */\n      0x20\n        /* \"#utility.yul\":1178:1184   */\n      dup3\n        /* \"#utility.yul\":1174:1191   */\n      mul\n        /* \"#utility.yul\":1164:1172   */\n      dup4\n        /* \"#utility.yul\":1160:1192   */\n      add\n        /* \"#utility.yul\":1157:1198   */\n      gt\n        /* \"#utility.yul\":1154:1282   */\n      iszero\n      tag_210\n      jumpi\n        /* \"#utility.yul\":1201:1280   */\n      tag_211\n      tag_145\n      jump\t// in\n    tag_211:\n        /* \"#utility.yul\":1154:1282   */\n    tag_210:\n        /* \"#utility.yul\":720:1288   */\n      swap3\n      pop\n      swap3\n      swap1\n      pop\n      jump\t// out\n        /* \"#utility.yul\":1294:1853   */\n    tag_19:\n        /* \"#utility.yul\":1380:1386   */\n      0x00\n        /* \"#utility.yul\":1388:1394   */\n      dup1\n        /* \"#utility.yul\":1437:1439   */\n      0x20\n        /* \"#utility.yul\":1425:1434   */\n      dup4\n        /* \"#utility.yul\":1416:1423   */\n      dup6\n        /* \"#utility.yul\":1412:1435   */\n      sub\n        /* \"#utility.yul\":1408:1440   */\n      slt\n        /* \"#utility.yul\":1405:1524   */\n      iszero\n      tag_213\n      jumpi\n        /* \"#utility.yul\":1443:1522   */\n      tag_214\n      tag_141\n      jump\t// in\n    tag_214:\n        /* \"#utility.yul\":1405:1524   */\n    tag_213:\n        /* \"#utility.yul\":1591:1592   */\n      0x00\n        /* \"#utility.yul\":1580:1589   */\n      dup4\n        /* \"#utility.yul\":1576:1593   */\n      add\n        /* \"#utility.yul\":1563:1594   */\n      calldataload\n        /* \"#utility.yul\":1621:1639   */\n      0xffffffffffffffff\n        /* \"#utility.yul\":1613:1619   */\n      dup2\n        /* \"#utility.yul\":1610:1640   */\n      gt\n        /* \"#utility.yul\":1607:1724   */\n      iszero\n      tag_215\n      jumpi\n        /* \"#utility.yul\":1643:1722   */\n      tag_216\n      tag_142\n      jump\t// in\n    tag_216:\n        /* \"#utility.yul\":1607:1724   */\n    tag_215:\n        /* \"#utility.yul\":1756:1836   */\n      tag_217\n        /* \"#utility.yul\":1828:1835   */\n      dup6\n        /* \"#utility.yul\":1819:1825   */\n      dup3\n        /* \"#utility.yul\":1808:1817   */\n      dup7\n        /* \"#utility.yul\":1804:1826   */\n      add\n        /* \"#utility.yul\":1756:1836   */\n      tag_146\n      jump\t// in\n    tag_217:\n        /* \"#utility.yul\":1738:1836   */\n      swap3\n      pop\n      swap3\n      pop\n        /* \"#utility.yul\":1534:1846   */\n      pop\n        /* \"#utility.yul\":1294:1853   */\n      swap3\n      pop\n      swap3\n      swap1\n      pop\n      jump\t// out\n        /* \"#utility.yul\":1859:1936   */\n    tag_147:\n        /* \"#utility.yul\":1896:1903   */\n      0x00\n        /* \"#utility.yul\":1925:1930   */\n      dup2\n        /* \"#utility.yul\":1914:1930   */\n      swap1\n      pop\n        /* \"#utility.yul\":1859:1936   */\n      swap2\n      swap1\n      pop\n      jump\t// out\n        /* \"#utility.yul\":1942:2060   */\n    tag_148:\n        /* \"#utility.yul\":2029:2053   */\n      tag_220\n        /* \"#utility.yul\":2047:2052   */\n      dup2\n        /* \"#utility.yul\":2029:2053   */\n      tag_147\n      jump\t// in\n    tag_220:\n        /* \"#utility.yul\":2024:2027   */\n      dup3\n        /* \"#utility.yul\":2017:2054   */\n      mstore\n        /* \"#utility.yul\":1942:2060   */\n      pop\n      pop\n      jump\t// out\n        /* \"#utility.yul\":2066:2288   */\n    tag_22:\n        /* \"#utility.yul\":2159:2163   */\n      0x00\n        /* \"#utility.yul\":2197:2199   */\n      0x20\n        /* \"#utility.yul\":2186:2195   */\n      dup3\n        /* \"#utility.yul\":2182:2200   */\n      add\n        /* \"#utility.yul\":2174:2200   */\n      swap1\n      pop\n        /* \"#utility.yul\":2210:2281   */\n      tag_222\n        /* \"#utility.yul\":2278:2279   */\n      0x00\n        /* \"#utility.yul\":2267:2276   */\n      dup4\n        /* \"#utility.yul\":2263:2280   */\n      add\n        /* \"#utility.yul\":2254:2260   */\n      dup5\n        /* \"#utility.yul\":2210:2281   */\n      tag_148\n      jump\t// in\n    tag_222:\n        /* \"#utility.yul\":2066:2288   */\n      swap3\n      swap2\n      pop\n      pop\n      jump\t// out\n        /* \"#utility.yul\":2294:2416   */\n    tag_149:\n        /* \"#utility.yul\":2367:2391   */\n      tag_224\n        /* \"#utility.yul\":2385:2390   */\n      dup2\n        /* \"#utility.yul\":2367:2391   */\n      tag_147\n      jump\t// in\n    tag_224:\n        /* \"#utility.yul\":2360:2365   */\n      dup2\n        /* \"#utility.yul\":2357:2392   */\n      eq\n        /* \"#utility.yul\":2347:2410   */\n      tag_225\n      jumpi\n        /* \"#utility.yul\":2406:2407   */\n      0x00\n        /* \"#utility.yul\":2403:2404   */\n      dup1\n        /* \"#utility.yul\":2396:2408   */\n      revert\n        /* \"#utility.yul\":2347:2410   */\n    tag_225:\n        /* \"#utility.yul\":2294:2416   */\n      pop\n      jump\t// out\n        /* \"#utility.yul\":2422:2561   */\n    tag_150:\n        /* \"#utility.yul\":2468:2473   */\n      0x00\n        /* \"#utility.yul\":2506:2512   */\n      dup2\n        /* \"#utility.yul\":2493:2513   */\n      calldataload\n        /* \"#utility.yul\":2484:2513   */\n      swap1\n      pop\n        /* \"#utility.yul\":2522:2555   */\n      tag_227\n        /* \"#utility.yul\":2549:2554   */\n      dup2\n        /* \"#utility.yul\":2522:2555   */\n      tag_149\n      jump\t// in\n    tag_227:\n        /* \"#utility.yul\":2422:2561   */\n      swap3\n      swap2\n      pop\n      pop\n      jump\t// out\n        /* \"#utility.yul\":2567:2896   */\n    tag_29:\n        /* \"#utility.yul\":2626:2632   */\n      0x00\n        /* \"#utility.yul\":2675:2677   */\n      0x20\n        /* \"#utility.yul\":2663:2672   */\n      dup3\n        /* \"#utility.yul\":2654:2661   */\n      dup5\n        /* \"#utility.yul\":2650:2673   */\n      sub\n        /* \"#utility.yul\":2646:2678   */\n      slt\n        /* \"#utility.yul\":2643:2762   */\n      iszero\n      tag_229\n      jumpi\n        /* \"#utility.yul\":2681:2760   */\n      tag_230\n      tag_141\n      jump\t// in\n    tag_230:\n        /* \"#utility.yul\":2643:2762   */\n    tag_229:\n        /* \"#utility.yul\":2801:2802   */\n      0x00\n        /* \"#utility.yul\":2826:2879   */\n      tag_231\n        /* \"#utility.yul\":2871:2878   */\n      dup5\n        /* \"#utility.yul\":2862:2868   */\n      dup3\n        /* \"#utility.yul\":2851:2860   */\n      dup6\n        /* \"#utility.yul\":2847:2869   */\n      add\n        /* \"#utility.yul\":2826:2879   */\n      tag_150\n      jump\t// in\n    tag_231:\n        /* \"#utility.yul\":2816:2879   */\n      swap2\n      pop\n        /* \"#utility.yul\":2772:2889   */\n      pop\n        /* \"#utility.yul\":2567:2896   */\n      swap3\n      swap2\n      pop\n      pop\n      jump\t// out\n        /* \"#utility.yul\":2902:3019   */\n    tag_151:\n        /* \"#utility.yul\":3011:3012   */\n      0x00\n        /* \"#utility.yul\":3008:3009   */\n      dup1\n        /* \"#utility.yul\":3001:3013   */\n      revert\n        /* \"#utility.yul\":3025:3127   */\n    tag_152:\n        /* \"#utility.yul\":3066:3072   */\n      0x00\n        /* \"#utility.yul\":3117:3119   */\n      0x1f\n        /* \"#utility.yul\":3113:3120   */\n      not\n        /* \"#utility.yul\":3108:3110   */\n      0x1f\n        /* \"#utility.yul\":3101:3106   */\n      dup4\n        /* \"#utility.yul\":3097:3111   */\n      add\n        /* \"#utility.yul\":3093:3121   */\n      and\n        /* \"#utility.yul\":3083:3121   */\n      swap1\n      pop\n        /* \"#utility.yul\":3025:3127   */\n      swap2\n      swap1\n      pop\n      jump\t// out\n        /* \"#utility.yul\":3133:3313   */\n    tag_153:\n        /* \"#utility.yul\":3181:3258   */\n      0x4e487b7100000000000000000000000000000000000000000000000000000000\n        /* \"#utility.yul\":3178:3179   */\n      0x00\n        /* \"#utility.yul\":3171:3259   */\n      mstore\n        /* \"#utility.yul\":3278:3282   */\n      0x41\n        /* \"#utility.yul\":3275:3276   */\n      0x04\n        /* \"#utility.yul\":3268:3283   */\n      mstore\n        /* \"#utility.yul\":3302:3306   */\n      0x24\n        /* \"#utility.yul\":3299:3300   */\n      0x00\n        /* \"#utility.yul\":3292:3307   */\n      revert\n        /* \"#utility.yul\":3319:3600   */\n    tag_154:\n        /* \"#utility.yul\":3402:3429   */\n      tag_236\n        /* \"#utility.yul\":3424:3428   */\n      dup3\n        /* \"#utility.yul\":3402:3429   */\n      tag_152\n      jump\t// in\n    tag_236:\n        /* \"#utility.yul\":3394:3400   */\n      dup2\n        /* \"#utility.yul\":3390:3430   */\n      add\n        /* \"#utility.yul\":3532:3538   */\n      dup2\n        /* \"#utility.yul\":3520:3530   */\n      dup2\n        /* \"#utility.yul\":3517:3539   */\n      lt\n        /* \"#utility.yul\":3496:3514   */\n      0xffffffffffffffff\n        /* \"#utility.yul\":3484:3494   */\n      dup3\n        /* \"#utility.yul\":3481:3515   */\n      gt\n        /* \"#utility.yul\":3478:3540   */\n      or\n        /* \"#utility.yul\":3475:3563   */\n      iszero\n      tag_237\n      jumpi\n        /* \"#utility.yul\":3543:3561   */\n      tag_238\n      tag_153\n      jump\t// in\n    tag_238:\n        /* \"#utility.yul\":3475:3563   */\n    tag_237:\n        /* \"#utility.yul\":3583:3593   */\n      dup1\n        /* \"#utility.yul\":3579:3581   */\n      0x40\n        /* \"#utility.yul\":3572:3594   */\n      mstore\n        /* \"#utility.yul\":3362:3600   */\n      pop\n        /* \"#utility.yul\":3319:3600   */\n      pop\n      pop\n      jump\t// out\n        /* \"#utility.yul\":3606:3735   */\n    tag_155:\n        /* \"#utility.yul\":3640:3646   */\n      0x00\n        /* \"#utility.yul\":3667:3687   */\n      tag_240\n      tag_140\n      jump\t// in\n    tag_240:\n        /* \"#utility.yul\":3657:3687   */\n      swap1\n      pop\n        /* \"#utility.yul\":3696:3729   */\n      tag_241\n        /* \"#utility.yul\":3724:3728   */\n      dup3\n        /* \"#utility.yul\":3716:3722   */\n      dup3\n        /* \"#utility.yul\":3696:3729   */\n      tag_154\n      jump\t// in\n    tag_241:\n        /* \"#utility.yul\":3606:3735   */\n      swap2\n      swap1\n      pop\n      jump\t// out\n        /* \"#utility.yul\":3741:4049   */\n    tag_156:\n        /* \"#utility.yul\":3803:3807   */\n      0x00\n        /* \"#utility.yul\":3893:3911   */\n      0xffffffffffffffff\n        /* \"#utility.yul\":3885:3891   */\n      dup3\n        /* \"#utility.yul\":3882:3912   */\n      gt\n        /* \"#utility.yul\":3879:3935   */\n      iszero\n      tag_243\n      jumpi\n        /* \"#utility.yul\":3915:3933   */\n      tag_244\n      tag_153\n      jump\t// in\n    tag_244:\n        /* \"#utility.yul\":3879:3935   */\n    tag_243:\n        /* \"#utility.yul\":3953:3982   */\n      tag_245\n        /* \"#utility.yul\":3975:3981   */\n      dup3\n        /* \"#utility.yul\":3953:3982   */\n      tag_152\n      jump\t// in\n    tag_245:\n        /* \"#utility.yul\":3945:3982   */\n      swap1\n      pop\n        /* \"#utility.yul\":4037:4041   */\n      0x20\n        /* \"#utility.yul\":4031:4035   */\n      dup2\n        /* \"#utility.yul\":4027:4042   */\n      add\n        /* \"#utility.yul\":4019:4042   */\n      swap1\n      pop\n        /* \"#utility.yul\":3741:4049   */\n      swap2\n      swap1\n      pop\n      jump\t// out\n        /* \"#utility.yul\":4055:4201   */\n    tag_157:\n        /* \"#utility.yul\":4152:4158   */\n      dup3\n        /* \"#utility.yul\":4147:4150   */\n      dup2\n        /* \"#utility.yul\":4142:4145   */\n      dup4\n        /* \"#utility.yul\":4129:4159   */\n      calldatacopy\n        /* \"#utility.yul\":4193:4194   */\n      0x00\n        /* \"#utility.yul\":4184:4190   */\n      dup4\n        /* \"#utility.yul\":4179:4182   */\n      dup4\n        /* \"#utility.yul\":4175:4191   */\n      add\n        /* \"#utility.yul\":4168:4195   */\n      mstore\n        /* \"#utility.yul\":4055:4201   */\n      pop\n      pop\n      pop\n      jump\t// out\n        /* \"#utility.yul\":4207:4632   */\n    tag_158:\n        /* \"#utility.yul\":4285:4290   */\n      0x00\n        /* \"#utility.yul\":4310:4376   */\n      tag_248\n        /* \"#utility.yul\":4326:4375   */\n      tag_249\n        /* \"#utility.yul\":4368:4374   */\n      dup5\n        /* \"#utility.yul\":4326:4375   */\n      tag_156\n      jump\t// in\n    tag_249:\n        /* \"#utility.yul\":4310:4376   */\n      tag_155\n      jump\t// in\n    tag_248:\n        /* \"#utility.yul\":4301:4376   */\n      swap1\n      pop\n        /* \"#utility.yul\":4399:4405   */\n      dup3\n        /* \"#utility.yul\":4392:4397   */\n      dup2\n        /* \"#utility.yul\":4385:4406   */\n      mstore\n        /* \"#utility.yul\":4437:4441   */\n      0x20\n        /* \"#utility.yul\":4430:4435   */\n      dup2\n        /* \"#utility.yul\":4426:4442   */\n      add\n        /* \"#utility.yul\":4475:4478   */\n      dup5\n        /* \"#utility.yul\":4466:4472   */\n      dup5\n        /* \"#utility.yul\":4461:4464   */\n      dup5\n        /* \"#utility.yul\":4457:4473   */\n      add\n        /* \"#utility.yul\":4454:4479   */\n      gt\n        /* \"#utility.yul\":4451:4563   */\n      iszero\n      tag_250\n      jumpi\n        /* \"#utility.yul\":4482:4561   */\n      tag_251\n      tag_151\n      jump\t// in\n    tag_251:\n        /* \"#utility.yul\":4451:4563   */\n    tag_250:\n        /* \"#utility.yul\":4572:4626   */\n      tag_252\n        /* \"#utility.yul\":4619:4625   */\n      dup5\n        /* \"#utility.yul\":4614:4617   */\n      dup3\n        /* \"#utility.yul\":4609:4612   */\n      dup6\n        /* \"#utility.yul\":4572:4626   */\n      tag_157\n      jump\t// in\n    tag_252:\n        /* \"#utility.yul\":4291:4632   */\n      pop\n        /* \"#utility.yul\":4207:4632   */\n      swap4\n      swap3\n      pop\n      pop\n      pop\n      jump\t// out\n        /* \"#utility.yul\":4652:4992   */\n    tag_159:\n        /* \"#utility.yul\":4708:4713   */\n      0x00\n        /* \"#utility.yul\":4757:4760   */\n      dup3\n        /* \"#utility.yul\":4750:4754   */\n      0x1f\n        /* \"#utility.yul\":4742:4748   */\n      dup4\n        /* \"#utility.yul\":4738:4755   */\n      add\n        /* \"#utility.yul\":4734:4761   */\n      slt\n        /* \"#utility.yul\":4724:4846   */\n      tag_254\n      jumpi\n        /* \"#utility.yul\":4765:4844   */\n      tag_255\n      tag_143\n      jump\t// in\n    tag_255:\n        /* \"#utility.yul\":4724:4846   */\n    tag_254:\n        /* \"#utility.yul\":4882:4888   */\n      dup2\n        /* \"#utility.yul\":4869:4889   */\n      calldataload\n        /* \"#utility.yul\":4907:4986   */\n      tag_256\n        /* \"#utility.yul\":4982:4985   */\n      dup5\n        /* \"#utility.yul\":4974:4980   */\n      dup3\n        /* \"#utility.yul\":4967:4971   */\n      0x20\n        /* \"#utility.yul\":4959:4965   */\n      dup7\n        /* \"#utility.yul\":4955:4972   */\n      add\n        /* \"#utility.yul\":4907:4986   */\n      tag_158\n      jump\t// in\n    tag_256:\n        /* \"#utility.yul\":4898:4986   */\n      swap2\n      pop\n        /* \"#utility.yul\":4714:4992   */\n      pop\n        /* \"#utility.yul\":4652:4992   */\n      swap3\n      swap2\n      pop\n      pop\n      jump\t// out\n        /* \"#utility.yul\":4998:5797   */\n    tag_34:\n        /* \"#utility.yul\":5085:5091   */\n      0x00\n        /* \"#utility.yul\":5093:5099   */\n      dup1\n        /* \"#utility.yul\":5101:5107   */\n      0x00\n        /* \"#utility.yul\":5150:5152   */\n      0x60\n        /* \"#utility.yul\":5138:5147   */\n      dup5\n        /* \"#utility.yul\":5129:5136   */\n      dup7\n        /* \"#utility.yul\":5125:5148   */\n      sub\n        /* \"#utility.yul\":5121:5153   */\n      slt\n        /* \"#utility.yul\":5118:5237   */\n      iszero\n      tag_258\n      jumpi\n        /* \"#utility.yul\":5156:5235   */\n      tag_259\n      tag_141\n      jump\t// in\n    tag_259:\n        /* \"#utility.yul\":5118:5237   */\n    tag_258:\n        /* \"#utility.yul\":5276:5277   */\n      0x00\n        /* \"#utility.yul\":5301:5354   */\n      tag_260\n        /* \"#utility.yul\":5346:5353   */\n      dup7\n        /* \"#utility.yul\":5337:5343   */\n      dup3\n        /* \"#utility.yul\":5326:5335   */\n      dup8\n        /* \"#utility.yul\":5322:5344   */\n      add\n        /* \"#utility.yul\":5301:5354   */\n      tag_150\n      jump\t// in\n    tag_260:\n        /* \"#utility.yul\":5291:5354   */\n      swap4\n      pop\n        /* \"#utility.yul\":5247:5364   */\n      pop\n        /* \"#utility.yul\":5403:5405   */\n      0x20\n        /* \"#utility.yul\":5429:5482   */\n      tag_261\n        /* \"#utility.yul\":5474:5481   */\n      dup7\n        /* \"#utility.yul\":5465:5471   */\n      dup3\n        /* \"#utility.yul\":5454:5463   */\n      dup8\n        /* \"#utility.yul\":5450:5472   */\n      add\n        /* \"#utility.yul\":5429:5482   */\n      tag_150\n      jump\t// in\n    tag_261:\n        /* \"#utility.yul\":5419:5482   */\n      swap3\n      pop\n        /* \"#utility.yul\":5374:5492   */\n      pop\n        /* \"#utility.yul\":5559:5561   */\n      0x40\n        /* \"#utility.yul\":5548:5557   */\n      dup5\n        /* \"#utility.yul\":5544:5562   */\n      add\n        /* \"#utility.yul\":5531:5563   */\n      calldataload\n        /* \"#utility.yul\":5590:5608   */\n      0xffffffffffffffff\n        /* \"#utility.yul\":5582:5588   */\n      dup2\n        /* \"#utility.yul\":5579:5609   */\n      gt\n        /* \"#utility.yul\":5576:5693   */\n      iszero\n      tag_262\n      jumpi\n        /* \"#utility.yul\":5612:5691   */\n      tag_263\n      tag_142\n      jump\t// in\n    tag_263:\n        /* \"#utility.yul\":5576:5693   */\n    tag_262:\n        /* \"#utility.yul\":5717:5780   */\n      tag_264\n        /* \"#utility.yul\":5772:5779   */\n      dup7\n        /* \"#utility.yul\":5763:5769   */\n      dup3\n        /* \"#utility.yul\":5752:5761   */\n      dup8\n        /* \"#utility.yul\":5748:5770   */\n      add\n        /* \"#utility.yul\":5717:5780   */\n      tag_159\n      jump\t// in\n    tag_264:\n        /* \"#utility.yul\":5707:5780   */\n      swap2\n      pop\n        /* \"#utility.yul\":5502:5790   */\n      pop\n        /* \"#utility.yul\":4998:5797   */\n      swap3\n      pop\n      swap3\n      pop\n      swap3\n      jump\t// out\n        /* \"#utility.yul\":5803:6114   */\n    tag_160:\n        /* \"#utility.yul\":5880:5884   */\n      0x00\n        /* \"#utility.yul\":5970:5988   */\n      0xffffffffffffffff\n        /* \"#utility.yul\":5962:5968   */\n      dup3\n        /* \"#utility.yul\":5959:5989   */\n      gt\n        /* \"#utility.yul\":5956:6012   */\n      iszero\n      tag_266\n      jumpi\n        /* \"#utility.yul\":5992:6010   */\n      tag_267\n      tag_153\n      jump\t// in\n    tag_267:\n        /* \"#utility.yul\":5956:6012   */\n    tag_266:\n        /* \"#utility.yul\":6042:6046   */\n      0x20\n        /* \"#utility.yul\":6034:6040   */\n      dup3\n        /* \"#utility.yul\":6030:6047   */\n      mul\n        /* \"#utility.yul\":6022:6047   */\n      swap1\n      pop\n        /* \"#utility.yul\":6102:6106   */\n      0x20\n        /* \"#utility.yul\":6096:6100   */\n      dup2\n        /* \"#utility.yul\":6092:6107   */\n      add\n        /* \"#utility.yul\":6084:6107   */\n      swap1\n      pop\n        /* \"#utility.yul\":5803:6114   */\n      swap2\n      swap1\n      pop\n      jump\t// out\n        /* \"#utility.yul\":6137:6847   */\n    tag_161:\n        /* \"#utility.yul\":6233:6238   */\n      0x00\n        /* \"#utility.yul\":6258:6339   */\n      tag_269\n        /* \"#utility.yul\":6274:6338   */\n      tag_270\n        /* \"#utility.yul\":6331:6337   */\n      dup5\n        /* \"#utility.yul\":6274:6338   */\n      tag_160\n      jump\t// in\n    tag_270:\n        /* \"#utility.yul\":6258:6339   */\n      tag_155\n      jump\t// in\n    tag_269:\n        /* \"#utility.yul\":6249:6339   */\n      swap1\n      pop\n        /* \"#utility.yul\":6359:6364   */\n      dup1\n        /* \"#utility.yul\":6388:6394   */\n      dup4\n        /* \"#utility.yul\":6381:6386   */\n      dup3\n        /* \"#utility.yul\":6374:6395   */\n      mstore\n        /* \"#utility.yul\":6422:6426   */\n      0x20\n        /* \"#utility.yul\":6415:6420   */\n      dup3\n        /* \"#utility.yul\":6411:6427   */\n      add\n        /* \"#utility.yul\":6404:6427   */\n      swap1\n      pop\n        /* \"#utility.yul\":6475:6479   */\n      0x20\n        /* \"#utility.yul\":6467:6473   */\n      dup5\n        /* \"#utility.yul\":6463:6480   */\n      mul\n        /* \"#utility.yul\":6455:6461   */\n      dup4\n        /* \"#utility.yul\":6451:6481   */\n      add\n        /* \"#utility.yul\":6504:6507   */\n      dup6\n        /* \"#utility.yul\":6496:6502   */\n      dup2\n        /* \"#utility.yul\":6493:6508   */\n      gt\n        /* \"#utility.yul\":6490:6612   */\n      iszero\n      tag_271\n      jumpi\n        /* \"#utility.yul\":6523:6602   */\n      tag_272\n      tag_145\n      jump\t// in\n    tag_272:\n        /* \"#utility.yul\":6490:6612   */\n    tag_271:\n        /* \"#utility.yul\":6638:6644   */\n      dup4\n        /* \"#utility.yul\":6621:6841   */\n    tag_273:\n        /* \"#utility.yul\":6655:6661   */\n      dup2\n        /* \"#utility.yul\":6650:6653   */\n      dup2\n        /* \"#utility.yul\":6647:6662   */\n      lt\n        /* \"#utility.yul\":6621:6841   */\n      iszero\n      tag_275\n      jumpi\n        /* \"#utility.yul\":6730:6733   */\n      dup1\n        /* \"#utility.yul\":6759:6796   */\n      tag_276\n        /* \"#utility.yul\":6792:6795   */\n      dup9\n        /* \"#utility.yul\":6780:6790   */\n      dup3\n        /* \"#utility.yul\":6759:6796   */\n      tag_150\n      jump\t// in\n    tag_276:\n        /* \"#utility.yul\":6754:6757   */\n      dup5\n        /* \"#utility.yul\":6747:6797   */\n      mstore\n        /* \"#utility.yul\":6826:6830   */\n      0x20\n        /* \"#utility.yul\":6821:6824   */\n      dup5\n        /* \"#utility.yul\":6817:6831   */\n      add\n        /* \"#utility.yul\":6810:6831   */\n      swap4\n      pop\n        /* \"#utility.yul\":6697:6841   */\n      pop\n        /* \"#utility.yul\":6681:6685   */\n      0x20\n        /* \"#utility.yul\":6676:6679   */\n      dup2\n        /* \"#utility.yul\":6672:6686   */\n      add\n        /* \"#utility.yul\":6665:6686   */\n      swap1\n      pop\n        /* \"#utility.yul\":6621:6841   */\n      jump(tag_273)\n    tag_275:\n        /* \"#utility.yul\":6625:6646   */\n      pop\n        /* \"#utility.yul\":6239:6847   */\n      pop\n      pop\n        /* \"#utility.yul\":6137:6847   */\n      swap4\n      swap3\n      pop\n      pop\n      pop\n      jump\t// out\n        /* \"#utility.yul\":6870:7240   */\n    tag_162:\n        /* \"#utility.yul\":6941:6946   */\n      0x00\n        /* \"#utility.yul\":6990:6993   */\n      dup3\n        /* \"#utility.yul\":6983:6987   */\n      0x1f\n        /* \"#utility.yul\":6975:6981   */\n      dup4\n        /* \"#utility.yul\":6971:6988   */\n      add\n        /* \"#utility.yul\":6967:6994   */\n      slt\n        /* \"#utility.yul\":6957:7079   */\n      tag_278\n      jumpi\n        /* \"#utility.yul\":6998:7077   */\n      tag_279\n      tag_143\n      jump\t// in\n    tag_279:\n        /* \"#utility.yul\":6957:7079   */\n    tag_278:\n        /* \"#utility.yul\":7115:7121   */\n      dup2\n        /* \"#utility.yul\":7102:7122   */\n      calldataload\n        /* \"#utility.yul\":7140:7234   */\n      tag_280\n        /* \"#utility.yul\":7230:7233   */\n      dup5\n        /* \"#utility.yul\":7222:7228   */\n      dup3\n        /* \"#utility.yul\":7215:7219   */\n      0x20\n        /* \"#utility.yul\":7207:7213   */\n      dup7\n        /* \"#utility.yul\":7203:7220   */\n      add\n        /* \"#utility.yul\":7140:7234   */\n      tag_161\n      jump\t// in\n    tag_280:\n        /* \"#utility.yul\":7131:7234   */\n      swap2\n      pop\n        /* \"#utility.yul\":6947:7240   */\n      pop\n        /* \"#utility.yul\":6870:7240   */\n      swap3\n      swap2\n      pop\n      pop\n      jump\t// out\n        /* \"#utility.yul\":7246:7785   */\n    tag_38:\n        /* \"#utility.yul\":7330:7336   */\n      0x00\n        /* \"#utility.yul\":7379:7381   */\n      0x20\n        /* \"#utility.yul\":7367:7376   */\n      dup3\n        /* \"#utility.yul\":7358:7365   */\n      dup5\n        /* \"#utility.yul\":7354:7377   */\n      sub\n        /* \"#utility.yul\":7350:7382   */\n      slt\n        /* \"#utility.yul\":7347:7466   */\n      iszero\n      tag_282\n      jumpi\n        /* \"#utility.yul\":7385:7464   */\n      tag_283\n      tag_141\n      jump\t// in\n    tag_283:\n        /* \"#utility.yul\":7347:7466   */\n    tag_282:\n        /* \"#utility.yul\":7533:7534   */\n      0x00\n        /* \"#utility.yul\":7522:7531   */\n      dup3\n        /* \"#utility.yul\":7518:7535   */\n      add\n        /* \"#utility.yul\":7505:7536   */\n      calldataload\n        /* \"#utility.yul\":7563:7581   */\n      0xffffffffffffffff\n        /* \"#utility.yul\":7555:7561   */\n      dup2\n        /* \"#utility.yul\":7552:7582   */\n      gt\n        /* \"#utility.yul\":7549:7666   */\n      iszero\n      tag_284\n      jumpi\n        /* \"#utility.yul\":7585:7664   */\n      tag_285\n      tag_142\n      jump\t// in\n    tag_285:\n        /* \"#utility.yul\":7549:7666   */\n    tag_284:\n        /* \"#utility.yul\":7690:7768   */\n      tag_286\n        /* \"#utility.yul\":7760:7767   */\n      dup5\n        /* \"#utility.yul\":7751:7757   */\n      dup3\n        /* \"#utility.yul\":7740:7749   */\n      dup6\n        /* \"#utility.yul\":7736:7758   */\n      add\n        /* \"#utility.yul\":7690:7768   */\n      tag_162\n      jump\t// in\n    tag_286:\n        /* \"#utility.yul\":7680:7768   */\n      swap2\n      pop\n        /* \"#utility.yul\":7476:7778   */\n      pop\n        /* \"#utility.yul\":7246:7785   */\n      swap3\n      swap2\n      pop\n      pop\n      jump\t// out\n        /* \"#utility.yul\":7791:7917   */\n    tag_163:\n        /* \"#utility.yul\":7828:7835   */\n      0x00\n        /* \"#utility.yul\":7868:7910   */\n      0xffffffffffffffffffffffffffffffffffffffff\n        /* \"#utility.yul\":7861:7866   */\n      dup3\n        /* \"#utility.yul\":7857:7911   */\n      and\n        /* \"#utility.yul\":7846:7911   */\n      swap1\n      pop\n        /* \"#utility.yul\":7791:7917   */\n      swap2\n      swap1\n      pop\n      jump\t// out\n        /* \"#utility.yul\":7923:8019   */\n    tag_164:\n        /* \"#utility.yul\":7960:7967   */\n      0x00\n        /* \"#utility.yul\":7989:8013   */\n      tag_289\n        /* \"#utility.yul\":8007:8012   */\n      dup3\n        /* \"#utility.yul\":7989:8013   */\n      tag_163\n      jump\t// in\n    tag_289:\n        /* \"#utility.yul\":7978:8013   */\n      swap1\n      pop\n        /* \"#utility.yul\":7923:8019   */\n      swap2\n      swap1\n      pop\n      jump\t// out\n        /* \"#utility.yul\":8025:8147   */\n    tag_165:\n        /* \"#utility.yul\":8098:8122   */\n      tag_291\n        /* \"#utility.yul\":8116:8121   */\n      dup2\n        /* \"#utility.yul\":8098:8122   */\n      tag_164\n      jump\t// in\n    tag_291:\n        /* \"#utility.yul\":8091:8096   */\n      dup2\n        /* \"#utility.yul\":8088:8123   */\n      eq\n        /* \"#utility.yul\":8078:8141   */\n      tag_292\n      jumpi\n        /* \"#utility.yul\":8137:8138   */\n      0x00\n        /* \"#utility.yul\":8134:8135   */\n      dup1\n        /* \"#utility.yul\":8127:8139   */\n      revert\n        /* \"#utility.yul\":8078:8141   */\n    tag_292:\n        /* \"#utility.yul\":8025:8147   */\n      pop\n      jump\t// out\n        /* \"#utility.yul\":8153:8292   */\n    tag_166:\n        /* \"#utility.yul\":8199:8204   */\n      0x00\n        /* \"#utility.yul\":8237:8243   */\n      dup2\n        /* \"#utility.yul\":8224:8244   */\n      calldataload\n        /* \"#utility.yul\":8215:8244   */\n      swap1\n      pop\n        /* \"#utility.yul\":8253:8286   */\n      tag_294\n        /* \"#utility.yul\":8280:8285   */\n      dup2\n        /* \"#utility.yul\":8253:8286   */\n      tag_165\n      jump\t// in\n    tag_294:\n        /* \"#utility.yul\":8153:8292   */\n      swap3\n      swap2\n      pop\n      pop\n      jump\t// out\n        /* \"#utility.yul\":8298:8772   */\n    tag_43:\n        /* \"#utility.yul\":8366:8372   */\n      0x00\n        /* \"#utility.yul\":8374:8380   */\n      dup1\n        /* \"#utility.yul\":8423:8425   */\n      0x40\n        /* \"#utility.yul\":8411:8420   */\n      dup4\n        /* \"#utility.yul\":8402:8409   */\n      dup6\n        /* \"#utility.yul\":8398:8421   */\n      sub\n        /* \"#utility.yul\":8394:8426   */\n      slt\n        /* \"#utility.yul\":8391:8510   */\n      iszero\n      tag_296\n      jumpi\n        /* \"#utility.yul\":8429:8508   */\n      tag_297\n      tag_141\n      jump\t// in\n    tag_297:\n        /* \"#utility.yul\":8391:8510   */\n    tag_296:\n        /* \"#utility.yul\":8549:8550   */\n      0x00\n        /* \"#utility.yul\":8574:8627   */\n      tag_298\n        /* \"#utility.yul\":8619:8626   */\n      dup6\n        /* \"#utility.yul\":8610:8616   */\n      dup3\n        /* \"#utility.yul\":8599:8608   */\n      dup7\n        /* \"#utility.yul\":8595:8617   */\n      add\n        /* \"#utility.yul\":8574:8627   */\n      tag_150\n      jump\t// in\n    tag_298:\n        /* \"#utility.yul\":8564:8627   */\n      swap3\n      pop\n        /* \"#utility.yul\":8520:8637   */\n      pop\n        /* \"#utility.yul\":8676:8678   */\n      0x20\n        /* \"#utility.yul\":8702:8755   */\n      tag_299\n        /* \"#utility.yul\":8747:8754   */\n      dup6\n        /* \"#utility.yul\":8738:8744   */\n      dup3\n        /* \"#utility.yul\":8727:8736   */\n      dup7\n        /* \"#utility.yul\":8723:8745   */\n      add\n        /* \"#utility.yul\":8702:8755   */\n      tag_166\n      jump\t// in\n    tag_299:\n        /* \"#utility.yul\":8692:8755   */\n      swap2\n      pop\n        /* \"#utility.yul\":8647:8765   */\n      pop\n        /* \"#utility.yul\":8298:8772   */\n      swap3\n      pop\n      swap3\n      swap1\n      pop\n      jump\t// out\n        /* \"#utility.yul\":8778:8892   */\n    tag_167:\n        /* \"#utility.yul\":8845:8851   */\n      0x00\n        /* \"#utility.yul\":8879:8884   */\n      dup2\n        /* \"#utility.yul\":8873:8885   */\n      mload\n        /* \"#utility.yul\":8863:8885   */\n      swap1\n      pop\n        /* \"#utility.yul\":8778:8892   */\n      swap2\n      swap1\n      pop\n      jump\t// out\n        /* \"#utility.yul\":8898:9082   */\n    tag_168:\n        /* \"#utility.yul\":8997:9008   */\n      0x00\n        /* \"#utility.yul\":9031:9037   */\n      dup3\n        /* \"#utility.yul\":9026:9029   */\n      dup3\n        /* \"#utility.yul\":9019:9038   */\n      mstore\n        /* \"#utility.yul\":9071:9075   */\n      0x20\n        /* \"#utility.yul\":9066:9069   */\n      dup3\n        /* \"#utility.yul\":9062:9076   */\n      add\n        /* \"#utility.yul\":9047:9076   */\n      swap1\n      pop\n        /* \"#utility.yul\":8898:9082   */\n      swap3\n      swap2\n      pop\n      pop\n      jump\t// out\n        /* \"#utility.yul\":9088:9220   */\n    tag_169:\n        /* \"#utility.yul\":9155:9159   */\n      0x00\n        /* \"#utility.yul\":9178:9181   */\n      dup2\n        /* \"#utility.yul\":9170:9181   */\n      swap1\n      pop\n        /* \"#utility.yul\":9208:9212   */\n      0x20\n        /* \"#utility.yul\":9203:9206   */\n      dup3\n        /* \"#utility.yul\":9199:9213   */\n      add\n        /* \"#utility.yul\":9191:9213   */\n      swap1\n      pop\n        /* \"#utility.yul\":9088:9220   */\n      swap2\n      swap1\n      pop\n      jump\t// out\n        /* \"#utility.yul\":9226:9334   */\n    tag_170:\n        /* \"#utility.yul\":9303:9327   */\n      tag_304\n        /* \"#utility.yul\":9321:9326   */\n      dup2\n        /* \"#utility.yul\":9303:9327   */\n      tag_147\n      jump\t// in\n    tag_304:\n        /* \"#utility.yul\":9298:9301   */\n      dup3\n        /* \"#utility.yul\":9291:9328   */\n      mstore\n        /* \"#utility.yul\":9226:9334   */\n      pop\n      pop\n      jump\t// out\n        /* \"#utility.yul\":9340:9519   */\n    tag_171:\n        /* \"#utility.yul\":9409:9419   */\n      0x00\n        /* \"#utility.yul\":9430:9476   */\n      tag_306\n        /* \"#utility.yul\":9472:9475   */\n      dup4\n        /* \"#utility.yul\":9464:9470   */\n      dup4\n        /* \"#utility.yul\":9430:9476   */\n      tag_170\n      jump\t// in\n    tag_306:\n        /* \"#utility.yul\":9508:9512   */\n      0x20\n        /* \"#utility.yul\":9503:9506   */\n      dup4\n        /* \"#utility.yul\":9499:9513   */\n      add\n        /* \"#utility.yul\":9485:9513   */\n      swap1\n      pop\n        /* \"#utility.yul\":9340:9519   */\n      swap3\n      swap2\n      pop\n      pop\n      jump\t// out\n        /* \"#utility.yul\":9525:9638   */\n    tag_172:\n        /* \"#utility.yul\":9595:9599   */\n      0x00\n        /* \"#utility.yul\":9627:9631   */\n      0x20\n        /* \"#utility.yul\":9622:9625   */\n      dup3\n        /* \"#utility.yul\":9618:9632   */\n      add\n        /* \"#utility.yul\":9610:9632   */\n      swap1\n      pop\n        /* \"#utility.yul\":9525:9638   */\n      swap2\n      swap1\n      pop\n      jump\t// out\n        /* \"#utility.yul\":9674:10406   */\n    tag_173:\n        /* \"#utility.yul\":9793:9796   */\n      0x00\n        /* \"#utility.yul\":9822:9876   */\n      tag_309\n        /* \"#utility.yul\":9870:9875   */\n      dup3\n        /* \"#utility.yul\":9822:9876   */\n      tag_167\n      jump\t// in\n    tag_309:\n        /* \"#utility.yul\":9892:9978   */\n      tag_310\n        /* \"#utility.yul\":9971:9977   */\n      dup2\n        /* \"#utility.yul\":9966:9969   */\n      dup6\n        /* \"#utility.yul\":9892:9978   */\n      tag_168\n      jump\t// in\n    tag_310:\n        /* \"#utility.yul\":9885:9978   */\n      swap4\n      pop\n        /* \"#utility.yul\":10002:10058   */\n      tag_311\n        /* \"#utility.yul\":10052:10057   */\n      dup4\n        /* \"#utility.yul\":10002:10058   */\n      tag_169\n      jump\t// in\n    tag_311:\n        /* \"#utility.yul\":10081:10088   */\n      dup1\n        /* \"#utility.yul\":10112:10113   */\n      0x00\n        /* \"#utility.yul\":10097:10381   */\n    tag_312:\n        /* \"#utility.yul\":10122:10128   */\n      dup4\n        /* \"#utility.yul\":10119:10120   */\n      dup2\n        /* \"#utility.yul\":10116:10129   */\n      lt\n        /* \"#utility.yul\":10097:10381   */\n      iszero\n      tag_314\n      jumpi\n        /* \"#utility.yul\":10198:10204   */\n      dup2\n        /* \"#utility.yul\":10192:10205   */\n      mload\n        /* \"#utility.yul\":10225:10288   */\n      tag_315\n        /* \"#utility.yul\":10284:10287   */\n      dup9\n        /* \"#utility.yul\":10269:10282   */\n      dup3\n        /* \"#utility.yul\":10225:10288   */\n      tag_171\n      jump\t// in\n    tag_315:\n        /* \"#utility.yul\":10218:10288   */\n      swap8\n      pop\n        /* \"#utility.yul\":10311:10371   */\n      tag_316\n        /* \"#utility.yul\":10364:10370   */\n      dup4\n        /* \"#utility.yul\":10311:10371   */\n      tag_172\n      jump\t// in\n    tag_316:\n        /* \"#utility.yul\":10301:10371   */\n      swap3\n      pop\n        /* \"#utility.yul\":10157:10381   */\n      pop\n        /* \"#utility.yul\":10144:10145   */\n      0x01\n        /* \"#utility.yul\":10141:10142   */\n      dup2\n        /* \"#utility.yul\":10137:10146   */\n      add\n        /* \"#utility.yul\":10132:10146   */\n      swap1\n      pop\n        /* \"#utility.yul\":10097:10381   */\n      jump(tag_312)\n    tag_314:\n        /* \"#utility.yul\":10101:10115   */\n      pop\n        /* \"#utility.yul\":10397:10400   */\n      dup6\n        /* \"#utility.yul\":10390:10400   */\n      swap4\n      pop\n        /* \"#utility.yul\":9798:10406   */\n      pop\n      pop\n      pop\n        /* \"#utility.yul\":9674:10406   */\n      swap3\n      swap2\n      pop\n      pop\n      jump\t// out\n        /* \"#utility.yul\":10412:10785   */\n    tag_49:\n        /* \"#utility.yul\":10555:10559   */\n      0x00\n        /* \"#utility.yul\":10593:10595   */\n      0x20\n        /* \"#utility.yul\":10582:10591   */\n      dup3\n        /* \"#utility.yul\":10578:10596   */\n      add\n        /* \"#utility.yul\":10570:10596   */\n      swap1\n      pop\n        /* \"#utility.yul\":10642:10651   */\n      dup2\n        /* \"#utility.yul\":10636:10640   */\n      dup2\n        /* \"#utility.yul\":10632:10652   */\n      sub\n        /* \"#utility.yul\":10628:10629   */\n      0x00\n        /* \"#utility.yul\":10617:10626   */\n      dup4\n        /* \"#utility.yul\":10613:10630   */\n      add\n        /* \"#utility.yul\":10606:10653   */\n      mstore\n        /* \"#utility.yul\":10670:10778   */\n      tag_318\n        /* \"#utility.yul\":10773:10777   */\n      dup2\n        /* \"#utility.yul\":10764:10770   */\n      dup5\n        /* \"#utility.yul\":10670:10778   */\n      tag_173\n      jump\t// in\n    tag_318:\n        /* \"#utility.yul\":10662:10778   */\n      swap1\n      pop\n        /* \"#utility.yul\":10412:10785   */\n      swap3\n      swap2\n      pop\n      pop\n      jump\t// out\n        /* \"#utility.yul\":10791:10890   */\n    tag_174:\n        /* \"#utility.yul\":10843:10849   */\n      0x00\n        /* \"#utility.yul\":10877:10882   */\n      dup2\n        /* \"#utility.yul\":10871:10883   */\n      mload\n        /* \"#utility.yul\":10861:10883   */\n      swap1\n      pop\n        /* \"#utility.yul\":10791:10890   */\n      swap2\n      swap1\n      pop\n      jump\t// out\n        /* \"#utility.yul\":10896:11065   */\n    tag_175:\n        /* \"#utility.yul\":10980:10991   */\n      0x00\n        /* \"#utility.yul\":11014:11020   */\n      dup3\n        /* \"#utility.yul\":11009:11012   */\n      dup3\n        /* \"#utility.yul\":11002:11021   */\n      mstore\n        /* \"#utility.yul\":11054:11058   */\n      0x20\n        /* \"#utility.yul\":11049:11052   */\n      dup3\n        /* \"#utility.yul\":11045:11059   */\n      add\n        /* \"#utility.yul\":11030:11059   */\n      swap1\n      pop\n        /* \"#utility.yul\":10896:11065   */\n      swap3\n      swap2\n      pop\n      pop\n      jump\t// out\n        /* \"#utility.yul\":11071:11317   */\n    tag_176:\n        /* \"#utility.yul\":11152:11153   */\n      0x00\n        /* \"#utility.yul\":11162:11275   */\n    tag_322:\n        /* \"#utility.yul\":11176:11182   */\n      dup4\n        /* \"#utility.yul\":11173:11174   */\n      dup2\n        /* \"#utility.yul\":11170:11183   */\n      lt\n        /* \"#utility.yul\":11162:11275   */\n      iszero\n      tag_324\n      jumpi\n        /* \"#utility.yul\":11261:11262   */\n      dup1\n        /* \"#utility.yul\":11256:11259   */\n      dup3\n        /* \"#utility.yul\":11252:11263   */\n      add\n        /* \"#utility.yul\":11246:11264   */\n      mload\n        /* \"#utility.yul\":11242:11243   */\n      dup2\n        /* \"#utility.yul\":11237:11240   */\n      dup5\n        /* \"#utility.yul\":11233:11244   */\n      add\n        /* \"#utility.yul\":11226:11265   */\n      mstore\n        /* \"#utility.yul\":11198:11200   */\n      0x20\n        /* \"#utility.yul\":11195:11196   */\n      dup2\n        /* \"#utility.yul\":11191:11201   */\n      add\n        /* \"#utility.yul\":11186:11201   */\n      swap1\n      pop\n        /* \"#utility.yul\":11162:11275   */\n      jump(tag_322)\n    tag_324:\n        /* \"#utility.yul\":11309:11310   */\n      0x00\n        /* \"#utility.yul\":11300:11306   */\n      dup5\n        /* \"#utility.yul\":11295:11298   */\n      dup5\n        /* \"#utility.yul\":11291:11307   */\n      add\n        /* \"#utility.yul\":11284:11311   */\n      mstore\n        /* \"#utility.yul\":11133:11317   */\n      pop\n        /* \"#utility.yul\":11071:11317   */\n      pop\n      pop\n      pop\n      jump\t// out\n        /* \"#utility.yul\":11323:11700   */\n    tag_177:\n        /* \"#utility.yul\":11411:11414   */\n      0x00\n        /* \"#utility.yul\":11439:11478   */\n      tag_326\n        /* \"#utility.yul\":11472:11477   */\n      dup3\n        /* \"#utility.yul\":11439:11478   */\n      tag_174\n      jump\t// in\n    tag_326:\n        /* \"#utility.yul\":11494:11565   */\n      tag_327\n        /* \"#utility.yul\":11558:11564   */\n      dup2\n        /* \"#utility.yul\":11553:11556   */\n      dup6\n        /* \"#utility.yul\":11494:11565   */\n      tag_175\n      jump\t// in\n    tag_327:\n        /* \"#utility.yul\":11487:11565   */\n      swap4\n      pop\n        /* \"#utility.yul\":11574:11639   */\n      tag_328\n        /* \"#utility.yul\":11632:11638   */\n      dup2\n        /* \"#utility.yul\":11627:11630   */\n      dup6\n        /* \"#utility.yul\":11620:11624   */\n      0x20\n        /* \"#utility.yul\":11613:11618   */\n      dup7\n        /* \"#utility.yul\":11609:11625   */\n      add\n        /* \"#utility.yul\":11574:11639   */\n      tag_176\n      jump\t// in\n    tag_328:\n        /* \"#utility.yul\":11664:11693   */\n      tag_329\n        /* \"#utility.yul\":11686:11692   */\n      dup2\n        /* \"#utility.yul\":11664:11693   */\n      tag_152\n      jump\t// in\n    tag_329:\n        /* \"#utility.yul\":11659:11662   */\n      dup5\n        /* \"#utility.yul\":11655:11694   */\n      add\n        /* \"#utility.yul\":11648:11694   */\n      swap2\n      pop\n        /* \"#utility.yul\":11415:11700   */\n      pop\n        /* \"#utility.yul\":11323:11700   */\n      swap3\n      swap2\n      pop\n      pop\n      jump\t// out\n        /* \"#utility.yul\":11706:12129   */\n    tag_54:\n        /* \"#utility.yul\":11847:11851   */\n      0x00\n        /* \"#utility.yul\":11885:11887   */\n      0x40\n        /* \"#utility.yul\":11874:11883   */\n      dup3\n        /* \"#utility.yul\":11870:11888   */\n      add\n        /* \"#utility.yul\":11862:11888   */\n      swap1\n      pop\n        /* \"#utility.yul\":11898:11969   */\n      tag_331\n        /* \"#utility.yul\":11966:11967   */\n      0x00\n        /* \"#utility.yul\":11955:11964   */\n      dup4\n        /* \"#utility.yul\":11951:11968   */\n      add\n        /* \"#utility.yul\":11942:11948   */\n      dup6\n        /* \"#utility.yul\":11898:11969   */\n      tag_148\n      jump\t// in\n    tag_331:\n        /* \"#utility.yul\":12016:12025   */\n      dup2\n        /* \"#utility.yul\":12010:12014   */\n      dup2\n        /* \"#utility.yul\":12006:12026   */\n      sub\n        /* \"#utility.yul\":12001:12003   */\n      0x20\n        /* \"#utility.yul\":11990:11999   */\n      dup4\n        /* \"#utility.yul\":11986:12004   */\n      add\n        /* \"#utility.yul\":11979:12027   */\n      mstore\n        /* \"#utility.yul\":12044:12122   */\n      tag_332\n        /* \"#utility.yul\":12117:12121   */\n      dup2\n        /* \"#utility.yul\":12108:12114   */\n      dup5\n        /* \"#utility.yul\":12044:12122   */\n      tag_177\n      jump\t// in\n    tag_332:\n        /* \"#utility.yul\":12036:12122   */\n      swap1\n      pop\n        /* \"#utility.yul\":11706:12129   */\n      swap4\n      swap3\n      pop\n      pop\n      pop\n      jump\t// out\n        /* \"#utility.yul\":12135:12315   */\n    tag_178:\n        /* \"#utility.yul\":12183:12260   */\n      0x4e487b7100000000000000000000000000000000000000000000000000000000\n        /* \"#utility.yul\":12180:12181   */\n      0x00\n        /* \"#utility.yul\":12173:12261   */\n      mstore\n        /* \"#utility.yul\":12280:12284   */\n      0x22\n        /* \"#utility.yul\":12277:12278   */\n      0x04\n        /* \"#utility.yul\":12270:12285   */\n      mstore\n        /* \"#utility.yul\":12304:12308   */\n      0x24\n        /* \"#utility.yul\":12301:12302   */\n      0x00\n        /* \"#utility.yul\":12294:12309   */\n      revert\n        /* \"#utility.yul\":12321:12641   */\n    tag_107:\n        /* \"#utility.yul\":12365:12371   */\n      0x00\n        /* \"#utility.yul\":12402:12403   */\n      0x02\n        /* \"#utility.yul\":12396:12400   */\n      dup3\n        /* \"#utility.yul\":12392:12404   */\n      div\n        /* \"#utility.yul\":12382:12404   */\n      swap1\n      pop\n        /* \"#utility.yul\":12449:12450   */\n      0x01\n        /* \"#utility.yul\":12443:12447   */\n      dup3\n        /* \"#utility.yul\":12439:12451   */\n      and\n        /* \"#utility.yul\":12470:12488   */\n      dup1\n        /* \"#utility.yul\":12460:12541   */\n      tag_335\n      jumpi\n        /* \"#utility.yul\":12526:12530   */\n      0x7f\n        /* \"#utility.yul\":12518:12524   */\n      dup3\n        /* \"#utility.yul\":12514:12531   */\n      and\n        /* \"#utility.yul\":12504:12531   */\n      swap2\n      pop\n        /* \"#utility.yul\":12460:12541   */\n    tag_335:\n        /* \"#utility.yul\":12588:12590   */\n      0x20\n        /* \"#utility.yul\":12580:12586   */\n      dup3\n        /* \"#utility.yul\":12577:12591   */\n      lt\n        /* \"#utility.yul\":12557:12575   */\n      dup2\n        /* \"#utility.yul\":12554:12592   */\n      sub\n        /* \"#utility.yul\":12551:12635   */\n      tag_336\n      jumpi\n        /* \"#utility.yul\":12607:12625   */\n      tag_337\n      tag_178\n      jump\t// in\n    tag_337:\n        /* \"#utility.yul\":12551:12635   */\n    tag_336:\n        /* \"#utility.yul\":12372:12641   */\n      pop\n        /* \"#utility.yul\":12321:12641   */\n      swap2\n      swap1\n      pop\n      jump\t// out\n        /* \"#utility.yul\":12647:12788   */\n    tag_179:\n        /* \"#utility.yul\":12696:12700   */\n      0x00\n        /* \"#utility.yul\":12719:12722   */\n      dup2\n        /* \"#utility.yul\":12711:12722   */\n      swap1\n      pop\n        /* \"#utility.yul\":12742:12745   */\n      dup2\n        /* \"#utility.yul\":12739:12740   */\n      0x00\n        /* \"#utility.yul\":12732:12746   */\n      mstore\n        /* \"#utility.yul\":12776:12780   */\n      0x20\n        /* \"#utility.yul\":12773:12774   */\n      0x00\n        /* \"#utility.yul\":12763:12781   */\n      keccak256\n        /* \"#utility.yul\":12755:12781   */\n      swap1\n      pop\n        /* \"#utility.yul\":12647:12788   */\n      swap2\n      swap1\n      pop\n      jump\t// out\n        /* \"#utility.yul\":12794:12887   */\n    tag_180:\n        /* \"#utility.yul\":12831:12837   */\n      0x00\n        /* \"#utility.yul\":12878:12880   */\n      0x20\n        /* \"#utility.yul\":12873:12875   */\n      0x1f\n        /* \"#utility.yul\":12866:12871   */\n      dup4\n        /* \"#utility.yul\":12862:12876   */\n      add\n        /* \"#utility.yul\":12858:12881   */\n      div\n        /* \"#utility.yul\":12848:12881   */\n      swap1\n      pop\n        /* \"#utility.yul\":12794:12887   */\n      swap2\n      swap1\n      pop\n      jump\t// out\n        /* \"#utility.yul\":12893:13000   */\n    tag_181:\n        /* \"#utility.yul\":12937:12945   */\n      0x00\n        /* \"#utility.yul\":12987:12992   */\n      dup3\n        /* \"#utility.yul\":12981:12985   */\n      dup3\n        /* \"#utility.yul\":12977:12993   */\n      shl\n        /* \"#utility.yul\":12956:12993   */\n      swap1\n      pop\n        /* \"#utility.yul\":12893:13000   */\n      swap3\n      swap2\n      pop\n      pop\n      jump\t// out\n        /* \"#utility.yul\":13006:13399   */\n    tag_182:\n        /* \"#utility.yul\":13075:13081   */\n      0x00\n        /* \"#utility.yul\":13125:13126   */\n      0x08\n        /* \"#utility.yul\":13113:13123   */\n      dup4\n        /* \"#utility.yul\":13109:13127   */\n      mul\n        /* \"#utility.yul\":13148:13245   */\n      tag_342\n        /* \"#utility.yul\":13178:13244   */\n      0xffffffffffffffffffffffffffffffffffffffffffffffffffffffffffffffff\n        /* \"#utility.yul\":13167:13176   */\n      dup3\n        /* \"#utility.yul\":13148:13245   */\n      tag_181\n      jump\t// in\n    tag_342:\n        /* \"#utility.yul\":13266:13305   */\n      tag_343\n        /* \"#utility.yul\":13296:13304   */\n      dup7\n        /* \"#utility.yul\":13285:13294   */\n      dup4\n        /* \"#utility.yul\":13266:13305   */\n      tag_181\n      jump\t// in\n    tag_343:\n        /* \"#utility.yul\":13254:13305   */\n      swap6\n      pop\n        /* \"#utility.yul\":13338:13342   */\n      dup1\n        /* \"#utility.yul\":13334:13343   */\n      not\n        /* \"#utility.yul\":13327:13332   */\n      dup5\n        /* \"#utility.yul\":13323:13344   */\n      and\n        /* \"#utility.yul\":13314:13344   */\n      swap4\n      pop\n        /* \"#utility.yul\":13387:13391   */\n      dup1\n        /* \"#utility.yul\":13377:13385   */\n      dup7\n        /* \"#utility.yul\":13373:13392   */\n      and\n        /* \"#utility.yul\":13366:13371   */\n      dup5\n        /* \"#utility.yul\":13363:13393   */\n      or\n        /* \"#utility.yul\":13353:13393   */\n      swap3\n      pop\n        /* \"#utility.yul\":13082:13399   */\n      pop\n      pop\n        /* \"#utility.yul\":13006:13399   */\n      swap4\n      swap3\n      pop\n      pop\n      pop\n      jump\t// out\n        /* \"#utility.yul\":13405:13465   */\n    tag_183:\n        /* \"#utility.yul\":13433:13436   */\n      0x00\n        /* \"#utility.yul\":13454:13459   */\n      dup2\n        /* \"#utility.yul\":13447:13459   */\n      swap1\n      pop\n        /* \"#utility.yul\":13405:13465   */\n      swap2\n      swap1\n      pop\n      jump\t// out\n        /* \"#utility.yul\":13471:13613   */\n    tag_184:\n        /* \"#utility.yul\":13521:13530   */\n      0x00\n        /* \"#utility.yul\":13554:13607   */\n      tag_346\n        /* \"#utility.yul\":13572:13606   */\n      tag_347\n        /* \"#utility.yul\":13581:13605   */\n      tag_348\n        /* \"#utility.yul\":13599:13604   */\n      dup5\n        /* \"#utility.yul\":13581:13605   */\n      tag_147\n      jump\t// in\n    tag_348:\n        /* \"#utility.yul\":13572:13606   */\n      tag_183\n      jump\t// in\n    tag_347:\n        /* \"#utility.yul\":13554:13607   */\n      tag_147\n      jump\t// in\n    tag_346:\n        /* \"#utility.yul\":13541:13607   */\n      swap1\n      pop\n        /* \"#utility.yul\":13471:13613   */\n      swap2\n      swap1\n      pop\n      jump\t// out\n        /* \"#utility.yul\":13619:13694   */\n    tag_185:\n        /* \"#utility.yul\":13662:13665   */\n      0x00\n        /* \"#utility.yul\":13683:13688   */\n      dup2\n        /* \"#utility.yul\":13676:13688   */\n      swap1\n      pop\n        /* \"#utility.yul\":13619:13694   */\n      swap2\n      swap1\n      pop\n      jump\t// out\n        /* \"#utility.yul\":13700:13969   */\n    tag_186:\n        /* \"#utility.yul\":13810:13849   */\n      tag_351\n        /* \"#utility.yul\":13841:13848   */\n      dup4\n        /* \"#utility.yul\":13810:13849   */\n      tag_184\n      jump\t// in\n    tag_351:\n        /* \"#utility.yul\":13871:13962   */\n      tag_352\n        /* \"#utility.yul\":13920:13961   */\n      tag_353\n        /* \"#utility.yul\":13944:13960   */\n      dup3\n        /* \"#utility.yul\":13920:13961   */\n      tag_185\n      jump\t// in\n    tag_353:\n        /* \"#utility.yul\":13912:13918   */\n      dup5\n        /* \"#utility.yul\":13905:13909   */\n      dup5\n        /* \"#utility.yul\":13899:13910   */\n      sload\n        /* \"#utility.yul\":13871:13962   */\n      tag_182\n      jump\t// in\n    tag_352:\n        /* \"#utility.yul\":13865:13869   */\n      dup3\n        /* \"#utility.yul\":13858:13963   */\n      sstore\n        /* \"#utility.yul\":13776:13969   */\n      pop\n        /* \"#utility.yul\":13700:13969   */\n      pop\n      pop\n      pop\n      jump\t// out\n        /* \"#utility.yul\":13975:14048   */\n    tag_187:\n        /* \"#utility.yul\":14020:14023   */\n      0x00\n        /* \"#utility.yul\":13975:14048   */\n      swap1\n      jump\t// out\n        /* \"#utility.yul\":14054:14243   */\n    tag_188:\n        /* \"#utility.yul\":14131:14163   */\n      tag_356\n      tag_187\n      jump\t// in\n    tag_356:\n        /* \"#utility.yul\":14172:14237   */\n      tag_357\n        /* \"#utility.yul\":14230:14236   */\n      dup2\n        /* \"#utility.yul\":14222:14228   */\n      dup5\n        /* \"#utility.yul\":14216:14220   */\n      dup5\n        /* \"#utility.yul\":14172:14237   */\n      tag_186\n      jump\t// in\n    tag_357:\n        /* \"#utility.yul\":14107:14243   */\n      pop\n        /* \"#utility.yul\":14054:14243   */\n      pop\n      pop\n      jump\t// out\n        /* \"#utility.yul\":14249:14435   */\n    tag_189:\n        /* \"#utility.yul\":14309:14429   */\n    tag_359:\n        /* \"#utility.yul\":14326:14329   */\n      dup2\n        /* \"#utility.yul\":14319:14324   */\n      dup2\n        /* \"#utility.yul\":14316:14330   */\n      lt\n        /* \"#utility.yul\":14309:14429   */\n      iszero\n      tag_361\n      jumpi\n        /* \"#utility.yul\":14380:14419   */\n      tag_362\n        /* \"#utility.yul\":14417:14418   */\n      0x00\n        /* \"#utility.yul\":14410:14415   */\n      dup3\n        /* \"#utility.yul\":14380:14419   */\n      tag_188\n      jump\t// in\n    tag_362:\n        /* \"#utility.yul\":14353:14354   */\n      0x01\n        /* \"#utility.yul\":14346:14351   */\n      dup2\n        /* \"#utility.yul\":14342:14355   */\n      add\n        /* \"#utility.yul\":14333:14355   */\n      swap1\n      pop\n        /* \"#utility.yul\":14309:14429   */\n      jump(tag_359)\n    tag_361:\n        /* \"#utility.yul\":14249:14435   */\n      pop\n      pop\n      jump\t// out\n        /* \"#utility.yul\":14441:14984   */\n    tag_190:\n        /* \"#utility.yul\":14542:14544   */\n      0x1f\n        /* \"#utility.yul\":14537:14540   */\n      dup3\n        /* \"#utility.yul\":14534:14545   */\n      gt\n        /* \"#utility.yul\":14531:14977   */\n      iszero\n      tag_364\n      jumpi\n        /* \"#utility.yul\":14576:14614   */\n      tag_365\n        /* \"#utility.yul\":14608:14613   */\n      dup2\n        /* \"#utility.yul\":14576:14614   */\n      tag_179\n      jump\t// in\n    tag_365:\n        /* \"#utility.yul\":14660:14689   */\n      tag_366\n        /* \"#utility.yul\":14678:14688   */\n      dup5\n        /* \"#utility.yul\":14660:14689   */\n      tag_180\n      jump\t// in\n    tag_366:\n        /* \"#utility.yul\":14650:14658   */\n      dup2\n        /* \"#utility.yul\":14646:14690   */\n      add\n        /* \"#utility.yul\":14843:14845   */\n      0x20\n        /* \"#utility.yul\":14831:14841   */\n      dup6\n        /* \"#utility.yul\":14828:14846   */\n      lt\n        /* \"#utility.yul\":14825:14874   */\n      iszero\n      tag_367\n      jumpi\n        /* \"#utility.yul\":14864:14872   */\n      dup2\n        /* \"#utility.yul\":14849:14872   */\n      swap1\n      pop\n        /* \"#utility.yul\":14825:14874   */\n    tag_367:\n        /* \"#utility.yul\":14887:14967   */\n      tag_368\n        /* \"#utility.yul\":14943:14965   */\n      tag_369\n        /* \"#utility.yul\":14961:14964   */\n      dup6\n        /* \"#utility.yul\":14943:14965   */\n      tag_180\n      jump\t// in\n    tag_369:\n        /* \"#utility.yul\":14933:14941   */\n      dup4\n        /* \"#utility.yul\":14929:14966   */\n      add\n        /* \"#utility.yul\":14916:14927   */\n      dup3\n        /* \"#utility.yul\":14887:14967   */\n      tag_189\n      jump\t// in\n    tag_368:\n        /* \"#utility.yul\":14546:14977   */\n      pop\n      pop\n        /* \"#utility.yul\":14531:14977   */\n    tag_364:\n        /* \"#utility.yul\":14441:14984   */\n      pop\n      pop\n      pop\n      jump\t// out\n        /* \"#utility.yul\":14990:15107   */\n    tag_191:\n        /* \"#utility.yul\":15044:15052   */\n      0x00\n        /* \"#utility.yul\":15094:15099   */\n      dup3\n        /* \"#utility.yul\":15088:15092   */\n      dup3\n        /* \"#utility.yul\":15084:15100   */\n      shr\n        /* \"#utility.yul\":15063:15100   */\n      swap1\n      pop\n        /* \"#utility.yul\":14990:15107   */\n      swap3\n      swap2\n      pop\n      pop\n      jump\t// out\n        /* \"#utility.yul\":15113:15282   */\n    tag_192:\n        /* \"#utility.yul\":15157:15163   */\n      0x00\n        /* \"#utility.yul\":15190:15241   */\n      tag_372\n        /* \"#utility.yul\":15238:15239   */\n      0x00\n        /* \"#utility.yul\":15234:15240   */\n      not\n        /* \"#utility.yul\":15226:15231   */\n      dup5\n        /* \"#utility.yul\":15223:15224   */\n      0x08\n        /* \"#utility.yul\":15219:15232   */\n      mul\n        /* \"#utility.yul\":15190:15241   */\n      tag_191\n      jump\t// in\n    tag_372:\n        /* \"#utility.yul\":15186:15242   */\n      not\n        /* \"#utility.yul\":15271:15275   */\n      dup1\n        /* \"#utility.yul\":15265:15269   */\n      dup4\n        /* \"#utility.yul\":15261:15276   */\n      and\n        /* \"#utility.yul\":15251:15276   */\n      swap2\n      pop\n        /* \"#utility.yul\":15164:15282   */\n      pop\n        /* \"#utility.yul\":15113:15282   */\n      swap3\n      swap2\n      pop\n      pop\n      jump\t// out\n        /* \"#utility.yul\":15287:15582   */\n    tag_193:\n        /* \"#utility.yul\":15363:15367   */\n      0x00\n        /* \"#utility.yul\":15509:15538   */\n      tag_374\n        /* \"#utility.yul\":15534:15537   */\n      dup4\n        /* \"#utility.yul\":15528:15532   */\n      dup4\n        /* \"#utility.yul\":15509:15538   */\n      tag_192\n      jump\t// in\n    tag_374:\n        /* \"#utility.yul\":15501:15538   */\n      swap2\n      pop\n        /* \"#utility.yul\":15571:15574   */\n      dup3\n        /* \"#utility.yul\":15568:15569   */\n      0x02\n        /* \"#utility.yul\":15564:15575   */\n      mul\n        /* \"#utility.yul\":15558:15562   */\n      dup3\n        /* \"#utility.yul\":15555:15576   */\n      or\n        /* \"#utility.yul\":15547:15576   */\n      swap1\n      pop\n        /* \"#utility.yul\":15287:15582   */\n      swap3\n      swap2\n      pop\n      pop\n      jump\t// out\n        /* \"#utility.yul\":15587:16982   */\n    tag_65:\n        /* \"#utility.yul\":15704:15741   */\n      tag_376\n        /* \"#utility.yul\":15737:15740   */\n      dup3\n        /* \"#utility.yul\":15704:15741   */\n      tag_174\n      jump\t// in\n    tag_376:\n        /* \"#utility.yul\":15806:15824   */\n      0xffffffffffffffff\n        /* \"#utility.yul\":15798:15804   */\n      dup2\n        /* \"#utility.yul\":15795:15825   */\n      gt\n        /* \"#utility.yul\":15792:15848   */\n      iszero\n      tag_377\n      jumpi\n        /* \"#utility.yul\":15828:15846   */\n      tag_378\n      tag_153\n      jump\t// in\n    tag_378:\n        /* \"#utility.yul\":15792:15848   */\n    tag_377:\n        /* \"#utility.yul\":15872:15910   */\n      tag_379\n        /* \"#utility.yul\":15904:15908   */\n      dup3\n        /* \"#utility.yul\":15898:15909   */\n      sload\n        /* \"#utility.yul\":15872:15910   */\n      tag_107\n      jump\t// in\n    tag_379:\n        /* \"#utility.yul\":15957:16024   */\n      tag_380\n        /* \"#utility.yul\":16017:16023   */\n      dup3\n        /* \"#utility.yul\":16009:16015   */\n      dup3\n        /* \"#utility.yul\":16003:16007   */\n      dup6\n        /* \"#utility.yul\":15957:16024   */\n      tag_190\n      jump\t// in\n    tag_380:\n        /* \"#utility.yul\":16051:16052   */\n      0x00\n        /* \"#utility.yul\":16075:16079   */\n      0x20\n        /* \"#utility.yul\":16062:16079   */\n      swap1\n      pop\n        /* \"#utility.yul\":16107:16109   */\n      0x1f\n        /* \"#utility.yul\":16099:16105   */\n      dup4\n        /* \"#utility.yul\":16096:16110   */\n      gt\n        /* \"#utility.yul\":16124:16125   */\n      0x01\n        /* \"#utility.yul\":16119:16737   */\n      dup2\n      eq\n      tag_382\n      jumpi\n        /* \"#utility.yul\":16781:16782   */\n      0x00\n        /* \"#utility.yul\":16798:16804   */\n      dup5\n        /* \"#utility.yul\":16795:16872   */\n      iszero\n      tag_383\n      jumpi\n        /* \"#utility.yul\":16847:16856   */\n      dup3\n        /* \"#utility.yul\":16842:16845   */\n      dup8\n        /* \"#utility.yul\":16838:16857   */\n      add\n        /* \"#utility.yul\":16832:16858   */\n      mload\n        /* \"#utility.yul\":16823:16858   */\n      swap1\n      pop\n        /* \"#utility.yul\":16795:16872   */\n    tag_383:\n        /* \"#utility.yul\":16898:16965   */\n      tag_384\n        /* \"#utility.yul\":16958:16964   */\n      dup6\n        /* \"#utility.yul\":16951:16956   */\n      dup3\n        /* \"#utility.yul\":16898:16965   */\n      tag_193\n      jump\t// in\n    tag_384:\n        /* \"#utility.yul\":16892:16896   */\n      dup7\n        /* \"#utility.yul\":16885:16966   */\n      sstore\n        /* \"#utility.yul\":16754:16976   */\n      pop\n        /* \"#utility.yul\":16089:16976   */\n      jump(tag_381)\n        /* \"#utility.yul\":16119:16737   */\n    tag_382:\n        /* \"#utility.yul\":16171:16175   */\n      0x1f\n        /* \"#utility.yul\":16167:16176   */\n      not\n        /* \"#utility.yul\":16159:16165   */\n      dup5\n        /* \"#utility.yul\":16155:16177   */\n      and\n        /* \"#utility.yul\":16205:16242   */\n      tag_385\n        /* \"#utility.yul\":16237:16241   */\n      dup7\n        /* \"#utility.yul\":16205:16242   */\n      tag_179\n      jump\t// in\n    tag_385:\n        /* \"#utility.yul\":16264:16265   */\n      0x00\n        /* \"#utility.yul\":16278:16486   */\n    tag_386:\n        /* \"#utility.yul\":16292:16299   */\n      dup3\n        /* \"#utility.yul\":16289:16290   */\n      dup2\n        /* \"#utility.yul\":16286:16300   */\n      lt\n        /* \"#utility.yul\":16278:16486   */\n      iszero\n      tag_388\n      jumpi\n        /* \"#utility.yul\":16371:16380   */\n      dup5\n        /* \"#utility.yul\":16366:16369   */\n      dup10\n        /* \"#utility.yul\":16362:16381   */\n      add\n        /* \"#utility.yul\":16356:16382   */\n      mload\n        /* \"#utility.yul\":16348:16354   */\n      dup3\n        /* \"#utility.yul\":16341:16383   */\n      sstore\n        /* \"#utility.yul\":16422:16423   */\n      0x01\n        /* \"#utility.yul\":16414:16420   */\n      dup3\n        /* \"#utility.yul\":16410:16424   */\n      add\n        /* \"#utility.yul\":16400:16424   */\n      swap2\n      pop\n        /* \"#utility.yul\":16469:16471   */\n      0x20\n        /* \"#utility.yul\":16458:16467   */\n      dup6\n        /* \"#utility.yul\":16454:16472   */\n      add\n        /* \"#utility.yul\":16441:16472   */\n      swap5\n      pop\n        /* \"#utility.yul\":16315:16319   */\n      0x20\n        /* \"#utility.yul\":16312:16313   */\n      dup2\n        /* \"#utility.yul\":16308:16320   */\n      add\n        /* \"#utility.yul\":16303:16320   */\n      swap1\n      pop\n        /* \"#utility.yul\":16278:16486   */\n      jump(tag_386)\n    tag_388:\n        /* \"#utility.yul\":16514:16520   */\n      dup7\n        /* \"#utility.yul\":16505:16512   */\n      dup4\n        /* \"#utility.yul\":16502:16521   */\n      lt\n        /* \"#utility.yul\":16499:16678   */\n      iszero\n      tag_389\n      jumpi\n        /* \"#utility.yul\":16572:16581   */\n      dup5\n        /* \"#utility.yul\":16567:16570   */\n      dup10\n        /* \"#utility.yul\":16563:16582   */\n      add\n        /* \"#utility.yul\":16557:16583   */\n      mload\n        /* \"#utility.yul\":16615:16663   */\n      tag_390\n        /* \"#utility.yul\":16657:16661   */\n      0x1f\n        /* \"#utility.yul\":16649:16655   */\n      dup10\n        /* \"#utility.yul\":16645:16662   */\n      and\n        /* \"#utility.yul\":16634:16643   */\n      dup3\n        /* \"#utility.yul\":16615:16663   */\n      tag_192\n      jump\t// in\n    tag_390:\n        /* \"#utility.yul\":16607:16613   */\n      dup4\n        /* \"#utility.yul\":16600:16664   */\n      sstore\n        /* \"#utility.yul\":16522:16678   */\n      pop\n        /* \"#utility.yul\":16499:16678   */\n    tag_389:\n        /* \"#utility.yul\":16724:16725   */\n      0x01\n        /* \"#utility.yul\":16720:16721   */\n      0x02\n        /* \"#utility.yul\":16712:16718   */\n      dup9\n        /* \"#utility.yul\":16708:16722   */\n      mul\n        /* \"#utility.yul\":16704:16726   */\n      add\n        /* \"#utility.yul\":16698:16702   */\n      dup9\n        /* \"#utility.yul\":16691:16727   */\n      sstore\n        /* \"#utility.yul\":16126:16737   */\n      pop\n      pop\n      pop\n        /* \"#utility.yul\":16089:16976   */\n    tag_381:\n      pop\n        /* \"#utility.yul\":15679:16982   */\n      pop\n      pop\n      pop\n        /* \"#utility.yul\":15587:16982   */\n      pop\n      pop\n      jump\t// out\n        /* \"#utility.yul\":16988:17168   */\n    tag_74:\n        /* \"#utility.yul\":17036:17113   */\n      0x4e487b7100000000000000000000000000000000000000000000000000000000\n        /* \"#utility.yul\":17033:17034   */\n      0x00\n        /* \"#utility.yul\":17026:17114   */\n      mstore\n        /* \"#utility.yul\":17133:17137   */\n      0x32\n        /* \"#utility.yul\":17130:17131   */\n      0x04\n        /* \"#utility.yul\":17123:17138   */\n      mstore\n        /* \"#utility.yul\":17157:17161   */\n      0x24\n        /* \"#utility.yul\":17154:17155   */\n      0x00\n        /* \"#utility.yul\":17147:17162   */\n      revert\n        /* \"#utility.yul\":17174:17354   */\n    tag_194:\n        /* \"#utility.yul\":17222:17299   */\n      0x4e487b7100000000000000000000000000000000000000000000000000000000\n        /* \"#utility.yul\":17219:17220   */\n      0x00\n        /* \"#utility.yul\":17212:17300   */\n      mstore\n        /* \"#utility.yul\":17319:17323   */\n      0x11\n        /* \"#utility.yul\":17316:17317   */\n      0x04\n        /* \"#utility.yul\":17309:17324   */\n      mstore\n        /* \"#utility.yul\":17343:17347   */\n      0x24\n        /* \"#utility.yul\":17340:17341   */\n      0x00\n        /* \"#utility.yul\":17333:17348   */\n      revert\n        /* \"#utility.yul\":17360:17551   */\n    tag_76:\n        /* \"#utility.yul\":17400:17403   */\n      0x00\n        /* \"#utility.yul\":17419:17439   */\n      tag_394\n        /* \"#utility.yul\":17437:17438   */\n      dup3\n        /* \"#utility.yul\":17419:17439   */\n      tag_147\n      jump\t// in\n    tag_394:\n        /* \"#utility.yul\":17414:17439   */\n      swap2\n      pop\n        /* \"#utility.yul\":17453:17473   */\n      tag_395\n        /* \"#utility.yul\":17471:17472   */\n      dup4\n        /* \"#utility.yul\":17453:17473   */\n      tag_147\n      jump\t// in\n    tag_395:\n        /* \"#utility.yul\":17448:17473   */\n      swap3\n      pop\n        /* \"#utility.yul\":17496:17497   */\n      dup3\n        /* \"#utility.yul\":17493:17494   */\n      dup3\n        /* \"#utility.yul\":17489:17498   */\n      add\n        /* \"#utility.yul\":17482:17498   */\n      swap1\n      pop\n        /* \"#utility.yul\":17517:17520   */\n      dup1\n        /* \"#utility.yul\":17514:17515   */\n      dup3\n        /* \"#utility.yul\":17511:17521   */\n      gt\n        /* \"#utility.yul\":17508:17544   */\n      iszero\n      tag_396\n      jumpi\n        /* \"#utility.yul\":17524:17542   */\n      tag_397\n      tag_194\n      jump\t// in\n    tag_397:\n        /* \"#utility.yul\":17508:17544   */\n    tag_396:\n        /* \"#utility.yul\":17360:17551   */\n      swap3\n      swap2\n      pop\n      pop\n      jump\t// out\n        /* \"#utility.yul\":17557:17790   */\n    tag_78:\n        /* \"#utility.yul\":17596:17599   */\n      0x00\n        /* \"#utility.yul\":17619:17643   */\n      tag_399\n        /* \"#utility.yul\":17637:17642   */\n      dup3\n        /* \"#utility.yul\":17619:17643   */\n      tag_147\n      jump\t// in\n    tag_399:\n        /* \"#utility.yul\":17610:17643   */\n      swap2\n      pop\n        /* \"#utility.yul\":17665:17731   */\n      0xffffffffffffffffffffffffffffffffffffffffffffffffffffffffffffffff\n        /* \"#utility.yul\":17658:17663   */\n      dup3\n        /* \"#utility.yul\":17655:17732   */\n      sub\n        /* \"#utility.yul\":17652:17755   */\n      tag_400\n      jumpi\n        /* \"#utility.yul\":17735:17753   */\n      tag_401\n      tag_194\n      jump\t// in\n    tag_401:\n        /* \"#utility.yul\":17652:17755   */\n    tag_400:\n        /* \"#utility.yul\":17782:17783   */\n      0x01\n        /* \"#utility.yul\":17775:17780   */\n      dup3\n        /* \"#utility.yul\":17771:17784   */\n      add\n        /* \"#utility.yul\":17764:17784   */\n      swap1\n      pop\n        /* \"#utility.yul\":17557:17790   */\n      swap2\n      swap1\n      pop\n      jump\t// out\n        /* \"#utility.yul\":17796:18329   */\n    tag_84:\n        /* \"#utility.yul\":17965:17969   */\n      0x00\n        /* \"#utility.yul\":18003:18005   */\n      0x60\n        /* \"#utility.yul\":17992:18001   */\n      dup3\n        /* \"#utility.yul\":17988:18006   */\n      add\n        /* \"#utility.yul\":17980:18006   */\n      swap1\n      pop\n        /* \"#utility.yul\":18016:18087   */\n      tag_403\n        /* \"#utility.yul\":18084:18085   */\n      0x00\n        /* \"#utility.yul\":18073:18082   */\n      dup4\n        /* \"#utility.yul\":18069:18086   */\n      add\n        /* \"#utility.yul\":18060:18066   */\n      dup7\n        /* \"#utility.yul\":18016:18087   */\n      tag_148\n      jump\t// in\n    tag_403:\n        /* \"#utility.yul\":18097:18169   */\n      tag_404\n        /* \"#utility.yul\":18165:18167   */\n      0x20\n        /* \"#utility.yul\":18154:18163   */\n      dup4\n        /* \"#utility.yul\":18150:18168   */\n      add\n        /* \"#utility.yul\":18141:18147   */\n      dup6\n        /* \"#utility.yul\":18097:18169   */\n      tag_148\n      jump\t// in\n    tag_404:\n        /* \"#utility.yul\":18216:18225   */\n      dup2\n        /* \"#utility.yul\":18210:18214   */\n      dup2\n        /* \"#utility.yul\":18206:18226   */\n      sub\n        /* \"#utility.yul\":18201:18203   */\n      0x40\n        /* \"#utility.yul\":18190:18199   */\n      dup4\n        /* \"#utility.yul\":18186:18204   */\n      add\n        /* \"#utility.yul\":18179:18227   */\n      mstore\n        /* \"#utility.yul\":18244:18322   */\n      tag_405\n        /* \"#utility.yul\":18317:18321   */\n      dup2\n        /* \"#utility.yul\":18308:18314   */\n      dup5\n        /* \"#utility.yul\":18244:18322   */\n      tag_177\n      jump\t// in\n    tag_405:\n        /* \"#utility.yul\":18236:18322   */\n      swap1\n      pop\n        /* \"#utility.yul\":17796:18329   */\n      swap5\n      swap4\n      pop\n      pop\n      pop\n      pop\n      jump\t// out\n        /* \"#utility.yul\":18335:18453   */\n    tag_195:\n        /* \"#utility.yul\":18422:18446   */\n      tag_407\n        /* \"#utility.yul\":18440:18445   */\n      dup2\n        /* \"#utility.yul\":18422:18446   */\n      tag_164\n      jump\t// in\n    tag_407:\n        /* \"#utility.yul\":18417:18420   */\n      dup3\n        /* \"#utility.yul\":18410:18447   */\n      mstore\n        /* \"#utility.yul\":18335:18453   */\n      pop\n      pop\n      jump\t// out\n        /* \"#utility.yul\":18459:18791   */\n    tag_95:\n        /* \"#utility.yul\":18580:18584   */\n      0x00\n        /* \"#utility.yul\":18618:18620   */\n      0x40\n        /* \"#utility.yul\":18607:18616   */\n      dup3\n        /* \"#utility.yul\":18603:18621   */\n      add\n        /* \"#utility.yul\":18595:18621   */\n      swap1\n      pop\n        /* \"#utility.yul\":18631:18702   */\n      tag_409\n        /* \"#utility.yul\":18699:18700   */\n      0x00\n        /* \"#utility.yul\":18688:18697   */\n      dup4\n        /* \"#utility.yul\":18684:18701   */\n      add\n        /* \"#utility.yul\":18675:18681   */\n      dup6\n        /* \"#utility.yul\":18631:18702   */\n      tag_148\n      jump\t// in\n    tag_409:\n        /* \"#utility.yul\":18712:18784   */\n      tag_410\n        /* \"#utility.yul\":18780:18782   */\n      0x20\n        /* \"#utility.yul\":18769:18778   */\n      dup4\n        /* \"#utility.yul\":18765:18783   */\n      add\n        /* \"#utility.yul\":18756:18762   */\n      dup5\n        /* \"#utility.yul\":18712:18784   */\n      tag_195\n      jump\t// in\n    tag_410:\n        /* \"#utility.yul\":18459:18791   */\n      swap4\n      swap3\n      pop\n      pop\n      pop\n      jump\t// out\n        /* \"#utility.yul\":18797:19207   */\n    tag_103:\n        /* \"#utility.yul\":18837:18844   */\n      0x00\n        /* \"#utility.yul\":18860:18880   */\n      tag_412\n        /* \"#utility.yul\":18878:18879   */\n      dup3\n        /* \"#utility.yul\":18860:18880   */\n      tag_147\n      jump\t// in\n    tag_412:\n        /* \"#utility.yul\":18855:18880   */\n      swap2\n      pop\n        /* \"#utility.yul\":18894:18914   */\n      tag_413\n        /* \"#utility.yul\":18912:18913   */\n      dup4\n        /* \"#utility.yul\":18894:18914   */\n      tag_147\n      jump\t// in\n    tag_413:\n        /* \"#utility.yul\":18889:18914   */\n      swap3\n      pop\n        /* \"#utility.yul\":18949:18950   */\n      dup3\n        /* \"#utility.yul\":18946:18947   */\n      dup3\n        /* \"#utility.yul\":18942:18951   */\n      mul\n        /* \"#utility.yul\":18971:19001   */\n      tag_414\n        /* \"#utility.yul\":18989:19000   */\n      dup2\n        /* \"#utility.yul\":18971:19001   */\n      tag_147\n      jump\t// in\n    tag_414:\n        /* \"#utility.yul\":18960:19001   */\n      swap2\n      pop\n        /* \"#utility.yul\":19150:19151   */\n      dup3\n        /* \"#utility.yul\":19141:19148   */\n      dup3\n        /* \"#utility.yul\":19137:19152   */\n      div\n        /* \"#utility.yul\":19134:19135   */\n      dup5\n        /* \"#utility.yul\":19131:19153   */\n      eq\n        /* \"#utility.yul\":19111:19112   */\n      dup4\n        /* \"#utility.yul\":19104:19113   */\n      iszero\n        /* \"#utility.yul\":19084:19167   */\n      or\n        /* \"#utility.yul\":19061:19200   */\n      tag_415\n      jumpi\n        /* \"#utility.yul\":19180:19198   */\n      tag_416\n      tag_194\n      jump\t// in\n    tag_416:\n        /* \"#utility.yul\":19061:19200   */\n    tag_415:\n        /* \"#utility.yul\":18845:19207   */\n      pop\n        /* \"#utility.yul\":18797:19207   */\n      swap3\n      swap2\n      pop\n      pop\n      jump\t// out\n        /* \"#utility.yul\":19213:19407   */\n    tag_115:\n        /* \"#utility.yul\":19253:19257   */\n      0x00\n        /* \"#utility.yul\":19273:19293   */\n      tag_418\n        /* \"#utility.yul\":19291:19292   */\n      dup3\n        /* \"#utility.yul\":19273:19293   */\n      tag_147\n      jump\t// in\n    tag_418:\n        /* \"#utility.yul\":19268:19293   */\n      swap2\n      pop\n        /* \"#utility.yul\":19307:19327   */\n      tag_419\n        /* \"#utility.yul\":19325:19326   */\n      dup4\n        /* \"#utility.yul\":19307:19327   */\n      tag_147\n      jump\t// in\n    tag_419:\n        /* \"#utility.yul\":19302:19327   */\n      swap3\n      pop\n        /* \"#utility.yul\":19351:19352   */\n      dup3\n        /* \"#utility.yul\":19348:19349   */\n      dup3\n        /* \"#utility.yul\":19344:19353   */\n      sub\n        /* \"#utility.yul\":19336:19353   */\n      swap1\n      pop\n        /* \"#utility.yul\":19375:19376   */\n      dup2\n        /* \"#utility.yul\":19369:19373   */\n      dup2\n        /* \"#utility.yul\":19366:19377   */\n      gt\n        /* \"#utility.yul\":19363:19400   */\n      iszero\n      tag_420\n      jumpi\n        /* \"#utility.yul\":19380:19398   */\n      tag_421\n      tag_194\n      jump\t// in\n    tag_421:\n        /* \"#utility.yul\":19363:19400   */\n    tag_420:\n        /* \"#utility.yul\":19213:19407   */\n      swap3\n      swap2\n      pop\n      pop\n      jump\t// out\n        /* \"#utility.yul\":19413:19745   */\n    tag_117:\n        /* \"#utility.yul\":19534:19538   */\n      0x00\n        /* \"#utility.yul\":19572:19574   */\n      0x40\n        /* \"#utility.yul\":19561:19570   */\n      dup3\n        /* \"#utility.yul\":19557:19575   */\n      add\n        /* \"#utility.yul\":19549:19575   */\n      swap1\n      pop\n        /* \"#utility.yul\":19585:19656   */\n      tag_423\n        /* \"#utility.yul\":19653:19654   */\n      0x00\n        /* \"#utility.yul\":19642:19651   */\n      dup4\n        /* \"#utility.yul\":19638:19655   */\n      add\n        /* \"#utility.yul\":19629:19635   */\n      dup6\n        /* \"#utility.yul\":19585:19656   */\n      tag_148\n      jump\t// in\n    tag_423:\n        /* \"#utility.yul\":19666:19738   */\n      tag_424\n        /* \"#utility.yul\":19734:19736   */\n      0x20\n        /* \"#utility.yul\":19723:19732   */\n      dup4\n        /* \"#utility.yul\":19719:19737   */\n      add\n        /* \"#utility.yul\":19710:19716   */\n      dup5\n        /* \"#utility.yul\":19666:19738   */\n      tag_148\n      jump\t// in\n    tag_424:\n        /* \"#utility.yul\":19413:19745   */\n      swap4\n      swap3\n      pop\n      pop\n      pop\n      jump\t// out\n        /* \"#utility.yul\":19751:19920   */\n    tag_196:\n        /* \"#utility.yul\":19891:19912   */\n      0x496e646578206f7574206f6620626f756e647300000000000000000000000000\n        /* \"#utility.yul\":19887:19888   */\n      0x00\n        /* \"#utility.yul\":19879:19885   */\n      dup3\n        /* \"#utility.yul\":19875:19889   */\n      add\n        /* \"#utility.yul\":19868:19913   */\n      mstore\n        /* \"#utility.yul\":19751:19920   */\n      pop\n      jump\t// out\n        /* \"#utility.yul\":19926:20292   */\n    tag_197:\n        /* \"#utility.yul\":20068:20071   */\n      0x00\n        /* \"#utility.yul\":20089:20156   */\n      tag_427\n        /* \"#utility.yul\":20153:20155   */\n      0x13\n        /* \"#utility.yul\":20148:20151   */\n      dup4\n        /* \"#utility.yul\":20089:20156   */\n      tag_175\n      jump\t// in\n    tag_427:\n        /* \"#utility.yul\":20082:20156   */\n      swap2\n      pop\n        /* \"#utility.yul\":20165:20258   */\n      tag_428\n        /* \"#utility.yul\":20254:20257   */\n      dup3\n        /* \"#utility.yul\":20165:20258   */\n      tag_196\n      jump\t// in\n    tag_428:\n        /* \"#utility.yul\":20283:20285   */\n      0x20\n        /* \"#utility.yul\":20278:20281   */\n      dup3\n        /* \"#utility.yul\":20274:20286   */\n      add\n        /* \"#utility.yul\":20267:20286   */\n      swap1\n      pop\n        /* \"#utility.yul\":19926:20292   */\n      swap2\n      swap1\n      pop\n      jump\t// out\n        /* \"#utility.yul\":20298:20717   */\n    tag_121:\n        /* \"#utility.yul\":20464:20468   */\n      0x00\n        /* \"#utility.yul\":20502:20504   */\n      0x20\n        /* \"#utility.yul\":20491:20500   */\n      dup3\n        /* \"#utility.yul\":20487:20505   */\n      add\n        /* \"#utility.yul\":20479:20505   */\n      swap1\n      pop\n        /* \"#utility.yul\":20551:20560   */\n      dup2\n        /* \"#utility.yul\":20545:20549   */\n      dup2\n        /* \"#utility.yul\":20541:20561   */\n      sub\n        /* \"#utility.yul\":20537:20538   */\n      0x00\n        /* \"#utility.yul\":20526:20535   */\n      dup4\n        /* \"#utility.yul\":20522:20539   */\n      add\n        /* \"#utility.yul\":20515:20562   */\n      mstore\n        /* \"#utility.yul\":20579:20710   */\n      tag_430\n        /* \"#utility.yul\":20705:20709   */\n      dup2\n        /* \"#utility.yul\":20579:20710   */\n      tag_197\n      jump\t// in\n    tag_430:\n        /* \"#utility.yul\":20571:20710   */\n      swap1\n      pop\n        /* \"#utility.yul\":20298:20717   */\n      swap2\n      swap1\n      pop\n      jump\t// out\n        /* \"#utility.yul\":20723:20903   */\n    tag_134:\n        /* \"#utility.yul\":20771:20848   */\n      0x4e487b7100000000000000000000000000000000000000000000000000000000\n        /* \"#utility.yul\":20768:20769   */\n      0x00\n        /* \"#utility.yul\":20761:20849   */\n      mstore\n        /* \"#utility.yul\":20868:20872   */\n      0x31\n        /* \"#utility.yul\":20865:20866   */\n      0x04\n        /* \"#utility.yul\":20858:20873   */\n      mstore\n        /* \"#utility.yul\":20892:20896   */\n      0x24\n        /* \"#utility.yul\":20889:20890   */\n      0x00\n        /* \"#utility.yul\":20882:20897   */\n      revert\n\n    auxdata: 0xa26469706673582212206b64985fe9a0eaf618b0b75a6f4dd584fa48bb5c6e39999bd67252e09a42624764736f6c63430008110033\n}\n",
				"bytecode": {
					"linkReferences": {},
					"object": "608060405234801561001057600080fd5b5061145a806100206000396000f3fe608060405234801561001057600080fd5b50600436106100a95760003560e01c80639e6aa348116100715780639e6aa34814610164578063b920dbae14610194578063baf71609146101b0578063cdfa8495146101e0578063d15ec85114610211578063eb56ea901461022d576100a9565b806326121ff0146100ae57806340dcbb08146100b8578063416e366d146100e857806371e5ee5f146101185780638d63be9a14610148575b600080fd5b6100b6610249565b005b6100d260048036038101906100cd91906108f9565b610325565b6040516100df919061095f565b60405180910390f35b61010260048036038101906100fd91906108f9565b610339565b60405161010f919061095f565b60405180910390f35b610132600480360381019061012d91906109a6565b61038d565b60405161013f919061095f565b60405180910390f35b610162600480360381019061015d9190610b14565b6103b1565b005b61017e60048036038101906101799190610c46565b610424565b60405161018b919061095f565b60405180910390f35b6101ae60048036038101906101a99190610ced565b610476565b005b6101ca60048036038101906101c59190610c46565b610505565b6040516101d79190610deb565b60405180910390f35b6101fa60048036038101906101f591906109a6565b61055f565b604051610208929190610e8c565b60405180910390f35b61022b600480360381019061022691906109a6565b610619565b005b610247600480360381019061024291906109a6565b61068f565b005b6102696000600160026000600181526020019081526020016000206107af565b600060026000600181526020019081526020016000209050600a81600001819055506040518060400160405280600581526020017f48656c6c6f0000000000000000000000000000000000000000000000000000008152508160010190816102d191906110c8565b5060006040518060400160405280601481526020016040518060400160405280600d81526020017f4d656d6f7279205374727563740000000000000000000000000000000000000081525081525090505050565b60006103318383610339565b905092915050565b600080600090505b838390508110156103865783838281811061035f5761035e61119a565b5b905060200201358261037191906111f8565b9150808061037e9061122c565b915050610341565b5092915050565b6000818154811061039d57600080fd5b906000526020600020016000915090505481565b6000600260008581526020019081526020016000209050828160000181905550818160010190816103e291906110c8565b507f97e73dc1ac7936a83fa0e613d9c465a8453fbfd9edda2923c3da8d67bfc5611784848460405161041693929190611274565b60405180910390a150505050565b600080600090505b8251811015610470578281815181106104485761044761119a565b5b60200260200101518261045b91906111f8565b915080806104689061122c565b91505061042c565b50919050565b806001600084815260200190815260200160002060006101000a81548173ffffffffffffffffffffffffffffffffffffffff021916908373ffffffffffffffffffffffffffffffffffffffff1602179055507f9014d6238b51acb86512959051d69890b953f645bafadc3a8ac122f1a66a007982826040516104f99291906112c1565b60405180910390a15050565b606060005b82518110156105565760028382815181106105285761052761119a565b5b6020026020010181815161053c91906112ea565b91508181525050808061054e9061122c565b91505061050a565b50819050919050565b60006060600060026000858152602001908152602001600020905080600001548160010180805461058f90610eeb565b80601f01602080910402602001604051908101604052809291908181526020018280546105bb90610eeb565b80156106085780601f106105dd57610100808354040283529160200191610608565b820191906000526020600020905b8154815290600101906020018083116105eb57829003601f168201915b505050505090509250925050915091565b60008190806001815401808255809150506001900390600052602060002001600090919091909150557fbd35ac9d9fbb5226d89e93adfa98f5001ea8e74d5a8506d7c034b868d08ace586001600080549050610675919061132c565b82604051610684929190611360565b60405180910390a150565b60008054905081106106d6576040517f08c379a00000000000000000000000000000000000000000000000000000000081526004016106cd906113d5565b60405180910390fd5b60008082815481106106eb576106ea61119a565b5b906000526020600020015490506000600160008054905061070c919061132c565b8154811061071d5761071c61119a565b5b90600052602060002001546000838154811061073c5761073b61119a565b5b9060005260206000200181905550600080548061075c5761075b6113f5565b5b600190038181906000526020600020016000905590557fba10c01016e1ba3d916c047d943e6b907f35c5ac8d52f6d21605c3f15747863d82826040516107a3929190611360565b60405180910390a15050565b8260649080600181540180825580915050600190039060005260206000200160009091909190915055338260006064815260200190815260200160002060006101000a81548173ffffffffffffffffffffffffffffffffffffffff021916908373ffffffffffffffffffffffffffffffffffffffff160217905550606481600001819055506040518060400160405280600781526020017f557064617465640000000000000000000000000000000000000000000000000081525081600101908161087a91906110c8565b50505050565b6000604051905090565b600080fd5b600080fd5b600080fd5b600080fd5b600080fd5b60008083601f8401126108b9576108b8610894565b5b8235905067ffffffffffffffff8111156108d6576108d5610899565b5b6020830191508360208202830111156108f2576108f161089e565b5b9250929050565b600080602083850312156109105761090f61088a565b5b600083013567ffffffffffffffff81111561092e5761092d61088f565b5b61093a858286016108a3565b92509250509250929050565b6000819050919050565b61095981610946565b82525050565b60006020820190506109746000830184610950565b92915050565b61098381610946565b811461098e57600080fd5b50565b6000813590506109a08161097a565b92915050565b6000602082840312156109bc576109bb61088a565b5b60006109ca84828501610991565b91505092915050565b600080fd5b6000601f19601f8301169050919050565b7f4e487b7100000000000000000000000000000000000000000000000000000000600052604160045260246000fd5b610a21826109d8565b810181811067ffffffffffffffff82111715610a4057610a3f6109e9565b5b80604052505050565b6000610a53610880565b9050610a5f8282610a18565b919050565b600067ffffffffffffffff821115610a7f57610a7e6109e9565b5b610a88826109d8565b9050602081019050919050565b82818337600083830152505050565b6000610ab7610ab284610a64565b610a49565b905082815260208101848484011115610ad357610ad26109d3565b5b610ade848285610a95565b509392505050565b600082601f830112610afb57610afa610894565b5b8135610b0b848260208601610aa4565b91505092915050565b600080600060608486031215610b2d57610b2c61088a565b5b6000610b3b86828701610991565b9350506020610b4c86828701610991565b925050604084013567ffffffffffffffff811115610b6d57610b6c61088f565b5b610b7986828701610ae6565b9150509250925092565b600067ffffffffffffffff821115610b9e57610b9d6109e9565b5b602082029050602081019050919050565b6000610bc2610bbd84610b83565b610a49565b90508083825260208201905060208402830185811115610be557610be461089e565b5b835b81811015610c0e5780610bfa8882610991565b845260208401935050602081019050610be7565b5050509392505050565b600082601f830112610c2d57610c2c610894565b5b8135610c3d848260208601610baf565b91505092915050565b600060208284031215610c5c57610c5b61088a565b5b600082013567ffffffffffffffff811115610c7a57610c7961088f565b5b610c8684828501610c18565b91505092915050565b600073ffffffffffffffffffffffffffffffffffffffff82169050919050565b6000610cba82610c8f565b9050919050565b610cca81610caf565b8114610cd557600080fd5b50565b600081359050610ce781610cc1565b92915050565b60008060408385031215610d0457610d0361088a565b5b6000610d1285828601610991565b9250506020610d2385828601610cd8565b9150509250929050565b600081519050919050565b600082825260208201905092915050565b6000819050602082019050919050565b610d6281610946565b82525050565b6000610d748383610d59565b60208301905092915050565b6000602082019050919050565b6000610d9882610d2d565b610da28185610d38565b9350610dad83610d49565b8060005b83811015610dde578151610dc58882610d68565b9750610dd083610d80565b925050600181019050610db1565b5085935050505092915050565b60006020820190508181036000830152610e058184610d8d565b905092915050565b600081519050919050565b600082825260208201905092915050565b60005b83811015610e47578082015181840152602081019050610e2c565b60008484015250505050565b6000610e5e82610e0d565b610e688185610e18565b9350610e78818560208601610e29565b610e81816109d8565b840191505092915050565b6000604082019050610ea16000830185610950565b8181036020830152610eb38184610e53565b90509392505050565b7f4e487b7100000000000000000000000000000000000000000000000000000000600052602260045260246000fd5b60006002820490506001821680610f0357607f821691505b602082108103610f1657610f15610ebc565b5b50919050565b60008190508160005260206000209050919050565b60006020601f8301049050919050565b600082821b905092915050565b600060088302610f7e7fffffffffffffffffffffffffffffffffffffffffffffffffffffffffffffffff82610f41565b610f888683610f41565b95508019841693508086168417925050509392505050565b6000819050919050565b6000610fc5610fc0610fbb84610946565b610fa0565b610946565b9050919050565b6000819050919050565b610fdf83610faa565b610ff3610feb82610fcc565b848454610f4e565b825550505050565b600090565b611008610ffb565b611013818484610fd6565b505050565b5b818110156110375761102c600082611000565b600181019050611019565b5050565b601f82111561107c5761104d81610f1c565b61105684610f31565b81016020851015611065578190505b61107961107185610f31565b830182611018565b50505b505050565b600082821c905092915050565b600061109f60001984600802611081565b1980831691505092915050565b60006110b8838361108e565b9150826002028217905092915050565b6110d182610e0d565b67ffffffffffffffff8111156110ea576110e96109e9565b5b6110f48254610eeb565b6110ff82828561103b565b600060209050601f8311600181146111325760008415611120578287015190505b61112a85826110ac565b865550611192565b601f19841661114086610f1c565b60005b8281101561116857848901518255600182019150602085019450602081019050611143565b868310156111855784890151611181601f89168261108e565b8355505b6001600288020188555050505b505050505050565b7f4e487b7100000000000000000000000000000000000000000000000000000000600052603260045260246000fd5b7f4e487b7100000000000000000000000000000000000000000000000000000000600052601160045260246000fd5b600061120382610946565b915061120e83610946565b9250828201905080821115611226576112256111c9565b5b92915050565b600061123782610946565b91507fffffffffffffffffffffffffffffffffffffffffffffffffffffffffffffffff8203611269576112686111c9565b5b600182019050919050565b60006060820190506112896000830186610950565b6112966020830185610950565b81810360408301526112a88184610e53565b9050949350505050565b6112bb81610caf565b82525050565b60006040820190506112d66000830185610950565b6112e360208301846112b2565b9392505050565b60006112f582610946565b915061130083610946565b925082820261130e81610946565b91508282048414831517611325576113246111c9565b5b5092915050565b600061133782610946565b915061134283610946565b925082820390508181111561135a576113596111c9565b5b92915050565b60006040820190506113756000830185610950565b6113826020830184610950565b9392505050565b7f496e646578206f7574206f6620626f756e647300000000000000000000000000600082015250565b60006113bf601383610e18565b91506113ca82611389565b602082019050919050565b600060208201905081810360008301526113ee816113b2565b9050919050565b7f4e487b7100000000000000000000000000000000000000000000000000000000600052603160045260246000fdfea26469706673582212206b64985fe9a0eaf618b0b75a6f4dd584fa48bb5c6e39999bd67252e09a42624764736f6c63430008110033",
					"opcodes": "PUSH1 0x80 PUSH1 0x40 MSTORE CALLVALUE DUP1 ISZERO PUSH2 0x10 JUMPI PUSH1 0x0 DUP1 REVERT JUMPDEST POP PUSH2 0x145A DUP1 PUSH2 0x20 PUSH1 0x0 CODECOPY PUSH1 0x0 RETURN INVALID PUSH1 0x80 PUSH1 0x40 MSTORE CALLVALUE DUP1 ISZERO PUSH2 0x10 JUMPI PUSH1 0x0 DUP1 REVERT JUMPDEST POP PUSH1 0x4 CALLDATASIZE LT PUSH2 0xA9 JUMPI PUSH1 0x0 CALLDATALOAD PUSH1 0xE0 SHR DUP1 PUSH4 0x9E6AA348 GT PUSH2 0x71 JUMPI DUP1 PUSH4 0x9E6AA348 EQ PUSH2 0x164 JUMPI DUP1 PUSH4 0xB920DBAE EQ PUSH2 0x194 JUMPI DUP1 PUSH4 0xBAF71609 EQ PUSH2 0x1B0 JUMPI DUP1 PUSH4 0xCDFA8495 EQ PUSH2 0x1E0 JUMPI DUP1 PUSH4 0xD15EC851 EQ PUSH2 0x211 JUMPI DUP1 PUSH4 0xEB56EA90 EQ PUSH2 0x22D JUMPI PUSH2 0xA9 JUMP JUMPDEST DUP1 PUSH4 0x26121FF0 EQ PUSH2 0xAE JUMPI DUP1 PUSH4 0x40DCBB08 EQ PUSH2 0xB8 JUMPI DUP1 PUSH4 0x416E366D EQ PUSH2 0xE8 JUMPI DUP1 PUSH4 0x71E5EE5F EQ PUSH2 0x118 JUMPI DUP1 PUSH4 0x8D63BE9A EQ PUSH2 0x148 JUMPI JUMPDEST PUSH1 0x0 DUP1 REVERT JUMPDEST PUSH2 0xB6 PUSH2 0x249 JUMP JUMPDEST STOP JUMPDEST PUSH2 0xD2 PUSH1 0x4 DUP1 CALLDATASIZE SUB DUP2 ADD SWAP1 PUSH2 0xCD SWAP2 SWAP1 PUSH2 0x8F9 JUMP JUMPDEST PUSH2 0x325 JUMP JUMPDEST PUSH1 0x40 MLOAD PUSH2 0xDF SWAP2 SWAP1 PUSH2 0x95F JUMP JUMPDEST PUSH1 0x40 MLOAD DUP1 SWAP2 SUB SWAP1 RETURN JUMPDEST PUSH2 0x102 PUSH1 0x4 DUP1 CALLDATASIZE SUB DUP2 ADD SWAP1 PUSH2 0xFD SWAP2 SWAP1 PUSH2 0x8F9 JUMP JUMPDEST PUSH2 0x339 JUMP JUMPDEST PUSH1 0x40 MLOAD PUSH2 0x10F SWAP2 SWAP1 PUSH2 0x95F JUMP JUMPDEST PUSH1 0x40 MLOAD DUP1 SWAP2 SUB SWAP1 RETURN JUMPDEST PUSH2 0x132 PUSH1 0x4 DUP1 CALLDATASIZE SUB DUP2 ADD SWAP1 PUSH2 0x12D SWAP2 SWAP1 PUSH2 0x9A6 JUMP JUMPDEST PUSH2 0x38D JUMP JUMPDEST PUSH1 0x40 MLOAD PUSH2 0x13F SWAP2 SWAP1 PUSH2 0x95F JUMP JUMPDEST PUSH1 0x40 MLOAD DUP1 SWAP2 SUB SWAP1 RETURN JUMPDEST PUSH2 0x162 PUSH1 0x4 DUP1 CALLDATASIZE SUB DUP2 ADD SWAP1 PUSH2 0x15D SWAP2 SWAP1 PUSH2 0xB14 JUMP JUMPDEST PUSH2 0x3B1 JUMP JUMPDEST STOP JUMPDEST PUSH2 0x17E PUSH1 0x4 DUP1 CALLDATASIZE SUB DUP2 ADD SWAP1 PUSH2 0x179 SWAP2 SWAP1 PUSH2 0xC46 JUMP JUMPDEST PUSH2 0x424 JUMP JUMPDEST PUSH1 0x40 MLOAD PUSH2 0x18B SWAP2 SWAP1 PUSH2 0x95F JUMP JUMPDEST PUSH1 0x40 MLOAD DUP1 SWAP2 SUB SWAP1 RETURN JUMPDEST PUSH2 0x1AE PUSH1 0x4 DUP1 CALLDATASIZE SUB DUP2 ADD SWAP1 PUSH2 0x1A9 SWAP2 SWAP1 PUSH2 0xCED JUMP JUMPDEST PUSH2 0x476 JUMP JUMPDEST STOP JUMPDEST PUSH2 0x1CA PUSH1 0x4 DUP1 CALLDATASIZE SUB DUP2 ADD SWAP1 PUSH2 0x1C5 SWAP2 SWAP1 PUSH2 0xC46 JUMP JUMPDEST PUSH2 0x505 JUMP JUMPDEST PUSH1 0x40 MLOAD PUSH2 0x1D7 SWAP2 SWAP1 PUSH2 0xDEB JUMP JUMPDEST PUSH1 0x40 MLOAD DUP1 SWAP2 SUB SWAP1 RETURN JUMPDEST PUSH2 0x1FA PUSH1 0x4 DUP1 CALLDATASIZE SUB DUP2 ADD SWAP1 PUSH2 0x1F5 SWAP2 SWAP1 PUSH2 0x9A6 JUMP JUMPDEST PUSH2 0x55F JUMP JUMPDEST PUSH1 0x40 MLOAD PUSH2 0x208 SWAP3 SWAP2 SWAP1 PUSH2 0xE8C JUMP JUMPDEST PUSH1 0x40 MLOAD DUP1 SWAP2 SUB SWAP1 RETURN JUMPDEST PUSH2 0x22B PUSH1 0x4 DUP1 CALLDATASIZE SUB DUP2 ADD SWAP1 PUSH2 0x226 SWAP2 SWAP1 PUSH2 0x9A6 JUMP JUMPDEST PUSH2 0x619 JUMP JUMPDEST STOP JUMPDEST PUSH2 0x247 PUSH1 0x4 DUP1 CALLDATASIZE SUB DUP2 ADD SWAP1 PUSH2 0x242 SWAP2 SWAP1 PUSH2 0x9A6 JUMP JUMPDEST PUSH2 0x68F JUMP JUMPDEST STOP JUMPDEST PUSH2 0x269 PUSH1 0x0 PUSH1 0x1 PUSH1 0x2 PUSH1 0x0 PUSH1 0x1 DUP2 MSTORE PUSH1 0x20 ADD SWAP1 DUP2 MSTORE PUSH1 0x20 ADD PUSH1 0x0 KECCAK256 PUSH2 0x7AF JUMP JUMPDEST PUSH1 0x0 PUSH1 0x2 PUSH1 0x0 PUSH1 0x1 DUP2 MSTORE PUSH1 0x20 ADD SWAP1 DUP2 MSTORE PUSH1 0x20 ADD PUSH1 0x0 KECCAK256 SWAP1 POP PUSH1 0xA DUP2 PUSH1 0x0 ADD DUP2 SWAP1 SSTORE POP PUSH1 0x40 MLOAD DUP1 PUSH1 0x40 ADD PUSH1 0x40 MSTORE DUP1 PUSH1 0x5 DUP2 MSTORE PUSH1 0x20 ADD PUSH32 0x48656C6C6F000000000000000000000000000000000000000000000000000000 DUP2 MSTORE POP DUP2 PUSH1 0x1 ADD SWAP1 DUP2 PUSH2 0x2D1 SWAP2 SWAP1 PUSH2 0x10C8 JUMP JUMPDEST POP PUSH1 0x0 PUSH1 0x40 MLOAD DUP1 PUSH1 0x40 ADD PUSH1 0x40 MSTORE DUP1 PUSH1 0x14 DUP2 MSTORE PUSH1 0x20 ADD PUSH1 0x40 MLOAD DUP1 PUSH1 0x40 ADD PUSH1 0x40 MSTORE DUP1 PUSH1 0xD DUP2 MSTORE PUSH1 0x20 ADD PUSH32 0x4D656D6F72792053747275637400000000000000000000000000000000000000 DUP2 MSTORE POP DUP2 MSTORE POP SWAP1 POP POP POP JUMP JUMPDEST PUSH1 0x0 PUSH2 0x331 DUP4 DUP4 PUSH2 0x339 JUMP JUMPDEST SWAP1 POP SWAP3 SWAP2 POP POP JUMP JUMPDEST PUSH1 0x0 DUP1 PUSH1 0x0 SWAP1 POP JUMPDEST DUP4 DUP4 SWAP1 POP DUP2 LT ISZERO PUSH2 0x386 JUMPI DUP4 DUP4 DUP3 DUP2 DUP2 LT PUSH2 0x35F JUMPI PUSH2 0x35E PUSH2 0x119A JUMP JUMPDEST JUMPDEST SWAP1 POP PUSH1 0x20 MUL ADD CALLDATALOAD DUP3 PUSH2 0x371 SWAP2 SWAP1 PUSH2 0x11F8 JUMP JUMPDEST SWAP2 POP DUP1 DUP1 PUSH2 0x37E SWAP1 PUSH2 0x122C JUMP JUMPDEST SWAP2 POP POP PUSH2 0x341 JUMP JUMPDEST POP SWAP3 SWAP2 POP POP JUMP JUMPDEST PUSH1 0x0 DUP2 DUP2 SLOAD DUP2 LT PUSH2 0x39D JUMPI PUSH1 0x0 DUP1 REVERT JUMPDEST SWAP1 PUSH1 0x0 MSTORE PUSH1 0x20 PUSH1 0x0 KECCAK256 ADD PUSH1 0x0 SWAP2 POP SWAP1 POP SLOAD DUP2 JUMP JUMPDEST PUSH1 0x0 PUSH1 0x2 PUSH1 0x0 DUP6 DUP2 MSTORE PUSH1 0x20 ADD SWAP1 DUP2 MSTORE PUSH1 0x20 ADD PUSH1 0x0 KECCAK256 SWAP1 POP DUP3 DUP2 PUSH1 0x0 ADD DUP2 SWAP1 SSTORE POP DUP2 DUP2 PUSH1 0x1 ADD SWAP1 DUP2 PUSH2 0x3E2 SWAP2 SWAP1 PUSH2 0x10C8 JUMP JUMPDEST POP PUSH32 0x97E73DC1AC7936A83FA0E613D9C465A8453FBFD9EDDA2923C3DA8D67BFC56117 DUP5 DUP5 DUP5 PUSH1 0x40 MLOAD PUSH2 0x416 SWAP4 SWAP3 SWAP2 SWAP1 PUSH2 0x1274 JUMP JUMPDEST PUSH1 0x40 MLOAD DUP1 SWAP2 SUB SWAP1 LOG1 POP POP POP POP JUMP JUMPDEST PUSH1 0x0 DUP1 PUSH1 0x0 SWAP1 POP JUMPDEST DUP3 MLOAD DUP2 LT ISZERO PUSH2 0x470 JUMPI DUP3 DUP2 DUP2 MLOAD DUP2 LT PUSH2 0x448 JUMPI PUSH2 0x447 PUSH2 0x119A JUMP JUMPDEST JUMPDEST PUSH1 0x20 MUL PUSH1 0x20 ADD ADD MLOAD DUP3 PUSH2 0x45B SWAP2 SWAP1 PUSH2 0x11F8 JUMP JUMPDEST SWAP2 POP DUP1 DUP1 PUSH2 0x468 SWAP1 PUSH2 0x122C JUMP JUMPDEST SWAP2 POP POP PUSH2 0x42C JUMP JUMPDEST POP SWAP2 SWAP1 POP JUMP JUMPDEST DUP1 PUSH1 0x1 PUSH1 0x0 DUP5 DUP2 MSTORE PUSH1 0x20 ADD SWAP1 DUP2 MSTORE PUSH1 0x20 ADD PUSH1 0x0 KECCAK256 PUSH1 0x0 PUSH2 0x100 EXP DUP2 SLOAD DUP2 PUSH20 0xFFFFFFFFFFFFFFFFFFFFFFFFFFFFFFFFFFFFFFFF MUL NOT AND SWAP1 DUP4 PUSH20 0xFFFFFFFFFFFFFFFFFFFFFFFFFFFFFFFFFFFFFFFF AND MUL OR SWAP1 SSTORE POP PUSH32 0x9014D6238B51ACB86512959051D69890B953F645BAFADC3A8AC122F1A66A0079 DUP3 DUP3 PUSH1 0x40 MLOAD PUSH2 0x4F9 SWAP3 SWAP2 SWAP1 PUSH2 0x12C1 JUMP JUMPDEST PUSH1 0x40 MLOAD DUP1 SWAP2 SUB SWAP1 LOG1 POP POP JUMP JUMPDEST PUSH1 0x60 PUSH1 0x0 JUMPDEST DUP3 MLOAD DUP2 LT ISZERO PUSH2 0x556 JUMPI PUSH1 0x2 DUP4 DUP3 DUP2 MLOAD DUP2 LT PUSH2 0x528 JUMPI PUSH2 0x527 PUSH2 0x119A JUMP JUMPDEST JUMPDEST PUSH1 0x20 MUL PUSH1 0x20 ADD ADD DUP2 DUP2 MLOAD PUSH2 0x53C SWAP2 SWAP1 PUSH2 0x12EA JUMP JUMPDEST SWAP2 POP DUP2 DUP2 MSTORE POP POP DUP1 DUP1 PUSH2 0x54E SWAP1 PUSH2 0x122C JUMP JUMPDEST SWAP2 POP POP PUSH2 0x50A JUMP JUMPDEST POP DUP2 SWAP1 POP SWAP2 SWAP1 POP JUMP JUMPDEST PUSH1 0x0 PUSH1 0x60 PUSH1 0x0 PUSH1 0x2 PUSH1 0x0 DUP6 DUP2 MSTORE PUSH1 0x20 ADD SWAP1 DUP2 MSTORE PUSH1 0x20 ADD PUSH1 0x0 KECCAK256 SWAP1 POP DUP1 PUSH1 0x0 ADD SLOAD DUP2 PUSH1 0x1 ADD DUP1 DUP1 SLOAD PUSH2 0x58F SWAP1 PUSH2 0xEEB JUMP JUMPDEST DUP1 PUSH1 0x1F ADD PUSH1 0x20 DUP1 SWAP2 DIV MUL PUSH1 0x20 ADD PUSH1 0x40 MLOAD SWAP1 DUP2 ADD PUSH1 0x40 MSTORE DUP1 SWAP3 SWAP2 SWAP1 DUP2 DUP2 MSTORE PUSH1 0x20 ADD DUP3 DUP1 SLOAD PUSH2 0x5BB SWAP1 PUSH2 0xEEB JUMP JUMPDEST DUP1 ISZERO PUSH2 0x608 JUMPI DUP1 PUSH1 0x1F LT PUSH2 0x5DD JUMPI PUSH2 0x100 DUP1 DUP4 SLOAD DIV MUL DUP4 MSTORE SWAP2 PUSH1 0x20 ADD SWAP2 PUSH2 0x608 JUMP JUMPDEST DUP3 ADD SWAP2 SWAP1 PUSH1 0x0 MSTORE PUSH1 0x20 PUSH1 0x0 KECCAK256 SWAP1 JUMPDEST DUP2 SLOAD DUP2 MSTORE SWAP1 PUSH1 0x1 ADD SWAP1 PUSH1 0x20 ADD DUP1 DUP4 GT PUSH2 0x5EB JUMPI DUP3 SWAP1 SUB PUSH1 0x1F AND DUP3 ADD SWAP2 JUMPDEST POP POP POP POP POP SWAP1 POP SWAP3 POP SWAP3 POP POP SWAP2 POP SWAP2 JUMP JUMPDEST PUSH1 0x0 DUP2 SWAP1 DUP1 PUSH1 0x1 DUP2 SLOAD ADD DUP1 DUP3 SSTORE DUP1 SWAP2 POP POP PUSH1 0x1 SWAP1 SUB SWAP1 PUSH1 0x0 MSTORE PUSH1 0x20 PUSH1 0x0 KECCAK256 ADD PUSH1 0x0 SWAP1 SWAP2 SWAP1 SWAP2 SWAP1 SWAP2 POP SSTORE PUSH32 0xBD35AC9D9FBB5226D89E93ADFA98F5001EA8E74D5A8506D7C034B868D08ACE58 PUSH1 0x1 PUSH1 0x0 DUP1 SLOAD SWAP1 POP PUSH2 0x675 SWAP2 SWAP1 PUSH2 0x132C JUMP JUMPDEST DUP3 PUSH1 0x40 MLOAD PUSH2 0x684 SWAP3 SWAP2 SWAP1 PUSH2 0x1360 JUMP JUMPDEST PUSH1 0x40 MLOAD DUP1 SWAP2 SUB SWAP1 LOG1 POP JUMP JUMPDEST PUSH1 0x0 DUP1 SLOAD SWAP1 POP DUP2 LT PUSH2 0x6D6 JUMPI PUSH1 0x40 MLOAD PUSH32 0x8C379A000000000000000000000000000000000000000000000000000000000 DUP2 MSTORE PUSH1 0x4 ADD PUSH2 0x6CD SWAP1 PUSH2 0x13D5 JUMP JUMPDEST PUSH1 0x40 MLOAD DUP1 SWAP2 SUB SWAP1 REVERT JUMPDEST PUSH1 0x0 DUP1 DUP3 DUP2 SLOAD DUP2 LT PUSH2 0x6EB JUMPI PUSH2 0x6EA PUSH2 0x119A JUMP JUMPDEST JUMPDEST SWAP1 PUSH1 0x0 MSTORE PUSH1 0x20 PUSH1 0x0 KECCAK256 ADD SLOAD SWAP1 POP PUSH1 0x0 PUSH1 0x1 PUSH1 0x0 DUP1 SLOAD SWAP1 POP PUSH2 0x70C SWAP2 SWAP1 PUSH2 0x132C JUMP JUMPDEST DUP2 SLOAD DUP2 LT PUSH2 0x71D JUMPI PUSH2 0x71C PUSH2 0x119A JUMP JUMPDEST JUMPDEST SWAP1 PUSH1 0x0 MSTORE PUSH1 0x20 PUSH1 0x0 KECCAK256 ADD SLOAD PUSH1 0x0 DUP4 DUP2 SLOAD DUP2 LT PUSH2 0x73C JUMPI PUSH2 0x73B PUSH2 0x119A JUMP JUMPDEST JUMPDEST SWAP1 PUSH1 0x0 MSTORE PUSH1 0x20 PUSH1 0x0 KECCAK256 ADD DUP2 SWAP1 SSTORE POP PUSH1 0x0 DUP1 SLOAD DUP1 PUSH2 0x75C JUMPI PUSH2 0x75B PUSH2 0x13F5 JUMP JUMPDEST JUMPDEST PUSH1 0x1 SWAP1 SUB DUP2 DUP2 SWAP1 PUSH1 0x0 MSTORE PUSH1 0x20 PUSH1 0x0 KECCAK256 ADD PUSH1 0x0 SWAP1 SSTORE SWAP1 SSTORE PUSH32 0xBA10C01016E1BA3D916C047D943E6B907F35C5AC8D52F6D21605C3F15747863D DUP3 DUP3 PUSH1 0x40 MLOAD PUSH2 0x7A3 SWAP3 SWAP2 SWAP1 PUSH2 0x1360 JUMP JUMPDEST PUSH1 0x40 MLOAD DUP1 SWAP2 SUB SWAP1 LOG1 POP POP JUMP JUMPDEST DUP3 PUSH1 0x64 SWAP1 DUP1 PUSH1 0x1 DUP2 SLOAD ADD DUP1 DUP3 SSTORE DUP1 SWAP2 POP POP PUSH1 0x1 SWAP1 SUB SWAP1 PUSH1 0x0 MSTORE PUSH1 0x20 PUSH1 0x0 KECCAK256 ADD PUSH1 0x0 SWAP1 SWAP2 SWAP1 SWAP2 SWAP1 SWAP2 POP SSTORE CALLER DUP3 PUSH1 0x0 PUSH1 0x64 DUP2 MSTORE PUSH1 0x20 ADD SWAP1 DUP2 MSTORE PUSH1 0x20 ADD PUSH1 0x0 KECCAK256 PUSH1 0x0 PUSH2 0x100 EXP DUP2 SLOAD DUP2 PUSH20 0xFFFFFFFFFFFFFFFFFFFFFFFFFFFFFFFFFFFFFFFF MUL NOT AND SWAP1 DUP4 PUSH20 0xFFFFFFFFFFFFFFFFFFFFFFFFFFFFFFFFFFFFFFFF AND MUL OR SWAP1 SSTORE POP PUSH1 0x64 DUP2 PUSH1 0x0 ADD DUP2 SWAP1 SSTORE POP PUSH1 0x40 MLOAD DUP1 PUSH1 0x40 ADD PUSH1 0x40 MSTORE DUP1 PUSH1 0x7 DUP2 MSTORE PUSH1 0x20 ADD PUSH32 0x5570646174656400000000000000000000000000000000000000000000000000 DUP2 MSTORE POP DUP2 PUSH1 0x1 ADD SWAP1 DUP2 PUSH2 0x87A SWAP2 SWAP1 PUSH2 0x10C8 JUMP JUMPDEST POP POP POP POP JUMP JUMPDEST PUSH1 0x0 PUSH1 0x40 MLOAD SWAP1 POP SWAP1 JUMP JUMPDEST PUSH1 0x0 DUP1 REVERT JUMPDEST PUSH1 0x0 DUP1 REVERT JUMPDEST PUSH1 0x0 DUP1 REVERT JUMPDEST PUSH1 0x0 DUP1 REVERT JUMPDEST PUSH1 0x0 DUP1 REVERT JUMPDEST PUSH1 0x0 DUP1 DUP4 PUSH1 0x1F DUP5 ADD SLT PUSH2 0x8B9 JUMPI PUSH2 0x8B8 PUSH2 0x894 JUMP JUMPDEST JUMPDEST DUP3 CALLDATALOAD SWAP1 POP PUSH8 0xFFFFFFFFFFFFFFFF DUP2 GT ISZERO PUSH2 0x8D6 JUMPI PUSH2 0x8D5 PUSH2 0x899 JUMP JUMPDEST JUMPDEST PUSH1 0x20 DUP4 ADD SWAP2 POP DUP4 PUSH1 0x20 DUP3 MUL DUP4 ADD GT ISZERO PUSH2 0x8F2 JUMPI PUSH2 0x8F1 PUSH2 0x89E JUMP JUMPDEST JUMPDEST SWAP3 POP SWAP3 SWAP1 POP JUMP JUMPDEST PUSH1 0x0 DUP1 PUSH1 0x20 DUP4 DUP6 SUB SLT ISZERO PUSH2 0x910 JUMPI PUSH2 0x90F PUSH2 0x88A JUMP JUMPDEST JUMPDEST PUSH1 0x0 DUP4 ADD CALLDATALOAD PUSH8 0xFFFFFFFFFFFFFFFF DUP2 GT ISZERO PUSH2 0x92E JUMPI PUSH2 0x92D PUSH2 0x88F JUMP JUMPDEST JUMPDEST PUSH2 0x93A DUP6 DUP3 DUP7 ADD PUSH2 0x8A3 JUMP JUMPDEST SWAP3 POP SWAP3 POP POP SWAP3 POP SWAP3 SWAP1 POP JUMP JUMPDEST PUSH1 0x0 DUP2 SWAP1 POP SWAP2 SWAP1 POP JUMP JUMPDEST PUSH2 0x959 DUP2 PUSH2 0x946 JUMP JUMPDEST DUP3 MSTORE POP POP JUMP JUMPDEST PUSH1 0x0 PUSH1 0x20 DUP3 ADD SWAP1 POP PUSH2 0x974 PUSH1 0x0 DUP4 ADD DUP5 PUSH2 0x950 JUMP JUMPDEST SWAP3 SWAP2 POP POP JUMP JUMPDEST PUSH2 0x983 DUP2 PUSH2 0x946 JUMP JUMPDEST DUP2 EQ PUSH2 0x98E JUMPI PUSH1 0x0 DUP1 REVERT JUMPDEST POP JUMP JUMPDEST PUSH1 0x0 DUP2 CALLDATALOAD SWAP1 POP PUSH2 0x9A0 DUP2 PUSH2 0x97A JUMP JUMPDEST SWAP3 SWAP2 POP POP JUMP JUMPDEST PUSH1 0x0 PUSH1 0x20 DUP3 DUP5 SUB SLT ISZERO PUSH2 0x9BC JUMPI PUSH2 0x9BB PUSH2 0x88A JUMP JUMPDEST JUMPDEST PUSH1 0x0 PUSH2 0x9CA DUP5 DUP3 DUP6 ADD PUSH2 0x991 JUMP JUMPDEST SWAP2 POP POP SWAP3 SWAP2 POP POP JUMP JUMPDEST PUSH1 0x0 DUP1 REVERT JUMPDEST PUSH1 0x0 PUSH1 0x1F NOT PUSH1 0x1F DUP4 ADD AND SWAP1 POP SWAP2 SWAP1 POP JUMP JUMPDEST PUSH32 0x4E487B7100000000000000000000000000000000000000000000000000000000 PUSH1 0x0 MSTORE PUSH1 0x41 PUSH1 0x4 MSTORE PUSH1 0x24 PUSH1 0x0 REVERT JUMPDEST PUSH2 0xA21 DUP3 PUSH2 0x9D8 JUMP JUMPDEST DUP2 ADD DUP2 DUP2 LT PUSH8 0xFFFFFFFFFFFFFFFF DUP3 GT OR ISZERO PUSH2 0xA40 JUMPI PUSH2 0xA3F PUSH2 0x9E9 JUMP JUMPDEST JUMPDEST DUP1 PUSH1 0x40 MSTORE POP POP POP JUMP JUMPDEST PUSH1 0x0 PUSH2 0xA53 PUSH2 0x880 JUMP JUMPDEST SWAP1 POP PUSH2 0xA5F DUP3 DUP3 PUSH2 0xA18 JUMP JUMPDEST SWAP2 SWAP1 POP JUMP JUMPDEST PUSH1 0x0 PUSH8 0xFFFFFFFFFFFFFFFF DUP3 GT ISZERO PUSH2 0xA7F JUMPI PUSH2 0xA7E PUSH2 0x9E9 JUMP JUMPDEST JUMPDEST PUSH2 0xA88 DUP3 PUSH2 0x9D8 JUMP JUMPDEST SWAP1 POP PUSH1 0x20 DUP2 ADD SWAP1 POP SWAP2 SWAP1 POP JUMP JUMPDEST DUP3 DUP2 DUP4 CALLDATACOPY PUSH1 0x0 DUP4 DUP4 ADD MSTORE POP POP POP JUMP JUMPDEST PUSH1 0x0 PUSH2 0xAB7 PUSH2 0xAB2 DUP5 PUSH2 0xA64 JUMP JUMPDEST PUSH2 0xA49 JUMP JUMPDEST SWAP1 POP DUP3 DUP2 MSTORE PUSH1 0x20 DUP2 ADD DUP5 DUP5 DUP5 ADD GT ISZERO PUSH2 0xAD3 JUMPI PUSH2 0xAD2 PUSH2 0x9D3 JUMP JUMPDEST JUMPDEST PUSH2 0xADE DUP5 DUP3 DUP6 PUSH2 0xA95 JUMP JUMPDEST POP SWAP4 SWAP3 POP POP POP JUMP JUMPDEST PUSH1 0x0 DUP3 PUSH1 0x1F DUP4 ADD SLT PUSH2 0xAFB JUMPI PUSH2 0xAFA PUSH2 0x894 JUMP JUMPDEST JUMPDEST DUP2 CALLDATALOAD PUSH2 0xB0B DUP5 DUP3 PUSH1 0x20 DUP7 ADD PUSH2 0xAA4 JUMP JUMPDEST SWAP2 POP POP SWAP3 SWAP2 POP POP JUMP JUMPDEST PUSH1 0x0 DUP1 PUSH1 0x0 PUSH1 0x60 DUP5 DUP7 SUB SLT ISZERO PUSH2 0xB2D JUMPI PUSH2 0xB2C PUSH2 0x88A JUMP JUMPDEST JUMPDEST PUSH1 0x0 PUSH2 0xB3B DUP7 DUP3 DUP8 ADD PUSH2 0x991 JUMP JUMPDEST SWAP4 POP POP PUSH1 0x20 PUSH2 0xB4C DUP7 DUP3 DUP8 ADD PUSH2 0x991 JUMP JUMPDEST SWAP3 POP POP PUSH1 0x40 DUP5 ADD CALLDATALOAD PUSH8 0xFFFFFFFFFFFFFFFF DUP2 GT ISZERO PUSH2 0xB6D JUMPI PUSH2 0xB6C PUSH2 0x88F JUMP JUMPDEST JUMPDEST PUSH2 0xB79 DUP7 DUP3 DUP8 ADD PUSH2 0xAE6 JUMP JUMPDEST SWAP2 POP POP SWAP3 POP SWAP3 POP SWAP3 JUMP JUMPDEST PUSH1 0x0 PUSH8 0xFFFFFFFFFFFFFFFF DUP3 GT ISZERO PUSH2 0xB9E JUMPI PUSH2 0xB9D PUSH2 0x9E9 JUMP JUMPDEST JUMPDEST PUSH1 0x20 DUP3 MUL SWAP1 POP PUSH1 0x20 DUP2 ADD SWAP1 POP SWAP2 SWAP1 POP JUMP JUMPDEST PUSH1 0x0 PUSH2 0xBC2 PUSH2 0xBBD DUP5 PUSH2 0xB83 JUMP JUMPDEST PUSH2 0xA49 JUMP JUMPDEST SWAP1 POP DUP1 DUP4 DUP3 MSTORE PUSH1 0x20 DUP3 ADD SWAP1 POP PUSH1 0x20 DUP5 MUL DUP4 ADD DUP6 DUP2 GT ISZERO PUSH2 0xBE5 JUMPI PUSH2 0xBE4 PUSH2 0x89E JUMP JUMPDEST JUMPDEST DUP4 JUMPDEST DUP2 DUP2 LT ISZERO PUSH2 0xC0E JUMPI DUP1 PUSH2 0xBFA DUP9 DUP3 PUSH2 0x991 JUMP JUMPDEST DUP5 MSTORE PUSH1 0x20 DUP5 ADD SWAP4 POP POP PUSH1 0x20 DUP2 ADD SWAP1 POP PUSH2 0xBE7 JUMP JUMPDEST POP POP POP SWAP4 SWAP3 POP POP POP JUMP JUMPDEST PUSH1 0x0 DUP3 PUSH1 0x1F DUP4 ADD SLT PUSH2 0xC2D JUMPI PUSH2 0xC2C PUSH2 0x894 JUMP JUMPDEST JUMPDEST DUP2 CALLDATALOAD PUSH2 0xC3D DUP5 DUP3 PUSH1 0x20 DUP7 ADD PUSH2 0xBAF JUMP JUMPDEST SWAP2 POP POP SWAP3 SWAP2 POP POP JUMP JUMPDEST PUSH1 0x0 PUSH1 0x20 DUP3 DUP5 SUB SLT ISZERO PUSH2 0xC5C JUMPI PUSH2 0xC5B PUSH2 0x88A JUMP JUMPDEST JUMPDEST PUSH1 0x0 DUP3 ADD CALLDATALOAD PUSH8 0xFFFFFFFFFFFFFFFF DUP2 GT ISZERO PUSH2 0xC7A JUMPI PUSH2 0xC79 PUSH2 0x88F JUMP JUMPDEST JUMPDEST PUSH2 0xC86 DUP5 DUP3 DUP6 ADD PUSH2 0xC18 JUMP JUMPDEST SWAP2 POP POP SWAP3 SWAP2 POP POP JUMP JUMPDEST PUSH1 0x0 PUSH20 0xFFFFFFFFFFFFFFFFFFFFFFFFFFFFFFFFFFFFFFFF DUP3 AND SWAP1 POP SWAP2 SWAP1 POP JUMP JUMPDEST PUSH1 0x0 PUSH2 0xCBA DUP3 PUSH2 0xC8F JUMP JUMPDEST SWAP1 POP SWAP2 SWAP1 POP JUMP JUMPDEST PUSH2 0xCCA DUP2 PUSH2 0xCAF JUMP JUMPDEST DUP2 EQ PUSH2 0xCD5 JUMPI PUSH1 0x0 DUP1 REVERT JUMPDEST POP JUMP JUMPDEST PUSH1 0x0 DUP2 CALLDATALOAD SWAP1 POP PUSH2 0xCE7 DUP2 PUSH2 0xCC1 JUMP JUMPDEST SWAP3 SWAP2 POP POP JUMP JUMPDEST PUSH1 0x0 DUP1 PUSH1 0x40 DUP4 DUP6 SUB SLT ISZERO PUSH2 0xD04 JUMPI PUSH2 0xD03 PUSH2 0x88A JUMP JUMPDEST JUMPDEST PUSH1 0x0 PUSH2 0xD12 DUP6 DUP3 DUP7 ADD PUSH2 0x991 JUMP JUMPDEST SWAP3 POP POP PUSH1 0x20 PUSH2 0xD23 DUP6 DUP3 DUP7 ADD PUSH2 0xCD8 JUMP JUMPDEST SWAP2 POP POP SWAP3 POP SWAP3 SWAP1 POP JUMP JUMPDEST PUSH1 0x0 DUP2 MLOAD SWAP1 POP SWAP2 SWAP1 POP JUMP JUMPDEST PUSH1 0x0 DUP3 DUP3 MSTORE PUSH1 0x20 DUP3 ADD SWAP1 POP SWAP3 SWAP2 POP POP JUMP JUMPDEST PUSH1 0x0 DUP2 SWAP1 POP PUSH1 0x20 DUP3 ADD SWAP1 POP SWAP2 SWAP1 POP JUMP JUMPDEST PUSH2 0xD62 DUP2 PUSH2 0x946 JUMP JUMPDEST DUP3 MSTORE POP POP JUMP JUMPDEST PUSH1 0x0 PUSH2 0xD74 DUP4 DUP4 PUSH2 0xD59 JUMP JUMPDEST PUSH1 0x20 DUP4 ADD SWAP1 POP SWAP3 SWAP2 POP POP JUMP JUMPDEST PUSH1 0x0 PUSH1 0x20 DUP3 ADD SWAP1 POP SWAP2 SWAP1 POP JUMP JUMPDEST PUSH1 0x0 PUSH2 0xD98 DUP3 PUSH2 0xD2D JUMP JUMPDEST PUSH2 0xDA2 DUP2 DUP6 PUSH2 0xD38 JUMP JUMPDEST SWAP4 POP PUSH2 0xDAD DUP4 PUSH2 0xD49 JUMP JUMPDEST DUP1 PUSH1 0x0 JUMPDEST DUP4 DUP2 LT ISZERO PUSH2 0xDDE JUMPI DUP2 MLOAD PUSH2 0xDC5 DUP9 DUP3 PUSH2 0xD68 JUMP JUMPDEST SWAP8 POP PUSH2 0xDD0 DUP4 PUSH2 0xD80 JUMP JUMPDEST SWAP3 POP POP PUSH1 0x1 DUP2 ADD SWAP1 POP PUSH2 0xDB1 JUMP JUMPDEST POP DUP6 SWAP4 POP POP POP POP SWAP3 SWAP2 POP POP JUMP JUMPDEST PUSH1 0x0 PUSH1 0x20 DUP3 ADD SWAP1 POP DUP2 DUP2 SUB PUSH1 0x0 DUP4 ADD MSTORE PUSH2 0xE05 DUP2 DUP5 PUSH2 0xD8D JUMP JUMPDEST SWAP1 POP SWAP3 SWAP2 POP POP JUMP JUMPDEST PUSH1 0x0 DUP2 MLOAD SWAP1 POP SWAP2 SWAP1 POP JUMP JUMPDEST PUSH1 0x0 DUP3 DUP3 MSTORE PUSH1 0x20 DUP3 ADD SWAP1 POP SWAP3 SWAP2 POP POP JUMP JUMPDEST PUSH1 0x0 JUMPDEST DUP4 DUP2 LT ISZERO PUSH2 0xE47 JUMPI DUP1 DUP3 ADD MLOAD DUP2 DUP5 ADD MSTORE PUSH1 0x20 DUP2 ADD SWAP1 POP PUSH2 0xE2C JUMP JUMPDEST PUSH1 0x0 DUP5 DUP5 ADD MSTORE POP POP POP POP JUMP JUMPDEST PUSH1 0x0 PUSH2 0xE5E DUP3 PUSH2 0xE0D JUMP JUMPDEST PUSH2 0xE68 DUP2 DUP6 PUSH2 0xE18 JUMP JUMPDEST SWAP4 POP PUSH2 0xE78 DUP2 DUP6 PUSH1 0x20 DUP7 ADD PUSH2 0xE29 JUMP JUMPDEST PUSH2 0xE81 DUP2 PUSH2 0x9D8 JUMP JUMPDEST DUP5 ADD SWAP2 POP POP SWAP3 SWAP2 POP POP JUMP JUMPDEST PUSH1 0x0 PUSH1 0x40 DUP3 ADD SWAP1 POP PUSH2 0xEA1 PUSH1 0x0 DUP4 ADD DUP6 PUSH2 0x950 JUMP JUMPDEST DUP2 DUP2 SUB PUSH1 0x20 DUP4 ADD MSTORE PUSH2 0xEB3 DUP2 DUP5 PUSH2 0xE53 JUMP JUMPDEST SWAP1 POP SWAP4 SWAP3 POP POP POP JUMP JUMPDEST PUSH32 0x4E487B7100000000000000000000000000000000000000000000000000000000 PUSH1 0x0 MSTORE PUSH1 0x22 PUSH1 0x4 MSTORE PUSH1 0x24 PUSH1 0x0 REVERT JUMPDEST PUSH1 0x0 PUSH1 0x2 DUP3 DIV SWAP1 POP PUSH1 0x1 DUP3 AND DUP1 PUSH2 0xF03 JUMPI PUSH1 0x7F DUP3 AND SWAP2 POP JUMPDEST PUSH1 0x20 DUP3 LT DUP2 SUB PUSH2 0xF16 JUMPI PUSH2 0xF15 PUSH2 0xEBC JUMP JUMPDEST JUMPDEST POP SWAP2 SWAP1 POP JUMP JUMPDEST PUSH1 0x0 DUP2 SWAP1 POP DUP2 PUSH1 0x0 MSTORE PUSH1 0x20 PUSH1 0x0 KECCAK256 SWAP1 POP SWAP2 SWAP1 POP JUMP JUMPDEST PUSH1 0x0 PUSH1 0x20 PUSH1 0x1F DUP4 ADD DIV SWAP1 POP SWAP2 SWAP1 POP JUMP JUMPDEST PUSH1 0x0 DUP3 DUP3 SHL SWAP1 POP SWAP3 SWAP2 POP POP JUMP JUMPDEST PUSH1 0x0 PUSH1 0x8 DUP4 MUL PUSH2 0xF7E PUSH32 0xFFFFFFFFFFFFFFFFFFFFFFFFFFFFFFFFFFFFFFFFFFFFFFFFFFFFFFFFFFFFFFFF DUP3 PUSH2 0xF41 JUMP JUMPDEST PUSH2 0xF88 DUP7 DUP4 PUSH2 0xF41 JUMP JUMPDEST SWAP6 POP DUP1 NOT DUP5 AND SWAP4 POP DUP1 DUP7 AND DUP5 OR SWAP3 POP POP POP SWAP4 SWAP3 POP POP POP JUMP JUMPDEST PUSH1 0x0 DUP2 SWAP1 POP SWAP2 SWAP1 POP JUMP JUMPDEST PUSH1 0x0 PUSH2 0xFC5 PUSH2 0xFC0 PUSH2 0xFBB DUP5 PUSH2 0x946 JUMP JUMPDEST PUSH2 0xFA0 JUMP JUMPDEST PUSH2 0x946 JUMP JUMPDEST SWAP1 POP SWAP2 SWAP1 POP JUMP JUMPDEST PUSH1 0x0 DUP2 SWAP1 POP SWAP2 SWAP1 POP JUMP JUMPDEST PUSH2 0xFDF DUP4 PUSH2 0xFAA JUMP JUMPDEST PUSH2 0xFF3 PUSH2 0xFEB DUP3 PUSH2 0xFCC JUMP JUMPDEST DUP5 DUP5 SLOAD PUSH2 0xF4E JUMP JUMPDEST DUP3 SSTORE POP POP POP POP JUMP JUMPDEST PUSH1 0x0 SWAP1 JUMP JUMPDEST PUSH2 0x1008 PUSH2 0xFFB JUMP JUMPDEST PUSH2 0x1013 DUP2 DUP5 DUP5 PUSH2 0xFD6 JUMP JUMPDEST POP POP POP JUMP JUMPDEST JUMPDEST DUP2 DUP2 LT ISZERO PUSH2 0x1037 JUMPI PUSH2 0x102C PUSH1 0x0 DUP3 PUSH2 0x1000 JUMP JUMPDEST PUSH1 0x1 DUP2 ADD SWAP1 POP PUSH2 0x1019 JUMP JUMPDEST POP POP JUMP JUMPDEST PUSH1 0x1F DUP3 GT ISZERO PUSH2 0x107C JUMPI PUSH2 0x104D DUP2 PUSH2 0xF1C JUMP JUMPDEST PUSH2 0x1056 DUP5 PUSH2 0xF31 JUMP JUMPDEST DUP2 ADD PUSH1 0x20 DUP6 LT ISZERO PUSH2 0x1065 JUMPI DUP2 SWAP1 POP JUMPDEST PUSH2 0x1079 PUSH2 0x1071 DUP6 PUSH2 0xF31 JUMP JUMPDEST DUP4 ADD DUP3 PUSH2 0x1018 JUMP JUMPDEST POP POP JUMPDEST POP POP POP JUMP JUMPDEST PUSH1 0x0 DUP3 DUP3 SHR SWAP1 POP SWAP3 SWAP2 POP POP JUMP JUMPDEST PUSH1 0x0 PUSH2 0x109F PUSH1 0x0 NOT DUP5 PUSH1 0x8 MUL PUSH2 0x1081 JUMP JUMPDEST NOT DUP1 DUP4 AND SWAP2 POP POP SWAP3 SWAP2 POP POP JUMP JUMPDEST PUSH1 0x0 PUSH2 0x10B8 DUP4 DUP4 PUSH2 0x108E JUMP JUMPDEST SWAP2 POP DUP3 PUSH1 0x2 MUL DUP3 OR SWAP1 POP SWAP3 SWAP2 POP POP JUMP JUMPDEST PUSH2 0x10D1 DUP3 PUSH2 0xE0D JUMP JUMPDEST PUSH8 0xFFFFFFFFFFFFFFFF DUP2 GT ISZERO PUSH2 0x10EA JUMPI PUSH2 0x10E9 PUSH2 0x9E9 JUMP JUMPDEST JUMPDEST PUSH2 0x10F4 DUP3 SLOAD PUSH2 0xEEB JUMP JUMPDEST PUSH2 0x10FF DUP3 DUP3 DUP6 PUSH2 0x103B JUMP JUMPDEST PUSH1 0x0 PUSH1 0x20 SWAP1 POP PUSH1 0x1F DUP4 GT PUSH1 0x1 DUP2 EQ PUSH2 0x1132 JUMPI PUSH1 0x0 DUP5 ISZERO PUSH2 0x1120 JUMPI DUP3 DUP8 ADD MLOAD SWAP1 POP JUMPDEST PUSH2 0x112A DUP6 DUP3 PUSH2 0x10AC JUMP JUMPDEST DUP7 SSTORE POP PUSH2 0x1192 JUMP JUMPDEST PUSH1 0x1F NOT DUP5 AND PUSH2 0x1140 DUP7 PUSH2 0xF1C JUMP JUMPDEST PUSH1 0x0 JUMPDEST DUP3 DUP2 LT ISZERO PUSH2 0x1168 JUMPI DUP5 DUP10 ADD MLOAD DUP3 SSTORE PUSH1 0x1 DUP3 ADD SWAP2 POP PUSH1 0x20 DUP6 ADD SWAP5 POP PUSH1 0x20 DUP2 ADD SWAP1 POP PUSH2 0x1143 JUMP JUMPDEST DUP7 DUP4 LT ISZERO PUSH2 0x1185 JUMPI DUP5 DUP10 ADD MLOAD PUSH2 0x1181 PUSH1 0x1F DUP10 AND DUP3 PUSH2 0x108E JUMP JUMPDEST DUP4 SSTORE POP JUMPDEST PUSH1 0x1 PUSH1 0x2 DUP9 MUL ADD DUP9 SSTORE POP POP POP JUMPDEST POP POP POP POP POP POP JUMP JUMPDEST PUSH32 0x4E487B7100000000000000000000000000000000000000000000000000000000 PUSH1 0x0 MSTORE PUSH1 0x32 PUSH1 0x4 MSTORE PUSH1 0x24 PUSH1 0x0 REVERT JUMPDEST PUSH32 0x4E487B7100000000000000000000000000000000000000000000000000000000 PUSH1 0x0 MSTORE PUSH1 0x11 PUSH1 0x4 MSTORE PUSH1 0x24 PUSH1 0x0 REVERT JUMPDEST PUSH1 0x0 PUSH2 0x1203 DUP3 PUSH2 0x946 JUMP JUMPDEST SWAP2 POP PUSH2 0x120E DUP4 PUSH2 0x946 JUMP JUMPDEST SWAP3 POP DUP3 DUP3 ADD SWAP1 POP DUP1 DUP3 GT ISZERO PUSH2 0x1226 JUMPI PUSH2 0x1225 PUSH2 0x11C9 JUMP JUMPDEST JUMPDEST SWAP3 SWAP2 POP POP JUMP JUMPDEST PUSH1 0x0 PUSH2 0x1237 DUP3 PUSH2 0x946 JUMP JUMPDEST SWAP2 POP PUSH32 0xFFFFFFFFFFFFFFFFFFFFFFFFFFFFFFFFFFFFFFFFFFFFFFFFFFFFFFFFFFFFFFFF DUP3 SUB PUSH2 0x1269 JUMPI PUSH2 0x1268 PUSH2 0x11C9 JUMP JUMPDEST JUMPDEST PUSH1 0x1 DUP3 ADD SWAP1 POP SWAP2 SWAP1 POP JUMP JUMPDEST PUSH1 0x0 PUSH1 0x60 DUP3 ADD SWAP1 POP PUSH2 0x1289 PUSH1 0x0 DUP4 ADD DUP7 PUSH2 0x950 JUMP JUMPDEST PUSH2 0x1296 PUSH1 0x20 DUP4 ADD DUP6 PUSH2 0x950 JUMP JUMPDEST DUP2 DUP2 SUB PUSH1 0x40 DUP4 ADD MSTORE PUSH2 0x12A8 DUP2 DUP5 PUSH2 0xE53 JUMP JUMPDEST SWAP1 POP SWAP5 SWAP4 POP POP POP POP JUMP JUMPDEST PUSH2 0x12BB DUP2 PUSH2 0xCAF JUMP JUMPDEST DUP3 MSTORE POP POP JUMP JUMPDEST PUSH1 0x0 PUSH1 0x40 DUP3 ADD SWAP1 POP PUSH2 0x12D6 PUSH1 0x0 DUP4 ADD DUP6 PUSH2 0x950 JUMP JUMPDEST PUSH2 0x12E3 PUSH1 0x20 DUP4 ADD DUP5 PUSH2 0x12B2 JUMP JUMPDEST SWAP4 SWAP3 POP POP POP JUMP JUMPDEST PUSH1 0x0 PUSH2 0x12F5 DUP3 PUSH2 0x946 JUMP JUMPDEST SWAP2 POP PUSH2 0x1300 DUP4 PUSH2 0x946 JUMP JUMPDEST SWAP3 POP DUP3 DUP3 MUL PUSH2 0x130E DUP2 PUSH2 0x946 JUMP JUMPDEST SWAP2 POP DUP3 DUP3 DIV DUP5 EQ DUP4 ISZERO OR PUSH2 0x1325 JUMPI PUSH2 0x1324 PUSH2 0x11C9 JUMP JUMPDEST JUMPDEST POP SWAP3 SWAP2 POP POP JUMP JUMPDEST PUSH1 0x0 PUSH2 0x1337 DUP3 PUSH2 0x946 JUMP JUMPDEST SWAP2 POP PUSH2 0x1342 DUP4 PUSH2 0x946 JUMP JUMPDEST SWAP3 POP DUP3 DUP3 SUB SWAP1 POP DUP2 DUP2 GT ISZERO PUSH2 0x135A JUMPI PUSH2 0x1359 PUSH2 0x11C9 JUMP JUMPDEST JUMPDEST SWAP3 SWAP2 POP POP JUMP JUMPDEST PUSH1 0x0 PUSH1 0x40 DUP3 ADD SWAP1 POP PUSH2 0x1375 PUSH1 0x0 DUP4 ADD DUP6 PUSH2 0x950 JUMP JUMPDEST PUSH2 0x1382 PUSH1 0x20 DUP4 ADD DUP5 PUSH2 0x950 JUMP JUMPDEST SWAP4 SWAP3 POP POP POP JUMP JUMPDEST PUSH32 0x496E646578206F7574206F6620626F756E647300000000000000000000000000 PUSH1 0x0 DUP3 ADD MSTORE POP JUMP JUMPDEST PUSH1 0x0 PUSH2 0x13BF PUSH1 0x13 DUP4 PUSH2 0xE18 JUMP JUMPDEST SWAP2 POP PUSH2 0x13CA DUP3 PUSH2 0x1389 JUMP JUMPDEST PUSH1 0x20 DUP3 ADD SWAP1 POP SWAP2 SWAP1 POP JUMP JUMPDEST PUSH1 0x0 PUSH1 0x20 DUP3 ADD SWAP1 POP DUP2 DUP2 SUB PUSH1 0x0 DUP4 ADD MSTORE PUSH2 0x13EE DUP2 PUSH2 0x13B2 JUMP JUMPDEST SWAP1 POP SWAP2 SWAP1 POP JUMP JUMPDEST PUSH32 0x4E487B7100000000000000000000000000000000000000000000000000000000 PUSH1 0x0 MSTORE PUSH1 0x31 PUSH1 0x4 MSTORE PUSH1 0x24 PUSH1 0x0 REVERT INVALID LOG2 PUSH5 0x6970667358 0x22 SLT KECCAK256 PUSH12 0x64985FE9A0EAF618B0B75A6F 0x4D 0xD5 DUP5 STATICCALL BASEFEE 0xBB 0x5C PUSH15 0x39999BD67252E09A42624764736F6C PUSH4 0x43000811 STOP CALLER "
				},
				"gasEstimates": {
					"creation": {
						"codeDepositCost": "1042000",
						"executionCost": "1080",
						"totalCost": "1043080"
					},
					"external": {
						"addToArray(uint256)": "infinite",
						"arr(uint256)": "infinite",
						"f()": "infinite",
						"g(uint256[])": "infinite",
						"getStruct(uint256)": "infinite",
						"h(uint256[])": "infinite",
						"processCalldataArray(uint256[])": "infinite",
						"processMemoryArray(uint256[])": "infinite",
						"removeFromArray(uint256)": "infinite",
						"updateMapping(uint256,address)": "infinite",
						"updateStruct(uint256,uint256,string)": "infinite"
					},
					"internal": {
						"_f(uint256[] storage pointer,mapping(uint256 => address),struct DataLocations.MyStruct storage pointer)": "infinite"
					}
				},
				"methodIdentifiers": {
					"addToArray(uint256)": "d15ec851",
					"arr(uint256)": "71e5ee5f",
					"f()": "26121ff0",
					"g(uint256[])": "baf71609",
					"getStruct(uint256)": "cdfa8495",
					"h(uint256[])": "40dcbb08",
					"processCalldataArray(uint256[])": "416e366d",
					"processMemoryArray(uint256[])": "9e6aa348",
					"removeFromArray(uint256)": "eb56ea90",
					"updateMapping(uint256,address)": "b920dbae",
					"updateStruct(uint256,uint256,string)": "8d63be9a"
				}
			},
			"storageLayout": {
				"storage": [
					{
						"astId": 4,
						"contract": "contracts/DataLocations.sol:DataLocations",
						"label": "arr",
						"offset": 0,
						"slot": "0",
						"type": "t_array(t_uint256)dyn_storage"
					},
					{
						"astId": 8,
						"contract": "contracts/DataLocations.sol:DataLocations",
						"label": "map",
						"offset": 0,
						"slot": "1",
						"type": "t_mapping(t_uint256,t_address)"
					},
					{
						"astId": 18,
						"contract": "contracts/DataLocations.sol:DataLocations",
						"label": "myStructs",
						"offset": 0,
						"slot": "2",
						"type": "t_mapping(t_uint256,t_struct(MyStruct)13_storage)"
					}
				],
				"types": {
					"t_address": {
						"encoding": "inplace",
						"label": "address",
						"numberOfBytes": "20"
					},
					"t_array(t_uint256)dyn_storage": {
						"base": "t_uint256",
						"encoding": "dynamic_array",
						"label": "uint256[]",
						"numberOfBytes": "32"
					},
					"t_mapping(t_uint256,t_address)": {
						"encoding": "mapping",
						"key": "t_uint256",
						"label": "mapping(uint256 => address)",
						"numberOfBytes": "32",
						"value": "t_address"
					},
					"t_mapping(t_uint256,t_struct(MyStruct)13_storage)": {
						"encoding": "mapping",
						"key": "t_uint256",
						"label": "mapping(uint256 => struct DataLocations.MyStruct)",
						"numberOfBytes": "32",
						"value": "t_struct(MyStruct)13_storage"
					},
					"t_string_storage": {
						"encoding": "bytes",
						"label": "string",
						"numberOfBytes": "32"
					},
					"t_struct(MyStruct)13_storage": {
						"encoding": "inplace",
						"label": "struct DataLocations.MyStruct",
						"members": [
							{
								"astId": 10,
								"contract": "contracts/DataLocations.sol:DataLocations",
								"label": "foo",
								"offset": 0,
								"slot": "0",
								"type": "t_uint256"
							},
							{
								"astId": 12,
								"contract": "contracts/DataLocations.sol:DataLocations",
								"label": "bar",
								"offset": 0,
								"slot": "1",
								"type": "t_string_storage"
							}
						],
						"numberOfBytes": "64"
					},
					"t_uint256": {
						"encoding": "inplace",
						"label": "uint256",
						"numberOfBytes": "32"
					}
				}
			},
			"userdoc": {
				"kind": "user",
				"methods": {},
				"version": 1
			}
		}
	}
}