{
	"contracts/Utiils001.sol": {
		"Utils": {
			"abi": [
				{
					"inputs": [
						{
							"internalType": "uint256[][]",
							"name": "arrays",
							"type": "uint256[][]"
						}
					],
					"name": "sum",
					"outputs": [
						{
							"internalType": "uint256",
							"name": "totalSum",
							"type": "uint256"
						}
					],
					"stateMutability": "pure",
					"type": "function"
				}
			],
			"devdoc": {
				"details": "提供实用的数学函数，例如对多个数组求和",
				"kind": "dev",
				"methods": {
					"sum(uint256[][])": {
						"details": "计算多个 `uint` 数组中所有元素的总和。",
						"params": {
							"arrays": "一个包含多个 `uint[]` 数组的二维数组。"
						},
						"returns": {
							"totalSum": "所有数组中所有元素的总和。"
						}
					}
				},
				"title": "Utils",
				"version": 1
			},
			"evm": {
				"assembly": "    /* \"contracts/Utiils001.sol\":147:827  contract Utils {... */\n  mstore(0x40, 0x80)\n  callvalue\n  dup1\n  iszero\n  tag_1\n  jumpi\n  0x00\n  dup1\n  revert\ntag_1:\n  pop\n  dataSize(sub_0)\n  dup1\n  dataOffset(sub_0)\n  0x00\n  codecopy\n  0x00\n  return\nstop\n\nsub_0: assembly {\n        /* \"contracts/Utiils001.sol\":147:827  contract Utils {... */\n      mstore(0x40, 0x80)\n      callvalue\n      dup1\n      iszero\n      tag_1\n      jumpi\n      0x00\n      dup1\n      revert\n    tag_1:\n      pop\n      jumpi(tag_2, lt(calldatasize, 0x04))\n      shr(0xe0, calldataload(0x00))\n      dup1\n      0xb92f5c7c\n      eq\n      tag_3\n      jumpi\n    tag_2:\n      0x00\n      dup1\n      revert\n        /* \"contracts/Utiils001.sol\":388:825  function sum(uint[][] calldata arrays) external pure returns (uint totalSum) {... */\n    tag_3:\n      tag_4\n      0x04\n      dup1\n      calldatasize\n      sub\n      dup2\n      add\n      swap1\n      tag_5\n      swap2\n      swap1\n      tag_6\n      jump\t// in\n    tag_5:\n      tag_7\n      jump\t// in\n    tag_4:\n      mload(0x40)\n      tag_8\n      swap2\n      swap1\n      tag_9\n      jump\t// in\n    tag_8:\n      mload(0x40)\n      dup1\n      swap2\n      sub\n      swap1\n      return\n    tag_7:\n        /* \"contracts/Utiils001.sol\":450:463  uint totalSum */\n      0x00\n        /* \"contracts/Utiils001.sol\":522:528  uint i */\n      dup1\n        /* \"contracts/Utiils001.sol\":531:532  0 */\n      0x00\n        /* \"contracts/Utiils001.sol\":522:532  uint i = 0 */\n      swap1\n      pop\n        /* \"contracts/Utiils001.sol\":517:819  for (uint i = 0; i < arrays.length; i++) {... */\n    tag_11:\n        /* \"contracts/Utiils001.sol\":538:544  arrays */\n      dup4\n      dup4\n        /* \"contracts/Utiils001.sol\":538:551  arrays.length */\n      swap1\n      pop\n        /* \"contracts/Utiils001.sol\":534:535  i */\n      dup2\n        /* \"contracts/Utiils001.sol\":534:551  i < arrays.length */\n      lt\n        /* \"contracts/Utiils001.sol\":517:819  for (uint i = 0; i < arrays.length; i++) {... */\n      iszero\n      tag_12\n      jumpi\n        /* \"contracts/Utiils001.sol\":572:600  uint[] calldata currentArray */\n      calldatasize\n      0x00\n        /* \"contracts/Utiils001.sol\":603:609  arrays */\n      dup6\n      dup6\n        /* \"contracts/Utiils001.sol\":610:611  i */\n      dup5\n        /* \"contracts/Utiils001.sol\":603:612  arrays[i] */\n      dup2\n      dup2\n      lt\n      tag_14\n      jumpi\n      tag_15\n      tag_16\n      jump\t// in\n    tag_15:\n    tag_14:\n      swap1\n      pop\n      0x20\n      mul\n      dup2\n      add\n      swap1\n      tag_17\n      swap2\n      swap1\n      tag_18\n      jump\t// in\n    tag_17:\n        /* \"contracts/Utiils001.sol\":572:612  uint[] calldata currentArray = arrays[i] */\n      swap2\n      pop\n      swap2\n      pop\n        /* \"contracts/Utiils001.sol\":707:713  uint j */\n      0x00\n        /* \"contracts/Utiils001.sol\":702:809  for (uint j = 0; j < currentArray.length; j++) {... */\n    tag_19:\n        /* \"contracts/Utiils001.sol\":723:735  currentArray */\n      dup3\n      dup3\n        /* \"contracts/Utiils001.sol\":723:742  currentArray.length */\n      swap1\n      pop\n        /* \"contracts/Utiils001.sol\":719:720  j */\n      dup2\n        /* \"contracts/Utiils001.sol\":719:742  j < currentArray.length */\n      lt\n        /* \"contracts/Utiils001.sol\":702:809  for (uint j = 0; j < currentArray.length; j++) {... */\n      iszero\n      tag_20\n      jumpi\n        /* \"contracts/Utiils001.sol\":779:791  currentArray */\n      dup3\n      dup3\n        /* \"contracts/Utiils001.sol\":792:793  j */\n      dup3\n        /* \"contracts/Utiils001.sol\":779:794  currentArray[j] */\n      dup2\n      dup2\n      lt\n      tag_22\n      jumpi\n      tag_23\n      tag_16\n      jump\t// in\n    tag_23:\n    tag_22:\n      swap1\n      pop\n      0x20\n      mul\n      add\n      calldataload\n        /* \"contracts/Utiils001.sol\":767:794  totalSum += currentArray[j] */\n      dup6\n      tag_24\n      swap2\n      swap1\n      tag_25\n      jump\t// in\n    tag_24:\n      swap5\n      pop\n        /* \"contracts/Utiils001.sol\":744:747  j++ */\n      dup1\n      dup1\n      0x01\n      add\n      swap2\n      pop\n      pop\n        /* \"contracts/Utiils001.sol\":702:809  for (uint j = 0; j < currentArray.length; j++) {... */\n      jump(tag_19)\n    tag_20:\n      pop\n        /* \"contracts/Utiils001.sol\":558:819  {... */\n      pop\n      pop\n        /* \"contracts/Utiils001.sol\":553:556  i++ */\n      dup1\n      dup1\n      0x01\n      add\n      swap2\n      pop\n      pop\n        /* \"contracts/Utiils001.sol\":517:819  for (uint i = 0; i < arrays.length; i++) {... */\n      jump(tag_11)\n    tag_12:\n      pop\n        /* \"contracts/Utiils001.sol\":388:825  function sum(uint[][] calldata arrays) external pure returns (uint totalSum) {... */\n      swap3\n      swap2\n      pop\n      pop\n      jump\t// out\n        /* \"#utility.yul\":88:205   */\n    tag_27:\n        /* \"#utility.yul\":197:198   */\n      0x00\n        /* \"#utility.yul\":194:195   */\n      dup1\n        /* \"#utility.yul\":187:199   */\n      revert\n        /* \"#utility.yul\":211:328   */\n    tag_28:\n        /* \"#utility.yul\":320:321   */\n      0x00\n        /* \"#utility.yul\":317:318   */\n      dup1\n        /* \"#utility.yul\":310:322   */\n      revert\n        /* \"#utility.yul\":334:451   */\n    tag_29:\n        /* \"#utility.yul\":443:444   */\n      0x00\n        /* \"#utility.yul\":440:441   */\n      dup1\n        /* \"#utility.yul\":433:445   */\n      revert\n        /* \"#utility.yul\":457:574   */\n    tag_30:\n        /* \"#utility.yul\":566:567   */\n      0x00\n        /* \"#utility.yul\":563:564   */\n      dup1\n        /* \"#utility.yul\":556:568   */\n      revert\n        /* \"#utility.yul\":580:697   */\n    tag_31:\n        /* \"#utility.yul\":689:690   */\n      0x00\n        /* \"#utility.yul\":686:687   */\n      dup1\n        /* \"#utility.yul\":679:691   */\n      revert\n        /* \"#utility.yul\":722:1317   */\n    tag_32:\n        /* \"#utility.yul\":822:830   */\n      0x00\n        /* \"#utility.yul\":832:838   */\n      dup1\n        /* \"#utility.yul\":882:885   */\n      dup4\n        /* \"#utility.yul\":875:879   */\n      0x1f\n        /* \"#utility.yul\":867:873   */\n      dup5\n        /* \"#utility.yul\":863:880   */\n      add\n        /* \"#utility.yul\":859:886   */\n      slt\n        /* \"#utility.yul\":849:971   */\n      tag_47\n      jumpi\n        /* \"#utility.yul\":890:969   */\n      tag_48\n      tag_29\n      jump\t// in\n    tag_48:\n        /* \"#utility.yul\":849:971   */\n    tag_47:\n        /* \"#utility.yul\":1003:1009   */\n      dup3\n        /* \"#utility.yul\":990:1010   */\n      calldataload\n        /* \"#utility.yul\":980:1010   */\n      swap1\n      pop\n        /* \"#utility.yul\":1033:1051   */\n      0xffffffffffffffff\n        /* \"#utility.yul\":1025:1031   */\n      dup2\n        /* \"#utility.yul\":1022:1052   */\n      gt\n        /* \"#utility.yul\":1019:1136   */\n      iszero\n      tag_49\n      jumpi\n        /* \"#utility.yul\":1055:1134   */\n      tag_50\n      tag_30\n      jump\t// in\n    tag_50:\n        /* \"#utility.yul\":1019:1136   */\n    tag_49:\n        /* \"#utility.yul\":1169:1173   */\n      0x20\n        /* \"#utility.yul\":1161:1167   */\n      dup4\n        /* \"#utility.yul\":1157:1174   */\n      add\n        /* \"#utility.yul\":1145:1174   */\n      swap2\n      pop\n        /* \"#utility.yul\":1223:1226   */\n      dup4\n        /* \"#utility.yul\":1215:1219   */\n      0x20\n        /* \"#utility.yul\":1207:1213   */\n      dup3\n        /* \"#utility.yul\":1203:1220   */\n      mul\n        /* \"#utility.yul\":1193:1201   */\n      dup4\n        /* \"#utility.yul\":1189:1221   */\n      add\n        /* \"#utility.yul\":1186:1227   */\n      gt\n        /* \"#utility.yul\":1183:1311   */\n      iszero\n      tag_51\n      jumpi\n        /* \"#utility.yul\":1230:1309   */\n      tag_52\n      tag_31\n      jump\t// in\n    tag_52:\n        /* \"#utility.yul\":1183:1311   */\n    tag_51:\n        /* \"#utility.yul\":722:1317   */\n      swap3\n      pop\n      swap3\n      swap1\n      pop\n      jump\t// out\n        /* \"#utility.yul\":1323:1936   */\n    tag_6:\n        /* \"#utility.yul\":1436:1442   */\n      0x00\n        /* \"#utility.yul\":1444:1450   */\n      dup1\n        /* \"#utility.yul\":1493:1495   */\n      0x20\n        /* \"#utility.yul\":1481:1490   */\n      dup4\n        /* \"#utility.yul\":1472:1479   */\n      dup6\n        /* \"#utility.yul\":1468:1491   */\n      sub\n        /* \"#utility.yul\":1464:1496   */\n      slt\n        /* \"#utility.yul\":1461:1580   */\n      iszero\n      tag_54\n      jumpi\n        /* \"#utility.yul\":1499:1578   */\n      tag_55\n      tag_27\n      jump\t// in\n    tag_55:\n        /* \"#utility.yul\":1461:1580   */\n    tag_54:\n        /* \"#utility.yul\":1647:1648   */\n      0x00\n        /* \"#utility.yul\":1636:1645   */\n      dup4\n        /* \"#utility.yul\":1632:1649   */\n      add\n        /* \"#utility.yul\":1619:1650   */\n      calldataload\n        /* \"#utility.yul\":1677:1695   */\n      0xffffffffffffffff\n        /* \"#utility.yul\":1669:1675   */\n      dup2\n        /* \"#utility.yul\":1666:1696   */\n      gt\n        /* \"#utility.yul\":1663:1780   */\n      iszero\n      tag_56\n      jumpi\n        /* \"#utility.yul\":1699:1778   */\n      tag_57\n      tag_28\n      jump\t// in\n    tag_57:\n        /* \"#utility.yul\":1663:1780   */\n    tag_56:\n        /* \"#utility.yul\":1812:1919   */\n      tag_58\n        /* \"#utility.yul\":1911:1918   */\n      dup6\n        /* \"#utility.yul\":1902:1908   */\n      dup3\n        /* \"#utility.yul\":1891:1900   */\n      dup7\n        /* \"#utility.yul\":1887:1909   */\n      add\n        /* \"#utility.yul\":1812:1919   */\n      tag_32\n      jump\t// in\n    tag_58:\n        /* \"#utility.yul\":1794:1919   */\n      swap3\n      pop\n      swap3\n      pop\n        /* \"#utility.yul\":1590:1929   */\n      pop\n        /* \"#utility.yul\":1323:1936   */\n      swap3\n      pop\n      swap3\n      swap1\n      pop\n      jump\t// out\n        /* \"#utility.yul\":1942:2019   */\n    tag_33:\n        /* \"#utility.yul\":1979:1986   */\n      0x00\n        /* \"#utility.yul\":2008:2013   */\n      dup2\n        /* \"#utility.yul\":1997:2013   */\n      swap1\n      pop\n        /* \"#utility.yul\":1942:2019   */\n      swap2\n      swap1\n      pop\n      jump\t// out\n        /* \"#utility.yul\":2025:2143   */\n    tag_34:\n        /* \"#utility.yul\":2112:2136   */\n      tag_61\n        /* \"#utility.yul\":2130:2135   */\n      dup2\n        /* \"#utility.yul\":2112:2136   */\n      tag_33\n      jump\t// in\n    tag_61:\n        /* \"#utility.yul\":2107:2110   */\n      dup3\n        /* \"#utility.yul\":2100:2137   */\n      mstore\n        /* \"#utility.yul\":2025:2143   */\n      pop\n      pop\n      jump\t// out\n        /* \"#utility.yul\":2149:2371   */\n    tag_9:\n        /* \"#utility.yul\":2242:2246   */\n      0x00\n        /* \"#utility.yul\":2280:2282   */\n      0x20\n        /* \"#utility.yul\":2269:2278   */\n      dup3\n        /* \"#utility.yul\":2265:2283   */\n      add\n        /* \"#utility.yul\":2257:2283   */\n      swap1\n      pop\n        /* \"#utility.yul\":2293:2364   */\n      tag_63\n        /* \"#utility.yul\":2361:2362   */\n      0x00\n        /* \"#utility.yul\":2350:2359   */\n      dup4\n        /* \"#utility.yul\":2346:2363   */\n      add\n        /* \"#utility.yul\":2337:2343   */\n      dup5\n        /* \"#utility.yul\":2293:2364   */\n      tag_34\n      jump\t// in\n    tag_63:\n        /* \"#utility.yul\":2149:2371   */\n      swap3\n      swap2\n      pop\n      pop\n      jump\t// out\n        /* \"#utility.yul\":2377:2557   */\n    tag_16:\n        /* \"#utility.yul\":2425:2502   */\n      0x4e487b7100000000000000000000000000000000000000000000000000000000\n        /* \"#utility.yul\":2422:2423   */\n      0x00\n        /* \"#utility.yul\":2415:2503   */\n      mstore\n        /* \"#utility.yul\":2522:2526   */\n      0x32\n        /* \"#utility.yul\":2519:2520   */\n      0x04\n        /* \"#utility.yul\":2512:2527   */\n      mstore\n        /* \"#utility.yul\":2546:2550   */\n      0x24\n        /* \"#utility.yul\":2543:2544   */\n      0x00\n        /* \"#utility.yul\":2536:2551   */\n      revert\n        /* \"#utility.yul\":2563:2680   */\n    tag_35:\n        /* \"#utility.yul\":2672:2673   */\n      0x00\n        /* \"#utility.yul\":2669:2670   */\n      dup1\n        /* \"#utility.yul\":2662:2674   */\n      revert\n        /* \"#utility.yul\":2686:2803   */\n    tag_36:\n        /* \"#utility.yul\":2795:2796   */\n      0x00\n        /* \"#utility.yul\":2792:2793   */\n      dup1\n        /* \"#utility.yul\":2785:2797   */\n      revert\n        /* \"#utility.yul\":2809:2926   */\n    tag_37:\n        /* \"#utility.yul\":2918:2919   */\n      0x00\n        /* \"#utility.yul\":2915:2916   */\n      dup1\n        /* \"#utility.yul\":2908:2920   */\n      revert\n        /* \"#utility.yul\":2932:3672   */\n    tag_18:\n        /* \"#utility.yul\":3025:3029   */\n      0x00\n        /* \"#utility.yul\":3031:3037   */\n      dup1\n        /* \"#utility.yul\":3087:3098   */\n      dup4\n        /* \"#utility.yul\":3074:3099   */\n      calldataload\n        /* \"#utility.yul\":3187:3188   */\n      0x01\n        /* \"#utility.yul\":3181:3185   */\n      0x20\n        /* \"#utility.yul\":3177:3189   */\n      sub\n        /* \"#utility.yul\":3166:3174   */\n      dup5\n        /* \"#utility.yul\":3150:3164   */\n      calldatasize\n        /* \"#utility.yul\":3146:3175   */\n      sub\n        /* \"#utility.yul\":3142:3190   */\n      sub\n        /* \"#utility.yul\":3122:3140   */\n      dup2\n        /* \"#utility.yul\":3118:3191   */\n      slt\n        /* \"#utility.yul\":3108:3276   */\n      tag_69\n      jumpi\n        /* \"#utility.yul\":3195:3274   */\n      tag_70\n      tag_35\n      jump\t// in\n    tag_70:\n        /* \"#utility.yul\":3108:3276   */\n    tag_69:\n        /* \"#utility.yul\":3307:3325   */\n      dup1\n        /* \"#utility.yul\":3297:3305   */\n      dup5\n        /* \"#utility.yul\":3293:3326   */\n      add\n        /* \"#utility.yul\":3285:3326   */\n      swap3\n      pop\n        /* \"#utility.yul\":3359:3363   */\n      dup3\n        /* \"#utility.yul\":3346:3364   */\n      calldataload\n        /* \"#utility.yul\":3336:3364   */\n      swap2\n      pop\n        /* \"#utility.yul\":3387:3405   */\n      0xffffffffffffffff\n        /* \"#utility.yul\":3379:3385   */\n      dup3\n        /* \"#utility.yul\":3376:3406   */\n      gt\n        /* \"#utility.yul\":3373:3490   */\n      iszero\n      tag_71\n      jumpi\n        /* \"#utility.yul\":3409:3488   */\n      tag_72\n      tag_36\n      jump\t// in\n    tag_72:\n        /* \"#utility.yul\":3373:3490   */\n    tag_71:\n        /* \"#utility.yul\":3517:3519   */\n      0x20\n        /* \"#utility.yul\":3511:3515   */\n      dup4\n        /* \"#utility.yul\":3507:3520   */\n      add\n        /* \"#utility.yul\":3499:3520   */\n      swap3\n      pop\n        /* \"#utility.yul\":3574:3578   */\n      0x20\n        /* \"#utility.yul\":3566:3572   */\n      dup3\n        /* \"#utility.yul\":3562:3579   */\n      mul\n        /* \"#utility.yul\":3546:3560   */\n      calldatasize\n        /* \"#utility.yul\":3542:3580   */\n      sub\n        /* \"#utility.yul\":3536:3540   */\n      dup4\n        /* \"#utility.yul\":3532:3581   */\n      sgt\n        /* \"#utility.yul\":3529:3665   */\n      iszero\n      tag_73\n      jumpi\n        /* \"#utility.yul\":3584:3663   */\n      tag_74\n      tag_37\n      jump\t// in\n    tag_74:\n        /* \"#utility.yul\":3529:3665   */\n    tag_73:\n        /* \"#utility.yul\":3038:3672   */\n      pop\n        /* \"#utility.yul\":2932:3672   */\n      swap3\n      pop\n      swap3\n      swap1\n      pop\n      jump\t// out\n        /* \"#utility.yul\":3678:3858   */\n    tag_38:\n        /* \"#utility.yul\":3726:3803   */\n      0x4e487b7100000000000000000000000000000000000000000000000000000000\n        /* \"#utility.yul\":3723:3724   */\n      0x00\n        /* \"#utility.yul\":3716:3804   */\n      mstore\n        /* \"#utility.yul\":3823:3827   */\n      0x11\n        /* \"#utility.yul\":3820:3821   */\n      0x04\n        /* \"#utility.yul\":3813:3828   */\n      mstore\n        /* \"#utility.yul\":3847:3851   */\n      0x24\n        /* \"#utility.yul\":3844:3845   */\n      0x00\n        /* \"#utility.yul\":3837:3852   */\n      revert\n        /* \"#utility.yul\":3864:4055   */\n    tag_25:\n        /* \"#utility.yul\":3904:3907   */\n      0x00\n        /* \"#utility.yul\":3923:3943   */\n      tag_77\n        /* \"#utility.yul\":3941:3942   */\n      dup3\n        /* \"#utility.yul\":3923:3943   */\n      tag_33\n      jump\t// in\n    tag_77:\n        /* \"#utility.yul\":3918:3943   */\n      swap2\n      pop\n        /* \"#utility.yul\":3957:3977   */\n      tag_78\n        /* \"#utility.yul\":3975:3976   */\n      dup4\n        /* \"#utility.yul\":3957:3977   */\n      tag_33\n      jump\t// in\n    tag_78:\n        /* \"#utility.yul\":3952:3977   */\n      swap3\n      pop\n        /* \"#utility.yul\":4000:4001   */\n      dup3\n        /* \"#utility.yul\":3997:3998   */\n      dup3\n        /* \"#utility.yul\":3993:4002   */\n      add\n        /* \"#utility.yul\":3986:4002   */\n      swap1\n      pop\n        /* \"#utility.yul\":4021:4024   */\n      dup1\n        /* \"#utility.yul\":4018:4019   */\n      dup3\n        /* \"#utility.yul\":4015:4025   */\n      gt\n        /* \"#utility.yul\":4012:4048   */\n      iszero\n      tag_79\n      jumpi\n        /* \"#utility.yul\":4028:4046   */\n      tag_80\n      tag_38\n      jump\t// in\n    tag_80:\n        /* \"#utility.yul\":4012:4048   */\n    tag_79:\n        /* \"#utility.yul\":3864:4055   */\n      swap3\n      swap2\n      pop\n      pop\n      jump\t// out\n\n    auxdata: 0xa2646970667358221220241b1f47c8439efb89a7060ff6778feb25203be8b69c9ca6e8c41c1ad80e692d64736f6c63430008180033\n}\n",
				"bytecode": {
					"linkReferences": {},
					"object": "608060405234801561000f575f80fd5b506103078061001d5f395ff3fe608060405234801561000f575f80fd5b5060043610610029575f3560e01c8063b92f5c7c1461002d575b5f80fd5b6100476004803603810190610042919061015a565b61005d565b60405161005491906101bd565b60405180910390f35b5f805f90505b838390508110156100ea57365f858584818110610083576100826101d6565b5b9050602002810190610095919061020f565b915091505f5b828290508110156100da578282828181106100b9576100b86101d6565b5b90506020020135856100cb919061029e565b9450808060010191505061009b565b5050508080600101915050610063565b5092915050565b5f80fd5b5f80fd5b5f80fd5b5f80fd5b5f80fd5b5f8083601f84011261011a576101196100f9565b5b8235905067ffffffffffffffff811115610137576101366100fd565b5b60208301915083602082028301111561015357610152610101565b5b9250929050565b5f80602083850312156101705761016f6100f1565b5b5f83013567ffffffffffffffff81111561018d5761018c6100f5565b5b61019985828601610105565b92509250509250929050565b5f819050919050565b6101b7816101a5565b82525050565b5f6020820190506101d05f8301846101ae565b92915050565b7f4e487b71000000000000000000000000000000000000000000000000000000005f52603260045260245ffd5b5f80fd5b5f80fd5b5f80fd5b5f808335600160200384360303811261022b5761022a610203565b5b80840192508235915067ffffffffffffffff82111561024d5761024c610207565b5b6020830192506020820236038313156102695761026861020b565b5b509250929050565b7f4e487b71000000000000000000000000000000000000000000000000000000005f52601160045260245ffd5b5f6102a8826101a5565b91506102b3836101a5565b92508282019050808211156102cb576102ca610271565b5b9291505056fea2646970667358221220241b1f47c8439efb89a7060ff6778feb25203be8b69c9ca6e8c41c1ad80e692d64736f6c63430008180033",
					"opcodes": "PUSH1 0x80 PUSH1 0x40 MSTORE CALLVALUE DUP1 ISZERO PUSH2 0xF JUMPI PUSH0 DUP1 REVERT JUMPDEST POP PUSH2 0x307 DUP1 PUSH2 0x1D PUSH0 CODECOPY PUSH0 RETURN INVALID PUSH1 0x80 PUSH1 0x40 MSTORE CALLVALUE DUP1 ISZERO PUSH2 0xF JUMPI PUSH0 DUP1 REVERT JUMPDEST POP PUSH1 0x4 CALLDATASIZE LT PUSH2 0x29 JUMPI PUSH0 CALLDATALOAD PUSH1 0xE0 SHR DUP1 PUSH4 0xB92F5C7C EQ PUSH2 0x2D JUMPI JUMPDEST PUSH0 DUP1 REVERT JUMPDEST PUSH2 0x47 PUSH1 0x4 DUP1 CALLDATASIZE SUB DUP2 ADD SWAP1 PUSH2 0x42 SWAP2 SWAP1 PUSH2 0x15A JUMP JUMPDEST PUSH2 0x5D JUMP JUMPDEST PUSH1 0x40 MLOAD PUSH2 0x54 SWAP2 SWAP1 PUSH2 0x1BD JUMP JUMPDEST PUSH1 0x40 MLOAD DUP1 SWAP2 SUB SWAP1 RETURN JUMPDEST PUSH0 DUP1 PUSH0 SWAP1 POP JUMPDEST DUP4 DUP4 SWAP1 POP DUP2 LT ISZERO PUSH2 0xEA JUMPI CALLDATASIZE PUSH0 DUP6 DUP6 DUP5 DUP2 DUP2 LT PUSH2 0x83 JUMPI PUSH2 0x82 PUSH2 0x1D6 JUMP JUMPDEST JUMPDEST SWAP1 POP PUSH1 0x20 MUL DUP2 ADD SWAP1 PUSH2 0x95 SWAP2 SWAP1 PUSH2 0x20F JUMP JUMPDEST SWAP2 POP SWAP2 POP PUSH0 JUMPDEST DUP3 DUP3 SWAP1 POP DUP2 LT ISZERO PUSH2 0xDA JUMPI DUP3 DUP3 DUP3 DUP2 DUP2 LT PUSH2 0xB9 JUMPI PUSH2 0xB8 PUSH2 0x1D6 JUMP JUMPDEST JUMPDEST SWAP1 POP PUSH1 0x20 MUL ADD CALLDATALOAD DUP6 PUSH2 0xCB SWAP2 SWAP1 PUSH2 0x29E JUMP JUMPDEST SWAP5 POP DUP1 DUP1 PUSH1 0x1 ADD SWAP2 POP POP PUSH2 0x9B JUMP JUMPDEST POP POP POP DUP1 DUP1 PUSH1 0x1 ADD SWAP2 POP POP PUSH2 0x63 JUMP JUMPDEST POP SWAP3 SWAP2 POP POP JUMP JUMPDEST PUSH0 DUP1 REVERT JUMPDEST PUSH0 DUP1 REVERT JUMPDEST PUSH0 DUP1 REVERT JUMPDEST PUSH0 DUP1 REVERT JUMPDEST PUSH0 DUP1 REVERT JUMPDEST PUSH0 DUP1 DUP4 PUSH1 0x1F DUP5 ADD SLT PUSH2 0x11A JUMPI PUSH2 0x119 PUSH2 0xF9 JUMP JUMPDEST JUMPDEST DUP3 CALLDATALOAD SWAP1 POP PUSH8 0xFFFFFFFFFFFFFFFF DUP2 GT ISZERO PUSH2 0x137 JUMPI PUSH2 0x136 PUSH2 0xFD JUMP JUMPDEST JUMPDEST PUSH1 0x20 DUP4 ADD SWAP2 POP DUP4 PUSH1 0x20 DUP3 MUL DUP4 ADD GT ISZERO PUSH2 0x153 JUMPI PUSH2 0x152 PUSH2 0x101 JUMP JUMPDEST JUMPDEST SWAP3 POP SWAP3 SWAP1 POP JUMP JUMPDEST PUSH0 DUP1 PUSH1 0x20 DUP4 DUP6 SUB SLT ISZERO PUSH2 0x170 JUMPI PUSH2 0x16F PUSH2 0xF1 JUMP JUMPDEST JUMPDEST PUSH0 DUP4 ADD CALLDATALOAD PUSH8 0xFFFFFFFFFFFFFFFF DUP2 GT ISZERO PUSH2 0x18D JUMPI PUSH2 0x18C PUSH2 0xF5 JUMP JUMPDEST JUMPDEST PUSH2 0x199 DUP6 DUP3 DUP7 ADD PUSH2 0x105 JUMP JUMPDEST SWAP3 POP SWAP3 POP POP SWAP3 POP SWAP3 SWAP1 POP JUMP JUMPDEST PUSH0 DUP2 SWAP1 POP SWAP2 SWAP1 POP JUMP JUMPDEST PUSH2 0x1B7 DUP2 PUSH2 0x1A5 JUMP JUMPDEST DUP3 MSTORE POP POP JUMP JUMPDEST PUSH0 PUSH1 0x20 DUP3 ADD SWAP1 POP PUSH2 0x1D0 PUSH0 DUP4 ADD DUP5 PUSH2 0x1AE JUMP JUMPDEST SWAP3 SWAP2 POP POP JUMP JUMPDEST PUSH32 0x4E487B7100000000000000000000000000000000000000000000000000000000 PUSH0 MSTORE PUSH1 0x32 PUSH1 0x4 MSTORE PUSH1 0x24 PUSH0 REVERT JUMPDEST PUSH0 DUP1 REVERT JUMPDEST PUSH0 DUP1 REVERT JUMPDEST PUSH0 DUP1 REVERT JUMPDEST PUSH0 DUP1 DUP4 CALLDATALOAD PUSH1 0x1 PUSH1 0x20 SUB DUP5 CALLDATASIZE SUB SUB DUP2 SLT PUSH2 0x22B JUMPI PUSH2 0x22A PUSH2 0x203 JUMP JUMPDEST JUMPDEST DUP1 DUP5 ADD SWAP3 POP DUP3 CALLDATALOAD SWAP2 POP PUSH8 0xFFFFFFFFFFFFFFFF DUP3 GT ISZERO PUSH2 0x24D JUMPI PUSH2 0x24C PUSH2 0x207 JUMP JUMPDEST JUMPDEST PUSH1 0x20 DUP4 ADD SWAP3 POP PUSH1 0x20 DUP3 MUL CALLDATASIZE SUB DUP4 SGT ISZERO PUSH2 0x269 JUMPI PUSH2 0x268 PUSH2 0x20B JUMP JUMPDEST JUMPDEST POP SWAP3 POP SWAP3 SWAP1 POP JUMP JUMPDEST PUSH32 0x4E487B7100000000000000000000000000000000000000000000000000000000 PUSH0 MSTORE PUSH1 0x11 PUSH1 0x4 MSTORE PUSH1 0x24 PUSH0 REVERT JUMPDEST PUSH0 PUSH2 0x2A8 DUP3 PUSH2 0x1A5 JUMP JUMPDEST SWAP2 POP PUSH2 0x2B3 DUP4 PUSH2 0x1A5 JUMP JUMPDEST SWAP3 POP DUP3 DUP3 ADD SWAP1 POP DUP1 DUP3 GT ISZERO PUSH2 0x2CB JUMPI PUSH2 0x2CA PUSH2 0x271 JUMP JUMPDEST JUMPDEST SWAP3 SWAP2 POP POP JUMP INVALID LOG2 PUSH5 0x6970667358 0x22 SLT KECCAK256 0x24 SHL 0x1F SELFBALANCE 0xC8 NUMBER SWAP15 0xFB DUP10 0xA7 MOD 0xF 0xF6 PUSH24 0x8FEB25203BE8B69C9CA6E8C41C1AD80E692D64736F6C6343 STOP ADDMOD XOR STOP CALLER "
				},
				"gasEstimates": {
					"creation": {
						"codeDepositCost": "155000",
						"executionCost": "200",
						"totalCost": "155200"
					},
					"external": {
						"sum(uint256[][])": "infinite"
					}
				},
				"methodIdentifiers": {
					"sum(uint256[][])": "b92f5c7c"
				}
			},
			"storageLayout": {
				"storage": [],
				"types": null
			},
			"userdoc": {
				"kind": "user",
				"methods": {},
				"version": 1
			}
		}
	}
}