{
	"data": {
		"bytecode": {
			"linkReferences": {},
			"object": "608060405234801561001057600080fd5b50610697806100206000396000f3fe608060405234801561001057600080fd5b50600436106100365760003560e01c806340dcbb081461003b5780637bc5bbbf14610057575b600080fd5b6100556004803603810190610050919061040f565b610073565b005b610071600480360381019061006c919061040f565b610076565b005b50565b806000908051906020019061008c9291906101e1565b507f536c2fbd76fa4dd29f78e58dc1b32d64fd3d912990e01383f27653540a85cbe76000805490506040516100c191906104ea565b60405180910390a16000808054806100dc576100db610518565b5b600190038181906000526020600020016000905590557f536c2fbd76fa4dd29f78e58dc1b32d64fd3d912990e01383f27653540a85cbe760008054905060405161012691906105b9565b60405180910390a160008061013b919061022e565b7f536c2fbd76fa4dd29f78e58dc1b32d64fd3d912990e01383f27653540a85cbe760008054905060405161016f9190610633565b60405180910390a161018160006101de565b6101da60008054806020026020016040519081016040528092919081815260200182805480156101d057602002820191906000526020600020905b8154815260200190600101908083116101bc575b5050505050610073565b5050565b50565b82805482825590600052602060002090810192821561021d579160200282015b8281111561021c578251825591602001919060010190610201565b5b50905061022a919061024f565b5090565b508054600082559060005260206000209081019061024c919061024f565b50565b5b80821115610268576000816000905550600101610250565b5090565b6000604051905090565b600080fd5b600080fd5b600080fd5b6000601f19601f8301169050919050565b7f4e487b7100000000000000000000000000000000000000000000000000000000600052604160045260246000fd5b6102ce82610285565b810181811067ffffffffffffffff821117156102ed576102ec610296565b5b80604052505050565b600061030061026c565b905061030c82826102c5565b919050565b600067ffffffffffffffff82111561032c5761032b610296565b5b602082029050602081019050919050565b600080fd5b6000819050919050565b61035581610342565b811461036057600080fd5b50565b6000813590506103728161034c565b92915050565b600061038b61038684610311565b6102f6565b905080838252602082019050602084028301858111156103ae576103ad61033d565b5b835b818110156103d757806103c38882610363565b8452602084019350506020810190506103b0565b5050509392505050565b600082601f8301126103f6576103f5610280565b5b8135610406848260208601610378565b91505092915050565b60006020828403121561042557610424610276565b5b600082013567ffffffffffffffff8111156104435761044261027b565b5b61044f848285016103e1565b91505092915050565b600082825260208201905092915050565b7f41737369676e6564206d656d6f7279417272617920746f20782c206e6577206c60008201527f656e6774683a0000000000000000000000000000000000000000000000000000602082015250565b60006104c5602683610458565b91506104d082610469565b604082019050919050565b6104e481610342565b82525050565b60006040820190508181036000830152610503816104b8565b905061051260208301846104db565b92915050565b7f4e487b7100000000000000000000000000000000000000000000000000000000600052603160045260246000fd5b7f43616c6c656420706f70206f6e20792c206e6577206c656e677468206f66207860008201527f3a00000000000000000000000000000000000000000000000000000000000000602082015250565b60006105a3602183610458565b91506105ae82610547565b604082019050919050565b600060408201905081810360008301526105d281610596565b90506105e160208301846104db565b92915050565b7f44656c6574656420782c206e6577206c656e6774683a00000000000000000000600082015250565b600061061d601683610458565b9150610628826105e7565b602082019050919050565b6000604082019050818103600083015261064c81610610565b905061065b60208301846104db565b9291505056fea2646970667358221220d4815da75f96014519d05929b688590febf1843bdedb437d85c6a8c660e71a7764736f6c63430008110033",
			"opcodes": "PUSH1 0x80 PUSH1 0x40 MSTORE CALLVALUE DUP1 ISZERO PUSH2 0x10 JUMPI PUSH1 0x0 DUP1 REVERT JUMPDEST POP PUSH2 0x697 DUP1 PUSH2 0x20 PUSH1 0x0 CODECOPY PUSH1 0x0 RETURN INVALID PUSH1 0x80 PUSH1 0x40 MSTORE CALLVALUE DUP1 ISZERO PUSH2 0x10 JUMPI PUSH1 0x0 DUP1 REVERT JUMPDEST POP PUSH1 0x4 CALLDATASIZE LT PUSH2 0x36 JUMPI PUSH1 0x0 CALLDATALOAD PUSH1 0xE0 SHR DUP1 PUSH4 0x40DCBB08 EQ PUSH2 0x3B JUMPI DUP1 PUSH4 0x7BC5BBBF EQ PUSH2 0x57 JUMPI JUMPDEST PUSH1 0x0 DUP1 REVERT JUMPDEST PUSH2 0x55 PUSH1 0x4 DUP1 CALLDATASIZE SUB DUP2 ADD SWAP1 PUSH2 0x50 SWAP2 SWAP1 PUSH2 0x40F JUMP JUMPDEST PUSH2 0x73 JUMP JUMPDEST STOP JUMPDEST PUSH2 0x71 PUSH1 0x4 DUP1 CALLDATASIZE SUB DUP2 ADD SWAP1 PUSH2 0x6C SWAP2 SWAP1 PUSH2 0x40F JUMP JUMPDEST PUSH2 0x76 JUMP JUMPDEST STOP JUMPDEST POP JUMP JUMPDEST DUP1 PUSH1 0x0 SWAP1 DUP1 MLOAD SWAP1 PUSH1 0x20 ADD SWAP1 PUSH2 0x8C SWAP3 SWAP2 SWAP1 PUSH2 0x1E1 JUMP JUMPDEST POP PUSH32 0x536C2FBD76FA4DD29F78E58DC1B32D64FD3D912990E01383F27653540A85CBE7 PUSH1 0x0 DUP1 SLOAD SWAP1 POP PUSH1 0x40 MLOAD PUSH2 0xC1 SWAP2 SWAP1 PUSH2 0x4EA JUMP JUMPDEST PUSH1 0x40 MLOAD DUP1 SWAP2 SUB SWAP1 LOG1 PUSH1 0x0 DUP1 DUP1 SLOAD DUP1 PUSH2 0xDC JUMPI PUSH2 0xDB PUSH2 0x518 JUMP JUMPDEST JUMPDEST PUSH1 0x1 SWAP1 SUB DUP2 DUP2 SWAP1 PUSH1 0x0 MSTORE PUSH1 0x20 PUSH1 0x0 KECCAK256 ADD PUSH1 0x0 SWAP1 SSTORE SWAP1 SSTORE PUSH32 0x536C2FBD76FA4DD29F78E58DC1B32D64FD3D912990E01383F27653540A85CBE7 PUSH1 0x0 DUP1 SLOAD SWAP1 POP PUSH1 0x40 MLOAD PUSH2 0x126 SWAP2 SWAP1 PUSH2 0x5B9 JUMP JUMPDEST PUSH1 0x40 MLOAD DUP1 SWAP2 SUB SWAP1 LOG1 PUSH1 0x0 DUP1 PUSH2 0x13B SWAP2 SWAP1 PUSH2 0x22E JUMP JUMPDEST PUSH32 0x536C2FBD76FA4DD29F78E58DC1B32D64FD3D912990E01383F27653540A85CBE7 PUSH1 0x0 DUP1 SLOAD SWAP1 POP PUSH1 0x40 MLOAD PUSH2 0x16F SWAP2 SWAP1 PUSH2 0x633 JUMP JUMPDEST PUSH1 0x40 MLOAD DUP1 SWAP2 SUB SWAP1 LOG1 PUSH2 0x181 PUSH1 0x0 PUSH2 0x1DE JUMP JUMPDEST PUSH2 0x1DA PUSH1 0x0 DUP1 SLOAD DUP1 PUSH1 0x20 MUL PUSH1 0x20 ADD PUSH1 0x40 MLOAD SWAP1 DUP2 ADD PUSH1 0x40 MSTORE DUP1 SWAP3 SWAP2 SWAP1 DUP2 DUP2 MSTORE PUSH1 0x20 ADD DUP3 DUP1 SLOAD DUP1 ISZERO PUSH2 0x1D0 JUMPI PUSH1 0x20 MUL DUP3 ADD SWAP2 SWAP1 PUSH1 0x0 MSTORE PUSH1 0x20 PUSH1 0x0 KECCAK256 SWAP1 JUMPDEST DUP2 SLOAD DUP2 MSTORE PUSH1 0x20 ADD SWAP1 PUSH1 0x1 ADD SWAP1 DUP1 DUP4 GT PUSH2 0x1BC JUMPI JUMPDEST POP POP POP POP POP PUSH2 0x73 JUMP JUMPDEST POP POP JUMP JUMPDEST POP JUMP JUMPDEST DUP3 DUP1 SLOAD DUP3 DUP3 SSTORE SWAP1 PUSH1 0x0 MSTORE PUSH1 0x20 PUSH1 0x0 KECCAK256 SWAP1 DUP2 ADD SWAP3 DUP3 ISZERO PUSH2 0x21D JUMPI SWAP2 PUSH1 0x20 MUL DUP3 ADD JUMPDEST DUP3 DUP2 GT ISZERO PUSH2 0x21C JUMPI DUP3 MLOAD DUP3 SSTORE SWAP2 PUSH1 0x20 ADD SWAP2 SWAP1 PUSH1 0x1 ADD SWAP1 PUSH2 0x201 JUMP JUMPDEST JUMPDEST POP SWAP1 POP PUSH2 0x22A SWAP2 SWAP1 PUSH2 0x24F JUMP JUMPDEST POP SWAP1 JUMP JUMPDEST POP DUP1 SLOAD PUSH1 0x0 DUP3 SSTORE SWAP1 PUSH1 0x0 MSTORE PUSH1 0x20 PUSH1 0x0 KECCAK256 SWAP1 DUP2 ADD SWAP1 PUSH2 0x24C SWAP2 SWAP1 PUSH2 0x24F JUMP JUMPDEST POP JUMP JUMPDEST JUMPDEST DUP1 DUP3 GT ISZERO PUSH2 0x268 JUMPI PUSH1 0x0 DUP2 PUSH1 0x0 SWAP1 SSTORE POP PUSH1 0x1 ADD PUSH2 0x250 JUMP JUMPDEST POP SWAP1 JUMP JUMPDEST PUSH1 0x0 PUSH1 0x40 MLOAD SWAP1 POP SWAP1 JUMP JUMPDEST PUSH1 0x0 DUP1 REVERT JUMPDEST PUSH1 0x0 DUP1 REVERT JUMPDEST PUSH1 0x0 DUP1 REVERT JUMPDEST PUSH1 0x0 PUSH1 0x1F NOT PUSH1 0x1F DUP4 ADD AND SWAP1 POP SWAP2 SWAP1 POP JUMP JUMPDEST PUSH32 0x4E487B7100000000000000000000000000000000000000000000000000000000 PUSH1 0x0 MSTORE PUSH1 0x41 PUSH1 0x4 MSTORE PUSH1 0x24 PUSH1 0x0 REVERT JUMPDEST PUSH2 0x2CE DUP3 PUSH2 0x285 JUMP JUMPDEST DUP2 ADD DUP2 DUP2 LT PUSH8 0xFFFFFFFFFFFFFFFF DUP3 GT OR ISZERO PUSH2 0x2ED JUMPI PUSH2 0x2EC PUSH2 0x296 JUMP JUMPDEST JUMPDEST DUP1 PUSH1 0x40 MSTORE POP POP POP JUMP JUMPDEST PUSH1 0x0 PUSH2 0x300 PUSH2 0x26C JUMP JUMPDEST SWAP1 POP PUSH2 0x30C DUP3 DUP3 PUSH2 0x2C5 JUMP JUMPDEST SWAP2 SWAP1 POP JUMP JUMPDEST PUSH1 0x0 PUSH8 0xFFFFFFFFFFFFFFFF DUP3 GT ISZERO PUSH2 0x32C JUMPI PUSH2 0x32B PUSH2 0x296 JUMP JUMPDEST JUMPDEST PUSH1 0x20 DUP3 MUL SWAP1 POP PUSH1 0x20 DUP2 ADD SWAP1 POP SWAP2 SWAP1 POP JUMP JUMPDEST PUSH1 0x0 DUP1 REVERT JUMPDEST PUSH1 0x0 DUP2 SWAP1 POP SWAP2 SWAP1 POP JUMP JUMPDEST PUSH2 0x355 DUP2 PUSH2 0x342 JUMP JUMPDEST DUP2 EQ PUSH2 0x360 JUMPI PUSH1 0x0 DUP1 REVERT JUMPDEST POP JUMP JUMPDEST PUSH1 0x0 DUP2 CALLDATALOAD SWAP1 POP PUSH2 0x372 DUP2 PUSH2 0x34C JUMP JUMPDEST SWAP3 SWAP2 POP POP JUMP JUMPDEST PUSH1 0x0 PUSH2 0x38B PUSH2 0x386 DUP5 PUSH2 0x311 JUMP JUMPDEST PUSH2 0x2F6 JUMP JUMPDEST SWAP1 POP DUP1 DUP4 DUP3 MSTORE PUSH1 0x20 DUP3 ADD SWAP1 POP PUSH1 0x20 DUP5 MUL DUP4 ADD DUP6 DUP2 GT ISZERO PUSH2 0x3AE JUMPI PUSH2 0x3AD PUSH2 0x33D JUMP JUMPDEST JUMPDEST DUP4 JUMPDEST DUP2 DUP2 LT ISZERO PUSH2 0x3D7 JUMPI DUP1 PUSH2 0x3C3 DUP9 DUP3 PUSH2 0x363 JUMP JUMPDEST DUP5 MSTORE PUSH1 0x20 DUP5 ADD SWAP4 POP POP PUSH1 0x20 DUP2 ADD SWAP1 POP PUSH2 0x3B0 JUMP JUMPDEST POP POP POP SWAP4 SWAP3 POP POP POP JUMP JUMPDEST PUSH1 0x0 DUP3 PUSH1 0x1F DUP4 ADD SLT PUSH2 0x3F6 JUMPI PUSH2 0x3F5 PUSH2 0x280 JUMP JUMPDEST JUMPDEST DUP2 CALLDATALOAD PUSH2 0x406 DUP5 DUP3 PUSH1 0x20 DUP7 ADD PUSH2 0x378 JUMP JUMPDEST SWAP2 POP POP SWAP3 SWAP2 POP POP JUMP JUMPDEST PUSH1 0x0 PUSH1 0x20 DUP3 DUP5 SUB SLT ISZERO PUSH2 0x425 JUMPI PUSH2 0x424 PUSH2 0x276 JUMP JUMPDEST JUMPDEST PUSH1 0x0 DUP3 ADD CALLDATALOAD PUSH8 0xFFFFFFFFFFFFFFFF DUP2 GT ISZERO PUSH2 0x443 JUMPI PUSH2 0x442 PUSH2 0x27B JUMP JUMPDEST JUMPDEST PUSH2 0x44F DUP5 DUP3 DUP6 ADD PUSH2 0x3E1 JUMP JUMPDEST SWAP2 POP POP SWAP3 SWAP2 POP POP JUMP JUMPDEST PUSH1 0x0 DUP3 DUP3 MSTORE PUSH1 0x20 DUP3 ADD SWAP1 POP SWAP3 SWAP2 POP POP JUMP JUMPDEST PUSH32 0x41737369676E6564206D656D6F7279417272617920746F20782C206E6577206C PUSH1 0x0 DUP3 ADD MSTORE PUSH32 0x656E6774683A0000000000000000000000000000000000000000000000000000 PUSH1 0x20 DUP3 ADD MSTORE POP JUMP JUMPDEST PUSH1 0x0 PUSH2 0x4C5 PUSH1 0x26 DUP4 PUSH2 0x458 JUMP JUMPDEST SWAP2 POP PUSH2 0x4D0 DUP3 PUSH2 0x469 JUMP JUMPDEST PUSH1 0x40 DUP3 ADD SWAP1 POP SWAP2 SWAP1 POP JUMP JUMPDEST PUSH2 0x4E4 DUP2 PUSH2 0x342 JUMP JUMPDEST DUP3 MSTORE POP POP JUMP JUMPDEST PUSH1 0x0 PUSH1 0x40 DUP3 ADD SWAP1 POP DUP2 DUP2 SUB PUSH1 0x0 DUP4 ADD MSTORE PUSH2 0x503 DUP2 PUSH2 0x4B8 JUMP JUMPDEST SWAP1 POP PUSH2 0x512 PUSH1 0x20 DUP4 ADD DUP5 PUSH2 0x4DB JUMP JUMPDEST SWAP3 SWAP2 POP POP JUMP JUMPDEST PUSH32 0x4E487B7100000000000000000000000000000000000000000000000000000000 PUSH1 0x0 MSTORE PUSH1 0x31 PUSH1 0x4 MSTORE PUSH1 0x24 PUSH1 0x0 REVERT JUMPDEST PUSH32 0x43616C6C656420706F70206F6E20792C206E6577206C656E677468206F662078 PUSH1 0x0 DUP3 ADD MSTORE PUSH32 0x3A00000000000000000000000000000000000000000000000000000000000000 PUSH1 0x20 DUP3 ADD MSTORE POP JUMP JUMPDEST PUSH1 0x0 PUSH2 0x5A3 PUSH1 0x21 DUP4 PUSH2 0x458 JUMP JUMPDEST SWAP2 POP PUSH2 0x5AE DUP3 PUSH2 0x547 JUMP JUMPDEST PUSH1 0x40 DUP3 ADD SWAP1 POP SWAP2 SWAP1 POP JUMP JUMPDEST PUSH1 0x0 PUSH1 0x40 DUP3 ADD SWAP1 POP DUP2 DUP2 SUB PUSH1 0x0 DUP4 ADD MSTORE PUSH2 0x5D2 DUP2 PUSH2 0x596 JUMP JUMPDEST SWAP1 POP PUSH2 0x5E1 PUSH1 0x20 DUP4 ADD DUP5 PUSH2 0x4DB JUMP JUMPDEST SWAP3 SWAP2 POP POP JUMP JUMPDEST PUSH32 0x44656C6574656420782C206E6577206C656E6774683A00000000000000000000 PUSH1 0x0 DUP3 ADD MSTORE POP JUMP JUMPDEST PUSH1 0x0 PUSH2 0x61D PUSH1 0x16 DUP4 PUSH2 0x458 JUMP JUMPDEST SWAP2 POP PUSH2 0x628 DUP3 PUSH2 0x5E7 JUMP JUMPDEST PUSH1 0x20 DUP3 ADD SWAP1 POP SWAP2 SWAP1 POP JUMP JUMPDEST PUSH1 0x0 PUSH1 0x40 DUP3 ADD SWAP1 POP DUP2 DUP2 SUB PUSH1 0x0 DUP4 ADD MSTORE PUSH2 0x64C DUP2 PUSH2 0x610 JUMP JUMPDEST SWAP1 POP PUSH2 0x65B PUSH1 0x20 DUP4 ADD DUP5 PUSH2 0x4DB JUMP JUMPDEST SWAP3 SWAP2 POP POP JUMP INVALID LOG2 PUSH5 0x6970667358 0x22 SLT KECCAK256 0xD4 DUP2 0x5D 0xA7 0x5F SWAP7 ADD GASLIMIT NOT 0xD0 MSIZE 0x29 0xB6 DUP9 MSIZE 0xF 0xEB CALL DUP5 EXTCODESIZE 0xDE 0xDB NUMBER PUSH30 0x85C6A8C660E71A7764736F6C634300081100330000000000000000000000 "
		},
		"gasEstimates": {
			"creation": {
				"codeDepositCost": "337400",
				"executionCost": "374",
				"totalCost": "337774"
			},
			"external": {
				"f(uint256[])": "infinite",
				"h(uint256[])": "infinite"
			},
			"internal": {
				"g(uint256[] storage pointer)": "11"
			}
		},
		"methodIdentifiers": {
			"f(uint256[])": "7bc5bbbf",
			"h(uint256[])": "40dcbb08"
		}
	},
	"abi": [
		{
			"anonymous": false,
			"inputs": [
				{
					"indexed": false,
					"internalType": "string",
					"name": "description",
					"type": "string"
				},
				{
					"indexed": false,
					"internalType": "uint256",
					"name": "length",
					"type": "uint256"
				}
			],
			"name": "ArrayOperation",
			"type": "event"
		},
		{
			"inputs": [
				{
					"internalType": "uint256[]",
					"name": "memoryArray",
					"type": "uint256[]"
				}
			],
			"name": "f",
			"outputs": [],
			"stateMutability": "nonpayable",
			"type": "function"
		},
		{
			"inputs": [
				{
					"internalType": "uint256[]",
					"name": "",
					"type": "uint256[]"
				}
			],
			"name": "h",
			"outputs": [],
			"stateMutability": "pure",
			"type": "function"
		}
	]
}