{
	"contracts/DAOAttack/EtherStore.sol": {
		"EtherStore": {
			"abi": [
				{
					"inputs": [
						{
							"internalType": "address",
							"name": "",
							"type": "address"
						}
					],
					"name": "balances",
					"outputs": [
						{
							"internalType": "uint256",
							"name": "",
							"type": "uint256"
						}
					],
					"stateMutability": "view",
					"type": "function"
				},
				{
					"inputs": [],
					"name": "depositFunds",
					"outputs": [],
					"stateMutability": "payable",
					"type": "function"
				},
				{
					"inputs": [
						{
							"internalType": "address",
							"name": "",
							"type": "address"
						}
					],
					"name": "lastWithdrawTime",
					"outputs": [
						{
							"internalType": "uint256",
							"name": "",
							"type": "uint256"
						}
					],
					"stateMutability": "view",
					"type": "function"
				},
				{
					"inputs": [
						{
							"internalType": "uint256",
							"name": "_weiToWithdraw",
							"type": "uint256"
						}
					],
					"name": "withdrawFunds",
					"outputs": [],
					"stateMutability": "nonpayable",
					"type": "function"
				},
				{
					"inputs": [],
					"name": "withdrawalLimit",
					"outputs": [
						{
							"internalType": "uint256",
							"name": "",
							"type": "uint256"
						}
					],
					"stateMutability": "view",
					"type": "function"
				}
			],
			"devdoc": {
				"kind": "dev",
				"methods": {},
				"version": 1
			},
			"evm": {
				"assembly": "    /* \"contracts/DAOAttack/EtherStore.sol\":62:906  contract EtherStore {... */\n  mstore(0x40, 0x80)\n    /* \"contracts/DAOAttack/EtherStore.sol\":121:128  1 ether */\n  0x0de0b6b3a7640000\n    /* \"contracts/DAOAttack/EtherStore.sol\":88:128  uint256 public withdrawalLimit = 1 ether */\n  0x00\n  sstore\n    /* \"contracts/DAOAttack/EtherStore.sol\":62:906  contract EtherStore {... */\n  callvalue\n  dup1\n  iszero\n  tag_1\n  jumpi\n  0x00\n  dup1\n  revert\ntag_1:\n  pop\n  dataSize(sub_0)\n  dup1\n  dataOffset(sub_0)\n  0x00\n  codecopy\n  0x00\n  return\nstop\n\nsub_0: assembly {\n        /* \"contracts/DAOAttack/EtherStore.sol\":62:906  contract EtherStore {... */\n      mstore(0x40, 0x80)\n      jumpi(tag_1, lt(calldatasize, 0x04))\n      shr(0xe0, calldataload(0x00))\n      dup1\n      0x1031ec31\n      eq\n      tag_2\n      jumpi\n      dup1\n      0x155dd5ee\n      eq\n      tag_3\n      jumpi\n      dup1\n      0x27e235e3\n      eq\n      tag_4\n      jumpi\n      dup1\n      0x7ddfe78d\n      eq\n      tag_5\n      jumpi\n      dup1\n      0xe2c41dbc\n      eq\n      tag_6\n      jumpi\n    tag_1:\n      0x00\n      dup1\n      revert\n        /* \"contracts/DAOAttack/EtherStore.sol\":134:185  mapping(address => uint256) public lastWithdrawTime */\n    tag_2:\n      callvalue\n      dup1\n      iszero\n      tag_7\n      jumpi\n      0x00\n      dup1\n      revert\n    tag_7:\n      pop\n      tag_8\n      0x04\n      dup1\n      calldatasize\n      sub\n      dup2\n      add\n      swap1\n      tag_9\n      swap2\n      swap1\n      tag_10\n      jump\t// in\n    tag_9:\n      tag_11\n      jump\t// in\n    tag_8:\n      mload(0x40)\n      tag_12\n      swap2\n      swap1\n      tag_13\n      jump\t// in\n    tag_12:\n      mload(0x40)\n      dup1\n      swap2\n      sub\n      swap1\n      return\n        /* \"contracts/DAOAttack/EtherStore.sol\":336:904  function withdrawFunds(uint256 _weiToWithdraw) public {... */\n    tag_3:\n      callvalue\n      dup1\n      iszero\n      tag_14\n      jumpi\n      0x00\n      dup1\n      revert\n    tag_14:\n      pop\n      tag_15\n      0x04\n      dup1\n      calldatasize\n      sub\n      dup2\n      add\n      swap1\n      tag_16\n      swap2\n      swap1\n      tag_17\n      jump\t// in\n    tag_16:\n      tag_18\n      jump\t// in\n    tag_15:\n      stop\n        /* \"contracts/DAOAttack/EtherStore.sol\":191:234  mapping(address => uint256) public balances */\n    tag_4:\n      callvalue\n      dup1\n      iszero\n      tag_19\n      jumpi\n      0x00\n      dup1\n      revert\n    tag_19:\n      pop\n      tag_20\n      0x04\n      dup1\n      calldatasize\n      sub\n      dup2\n      add\n      swap1\n      tag_21\n      swap2\n      swap1\n      tag_10\n      jump\t// in\n    tag_21:\n      tag_22\n      jump\t// in\n    tag_20:\n      mload(0x40)\n      tag_23\n      swap2\n      swap1\n      tag_13\n      jump\t// in\n    tag_23:\n      mload(0x40)\n      dup1\n      swap2\n      sub\n      swap1\n      return\n        /* \"contracts/DAOAttack/EtherStore.sol\":88:128  uint256 public withdrawalLimit = 1 ether */\n    tag_5:\n      callvalue\n      dup1\n      iszero\n      tag_24\n      jumpi\n      0x00\n      dup1\n      revert\n    tag_24:\n      pop\n      tag_25\n      tag_26\n      jump\t// in\n    tag_25:\n      mload(0x40)\n      tag_27\n      swap2\n      swap1\n      tag_13\n      jump\t// in\n    tag_27:\n      mload(0x40)\n      dup1\n      swap2\n      sub\n      swap1\n      return\n        /* \"contracts/DAOAttack/EtherStore.sol\":241:330  function depositFunds() public payable {... */\n    tag_6:\n      tag_28\n      tag_29\n      jump\t// in\n    tag_28:\n      stop\n        /* \"contracts/DAOAttack/EtherStore.sol\":134:185  mapping(address => uint256) public lastWithdrawTime */\n    tag_11:\n      mstore(0x20, 0x01)\n      dup1\n      0x00\n      mstore\n      keccak256(0x00, 0x40)\n      0x00\n      swap2\n      pop\n      swap1\n      pop\n      sload\n      dup2\n      jump\t// out\n        /* \"contracts/DAOAttack/EtherStore.sol\":336:904  function withdrawFunds(uint256 _weiToWithdraw) public {... */\n    tag_18:\n        /* \"contracts/DAOAttack/EtherStore.sol\":432:446  _weiToWithdraw */\n      dup1\n        /* \"contracts/DAOAttack/EtherStore.sol\":408:416  balances */\n      0x02\n        /* \"contracts/DAOAttack/EtherStore.sol\":408:428  balances[msg.sender] */\n      0x00\n        /* \"contracts/DAOAttack/EtherStore.sol\":417:427  msg.sender */\n      caller\n        /* \"contracts/DAOAttack/EtherStore.sol\":408:428  balances[msg.sender] */\n      0xffffffffffffffffffffffffffffffffffffffff\n      and\n      0xffffffffffffffffffffffffffffffffffffffff\n      and\n      dup2\n      mstore\n      0x20\n      add\n      swap1\n      dup2\n      mstore\n      0x20\n      add\n      0x00\n      keccak256\n      sload\n        /* \"contracts/DAOAttack/EtherStore.sol\":408:446  balances[msg.sender] >= _weiToWithdraw */\n      lt\n      iszero\n        /* \"contracts/DAOAttack/EtherStore.sol\":400:470  require(balances[msg.sender] >= _weiToWithdraw, unicode\"余额不足\") */\n      tag_31\n      jumpi\n      mload(0x40)\n      0x08c379a000000000000000000000000000000000000000000000000000000000\n      dup2\n      mstore\n      0x04\n      add\n      tag_32\n      swap1\n      tag_33\n      jump\t// in\n    tag_32:\n      mload(0x40)\n      dup1\n      swap2\n      sub\n      swap1\n      revert\n    tag_31:\n        /* \"contracts/DAOAttack/EtherStore.sol\":506:521  withdrawalLimit */\n      sload(0x00)\n        /* \"contracts/DAOAttack/EtherStore.sol\":488:502  _weiToWithdraw */\n      dup2\n        /* \"contracts/DAOAttack/EtherStore.sol\":488:521  _weiToWithdraw <= withdrawalLimit */\n      gt\n      iszero\n        /* \"contracts/DAOAttack/EtherStore.sol\":480:551  require(_weiToWithdraw <= withdrawalLimit, unicode\"超出提现限额\") */\n      tag_34\n      jumpi\n      mload(0x40)\n      0x08c379a000000000000000000000000000000000000000000000000000000000\n      dup2\n      mstore\n      0x04\n      add\n      tag_35\n      swap1\n      tag_36\n      jump\t// in\n    tag_35:\n      mload(0x40)\n      dup1\n      swap2\n      sub\n      swap1\n      revert\n    tag_34:\n        /* \"contracts/DAOAttack/EtherStore.sol\":619:626  1 weeks */\n      0x093a80\n        /* \"contracts/DAOAttack/EtherStore.sol\":588:604  lastWithdrawTime */\n      0x01\n        /* \"contracts/DAOAttack/EtherStore.sol\":588:616  lastWithdrawTime[msg.sender] */\n      0x00\n        /* \"contracts/DAOAttack/EtherStore.sol\":605:615  msg.sender */\n      caller\n        /* \"contracts/DAOAttack/EtherStore.sol\":588:616  lastWithdrawTime[msg.sender] */\n      0xffffffffffffffffffffffffffffffffffffffff\n      and\n      0xffffffffffffffffffffffffffffffffffffffff\n      and\n      dup2\n      mstore\n      0x20\n      add\n      swap1\n      dup2\n      mstore\n      0x20\n      add\n      0x00\n      keccak256\n      sload\n        /* \"contracts/DAOAttack/EtherStore.sol\":588:626  lastWithdrawTime[msg.sender] + 1 weeks */\n      tag_37\n      swap2\n      swap1\n      tag_38\n      jump\t// in\n    tag_37:\n        /* \"contracts/DAOAttack/EtherStore.sol\":569:584  block.timestamp */\n      timestamp\n        /* \"contracts/DAOAttack/EtherStore.sol\":569:626  block.timestamp >= lastWithdrawTime[msg.sender] + 1 weeks */\n      lt\n      iszero\n        /* \"contracts/DAOAttack/EtherStore.sol\":561:662  require(block.timestamp >= lastWithdrawTime[msg.sender] + 1 weeks, unicode\"提现冷却时间未到\") */\n      tag_39\n      jumpi\n      mload(0x40)\n      0x08c379a000000000000000000000000000000000000000000000000000000000\n      dup2\n      mstore\n      0x04\n      add\n      tag_40\n      swap1\n      tag_41\n      jump\t// in\n    tag_40:\n      mload(0x40)\n      dup1\n      swap2\n      sub\n      swap1\n      revert\n    tag_39:\n        /* \"contracts/DAOAttack/EtherStore.sol\":676:688  bool success */\n      0x00\n        /* \"contracts/DAOAttack/EtherStore.sol\":694:704  msg.sender */\n      caller\n        /* \"contracts/DAOAttack/EtherStore.sol\":694:709  msg.sender.call */\n      0xffffffffffffffffffffffffffffffffffffffff\n      and\n        /* \"contracts/DAOAttack/EtherStore.sol\":717:731  _weiToWithdraw */\n      dup3\n        /* \"contracts/DAOAttack/EtherStore.sol\":694:736  msg.sender.call{value: _weiToWithdraw}(\"\") */\n      mload(0x40)\n      tag_42\n      swap1\n      tag_43\n      jump\t// in\n    tag_42:\n      0x00\n      mload(0x40)\n      dup1\n      dup4\n      sub\n      dup2\n      dup6\n      dup8\n      gas\n      call\n      swap3\n      pop\n      pop\n      pop\n      returndatasize\n      dup1\n      0x00\n      dup2\n      eq\n      tag_46\n      jumpi\n      mload(0x40)\n      swap2\n      pop\n      and(add(returndatasize, 0x3f), not(0x1f))\n      dup3\n      add\n      0x40\n      mstore\n      returndatasize\n      dup3\n      mstore\n      returndatasize\n      0x00\n      0x20\n      dup5\n      add\n      returndatacopy\n      jump(tag_45)\n    tag_46:\n      0x60\n      swap2\n      pop\n    tag_45:\n      pop\n        /* \"contracts/DAOAttack/EtherStore.sol\":675:736  (bool success, ) = msg.sender.call{value: _weiToWithdraw}(\"\") */\n      pop\n      swap1\n      pop\n        /* \"contracts/DAOAttack/EtherStore.sol\":778:792  _weiToWithdraw */\n      dup2\n        /* \"contracts/DAOAttack/EtherStore.sol\":754:762  balances */\n      0x02\n        /* \"contracts/DAOAttack/EtherStore.sol\":754:774  balances[msg.sender] */\n      0x00\n        /* \"contracts/DAOAttack/EtherStore.sol\":763:773  msg.sender */\n      caller\n        /* \"contracts/DAOAttack/EtherStore.sol\":754:774  balances[msg.sender] */\n      0xffffffffffffffffffffffffffffffffffffffff\n      and\n      0xffffffffffffffffffffffffffffffffffffffff\n      and\n      dup2\n      mstore\n      0x20\n      add\n      swap1\n      dup2\n      mstore\n      0x20\n      add\n      0x00\n      keccak256\n      0x00\n        /* \"contracts/DAOAttack/EtherStore.sol\":754:792  balances[msg.sender] -= _weiToWithdraw */\n      dup3\n      dup3\n      sload\n      tag_47\n      swap2\n      swap1\n      tag_48\n      jump\t// in\n    tag_47:\n      swap3\n      pop\n      pop\n      dup2\n      swap1\n      sstore\n      pop\n        /* \"contracts/DAOAttack/EtherStore.sol\":833:848  block.timestamp */\n      timestamp\n        /* \"contracts/DAOAttack/EtherStore.sol\":802:818  lastWithdrawTime */\n      0x01\n        /* \"contracts/DAOAttack/EtherStore.sol\":802:830  lastWithdrawTime[msg.sender] */\n      0x00\n        /* \"contracts/DAOAttack/EtherStore.sol\":819:829  msg.sender */\n      caller\n        /* \"contracts/DAOAttack/EtherStore.sol\":802:830  lastWithdrawTime[msg.sender] */\n      0xffffffffffffffffffffffffffffffffffffffff\n      and\n      0xffffffffffffffffffffffffffffffffffffffff\n      and\n      dup2\n      mstore\n      0x20\n      add\n      swap1\n      dup2\n      mstore\n      0x20\n      add\n      0x00\n      keccak256\n        /* \"contracts/DAOAttack/EtherStore.sol\":802:848  lastWithdrawTime[msg.sender] = block.timestamp */\n      dup2\n      swap1\n      sstore\n      pop\n        /* \"contracts/DAOAttack/EtherStore.sol\":866:873  success */\n      dup1\n        /* \"contracts/DAOAttack/EtherStore.sol\":858:897  require(success, unicode\"转账失败\") */\n      tag_49\n      jumpi\n      mload(0x40)\n      0x08c379a000000000000000000000000000000000000000000000000000000000\n      dup2\n      mstore\n      0x04\n      add\n      tag_50\n      swap1\n      tag_51\n      jump\t// in\n    tag_50:\n      mload(0x40)\n      dup1\n      swap2\n      sub\n      swap1\n      revert\n    tag_49:\n        /* \"contracts/DAOAttack/EtherStore.sol\":390:904  {... */\n      pop\n        /* \"contracts/DAOAttack/EtherStore.sol\":336:904  function withdrawFunds(uint256 _weiToWithdraw) public {... */\n      pop\n      jump\t// out\n        /* \"contracts/DAOAttack/EtherStore.sol\":191:234  mapping(address => uint256) public balances */\n    tag_22:\n      mstore(0x20, 0x02)\n      dup1\n      0x00\n      mstore\n      keccak256(0x00, 0x40)\n      0x00\n      swap2\n      pop\n      swap1\n      pop\n      sload\n      dup2\n      jump\t// out\n        /* \"contracts/DAOAttack/EtherStore.sol\":88:128  uint256 public withdrawalLimit = 1 ether */\n    tag_26:\n      sload(0x00)\n      dup2\n      jump\t// out\n        /* \"contracts/DAOAttack/EtherStore.sol\":241:330  function depositFunds() public payable {... */\n    tag_29:\n        /* \"contracts/DAOAttack/EtherStore.sol\":314:323  msg.value */\n      callvalue\n        /* \"contracts/DAOAttack/EtherStore.sol\":290:298  balances */\n      0x02\n        /* \"contracts/DAOAttack/EtherStore.sol\":290:310  balances[msg.sender] */\n      0x00\n        /* \"contracts/DAOAttack/EtherStore.sol\":299:309  msg.sender */\n      caller\n        /* \"contracts/DAOAttack/EtherStore.sol\":290:310  balances[msg.sender] */\n      0xffffffffffffffffffffffffffffffffffffffff\n      and\n      0xffffffffffffffffffffffffffffffffffffffff\n      and\n      dup2\n      mstore\n      0x20\n      add\n      swap1\n      dup2\n      mstore\n      0x20\n      add\n      0x00\n      keccak256\n      0x00\n        /* \"contracts/DAOAttack/EtherStore.sol\":290:323  balances[msg.sender] += msg.value */\n      dup3\n      dup3\n      sload\n      tag_53\n      swap2\n      swap1\n      tag_38\n      jump\t// in\n    tag_53:\n      swap3\n      pop\n      pop\n      dup2\n      swap1\n      sstore\n      pop\n        /* \"contracts/DAOAttack/EtherStore.sol\":241:330  function depositFunds() public payable {... */\n      jump\t// out\n        /* \"#utility.yul\":88:205   */\n    tag_55:\n        /* \"#utility.yul\":197:198   */\n      0x00\n        /* \"#utility.yul\":194:195   */\n      dup1\n        /* \"#utility.yul\":187:199   */\n      revert\n        /* \"#utility.yul\":334:460   */\n    tag_57:\n        /* \"#utility.yul\":371:378   */\n      0x00\n        /* \"#utility.yul\":411:453   */\n      0xffffffffffffffffffffffffffffffffffffffff\n        /* \"#utility.yul\":404:409   */\n      dup3\n        /* \"#utility.yul\":400:454   */\n      and\n        /* \"#utility.yul\":389:454   */\n      swap1\n      pop\n        /* \"#utility.yul\":334:460   */\n      swap2\n      swap1\n      pop\n      jump\t// out\n        /* \"#utility.yul\":466:562   */\n    tag_58:\n        /* \"#utility.yul\":503:510   */\n      0x00\n        /* \"#utility.yul\":532:556   */\n      tag_84\n        /* \"#utility.yul\":550:555   */\n      dup3\n        /* \"#utility.yul\":532:556   */\n      tag_57\n      jump\t// in\n    tag_84:\n        /* \"#utility.yul\":521:556   */\n      swap1\n      pop\n        /* \"#utility.yul\":466:562   */\n      swap2\n      swap1\n      pop\n      jump\t// out\n        /* \"#utility.yul\":568:690   */\n    tag_59:\n        /* \"#utility.yul\":641:665   */\n      tag_86\n        /* \"#utility.yul\":659:664   */\n      dup2\n        /* \"#utility.yul\":641:665   */\n      tag_58\n      jump\t// in\n    tag_86:\n        /* \"#utility.yul\":634:639   */\n      dup2\n        /* \"#utility.yul\":631:666   */\n      eq\n        /* \"#utility.yul\":621:684   */\n      tag_87\n      jumpi\n        /* \"#utility.yul\":680:681   */\n      0x00\n        /* \"#utility.yul\":677:678   */\n      dup1\n        /* \"#utility.yul\":670:682   */\n      revert\n        /* \"#utility.yul\":621:684   */\n    tag_87:\n        /* \"#utility.yul\":568:690   */\n      pop\n      jump\t// out\n        /* \"#utility.yul\":696:835   */\n    tag_60:\n        /* \"#utility.yul\":742:747   */\n      0x00\n        /* \"#utility.yul\":780:786   */\n      dup2\n        /* \"#utility.yul\":767:787   */\n      calldataload\n        /* \"#utility.yul\":758:787   */\n      swap1\n      pop\n        /* \"#utility.yul\":796:829   */\n      tag_89\n        /* \"#utility.yul\":823:828   */\n      dup2\n        /* \"#utility.yul\":796:829   */\n      tag_59\n      jump\t// in\n    tag_89:\n        /* \"#utility.yul\":696:835   */\n      swap3\n      swap2\n      pop\n      pop\n      jump\t// out\n        /* \"#utility.yul\":841:1170   */\n    tag_10:\n        /* \"#utility.yul\":900:906   */\n      0x00\n        /* \"#utility.yul\":949:951   */\n      0x20\n        /* \"#utility.yul\":937:946   */\n      dup3\n        /* \"#utility.yul\":928:935   */\n      dup5\n        /* \"#utility.yul\":924:947   */\n      sub\n        /* \"#utility.yul\":920:952   */\n      slt\n        /* \"#utility.yul\":917:1036   */\n      iszero\n      tag_91\n      jumpi\n        /* \"#utility.yul\":955:1034   */\n      tag_92\n      tag_55\n      jump\t// in\n    tag_92:\n        /* \"#utility.yul\":917:1036   */\n    tag_91:\n        /* \"#utility.yul\":1075:1076   */\n      0x00\n        /* \"#utility.yul\":1100:1153   */\n      tag_93\n        /* \"#utility.yul\":1145:1152   */\n      dup5\n        /* \"#utility.yul\":1136:1142   */\n      dup3\n        /* \"#utility.yul\":1125:1134   */\n      dup6\n        /* \"#utility.yul\":1121:1143   */\n      add\n        /* \"#utility.yul\":1100:1153   */\n      tag_60\n      jump\t// in\n    tag_93:\n        /* \"#utility.yul\":1090:1153   */\n      swap2\n      pop\n        /* \"#utility.yul\":1046:1163   */\n      pop\n        /* \"#utility.yul\":841:1170   */\n      swap3\n      swap2\n      pop\n      pop\n      jump\t// out\n        /* \"#utility.yul\":1176:1253   */\n    tag_61:\n        /* \"#utility.yul\":1213:1220   */\n      0x00\n        /* \"#utility.yul\":1242:1247   */\n      dup2\n        /* \"#utility.yul\":1231:1247   */\n      swap1\n      pop\n        /* \"#utility.yul\":1176:1253   */\n      swap2\n      swap1\n      pop\n      jump\t// out\n        /* \"#utility.yul\":1259:1377   */\n    tag_62:\n        /* \"#utility.yul\":1346:1370   */\n      tag_96\n        /* \"#utility.yul\":1364:1369   */\n      dup2\n        /* \"#utility.yul\":1346:1370   */\n      tag_61\n      jump\t// in\n    tag_96:\n        /* \"#utility.yul\":1341:1344   */\n      dup3\n        /* \"#utility.yul\":1334:1371   */\n      mstore\n        /* \"#utility.yul\":1259:1377   */\n      pop\n      pop\n      jump\t// out\n        /* \"#utility.yul\":1383:1605   */\n    tag_13:\n        /* \"#utility.yul\":1476:1480   */\n      0x00\n        /* \"#utility.yul\":1514:1516   */\n      0x20\n        /* \"#utility.yul\":1503:1512   */\n      dup3\n        /* \"#utility.yul\":1499:1517   */\n      add\n        /* \"#utility.yul\":1491:1517   */\n      swap1\n      pop\n        /* \"#utility.yul\":1527:1598   */\n      tag_98\n        /* \"#utility.yul\":1595:1596   */\n      0x00\n        /* \"#utility.yul\":1584:1593   */\n      dup4\n        /* \"#utility.yul\":1580:1597   */\n      add\n        /* \"#utility.yul\":1571:1577   */\n      dup5\n        /* \"#utility.yul\":1527:1598   */\n      tag_62\n      jump\t// in\n    tag_98:\n        /* \"#utility.yul\":1383:1605   */\n      swap3\n      swap2\n      pop\n      pop\n      jump\t// out\n        /* \"#utility.yul\":1611:1733   */\n    tag_63:\n        /* \"#utility.yul\":1684:1708   */\n      tag_100\n        /* \"#utility.yul\":1702:1707   */\n      dup2\n        /* \"#utility.yul\":1684:1708   */\n      tag_61\n      jump\t// in\n    tag_100:\n        /* \"#utility.yul\":1677:1682   */\n      dup2\n        /* \"#utility.yul\":1674:1709   */\n      eq\n        /* \"#utility.yul\":1664:1727   */\n      tag_101\n      jumpi\n        /* \"#utility.yul\":1723:1724   */\n      0x00\n        /* \"#utility.yul\":1720:1721   */\n      dup1\n        /* \"#utility.yul\":1713:1725   */\n      revert\n        /* \"#utility.yul\":1664:1727   */\n    tag_101:\n        /* \"#utility.yul\":1611:1733   */\n      pop\n      jump\t// out\n        /* \"#utility.yul\":1739:1878   */\n    tag_64:\n        /* \"#utility.yul\":1785:1790   */\n      0x00\n        /* \"#utility.yul\":1823:1829   */\n      dup2\n        /* \"#utility.yul\":1810:1830   */\n      calldataload\n        /* \"#utility.yul\":1801:1830   */\n      swap1\n      pop\n        /* \"#utility.yul\":1839:1872   */\n      tag_103\n        /* \"#utility.yul\":1866:1871   */\n      dup2\n        /* \"#utility.yul\":1839:1872   */\n      tag_63\n      jump\t// in\n    tag_103:\n        /* \"#utility.yul\":1739:1878   */\n      swap3\n      swap2\n      pop\n      pop\n      jump\t// out\n        /* \"#utility.yul\":1884:2213   */\n    tag_17:\n        /* \"#utility.yul\":1943:1949   */\n      0x00\n        /* \"#utility.yul\":1992:1994   */\n      0x20\n        /* \"#utility.yul\":1980:1989   */\n      dup3\n        /* \"#utility.yul\":1971:1978   */\n      dup5\n        /* \"#utility.yul\":1967:1990   */\n      sub\n        /* \"#utility.yul\":1963:1995   */\n      slt\n        /* \"#utility.yul\":1960:2079   */\n      iszero\n      tag_105\n      jumpi\n        /* \"#utility.yul\":1998:2077   */\n      tag_106\n      tag_55\n      jump\t// in\n    tag_106:\n        /* \"#utility.yul\":1960:2079   */\n    tag_105:\n        /* \"#utility.yul\":2118:2119   */\n      0x00\n        /* \"#utility.yul\":2143:2196   */\n      tag_107\n        /* \"#utility.yul\":2188:2195   */\n      dup5\n        /* \"#utility.yul\":2179:2185   */\n      dup3\n        /* \"#utility.yul\":2168:2177   */\n      dup6\n        /* \"#utility.yul\":2164:2186   */\n      add\n        /* \"#utility.yul\":2143:2196   */\n      tag_64\n      jump\t// in\n    tag_107:\n        /* \"#utility.yul\":2133:2196   */\n      swap2\n      pop\n        /* \"#utility.yul\":2089:2206   */\n      pop\n        /* \"#utility.yul\":1884:2213   */\n      swap3\n      swap2\n      pop\n      pop\n      jump\t// out\n        /* \"#utility.yul\":2219:2388   */\n    tag_65:\n        /* \"#utility.yul\":2303:2314   */\n      0x00\n        /* \"#utility.yul\":2337:2343   */\n      dup3\n        /* \"#utility.yul\":2332:2335   */\n      dup3\n        /* \"#utility.yul\":2325:2344   */\n      mstore\n        /* \"#utility.yul\":2377:2381   */\n      0x20\n        /* \"#utility.yul\":2372:2375   */\n      dup3\n        /* \"#utility.yul\":2368:2382   */\n      add\n        /* \"#utility.yul\":2353:2382   */\n      swap1\n      pop\n        /* \"#utility.yul\":2219:2388   */\n      swap3\n      swap2\n      pop\n      pop\n      jump\t// out\n        /* \"#utility.yul\":2394:2608   */\n    tag_66:\n        /* \"#utility.yul\":2534:2600   */\n      0xe4bd99e9a29de4b88de8b6b30000000000000000000000000000000000000000\n        /* \"#utility.yul\":2530:2531   */\n      0x00\n        /* \"#utility.yul\":2522:2528   */\n      dup3\n        /* \"#utility.yul\":2518:2532   */\n      add\n        /* \"#utility.yul\":2511:2601   */\n      mstore\n        /* \"#utility.yul\":2394:2608   */\n      pop\n      jump\t// out\n        /* \"#utility.yul\":2614:2980   */\n    tag_67:\n        /* \"#utility.yul\":2756:2759   */\n      0x00\n        /* \"#utility.yul\":2777:2844   */\n      tag_111\n        /* \"#utility.yul\":2841:2843   */\n      0x0c\n        /* \"#utility.yul\":2836:2839   */\n      dup4\n        /* \"#utility.yul\":2777:2844   */\n      tag_65\n      jump\t// in\n    tag_111:\n        /* \"#utility.yul\":2770:2844   */\n      swap2\n      pop\n        /* \"#utility.yul\":2853:2946   */\n      tag_112\n        /* \"#utility.yul\":2942:2945   */\n      dup3\n        /* \"#utility.yul\":2853:2946   */\n      tag_66\n      jump\t// in\n    tag_112:\n        /* \"#utility.yul\":2971:2973   */\n      0x20\n        /* \"#utility.yul\":2966:2969   */\n      dup3\n        /* \"#utility.yul\":2962:2974   */\n      add\n        /* \"#utility.yul\":2955:2974   */\n      swap1\n      pop\n        /* \"#utility.yul\":2614:2980   */\n      swap2\n      swap1\n      pop\n      jump\t// out\n        /* \"#utility.yul\":2986:3405   */\n    tag_33:\n        /* \"#utility.yul\":3152:3156   */\n      0x00\n        /* \"#utility.yul\":3190:3192   */\n      0x20\n        /* \"#utility.yul\":3179:3188   */\n      dup3\n        /* \"#utility.yul\":3175:3193   */\n      add\n        /* \"#utility.yul\":3167:3193   */\n      swap1\n      pop\n        /* \"#utility.yul\":3239:3248   */\n      dup2\n        /* \"#utility.yul\":3233:3237   */\n      dup2\n        /* \"#utility.yul\":3229:3249   */\n      sub\n        /* \"#utility.yul\":3225:3226   */\n      0x00\n        /* \"#utility.yul\":3214:3223   */\n      dup4\n        /* \"#utility.yul\":3210:3227   */\n      add\n        /* \"#utility.yul\":3203:3250   */\n      mstore\n        /* \"#utility.yul\":3267:3398   */\n      tag_114\n        /* \"#utility.yul\":3393:3397   */\n      dup2\n        /* \"#utility.yul\":3267:3398   */\n      tag_67\n      jump\t// in\n    tag_114:\n        /* \"#utility.yul\":3259:3398   */\n      swap1\n      pop\n        /* \"#utility.yul\":2986:3405   */\n      swap2\n      swap1\n      pop\n      jump\t// out\n        /* \"#utility.yul\":3411:3625   */\n    tag_68:\n        /* \"#utility.yul\":3551:3617   */\n      0xe8b685e587bae68f90e78eb0e99990e9a29d0000000000000000000000000000\n        /* \"#utility.yul\":3547:3548   */\n      0x00\n        /* \"#utility.yul\":3539:3545   */\n      dup3\n        /* \"#utility.yul\":3535:3549   */\n      add\n        /* \"#utility.yul\":3528:3618   */\n      mstore\n        /* \"#utility.yul\":3411:3625   */\n      pop\n      jump\t// out\n        /* \"#utility.yul\":3631:3997   */\n    tag_69:\n        /* \"#utility.yul\":3773:3776   */\n      0x00\n        /* \"#utility.yul\":3794:3861   */\n      tag_117\n        /* \"#utility.yul\":3858:3860   */\n      0x12\n        /* \"#utility.yul\":3853:3856   */\n      dup4\n        /* \"#utility.yul\":3794:3861   */\n      tag_65\n      jump\t// in\n    tag_117:\n        /* \"#utility.yul\":3787:3861   */\n      swap2\n      pop\n        /* \"#utility.yul\":3870:3963   */\n      tag_118\n        /* \"#utility.yul\":3959:3962   */\n      dup3\n        /* \"#utility.yul\":3870:3963   */\n      tag_68\n      jump\t// in\n    tag_118:\n        /* \"#utility.yul\":3988:3990   */\n      0x20\n        /* \"#utility.yul\":3983:3986   */\n      dup3\n        /* \"#utility.yul\":3979:3991   */\n      add\n        /* \"#utility.yul\":3972:3991   */\n      swap1\n      pop\n        /* \"#utility.yul\":3631:3997   */\n      swap2\n      swap1\n      pop\n      jump\t// out\n        /* \"#utility.yul\":4003:4422   */\n    tag_36:\n        /* \"#utility.yul\":4169:4173   */\n      0x00\n        /* \"#utility.yul\":4207:4209   */\n      0x20\n        /* \"#utility.yul\":4196:4205   */\n      dup3\n        /* \"#utility.yul\":4192:4210   */\n      add\n        /* \"#utility.yul\":4184:4210   */\n      swap1\n      pop\n        /* \"#utility.yul\":4256:4265   */\n      dup2\n        /* \"#utility.yul\":4250:4254   */\n      dup2\n        /* \"#utility.yul\":4246:4266   */\n      sub\n        /* \"#utility.yul\":4242:4243   */\n      0x00\n        /* \"#utility.yul\":4231:4240   */\n      dup4\n        /* \"#utility.yul\":4227:4244   */\n      add\n        /* \"#utility.yul\":4220:4267   */\n      mstore\n        /* \"#utility.yul\":4284:4415   */\n      tag_120\n        /* \"#utility.yul\":4410:4414   */\n      dup2\n        /* \"#utility.yul\":4284:4415   */\n      tag_69\n      jump\t// in\n    tag_120:\n        /* \"#utility.yul\":4276:4415   */\n      swap1\n      pop\n        /* \"#utility.yul\":4003:4422   */\n      swap2\n      swap1\n      pop\n      jump\t// out\n        /* \"#utility.yul\":4428:4608   */\n    tag_70:\n        /* \"#utility.yul\":4476:4553   */\n      0x4e487b7100000000000000000000000000000000000000000000000000000000\n        /* \"#utility.yul\":4473:4474   */\n      0x00\n        /* \"#utility.yul\":4466:4554   */\n      mstore\n        /* \"#utility.yul\":4573:4577   */\n      0x11\n        /* \"#utility.yul\":4570:4571   */\n      0x04\n        /* \"#utility.yul\":4563:4578   */\n      mstore\n        /* \"#utility.yul\":4597:4601   */\n      0x24\n        /* \"#utility.yul\":4594:4595   */\n      0x00\n        /* \"#utility.yul\":4587:4602   */\n      revert\n        /* \"#utility.yul\":4614:4805   */\n    tag_38:\n        /* \"#utility.yul\":4654:4657   */\n      0x00\n        /* \"#utility.yul\":4673:4693   */\n      tag_123\n        /* \"#utility.yul\":4691:4692   */\n      dup3\n        /* \"#utility.yul\":4673:4693   */\n      tag_61\n      jump\t// in\n    tag_123:\n        /* \"#utility.yul\":4668:4693   */\n      swap2\n      pop\n        /* \"#utility.yul\":4707:4727   */\n      tag_124\n        /* \"#utility.yul\":4725:4726   */\n      dup4\n        /* \"#utility.yul\":4707:4727   */\n      tag_61\n      jump\t// in\n    tag_124:\n        /* \"#utility.yul\":4702:4727   */\n      swap3\n      pop\n        /* \"#utility.yul\":4750:4751   */\n      dup3\n        /* \"#utility.yul\":4747:4748   */\n      dup3\n        /* \"#utility.yul\":4743:4752   */\n      add\n        /* \"#utility.yul\":4736:4752   */\n      swap1\n      pop\n        /* \"#utility.yul\":4771:4774   */\n      dup1\n        /* \"#utility.yul\":4768:4769   */\n      dup3\n        /* \"#utility.yul\":4765:4775   */\n      gt\n        /* \"#utility.yul\":4762:4798   */\n      iszero\n      tag_125\n      jumpi\n        /* \"#utility.yul\":4778:4796   */\n      tag_126\n      tag_70\n      jump\t// in\n    tag_126:\n        /* \"#utility.yul\":4762:4798   */\n    tag_125:\n        /* \"#utility.yul\":4614:4805   */\n      swap3\n      swap2\n      pop\n      pop\n      jump\t// out\n        /* \"#utility.yul\":4811:5025   */\n    tag_71:\n        /* \"#utility.yul\":4951:5017   */\n      0xe68f90e78eb0e586b7e58db4e697b6e997b4e69caae588b00000000000000000\n        /* \"#utility.yul\":4947:4948   */\n      0x00\n        /* \"#utility.yul\":4939:4945   */\n      dup3\n        /* \"#utility.yul\":4935:4949   */\n      add\n        /* \"#utility.yul\":4928:5018   */\n      mstore\n        /* \"#utility.yul\":4811:5025   */\n      pop\n      jump\t// out\n        /* \"#utility.yul\":5031:5397   */\n    tag_72:\n        /* \"#utility.yul\":5173:5176   */\n      0x00\n        /* \"#utility.yul\":5194:5261   */\n      tag_129\n        /* \"#utility.yul\":5258:5260   */\n      0x18\n        /* \"#utility.yul\":5253:5256   */\n      dup4\n        /* \"#utility.yul\":5194:5261   */\n      tag_65\n      jump\t// in\n    tag_129:\n        /* \"#utility.yul\":5187:5261   */\n      swap2\n      pop\n        /* \"#utility.yul\":5270:5363   */\n      tag_130\n        /* \"#utility.yul\":5359:5362   */\n      dup3\n        /* \"#utility.yul\":5270:5363   */\n      tag_71\n      jump\t// in\n    tag_130:\n        /* \"#utility.yul\":5388:5390   */\n      0x20\n        /* \"#utility.yul\":5383:5386   */\n      dup3\n        /* \"#utility.yul\":5379:5391   */\n      add\n        /* \"#utility.yul\":5372:5391   */\n      swap1\n      pop\n        /* \"#utility.yul\":5031:5397   */\n      swap2\n      swap1\n      pop\n      jump\t// out\n        /* \"#utility.yul\":5403:5822   */\n    tag_41:\n        /* \"#utility.yul\":5569:5573   */\n      0x00\n        /* \"#utility.yul\":5607:5609   */\n      0x20\n        /* \"#utility.yul\":5596:5605   */\n      dup3\n        /* \"#utility.yul\":5592:5610   */\n      add\n        /* \"#utility.yul\":5584:5610   */\n      swap1\n      pop\n        /* \"#utility.yul\":5656:5665   */\n      dup2\n        /* \"#utility.yul\":5650:5654   */\n      dup2\n        /* \"#utility.yul\":5646:5666   */\n      sub\n        /* \"#utility.yul\":5642:5643   */\n      0x00\n        /* \"#utility.yul\":5631:5640   */\n      dup4\n        /* \"#utility.yul\":5627:5644   */\n      add\n        /* \"#utility.yul\":5620:5667   */\n      mstore\n        /* \"#utility.yul\":5684:5815   */\n      tag_132\n        /* \"#utility.yul\":5810:5814   */\n      dup2\n        /* \"#utility.yul\":5684:5815   */\n      tag_72\n      jump\t// in\n    tag_132:\n        /* \"#utility.yul\":5676:5815   */\n      swap1\n      pop\n        /* \"#utility.yul\":5403:5822   */\n      swap2\n      swap1\n      pop\n      jump\t// out\n        /* \"#utility.yul\":5828:5975   */\n    tag_73:\n        /* \"#utility.yul\":5929:5940   */\n      0x00\n        /* \"#utility.yul\":5966:5969   */\n      dup2\n        /* \"#utility.yul\":5951:5969   */\n      swap1\n      pop\n        /* \"#utility.yul\":5828:5975   */\n      swap3\n      swap2\n      pop\n      pop\n      jump\t// out\n        /* \"#utility.yul\":5981:6095   */\n    tag_74:\n      pop\n      jump\t// out\n        /* \"#utility.yul\":6101:6499   */\n    tag_75:\n        /* \"#utility.yul\":6260:6263   */\n      0x00\n        /* \"#utility.yul\":6281:6364   */\n      tag_136\n        /* \"#utility.yul\":6362:6363   */\n      0x00\n        /* \"#utility.yul\":6357:6360   */\n      dup4\n        /* \"#utility.yul\":6281:6364   */\n      tag_73\n      jump\t// in\n    tag_136:\n        /* \"#utility.yul\":6274:6364   */\n      swap2\n      pop\n        /* \"#utility.yul\":6373:6466   */\n      tag_137\n        /* \"#utility.yul\":6462:6465   */\n      dup3\n        /* \"#utility.yul\":6373:6466   */\n      tag_74\n      jump\t// in\n    tag_137:\n        /* \"#utility.yul\":6491:6492   */\n      0x00\n        /* \"#utility.yul\":6486:6489   */\n      dup3\n        /* \"#utility.yul\":6482:6493   */\n      add\n        /* \"#utility.yul\":6475:6493   */\n      swap1\n      pop\n        /* \"#utility.yul\":6101:6499   */\n      swap2\n      swap1\n      pop\n      jump\t// out\n        /* \"#utility.yul\":6505:6884   */\n    tag_43:\n        /* \"#utility.yul\":6689:6692   */\n      0x00\n        /* \"#utility.yul\":6711:6858   */\n      tag_139\n        /* \"#utility.yul\":6854:6857   */\n      dup3\n        /* \"#utility.yul\":6711:6858   */\n      tag_75\n      jump\t// in\n    tag_139:\n        /* \"#utility.yul\":6704:6858   */\n      swap2\n      pop\n        /* \"#utility.yul\":6875:6878   */\n      dup2\n        /* \"#utility.yul\":6868:6878   */\n      swap1\n      pop\n        /* \"#utility.yul\":6505:6884   */\n      swap2\n      swap1\n      pop\n      jump\t// out\n        /* \"#utility.yul\":6890:7084   */\n    tag_48:\n        /* \"#utility.yul\":6930:6934   */\n      0x00\n        /* \"#utility.yul\":6950:6970   */\n      tag_141\n        /* \"#utility.yul\":6968:6969   */\n      dup3\n        /* \"#utility.yul\":6950:6970   */\n      tag_61\n      jump\t// in\n    tag_141:\n        /* \"#utility.yul\":6945:6970   */\n      swap2\n      pop\n        /* \"#utility.yul\":6984:7004   */\n      tag_142\n        /* \"#utility.yul\":7002:7003   */\n      dup4\n        /* \"#utility.yul\":6984:7004   */\n      tag_61\n      jump\t// in\n    tag_142:\n        /* \"#utility.yul\":6979:7004   */\n      swap3\n      pop\n        /* \"#utility.yul\":7028:7029   */\n      dup3\n        /* \"#utility.yul\":7025:7026   */\n      dup3\n        /* \"#utility.yul\":7021:7030   */\n      sub\n        /* \"#utility.yul\":7013:7030   */\n      swap1\n      pop\n        /* \"#utility.yul\":7052:7053   */\n      dup2\n        /* \"#utility.yul\":7046:7050   */\n      dup2\n        /* \"#utility.yul\":7043:7054   */\n      gt\n        /* \"#utility.yul\":7040:7077   */\n      iszero\n      tag_143\n      jumpi\n        /* \"#utility.yul\":7057:7075   */\n      tag_144\n      tag_70\n      jump\t// in\n    tag_144:\n        /* \"#utility.yul\":7040:7077   */\n    tag_143:\n        /* \"#utility.yul\":6890:7084   */\n      swap3\n      swap2\n      pop\n      pop\n      jump\t// out\n        /* \"#utility.yul\":7090:7304   */\n    tag_76:\n        /* \"#utility.yul\":7230:7296   */\n      0xe8bdace8b4a6e5a4b1e8b4a50000000000000000000000000000000000000000\n        /* \"#utility.yul\":7226:7227   */\n      0x00\n        /* \"#utility.yul\":7218:7224   */\n      dup3\n        /* \"#utility.yul\":7214:7228   */\n      add\n        /* \"#utility.yul\":7207:7297   */\n      mstore\n        /* \"#utility.yul\":7090:7304   */\n      pop\n      jump\t// out\n        /* \"#utility.yul\":7310:7676   */\n    tag_77:\n        /* \"#utility.yul\":7452:7455   */\n      0x00\n        /* \"#utility.yul\":7473:7540   */\n      tag_147\n        /* \"#utility.yul\":7537:7539   */\n      0x0c\n        /* \"#utility.yul\":7532:7535   */\n      dup4\n        /* \"#utility.yul\":7473:7540   */\n      tag_65\n      jump\t// in\n    tag_147:\n        /* \"#utility.yul\":7466:7540   */\n      swap2\n      pop\n        /* \"#utility.yul\":7549:7642   */\n      tag_148\n        /* \"#utility.yul\":7638:7641   */\n      dup3\n        /* \"#utility.yul\":7549:7642   */\n      tag_76\n      jump\t// in\n    tag_148:\n        /* \"#utility.yul\":7667:7669   */\n      0x20\n        /* \"#utility.yul\":7662:7665   */\n      dup3\n        /* \"#utility.yul\":7658:7670   */\n      add\n        /* \"#utility.yul\":7651:7670   */\n      swap1\n      pop\n        /* \"#utility.yul\":7310:7676   */\n      swap2\n      swap1\n      pop\n      jump\t// out\n        /* \"#utility.yul\":7682:8101   */\n    tag_51:\n        /* \"#utility.yul\":7848:7852   */\n      0x00\n        /* \"#utility.yul\":7886:7888   */\n      0x20\n        /* \"#utility.yul\":7875:7884   */\n      dup3\n        /* \"#utility.yul\":7871:7889   */\n      add\n        /* \"#utility.yul\":7863:7889   */\n      swap1\n      pop\n        /* \"#utility.yul\":7935:7944   */\n      dup2\n        /* \"#utility.yul\":7929:7933   */\n      dup2\n        /* \"#utility.yul\":7925:7945   */\n      sub\n        /* \"#utility.yul\":7921:7922   */\n      0x00\n        /* \"#utility.yul\":7910:7919   */\n      dup4\n        /* \"#utility.yul\":7906:7923   */\n      add\n        /* \"#utility.yul\":7899:7946   */\n      mstore\n        /* \"#utility.yul\":7963:8094   */\n      tag_150\n        /* \"#utility.yul\":8089:8093   */\n      dup2\n        /* \"#utility.yul\":7963:8094   */\n      tag_77\n      jump\t// in\n    tag_150:\n        /* \"#utility.yul\":7955:8094   */\n      swap1\n      pop\n        /* \"#utility.yul\":7682:8101   */\n      swap2\n      swap1\n      pop\n      jump\t// out\n\n    auxdata: 0xa2646970667358221220a5a30674ef8ba512214921557b76b25d51e9e6d91de9025b54159eede62b6aa664736f6c634300081a0033\n}\n",
				"bytecode": {
					"linkReferences": {},
					"object": "6080604052670de0b6b3a76400005f553480156019575f80fd5b50610801806100275f395ff3fe608060405260043610610049575f3560e01c80631031ec311461004d578063155dd5ee1461008957806327e235e3146100b15780637ddfe78d146100ed578063e2c41dbc14610117575b5f80fd5b348015610058575f80fd5b50610073600480360381019061006e9190610496565b610121565b60405161008091906104d9565b60405180910390f35b348015610094575f80fd5b506100af60048036038101906100aa919061051c565b610136565b005b3480156100bc575f80fd5b506100d760048036038101906100d29190610496565b6103c9565b6040516100e491906104d9565b60405180910390f35b3480156100f8575f80fd5b506101016103de565b60405161010e91906104d9565b60405180910390f35b61011f6103e3565b005b6001602052805f5260405f205f915090505481565b8060025f3373ffffffffffffffffffffffffffffffffffffffff1673ffffffffffffffffffffffffffffffffffffffff1681526020019081526020015f205410156101b6576040517f08c379a00000000000000000000000000000000000000000000000000000000081526004016101ad906105a1565b60405180910390fd5b5f548111156101fa576040517f08c379a00000000000000000000000000000000000000000000000000000000081526004016101f190610609565b60405180910390fd5b62093a8060015f3373ffffffffffffffffffffffffffffffffffffffff1673ffffffffffffffffffffffffffffffffffffffff1681526020019081526020015f20546102469190610654565b421015610288576040517f08c379a000000000000000000000000000000000000000000000000000000000815260040161027f906106d1565b60405180910390fd5b5f3373ffffffffffffffffffffffffffffffffffffffff16826040516102ad9061071c565b5f6040518083038185875af1925050503d805f81146102e7576040519150601f19603f3d011682016040523d82523d5f602084013e6102ec565b606091505b505090508160025f3373ffffffffffffffffffffffffffffffffffffffff1673ffffffffffffffffffffffffffffffffffffffff1681526020019081526020015f205f82825461033c9190610730565b925050819055504260015f3373ffffffffffffffffffffffffffffffffffffffff1673ffffffffffffffffffffffffffffffffffffffff1681526020019081526020015f2081905550806103c5576040517f08c379a00000000000000000000000000000000000000000000000000000000081526004016103bc906107ad565b60405180910390fd5b5050565b6002602052805f5260405f205f915090505481565b5f5481565b3460025f3373ffffffffffffffffffffffffffffffffffffffff1673ffffffffffffffffffffffffffffffffffffffff1681526020019081526020015f205f82825461042f9190610654565b92505081905550565b5f80fd5b5f73ffffffffffffffffffffffffffffffffffffffff82169050919050565b5f6104658261043c565b9050919050565b6104758161045b565b811461047f575f80fd5b50565b5f813590506104908161046c565b92915050565b5f602082840312156104ab576104aa610438565b5b5f6104b884828501610482565b91505092915050565b5f819050919050565b6104d3816104c1565b82525050565b5f6020820190506104ec5f8301846104ca565b92915050565b6104fb816104c1565b8114610505575f80fd5b50565b5f81359050610516816104f2565b92915050565b5f6020828403121561053157610530610438565b5b5f61053e84828501610508565b91505092915050565b5f82825260208201905092915050565b7fe4bd99e9a29de4b88de8b6b300000000000000000000000000000000000000005f82015250565b5f61058b600c83610547565b915061059682610557565b602082019050919050565b5f6020820190508181035f8301526105b88161057f565b9050919050565b7fe8b685e587bae68f90e78eb0e99990e9a29d00000000000000000000000000005f82015250565b5f6105f3601283610547565b91506105fe826105bf565b602082019050919050565b5f6020820190508181035f830152610620816105e7565b9050919050565b7f4e487b71000000000000000000000000000000000000000000000000000000005f52601160045260245ffd5b5f61065e826104c1565b9150610669836104c1565b925082820190508082111561068157610680610627565b5b92915050565b7fe68f90e78eb0e586b7e58db4e697b6e997b4e69caae588b000000000000000005f82015250565b5f6106bb601883610547565b91506106c682610687565b602082019050919050565b5f6020820190508181035f8301526106e8816106af565b9050919050565b5f81905092915050565b50565b5f6107075f836106ef565b9150610712826106f9565b5f82019050919050565b5f610726826106fc565b9150819050919050565b5f61073a826104c1565b9150610745836104c1565b925082820390508181111561075d5761075c610627565b5b92915050565b7fe8bdace8b4a6e5a4b1e8b4a500000000000000000000000000000000000000005f82015250565b5f610797600c83610547565b91506107a282610763565b602082019050919050565b5f6020820190508181035f8301526107c48161078b565b905091905056fea2646970667358221220a5a30674ef8ba512214921557b76b25d51e9e6d91de9025b54159eede62b6aa664736f6c634300081a0033",
					"opcodes": "PUSH1 0x80 PUSH1 0x40 MSTORE PUSH8 0xDE0B6B3A7640000 PUSH0 SSTORE CALLVALUE DUP1 ISZERO PUSH1 0x19 JUMPI PUSH0 DUP1 REVERT JUMPDEST POP PUSH2 0x801 DUP1 PUSH2 0x27 PUSH0 CODECOPY PUSH0 RETURN INVALID PUSH1 0x80 PUSH1 0x40 MSTORE PUSH1 0x4 CALLDATASIZE LT PUSH2 0x49 JUMPI PUSH0 CALLDATALOAD PUSH1 0xE0 SHR DUP1 PUSH4 0x1031EC31 EQ PUSH2 0x4D JUMPI DUP1 PUSH4 0x155DD5EE EQ PUSH2 0x89 JUMPI DUP1 PUSH4 0x27E235E3 EQ PUSH2 0xB1 JUMPI DUP1 PUSH4 0x7DDFE78D EQ PUSH2 0xED JUMPI DUP1 PUSH4 0xE2C41DBC EQ PUSH2 0x117 JUMPI JUMPDEST PUSH0 DUP1 REVERT JUMPDEST CALLVALUE DUP1 ISZERO PUSH2 0x58 JUMPI PUSH0 DUP1 REVERT JUMPDEST POP PUSH2 0x73 PUSH1 0x4 DUP1 CALLDATASIZE SUB DUP2 ADD SWAP1 PUSH2 0x6E SWAP2 SWAP1 PUSH2 0x496 JUMP JUMPDEST PUSH2 0x121 JUMP JUMPDEST PUSH1 0x40 MLOAD PUSH2 0x80 SWAP2 SWAP1 PUSH2 0x4D9 JUMP JUMPDEST PUSH1 0x40 MLOAD DUP1 SWAP2 SUB SWAP1 RETURN JUMPDEST CALLVALUE DUP1 ISZERO PUSH2 0x94 JUMPI PUSH0 DUP1 REVERT JUMPDEST POP PUSH2 0xAF PUSH1 0x4 DUP1 CALLDATASIZE SUB DUP2 ADD SWAP1 PUSH2 0xAA SWAP2 SWAP1 PUSH2 0x51C JUMP JUMPDEST PUSH2 0x136 JUMP JUMPDEST STOP JUMPDEST CALLVALUE DUP1 ISZERO PUSH2 0xBC JUMPI PUSH0 DUP1 REVERT JUMPDEST POP PUSH2 0xD7 PUSH1 0x4 DUP1 CALLDATASIZE SUB DUP2 ADD SWAP1 PUSH2 0xD2 SWAP2 SWAP1 PUSH2 0x496 JUMP JUMPDEST PUSH2 0x3C9 JUMP JUMPDEST PUSH1 0x40 MLOAD PUSH2 0xE4 SWAP2 SWAP1 PUSH2 0x4D9 JUMP JUMPDEST PUSH1 0x40 MLOAD DUP1 SWAP2 SUB SWAP1 RETURN JUMPDEST CALLVALUE DUP1 ISZERO PUSH2 0xF8 JUMPI PUSH0 DUP1 REVERT JUMPDEST POP PUSH2 0x101 PUSH2 0x3DE JUMP JUMPDEST PUSH1 0x40 MLOAD PUSH2 0x10E SWAP2 SWAP1 PUSH2 0x4D9 JUMP JUMPDEST PUSH1 0x40 MLOAD DUP1 SWAP2 SUB SWAP1 RETURN JUMPDEST PUSH2 0x11F PUSH2 0x3E3 JUMP JUMPDEST STOP JUMPDEST PUSH1 0x1 PUSH1 0x20 MSTORE DUP1 PUSH0 MSTORE PUSH1 0x40 PUSH0 KECCAK256 PUSH0 SWAP2 POP SWAP1 POP SLOAD DUP2 JUMP JUMPDEST DUP1 PUSH1 0x2 PUSH0 CALLER PUSH20 0xFFFFFFFFFFFFFFFFFFFFFFFFFFFFFFFFFFFFFFFF AND PUSH20 0xFFFFFFFFFFFFFFFFFFFFFFFFFFFFFFFFFFFFFFFF AND DUP2 MSTORE PUSH1 0x20 ADD SWAP1 DUP2 MSTORE PUSH1 0x20 ADD PUSH0 KECCAK256 SLOAD LT ISZERO PUSH2 0x1B6 JUMPI PUSH1 0x40 MLOAD PUSH32 0x8C379A000000000000000000000000000000000000000000000000000000000 DUP2 MSTORE PUSH1 0x4 ADD PUSH2 0x1AD SWAP1 PUSH2 0x5A1 JUMP JUMPDEST PUSH1 0x40 MLOAD DUP1 SWAP2 SUB SWAP1 REVERT JUMPDEST PUSH0 SLOAD DUP2 GT ISZERO PUSH2 0x1FA JUMPI PUSH1 0x40 MLOAD PUSH32 0x8C379A000000000000000000000000000000000000000000000000000000000 DUP2 MSTORE PUSH1 0x4 ADD PUSH2 0x1F1 SWAP1 PUSH2 0x609 JUMP JUMPDEST PUSH1 0x40 MLOAD DUP1 SWAP2 SUB SWAP1 REVERT JUMPDEST PUSH3 0x93A80 PUSH1 0x1 PUSH0 CALLER PUSH20 0xFFFFFFFFFFFFFFFFFFFFFFFFFFFFFFFFFFFFFFFF AND PUSH20 0xFFFFFFFFFFFFFFFFFFFFFFFFFFFFFFFFFFFFFFFF AND DUP2 MSTORE PUSH1 0x20 ADD SWAP1 DUP2 MSTORE PUSH1 0x20 ADD PUSH0 KECCAK256 SLOAD PUSH2 0x246 SWAP2 SWAP1 PUSH2 0x654 JUMP JUMPDEST TIMESTAMP LT ISZERO PUSH2 0x288 JUMPI PUSH1 0x40 MLOAD PUSH32 0x8C379A000000000000000000000000000000000000000000000000000000000 DUP2 MSTORE PUSH1 0x4 ADD PUSH2 0x27F SWAP1 PUSH2 0x6D1 JUMP JUMPDEST PUSH1 0x40 MLOAD DUP1 SWAP2 SUB SWAP1 REVERT JUMPDEST PUSH0 CALLER PUSH20 0xFFFFFFFFFFFFFFFFFFFFFFFFFFFFFFFFFFFFFFFF AND DUP3 PUSH1 0x40 MLOAD PUSH2 0x2AD SWAP1 PUSH2 0x71C JUMP JUMPDEST PUSH0 PUSH1 0x40 MLOAD DUP1 DUP4 SUB DUP2 DUP6 DUP8 GAS CALL SWAP3 POP POP POP RETURNDATASIZE DUP1 PUSH0 DUP2 EQ PUSH2 0x2E7 JUMPI PUSH1 0x40 MLOAD SWAP2 POP PUSH1 0x1F NOT PUSH1 0x3F RETURNDATASIZE ADD AND DUP3 ADD PUSH1 0x40 MSTORE RETURNDATASIZE DUP3 MSTORE RETURNDATASIZE PUSH0 PUSH1 0x20 DUP5 ADD RETURNDATACOPY PUSH2 0x2EC JUMP JUMPDEST PUSH1 0x60 SWAP2 POP JUMPDEST POP POP SWAP1 POP DUP2 PUSH1 0x2 PUSH0 CALLER PUSH20 0xFFFFFFFFFFFFFFFFFFFFFFFFFFFFFFFFFFFFFFFF AND PUSH20 0xFFFFFFFFFFFFFFFFFFFFFFFFFFFFFFFFFFFFFFFF AND DUP2 MSTORE PUSH1 0x20 ADD SWAP1 DUP2 MSTORE PUSH1 0x20 ADD PUSH0 KECCAK256 PUSH0 DUP3 DUP3 SLOAD PUSH2 0x33C SWAP2 SWAP1 PUSH2 0x730 JUMP JUMPDEST SWAP3 POP POP DUP2 SWAP1 SSTORE POP TIMESTAMP PUSH1 0x1 PUSH0 CALLER PUSH20 0xFFFFFFFFFFFFFFFFFFFFFFFFFFFFFFFFFFFFFFFF AND PUSH20 0xFFFFFFFFFFFFFFFFFFFFFFFFFFFFFFFFFFFFFFFF AND DUP2 MSTORE PUSH1 0x20 ADD SWAP1 DUP2 MSTORE PUSH1 0x20 ADD PUSH0 KECCAK256 DUP2 SWAP1 SSTORE POP DUP1 PUSH2 0x3C5 JUMPI PUSH1 0x40 MLOAD PUSH32 0x8C379A000000000000000000000000000000000000000000000000000000000 DUP2 MSTORE PUSH1 0x4 ADD PUSH2 0x3BC SWAP1 PUSH2 0x7AD JUMP JUMPDEST PUSH1 0x40 MLOAD DUP1 SWAP2 SUB SWAP1 REVERT JUMPDEST POP POP JUMP JUMPDEST PUSH1 0x2 PUSH1 0x20 MSTORE DUP1 PUSH0 MSTORE PUSH1 0x40 PUSH0 KECCAK256 PUSH0 SWAP2 POP SWAP1 POP SLOAD DUP2 JUMP JUMPDEST PUSH0 SLOAD DUP2 JUMP JUMPDEST CALLVALUE PUSH1 0x2 PUSH0 CALLER PUSH20 0xFFFFFFFFFFFFFFFFFFFFFFFFFFFFFFFFFFFFFFFF AND PUSH20 0xFFFFFFFFFFFFFFFFFFFFFFFFFFFFFFFFFFFFFFFF AND DUP2 MSTORE PUSH1 0x20 ADD SWAP1 DUP2 MSTORE PUSH1 0x20 ADD PUSH0 KECCAK256 PUSH0 DUP3 DUP3 SLOAD PUSH2 0x42F SWAP2 SWAP1 PUSH2 0x654 JUMP JUMPDEST SWAP3 POP POP DUP2 SWAP1 SSTORE POP JUMP JUMPDEST PUSH0 DUP1 REVERT JUMPDEST PUSH0 PUSH20 0xFFFFFFFFFFFFFFFFFFFFFFFFFFFFFFFFFFFFFFFF DUP3 AND SWAP1 POP SWAP2 SWAP1 POP JUMP JUMPDEST PUSH0 PUSH2 0x465 DUP3 PUSH2 0x43C JUMP JUMPDEST SWAP1 POP SWAP2 SWAP1 POP JUMP JUMPDEST PUSH2 0x475 DUP2 PUSH2 0x45B JUMP JUMPDEST DUP2 EQ PUSH2 0x47F JUMPI PUSH0 DUP1 REVERT JUMPDEST POP JUMP JUMPDEST PUSH0 DUP2 CALLDATALOAD SWAP1 POP PUSH2 0x490 DUP2 PUSH2 0x46C JUMP JUMPDEST SWAP3 SWAP2 POP POP JUMP JUMPDEST PUSH0 PUSH1 0x20 DUP3 DUP5 SUB SLT ISZERO PUSH2 0x4AB JUMPI PUSH2 0x4AA PUSH2 0x438 JUMP JUMPDEST JUMPDEST PUSH0 PUSH2 0x4B8 DUP5 DUP3 DUP6 ADD PUSH2 0x482 JUMP JUMPDEST SWAP2 POP POP SWAP3 SWAP2 POP POP JUMP JUMPDEST PUSH0 DUP2 SWAP1 POP SWAP2 SWAP1 POP JUMP JUMPDEST PUSH2 0x4D3 DUP2 PUSH2 0x4C1 JUMP JUMPDEST DUP3 MSTORE POP POP JUMP JUMPDEST PUSH0 PUSH1 0x20 DUP3 ADD SWAP1 POP PUSH2 0x4EC PUSH0 DUP4 ADD DUP5 PUSH2 0x4CA JUMP JUMPDEST SWAP3 SWAP2 POP POP JUMP JUMPDEST PUSH2 0x4FB DUP2 PUSH2 0x4C1 JUMP JUMPDEST DUP2 EQ PUSH2 0x505 JUMPI PUSH0 DUP1 REVERT JUMPDEST POP JUMP JUMPDEST PUSH0 DUP2 CALLDATALOAD SWAP1 POP PUSH2 0x516 DUP2 PUSH2 0x4F2 JUMP JUMPDEST SWAP3 SWAP2 POP POP JUMP JUMPDEST PUSH0 PUSH1 0x20 DUP3 DUP5 SUB SLT ISZERO PUSH2 0x531 JUMPI PUSH2 0x530 PUSH2 0x438 JUMP JUMPDEST JUMPDEST PUSH0 PUSH2 0x53E DUP5 DUP3 DUP6 ADD PUSH2 0x508 JUMP JUMPDEST SWAP2 POP POP SWAP3 SWAP2 POP POP JUMP JUMPDEST PUSH0 DUP3 DUP3 MSTORE PUSH1 0x20 DUP3 ADD SWAP1 POP SWAP3 SWAP2 POP POP JUMP JUMPDEST PUSH32 0xE4BD99E9A29DE4B88DE8B6B30000000000000000000000000000000000000000 PUSH0 DUP3 ADD MSTORE POP JUMP JUMPDEST PUSH0 PUSH2 0x58B PUSH1 0xC DUP4 PUSH2 0x547 JUMP JUMPDEST SWAP2 POP PUSH2 0x596 DUP3 PUSH2 0x557 JUMP JUMPDEST PUSH1 0x20 DUP3 ADD SWAP1 POP SWAP2 SWAP1 POP JUMP JUMPDEST PUSH0 PUSH1 0x20 DUP3 ADD SWAP1 POP DUP2 DUP2 SUB PUSH0 DUP4 ADD MSTORE PUSH2 0x5B8 DUP2 PUSH2 0x57F JUMP JUMPDEST SWAP1 POP SWAP2 SWAP1 POP JUMP JUMPDEST PUSH32 0xE8B685E587BAE68F90E78EB0E99990E9A29D0000000000000000000000000000 PUSH0 DUP3 ADD MSTORE POP JUMP JUMPDEST PUSH0 PUSH2 0x5F3 PUSH1 0x12 DUP4 PUSH2 0x547 JUMP JUMPDEST SWAP2 POP PUSH2 0x5FE DUP3 PUSH2 0x5BF JUMP JUMPDEST PUSH1 0x20 DUP3 ADD SWAP1 POP SWAP2 SWAP1 POP JUMP JUMPDEST PUSH0 PUSH1 0x20 DUP3 ADD SWAP1 POP DUP2 DUP2 SUB PUSH0 DUP4 ADD MSTORE PUSH2 0x620 DUP2 PUSH2 0x5E7 JUMP JUMPDEST SWAP1 POP SWAP2 SWAP1 POP JUMP JUMPDEST PUSH32 0x4E487B7100000000000000000000000000000000000000000000000000000000 PUSH0 MSTORE PUSH1 0x11 PUSH1 0x4 MSTORE PUSH1 0x24 PUSH0 REVERT JUMPDEST PUSH0 PUSH2 0x65E DUP3 PUSH2 0x4C1 JUMP JUMPDEST SWAP2 POP PUSH2 0x669 DUP4 PUSH2 0x4C1 JUMP JUMPDEST SWAP3 POP DUP3 DUP3 ADD SWAP1 POP DUP1 DUP3 GT ISZERO PUSH2 0x681 JUMPI PUSH2 0x680 PUSH2 0x627 JUMP JUMPDEST JUMPDEST SWAP3 SWAP2 POP POP JUMP JUMPDEST PUSH32 0xE68F90E78EB0E586B7E58DB4E697B6E997B4E69CAAE588B00000000000000000 PUSH0 DUP3 ADD MSTORE POP JUMP JUMPDEST PUSH0 PUSH2 0x6BB PUSH1 0x18 DUP4 PUSH2 0x547 JUMP JUMPDEST SWAP2 POP PUSH2 0x6C6 DUP3 PUSH2 0x687 JUMP JUMPDEST PUSH1 0x20 DUP3 ADD SWAP1 POP SWAP2 SWAP1 POP JUMP JUMPDEST PUSH0 PUSH1 0x20 DUP3 ADD SWAP1 POP DUP2 DUP2 SUB PUSH0 DUP4 ADD MSTORE PUSH2 0x6E8 DUP2 PUSH2 0x6AF JUMP JUMPDEST SWAP1 POP SWAP2 SWAP1 POP JUMP JUMPDEST PUSH0 DUP2 SWAP1 POP SWAP3 SWAP2 POP POP JUMP JUMPDEST POP JUMP JUMPDEST PUSH0 PUSH2 0x707 PUSH0 DUP4 PUSH2 0x6EF JUMP JUMPDEST SWAP2 POP PUSH2 0x712 DUP3 PUSH2 0x6F9 JUMP JUMPDEST PUSH0 DUP3 ADD SWAP1 POP SWAP2 SWAP1 POP JUMP JUMPDEST PUSH0 PUSH2 0x726 DUP3 PUSH2 0x6FC JUMP JUMPDEST SWAP2 POP DUP2 SWAP1 POP SWAP2 SWAP1 POP JUMP JUMPDEST PUSH0 PUSH2 0x73A DUP3 PUSH2 0x4C1 JUMP JUMPDEST SWAP2 POP PUSH2 0x745 DUP4 PUSH2 0x4C1 JUMP JUMPDEST SWAP3 POP DUP3 DUP3 SUB SWAP1 POP DUP2 DUP2 GT ISZERO PUSH2 0x75D JUMPI PUSH2 0x75C PUSH2 0x627 JUMP JUMPDEST JUMPDEST SWAP3 SWAP2 POP POP JUMP JUMPDEST PUSH32 0xE8BDACE8B4A6E5A4B1E8B4A50000000000000000000000000000000000000000 PUSH0 DUP3 ADD MSTORE POP JUMP JUMPDEST PUSH0 PUSH2 0x797 PUSH1 0xC DUP4 PUSH2 0x547 JUMP JUMPDEST SWAP2 POP PUSH2 0x7A2 DUP3 PUSH2 0x763 JUMP JUMPDEST PUSH1 0x20 DUP3 ADD SWAP1 POP SWAP2 SWAP1 POP JUMP JUMPDEST PUSH0 PUSH1 0x20 DUP3 ADD SWAP1 POP DUP2 DUP2 SUB PUSH0 DUP4 ADD MSTORE PUSH2 0x7C4 DUP2 PUSH2 0x78B JUMP JUMPDEST SWAP1 POP SWAP2 SWAP1 POP JUMP INVALID LOG2 PUSH5 0x6970667358 0x22 SLT KECCAK256 0xA5 LOG3 MOD PUSH21 0xEF8BA512214921557B76B25D51E9E6D91DE9025B54 ISZERO SWAP15 0xED 0xE6 0x2B PUSH11 0xA664736F6C634300081A00 CALLER "
				},
				"gasEstimates": {
					"creation": {
						"codeDepositCost": "409800",
						"executionCost": "22552",
						"totalCost": "432352"
					},
					"external": {
						"balances(address)": "2824",
						"depositFunds()": "infinite",
						"lastWithdrawTime(address)": "2780",
						"withdrawFunds(uint256)": "infinite",
						"withdrawalLimit()": "2468"
					}
				},
				"methodIdentifiers": {
					"balances(address)": "27e235e3",
					"depositFunds()": "e2c41dbc",
					"lastWithdrawTime(address)": "1031ec31",
					"withdrawFunds(uint256)": "155dd5ee",
					"withdrawalLimit()": "7ddfe78d"
				}
			},
			"storageLayout": {
				"storage": [
					{
						"astId": 4,
						"contract": "contracts/DAOAttack/EtherStore.sol:EtherStore",
						"label": "withdrawalLimit",
						"offset": 0,
						"slot": "0",
						"type": "t_uint256"
					},
					{
						"astId": 8,
						"contract": "contracts/DAOAttack/EtherStore.sol:EtherStore",
						"label": "lastWithdrawTime",
						"offset": 0,
						"slot": "1",
						"type": "t_mapping(t_address,t_uint256)"
					},
					{
						"astId": 12,
						"contract": "contracts/DAOAttack/EtherStore.sol:EtherStore",
						"label": "balances",
						"offset": 0,
						"slot": "2",
						"type": "t_mapping(t_address,t_uint256)"
					}
				],
				"types": {
					"t_address": {
						"encoding": "inplace",
						"label": "address",
						"numberOfBytes": "20"
					},
					"t_mapping(t_address,t_uint256)": {
						"encoding": "mapping",
						"key": "t_address",
						"label": "mapping(address => uint256)",
						"numberOfBytes": "32",
						"value": "t_uint256"
					},
					"t_uint256": {
						"encoding": "inplace",
						"label": "uint256",
						"numberOfBytes": "32"
					}
				}
			},
			"userdoc": {
				"kind": "user",
				"methods": {},
				"version": 1
			}
		}
	}
}